{
	"monad dashboard/WenMainnet.sol": {
		"WenMainnet": {
			"abi": [
				{
					"anonymous": false,
					"inputs": [
						{
							"indexed": true,
							"internalType": "address",
							"name": "user",
							"type": "address"
						},
						{
							"indexed": false,
							"internalType": "string",
							"name": "message",
							"type": "string"
						}
					],
					"name": "Wen",
					"type": "event"
				},
				{
					"inputs": [
						{
							"internalType": "address",
							"name": "",
							"type": "address"
						}
					],
					"name": "cries",
					"outputs": [
						{
							"internalType": "uint256",
							"name": "",
							"type": "uint256"
						}
					],
					"stateMutability": "view",
					"type": "function"
				},
				{
					"inputs": [
						{
							"internalType": "string",
							"name": "message",
							"type": "string"
						}
					],
					"name": "cryWen",
					"outputs": [],
					"stateMutability": "nonpayable",
					"type": "function"
				},
				{
					"inputs": [],
					"name": "getMyWens",
					"outputs": [
						{
							"internalType": "uint256",
							"name": "",
							"type": "uint256"
						}
					],
					"stateMutability": "view",
					"type": "function"
				}
			],
			"devdoc": {
				"kind": "dev",
				"methods": {},
				"version": 1
			},
			"evm": {
				"assembly": "    /* \"monad dashboard/WenMainnet.sol\":61:525  contract WenMainnet {... */\n  mstore(0x40, 0x80)\n  callvalue\n  dup1\n  iszero\n  tag_1\n  jumpi\n  0x00\n  dup1\n  revert\ntag_1:\n  pop\n  dataSize(sub_0)\n  dup1\n  dataOffset(sub_0)\n  0x00\n  codecopy\n  0x00\n  return\nstop\n\nsub_0: assembly {\n        /* \"monad dashboard/WenMainnet.sol\":61:525  contract WenMainnet {... */\n      mstore(0x40, 0x80)\n      callvalue\n      dup1\n      iszero\n      tag_1\n      jumpi\n      0x00\n      dup1\n      revert\n    tag_1:\n      pop\n      jumpi(tag_2, lt(calldatasize, 0x04))\n      shr(0xe0, calldataload(0x00))\n      dup1\n      0xef517b8f\n      eq\n      tag_3\n      jumpi\n      dup1\n      0xf433eccd\n      eq\n      tag_4\n      jumpi\n      dup1\n      0xf9914076\n      eq\n      tag_5\n      jumpi\n    tag_2:\n      0x00\n      dup1\n      revert\n        /* \"monad dashboard/WenMainnet.sol\":222:418  function cryWen(string calldata message) external {  // Renamed 'msg' to 'message'... */\n    tag_3:\n      tag_6\n      0x04\n      dup1\n      calldatasize\n      sub\n      dup2\n      add\n      swap1\n      tag_7\n      swap2\n      swap1\n      tag_8\n      jump\t// in\n    tag_7:\n      tag_9\n      jump\t// in\n    tag_6:\n      stop\n        /* \"monad dashboard/WenMainnet.sol\":426:522  function getMyWens() external view returns (uint256) {... */\n    tag_4:\n      tag_10\n      tag_11\n      jump\t// in\n    tag_10:\n      mload(0x40)\n      tag_12\n      swap2\n      swap1\n      tag_13\n      jump\t// in\n    tag_12:\n      mload(0x40)\n      dup1\n      swap2\n      sub\n      swap1\n      return\n        /* \"monad dashboard/WenMainnet.sol\":173:213  mapping(address => uint256) public cries */\n    tag_5:\n      tag_14\n      0x04\n      dup1\n      calldatasize\n      sub\n      dup2\n      add\n      swap1\n      tag_15\n      swap2\n      swap1\n      tag_16\n      jump\t// in\n    tag_15:\n      tag_17\n      jump\t// in\n    tag_14:\n      mload(0x40)\n      tag_18\n      swap2\n      swap1\n      tag_13\n      jump\t// in\n    tag_18:\n      mload(0x40)\n      dup1\n      swap2\n      sub\n      swap1\n      return\n        /* \"monad dashboard/WenMainnet.sol\":222:418  function cryWen(string calldata message) external {  // Renamed 'msg' to 'message'... */\n    tag_9:\n        /* \"monad dashboard/WenMainnet.sol\":314:319  cries */\n      0x00\n        /* \"monad dashboard/WenMainnet.sol\":314:331  cries[msg.sender] */\n      dup1\n        /* \"monad dashboard/WenMainnet.sol\":320:330  msg.sender */\n      caller\n        /* \"monad dashboard/WenMainnet.sol\":314:331  cries[msg.sender] */\n      0xffffffffffffffffffffffffffffffffffffffff\n      and\n      0xffffffffffffffffffffffffffffffffffffffff\n      and\n      dup2\n      mstore\n      0x20\n      add\n      swap1\n      dup2\n      mstore\n      0x20\n      add\n      0x00\n      keccak256\n      0x00\n        /* \"monad dashboard/WenMainnet.sol\":314:333  cries[msg.sender]++ */\n      dup2\n      sload\n      dup1\n      swap3\n      swap2\n      swap1\n      tag_20\n      swap1\n      tag_21\n      jump\t// in\n    tag_20:\n      swap2\n      swap1\n      pop\n      sstore\n      pop\n        /* \"monad dashboard/WenMainnet.sol\":353:363  msg.sender */\n      caller\n        /* \"monad dashboard/WenMainnet.sol\":349:373  Wen(msg.sender, message) */\n      0xffffffffffffffffffffffffffffffffffffffff\n      and\n      0x43c6b591b7cdb793f55423614efd53a91655aa5a98b5ba40a20d2257337be119\n        /* \"monad dashboard/WenMainnet.sol\":365:372  message */\n      dup4\n      dup4\n        /* \"monad dashboard/WenMainnet.sol\":349:373  Wen(msg.sender, message) */\n      mload(0x40)\n      tag_22\n      swap3\n      swap2\n      swap1\n      tag_23\n      jump\t// in\n    tag_22:\n      mload(0x40)\n      dup1\n      swap2\n      sub\n      swap1\n      log2\n        /* \"monad dashboard/WenMainnet.sol\":222:418  function cryWen(string calldata message) external {  // Renamed 'msg' to 'message'... */\n      pop\n      pop\n      jump\t// out\n        /* \"monad dashboard/WenMainnet.sol\":426:522  function getMyWens() external view returns (uint256) {... */\n    tag_11:\n        /* \"monad dashboard/WenMainnet.sol\":470:477  uint256 */\n      0x00\n        /* \"monad dashboard/WenMainnet.sol\":497:502  cries */\n      dup1\n        /* \"monad dashboard/WenMainnet.sol\":497:514  cries[msg.sender] */\n      0x00\n        /* \"monad dashboard/WenMainnet.sol\":503:513  msg.sender */\n      caller\n        /* \"monad dashboard/WenMainnet.sol\":497:514  cries[msg.sender] */\n      0xffffffffffffffffffffffffffffffffffffffff\n      and\n      0xffffffffffffffffffffffffffffffffffffffff\n      and\n      dup2\n      mstore\n      0x20\n      add\n      swap1\n      dup2\n      mstore\n      0x20\n      add\n      0x00\n      keccak256\n      sload\n        /* \"monad dashboard/WenMainnet.sol\":490:514  return cries[msg.sender] */\n      swap1\n      pop\n        /* \"monad dashboard/WenMainnet.sol\":426:522  function getMyWens() external view returns (uint256) {... */\n      swap1\n      jump\t// out\n        /* \"monad dashboard/WenMainnet.sol\":173:213  mapping(address => uint256) public cries */\n    tag_17:\n      mstore(0x20, 0x00)\n      dup1\n      0x00\n      mstore\n      keccak256(0x00, 0x40)\n      0x00\n      swap2\n      pop\n      swap1\n      pop\n      sload\n      dup2\n      jump\t// out\n        /* \"#utility.yul\":88:205   */\n    tag_26:\n        /* \"#utility.yul\":197:198   */\n      0x00\n        /* \"#utility.yul\":194:195   */\n      dup1\n        /* \"#utility.yul\":187:199   */\n      revert\n        /* \"#utility.yul\":211:328   */\n    tag_27:\n        /* \"#utility.yul\":320:321   */\n      0x00\n        /* \"#utility.yul\":317:318   */\n      dup1\n        /* \"#utility.yul\":310:322   */\n      revert\n        /* \"#utility.yul\":334:451   */\n    tag_28:\n        /* \"#utility.yul\":443:444   */\n      0x00\n        /* \"#utility.yul\":440:441   */\n      dup1\n        /* \"#utility.yul\":433:445   */\n      revert\n        /* \"#utility.yul\":457:574   */\n    tag_29:\n        /* \"#utility.yul\":566:567   */\n      0x00\n        /* \"#utility.yul\":563:564   */\n      dup1\n        /* \"#utility.yul\":556:568   */\n      revert\n        /* \"#utility.yul\":580:697   */\n    tag_30:\n        /* \"#utility.yul\":689:690   */\n      0x00\n        /* \"#utility.yul\":686:687   */\n      dup1\n        /* \"#utility.yul\":679:691   */\n      revert\n        /* \"#utility.yul\":717:1270   */\n    tag_31:\n        /* \"#utility.yul\":775:783   */\n      0x00\n        /* \"#utility.yul\":785:791   */\n      dup1\n        /* \"#utility.yul\":835:838   */\n      dup4\n        /* \"#utility.yul\":828:832   */\n      0x1f\n        /* \"#utility.yul\":820:826   */\n      dup5\n        /* \"#utility.yul\":816:833   */\n      add\n        /* \"#utility.yul\":812:839   */\n      slt\n        /* \"#utility.yul\":802:924   */\n      tag_51\n      jumpi\n        /* \"#utility.yul\":843:922   */\n      tag_52\n      tag_28\n      jump\t// in\n    tag_52:\n        /* \"#utility.yul\":802:924   */\n    tag_51:\n        /* \"#utility.yul\":956:962   */\n      dup3\n        /* \"#utility.yul\":943:963   */\n      calldataload\n        /* \"#utility.yul\":933:963   */\n      swap1\n      pop\n        /* \"#utility.yul\":986:1004   */\n      0xffffffffffffffff\n        /* \"#utility.yul\":978:984   */\n      dup2\n        /* \"#utility.yul\":975:1005   */\n      gt\n        /* \"#utility.yul\":972:1089   */\n      iszero\n      tag_53\n      jumpi\n        /* \"#utility.yul\":1008:1087   */\n      tag_54\n      tag_29\n      jump\t// in\n    tag_54:\n        /* \"#utility.yul\":972:1089   */\n    tag_53:\n        /* \"#utility.yul\":1122:1126   */\n      0x20\n        /* \"#utility.yul\":1114:1120   */\n      dup4\n        /* \"#utility.yul\":1110:1127   */\n      add\n        /* \"#utility.yul\":1098:1127   */\n      swap2\n      pop\n        /* \"#utility.yul\":1176:1179   */\n      dup4\n        /* \"#utility.yul\":1168:1172   */\n      0x01\n        /* \"#utility.yul\":1160:1166   */\n      dup3\n        /* \"#utility.yul\":1156:1173   */\n      mul\n        /* \"#utility.yul\":1146:1154   */\n      dup4\n        /* \"#utility.yul\":1142:1174   */\n      add\n        /* \"#utility.yul\":1139:1180   */\n      gt\n        /* \"#utility.yul\":1136:1264   */\n      iszero\n      tag_55\n      jumpi\n        /* \"#utility.yul\":1183:1262   */\n      tag_56\n      tag_30\n      jump\t// in\n    tag_56:\n        /* \"#utility.yul\":1136:1264   */\n    tag_55:\n        /* \"#utility.yul\":717:1270   */\n      swap3\n      pop\n      swap3\n      swap1\n      pop\n      jump\t// out\n        /* \"#utility.yul\":1276:1805   */\n    tag_8:\n        /* \"#utility.yul\":1347:1353   */\n      0x00\n        /* \"#utility.yul\":1355:1361   */\n      dup1\n        /* \"#utility.yul\":1404:1406   */\n      0x20\n        /* \"#utility.yul\":1392:1401   */\n      dup4\n        /* \"#utility.yul\":1383:1390   */\n      dup6\n        /* \"#utility.yul\":1379:1402   */\n      sub\n        /* \"#utility.yul\":1375:1407   */\n      slt\n        /* \"#utility.yul\":1372:1491   */\n      iszero\n      tag_58\n      jumpi\n        /* \"#utility.yul\":1410:1489   */\n      tag_59\n      tag_26\n      jump\t// in\n    tag_59:\n        /* \"#utility.yul\":1372:1491   */\n    tag_58:\n        /* \"#utility.yul\":1558:1559   */\n      0x00\n        /* \"#utility.yul\":1547:1556   */\n      dup4\n        /* \"#utility.yul\":1543:1560   */\n      add\n        /* \"#utility.yul\":1530:1561   */\n      calldataload\n        /* \"#utility.yul\":1588:1606   */\n      0xffffffffffffffff\n        /* \"#utility.yul\":1580:1586   */\n      dup2\n        /* \"#utility.yul\":1577:1607   */\n      gt\n        /* \"#utility.yul\":1574:1691   */\n      iszero\n      tag_60\n      jumpi\n        /* \"#utility.yul\":1610:1689   */\n      tag_61\n      tag_27\n      jump\t// in\n    tag_61:\n        /* \"#utility.yul\":1574:1691   */\n    tag_60:\n        /* \"#utility.yul\":1723:1788   */\n      tag_62\n        /* \"#utility.yul\":1780:1787   */\n      dup6\n        /* \"#utility.yul\":1771:1777   */\n      dup3\n        /* \"#utility.yul\":1760:1769   */\n      dup7\n        /* \"#utility.yul\":1756:1778   */\n      add\n        /* \"#utility.yul\":1723:1788   */\n      tag_31\n      jump\t// in\n    tag_62:\n        /* \"#utility.yul\":1705:1788   */\n      swap3\n      pop\n      swap3\n      pop\n        /* \"#utility.yul\":1501:1798   */\n      pop\n        /* \"#utility.yul\":1276:1805   */\n      swap3\n      pop\n      swap3\n      swap1\n      pop\n      jump\t// out\n        /* \"#utility.yul\":1811:1888   */\n    tag_32:\n        /* \"#utility.yul\":1848:1855   */\n      0x00\n        /* \"#utility.yul\":1877:1882   */\n      dup2\n        /* \"#utility.yul\":1866:1882   */\n      swap1\n      pop\n        /* \"#utility.yul\":1811:1888   */\n      swap2\n      swap1\n      pop\n      jump\t// out\n        /* \"#utility.yul\":1894:2012   */\n    tag_33:\n        /* \"#utility.yul\":1981:2005   */\n      tag_65\n        /* \"#utility.yul\":1999:2004   */\n      dup2\n        /* \"#utility.yul\":1981:2005   */\n      tag_32\n      jump\t// in\n    tag_65:\n        /* \"#utility.yul\":1976:1979   */\n      dup3\n        /* \"#utility.yul\":1969:2006   */\n      mstore\n        /* \"#utility.yul\":1894:2012   */\n      pop\n      pop\n      jump\t// out\n        /* \"#utility.yul\":2018:2240   */\n    tag_13:\n        /* \"#utility.yul\":2111:2115   */\n      0x00\n        /* \"#utility.yul\":2149:2151   */\n      0x20\n        /* \"#utility.yul\":2138:2147   */\n      dup3\n        /* \"#utility.yul\":2134:2152   */\n      add\n        /* \"#utility.yul\":2126:2152   */\n      swap1\n      pop\n        /* \"#utility.yul\":2162:2233   */\n      tag_67\n        /* \"#utility.yul\":2230:2231   */\n      0x00\n        /* \"#utility.yul\":2219:2228   */\n      dup4\n        /* \"#utility.yul\":2215:2232   */\n      add\n        /* \"#utility.yul\":2206:2212   */\n      dup5\n        /* \"#utility.yul\":2162:2233   */\n      tag_33\n      jump\t// in\n    tag_67:\n        /* \"#utility.yul\":2018:2240   */\n      swap3\n      swap2\n      pop\n      pop\n      jump\t// out\n        /* \"#utility.yul\":2246:2372   */\n    tag_34:\n        /* \"#utility.yul\":2283:2290   */\n      0x00\n        /* \"#utility.yul\":2323:2365   */\n      0xffffffffffffffffffffffffffffffffffffffff\n        /* \"#utility.yul\":2316:2321   */\n      dup3\n        /* \"#utility.yul\":2312:2366   */\n      and\n        /* \"#utility.yul\":2301:2366   */\n      swap1\n      pop\n        /* \"#utility.yul\":2246:2372   */\n      swap2\n      swap1\n      pop\n      jump\t// out\n        /* \"#utility.yul\":2378:2474   */\n    tag_35:\n        /* \"#utility.yul\":2415:2422   */\n      0x00\n        /* \"#utility.yul\":2444:2468   */\n      tag_70\n        /* \"#utility.yul\":2462:2467   */\n      dup3\n        /* \"#utility.yul\":2444:2468   */\n      tag_34\n      jump\t// in\n    tag_70:\n        /* \"#utility.yul\":2433:2468   */\n      swap1\n      pop\n        /* \"#utility.yul\":2378:2474   */\n      swap2\n      swap1\n      pop\n      jump\t// out\n        /* \"#utility.yul\":2480:2602   */\n    tag_36:\n        /* \"#utility.yul\":2553:2577   */\n      tag_72\n        /* \"#utility.yul\":2571:2576   */\n      dup2\n        /* \"#utility.yul\":2553:2577   */\n      tag_35\n      jump\t// in\n    tag_72:\n        /* \"#utility.yul\":2546:2551   */\n      dup2\n        /* \"#utility.yul\":2543:2578   */\n      eq\n        /* \"#utility.yul\":2533:2596   */\n      tag_73\n      jumpi\n        /* \"#utility.yul\":2592:2593   */\n      0x00\n        /* \"#utility.yul\":2589:2590   */\n      dup1\n        /* \"#utility.yul\":2582:2594   */\n      revert\n        /* \"#utility.yul\":2533:2596   */\n    tag_73:\n        /* \"#utility.yul\":2480:2602   */\n      pop\n      jump\t// out\n        /* \"#utility.yul\":2608:2747   */\n    tag_37:\n        /* \"#utility.yul\":2654:2659   */\n      0x00\n        /* \"#utility.yul\":2692:2698   */\n      dup2\n        /* \"#utility.yul\":2679:2699   */\n      calldataload\n        /* \"#utility.yul\":2670:2699   */\n      swap1\n      pop\n        /* \"#utility.yul\":2708:2741   */\n      tag_75\n        /* \"#utility.yul\":2735:2740   */\n      dup2\n        /* \"#utility.yul\":2708:2741   */\n      tag_36\n      jump\t// in\n    tag_75:\n        /* \"#utility.yul\":2608:2747   */\n      swap3\n      swap2\n      pop\n      pop\n      jump\t// out\n        /* \"#utility.yul\":2753:3082   */\n    tag_16:\n        /* \"#utility.yul\":2812:2818   */\n      0x00\n        /* \"#utility.yul\":2861:2863   */\n      0x20\n        /* \"#utility.yul\":2849:2858   */\n      dup3\n        /* \"#utility.yul\":2840:2847   */\n      dup5\n        /* \"#utility.yul\":2836:2859   */\n      sub\n        /* \"#utility.yul\":2832:2864   */\n      slt\n        /* \"#utility.yul\":2829:2948   */\n      iszero\n      tag_77\n      jumpi\n        /* \"#utility.yul\":2867:2946   */\n      tag_78\n      tag_26\n      jump\t// in\n    tag_78:\n        /* \"#utility.yul\":2829:2948   */\n    tag_77:\n        /* \"#utility.yul\":2987:2988   */\n      0x00\n        /* \"#utility.yul\":3012:3065   */\n      tag_79\n        /* \"#utility.yul\":3057:3064   */\n      dup5\n        /* \"#utility.yul\":3048:3054   */\n      dup3\n        /* \"#utility.yul\":3037:3046   */\n      dup6\n        /* \"#utility.yul\":3033:3055   */\n      add\n        /* \"#utility.yul\":3012:3065   */\n      tag_37\n      jump\t// in\n    tag_79:\n        /* \"#utility.yul\":3002:3065   */\n      swap2\n      pop\n        /* \"#utility.yul\":2958:3075   */\n      pop\n        /* \"#utility.yul\":2753:3082   */\n      swap3\n      swap2\n      pop\n      pop\n      jump\t// out\n        /* \"#utility.yul\":3088:3268   */\n    tag_38:\n        /* \"#utility.yul\":3136:3213   */\n      0x4e487b7100000000000000000000000000000000000000000000000000000000\n        /* \"#utility.yul\":3133:3134   */\n      0x00\n        /* \"#utility.yul\":3126:3214   */\n      mstore\n        /* \"#utility.yul\":3233:3237   */\n      0x11\n        /* \"#utility.yul\":3230:3231   */\n      0x04\n        /* \"#utility.yul\":3223:3238   */\n      mstore\n        /* \"#utility.yul\":3257:3261   */\n      0x24\n        /* \"#utility.yul\":3254:3255   */\n      0x00\n        /* \"#utility.yul\":3247:3262   */\n      revert\n        /* \"#utility.yul\":3274:3507   */\n    tag_21:\n        /* \"#utility.yul\":3313:3316   */\n      0x00\n        /* \"#utility.yul\":3336:3360   */\n      tag_82\n        /* \"#utility.yul\":3354:3359   */\n      dup3\n        /* \"#utility.yul\":3336:3360   */\n      tag_32\n      jump\t// in\n    tag_82:\n        /* \"#utility.yul\":3327:3360   */\n      swap2\n      pop\n        /* \"#utility.yul\":3382:3448   */\n      0xffffffffffffffffffffffffffffffffffffffffffffffffffffffffffffffff\n        /* \"#utility.yul\":3375:3380   */\n      dup3\n        /* \"#utility.yul\":3372:3449   */\n      sub\n        /* \"#utility.yul\":3369:3472   */\n      tag_83\n      jumpi\n        /* \"#utility.yul\":3452:3470   */\n      tag_84\n      tag_38\n      jump\t// in\n    tag_84:\n        /* \"#utility.yul\":3369:3472   */\n    tag_83:\n        /* \"#utility.yul\":3499:3500   */\n      0x01\n        /* \"#utility.yul\":3492:3497   */\n      dup3\n        /* \"#utility.yul\":3488:3501   */\n      add\n        /* \"#utility.yul\":3481:3501   */\n      swap1\n      pop\n        /* \"#utility.yul\":3274:3507   */\n      swap2\n      swap1\n      pop\n      jump\t// out\n        /* \"#utility.yul\":3513:3682   */\n    tag_39:\n        /* \"#utility.yul\":3597:3608   */\n      0x00\n        /* \"#utility.yul\":3631:3637   */\n      dup3\n        /* \"#utility.yul\":3626:3629   */\n      dup3\n        /* \"#utility.yul\":3619:3638   */\n      mstore\n        /* \"#utility.yul\":3671:3675   */\n      0x20\n        /* \"#utility.yul\":3666:3669   */\n      dup3\n        /* \"#utility.yul\":3662:3676   */\n      add\n        /* \"#utility.yul\":3647:3676   */\n      swap1\n      pop\n        /* \"#utility.yul\":3513:3682   */\n      swap3\n      swap2\n      pop\n      pop\n      jump\t// out\n        /* \"#utility.yul\":3688:3834   */\n    tag_40:\n        /* \"#utility.yul\":3785:3791   */\n      dup3\n        /* \"#utility.yul\":3780:3783   */\n      dup2\n        /* \"#utility.yul\":3775:3778   */\n      dup4\n        /* \"#utility.yul\":3762:3792   */\n      calldatacopy\n        /* \"#utility.yul\":3826:3827   */\n      0x00\n        /* \"#utility.yul\":3817:3823   */\n      dup4\n        /* \"#utility.yul\":3812:3815   */\n      dup4\n        /* \"#utility.yul\":3808:3824   */\n      add\n        /* \"#utility.yul\":3801:3828   */\n      mstore\n        /* \"#utility.yul\":3688:3834   */\n      pop\n      pop\n      pop\n      jump\t// out\n        /* \"#utility.yul\":3840:3942   */\n    tag_41:\n        /* \"#utility.yul\":3881:3887   */\n      0x00\n        /* \"#utility.yul\":3932:3934   */\n      0x1f\n        /* \"#utility.yul\":3928:3935   */\n      not\n        /* \"#utility.yul\":3923:3925   */\n      0x1f\n        /* \"#utility.yul\":3916:3921   */\n      dup4\n        /* \"#utility.yul\":3912:3926   */\n      add\n        /* \"#utility.yul\":3908:3936   */\n      and\n        /* \"#utility.yul\":3898:3936   */\n      swap1\n      pop\n        /* \"#utility.yul\":3840:3942   */\n      swap2\n      swap1\n      pop\n      jump\t// out\n        /* \"#utility.yul\":3972:4289   */\n    tag_42:\n        /* \"#utility.yul\":4070:4073   */\n      0x00\n        /* \"#utility.yul\":4091:4162   */\n      tag_89\n        /* \"#utility.yul\":4155:4161   */\n      dup4\n        /* \"#utility.yul\":4150:4153   */\n      dup6\n        /* \"#utility.yul\":4091:4162   */\n      tag_39\n      jump\t// in\n    tag_89:\n        /* \"#utility.yul\":4084:4162   */\n      swap4\n      pop\n        /* \"#utility.yul\":4172:4228   */\n      tag_90\n        /* \"#utility.yul\":4221:4227   */\n      dup4\n        /* \"#utility.yul\":4216:4219   */\n      dup6\n        /* \"#utility.yul\":4209:4214   */\n      dup5\n        /* \"#utility.yul\":4172:4228   */\n      tag_40\n      jump\t// in\n    tag_90:\n        /* \"#utility.yul\":4253:4282   */\n      tag_91\n        /* \"#utility.yul\":4275:4281   */\n      dup4\n        /* \"#utility.yul\":4253:4282   */\n      tag_41\n      jump\t// in\n    tag_91:\n        /* \"#utility.yul\":4248:4251   */\n      dup5\n        /* \"#utility.yul\":4244:4283   */\n      add\n        /* \"#utility.yul\":4237:4283   */\n      swap1\n      pop\n        /* \"#utility.yul\":3972:4289   */\n      swap4\n      swap3\n      pop\n      pop\n      pop\n      jump\t// out\n        /* \"#utility.yul\":4295:4628   */\n    tag_23:\n        /* \"#utility.yul\":4418:4422   */\n      0x00\n        /* \"#utility.yul\":4456:4458   */\n      0x20\n        /* \"#utility.yul\":4445:4454   */\n      dup3\n        /* \"#utility.yul\":4441:4459   */\n      add\n        /* \"#utility.yul\":4433:4459   */\n      swap1\n      pop\n        /* \"#utility.yul\":4505:4514   */\n      dup2\n        /* \"#utility.yul\":4499:4503   */\n      dup2\n        /* \"#utility.yul\":4495:4515   */\n      sub\n        /* \"#utility.yul\":4491:4492   */\n      0x00\n        /* \"#utility.yul\":4480:4489   */\n      dup4\n        /* \"#utility.yul\":4476:4493   */\n      add\n        /* \"#utility.yul\":4469:4516   */\n      mstore\n        /* \"#utility.yul\":4533:4621   */\n      tag_93\n        /* \"#utility.yul\":4616:4620   */\n      dup2\n        /* \"#utility.yul\":4607:4613   */\n      dup5\n        /* \"#utility.yul\":4599:4605   */\n      dup7\n        /* \"#utility.yul\":4533:4621   */\n      tag_42\n      jump\t// in\n    tag_93:\n        /* \"#utility.yul\":4525:4621   */\n      swap1\n      pop\n        /* \"#utility.yul\":4295:4628   */\n      swap4\n      swap3\n      pop\n      pop\n      pop\n      jump\t// out\n\n    auxdata: 0xa26469706673582212205e09fe8360ffd37a3b0413bd95a8d25cca40615ec75fab09e2d81c9758afd33264736f6c63430008170033\n}\n",
				"bytecode": {
					"linkReferences": {},
					"object": "608060405234801561000f575f80fd5b506104398061001d5f395ff3fe608060405234801561000f575f80fd5b506004361061003f575f3560e01c8063ef517b8f14610043578063f433eccd1461005f578063f99140761461007d575b5f80fd5b61005d60048036038101906100589190610212565b6100ad565b005b610067610152565b6040516100749190610275565b60405180910390f35b610097600480360381019061009291906102e8565b610195565b6040516100a49190610275565b60405180910390f35b5f803373ffffffffffffffffffffffffffffffffffffffff1673ffffffffffffffffffffffffffffffffffffffff1681526020019081526020015f205f8154809291906100f990610340565b91905055503373ffffffffffffffffffffffffffffffffffffffff167f43c6b591b7cdb793f55423614efd53a91655aa5a98b5ba40a20d2257337be11983836040516101469291906103e1565b60405180910390a25050565b5f805f3373ffffffffffffffffffffffffffffffffffffffff1673ffffffffffffffffffffffffffffffffffffffff1681526020019081526020015f2054905090565b5f602052805f5260405f205f915090505481565b5f80fd5b5f80fd5b5f80fd5b5f80fd5b5f80fd5b5f8083601f8401126101d2576101d16101b1565b5b8235905067ffffffffffffffff8111156101ef576101ee6101b5565b5b60208301915083600182028301111561020b5761020a6101b9565b5b9250929050565b5f8060208385031215610228576102276101a9565b5b5f83013567ffffffffffffffff811115610245576102446101ad565b5b610251858286016101bd565b92509250509250929050565b5f819050919050565b61026f8161025d565b82525050565b5f6020820190506102885f830184610266565b92915050565b5f73ffffffffffffffffffffffffffffffffffffffff82169050919050565b5f6102b78261028e565b9050919050565b6102c7816102ad565b81146102d1575f80fd5b50565b5f813590506102e2816102be565b92915050565b5f602082840312156102fd576102fc6101a9565b5b5f61030a848285016102d4565b91505092915050565b7f4e487b71000000000000000000000000000000000000000000000000000000005f52601160045260245ffd5b5f61034a8261025d565b91507fffffffffffffffffffffffffffffffffffffffffffffffffffffffffffffffff820361037c5761037b610313565b5b600182019050919050565b5f82825260208201905092915050565b828183375f83830152505050565b5f601f19601f8301169050919050565b5f6103c08385610387565b93506103cd838584610397565b6103d6836103a5565b840190509392505050565b5f6020820190508181035f8301526103fa8184866103b5565b9050939250505056fea26469706673582212205e09fe8360ffd37a3b0413bd95a8d25cca40615ec75fab09e2d81c9758afd33264736f6c63430008170033",
					"opcodes": "PUSH1 0x80 PUSH1 0x40 MSTORE CALLVALUE DUP1 ISZERO PUSH2 0xF JUMPI PUSH0 DUP1 REVERT JUMPDEST POP PUSH2 0x439 DUP1 PUSH2 0x1D PUSH0 CODECOPY PUSH0 RETURN INVALID PUSH1 0x80 PUSH1 0x40 MSTORE CALLVALUE DUP1 ISZERO PUSH2 0xF JUMPI PUSH0 DUP1 REVERT JUMPDEST POP PUSH1 0x4 CALLDATASIZE LT PUSH2 0x3F JUMPI PUSH0 CALLDATALOAD PUSH1 0xE0 SHR DUP1 PUSH4 0xEF517B8F EQ PUSH2 0x43 JUMPI DUP1 PUSH4 0xF433ECCD EQ PUSH2 0x5F JUMPI DUP1 PUSH4 0xF9914076 EQ PUSH2 0x7D JUMPI JUMPDEST PUSH0 DUP1 REVERT JUMPDEST PUSH2 0x5D PUSH1 0x4 DUP1 CALLDATASIZE SUB DUP2 ADD SWAP1 PUSH2 0x58 SWAP2 SWAP1 PUSH2 0x212 JUMP JUMPDEST PUSH2 0xAD JUMP JUMPDEST STOP JUMPDEST PUSH2 0x67 PUSH2 0x152 JUMP JUMPDEST PUSH1 0x40 MLOAD PUSH2 0x74 SWAP2 SWAP1 PUSH2 0x275 JUMP JUMPDEST PUSH1 0x40 MLOAD DUP1 SWAP2 SUB SWAP1 RETURN JUMPDEST PUSH2 0x97 PUSH1 0x4 DUP1 CALLDATASIZE SUB DUP2 ADD SWAP1 PUSH2 0x92 SWAP2 SWAP1 PUSH2 0x2E8 JUMP JUMPDEST PUSH2 0x195 JUMP JUMPDEST PUSH1 0x40 MLOAD PUSH2 0xA4 SWAP2 SWAP1 PUSH2 0x275 JUMP JUMPDEST PUSH1 0x40 MLOAD DUP1 SWAP2 SUB SWAP1 RETURN JUMPDEST PUSH0 DUP1 CALLER PUSH20 0xFFFFFFFFFFFFFFFFFFFFFFFFFFFFFFFFFFFFFFFF AND PUSH20 0xFFFFFFFFFFFFFFFFFFFFFFFFFFFFFFFFFFFFFFFF AND DUP2 MSTORE PUSH1 0x20 ADD SWAP1 DUP2 MSTORE PUSH1 0x20 ADD PUSH0 KECCAK256 PUSH0 DUP2 SLOAD DUP1 SWAP3 SWAP2 SWAP1 PUSH2 0xF9 SWAP1 PUSH2 0x340 JUMP JUMPDEST SWAP2 SWAP1 POP SSTORE POP CALLER PUSH20 0xFFFFFFFFFFFFFFFFFFFFFFFFFFFFFFFFFFFFFFFF AND PUSH32 0x43C6B591B7CDB793F55423614EFD53A91655AA5A98B5BA40A20D2257337BE119 DUP4 DUP4 PUSH1 0x40 MLOAD PUSH2 0x146 SWAP3 SWAP2 SWAP1 PUSH2 0x3E1 JUMP JUMPDEST PUSH1 0x40 MLOAD DUP1 SWAP2 SUB SWAP1 LOG2 POP POP JUMP JUMPDEST PUSH0 DUP1 PUSH0 CALLER PUSH20 0xFFFFFFFFFFFFFFFFFFFFFFFFFFFFFFFFFFFFFFFF AND PUSH20 0xFFFFFFFFFFFFFFFFFFFFFFFFFFFFFFFFFFFFFFFF AND DUP2 MSTORE PUSH1 0x20 ADD SWAP1 DUP2 MSTORE PUSH1 0x20 ADD PUSH0 KECCAK256 SLOAD SWAP1 POP SWAP1 JUMP JUMPDEST PUSH0 PUSH1 0x20 MSTORE DUP1 PUSH0 MSTORE PUSH1 0x40 PUSH0 KECCAK256 PUSH0 SWAP2 POP SWAP1 POP SLOAD DUP2 JUMP JUMPDEST PUSH0 DUP1 REVERT JUMPDEST PUSH0 DUP1 REVERT JUMPDEST PUSH0 DUP1 REVERT JUMPDEST PUSH0 DUP1 REVERT JUMPDEST PUSH0 DUP1 REVERT JUMPDEST PUSH0 DUP1 DUP4 PUSH1 0x1F DUP5 ADD SLT PUSH2 0x1D2 JUMPI PUSH2 0x1D1 PUSH2 0x1B1 JUMP JUMPDEST JUMPDEST DUP3 CALLDATALOAD SWAP1 POP PUSH8 0xFFFFFFFFFFFFFFFF DUP2 GT ISZERO PUSH2 0x1EF JUMPI PUSH2 0x1EE PUSH2 0x1B5 JUMP JUMPDEST JUMPDEST PUSH1 0x20 DUP4 ADD SWAP2 POP DUP4 PUSH1 0x1 DUP3 MUL DUP4 ADD GT ISZERO PUSH2 0x20B JUMPI PUSH2 0x20A PUSH2 0x1B9 JUMP JUMPDEST JUMPDEST SWAP3 POP SWAP3 SWAP1 POP JUMP JUMPDEST PUSH0 DUP1 PUSH1 0x20 DUP4 DUP6 SUB SLT ISZERO PUSH2 0x228 JUMPI PUSH2 0x227 PUSH2 0x1A9 JUMP JUMPDEST JUMPDEST PUSH0 DUP4 ADD CALLDATALOAD PUSH8 0xFFFFFFFFFFFFFFFF DUP2 GT ISZERO PUSH2 0x245 JUMPI PUSH2 0x244 PUSH2 0x1AD JUMP JUMPDEST JUMPDEST PUSH2 0x251 DUP6 DUP3 DUP7 ADD PUSH2 0x1BD JUMP JUMPDEST SWAP3 POP SWAP3 POP POP SWAP3 POP SWAP3 SWAP1 POP JUMP JUMPDEST PUSH0 DUP2 SWAP1 POP SWAP2 SWAP1 POP JUMP JUMPDEST PUSH2 0x26F DUP2 PUSH2 0x25D JUMP JUMPDEST DUP3 MSTORE POP POP JUMP JUMPDEST PUSH0 PUSH1 0x20 DUP3 ADD SWAP1 POP PUSH2 0x288 PUSH0 DUP4 ADD DUP5 PUSH2 0x266 JUMP JUMPDEST SWAP3 SWAP2 POP POP JUMP JUMPDEST PUSH0 PUSH20 0xFFFFFFFFFFFFFFFFFFFFFFFFFFFFFFFFFFFFFFFF DUP3 AND SWAP1 POP SWAP2 SWAP1 POP JUMP JUMPDEST PUSH0 PUSH2 0x2B7 DUP3 PUSH2 0x28E JUMP JUMPDEST SWAP1 POP SWAP2 SWAP1 POP JUMP JUMPDEST PUSH2 0x2C7 DUP2 PUSH2 0x2AD JUMP JUMPDEST DUP2 EQ PUSH2 0x2D1 JUMPI PUSH0 DUP1 REVERT JUMPDEST POP JUMP JUMPDEST PUSH0 DUP2 CALLDATALOAD SWAP1 POP PUSH2 0x2E2 DUP2 PUSH2 0x2BE JUMP JUMPDEST SWAP3 SWAP2 POP POP JUMP JUMPDEST PUSH0 PUSH1 0x20 DUP3 DUP5 SUB SLT ISZERO PUSH2 0x2FD JUMPI PUSH2 0x2FC PUSH2 0x1A9 JUMP JUMPDEST JUMPDEST PUSH0 PUSH2 0x30A DUP5 DUP3 DUP6 ADD PUSH2 0x2D4 JUMP JUMPDEST SWAP2 POP POP SWAP3 SWAP2 POP POP JUMP JUMPDEST PUSH32 0x4E487B7100000000000000000000000000000000000000000000000000000000 PUSH0 MSTORE PUSH1 0x11 PUSH1 0x4 MSTORE PUSH1 0x24 PUSH0 REVERT JUMPDEST PUSH0 PUSH2 0x34A DUP3 PUSH2 0x25D JUMP JUMPDEST SWAP2 POP PUSH32 0xFFFFFFFFFFFFFFFFFFFFFFFFFFFFFFFFFFFFFFFFFFFFFFFFFFFFFFFFFFFFFFFF DUP3 SUB PUSH2 0x37C JUMPI PUSH2 0x37B PUSH2 0x313 JUMP JUMPDEST JUMPDEST PUSH1 0x1 DUP3 ADD SWAP1 POP SWAP2 SWAP1 POP JUMP JUMPDEST PUSH0 DUP3 DUP3 MSTORE PUSH1 0x20 DUP3 ADD SWAP1 POP SWAP3 SWAP2 POP POP JUMP JUMPDEST DUP3 DUP2 DUP4 CALLDATACOPY PUSH0 DUP4 DUP4 ADD MSTORE POP POP POP JUMP JUMPDEST PUSH0 PUSH1 0x1F NOT PUSH1 0x1F DUP4 ADD AND SWAP1 POP SWAP2 SWAP1 POP JUMP JUMPDEST PUSH0 PUSH2 0x3C0 DUP4 DUP6 PUSH2 0x387 JUMP JUMPDEST SWAP4 POP PUSH2 0x3CD DUP4 DUP6 DUP5 PUSH2 0x397 JUMP JUMPDEST PUSH2 0x3D6 DUP4 PUSH2 0x3A5 JUMP JUMPDEST DUP5 ADD SWAP1 POP SWAP4 SWAP3 POP POP POP JUMP JUMPDEST PUSH0 PUSH1 0x20 DUP3 ADD SWAP1 POP DUP2 DUP2 SUB PUSH0 DUP4 ADD MSTORE PUSH2 0x3FA DUP2 DUP5 DUP7 PUSH2 0x3B5 JUMP JUMPDEST SWAP1 POP SWAP4 SWAP3 POP POP POP JUMP INVALID LOG2 PUSH5 0x6970667358 0x22 SLT KECCAK256 0x5E MULMOD INVALID DUP4 PUSH1 0xFF 0xD3 PUSH27 0x3B0413BD95A8D25CCA40615EC75FAB09E2D81C9758AFD33264736F PUSH13 0x63430008170033000000000000 "
				},
				"gasEstimates": {
					"creation": {
						"codeDepositCost": "216200",
						"executionCost": "255",
						"totalCost": "216455"
					},
					"external": {
						"cries(address)": "2823",
						"cryWen(string)": "infinite",
						"getMyWens()": "2519"
					}
				},
				"methodIdentifiers": {
					"cries(address)": "f9914076",
					"cryWen(string)": "ef517b8f",
					"getMyWens()": "f433eccd"
				}
			},
			"storageLayout": {
				"storage": [
					{
						"astId": 11,
						"contract": "monad dashboard/WenMainnet.sol:WenMainnet",
						"label": "cries",
						"offset": 0,
						"slot": "0",
						"type": "t_mapping(t_address,t_uint256)"
					}
				],
				"types": {
					"t_address": {
						"encoding": "inplace",
						"label": "address",
						"numberOfBytes": "20"
					},
					"t_mapping(t_address,t_uint256)": {
						"encoding": "mapping",
						"key": "t_address",
						"label": "mapping(address => uint256)",
						"numberOfBytes": "32",
						"value": "t_uint256"
					},
					"t_uint256": {
						"encoding": "inplace",
						"label": "uint256",
						"numberOfBytes": "32"
					}
				}
			},
			"userdoc": {
				"kind": "user",
				"methods": {},
				"version": 1
			}
		}
	}
}