{
	"monad dashboard/MultiSigWallet.sol": {
		"MultiSigWallet": {
			"abi": [
				{
					"inputs": [
						{
							"internalType": "address",
							"name": "_owner1",
							"type": "address"
						},
						{
							"internalType": "address",
							"name": "_owner2",
							"type": "address"
						}
					],
					"stateMutability": "nonpayable",
					"type": "constructor"
				},
				{
					"inputs": [],
					"name": "approve",
					"outputs": [],
					"stateMutability": "nonpayable",
					"type": "function"
				},
				{
					"inputs": [],
					"name": "approved",
					"outputs": [
						{
							"internalType": "bool",
							"name": "",
							"type": "bool"
						}
					],
					"stateMutability": "view",
					"type": "function"
				},
				{
					"inputs": [],
					"name": "balance",
					"outputs": [
						{
							"internalType": "uint256",
							"name": "",
							"type": "uint256"
						}
					],
					"stateMutability": "view",
					"type": "function"
				},
				{
					"inputs": [
						{
							"internalType": "uint256",
							"name": "",
							"type": "uint256"
						}
					],
					"name": "owners",
					"outputs": [
						{
							"internalType": "address",
							"name": "",
							"type": "address"
						}
					],
					"stateMutability": "view",
					"type": "function"
				},
				{
					"inputs": [
						{
							"internalType": "address payable",
							"name": "to",
							"type": "address"
						},
						{
							"internalType": "uint256",
							"name": "amount",
							"type": "uint256"
						}
					],
					"name": "withdraw",
					"outputs": [],
					"stateMutability": "nonpayable",
					"type": "function"
				},
				{
					"stateMutability": "payable",
					"type": "receive"
				}
			],
			"devdoc": {
				"kind": "dev",
				"methods": {},
				"version": 1
			},
			"evm": {
				"assembly": "    /* \"monad dashboard/MultiSigWallet.sol\":61:816  contract MultiSigWallet {... */\n  mstore(0x40, 0x80)\n    /* \"monad dashboard/MultiSigWallet.sol\":178:292  constructor(address _owner1, address _owner2) {... */\n  callvalue\n  dup1\n  iszero\n  tag_1\n  jumpi\n  0x00\n  dup1\n  revert\ntag_1:\n  pop\n  mload(0x40)\n  sub(codesize, bytecodeSize)\n  dup1\n  bytecodeSize\n  dup4\n  codecopy\n  dup2\n  dup2\n  add\n  0x40\n  mstore\n  dup2\n  add\n  swap1\n  tag_2\n  swap2\n  swap1\n  tag_3\n  jump\t// in\ntag_2:\n    /* \"monad dashboard/MultiSigWallet.sol\":247:254  _owner1 */\n  dup2\n    /* \"monad dashboard/MultiSigWallet.sol\":235:241  owners */\n  0x00\n    /* \"monad dashboard/MultiSigWallet.sol\":242:243  0 */\n  dup1\n    /* \"monad dashboard/MultiSigWallet.sol\":235:244  owners[0] */\n  0x02\n  dup2\n  lt\n  tag_6\n  jumpi\n  tag_7\n  tag_8\n  jump\t// in\ntag_7:\ntag_6:\n  add\n  0x00\n    /* \"monad dashboard/MultiSigWallet.sol\":235:254  owners[0] = _owner1 */\n  0x0100\n  exp\n  dup2\n  sload\n  dup2\n  0xffffffffffffffffffffffffffffffffffffffff\n  mul\n  not\n  and\n  swap1\n  dup4\n  0xffffffffffffffffffffffffffffffffffffffff\n  and\n  mul\n  or\n  swap1\n  sstore\n  pop\n    /* \"monad dashboard/MultiSigWallet.sol\":277:284  _owner2 */\n  dup1\n    /* \"monad dashboard/MultiSigWallet.sol\":265:271  owners */\n  0x00\n    /* \"monad dashboard/MultiSigWallet.sol\":272:273  1 */\n  0x01\n    /* \"monad dashboard/MultiSigWallet.sol\":265:274  owners[1] */\n  0x02\n  dup2\n  lt\n  tag_10\n  jumpi\n  tag_11\n  tag_8\n  jump\t// in\ntag_11:\ntag_10:\n  add\n  0x00\n    /* \"monad dashboard/MultiSigWallet.sol\":265:284  owners[1] = _owner2 */\n  0x0100\n  exp\n  dup2\n  sload\n  dup2\n  0xffffffffffffffffffffffffffffffffffffffff\n  mul\n  not\n  and\n  swap1\n  dup4\n  0xffffffffffffffffffffffffffffffffffffffff\n  and\n  mul\n  or\n  swap1\n  sstore\n  pop\n    /* \"monad dashboard/MultiSigWallet.sol\":178:292  constructor(address _owner1, address _owner2) {... */\n  pop\n  pop\n    /* \"monad dashboard/MultiSigWallet.sol\":61:816  contract MultiSigWallet {... */\n  jump(tag_13)\n    /* \"#utility.yul\":88:205   */\ntag_15:\n    /* \"#utility.yul\":197:198   */\n  0x00\n    /* \"#utility.yul\":194:195   */\n  dup1\n    /* \"#utility.yul\":187:199   */\n  revert\n    /* \"#utility.yul\":334:460   */\ntag_17:\n    /* \"#utility.yul\":371:378   */\n  0x00\n    /* \"#utility.yul\":411:453   */\n  0xffffffffffffffffffffffffffffffffffffffff\n    /* \"#utility.yul\":404:409   */\n  dup3\n    /* \"#utility.yul\":400:454   */\n  and\n    /* \"#utility.yul\":389:454   */\n  swap1\n  pop\n    /* \"#utility.yul\":334:460   */\n  swap2\n  swap1\n  pop\n  jump\t// out\n    /* \"#utility.yul\":466:562   */\ntag_18:\n    /* \"#utility.yul\":503:510   */\n  0x00\n    /* \"#utility.yul\":532:556   */\n  tag_27\n    /* \"#utility.yul\":550:555   */\n  dup3\n    /* \"#utility.yul\":532:556   */\n  tag_17\n  jump\t// in\ntag_27:\n    /* \"#utility.yul\":521:556   */\n  swap1\n  pop\n    /* \"#utility.yul\":466:562   */\n  swap2\n  swap1\n  pop\n  jump\t// out\n    /* \"#utility.yul\":568:690   */\ntag_19:\n    /* \"#utility.yul\":641:665   */\n  tag_29\n    /* \"#utility.yul\":659:664   */\n  dup2\n    /* \"#utility.yul\":641:665   */\n  tag_18\n  jump\t// in\ntag_29:\n    /* \"#utility.yul\":634:639   */\n  dup2\n    /* \"#utility.yul\":631:666   */\n  eq\n    /* \"#utility.yul\":621:684   */\n  tag_30\n  jumpi\n    /* \"#utility.yul\":680:681   */\n  0x00\n    /* \"#utility.yul\":677:678   */\n  dup1\n    /* \"#utility.yul\":670:682   */\n  revert\n    /* \"#utility.yul\":621:684   */\ntag_30:\n    /* \"#utility.yul\":568:690   */\n  pop\n  jump\t// out\n    /* \"#utility.yul\":696:839   */\ntag_20:\n    /* \"#utility.yul\":753:758   */\n  0x00\n    /* \"#utility.yul\":784:790   */\n  dup2\n    /* \"#utility.yul\":778:791   */\n  mload\n    /* \"#utility.yul\":769:791   */\n  swap1\n  pop\n    /* \"#utility.yul\":800:833   */\n  tag_32\n    /* \"#utility.yul\":827:832   */\n  dup2\n    /* \"#utility.yul\":800:833   */\n  tag_19\n  jump\t// in\ntag_32:\n    /* \"#utility.yul\":696:839   */\n  swap3\n  swap2\n  pop\n  pop\n  jump\t// out\n    /* \"#utility.yul\":845:1352   */\ntag_3:\n    /* \"#utility.yul\":924:930   */\n  0x00\n    /* \"#utility.yul\":932:938   */\n  dup1\n    /* \"#utility.yul\":981:983   */\n  0x40\n    /* \"#utility.yul\":969:978   */\n  dup4\n    /* \"#utility.yul\":960:967   */\n  dup6\n    /* \"#utility.yul\":956:979   */\n  sub\n    /* \"#utility.yul\":952:984   */\n  slt\n    /* \"#utility.yul\":949:1068   */\n  iszero\n  tag_34\n  jumpi\n    /* \"#utility.yul\":987:1066   */\n  tag_35\n  tag_15\n  jump\t// in\ntag_35:\n    /* \"#utility.yul\":949:1068   */\ntag_34:\n    /* \"#utility.yul\":1107:1108   */\n  0x00\n    /* \"#utility.yul\":1132:1196   */\n  tag_36\n    /* \"#utility.yul\":1188:1195   */\n  dup6\n    /* \"#utility.yul\":1179:1185   */\n  dup3\n    /* \"#utility.yul\":1168:1177   */\n  dup7\n    /* \"#utility.yul\":1164:1186   */\n  add\n    /* \"#utility.yul\":1132:1196   */\n  tag_20\n  jump\t// in\ntag_36:\n    /* \"#utility.yul\":1122:1196   */\n  swap3\n  pop\n    /* \"#utility.yul\":1078:1206   */\n  pop\n    /* \"#utility.yul\":1245:1247   */\n  0x20\n    /* \"#utility.yul\":1271:1335   */\n  tag_37\n    /* \"#utility.yul\":1327:1334   */\n  dup6\n    /* \"#utility.yul\":1318:1324   */\n  dup3\n    /* \"#utility.yul\":1307:1316   */\n  dup7\n    /* \"#utility.yul\":1303:1325   */\n  add\n    /* \"#utility.yul\":1271:1335   */\n  tag_20\n  jump\t// in\ntag_37:\n    /* \"#utility.yul\":1261:1335   */\n  swap2\n  pop\n    /* \"#utility.yul\":1216:1345   */\n  pop\n    /* \"#utility.yul\":845:1352   */\n  swap3\n  pop\n  swap3\n  swap1\n  pop\n  jump\t// out\n    /* \"#utility.yul\":1358:1538   */\ntag_8:\n    /* \"#utility.yul\":1406:1483   */\n  0x4e487b7100000000000000000000000000000000000000000000000000000000\n    /* \"#utility.yul\":1403:1404   */\n  0x00\n    /* \"#utility.yul\":1396:1484   */\n  mstore\n    /* \"#utility.yul\":1503:1507   */\n  0x32\n    /* \"#utility.yul\":1500:1501   */\n  0x04\n    /* \"#utility.yul\":1493:1508   */\n  mstore\n    /* \"#utility.yul\":1527:1531   */\n  0x24\n    /* \"#utility.yul\":1524:1525   */\n  0x00\n    /* \"#utility.yul\":1517:1532   */\n  revert\n    /* \"monad dashboard/MultiSigWallet.sol\":61:816  contract MultiSigWallet {... */\ntag_13:\n  dataSize(sub_0)\n  dup1\n  dataOffset(sub_0)\n  0x00\n  codecopy\n  0x00\n  return\nstop\n\nsub_0: assembly {\n        /* \"monad dashboard/MultiSigWallet.sol\":61:816  contract MultiSigWallet {... */\n      mstore(0x40, 0x80)\n      jumpi(tag_1, lt(calldatasize, 0x04))\n      shr(0xe0, calldataload(0x00))\n      dup1\n      0x025e7c27\n      eq\n      tag_3\n      jumpi\n      dup1\n      0x12424e3f\n      eq\n      tag_4\n      jumpi\n      dup1\n      0x19d40b08\n      eq\n      tag_5\n      jumpi\n      dup1\n      0xb69ef8a8\n      eq\n      tag_6\n      jumpi\n      dup1\n      0xf3fef3a3\n      eq\n      tag_7\n      jumpi\n      jump(tag_2)\n    tag_1:\n      jumpi(tag_2, calldatasize)\n        /* \"monad dashboard/MultiSigWallet.sol\":349:358  msg.value */\n      callvalue\n        /* \"monad dashboard/MultiSigWallet.sol\":338:345  balance */\n      0x02\n      0x00\n        /* \"monad dashboard/MultiSigWallet.sol\":338:358  balance += msg.value */\n      dup3\n      dup3\n      sload\n      tag_10\n      swap2\n      swap1\n      tag_11\n      jump\t// in\n    tag_10:\n      swap3\n      pop\n      pop\n      dup2\n      swap1\n      sstore\n      stop\n        /* \"monad dashboard/MultiSigWallet.sol\":61:816  contract MultiSigWallet {... */\n    tag_2:\n      0x00\n      dup1\n      revert\n        /* \"monad dashboard/MultiSigWallet.sol\":92:116  address[2] public owners */\n    tag_3:\n      callvalue\n      dup1\n      iszero\n      tag_12\n      jumpi\n      0x00\n      dup1\n      revert\n    tag_12:\n      pop\n      tag_13\n      0x04\n      dup1\n      calldatasize\n      sub\n      dup2\n      add\n      swap1\n      tag_14\n      swap2\n      swap1\n      tag_15\n      jump\t// in\n    tag_14:\n      tag_16\n      jump\t// in\n    tag_13:\n      mload(0x40)\n      tag_17\n      swap2\n      swap1\n      tag_18\n      jump\t// in\n    tag_17:\n      mload(0x40)\n      dup1\n      swap2\n      sub\n      swap1\n      return\n        /* \"monad dashboard/MultiSigWallet.sol\":374:522  function approve() public {... */\n    tag_4:\n      callvalue\n      dup1\n      iszero\n      tag_19\n      jumpi\n      0x00\n      dup1\n      revert\n    tag_19:\n      pop\n      tag_20\n      tag_21\n      jump\t// in\n    tag_20:\n      stop\n        /* \"monad dashboard/MultiSigWallet.sol\":149:169  bool public approved */\n    tag_5:\n      callvalue\n      dup1\n      iszero\n      tag_22\n      jumpi\n      0x00\n      dup1\n      revert\n    tag_22:\n      pop\n      tag_23\n      tag_24\n      jump\t// in\n    tag_23:\n      mload(0x40)\n      tag_25\n      swap2\n      swap1\n      tag_26\n      jump\t// in\n    tag_25:\n      mload(0x40)\n      dup1\n      swap2\n      sub\n      swap1\n      return\n        /* \"monad dashboard/MultiSigWallet.sol\":123:142  uint public balance */\n    tag_6:\n      callvalue\n      dup1\n      iszero\n      tag_27\n      jumpi\n      0x00\n      dup1\n      revert\n    tag_27:\n      pop\n      tag_28\n      tag_29\n      jump\t// in\n    tag_28:\n      mload(0x40)\n      tag_30\n      swap2\n      swap1\n      tag_31\n      jump\t// in\n    tag_30:\n      mload(0x40)\n      dup1\n      swap2\n      sub\n      swap1\n      return\n        /* \"monad dashboard/MultiSigWallet.sol\":530:813  function withdraw(address payable to, uint amount) public {... */\n    tag_7:\n      callvalue\n      dup1\n      iszero\n      tag_32\n      jumpi\n      0x00\n      dup1\n      revert\n    tag_32:\n      pop\n      tag_33\n      0x04\n      dup1\n      calldatasize\n      sub\n      dup2\n      add\n      swap1\n      tag_34\n      swap2\n      swap1\n      tag_35\n      jump\t// in\n    tag_34:\n      tag_36\n      jump\t// in\n    tag_33:\n      stop\n        /* \"monad dashboard/MultiSigWallet.sol\":92:116  address[2] public owners */\n    tag_16:\n      0x00\n      dup2\n      0x02\n      dup2\n      lt\n      tag_37\n      jumpi\n      0x00\n      dup1\n      revert\n    tag_37:\n      add\n      0x00\n      swap2\n      pop\n      sload\n      swap1\n      0x0100\n      exp\n      swap1\n      div\n      0xffffffffffffffffffffffffffffffffffffffff\n      and\n      dup2\n      jump\t// out\n        /* \"monad dashboard/MultiSigWallet.sol\":374:522  function approve() public {... */\n    tag_21:\n        /* \"monad dashboard/MultiSigWallet.sol\":433:439  owners */\n      0x00\n        /* \"monad dashboard/MultiSigWallet.sol\":440:441  0 */\n      dup1\n        /* \"monad dashboard/MultiSigWallet.sol\":433:442  owners[0] */\n      0x02\n      dup2\n      lt\n      tag_40\n      jumpi\n      tag_41\n      tag_42\n      jump\t// in\n    tag_41:\n    tag_40:\n      add\n      0x00\n      swap1\n      sload\n      swap1\n      0x0100\n      exp\n      swap1\n      div\n      0xffffffffffffffffffffffffffffffffffffffff\n      and\n        /* \"monad dashboard/MultiSigWallet.sol\":419:442  msg.sender == owners[0] */\n      0xffffffffffffffffffffffffffffffffffffffff\n      and\n        /* \"monad dashboard/MultiSigWallet.sol\":419:429  msg.sender */\n      caller\n        /* \"monad dashboard/MultiSigWallet.sol\":419:442  msg.sender == owners[0] */\n      0xffffffffffffffffffffffffffffffffffffffff\n      and\n      eq\n        /* \"monad dashboard/MultiSigWallet.sol\":419:469  msg.sender == owners[0] || msg.sender == owners[1] */\n      dup1\n      tag_44\n      jumpi\n      pop\n        /* \"monad dashboard/MultiSigWallet.sol\":460:466  owners */\n      0x00\n        /* \"monad dashboard/MultiSigWallet.sol\":467:468  1 */\n      0x01\n        /* \"monad dashboard/MultiSigWallet.sol\":460:469  owners[1] */\n      0x02\n      dup2\n      lt\n      tag_45\n      jumpi\n      tag_46\n      tag_42\n      jump\t// in\n    tag_46:\n    tag_45:\n      add\n      0x00\n      swap1\n      sload\n      swap1\n      0x0100\n      exp\n      swap1\n      div\n      0xffffffffffffffffffffffffffffffffffffffff\n      and\n        /* \"monad dashboard/MultiSigWallet.sol\":446:469  msg.sender == owners[1] */\n      0xffffffffffffffffffffffffffffffffffffffff\n      and\n        /* \"monad dashboard/MultiSigWallet.sol\":446:456  msg.sender */\n      caller\n        /* \"monad dashboard/MultiSigWallet.sol\":446:469  msg.sender == owners[1] */\n      0xffffffffffffffffffffffffffffffffffffffff\n      and\n      eq\n        /* \"monad dashboard/MultiSigWallet.sol\":419:469  msg.sender == owners[0] || msg.sender == owners[1] */\n    tag_44:\n        /* \"monad dashboard/MultiSigWallet.sol\":411:488  require(msg.sender == owners[0] || msg.sender == owners[1], \"Not authorized\") */\n      tag_48\n      jumpi\n      mload(0x40)\n      0x08c379a000000000000000000000000000000000000000000000000000000000\n      dup2\n      mstore\n      0x04\n      add\n      tag_49\n      swap1\n      tag_50\n      jump\t// in\n    tag_49:\n      mload(0x40)\n      dup1\n      swap2\n      sub\n      swap1\n      revert\n    tag_48:\n        /* \"monad dashboard/MultiSigWallet.sol\":510:514  true */\n      0x01\n        /* \"monad dashboard/MultiSigWallet.sol\":499:507  approved */\n      0x03\n      0x00\n        /* \"monad dashboard/MultiSigWallet.sol\":499:514  approved = true */\n      0x0100\n      exp\n      dup2\n      sload\n      dup2\n      0xff\n      mul\n      not\n      and\n      swap1\n      dup4\n      iszero\n      iszero\n      mul\n      or\n      swap1\n      sstore\n      pop\n        /* \"monad dashboard/MultiSigWallet.sol\":374:522  function approve() public {... */\n      jump\t// out\n        /* \"monad dashboard/MultiSigWallet.sol\":149:169  bool public approved */\n    tag_24:\n      0x03\n      0x00\n      swap1\n      sload\n      swap1\n      0x0100\n      exp\n      swap1\n      div\n      0xff\n      and\n      dup2\n      jump\t// out\n        /* \"monad dashboard/MultiSigWallet.sol\":123:142  uint public balance */\n    tag_29:\n      sload(0x02)\n      dup2\n      jump\t// out\n        /* \"monad dashboard/MultiSigWallet.sol\":530:813  function withdraw(address payable to, uint amount) public {... */\n    tag_36:\n        /* \"monad dashboard/MultiSigWallet.sol\":607:615  approved */\n      0x03\n      0x00\n      swap1\n      sload\n      swap1\n      0x0100\n      exp\n      swap1\n      div\n      0xff\n      and\n        /* \"monad dashboard/MultiSigWallet.sol\":599:632  require(approved, \"Not approved\") */\n      tag_52\n      jumpi\n      mload(0x40)\n      0x08c379a000000000000000000000000000000000000000000000000000000000\n      dup2\n      mstore\n      0x04\n      add\n      tag_53\n      swap1\n      tag_54\n      jump\t// in\n    tag_53:\n      mload(0x40)\n      dup1\n      swap2\n      sub\n      swap1\n      revert\n    tag_52:\n        /* \"monad dashboard/MultiSigWallet.sol\":665:671  owners */\n      0x00\n        /* \"monad dashboard/MultiSigWallet.sol\":672:673  0 */\n      dup1\n        /* \"monad dashboard/MultiSigWallet.sol\":665:674  owners[0] */\n      0x02\n      dup2\n      lt\n      tag_55\n      jumpi\n      tag_56\n      tag_42\n      jump\t// in\n    tag_56:\n    tag_55:\n      add\n      0x00\n      swap1\n      sload\n      swap1\n      0x0100\n      exp\n      swap1\n      div\n      0xffffffffffffffffffffffffffffffffffffffff\n      and\n        /* \"monad dashboard/MultiSigWallet.sol\":651:674  msg.sender == owners[0] */\n      0xffffffffffffffffffffffffffffffffffffffff\n      and\n        /* \"monad dashboard/MultiSigWallet.sol\":651:661  msg.sender */\n      caller\n        /* \"monad dashboard/MultiSigWallet.sol\":651:674  msg.sender == owners[0] */\n      0xffffffffffffffffffffffffffffffffffffffff\n      and\n      eq\n        /* \"monad dashboard/MultiSigWallet.sol\":651:701  msg.sender == owners[0] || msg.sender == owners[1] */\n      dup1\n      tag_58\n      jumpi\n      pop\n        /* \"monad dashboard/MultiSigWallet.sol\":692:698  owners */\n      0x00\n        /* \"monad dashboard/MultiSigWallet.sol\":699:700  1 */\n      0x01\n        /* \"monad dashboard/MultiSigWallet.sol\":692:701  owners[1] */\n      0x02\n      dup2\n      lt\n      tag_59\n      jumpi\n      tag_60\n      tag_42\n      jump\t// in\n    tag_60:\n    tag_59:\n      add\n      0x00\n      swap1\n      sload\n      swap1\n      0x0100\n      exp\n      swap1\n      div\n      0xffffffffffffffffffffffffffffffffffffffff\n      and\n        /* \"monad dashboard/MultiSigWallet.sol\":678:701  msg.sender == owners[1] */\n      0xffffffffffffffffffffffffffffffffffffffff\n      and\n        /* \"monad dashboard/MultiSigWallet.sol\":678:688  msg.sender */\n      caller\n        /* \"monad dashboard/MultiSigWallet.sol\":678:701  msg.sender == owners[1] */\n      0xffffffffffffffffffffffffffffffffffffffff\n      and\n      eq\n        /* \"monad dashboard/MultiSigWallet.sol\":651:701  msg.sender == owners[0] || msg.sender == owners[1] */\n    tag_58:\n        /* \"monad dashboard/MultiSigWallet.sol\":643:720  require(msg.sender == owners[0] || msg.sender == owners[1], \"Not authorized\") */\n      tag_62\n      jumpi\n      mload(0x40)\n      0x08c379a000000000000000000000000000000000000000000000000000000000\n      dup2\n      mstore\n      0x04\n      add\n      tag_63\n      swap1\n      tag_50\n      jump\t// in\n    tag_63:\n      mload(0x40)\n      dup1\n      swap2\n      sub\n      swap1\n      revert\n    tag_62:\n        /* \"monad dashboard/MultiSigWallet.sol\":742:747  false */\n      0x00\n        /* \"monad dashboard/MultiSigWallet.sol\":731:739  approved */\n      0x03\n      0x00\n        /* \"monad dashboard/MultiSigWallet.sol\":731:747  approved = false */\n      0x0100\n      exp\n      dup2\n      sload\n      dup2\n      0xff\n      mul\n      not\n      and\n      swap1\n      dup4\n      iszero\n      iszero\n      mul\n      or\n      swap1\n      sstore\n      pop\n        /* \"monad dashboard/MultiSigWallet.sol\":769:775  amount */\n      dup1\n        /* \"monad dashboard/MultiSigWallet.sol\":758:765  balance */\n      0x02\n      0x00\n        /* \"monad dashboard/MultiSigWallet.sol\":758:775  balance -= amount */\n      dup3\n      dup3\n      sload\n      tag_64\n      swap2\n      swap1\n      tag_65\n      jump\t// in\n    tag_64:\n      swap3\n      pop\n      pop\n      dup2\n      swap1\n      sstore\n      pop\n        /* \"monad dashboard/MultiSigWallet.sol\":786:788  to */\n      dup2\n        /* \"monad dashboard/MultiSigWallet.sol\":786:797  to.transfer */\n      0xffffffffffffffffffffffffffffffffffffffff\n      and\n        /* \"monad dashboard/MultiSigWallet.sol\":786:805  to.transfer(amount) */\n      0x08fc\n        /* \"monad dashboard/MultiSigWallet.sol\":798:804  amount */\n      dup3\n        /* \"monad dashboard/MultiSigWallet.sol\":786:805  to.transfer(amount) */\n      swap1\n      dup2\n      iszero\n      mul\n      swap1\n      mload(0x40)\n      0x00\n      mload(0x40)\n      dup1\n      dup4\n      sub\n      dup2\n      dup6\n      dup9\n      dup9\n      call\n      swap4\n      pop\n      pop\n      pop\n      pop\n      iszero\n      dup1\n      iszero\n      tag_67\n      jumpi\n      returndatasize\n      0x00\n      dup1\n      returndatacopy\n      revert(0x00, returndatasize)\n    tag_67:\n      pop\n        /* \"monad dashboard/MultiSigWallet.sol\":530:813  function withdraw(address payable to, uint amount) public {... */\n      pop\n      pop\n      jump\t// out\n        /* \"#utility.yul\":7:84   */\n    tag_68:\n        /* \"#utility.yul\":44:51   */\n      0x00\n        /* \"#utility.yul\":73:78   */\n      dup2\n        /* \"#utility.yul\":62:78   */\n      swap1\n      pop\n        /* \"#utility.yul\":7:84   */\n      swap2\n      swap1\n      pop\n      jump\t// out\n        /* \"#utility.yul\":90:270   */\n    tag_69:\n        /* \"#utility.yul\":138:215   */\n      0x4e487b7100000000000000000000000000000000000000000000000000000000\n        /* \"#utility.yul\":135:136   */\n      0x00\n        /* \"#utility.yul\":128:216   */\n      mstore\n        /* \"#utility.yul\":235:239   */\n      0x11\n        /* \"#utility.yul\":232:233   */\n      0x04\n        /* \"#utility.yul\":225:240   */\n      mstore\n        /* \"#utility.yul\":259:263   */\n      0x24\n        /* \"#utility.yul\":256:257   */\n      0x00\n        /* \"#utility.yul\":249:264   */\n      revert\n        /* \"#utility.yul\":276:467   */\n    tag_11:\n        /* \"#utility.yul\":316:319   */\n      0x00\n        /* \"#utility.yul\":335:355   */\n      tag_93\n        /* \"#utility.yul\":353:354   */\n      dup3\n        /* \"#utility.yul\":335:355   */\n      tag_68\n      jump\t// in\n    tag_93:\n        /* \"#utility.yul\":330:355   */\n      swap2\n      pop\n        /* \"#utility.yul\":369:389   */\n      tag_94\n        /* \"#utility.yul\":387:388   */\n      dup4\n        /* \"#utility.yul\":369:389   */\n      tag_68\n      jump\t// in\n    tag_94:\n        /* \"#utility.yul\":364:389   */\n      swap3\n      pop\n        /* \"#utility.yul\":412:413   */\n      dup3\n        /* \"#utility.yul\":409:410   */\n      dup3\n        /* \"#utility.yul\":405:414   */\n      add\n        /* \"#utility.yul\":398:414   */\n      swap1\n      pop\n        /* \"#utility.yul\":433:436   */\n      dup1\n        /* \"#utility.yul\":430:431   */\n      dup3\n        /* \"#utility.yul\":427:437   */\n      gt\n        /* \"#utility.yul\":424:460   */\n      iszero\n      tag_95\n      jumpi\n        /* \"#utility.yul\":440:458   */\n      tag_96\n      tag_69\n      jump\t// in\n    tag_96:\n        /* \"#utility.yul\":424:460   */\n    tag_95:\n        /* \"#utility.yul\":276:467   */\n      swap3\n      swap2\n      pop\n      pop\n      jump\t// out\n        /* \"#utility.yul\":554:671   */\n    tag_71:\n        /* \"#utility.yul\":663:664   */\n      0x00\n        /* \"#utility.yul\":660:661   */\n      dup1\n        /* \"#utility.yul\":653:665   */\n      revert\n        /* \"#utility.yul\":800:922   */\n    tag_73:\n        /* \"#utility.yul\":873:897   */\n      tag_101\n        /* \"#utility.yul\":891:896   */\n      dup2\n        /* \"#utility.yul\":873:897   */\n      tag_68\n      jump\t// in\n    tag_101:\n        /* \"#utility.yul\":866:871   */\n      dup2\n        /* \"#utility.yul\":863:898   */\n      eq\n        /* \"#utility.yul\":853:916   */\n      tag_102\n      jumpi\n        /* \"#utility.yul\":912:913   */\n      0x00\n        /* \"#utility.yul\":909:910   */\n      dup1\n        /* \"#utility.yul\":902:914   */\n      revert\n        /* \"#utility.yul\":853:916   */\n    tag_102:\n        /* \"#utility.yul\":800:922   */\n      pop\n      jump\t// out\n        /* \"#utility.yul\":928:1067   */\n    tag_74:\n        /* \"#utility.yul\":974:979   */\n      0x00\n        /* \"#utility.yul\":1012:1018   */\n      dup2\n        /* \"#utility.yul\":999:1019   */\n      calldataload\n        /* \"#utility.yul\":990:1019   */\n      swap1\n      pop\n        /* \"#utility.yul\":1028:1061   */\n      tag_104\n        /* \"#utility.yul\":1055:1060   */\n      dup2\n        /* \"#utility.yul\":1028:1061   */\n      tag_73\n      jump\t// in\n    tag_104:\n        /* \"#utility.yul\":928:1067   */\n      swap3\n      swap2\n      pop\n      pop\n      jump\t// out\n        /* \"#utility.yul\":1073:1402   */\n    tag_15:\n        /* \"#utility.yul\":1132:1138   */\n      0x00\n        /* \"#utility.yul\":1181:1183   */\n      0x20\n        /* \"#utility.yul\":1169:1178   */\n      dup3\n        /* \"#utility.yul\":1160:1167   */\n      dup5\n        /* \"#utility.yul\":1156:1179   */\n      sub\n        /* \"#utility.yul\":1152:1184   */\n      slt\n        /* \"#utility.yul\":1149:1268   */\n      iszero\n      tag_106\n      jumpi\n        /* \"#utility.yul\":1187:1266   */\n      tag_107\n      tag_71\n      jump\t// in\n    tag_107:\n        /* \"#utility.yul\":1149:1268   */\n    tag_106:\n        /* \"#utility.yul\":1307:1308   */\n      0x00\n        /* \"#utility.yul\":1332:1385   */\n      tag_108\n        /* \"#utility.yul\":1377:1384   */\n      dup5\n        /* \"#utility.yul\":1368:1374   */\n      dup3\n        /* \"#utility.yul\":1357:1366   */\n      dup6\n        /* \"#utility.yul\":1353:1375   */\n      add\n        /* \"#utility.yul\":1332:1385   */\n      tag_74\n      jump\t// in\n    tag_108:\n        /* \"#utility.yul\":1322:1385   */\n      swap2\n      pop\n        /* \"#utility.yul\":1278:1395   */\n      pop\n        /* \"#utility.yul\":1073:1402   */\n      swap3\n      swap2\n      pop\n      pop\n      jump\t// out\n        /* \"#utility.yul\":1408:1534   */\n    tag_75:\n        /* \"#utility.yul\":1445:1452   */\n      0x00\n        /* \"#utility.yul\":1485:1527   */\n      0xffffffffffffffffffffffffffffffffffffffff\n        /* \"#utility.yul\":1478:1483   */\n      dup3\n        /* \"#utility.yul\":1474:1528   */\n      and\n        /* \"#utility.yul\":1463:1528   */\n      swap1\n      pop\n        /* \"#utility.yul\":1408:1534   */\n      swap2\n      swap1\n      pop\n      jump\t// out\n        /* \"#utility.yul\":1540:1636   */\n    tag_76:\n        /* \"#utility.yul\":1577:1584   */\n      0x00\n        /* \"#utility.yul\":1606:1630   */\n      tag_111\n        /* \"#utility.yul\":1624:1629   */\n      dup3\n        /* \"#utility.yul\":1606:1630   */\n      tag_75\n      jump\t// in\n    tag_111:\n        /* \"#utility.yul\":1595:1630   */\n      swap1\n      pop\n        /* \"#utility.yul\":1540:1636   */\n      swap2\n      swap1\n      pop\n      jump\t// out\n        /* \"#utility.yul\":1642:1760   */\n    tag_77:\n        /* \"#utility.yul\":1729:1753   */\n      tag_113\n        /* \"#utility.yul\":1747:1752   */\n      dup2\n        /* \"#utility.yul\":1729:1753   */\n      tag_76\n      jump\t// in\n    tag_113:\n        /* \"#utility.yul\":1724:1727   */\n      dup3\n        /* \"#utility.yul\":1717:1754   */\n      mstore\n        /* \"#utility.yul\":1642:1760   */\n      pop\n      pop\n      jump\t// out\n        /* \"#utility.yul\":1766:1988   */\n    tag_18:\n        /* \"#utility.yul\":1859:1863   */\n      0x00\n        /* \"#utility.yul\":1897:1899   */\n      0x20\n        /* \"#utility.yul\":1886:1895   */\n      dup3\n        /* \"#utility.yul\":1882:1900   */\n      add\n        /* \"#utility.yul\":1874:1900   */\n      swap1\n      pop\n        /* \"#utility.yul\":1910:1981   */\n      tag_115\n        /* \"#utility.yul\":1978:1979   */\n      0x00\n        /* \"#utility.yul\":1967:1976   */\n      dup4\n        /* \"#utility.yul\":1963:1980   */\n      add\n        /* \"#utility.yul\":1954:1960   */\n      dup5\n        /* \"#utility.yul\":1910:1981   */\n      tag_77\n      jump\t// in\n    tag_115:\n        /* \"#utility.yul\":1766:1988   */\n      swap3\n      swap2\n      pop\n      pop\n      jump\t// out\n        /* \"#utility.yul\":1994:2084   */\n    tag_78:\n        /* \"#utility.yul\":2028:2035   */\n      0x00\n        /* \"#utility.yul\":2071:2076   */\n      dup2\n        /* \"#utility.yul\":2064:2077   */\n      iszero\n        /* \"#utility.yul\":2057:2078   */\n      iszero\n        /* \"#utility.yul\":2046:2078   */\n      swap1\n      pop\n        /* \"#utility.yul\":1994:2084   */\n      swap2\n      swap1\n      pop\n      jump\t// out\n        /* \"#utility.yul\":2090:2199   */\n    tag_79:\n        /* \"#utility.yul\":2171:2192   */\n      tag_118\n        /* \"#utility.yul\":2186:2191   */\n      dup2\n        /* \"#utility.yul\":2171:2192   */\n      tag_78\n      jump\t// in\n    tag_118:\n        /* \"#utility.yul\":2166:2169   */\n      dup3\n        /* \"#utility.yul\":2159:2193   */\n      mstore\n        /* \"#utility.yul\":2090:2199   */\n      pop\n      pop\n      jump\t// out\n        /* \"#utility.yul\":2205:2415   */\n    tag_26:\n        /* \"#utility.yul\":2292:2296   */\n      0x00\n        /* \"#utility.yul\":2330:2332   */\n      0x20\n        /* \"#utility.yul\":2319:2328   */\n      dup3\n        /* \"#utility.yul\":2315:2333   */\n      add\n        /* \"#utility.yul\":2307:2333   */\n      swap1\n      pop\n        /* \"#utility.yul\":2343:2408   */\n      tag_120\n        /* \"#utility.yul\":2405:2406   */\n      0x00\n        /* \"#utility.yul\":2394:2403   */\n      dup4\n        /* \"#utility.yul\":2390:2407   */\n      add\n        /* \"#utility.yul\":2381:2387   */\n      dup5\n        /* \"#utility.yul\":2343:2408   */\n      tag_79\n      jump\t// in\n    tag_120:\n        /* \"#utility.yul\":2205:2415   */\n      swap3\n      swap2\n      pop\n      pop\n      jump\t// out\n        /* \"#utility.yul\":2421:2539   */\n    tag_80:\n        /* \"#utility.yul\":2508:2532   */\n      tag_122\n        /* \"#utility.yul\":2526:2531   */\n      dup2\n        /* \"#utility.yul\":2508:2532   */\n      tag_68\n      jump\t// in\n    tag_122:\n        /* \"#utility.yul\":2503:2506   */\n      dup3\n        /* \"#utility.yul\":2496:2533   */\n      mstore\n        /* \"#utility.yul\":2421:2539   */\n      pop\n      pop\n      jump\t// out\n        /* \"#utility.yul\":2545:2767   */\n    tag_31:\n        /* \"#utility.yul\":2638:2642   */\n      0x00\n        /* \"#utility.yul\":2676:2678   */\n      0x20\n        /* \"#utility.yul\":2665:2674   */\n      dup3\n        /* \"#utility.yul\":2661:2679   */\n      add\n        /* \"#utility.yul\":2653:2679   */\n      swap1\n      pop\n        /* \"#utility.yul\":2689:2760   */\n      tag_124\n        /* \"#utility.yul\":2757:2758   */\n      0x00\n        /* \"#utility.yul\":2746:2755   */\n      dup4\n        /* \"#utility.yul\":2742:2759   */\n      add\n        /* \"#utility.yul\":2733:2739   */\n      dup5\n        /* \"#utility.yul\":2689:2760   */\n      tag_80\n      jump\t// in\n    tag_124:\n        /* \"#utility.yul\":2545:2767   */\n      swap3\n      swap2\n      pop\n      pop\n      jump\t// out\n        /* \"#utility.yul\":2773:2877   */\n    tag_81:\n        /* \"#utility.yul\":2818:2825   */\n      0x00\n        /* \"#utility.yul\":2847:2871   */\n      tag_126\n        /* \"#utility.yul\":2865:2870   */\n      dup3\n        /* \"#utility.yul\":2847:2871   */\n      tag_75\n      jump\t// in\n    tag_126:\n        /* \"#utility.yul\":2836:2871   */\n      swap1\n      pop\n        /* \"#utility.yul\":2773:2877   */\n      swap2\n      swap1\n      pop\n      jump\t// out\n        /* \"#utility.yul\":2883:3021   */\n    tag_82:\n        /* \"#utility.yul\":2964:2996   */\n      tag_128\n        /* \"#utility.yul\":2990:2995   */\n      dup2\n        /* \"#utility.yul\":2964:2996   */\n      tag_81\n      jump\t// in\n    tag_128:\n        /* \"#utility.yul\":2957:2962   */\n      dup2\n        /* \"#utility.yul\":2954:2997   */\n      eq\n        /* \"#utility.yul\":2944:3015   */\n      tag_129\n      jumpi\n        /* \"#utility.yul\":3011:3012   */\n      0x00\n        /* \"#utility.yul\":3008:3009   */\n      dup1\n        /* \"#utility.yul\":3001:3013   */\n      revert\n        /* \"#utility.yul\":2944:3015   */\n    tag_129:\n        /* \"#utility.yul\":2883:3021   */\n      pop\n      jump\t// out\n        /* \"#utility.yul\":3027:3182   */\n    tag_83:\n        /* \"#utility.yul\":3081:3086   */\n      0x00\n        /* \"#utility.yul\":3119:3125   */\n      dup2\n        /* \"#utility.yul\":3106:3126   */\n      calldataload\n        /* \"#utility.yul\":3097:3126   */\n      swap1\n      pop\n        /* \"#utility.yul\":3135:3176   */\n      tag_131\n        /* \"#utility.yul\":3170:3175   */\n      dup2\n        /* \"#utility.yul\":3135:3176   */\n      tag_82\n      jump\t// in\n    tag_131:\n        /* \"#utility.yul\":3027:3182   */\n      swap3\n      swap2\n      pop\n      pop\n      jump\t// out\n        /* \"#utility.yul\":3188:3678   */\n    tag_35:\n        /* \"#utility.yul\":3264:3270   */\n      0x00\n        /* \"#utility.yul\":3272:3278   */\n      dup1\n        /* \"#utility.yul\":3321:3323   */\n      0x40\n        /* \"#utility.yul\":3309:3318   */\n      dup4\n        /* \"#utility.yul\":3300:3307   */\n      dup6\n        /* \"#utility.yul\":3296:3319   */\n      sub\n        /* \"#utility.yul\":3292:3324   */\n      slt\n        /* \"#utility.yul\":3289:3408   */\n      iszero\n      tag_133\n      jumpi\n        /* \"#utility.yul\":3327:3406   */\n      tag_134\n      tag_71\n      jump\t// in\n    tag_134:\n        /* \"#utility.yul\":3289:3408   */\n    tag_133:\n        /* \"#utility.yul\":3447:3448   */\n      0x00\n        /* \"#utility.yul\":3472:3533   */\n      tag_135\n        /* \"#utility.yul\":3525:3532   */\n      dup6\n        /* \"#utility.yul\":3516:3522   */\n      dup3\n        /* \"#utility.yul\":3505:3514   */\n      dup7\n        /* \"#utility.yul\":3501:3523   */\n      add\n        /* \"#utility.yul\":3472:3533   */\n      tag_83\n      jump\t// in\n    tag_135:\n        /* \"#utility.yul\":3462:3533   */\n      swap3\n      pop\n        /* \"#utility.yul\":3418:3543   */\n      pop\n        /* \"#utility.yul\":3582:3584   */\n      0x20\n        /* \"#utility.yul\":3608:3661   */\n      tag_136\n        /* \"#utility.yul\":3653:3660   */\n      dup6\n        /* \"#utility.yul\":3644:3650   */\n      dup3\n        /* \"#utility.yul\":3633:3642   */\n      dup7\n        /* \"#utility.yul\":3629:3651   */\n      add\n        /* \"#utility.yul\":3608:3661   */\n      tag_74\n      jump\t// in\n    tag_136:\n        /* \"#utility.yul\":3598:3661   */\n      swap2\n      pop\n        /* \"#utility.yul\":3553:3671   */\n      pop\n        /* \"#utility.yul\":3188:3678   */\n      swap3\n      pop\n      swap3\n      swap1\n      pop\n      jump\t// out\n        /* \"#utility.yul\":3684:3864   */\n    tag_42:\n        /* \"#utility.yul\":3732:3809   */\n      0x4e487b7100000000000000000000000000000000000000000000000000000000\n        /* \"#utility.yul\":3729:3730   */\n      0x00\n        /* \"#utility.yul\":3722:3810   */\n      mstore\n        /* \"#utility.yul\":3829:3833   */\n      0x32\n        /* \"#utility.yul\":3826:3827   */\n      0x04\n        /* \"#utility.yul\":3819:3834   */\n      mstore\n        /* \"#utility.yul\":3853:3857   */\n      0x24\n        /* \"#utility.yul\":3850:3851   */\n      0x00\n        /* \"#utility.yul\":3843:3858   */\n      revert\n        /* \"#utility.yul\":3870:4039   */\n    tag_84:\n        /* \"#utility.yul\":3954:3965   */\n      0x00\n        /* \"#utility.yul\":3988:3994   */\n      dup3\n        /* \"#utility.yul\":3983:3986   */\n      dup3\n        /* \"#utility.yul\":3976:3995   */\n      mstore\n        /* \"#utility.yul\":4028:4032   */\n      0x20\n        /* \"#utility.yul\":4023:4026   */\n      dup3\n        /* \"#utility.yul\":4019:4033   */\n      add\n        /* \"#utility.yul\":4004:4033   */\n      swap1\n      pop\n        /* \"#utility.yul\":3870:4039   */\n      swap3\n      swap2\n      pop\n      pop\n      jump\t// out\n        /* \"#utility.yul\":4045:4209   */\n    tag_85:\n        /* \"#utility.yul\":4185:4201   */\n      0x4e6f7420617574686f72697a6564000000000000000000000000000000000000\n        /* \"#utility.yul\":4181:4182   */\n      0x00\n        /* \"#utility.yul\":4173:4179   */\n      dup3\n        /* \"#utility.yul\":4169:4183   */\n      add\n        /* \"#utility.yul\":4162:4202   */\n      mstore\n        /* \"#utility.yul\":4045:4209   */\n      pop\n      jump\t// out\n        /* \"#utility.yul\":4215:4581   */\n    tag_86:\n        /* \"#utility.yul\":4357:4360   */\n      0x00\n        /* \"#utility.yul\":4378:4445   */\n      tag_141\n        /* \"#utility.yul\":4442:4444   */\n      0x0e\n        /* \"#utility.yul\":4437:4440   */\n      dup4\n        /* \"#utility.yul\":4378:4445   */\n      tag_84\n      jump\t// in\n    tag_141:\n        /* \"#utility.yul\":4371:4445   */\n      swap2\n      pop\n        /* \"#utility.yul\":4454:4547   */\n      tag_142\n        /* \"#utility.yul\":4543:4546   */\n      dup3\n        /* \"#utility.yul\":4454:4547   */\n      tag_85\n      jump\t// in\n    tag_142:\n        /* \"#utility.yul\":4572:4574   */\n      0x20\n        /* \"#utility.yul\":4567:4570   */\n      dup3\n        /* \"#utility.yul\":4563:4575   */\n      add\n        /* \"#utility.yul\":4556:4575   */\n      swap1\n      pop\n        /* \"#utility.yul\":4215:4581   */\n      swap2\n      swap1\n      pop\n      jump\t// out\n        /* \"#utility.yul\":4587:5006   */\n    tag_50:\n        /* \"#utility.yul\":4753:4757   */\n      0x00\n        /* \"#utility.yul\":4791:4793   */\n      0x20\n        /* \"#utility.yul\":4780:4789   */\n      dup3\n        /* \"#utility.yul\":4776:4794   */\n      add\n        /* \"#utility.yul\":4768:4794   */\n      swap1\n      pop\n        /* \"#utility.yul\":4840:4849   */\n      dup2\n        /* \"#utility.yul\":4834:4838   */\n      dup2\n        /* \"#utility.yul\":4830:4850   */\n      sub\n        /* \"#utility.yul\":4826:4827   */\n      0x00\n        /* \"#utility.yul\":4815:4824   */\n      dup4\n        /* \"#utility.yul\":4811:4828   */\n      add\n        /* \"#utility.yul\":4804:4851   */\n      mstore\n        /* \"#utility.yul\":4868:4999   */\n      tag_144\n        /* \"#utility.yul\":4994:4998   */\n      dup2\n        /* \"#utility.yul\":4868:4999   */\n      tag_86\n      jump\t// in\n    tag_144:\n        /* \"#utility.yul\":4860:4999   */\n      swap1\n      pop\n        /* \"#utility.yul\":4587:5006   */\n      swap2\n      swap1\n      pop\n      jump\t// out\n        /* \"#utility.yul\":5012:5174   */\n    tag_87:\n        /* \"#utility.yul\":5152:5166   */\n      0x4e6f7420617070726f7665640000000000000000000000000000000000000000\n        /* \"#utility.yul\":5148:5149   */\n      0x00\n        /* \"#utility.yul\":5140:5146   */\n      dup3\n        /* \"#utility.yul\":5136:5150   */\n      add\n        /* \"#utility.yul\":5129:5167   */\n      mstore\n        /* \"#utility.yul\":5012:5174   */\n      pop\n      jump\t// out\n        /* \"#utility.yul\":5180:5546   */\n    tag_88:\n        /* \"#utility.yul\":5322:5325   */\n      0x00\n        /* \"#utility.yul\":5343:5410   */\n      tag_147\n        /* \"#utility.yul\":5407:5409   */\n      0x0c\n        /* \"#utility.yul\":5402:5405   */\n      dup4\n        /* \"#utility.yul\":5343:5410   */\n      tag_84\n      jump\t// in\n    tag_147:\n        /* \"#utility.yul\":5336:5410   */\n      swap2\n      pop\n        /* \"#utility.yul\":5419:5512   */\n      tag_148\n        /* \"#utility.yul\":5508:5511   */\n      dup3\n        /* \"#utility.yul\":5419:5512   */\n      tag_87\n      jump\t// in\n    tag_148:\n        /* \"#utility.yul\":5537:5539   */\n      0x20\n        /* \"#utility.yul\":5532:5535   */\n      dup3\n        /* \"#utility.yul\":5528:5540   */\n      add\n        /* \"#utility.yul\":5521:5540   */\n      swap1\n      pop\n        /* \"#utility.yul\":5180:5546   */\n      swap2\n      swap1\n      pop\n      jump\t// out\n        /* \"#utility.yul\":5552:5971   */\n    tag_54:\n        /* \"#utility.yul\":5718:5722   */\n      0x00\n        /* \"#utility.yul\":5756:5758   */\n      0x20\n        /* \"#utility.yul\":5745:5754   */\n      dup3\n        /* \"#utility.yul\":5741:5759   */\n      add\n        /* \"#utility.yul\":5733:5759   */\n      swap1\n      pop\n        /* \"#utility.yul\":5805:5814   */\n      dup2\n        /* \"#utility.yul\":5799:5803   */\n      dup2\n        /* \"#utility.yul\":5795:5815   */\n      sub\n        /* \"#utility.yul\":5791:5792   */\n      0x00\n        /* \"#utility.yul\":5780:5789   */\n      dup4\n        /* \"#utility.yul\":5776:5793   */\n      add\n        /* \"#utility.yul\":5769:5816   */\n      mstore\n        /* \"#utility.yul\":5833:5964   */\n      tag_150\n        /* \"#utility.yul\":5959:5963   */\n      dup2\n        /* \"#utility.yul\":5833:5964   */\n      tag_88\n      jump\t// in\n    tag_150:\n        /* \"#utility.yul\":5825:5964   */\n      swap1\n      pop\n        /* \"#utility.yul\":5552:5971   */\n      swap2\n      swap1\n      pop\n      jump\t// out\n        /* \"#utility.yul\":5977:6171   */\n    tag_65:\n        /* \"#utility.yul\":6017:6021   */\n      0x00\n        /* \"#utility.yul\":6037:6057   */\n      tag_152\n        /* \"#utility.yul\":6055:6056   */\n      dup3\n        /* \"#utility.yul\":6037:6057   */\n      tag_68\n      jump\t// in\n    tag_152:\n        /* \"#utility.yul\":6032:6057   */\n      swap2\n      pop\n        /* \"#utility.yul\":6071:6091   */\n      tag_153\n        /* \"#utility.yul\":6089:6090   */\n      dup4\n        /* \"#utility.yul\":6071:6091   */\n      tag_68\n      jump\t// in\n    tag_153:\n        /* \"#utility.yul\":6066:6091   */\n      swap3\n      pop\n        /* \"#utility.yul\":6115:6116   */\n      dup3\n        /* \"#utility.yul\":6112:6113   */\n      dup3\n        /* \"#utility.yul\":6108:6117   */\n      sub\n        /* \"#utility.yul\":6100:6117   */\n      swap1\n      pop\n        /* \"#utility.yul\":6139:6140   */\n      dup2\n        /* \"#utility.yul\":6133:6137   */\n      dup2\n        /* \"#utility.yul\":6130:6141   */\n      gt\n        /* \"#utility.yul\":6127:6164   */\n      iszero\n      tag_154\n      jumpi\n        /* \"#utility.yul\":6144:6162   */\n      tag_155\n      tag_69\n      jump\t// in\n    tag_155:\n        /* \"#utility.yul\":6127:6164   */\n    tag_154:\n        /* \"#utility.yul\":5977:6171   */\n      swap3\n      swap2\n      pop\n      pop\n      jump\t// out\n\n    auxdata: 0xa26469706673582212208638389c5c61c4b419674cfe6b4d8d7710204240288de57143e94f67cfd7bfd864736f6c63430008170033\n}\n",
				"bytecode": {
					"linkReferences": {},
					"object": "608060405234801561000f575f80fd5b506040516109983803806109988339818101604052810190610031919061013b565b815f806002811061004557610044610179565b5b015f6101000a81548173ffffffffffffffffffffffffffffffffffffffff021916908373ffffffffffffffffffffffffffffffffffffffff160217905550805f60016002811061009857610097610179565b5b015f6101000a81548173ffffffffffffffffffffffffffffffffffffffff021916908373ffffffffffffffffffffffffffffffffffffffff16021790555050506101a6565b5f80fd5b5f73ffffffffffffffffffffffffffffffffffffffff82169050919050565b5f61010a826100e1565b9050919050565b61011a81610100565b8114610124575f80fd5b50565b5f8151905061013581610111565b92915050565b5f8060408385031215610151576101506100dd565b5b5f61015e85828601610127565b925050602061016f85828601610127565b9150509250929050565b7f4e487b71000000000000000000000000000000000000000000000000000000005f52603260045260245ffd5b6107e5806101b35f395ff3fe60806040526004361061004d575f3560e01c8063025e7c271461006f57806312424e3f146100ab57806319d40b08146100c1578063b69ef8a8146100eb578063f3fef3a3146101155761006b565b3661006b573460025f82825461006391906104b7565b925050819055005b5f80fd5b34801561007a575f80fd5b5061009560048036038101906100909190610518565b61013d565b6040516100a29190610582565b60405180910390f35b3480156100b6575f80fd5b506100bf610170565b005b3480156100cc575f80fd5b506100d5610297565b6040516100e291906105b5565b60405180910390f35b3480156100f6575f80fd5b506100ff6102a9565b60405161010c91906105dd565b60405180910390f35b348015610120575f80fd5b5061013b60048036038101906101369190610631565b6102af565b005b5f816002811061014b575f80fd5b015f915054906101000a900473ffffffffffffffffffffffffffffffffffffffff1681565b5f80600281106101835761018261066f565b5b015f9054906101000a900473ffffffffffffffffffffffffffffffffffffffff1673ffffffffffffffffffffffffffffffffffffffff163373ffffffffffffffffffffffffffffffffffffffff16148061023c57505f6001600281106101ec576101eb61066f565b5b015f9054906101000a900473ffffffffffffffffffffffffffffffffffffffff1673ffffffffffffffffffffffffffffffffffffffff163373ffffffffffffffffffffffffffffffffffffffff16145b61027b576040517f08c379a0000000000000000000000000000000000000000000000000000000008152600401610272906106f6565b60405180910390fd5b600160035f6101000a81548160ff021916908315150217905550565b60035f9054906101000a900460ff1681565b60025481565b60035f9054906101000a900460ff166102fd576040517f08c379a00000000000000000000000000000000000000000000000000000000081526004016102f49061075e565b60405180910390fd5b5f80600281106103105761030f61066f565b5b015f9054906101000a900473ffffffffffffffffffffffffffffffffffffffff1673ffffffffffffffffffffffffffffffffffffffff163373ffffffffffffffffffffffffffffffffffffffff1614806103c957505f6001600281106103795761037861066f565b5b015f9054906101000a900473ffffffffffffffffffffffffffffffffffffffff1673ffffffffffffffffffffffffffffffffffffffff163373ffffffffffffffffffffffffffffffffffffffff16145b610408576040517f08c379a00000000000000000000000000000000000000000000000000000000081526004016103ff906106f6565b60405180910390fd5b5f60035f6101000a81548160ff0219169083151502179055508060025f828254610432919061077c565b925050819055508173ffffffffffffffffffffffffffffffffffffffff166108fc8290811502906040515f60405180830381858888f1935050505015801561047c573d5f803e3d5ffd5b505050565b5f819050919050565b7f4e487b71000000000000000000000000000000000000000000000000000000005f52601160045260245ffd5b5f6104c182610481565b91506104cc83610481565b92508282019050808211156104e4576104e361048a565b5b92915050565b5f80fd5b6104f781610481565b8114610501575f80fd5b50565b5f81359050610512816104ee565b92915050565b5f6020828403121561052d5761052c6104ea565b5b5f61053a84828501610504565b91505092915050565b5f73ffffffffffffffffffffffffffffffffffffffff82169050919050565b5f61056c82610543565b9050919050565b61057c81610562565b82525050565b5f6020820190506105955f830184610573565b92915050565b5f8115159050919050565b6105af8161059b565b82525050565b5f6020820190506105c85f8301846105a6565b92915050565b6105d781610481565b82525050565b5f6020820190506105f05f8301846105ce565b92915050565b5f61060082610543565b9050919050565b610610816105f6565b811461061a575f80fd5b50565b5f8135905061062b81610607565b92915050565b5f8060408385031215610647576106466104ea565b5b5f6106548582860161061d565b925050602061066585828601610504565b9150509250929050565b7f4e487b71000000000000000000000000000000000000000000000000000000005f52603260045260245ffd5b5f82825260208201905092915050565b7f4e6f7420617574686f72697a65640000000000000000000000000000000000005f82015250565b5f6106e0600e8361069c565b91506106eb826106ac565b602082019050919050565b5f6020820190508181035f83015261070d816106d4565b9050919050565b7f4e6f7420617070726f76656400000000000000000000000000000000000000005f82015250565b5f610748600c8361069c565b915061075382610714565b602082019050919050565b5f6020820190508181035f8301526107758161073c565b9050919050565b5f61078682610481565b915061079183610481565b92508282039050818111156107a9576107a861048a565b5b9291505056fea26469706673582212208638389c5c61c4b419674cfe6b4d8d7710204240288de57143e94f67cfd7bfd864736f6c63430008170033",
					"opcodes": "PUSH1 0x80 PUSH1 0x40 MSTORE CALLVALUE DUP1 ISZERO PUSH2 0xF JUMPI PUSH0 DUP1 REVERT JUMPDEST POP PUSH1 0x40 MLOAD PUSH2 0x998 CODESIZE SUB DUP1 PUSH2 0x998 DUP4 CODECOPY DUP2 DUP2 ADD PUSH1 0x40 MSTORE DUP2 ADD SWAP1 PUSH2 0x31 SWAP2 SWAP1 PUSH2 0x13B JUMP JUMPDEST DUP2 PUSH0 DUP1 PUSH1 0x2 DUP2 LT PUSH2 0x45 JUMPI PUSH2 0x44 PUSH2 0x179 JUMP JUMPDEST JUMPDEST ADD PUSH0 PUSH2 0x100 EXP DUP2 SLOAD DUP2 PUSH20 0xFFFFFFFFFFFFFFFFFFFFFFFFFFFFFFFFFFFFFFFF MUL NOT AND SWAP1 DUP4 PUSH20 0xFFFFFFFFFFFFFFFFFFFFFFFFFFFFFFFFFFFFFFFF AND MUL OR SWAP1 SSTORE POP DUP1 PUSH0 PUSH1 0x1 PUSH1 0x2 DUP2 LT PUSH2 0x98 JUMPI PUSH2 0x97 PUSH2 0x179 JUMP JUMPDEST JUMPDEST ADD PUSH0 PUSH2 0x100 EXP DUP2 SLOAD DUP2 PUSH20 0xFFFFFFFFFFFFFFFFFFFFFFFFFFFFFFFFFFFFFFFF MUL NOT AND SWAP1 DUP4 PUSH20 0xFFFFFFFFFFFFFFFFFFFFFFFFFFFFFFFFFFFFFFFF AND MUL OR SWAP1 SSTORE POP POP POP PUSH2 0x1A6 JUMP JUMPDEST PUSH0 DUP1 REVERT JUMPDEST PUSH0 PUSH20 0xFFFFFFFFFFFFFFFFFFFFFFFFFFFFFFFFFFFFFFFF DUP3 AND SWAP1 POP SWAP2 SWAP1 POP JUMP JUMPDEST PUSH0 PUSH2 0x10A DUP3 PUSH2 0xE1 JUMP JUMPDEST SWAP1 POP SWAP2 SWAP1 POP JUMP JUMPDEST PUSH2 0x11A DUP2 PUSH2 0x100 JUMP JUMPDEST DUP2 EQ PUSH2 0x124 JUMPI PUSH0 DUP1 REVERT JUMPDEST POP JUMP JUMPDEST PUSH0 DUP2 MLOAD SWAP1 POP PUSH2 0x135 DUP2 PUSH2 0x111 JUMP JUMPDEST SWAP3 SWAP2 POP POP JUMP JUMPDEST PUSH0 DUP1 PUSH1 0x40 DUP4 DUP6 SUB SLT ISZERO PUSH2 0x151 JUMPI PUSH2 0x150 PUSH2 0xDD JUMP JUMPDEST JUMPDEST PUSH0 PUSH2 0x15E DUP6 DUP3 DUP7 ADD PUSH2 0x127 JUMP JUMPDEST SWAP3 POP POP PUSH1 0x20 PUSH2 0x16F DUP6 DUP3 DUP7 ADD PUSH2 0x127 JUMP JUMPDEST SWAP2 POP POP SWAP3 POP SWAP3 SWAP1 POP JUMP JUMPDEST PUSH32 0x4E487B7100000000000000000000000000000000000000000000000000000000 PUSH0 MSTORE PUSH1 0x32 PUSH1 0x4 MSTORE PUSH1 0x24 PUSH0 REVERT JUMPDEST PUSH2 0x7E5 DUP1 PUSH2 0x1B3 PUSH0 CODECOPY PUSH0 RETURN INVALID PUSH1 0x80 PUSH1 0x40 MSTORE PUSH1 0x4 CALLDATASIZE LT PUSH2 0x4D JUMPI PUSH0 CALLDATALOAD PUSH1 0xE0 SHR DUP1 PUSH4 0x25E7C27 EQ PUSH2 0x6F JUMPI DUP1 PUSH4 0x12424E3F EQ PUSH2 0xAB JUMPI DUP1 PUSH4 0x19D40B08 EQ PUSH2 0xC1 JUMPI DUP1 PUSH4 0xB69EF8A8 EQ PUSH2 0xEB JUMPI DUP1 PUSH4 0xF3FEF3A3 EQ PUSH2 0x115 JUMPI PUSH2 0x6B JUMP JUMPDEST CALLDATASIZE PUSH2 0x6B JUMPI CALLVALUE PUSH1 0x2 PUSH0 DUP3 DUP3 SLOAD PUSH2 0x63 SWAP2 SWAP1 PUSH2 0x4B7 JUMP JUMPDEST SWAP3 POP POP DUP2 SWAP1 SSTORE STOP JUMPDEST PUSH0 DUP1 REVERT JUMPDEST CALLVALUE DUP1 ISZERO PUSH2 0x7A JUMPI PUSH0 DUP1 REVERT JUMPDEST POP PUSH2 0x95 PUSH1 0x4 DUP1 CALLDATASIZE SUB DUP2 ADD SWAP1 PUSH2 0x90 SWAP2 SWAP1 PUSH2 0x518 JUMP JUMPDEST PUSH2 0x13D JUMP JUMPDEST PUSH1 0x40 MLOAD PUSH2 0xA2 SWAP2 SWAP1 PUSH2 0x582 JUMP JUMPDEST PUSH1 0x40 MLOAD DUP1 SWAP2 SUB SWAP1 RETURN JUMPDEST CALLVALUE DUP1 ISZERO PUSH2 0xB6 JUMPI PUSH0 DUP1 REVERT JUMPDEST POP PUSH2 0xBF PUSH2 0x170 JUMP JUMPDEST STOP JUMPDEST CALLVALUE DUP1 ISZERO PUSH2 0xCC JUMPI PUSH0 DUP1 REVERT JUMPDEST POP PUSH2 0xD5 PUSH2 0x297 JUMP JUMPDEST PUSH1 0x40 MLOAD PUSH2 0xE2 SWAP2 SWAP1 PUSH2 0x5B5 JUMP JUMPDEST PUSH1 0x40 MLOAD DUP1 SWAP2 SUB SWAP1 RETURN JUMPDEST CALLVALUE DUP1 ISZERO PUSH2 0xF6 JUMPI PUSH0 DUP1 REVERT JUMPDEST POP PUSH2 0xFF PUSH2 0x2A9 JUMP JUMPDEST PUSH1 0x40 MLOAD PUSH2 0x10C SWAP2 SWAP1 PUSH2 0x5DD JUMP JUMPDEST PUSH1 0x40 MLOAD DUP1 SWAP2 SUB SWAP1 RETURN JUMPDEST CALLVALUE DUP1 ISZERO PUSH2 0x120 JUMPI PUSH0 DUP1 REVERT JUMPDEST POP PUSH2 0x13B PUSH1 0x4 DUP1 CALLDATASIZE SUB DUP2 ADD SWAP1 PUSH2 0x136 SWAP2 SWAP1 PUSH2 0x631 JUMP JUMPDEST PUSH2 0x2AF JUMP JUMPDEST STOP JUMPDEST PUSH0 DUP2 PUSH1 0x2 DUP2 LT PUSH2 0x14B JUMPI PUSH0 DUP1 REVERT JUMPDEST ADD PUSH0 SWAP2 POP SLOAD SWAP1 PUSH2 0x100 EXP SWAP1 DIV PUSH20 0xFFFFFFFFFFFFFFFFFFFFFFFFFFFFFFFFFFFFFFFF AND DUP2 JUMP JUMPDEST PUSH0 DUP1 PUSH1 0x2 DUP2 LT PUSH2 0x183 JUMPI PUSH2 0x182 PUSH2 0x66F JUMP JUMPDEST JUMPDEST ADD PUSH0 SWAP1 SLOAD SWAP1 PUSH2 0x100 EXP SWAP1 DIV PUSH20 0xFFFFFFFFFFFFFFFFFFFFFFFFFFFFFFFFFFFFFFFF AND PUSH20 0xFFFFFFFFFFFFFFFFFFFFFFFFFFFFFFFFFFFFFFFF AND CALLER PUSH20 0xFFFFFFFFFFFFFFFFFFFFFFFFFFFFFFFFFFFFFFFF AND EQ DUP1 PUSH2 0x23C JUMPI POP PUSH0 PUSH1 0x1 PUSH1 0x2 DUP2 LT PUSH2 0x1EC JUMPI PUSH2 0x1EB PUSH2 0x66F JUMP JUMPDEST JUMPDEST ADD PUSH0 SWAP1 SLOAD SWAP1 PUSH2 0x100 EXP SWAP1 DIV PUSH20 0xFFFFFFFFFFFFFFFFFFFFFFFFFFFFFFFFFFFFFFFF AND PUSH20 0xFFFFFFFFFFFFFFFFFFFFFFFFFFFFFFFFFFFFFFFF AND CALLER PUSH20 0xFFFFFFFFFFFFFFFFFFFFFFFFFFFFFFFFFFFFFFFF AND EQ JUMPDEST PUSH2 0x27B JUMPI PUSH1 0x40 MLOAD PUSH32 0x8C379A000000000000000000000000000000000000000000000000000000000 DUP2 MSTORE PUSH1 0x4 ADD PUSH2 0x272 SWAP1 PUSH2 0x6F6 JUMP JUMPDEST PUSH1 0x40 MLOAD DUP1 SWAP2 SUB SWAP1 REVERT JUMPDEST PUSH1 0x1 PUSH1 0x3 PUSH0 PUSH2 0x100 EXP DUP2 SLOAD DUP2 PUSH1 0xFF MUL NOT AND SWAP1 DUP4 ISZERO ISZERO MUL OR SWAP1 SSTORE POP JUMP JUMPDEST PUSH1 0x3 PUSH0 SWAP1 SLOAD SWAP1 PUSH2 0x100 EXP SWAP1 DIV PUSH1 0xFF AND DUP2 JUMP JUMPDEST PUSH1 0x2 SLOAD DUP2 JUMP JUMPDEST PUSH1 0x3 PUSH0 SWAP1 SLOAD SWAP1 PUSH2 0x100 EXP SWAP1 DIV PUSH1 0xFF AND PUSH2 0x2FD JUMPI PUSH1 0x40 MLOAD PUSH32 0x8C379A000000000000000000000000000000000000000000000000000000000 DUP2 MSTORE PUSH1 0x4 ADD PUSH2 0x2F4 SWAP1 PUSH2 0x75E JUMP JUMPDEST PUSH1 0x40 MLOAD DUP1 SWAP2 SUB SWAP1 REVERT JUMPDEST PUSH0 DUP1 PUSH1 0x2 DUP2 LT PUSH2 0x310 JUMPI PUSH2 0x30F PUSH2 0x66F JUMP JUMPDEST JUMPDEST ADD PUSH0 SWAP1 SLOAD SWAP1 PUSH2 0x100 EXP SWAP1 DIV PUSH20 0xFFFFFFFFFFFFFFFFFFFFFFFFFFFFFFFFFFFFFFFF AND PUSH20 0xFFFFFFFFFFFFFFFFFFFFFFFFFFFFFFFFFFFFFFFF AND CALLER PUSH20 0xFFFFFFFFFFFFFFFFFFFFFFFFFFFFFFFFFFFFFFFF AND EQ DUP1 PUSH2 0x3C9 JUMPI POP PUSH0 PUSH1 0x1 PUSH1 0x2 DUP2 LT PUSH2 0x379 JUMPI PUSH2 0x378 PUSH2 0x66F JUMP JUMPDEST JUMPDEST ADD PUSH0 SWAP1 SLOAD SWAP1 PUSH2 0x100 EXP SWAP1 DIV PUSH20 0xFFFFFFFFFFFFFFFFFFFFFFFFFFFFFFFFFFFFFFFF AND PUSH20 0xFFFFFFFFFFFFFFFFFFFFFFFFFFFFFFFFFFFFFFFF AND CALLER PUSH20 0xFFFFFFFFFFFFFFFFFFFFFFFFFFFFFFFFFFFFFFFF AND EQ JUMPDEST PUSH2 0x408 JUMPI PUSH1 0x40 MLOAD PUSH32 0x8C379A000000000000000000000000000000000000000000000000000000000 DUP2 MSTORE PUSH1 0x4 ADD PUSH2 0x3FF SWAP1 PUSH2 0x6F6 JUMP JUMPDEST PUSH1 0x40 MLOAD DUP1 SWAP2 SUB SWAP1 REVERT JUMPDEST PUSH0 PUSH1 0x3 PUSH0 PUSH2 0x100 EXP DUP2 SLOAD DUP2 PUSH1 0xFF MUL NOT AND SWAP1 DUP4 ISZERO ISZERO MUL OR SWAP1 SSTORE POP DUP1 PUSH1 0x2 PUSH0 DUP3 DUP3 SLOAD PUSH2 0x432 SWAP2 SWAP1 PUSH2 0x77C JUMP JUMPDEST SWAP3 POP POP DUP2 SWAP1 SSTORE POP DUP2 PUSH20 0xFFFFFFFFFFFFFFFFFFFFFFFFFFFFFFFFFFFFFFFF AND PUSH2 0x8FC DUP3 SWAP1 DUP2 ISZERO MUL SWAP1 PUSH1 0x40 MLOAD PUSH0 PUSH1 0x40 MLOAD DUP1 DUP4 SUB DUP2 DUP6 DUP9 DUP9 CALL SWAP4 POP POP POP POP ISZERO DUP1 ISZERO PUSH2 0x47C JUMPI RETURNDATASIZE PUSH0 DUP1 RETURNDATACOPY RETURNDATASIZE PUSH0 REVERT JUMPDEST POP POP POP JUMP JUMPDEST PUSH0 DUP2 SWAP1 POP SWAP2 SWAP1 POP JUMP JUMPDEST PUSH32 0x4E487B7100000000000000000000000000000000000000000000000000000000 PUSH0 MSTORE PUSH1 0x11 PUSH1 0x4 MSTORE PUSH1 0x24 PUSH0 REVERT JUMPDEST PUSH0 PUSH2 0x4C1 DUP3 PUSH2 0x481 JUMP JUMPDEST SWAP2 POP PUSH2 0x4CC DUP4 PUSH2 0x481 JUMP JUMPDEST SWAP3 POP DUP3 DUP3 ADD SWAP1 POP DUP1 DUP3 GT ISZERO PUSH2 0x4E4 JUMPI PUSH2 0x4E3 PUSH2 0x48A JUMP JUMPDEST JUMPDEST SWAP3 SWAP2 POP POP JUMP JUMPDEST PUSH0 DUP1 REVERT JUMPDEST PUSH2 0x4F7 DUP2 PUSH2 0x481 JUMP JUMPDEST DUP2 EQ PUSH2 0x501 JUMPI PUSH0 DUP1 REVERT JUMPDEST POP JUMP JUMPDEST PUSH0 DUP2 CALLDATALOAD SWAP1 POP PUSH2 0x512 DUP2 PUSH2 0x4EE JUMP JUMPDEST SWAP3 SWAP2 POP POP JUMP JUMPDEST PUSH0 PUSH1 0x20 DUP3 DUP5 SUB SLT ISZERO PUSH2 0x52D JUMPI PUSH2 0x52C PUSH2 0x4EA JUMP JUMPDEST JUMPDEST PUSH0 PUSH2 0x53A DUP5 DUP3 DUP6 ADD PUSH2 0x504 JUMP JUMPDEST SWAP2 POP POP SWAP3 SWAP2 POP POP JUMP JUMPDEST PUSH0 PUSH20 0xFFFFFFFFFFFFFFFFFFFFFFFFFFFFFFFFFFFFFFFF DUP3 AND SWAP1 POP SWAP2 SWAP1 POP JUMP JUMPDEST PUSH0 PUSH2 0x56C DUP3 PUSH2 0x543 JUMP JUMPDEST SWAP1 POP SWAP2 SWAP1 POP JUMP JUMPDEST PUSH2 0x57C DUP2 PUSH2 0x562 JUMP JUMPDEST DUP3 MSTORE POP POP JUMP JUMPDEST PUSH0 PUSH1 0x20 DUP3 ADD SWAP1 POP PUSH2 0x595 PUSH0 DUP4 ADD DUP5 PUSH2 0x573 JUMP JUMPDEST SWAP3 SWAP2 POP POP JUMP JUMPDEST PUSH0 DUP2 ISZERO ISZERO SWAP1 POP SWAP2 SWAP1 POP JUMP JUMPDEST PUSH2 0x5AF DUP2 PUSH2 0x59B JUMP JUMPDEST DUP3 MSTORE POP POP JUMP JUMPDEST PUSH0 PUSH1 0x20 DUP3 ADD SWAP1 POP PUSH2 0x5C8 PUSH0 DUP4 ADD DUP5 PUSH2 0x5A6 JUMP JUMPDEST SWAP3 SWAP2 POP POP JUMP JUMPDEST PUSH2 0x5D7 DUP2 PUSH2 0x481 JUMP JUMPDEST DUP3 MSTORE POP POP JUMP JUMPDEST PUSH0 PUSH1 0x20 DUP3 ADD SWAP1 POP PUSH2 0x5F0 PUSH0 DUP4 ADD DUP5 PUSH2 0x5CE JUMP JUMPDEST SWAP3 SWAP2 POP POP JUMP JUMPDEST PUSH0 PUSH2 0x600 DUP3 PUSH2 0x543 JUMP JUMPDEST SWAP1 POP SWAP2 SWAP1 POP JUMP JUMPDEST PUSH2 0x610 DUP2 PUSH2 0x5F6 JUMP JUMPDEST DUP2 EQ PUSH2 0x61A JUMPI PUSH0 DUP1 REVERT JUMPDEST POP JUMP JUMPDEST PUSH0 DUP2 CALLDATALOAD SWAP1 POP PUSH2 0x62B DUP2 PUSH2 0x607 JUMP JUMPDEST SWAP3 SWAP2 POP POP JUMP JUMPDEST PUSH0 DUP1 PUSH1 0x40 DUP4 DUP6 SUB SLT ISZERO PUSH2 0x647 JUMPI PUSH2 0x646 PUSH2 0x4EA JUMP JUMPDEST JUMPDEST PUSH0 PUSH2 0x654 DUP6 DUP3 DUP7 ADD PUSH2 0x61D JUMP JUMPDEST SWAP3 POP POP PUSH1 0x20 PUSH2 0x665 DUP6 DUP3 DUP7 ADD PUSH2 0x504 JUMP JUMPDEST SWAP2 POP POP SWAP3 POP SWAP3 SWAP1 POP JUMP JUMPDEST PUSH32 0x4E487B7100000000000000000000000000000000000000000000000000000000 PUSH0 MSTORE PUSH1 0x32 PUSH1 0x4 MSTORE PUSH1 0x24 PUSH0 REVERT JUMPDEST PUSH0 DUP3 DUP3 MSTORE PUSH1 0x20 DUP3 ADD SWAP1 POP SWAP3 SWAP2 POP POP JUMP JUMPDEST PUSH32 0x4E6F7420617574686F72697A6564000000000000000000000000000000000000 PUSH0 DUP3 ADD MSTORE POP JUMP JUMPDEST PUSH0 PUSH2 0x6E0 PUSH1 0xE DUP4 PUSH2 0x69C JUMP JUMPDEST SWAP2 POP PUSH2 0x6EB DUP3 PUSH2 0x6AC JUMP JUMPDEST PUSH1 0x20 DUP3 ADD SWAP1 POP SWAP2 SWAP1 POP JUMP JUMPDEST PUSH0 PUSH1 0x20 DUP3 ADD SWAP1 POP DUP2 DUP2 SUB PUSH0 DUP4 ADD MSTORE PUSH2 0x70D DUP2 PUSH2 0x6D4 JUMP JUMPDEST SWAP1 POP SWAP2 SWAP1 POP JUMP JUMPDEST PUSH32 0x4E6F7420617070726F7665640000000000000000000000000000000000000000 PUSH0 DUP3 ADD MSTORE POP JUMP JUMPDEST PUSH0 PUSH2 0x748 PUSH1 0xC DUP4 PUSH2 0x69C JUMP JUMPDEST SWAP2 POP PUSH2 0x753 DUP3 PUSH2 0x714 JUMP JUMPDEST PUSH1 0x20 DUP3 ADD SWAP1 POP SWAP2 SWAP1 POP JUMP JUMPDEST PUSH0 PUSH1 0x20 DUP3 ADD SWAP1 POP DUP2 DUP2 SUB PUSH0 DUP4 ADD MSTORE PUSH2 0x775 DUP2 PUSH2 0x73C JUMP JUMPDEST SWAP1 POP SWAP2 SWAP1 POP JUMP JUMPDEST PUSH0 PUSH2 0x786 DUP3 PUSH2 0x481 JUMP JUMPDEST SWAP2 POP PUSH2 0x791 DUP4 PUSH2 0x481 JUMP JUMPDEST SWAP3 POP DUP3 DUP3 SUB SWAP1 POP DUP2 DUP2 GT ISZERO PUSH2 0x7A9 JUMPI PUSH2 0x7A8 PUSH2 0x48A JUMP JUMPDEST JUMPDEST SWAP3 SWAP2 POP POP JUMP INVALID LOG2 PUSH5 0x6970667358 0x22 SLT KECCAK256 DUP7 CODESIZE CODESIZE SWAP13 0x5C PUSH2 0xC4B4 NOT PUSH8 0x4CFE6B4D8D771020 TIMESTAMP BLOCKHASH 0x28 DUP14 0xE5 PUSH18 0x43E94F67CFD7BFD864736F6C634300081700 CALLER "
				},
				"gasEstimates": {
					"creation": {
						"codeDepositCost": "404200",
						"executionCost": "infinite",
						"totalCost": "infinite"
					},
					"external": {
						"approve()": "28808",
						"approved()": "2488",
						"balance()": "2469",
						"owners(uint256)": "2772",
						"withdraw(address,uint256)": "infinite"
					}
				},
				"methodIdentifiers": {
					"approve()": "12424e3f",
					"approved()": "19d40b08",
					"balance()": "b69ef8a8",
					"owners(uint256)": "025e7c27",
					"withdraw(address,uint256)": "f3fef3a3"
				}
			},
			"storageLayout": {
				"storage": [
					{
						"astId": 5,
						"contract": "monad dashboard/MultiSigWallet.sol:MultiSigWallet",
						"label": "owners",
						"offset": 0,
						"slot": "0",
						"type": "t_array(t_address)2_storage"
					},
					{
						"astId": 7,
						"contract": "monad dashboard/MultiSigWallet.sol:MultiSigWallet",
						"label": "balance",
						"offset": 0,
						"slot": "2",
						"type": "t_uint256"
					},
					{
						"astId": 9,
						"contract": "monad dashboard/MultiSigWallet.sol:MultiSigWallet",
						"label": "approved",
						"offset": 0,
						"slot": "3",
						"type": "t_bool"
					}
				],
				"types": {
					"t_address": {
						"encoding": "inplace",
						"label": "address",
						"numberOfBytes": "20"
					},
					"t_array(t_address)2_storage": {
						"base": "t_address",
						"encoding": "inplace",
						"label": "address[2]",
						"numberOfBytes": "64"
					},
					"t_bool": {
						"encoding": "inplace",
						"label": "bool",
						"numberOfBytes": "1"
					},
					"t_uint256": {
						"encoding": "inplace",
						"label": "uint256",
						"numberOfBytes": "32"
					}
				}
			},
			"userdoc": {
				"kind": "user",
				"methods": {},
				"version": 1
			}
		}
	}
}