{
	"monad dashboard/ThreadPost.sol": {
		"ThreadPost": {
			"abi": [
				{
					"inputs": [],
					"name": "getPosts",
					"outputs": [
						{
							"components": [
								{
									"internalType": "address",
									"name": "author",
									"type": "address"
								},
								{
									"internalType": "string",
									"name": "content",
									"type": "string"
								},
								{
									"internalType": "uint256",
									"name": "timestamp",
									"type": "uint256"
								}
							],
							"internalType": "struct ThreadPost.Post[]",
							"name": "",
							"type": "tuple[]"
						}
					],
					"stateMutability": "view",
					"type": "function"
				},
				{
					"inputs": [
						{
							"internalType": "uint256",
							"name": "",
							"type": "uint256"
						}
					],
					"name": "posts",
					"outputs": [
						{
							"internalType": "address",
							"name": "author",
							"type": "address"
						},
						{
							"internalType": "string",
							"name": "content",
							"type": "string"
						},
						{
							"internalType": "uint256",
							"name": "timestamp",
							"type": "uint256"
						}
					],
					"stateMutability": "view",
					"type": "function"
				},
				{
					"inputs": [],
					"name": "totalPosts",
					"outputs": [
						{
							"internalType": "uint256",
							"name": "",
							"type": "uint256"
						}
					],
					"stateMutability": "view",
					"type": "function"
				},
				{
					"inputs": [
						{
							"internalType": "string",
							"name": "content",
							"type": "string"
						}
					],
					"name": "write",
					"outputs": [],
					"stateMutability": "nonpayable",
					"type": "function"
				}
			],
			"devdoc": {
				"kind": "dev",
				"methods": {},
				"version": 1
			},
			"evm": {
				"assembly": "    /* \"monad dashboard/ThreadPost.sol\":28:505  contract ThreadPost {... */\n  mstore(0x40, 0x80)\n  callvalue\n  dup1\n  iszero\n  tag_1\n  jumpi\n  0x00\n  dup1\n  revert\ntag_1:\n  pop\n  dataSize(sub_0)\n  dup1\n  dataOffset(sub_0)\n  0x00\n  codecopy\n  0x00\n  return\nstop\n\nsub_0: assembly {\n        /* \"monad dashboard/ThreadPost.sol\":28:505  contract ThreadPost {... */\n      mstore(0x40, 0x80)\n      callvalue\n      dup1\n      iszero\n      tag_1\n      jumpi\n      0x00\n      dup1\n      revert\n    tag_1:\n      pop\n      jumpi(tag_2, lt(calldatasize, 0x04))\n      shr(0xe0, calldataload(0x00))\n      dup1\n      0x0b1e7f83\n      eq\n      tag_3\n      jumpi\n      dup1\n      0x41f3004a\n      eq\n      tag_4\n      jumpi\n      dup1\n      0x8e53fb41\n      eq\n      tag_5\n      jumpi\n      dup1\n      0xebaac771\n      eq\n      tag_6\n      jumpi\n    tag_2:\n      0x00\n      dup1\n      revert\n        /* \"monad dashboard/ThreadPost.sol\":158:177  Post[] public posts */\n    tag_3:\n      tag_7\n      0x04\n      dup1\n      calldatasize\n      sub\n      dup2\n      add\n      swap1\n      tag_8\n      swap2\n      swap1\n      tag_9\n      jump\t// in\n    tag_8:\n      tag_10\n      jump\t// in\n    tag_7:\n      mload(0x40)\n      tag_11\n      swap4\n      swap3\n      swap2\n      swap1\n      tag_12\n      jump\t// in\n    tag_11:\n      mload(0x40)\n      dup1\n      swap2\n      sub\n      swap1\n      return\n        /* \"monad dashboard/ThreadPost.sol\":316:405  function getPosts() external view returns (Post[] memory) {... */\n    tag_4:\n      tag_13\n      tag_14\n      jump\t// in\n    tag_13:\n      mload(0x40)\n      tag_15\n      swap2\n      swap1\n      tag_16\n      jump\t// in\n    tag_15:\n      mload(0x40)\n      dup1\n      swap2\n      sub\n      swap1\n      return\n        /* \"monad dashboard/ThreadPost.sol\":413:502  function totalPosts() external view returns (uint) {... */\n    tag_5:\n      tag_17\n      tag_18\n      jump\t// in\n    tag_17:\n      mload(0x40)\n      tag_19\n      swap2\n      swap1\n      tag_20\n      jump\t// in\n    tag_19:\n      mload(0x40)\n      dup1\n      swap2\n      sub\n      swap1\n      return\n        /* \"monad dashboard/ThreadPost.sol\":186:308  function write(string calldata content) external {... */\n    tag_6:\n      tag_21\n      0x04\n      dup1\n      calldatasize\n      sub\n      dup2\n      add\n      swap1\n      tag_22\n      swap2\n      swap1\n      tag_23\n      jump\t// in\n    tag_22:\n      tag_24\n      jump\t// in\n    tag_21:\n      stop\n        /* \"monad dashboard/ThreadPost.sol\":158:177  Post[] public posts */\n    tag_10:\n      0x00\n      dup2\n      dup2\n      sload\n      dup2\n      lt\n      tag_25\n      jumpi\n      0x00\n      dup1\n      revert\n    tag_25:\n      swap1\n      0x00\n      mstore\n      keccak256(0x00, 0x20)\n      swap1\n      0x03\n      mul\n      add\n      0x00\n      swap2\n      pop\n      swap1\n      pop\n      dup1\n      0x00\n      add\n      0x00\n      swap1\n      sload\n      swap1\n      0x0100\n      exp\n      swap1\n      div\n      0xffffffffffffffffffffffffffffffffffffffff\n      and\n      swap1\n      dup1\n      0x01\n      add\n      dup1\n      sload\n      tag_27\n      swap1\n      tag_28\n      jump\t// in\n    tag_27:\n      dup1\n      0x1f\n      add\n      0x20\n      dup1\n      swap2\n      div\n      mul\n      0x20\n      add\n      mload(0x40)\n      swap1\n      dup2\n      add\n      0x40\n      mstore\n      dup1\n      swap3\n      swap2\n      swap1\n      dup2\n      dup2\n      mstore\n      0x20\n      add\n      dup3\n      dup1\n      sload\n      tag_29\n      swap1\n      tag_28\n      jump\t// in\n    tag_29:\n      dup1\n      iszero\n      tag_30\n      jumpi\n      dup1\n      0x1f\n      lt\n      tag_31\n      jumpi\n      0x0100\n      dup1\n      dup4\n      sload\n      div\n      mul\n      dup4\n      mstore\n      swap2\n      0x20\n      add\n      swap2\n      jump(tag_30)\n    tag_31:\n      dup3\n      add\n      swap2\n      swap1\n      0x00\n      mstore\n      keccak256(0x00, 0x20)\n      swap1\n    tag_32:\n      dup2\n      sload\n      dup2\n      mstore\n      swap1\n      0x01\n      add\n      swap1\n      0x20\n      add\n      dup1\n      dup4\n      gt\n      tag_32\n      jumpi\n      dup3\n      swap1\n      sub\n      0x1f\n      and\n      dup3\n      add\n      swap2\n    tag_30:\n      pop\n      pop\n      pop\n      pop\n      pop\n      swap1\n      dup1\n      0x02\n      add\n      sload\n      swap1\n      pop\n      dup4\n      jump\t// out\n        /* \"monad dashboard/ThreadPost.sol\":316:405  function getPosts() external view returns (Post[] memory) {... */\n    tag_14:\n        /* \"monad dashboard/ThreadPost.sol\":359:372  Post[] memory */\n      0x60\n        /* \"monad dashboard/ThreadPost.sol\":392:397  posts */\n      0x00\n        /* \"monad dashboard/ThreadPost.sol\":385:397  return posts */\n      dup1\n      sload\n      dup1\n      0x20\n      mul\n      0x20\n      add\n      mload(0x40)\n      swap1\n      dup2\n      add\n      0x40\n      mstore\n      dup1\n      swap3\n      swap2\n      swap1\n      dup2\n      dup2\n      mstore\n      0x20\n      add\n      0x00\n      swap1\n    tag_34:\n      dup3\n      dup3\n      lt\n      iszero\n      tag_35\n      jumpi\n      dup4\n      dup3\n      swap1\n      0x00\n      mstore\n      keccak256(0x00, 0x20)\n      swap1\n      0x03\n      mul\n      add\n      mload(0x40)\n      dup1\n      0x60\n      add\n      0x40\n      mstore\n      swap1\n      dup2\n      0x00\n      dup3\n      add\n      0x00\n      swap1\n      sload\n      swap1\n      0x0100\n      exp\n      swap1\n      div\n      0xffffffffffffffffffffffffffffffffffffffff\n      and\n      0xffffffffffffffffffffffffffffffffffffffff\n      and\n      0xffffffffffffffffffffffffffffffffffffffff\n      and\n      dup2\n      mstore\n      0x20\n      add\n      0x01\n      dup3\n      add\n      dup1\n      sload\n      tag_37\n      swap1\n      tag_28\n      jump\t// in\n    tag_37:\n      dup1\n      0x1f\n      add\n      0x20\n      dup1\n      swap2\n      div\n      mul\n      0x20\n      add\n      mload(0x40)\n      swap1\n      dup2\n      add\n      0x40\n      mstore\n      dup1\n      swap3\n      swap2\n      swap1\n      dup2\n      dup2\n      mstore\n      0x20\n      add\n      dup3\n      dup1\n      sload\n      tag_38\n      swap1\n      tag_28\n      jump\t// in\n    tag_38:\n      dup1\n      iszero\n      tag_39\n      jumpi\n      dup1\n      0x1f\n      lt\n      tag_40\n      jumpi\n      0x0100\n      dup1\n      dup4\n      sload\n      div\n      mul\n      dup4\n      mstore\n      swap2\n      0x20\n      add\n      swap2\n      jump(tag_39)\n    tag_40:\n      dup3\n      add\n      swap2\n      swap1\n      0x00\n      mstore\n      keccak256(0x00, 0x20)\n      swap1\n    tag_41:\n      dup2\n      sload\n      dup2\n      mstore\n      swap1\n      0x01\n      add\n      swap1\n      0x20\n      add\n      dup1\n      dup4\n      gt\n      tag_41\n      jumpi\n      dup3\n      swap1\n      sub\n      0x1f\n      and\n      dup3\n      add\n      swap2\n    tag_39:\n      pop\n      pop\n      pop\n      pop\n      pop\n      dup2\n      mstore\n      0x20\n      add\n      0x02\n      dup3\n      add\n      sload\n      dup2\n      mstore\n      pop\n      pop\n      dup2\n      mstore\n      0x20\n      add\n      swap1\n      0x01\n      add\n      swap1\n      jump(tag_34)\n    tag_35:\n      pop\n      pop\n      pop\n      pop\n      swap1\n      pop\n        /* \"monad dashboard/ThreadPost.sol\":316:405  function getPosts() external view returns (Post[] memory) {... */\n      swap1\n      jump\t// out\n        /* \"monad dashboard/ThreadPost.sol\":413:502  function totalPosts() external view returns (uint) {... */\n    tag_18:\n        /* \"monad dashboard/ThreadPost.sol\":458:462  uint */\n      0x00\n        /* \"monad dashboard/ThreadPost.sol\":482:487  posts */\n      dup1\n        /* \"monad dashboard/ThreadPost.sol\":482:494  posts.length */\n      dup1\n      sload\n      swap1\n      pop\n        /* \"monad dashboard/ThreadPost.sol\":475:494  return posts.length */\n      swap1\n      pop\n        /* \"monad dashboard/ThreadPost.sol\":413:502  function totalPosts() external view returns (uint) {... */\n      swap1\n      jump\t// out\n        /* \"monad dashboard/ThreadPost.sol\":186:308  function write(string calldata content) external {... */\n    tag_24:\n        /* \"monad dashboard/ThreadPost.sol\":246:251  posts */\n      0x00\n        /* \"monad dashboard/ThreadPost.sol\":257:299  Post(msg.sender, content, block.timestamp) */\n      mload(0x40)\n      dup1\n      0x60\n      add\n      0x40\n      mstore\n      dup1\n        /* \"monad dashboard/ThreadPost.sol\":262:272  msg.sender */\n      caller\n        /* \"monad dashboard/ThreadPost.sol\":257:299  Post(msg.sender, content, block.timestamp) */\n      0xffffffffffffffffffffffffffffffffffffffff\n      and\n      dup2\n      mstore\n      0x20\n      add\n        /* \"monad dashboard/ThreadPost.sol\":274:281  content */\n      dup5\n      dup5\n        /* \"monad dashboard/ThreadPost.sol\":257:299  Post(msg.sender, content, block.timestamp) */\n      dup1\n      dup1\n      0x1f\n      add\n      0x20\n      dup1\n      swap2\n      div\n      mul\n      0x20\n      add\n      mload(0x40)\n      swap1\n      dup2\n      add\n      0x40\n      mstore\n      dup1\n      swap4\n      swap3\n      swap2\n      swap1\n      dup2\n      dup2\n      mstore\n      0x20\n      add\n      dup4\n      dup4\n      dup1\n      dup3\n      dup5\n      calldatacopy\n      0x00\n      dup2\n      dup5\n      add\n      mstore\n      not(0x1f)\n      0x1f\n      dup3\n      add\n      and\n      swap1\n      pop\n      dup1\n      dup4\n      add\n      swap3\n      pop\n      pop\n      pop\n      pop\n      pop\n      pop\n      pop\n      dup2\n      mstore\n      0x20\n      add\n        /* \"monad dashboard/ThreadPost.sol\":283:298  block.timestamp */\n      timestamp\n        /* \"monad dashboard/ThreadPost.sol\":257:299  Post(msg.sender, content, block.timestamp) */\n      dup2\n      mstore\n      pop\n        /* \"monad dashboard/ThreadPost.sol\":246:300  posts.push(Post(msg.sender, content, block.timestamp)) */\n      swap1\n      dup1\n      0x01\n      dup2\n      sload\n      add\n      dup1\n      dup3\n      sstore\n      dup1\n      swap2\n      pop\n      pop\n      0x01\n      swap1\n      sub\n      swap1\n      0x00\n      mstore\n      keccak256(0x00, 0x20)\n      swap1\n      0x03\n      mul\n      add\n      0x00\n      swap1\n      swap2\n      swap1\n      swap2\n      swap1\n      swap2\n      pop\n      0x00\n      dup3\n      add\n      mload\n      dup2\n      0x00\n      add\n      exp(0x0100, 0x00)\n      dup2\n      sload\n      dup2\n      0xffffffffffffffffffffffffffffffffffffffff\n      mul\n      not\n      and\n      swap1\n      dup4\n      0xffffffffffffffffffffffffffffffffffffffff\n      and\n      mul\n      or\n      swap1\n      sstore\n      pop\n      0x20\n      dup3\n      add\n      mload\n      dup2\n      0x01\n      add\n      swap1\n      dup2\n      tag_45\n      swap2\n      swap1\n      tag_46\n      jump\t// in\n    tag_45:\n      pop\n      0x40\n      dup3\n      add\n      mload\n      dup2\n      0x02\n      add\n      sstore\n      pop\n      pop\n        /* \"monad dashboard/ThreadPost.sol\":186:308  function write(string calldata content) external {... */\n      pop\n      pop\n      jump\t// out\n        /* \"#utility.yul\":88:205   */\n    tag_48:\n        /* \"#utility.yul\":197:198   */\n      0x00\n        /* \"#utility.yul\":194:195   */\n      dup1\n        /* \"#utility.yul\":187:199   */\n      revert\n        /* \"#utility.yul\":211:328   */\n    tag_49:\n        /* \"#utility.yul\":320:321   */\n      0x00\n        /* \"#utility.yul\":317:318   */\n      dup1\n        /* \"#utility.yul\":310:322   */\n      revert\n        /* \"#utility.yul\":334:411   */\n    tag_50:\n        /* \"#utility.yul\":371:378   */\n      0x00\n        /* \"#utility.yul\":400:405   */\n      dup2\n        /* \"#utility.yul\":389:405   */\n      swap1\n      pop\n        /* \"#utility.yul\":334:411   */\n      swap2\n      swap1\n      pop\n      jump\t// out\n        /* \"#utility.yul\":417:539   */\n    tag_51:\n        /* \"#utility.yul\":490:514   */\n      tag_100\n        /* \"#utility.yul\":508:513   */\n      dup2\n        /* \"#utility.yul\":490:514   */\n      tag_50\n      jump\t// in\n    tag_100:\n        /* \"#utility.yul\":483:488   */\n      dup2\n        /* \"#utility.yul\":480:515   */\n      eq\n        /* \"#utility.yul\":470:533   */\n      tag_101\n      jumpi\n        /* \"#utility.yul\":529:530   */\n      0x00\n        /* \"#utility.yul\":526:527   */\n      dup1\n        /* \"#utility.yul\":519:531   */\n      revert\n        /* \"#utility.yul\":470:533   */\n    tag_101:\n        /* \"#utility.yul\":417:539   */\n      pop\n      jump\t// out\n        /* \"#utility.yul\":545:684   */\n    tag_52:\n        /* \"#utility.yul\":591:596   */\n      0x00\n        /* \"#utility.yul\":629:635   */\n      dup2\n        /* \"#utility.yul\":616:636   */\n      calldataload\n        /* \"#utility.yul\":607:636   */\n      swap1\n      pop\n        /* \"#utility.yul\":645:678   */\n      tag_103\n        /* \"#utility.yul\":672:677   */\n      dup2\n        /* \"#utility.yul\":645:678   */\n      tag_51\n      jump\t// in\n    tag_103:\n        /* \"#utility.yul\":545:684   */\n      swap3\n      swap2\n      pop\n      pop\n      jump\t// out\n        /* \"#utility.yul\":690:1019   */\n    tag_9:\n        /* \"#utility.yul\":749:755   */\n      0x00\n        /* \"#utility.yul\":798:800   */\n      0x20\n        /* \"#utility.yul\":786:795   */\n      dup3\n        /* \"#utility.yul\":777:784   */\n      dup5\n        /* \"#utility.yul\":773:796   */\n      sub\n        /* \"#utility.yul\":769:801   */\n      slt\n        /* \"#utility.yul\":766:885   */\n      iszero\n      tag_105\n      jumpi\n        /* \"#utility.yul\":804:883   */\n      tag_106\n      tag_48\n      jump\t// in\n    tag_106:\n        /* \"#utility.yul\":766:885   */\n    tag_105:\n        /* \"#utility.yul\":924:925   */\n      0x00\n        /* \"#utility.yul\":949:1002   */\n      tag_107\n        /* \"#utility.yul\":994:1001   */\n      dup5\n        /* \"#utility.yul\":985:991   */\n      dup3\n        /* \"#utility.yul\":974:983   */\n      dup6\n        /* \"#utility.yul\":970:992   */\n      add\n        /* \"#utility.yul\":949:1002   */\n      tag_52\n      jump\t// in\n    tag_107:\n        /* \"#utility.yul\":939:1002   */\n      swap2\n      pop\n        /* \"#utility.yul\":895:1012   */\n      pop\n        /* \"#utility.yul\":690:1019   */\n      swap3\n      swap2\n      pop\n      pop\n      jump\t// out\n        /* \"#utility.yul\":1025:1151   */\n    tag_53:\n        /* \"#utility.yul\":1062:1069   */\n      0x00\n        /* \"#utility.yul\":1102:1144   */\n      0xffffffffffffffffffffffffffffffffffffffff\n        /* \"#utility.yul\":1095:1100   */\n      dup3\n        /* \"#utility.yul\":1091:1145   */\n      and\n        /* \"#utility.yul\":1080:1145   */\n      swap1\n      pop\n        /* \"#utility.yul\":1025:1151   */\n      swap2\n      swap1\n      pop\n      jump\t// out\n        /* \"#utility.yul\":1157:1253   */\n    tag_54:\n        /* \"#utility.yul\":1194:1201   */\n      0x00\n        /* \"#utility.yul\":1223:1247   */\n      tag_110\n        /* \"#utility.yul\":1241:1246   */\n      dup3\n        /* \"#utility.yul\":1223:1247   */\n      tag_53\n      jump\t// in\n    tag_110:\n        /* \"#utility.yul\":1212:1247   */\n      swap1\n      pop\n        /* \"#utility.yul\":1157:1253   */\n      swap2\n      swap1\n      pop\n      jump\t// out\n        /* \"#utility.yul\":1259:1377   */\n    tag_55:\n        /* \"#utility.yul\":1346:1370   */\n      tag_112\n        /* \"#utility.yul\":1364:1369   */\n      dup2\n        /* \"#utility.yul\":1346:1370   */\n      tag_54\n      jump\t// in\n    tag_112:\n        /* \"#utility.yul\":1341:1344   */\n      dup3\n        /* \"#utility.yul\":1334:1371   */\n      mstore\n        /* \"#utility.yul\":1259:1377   */\n      pop\n      pop\n      jump\t// out\n        /* \"#utility.yul\":1383:1482   */\n    tag_56:\n        /* \"#utility.yul\":1435:1441   */\n      0x00\n        /* \"#utility.yul\":1469:1474   */\n      dup2\n        /* \"#utility.yul\":1463:1475   */\n      mload\n        /* \"#utility.yul\":1453:1475   */\n      swap1\n      pop\n        /* \"#utility.yul\":1383:1482   */\n      swap2\n      swap1\n      pop\n      jump\t// out\n        /* \"#utility.yul\":1488:1657   */\n    tag_57:\n        /* \"#utility.yul\":1572:1583   */\n      0x00\n        /* \"#utility.yul\":1606:1612   */\n      dup3\n        /* \"#utility.yul\":1601:1604   */\n      dup3\n        /* \"#utility.yul\":1594:1613   */\n      mstore\n        /* \"#utility.yul\":1646:1650   */\n      0x20\n        /* \"#utility.yul\":1641:1644   */\n      dup3\n        /* \"#utility.yul\":1637:1651   */\n      add\n        /* \"#utility.yul\":1622:1651   */\n      swap1\n      pop\n        /* \"#utility.yul\":1488:1657   */\n      swap3\n      swap2\n      pop\n      pop\n      jump\t// out\n        /* \"#utility.yul\":1663:1909   */\n    tag_58:\n        /* \"#utility.yul\":1744:1745   */\n      0x00\n        /* \"#utility.yul\":1754:1867   */\n    tag_116:\n        /* \"#utility.yul\":1768:1774   */\n      dup4\n        /* \"#utility.yul\":1765:1766   */\n      dup2\n        /* \"#utility.yul\":1762:1775   */\n      lt\n        /* \"#utility.yul\":1754:1867   */\n      iszero\n      tag_118\n      jumpi\n        /* \"#utility.yul\":1853:1854   */\n      dup1\n        /* \"#utility.yul\":1848:1851   */\n      dup3\n        /* \"#utility.yul\":1844:1855   */\n      add\n        /* \"#utility.yul\":1838:1856   */\n      mload\n        /* \"#utility.yul\":1834:1835   */\n      dup2\n        /* \"#utility.yul\":1829:1832   */\n      dup5\n        /* \"#utility.yul\":1825:1836   */\n      add\n        /* \"#utility.yul\":1818:1857   */\n      mstore\n        /* \"#utility.yul\":1790:1792   */\n      0x20\n        /* \"#utility.yul\":1787:1788   */\n      dup2\n        /* \"#utility.yul\":1783:1793   */\n      add\n        /* \"#utility.yul\":1778:1793   */\n      swap1\n      pop\n        /* \"#utility.yul\":1754:1867   */\n      jump(tag_116)\n    tag_118:\n        /* \"#utility.yul\":1901:1902   */\n      0x00\n        /* \"#utility.yul\":1892:1898   */\n      dup5\n        /* \"#utility.yul\":1887:1890   */\n      dup5\n        /* \"#utility.yul\":1883:1899   */\n      add\n        /* \"#utility.yul\":1876:1903   */\n      mstore\n        /* \"#utility.yul\":1725:1909   */\n      pop\n        /* \"#utility.yul\":1663:1909   */\n      pop\n      pop\n      pop\n      jump\t// out\n        /* \"#utility.yul\":1915:2017   */\n    tag_59:\n        /* \"#utility.yul\":1956:1962   */\n      0x00\n        /* \"#utility.yul\":2007:2009   */\n      0x1f\n        /* \"#utility.yul\":2003:2010   */\n      not\n        /* \"#utility.yul\":1998:2000   */\n      0x1f\n        /* \"#utility.yul\":1991:1996   */\n      dup4\n        /* \"#utility.yul\":1987:2001   */\n      add\n        /* \"#utility.yul\":1983:2011   */\n      and\n        /* \"#utility.yul\":1973:2011   */\n      swap1\n      pop\n        /* \"#utility.yul\":1915:2017   */\n      swap2\n      swap1\n      pop\n      jump\t// out\n        /* \"#utility.yul\":2023:2400   */\n    tag_60:\n        /* \"#utility.yul\":2111:2114   */\n      0x00\n        /* \"#utility.yul\":2139:2178   */\n      tag_121\n        /* \"#utility.yul\":2172:2177   */\n      dup3\n        /* \"#utility.yul\":2139:2178   */\n      tag_56\n      jump\t// in\n    tag_121:\n        /* \"#utility.yul\":2194:2265   */\n      tag_122\n        /* \"#utility.yul\":2258:2264   */\n      dup2\n        /* \"#utility.yul\":2253:2256   */\n      dup6\n        /* \"#utility.yul\":2194:2265   */\n      tag_57\n      jump\t// in\n    tag_122:\n        /* \"#utility.yul\":2187:2265   */\n      swap4\n      pop\n        /* \"#utility.yul\":2274:2339   */\n      tag_123\n        /* \"#utility.yul\":2332:2338   */\n      dup2\n        /* \"#utility.yul\":2327:2330   */\n      dup6\n        /* \"#utility.yul\":2320:2324   */\n      0x20\n        /* \"#utility.yul\":2313:2318   */\n      dup7\n        /* \"#utility.yul\":2309:2325   */\n      add\n        /* \"#utility.yul\":2274:2339   */\n      tag_58\n      jump\t// in\n    tag_123:\n        /* \"#utility.yul\":2364:2393   */\n      tag_124\n        /* \"#utility.yul\":2386:2392   */\n      dup2\n        /* \"#utility.yul\":2364:2393   */\n      tag_59\n      jump\t// in\n    tag_124:\n        /* \"#utility.yul\":2359:2362   */\n      dup5\n        /* \"#utility.yul\":2355:2394   */\n      add\n        /* \"#utility.yul\":2348:2394   */\n      swap2\n      pop\n        /* \"#utility.yul\":2115:2400   */\n      pop\n        /* \"#utility.yul\":2023:2400   */\n      swap3\n      swap2\n      pop\n      pop\n      jump\t// out\n        /* \"#utility.yul\":2406:2524   */\n    tag_61:\n        /* \"#utility.yul\":2493:2517   */\n      tag_126\n        /* \"#utility.yul\":2511:2516   */\n      dup2\n        /* \"#utility.yul\":2493:2517   */\n      tag_50\n      jump\t// in\n    tag_126:\n        /* \"#utility.yul\":2488:2491   */\n      dup3\n        /* \"#utility.yul\":2481:2518   */\n      mstore\n        /* \"#utility.yul\":2406:2524   */\n      pop\n      pop\n      jump\t// out\n        /* \"#utility.yul\":2530:3063   */\n    tag_12:\n        /* \"#utility.yul\":2699:2703   */\n      0x00\n        /* \"#utility.yul\":2737:2739   */\n      0x60\n        /* \"#utility.yul\":2726:2735   */\n      dup3\n        /* \"#utility.yul\":2722:2740   */\n      add\n        /* \"#utility.yul\":2714:2740   */\n      swap1\n      pop\n        /* \"#utility.yul\":2750:2821   */\n      tag_128\n        /* \"#utility.yul\":2818:2819   */\n      0x00\n        /* \"#utility.yul\":2807:2816   */\n      dup4\n        /* \"#utility.yul\":2803:2820   */\n      add\n        /* \"#utility.yul\":2794:2800   */\n      dup7\n        /* \"#utility.yul\":2750:2821   */\n      tag_55\n      jump\t// in\n    tag_128:\n        /* \"#utility.yul\":2868:2877   */\n      dup2\n        /* \"#utility.yul\":2862:2866   */\n      dup2\n        /* \"#utility.yul\":2858:2878   */\n      sub\n        /* \"#utility.yul\":2853:2855   */\n      0x20\n        /* \"#utility.yul\":2842:2851   */\n      dup4\n        /* \"#utility.yul\":2838:2856   */\n      add\n        /* \"#utility.yul\":2831:2879   */\n      mstore\n        /* \"#utility.yul\":2896:2974   */\n      tag_129\n        /* \"#utility.yul\":2969:2973   */\n      dup2\n        /* \"#utility.yul\":2960:2966   */\n      dup6\n        /* \"#utility.yul\":2896:2974   */\n      tag_60\n      jump\t// in\n    tag_129:\n        /* \"#utility.yul\":2888:2974   */\n      swap1\n      pop\n        /* \"#utility.yul\":2984:3056   */\n      tag_130\n        /* \"#utility.yul\":3052:3054   */\n      0x40\n        /* \"#utility.yul\":3041:3050   */\n      dup4\n        /* \"#utility.yul\":3037:3055   */\n      add\n        /* \"#utility.yul\":3028:3034   */\n      dup5\n        /* \"#utility.yul\":2984:3056   */\n      tag_61\n      jump\t// in\n    tag_130:\n        /* \"#utility.yul\":2530:3063   */\n      swap5\n      swap4\n      pop\n      pop\n      pop\n      pop\n      jump\t// out\n        /* \"#utility.yul\":3069:3202   */\n    tag_62:\n        /* \"#utility.yul\":3155:3161   */\n      0x00\n        /* \"#utility.yul\":3189:3194   */\n      dup2\n        /* \"#utility.yul\":3183:3195   */\n      mload\n        /* \"#utility.yul\":3173:3195   */\n      swap1\n      pop\n        /* \"#utility.yul\":3069:3202   */\n      swap2\n      swap1\n      pop\n      jump\t// out\n        /* \"#utility.yul\":3208:3411   */\n    tag_63:\n        /* \"#utility.yul\":3326:3337   */\n      0x00\n        /* \"#utility.yul\":3360:3366   */\n      dup3\n        /* \"#utility.yul\":3355:3358   */\n      dup3\n        /* \"#utility.yul\":3348:3367   */\n      mstore\n        /* \"#utility.yul\":3400:3404   */\n      0x20\n        /* \"#utility.yul\":3395:3398   */\n      dup3\n        /* \"#utility.yul\":3391:3405   */\n      add\n        /* \"#utility.yul\":3376:3405   */\n      swap1\n      pop\n        /* \"#utility.yul\":3208:3411   */\n      swap3\n      swap2\n      pop\n      pop\n      jump\t// out\n        /* \"#utility.yul\":3417:3568   */\n    tag_64:\n        /* \"#utility.yul\":3503:3507   */\n      0x00\n        /* \"#utility.yul\":3526:3529   */\n      dup2\n        /* \"#utility.yul\":3518:3529   */\n      swap1\n      pop\n        /* \"#utility.yul\":3556:3560   */\n      0x20\n        /* \"#utility.yul\":3551:3554   */\n      dup3\n        /* \"#utility.yul\":3547:3561   */\n      add\n        /* \"#utility.yul\":3539:3561   */\n      swap1\n      pop\n        /* \"#utility.yul\":3417:3568   */\n      swap2\n      swap1\n      pop\n      jump\t// out\n        /* \"#utility.yul\":3574:3682   */\n    tag_65:\n        /* \"#utility.yul\":3651:3675   */\n      tag_135\n        /* \"#utility.yul\":3669:3674   */\n      dup2\n        /* \"#utility.yul\":3651:3675   */\n      tag_54\n      jump\t// in\n    tag_135:\n        /* \"#utility.yul\":3646:3649   */\n      dup3\n        /* \"#utility.yul\":3639:3676   */\n      mstore\n        /* \"#utility.yul\":3574:3682   */\n      pop\n      pop\n      jump\t// out\n        /* \"#utility.yul\":3688:3847   */\n    tag_66:\n        /* \"#utility.yul\":3762:3773   */\n      0x00\n        /* \"#utility.yul\":3796:3802   */\n      dup3\n        /* \"#utility.yul\":3791:3794   */\n      dup3\n        /* \"#utility.yul\":3784:3803   */\n      mstore\n        /* \"#utility.yul\":3836:3840   */\n      0x20\n        /* \"#utility.yul\":3831:3834   */\n      dup3\n        /* \"#utility.yul\":3827:3841   */\n      add\n        /* \"#utility.yul\":3812:3841   */\n      swap1\n      pop\n        /* \"#utility.yul\":3688:3847   */\n      swap3\n      swap2\n      pop\n      pop\n      jump\t// out\n        /* \"#utility.yul\":3853:4210   */\n    tag_67:\n        /* \"#utility.yul\":3931:3934   */\n      0x00\n        /* \"#utility.yul\":3959:3998   */\n      tag_138\n        /* \"#utility.yul\":3992:3997   */\n      dup3\n        /* \"#utility.yul\":3959:3998   */\n      tag_56\n      jump\t// in\n    tag_138:\n        /* \"#utility.yul\":4014:4075   */\n      tag_139\n        /* \"#utility.yul\":4068:4074   */\n      dup2\n        /* \"#utility.yul\":4063:4066   */\n      dup6\n        /* \"#utility.yul\":4014:4075   */\n      tag_66\n      jump\t// in\n    tag_139:\n        /* \"#utility.yul\":4007:4075   */\n      swap4\n      pop\n        /* \"#utility.yul\":4084:4149   */\n      tag_140\n        /* \"#utility.yul\":4142:4148   */\n      dup2\n        /* \"#utility.yul\":4137:4140   */\n      dup6\n        /* \"#utility.yul\":4130:4134   */\n      0x20\n        /* \"#utility.yul\":4123:4128   */\n      dup7\n        /* \"#utility.yul\":4119:4135   */\n      add\n        /* \"#utility.yul\":4084:4149   */\n      tag_58\n      jump\t// in\n    tag_140:\n        /* \"#utility.yul\":4174:4203   */\n      tag_141\n        /* \"#utility.yul\":4196:4202   */\n      dup2\n        /* \"#utility.yul\":4174:4203   */\n      tag_59\n      jump\t// in\n    tag_141:\n        /* \"#utility.yul\":4169:4172   */\n      dup5\n        /* \"#utility.yul\":4165:4204   */\n      add\n        /* \"#utility.yul\":4158:4204   */\n      swap2\n      pop\n        /* \"#utility.yul\":3935:4210   */\n      pop\n        /* \"#utility.yul\":3853:4210   */\n      swap3\n      swap2\n      pop\n      pop\n      jump\t// out\n        /* \"#utility.yul\":4216:4324   */\n    tag_68:\n        /* \"#utility.yul\":4293:4317   */\n      tag_143\n        /* \"#utility.yul\":4311:4316   */\n      dup2\n        /* \"#utility.yul\":4293:4317   */\n      tag_50\n      jump\t// in\n    tag_143:\n        /* \"#utility.yul\":4288:4291   */\n      dup3\n        /* \"#utility.yul\":4281:4318   */\n      mstore\n        /* \"#utility.yul\":4216:4324   */\n      pop\n      pop\n      jump\t// out\n        /* \"#utility.yul\":4386:5154   */\n    tag_69:\n        /* \"#utility.yul\":4483:4486   */\n      0x00\n        /* \"#utility.yul\":4519:4523   */\n      0x60\n        /* \"#utility.yul\":4514:4517   */\n      dup4\n        /* \"#utility.yul\":4510:4524   */\n      add\n        /* \"#utility.yul\":4608:4612   */\n      0x00\n        /* \"#utility.yul\":4601:4606   */\n      dup4\n        /* \"#utility.yul\":4597:4613   */\n      add\n        /* \"#utility.yul\":4591:4614   */\n      mload\n        /* \"#utility.yul\":4627:4690   */\n      tag_145\n        /* \"#utility.yul\":4684:4688   */\n      0x00\n        /* \"#utility.yul\":4679:4682   */\n      dup7\n        /* \"#utility.yul\":4675:4689   */\n      add\n        /* \"#utility.yul\":4661:4673   */\n      dup3\n        /* \"#utility.yul\":4627:4690   */\n      tag_65\n      jump\t// in\n    tag_145:\n        /* \"#utility.yul\":4534:4700   */\n      pop\n        /* \"#utility.yul\":4785:4789   */\n      0x20\n        /* \"#utility.yul\":4778:4783   */\n      dup4\n        /* \"#utility.yul\":4774:4790   */\n      add\n        /* \"#utility.yul\":4768:4791   */\n      mload\n        /* \"#utility.yul\":4838:4841   */\n      dup5\n        /* \"#utility.yul\":4832:4836   */\n      dup3\n        /* \"#utility.yul\":4828:4842   */\n      sub\n        /* \"#utility.yul\":4821:4825   */\n      0x20\n        /* \"#utility.yul\":4816:4819   */\n      dup7\n        /* \"#utility.yul\":4812:4826   */\n      add\n        /* \"#utility.yul\":4805:4843   */\n      mstore\n        /* \"#utility.yul\":4864:4937   */\n      tag_146\n        /* \"#utility.yul\":4932:4936   */\n      dup3\n        /* \"#utility.yul\":4918:4930   */\n      dup3\n        /* \"#utility.yul\":4864:4937   */\n      tag_67\n      jump\t// in\n    tag_146:\n        /* \"#utility.yul\":4856:4937   */\n      swap2\n      pop\n        /* \"#utility.yul\":4710:4948   */\n      pop\n        /* \"#utility.yul\":5035:5039   */\n      0x40\n        /* \"#utility.yul\":5028:5033   */\n      dup4\n        /* \"#utility.yul\":5024:5040   */\n      add\n        /* \"#utility.yul\":5018:5041   */\n      mload\n        /* \"#utility.yul\":5054:5117   */\n      tag_147\n        /* \"#utility.yul\":5111:5115   */\n      0x40\n        /* \"#utility.yul\":5106:5109   */\n      dup7\n        /* \"#utility.yul\":5102:5116   */\n      add\n        /* \"#utility.yul\":5088:5100   */\n      dup3\n        /* \"#utility.yul\":5054:5117   */\n      tag_68\n      jump\t// in\n    tag_147:\n        /* \"#utility.yul\":4958:5127   */\n      pop\n        /* \"#utility.yul\":5144:5148   */\n      dup1\n        /* \"#utility.yul\":5137:5148   */\n      swap2\n      pop\n        /* \"#utility.yul\":4488:5154   */\n      pop\n        /* \"#utility.yul\":4386:5154   */\n      swap3\n      swap2\n      pop\n      pop\n      jump\t// out\n        /* \"#utility.yul\":5160:5392   */\n    tag_70:\n        /* \"#utility.yul\":5267:5277   */\n      0x00\n        /* \"#utility.yul\":5302:5386   */\n      tag_149\n        /* \"#utility.yul\":5382:5385   */\n      dup4\n        /* \"#utility.yul\":5374:5380   */\n      dup4\n        /* \"#utility.yul\":5302:5386   */\n      tag_69\n      jump\t// in\n    tag_149:\n        /* \"#utility.yul\":5288:5386   */\n      swap1\n      pop\n        /* \"#utility.yul\":5160:5392   */\n      swap3\n      swap2\n      pop\n      pop\n      jump\t// out\n        /* \"#utility.yul\":5398:5530   */\n    tag_71:\n        /* \"#utility.yul\":5487:5491   */\n      0x00\n        /* \"#utility.yul\":5519:5523   */\n      0x20\n        /* \"#utility.yul\":5514:5517   */\n      dup3\n        /* \"#utility.yul\":5510:5524   */\n      add\n        /* \"#utility.yul\":5502:5524   */\n      swap1\n      pop\n        /* \"#utility.yul\":5398:5530   */\n      swap2\n      swap1\n      pop\n      jump\t// out\n        /* \"#utility.yul\":5596:6659   */\n    tag_72:\n        /* \"#utility.yul\":5753:5756   */\n      0x00\n        /* \"#utility.yul\":5782:5855   */\n      tag_152\n        /* \"#utility.yul\":5849:5854   */\n      dup3\n        /* \"#utility.yul\":5782:5855   */\n      tag_62\n      jump\t// in\n    tag_152:\n        /* \"#utility.yul\":5871:5976   */\n      tag_153\n        /* \"#utility.yul\":5969:5975   */\n      dup2\n        /* \"#utility.yul\":5964:5967   */\n      dup6\n        /* \"#utility.yul\":5871:5976   */\n      tag_63\n      jump\t// in\n    tag_153:\n        /* \"#utility.yul\":5864:5976   */\n      swap4\n      pop\n        /* \"#utility.yul\":6002:6005   */\n      dup4\n        /* \"#utility.yul\":6047:6051   */\n      0x20\n        /* \"#utility.yul\":6039:6045   */\n      dup3\n        /* \"#utility.yul\":6035:6052   */\n      mul\n        /* \"#utility.yul\":6030:6033   */\n      dup6\n        /* \"#utility.yul\":6026:6053   */\n      add\n        /* \"#utility.yul\":6077:6152   */\n      tag_154\n        /* \"#utility.yul\":6146:6151   */\n      dup6\n        /* \"#utility.yul\":6077:6152   */\n      tag_64\n      jump\t// in\n    tag_154:\n        /* \"#utility.yul\":6175:6182   */\n      dup1\n        /* \"#utility.yul\":6206:6207   */\n      0x00\n        /* \"#utility.yul\":6191:6614   */\n    tag_155:\n        /* \"#utility.yul\":6216:6222   */\n      dup6\n        /* \"#utility.yul\":6213:6214   */\n      dup2\n        /* \"#utility.yul\":6210:6223   */\n      lt\n        /* \"#utility.yul\":6191:6614   */\n      iszero\n      tag_157\n      jumpi\n        /* \"#utility.yul\":6287:6296   */\n      dup5\n        /* \"#utility.yul\":6281:6285   */\n      dup5\n        /* \"#utility.yul\":6277:6297   */\n      sub\n        /* \"#utility.yul\":6272:6275   */\n      dup10\n        /* \"#utility.yul\":6265:6298   */\n      mstore\n        /* \"#utility.yul\":6338:6344   */\n      dup2\n        /* \"#utility.yul\":6332:6345   */\n      mload\n        /* \"#utility.yul\":6366:6468   */\n      tag_158\n        /* \"#utility.yul\":6463:6467   */\n      dup6\n        /* \"#utility.yul\":6448:6461   */\n      dup3\n        /* \"#utility.yul\":6366:6468   */\n      tag_70\n      jump\t// in\n    tag_158:\n        /* \"#utility.yul\":6358:6468   */\n      swap5\n      pop\n        /* \"#utility.yul\":6491:6570   */\n      tag_159\n        /* \"#utility.yul\":6563:6569   */\n      dup4\n        /* \"#utility.yul\":6491:6570   */\n      tag_71\n      jump\t// in\n    tag_159:\n        /* \"#utility.yul\":6481:6570   */\n      swap3\n      pop\n        /* \"#utility.yul\":6599:6603   */\n      0x20\n        /* \"#utility.yul\":6594:6597   */\n      dup11\n        /* \"#utility.yul\":6590:6604   */\n      add\n        /* \"#utility.yul\":6583:6604   */\n      swap10\n      pop\n        /* \"#utility.yul\":6251:6614   */\n      pop\n        /* \"#utility.yul\":6238:6239   */\n      0x01\n        /* \"#utility.yul\":6235:6236   */\n      dup2\n        /* \"#utility.yul\":6231:6240   */\n      add\n        /* \"#utility.yul\":6226:6240   */\n      swap1\n      pop\n        /* \"#utility.yul\":6191:6614   */\n      jump(tag_155)\n    tag_157:\n        /* \"#utility.yul\":6195:6209   */\n      pop\n        /* \"#utility.yul\":6630:6634   */\n      dup3\n        /* \"#utility.yul\":6623:6634   */\n      swap8\n      pop\n        /* \"#utility.yul\":6650:6653   */\n      dup8\n        /* \"#utility.yul\":6643:6653   */\n      swap6\n      pop\n        /* \"#utility.yul\":5758:6659   */\n      pop\n      pop\n      pop\n      pop\n      pop\n        /* \"#utility.yul\":5596:6659   */\n      swap3\n      swap2\n      pop\n      pop\n      jump\t// out\n        /* \"#utility.yul\":6665:7114   */\n    tag_16:\n        /* \"#utility.yul\":6846:6850   */\n      0x00\n        /* \"#utility.yul\":6884:6886   */\n      0x20\n        /* \"#utility.yul\":6873:6882   */\n      dup3\n        /* \"#utility.yul\":6869:6887   */\n      add\n        /* \"#utility.yul\":6861:6887   */\n      swap1\n      pop\n        /* \"#utility.yul\":6933:6942   */\n      dup2\n        /* \"#utility.yul\":6927:6931   */\n      dup2\n        /* \"#utility.yul\":6923:6943   */\n      sub\n        /* \"#utility.yul\":6919:6920   */\n      0x00\n        /* \"#utility.yul\":6908:6917   */\n      dup4\n        /* \"#utility.yul\":6904:6921   */\n      add\n        /* \"#utility.yul\":6897:6944   */\n      mstore\n        /* \"#utility.yul\":6961:7107   */\n      tag_161\n        /* \"#utility.yul\":7102:7106   */\n      dup2\n        /* \"#utility.yul\":7093:7099   */\n      dup5\n        /* \"#utility.yul\":6961:7107   */\n      tag_72\n      jump\t// in\n    tag_161:\n        /* \"#utility.yul\":6953:7107   */\n      swap1\n      pop\n        /* \"#utility.yul\":6665:7114   */\n      swap3\n      swap2\n      pop\n      pop\n      jump\t// out\n        /* \"#utility.yul\":7120:7342   */\n    tag_20:\n        /* \"#utility.yul\":7213:7217   */\n      0x00\n        /* \"#utility.yul\":7251:7253   */\n      0x20\n        /* \"#utility.yul\":7240:7249   */\n      dup3\n        /* \"#utility.yul\":7236:7254   */\n      add\n        /* \"#utility.yul\":7228:7254   */\n      swap1\n      pop\n        /* \"#utility.yul\":7264:7335   */\n      tag_163\n        /* \"#utility.yul\":7332:7333   */\n      0x00\n        /* \"#utility.yul\":7321:7330   */\n      dup4\n        /* \"#utility.yul\":7317:7334   */\n      add\n        /* \"#utility.yul\":7308:7314   */\n      dup5\n        /* \"#utility.yul\":7264:7335   */\n      tag_61\n      jump\t// in\n    tag_163:\n        /* \"#utility.yul\":7120:7342   */\n      swap3\n      swap2\n      pop\n      pop\n      jump\t// out\n        /* \"#utility.yul\":7348:7465   */\n    tag_73:\n        /* \"#utility.yul\":7457:7458   */\n      0x00\n        /* \"#utility.yul\":7454:7455   */\n      dup1\n        /* \"#utility.yul\":7447:7459   */\n      revert\n        /* \"#utility.yul\":7471:7588   */\n    tag_74:\n        /* \"#utility.yul\":7580:7581   */\n      0x00\n        /* \"#utility.yul\":7577:7578   */\n      dup1\n        /* \"#utility.yul\":7570:7582   */\n      revert\n        /* \"#utility.yul\":7594:7711   */\n    tag_75:\n        /* \"#utility.yul\":7703:7704   */\n      0x00\n        /* \"#utility.yul\":7700:7701   */\n      dup1\n        /* \"#utility.yul\":7693:7705   */\n      revert\n        /* \"#utility.yul\":7731:8284   */\n    tag_76:\n        /* \"#utility.yul\":7789:7797   */\n      0x00\n        /* \"#utility.yul\":7799:7805   */\n      dup1\n        /* \"#utility.yul\":7849:7852   */\n      dup4\n        /* \"#utility.yul\":7842:7846   */\n      0x1f\n        /* \"#utility.yul\":7834:7840   */\n      dup5\n        /* \"#utility.yul\":7830:7847   */\n      add\n        /* \"#utility.yul\":7826:7853   */\n      slt\n        /* \"#utility.yul\":7816:7938   */\n      tag_168\n      jumpi\n        /* \"#utility.yul\":7857:7936   */\n      tag_169\n      tag_73\n      jump\t// in\n    tag_169:\n        /* \"#utility.yul\":7816:7938   */\n    tag_168:\n        /* \"#utility.yul\":7970:7976   */\n      dup3\n        /* \"#utility.yul\":7957:7977   */\n      calldataload\n        /* \"#utility.yul\":7947:7977   */\n      swap1\n      pop\n        /* \"#utility.yul\":8000:8018   */\n      0xffffffffffffffff\n        /* \"#utility.yul\":7992:7998   */\n      dup2\n        /* \"#utility.yul\":7989:8019   */\n      gt\n        /* \"#utility.yul\":7986:8103   */\n      iszero\n      tag_170\n      jumpi\n        /* \"#utility.yul\":8022:8101   */\n      tag_171\n      tag_74\n      jump\t// in\n    tag_171:\n        /* \"#utility.yul\":7986:8103   */\n    tag_170:\n        /* \"#utility.yul\":8136:8140   */\n      0x20\n        /* \"#utility.yul\":8128:8134   */\n      dup4\n        /* \"#utility.yul\":8124:8141   */\n      add\n        /* \"#utility.yul\":8112:8141   */\n      swap2\n      pop\n        /* \"#utility.yul\":8190:8193   */\n      dup4\n        /* \"#utility.yul\":8182:8186   */\n      0x01\n        /* \"#utility.yul\":8174:8180   */\n      dup3\n        /* \"#utility.yul\":8170:8187   */\n      mul\n        /* \"#utility.yul\":8160:8168   */\n      dup4\n        /* \"#utility.yul\":8156:8188   */\n      add\n        /* \"#utility.yul\":8153:8194   */\n      gt\n        /* \"#utility.yul\":8150:8278   */\n      iszero\n      tag_172\n      jumpi\n        /* \"#utility.yul\":8197:8276   */\n      tag_173\n      tag_75\n      jump\t// in\n    tag_173:\n        /* \"#utility.yul\":8150:8278   */\n    tag_172:\n        /* \"#utility.yul\":7731:8284   */\n      swap3\n      pop\n      swap3\n      swap1\n      pop\n      jump\t// out\n        /* \"#utility.yul\":8290:8819   */\n    tag_23:\n        /* \"#utility.yul\":8361:8367   */\n      0x00\n        /* \"#utility.yul\":8369:8375   */\n      dup1\n        /* \"#utility.yul\":8418:8420   */\n      0x20\n        /* \"#utility.yul\":8406:8415   */\n      dup4\n        /* \"#utility.yul\":8397:8404   */\n      dup6\n        /* \"#utility.yul\":8393:8416   */\n      sub\n        /* \"#utility.yul\":8389:8421   */\n      slt\n        /* \"#utility.yul\":8386:8505   */\n      iszero\n      tag_175\n      jumpi\n        /* \"#utility.yul\":8424:8503   */\n      tag_176\n      tag_48\n      jump\t// in\n    tag_176:\n        /* \"#utility.yul\":8386:8505   */\n    tag_175:\n        /* \"#utility.yul\":8572:8573   */\n      0x00\n        /* \"#utility.yul\":8561:8570   */\n      dup4\n        /* \"#utility.yul\":8557:8574   */\n      add\n        /* \"#utility.yul\":8544:8575   */\n      calldataload\n        /* \"#utility.yul\":8602:8620   */\n      0xffffffffffffffff\n        /* \"#utility.yul\":8594:8600   */\n      dup2\n        /* \"#utility.yul\":8591:8621   */\n      gt\n        /* \"#utility.yul\":8588:8705   */\n      iszero\n      tag_177\n      jumpi\n        /* \"#utility.yul\":8624:8703   */\n      tag_178\n      tag_49\n      jump\t// in\n    tag_178:\n        /* \"#utility.yul\":8588:8705   */\n    tag_177:\n        /* \"#utility.yul\":8737:8802   */\n      tag_179\n        /* \"#utility.yul\":8794:8801   */\n      dup6\n        /* \"#utility.yul\":8785:8791   */\n      dup3\n        /* \"#utility.yul\":8774:8783   */\n      dup7\n        /* \"#utility.yul\":8770:8792   */\n      add\n        /* \"#utility.yul\":8737:8802   */\n      tag_76\n      jump\t// in\n    tag_179:\n        /* \"#utility.yul\":8719:8802   */\n      swap3\n      pop\n      swap3\n      pop\n        /* \"#utility.yul\":8515:8812   */\n      pop\n        /* \"#utility.yul\":8290:8819   */\n      swap3\n      pop\n      swap3\n      swap1\n      pop\n      jump\t// out\n        /* \"#utility.yul\":8825:9005   */\n    tag_77:\n        /* \"#utility.yul\":8873:8950   */\n      0x4e487b7100000000000000000000000000000000000000000000000000000000\n        /* \"#utility.yul\":8870:8871   */\n      0x00\n        /* \"#utility.yul\":8863:8951   */\n      mstore\n        /* \"#utility.yul\":8970:8974   */\n      0x22\n        /* \"#utility.yul\":8967:8968   */\n      0x04\n        /* \"#utility.yul\":8960:8975   */\n      mstore\n        /* \"#utility.yul\":8994:8998   */\n      0x24\n        /* \"#utility.yul\":8991:8992   */\n      0x00\n        /* \"#utility.yul\":8984:8999   */\n      revert\n        /* \"#utility.yul\":9011:9331   */\n    tag_28:\n        /* \"#utility.yul\":9055:9061   */\n      0x00\n        /* \"#utility.yul\":9092:9093   */\n      0x02\n        /* \"#utility.yul\":9086:9090   */\n      dup3\n        /* \"#utility.yul\":9082:9094   */\n      div\n        /* \"#utility.yul\":9072:9094   */\n      swap1\n      pop\n        /* \"#utility.yul\":9139:9140   */\n      0x01\n        /* \"#utility.yul\":9133:9137   */\n      dup3\n        /* \"#utility.yul\":9129:9141   */\n      and\n        /* \"#utility.yul\":9160:9178   */\n      dup1\n        /* \"#utility.yul\":9150:9231   */\n      tag_182\n      jumpi\n        /* \"#utility.yul\":9216:9220   */\n      0x7f\n        /* \"#utility.yul\":9208:9214   */\n      dup3\n        /* \"#utility.yul\":9204:9221   */\n      and\n        /* \"#utility.yul\":9194:9221   */\n      swap2\n      pop\n        /* \"#utility.yul\":9150:9231   */\n    tag_182:\n        /* \"#utility.yul\":9278:9280   */\n      0x20\n        /* \"#utility.yul\":9270:9276   */\n      dup3\n        /* \"#utility.yul\":9267:9281   */\n      lt\n        /* \"#utility.yul\":9247:9265   */\n      dup2\n        /* \"#utility.yul\":9244:9282   */\n      sub\n        /* \"#utility.yul\":9241:9325   */\n      tag_183\n      jumpi\n        /* \"#utility.yul\":9297:9315   */\n      tag_184\n      tag_77\n      jump\t// in\n    tag_184:\n        /* \"#utility.yul\":9241:9325   */\n    tag_183:\n        /* \"#utility.yul\":9062:9331   */\n      pop\n        /* \"#utility.yul\":9011:9331   */\n      swap2\n      swap1\n      pop\n      jump\t// out\n        /* \"#utility.yul\":9337:9517   */\n    tag_78:\n        /* \"#utility.yul\":9385:9462   */\n      0x4e487b7100000000000000000000000000000000000000000000000000000000\n        /* \"#utility.yul\":9382:9383   */\n      0x00\n        /* \"#utility.yul\":9375:9463   */\n      mstore\n        /* \"#utility.yul\":9482:9486   */\n      0x41\n        /* \"#utility.yul\":9479:9480   */\n      0x04\n        /* \"#utility.yul\":9472:9487   */\n      mstore\n        /* \"#utility.yul\":9506:9510   */\n      0x24\n        /* \"#utility.yul\":9503:9504   */\n      0x00\n        /* \"#utility.yul\":9496:9511   */\n      revert\n        /* \"#utility.yul\":9523:9664   */\n    tag_79:\n        /* \"#utility.yul\":9572:9576   */\n      0x00\n        /* \"#utility.yul\":9595:9598   */\n      dup2\n        /* \"#utility.yul\":9587:9598   */\n      swap1\n      pop\n        /* \"#utility.yul\":9618:9621   */\n      dup2\n        /* \"#utility.yul\":9615:9616   */\n      0x00\n        /* \"#utility.yul\":9608:9622   */\n      mstore\n        /* \"#utility.yul\":9652:9656   */\n      0x20\n        /* \"#utility.yul\":9649:9650   */\n      0x00\n        /* \"#utility.yul\":9639:9657   */\n      keccak256\n        /* \"#utility.yul\":9631:9657   */\n      swap1\n      pop\n        /* \"#utility.yul\":9523:9664   */\n      swap2\n      swap1\n      pop\n      jump\t// out\n        /* \"#utility.yul\":9670:9763   */\n    tag_80:\n        /* \"#utility.yul\":9707:9713   */\n      0x00\n        /* \"#utility.yul\":9754:9756   */\n      0x20\n        /* \"#utility.yul\":9749:9751   */\n      0x1f\n        /* \"#utility.yul\":9742:9747   */\n      dup4\n        /* \"#utility.yul\":9738:9752   */\n      add\n        /* \"#utility.yul\":9734:9757   */\n      div\n        /* \"#utility.yul\":9724:9757   */\n      swap1\n      pop\n        /* \"#utility.yul\":9670:9763   */\n      swap2\n      swap1\n      pop\n      jump\t// out\n        /* \"#utility.yul\":9769:9876   */\n    tag_81:\n        /* \"#utility.yul\":9813:9821   */\n      0x00\n        /* \"#utility.yul\":9863:9868   */\n      dup3\n        /* \"#utility.yul\":9857:9861   */\n      dup3\n        /* \"#utility.yul\":9853:9869   */\n      shl\n        /* \"#utility.yul\":9832:9869   */\n      swap1\n      pop\n        /* \"#utility.yul\":9769:9876   */\n      swap3\n      swap2\n      pop\n      pop\n      jump\t// out\n        /* \"#utility.yul\":9882:10275   */\n    tag_82:\n        /* \"#utility.yul\":9951:9957   */\n      0x00\n        /* \"#utility.yul\":10001:10002   */\n      0x08\n        /* \"#utility.yul\":9989:9999   */\n      dup4\n        /* \"#utility.yul\":9985:10003   */\n      mul\n        /* \"#utility.yul\":10024:10121   */\n      tag_190\n        /* \"#utility.yul\":10054:10120   */\n      0xffffffffffffffffffffffffffffffffffffffffffffffffffffffffffffffff\n        /* \"#utility.yul\":10043:10052   */\n      dup3\n        /* \"#utility.yul\":10024:10121   */\n      tag_81\n      jump\t// in\n    tag_190:\n        /* \"#utility.yul\":10142:10181   */\n      tag_191\n        /* \"#utility.yul\":10172:10180   */\n      dup7\n        /* \"#utility.yul\":10161:10170   */\n      dup4\n        /* \"#utility.yul\":10142:10181   */\n      tag_81\n      jump\t// in\n    tag_191:\n        /* \"#utility.yul\":10130:10181   */\n      swap6\n      pop\n        /* \"#utility.yul\":10214:10218   */\n      dup1\n        /* \"#utility.yul\":10210:10219   */\n      not\n        /* \"#utility.yul\":10203:10208   */\n      dup5\n        /* \"#utility.yul\":10199:10220   */\n      and\n        /* \"#utility.yul\":10190:10220   */\n      swap4\n      pop\n        /* \"#utility.yul\":10263:10267   */\n      dup1\n        /* \"#utility.yul\":10253:10261   */\n      dup7\n        /* \"#utility.yul\":10249:10268   */\n      and\n        /* \"#utility.yul\":10242:10247   */\n      dup5\n        /* \"#utility.yul\":10239:10269   */\n      or\n        /* \"#utility.yul\":10229:10269   */\n      swap3\n      pop\n        /* \"#utility.yul\":9958:10275   */\n      pop\n      pop\n        /* \"#utility.yul\":9882:10275   */\n      swap4\n      swap3\n      pop\n      pop\n      pop\n      jump\t// out\n        /* \"#utility.yul\":10281:10341   */\n    tag_83:\n        /* \"#utility.yul\":10309:10312   */\n      0x00\n        /* \"#utility.yul\":10330:10335   */\n      dup2\n        /* \"#utility.yul\":10323:10335   */\n      swap1\n      pop\n        /* \"#utility.yul\":10281:10341   */\n      swap2\n      swap1\n      pop\n      jump\t// out\n        /* \"#utility.yul\":10347:10489   */\n    tag_84:\n        /* \"#utility.yul\":10397:10406   */\n      0x00\n        /* \"#utility.yul\":10430:10483   */\n      tag_194\n        /* \"#utility.yul\":10448:10482   */\n      tag_195\n        /* \"#utility.yul\":10457:10481   */\n      tag_196\n        /* \"#utility.yul\":10475:10480   */\n      dup5\n        /* \"#utility.yul\":10457:10481   */\n      tag_50\n      jump\t// in\n    tag_196:\n        /* \"#utility.yul\":10448:10482   */\n      tag_83\n      jump\t// in\n    tag_195:\n        /* \"#utility.yul\":10430:10483   */\n      tag_50\n      jump\t// in\n    tag_194:\n        /* \"#utility.yul\":10417:10483   */\n      swap1\n      pop\n        /* \"#utility.yul\":10347:10489   */\n      swap2\n      swap1\n      pop\n      jump\t// out\n        /* \"#utility.yul\":10495:10570   */\n    tag_85:\n        /* \"#utility.yul\":10538:10541   */\n      0x00\n        /* \"#utility.yul\":10559:10564   */\n      dup2\n        /* \"#utility.yul\":10552:10564   */\n      swap1\n      pop\n        /* \"#utility.yul\":10495:10570   */\n      swap2\n      swap1\n      pop\n      jump\t// out\n        /* \"#utility.yul\":10576:10845   */\n    tag_86:\n        /* \"#utility.yul\":10686:10725   */\n      tag_199\n        /* \"#utility.yul\":10717:10724   */\n      dup4\n        /* \"#utility.yul\":10686:10725   */\n      tag_84\n      jump\t// in\n    tag_199:\n        /* \"#utility.yul\":10747:10838   */\n      tag_200\n        /* \"#utility.yul\":10796:10837   */\n      tag_201\n        /* \"#utility.yul\":10820:10836   */\n      dup3\n        /* \"#utility.yul\":10796:10837   */\n      tag_85\n      jump\t// in\n    tag_201:\n        /* \"#utility.yul\":10788:10794   */\n      dup5\n        /* \"#utility.yul\":10781:10785   */\n      dup5\n        /* \"#utility.yul\":10775:10786   */\n      sload\n        /* \"#utility.yul\":10747:10838   */\n      tag_82\n      jump\t// in\n    tag_200:\n        /* \"#utility.yul\":10741:10745   */\n      dup3\n        /* \"#utility.yul\":10734:10839   */\n      sstore\n        /* \"#utility.yul\":10652:10845   */\n      pop\n        /* \"#utility.yul\":10576:10845   */\n      pop\n      pop\n      pop\n      jump\t// out\n        /* \"#utility.yul\":10851:10924   */\n    tag_87:\n        /* \"#utility.yul\":10896:10899   */\n      0x00\n        /* \"#utility.yul\":10851:10924   */\n      swap1\n      jump\t// out\n        /* \"#utility.yul\":10930:11119   */\n    tag_88:\n        /* \"#utility.yul\":11007:11039   */\n      tag_204\n      tag_87\n      jump\t// in\n    tag_204:\n        /* \"#utility.yul\":11048:11113   */\n      tag_205\n        /* \"#utility.yul\":11106:11112   */\n      dup2\n        /* \"#utility.yul\":11098:11104   */\n      dup5\n        /* \"#utility.yul\":11092:11096   */\n      dup5\n        /* \"#utility.yul\":11048:11113   */\n      tag_86\n      jump\t// in\n    tag_205:\n        /* \"#utility.yul\":10983:11119   */\n      pop\n        /* \"#utility.yul\":10930:11119   */\n      pop\n      pop\n      jump\t// out\n        /* \"#utility.yul\":11125:11311   */\n    tag_89:\n        /* \"#utility.yul\":11185:11305   */\n    tag_207:\n        /* \"#utility.yul\":11202:11205   */\n      dup2\n        /* \"#utility.yul\":11195:11200   */\n      dup2\n        /* \"#utility.yul\":11192:11206   */\n      lt\n        /* \"#utility.yul\":11185:11305   */\n      iszero\n      tag_209\n      jumpi\n        /* \"#utility.yul\":11256:11295   */\n      tag_210\n        /* \"#utility.yul\":11293:11294   */\n      0x00\n        /* \"#utility.yul\":11286:11291   */\n      dup3\n        /* \"#utility.yul\":11256:11295   */\n      tag_88\n      jump\t// in\n    tag_210:\n        /* \"#utility.yul\":11229:11230   */\n      0x01\n        /* \"#utility.yul\":11222:11227   */\n      dup2\n        /* \"#utility.yul\":11218:11231   */\n      add\n        /* \"#utility.yul\":11209:11231   */\n      swap1\n      pop\n        /* \"#utility.yul\":11185:11305   */\n      jump(tag_207)\n    tag_209:\n        /* \"#utility.yul\":11125:11311   */\n      pop\n      pop\n      jump\t// out\n        /* \"#utility.yul\":11317:11860   */\n    tag_90:\n        /* \"#utility.yul\":11418:11420   */\n      0x1f\n        /* \"#utility.yul\":11413:11416   */\n      dup3\n        /* \"#utility.yul\":11410:11421   */\n      gt\n        /* \"#utility.yul\":11407:11853   */\n      iszero\n      tag_212\n      jumpi\n        /* \"#utility.yul\":11452:11490   */\n      tag_213\n        /* \"#utility.yul\":11484:11489   */\n      dup2\n        /* \"#utility.yul\":11452:11490   */\n      tag_79\n      jump\t// in\n    tag_213:\n        /* \"#utility.yul\":11536:11565   */\n      tag_214\n        /* \"#utility.yul\":11554:11564   */\n      dup5\n        /* \"#utility.yul\":11536:11565   */\n      tag_80\n      jump\t// in\n    tag_214:\n        /* \"#utility.yul\":11526:11534   */\n      dup2\n        /* \"#utility.yul\":11522:11566   */\n      add\n        /* \"#utility.yul\":11719:11721   */\n      0x20\n        /* \"#utility.yul\":11707:11717   */\n      dup6\n        /* \"#utility.yul\":11704:11722   */\n      lt\n        /* \"#utility.yul\":11701:11750   */\n      iszero\n      tag_215\n      jumpi\n        /* \"#utility.yul\":11740:11748   */\n      dup2\n        /* \"#utility.yul\":11725:11748   */\n      swap1\n      pop\n        /* \"#utility.yul\":11701:11750   */\n    tag_215:\n        /* \"#utility.yul\":11763:11843   */\n      tag_216\n        /* \"#utility.yul\":11819:11841   */\n      tag_217\n        /* \"#utility.yul\":11837:11840   */\n      dup6\n        /* \"#utility.yul\":11819:11841   */\n      tag_80\n      jump\t// in\n    tag_217:\n        /* \"#utility.yul\":11809:11817   */\n      dup4\n        /* \"#utility.yul\":11805:11842   */\n      add\n        /* \"#utility.yul\":11792:11803   */\n      dup3\n        /* \"#utility.yul\":11763:11843   */\n      tag_89\n      jump\t// in\n    tag_216:\n        /* \"#utility.yul\":11422:11853   */\n      pop\n      pop\n        /* \"#utility.yul\":11407:11853   */\n    tag_212:\n        /* \"#utility.yul\":11317:11860   */\n      pop\n      pop\n      pop\n      jump\t// out\n        /* \"#utility.yul\":11866:11983   */\n    tag_91:\n        /* \"#utility.yul\":11920:11928   */\n      0x00\n        /* \"#utility.yul\":11970:11975   */\n      dup3\n        /* \"#utility.yul\":11964:11968   */\n      dup3\n        /* \"#utility.yul\":11960:11976   */\n      shr\n        /* \"#utility.yul\":11939:11976   */\n      swap1\n      pop\n        /* \"#utility.yul\":11866:11983   */\n      swap3\n      swap2\n      pop\n      pop\n      jump\t// out\n        /* \"#utility.yul\":11989:12158   */\n    tag_92:\n        /* \"#utility.yul\":12033:12039   */\n      0x00\n        /* \"#utility.yul\":12066:12117   */\n      tag_220\n        /* \"#utility.yul\":12114:12115   */\n      0x00\n        /* \"#utility.yul\":12110:12116   */\n      not\n        /* \"#utility.yul\":12102:12107   */\n      dup5\n        /* \"#utility.yul\":12099:12100   */\n      0x08\n        /* \"#utility.yul\":12095:12108   */\n      mul\n        /* \"#utility.yul\":12066:12117   */\n      tag_91\n      jump\t// in\n    tag_220:\n        /* \"#utility.yul\":12062:12118   */\n      not\n        /* \"#utility.yul\":12147:12151   */\n      dup1\n        /* \"#utility.yul\":12141:12145   */\n      dup4\n        /* \"#utility.yul\":12137:12152   */\n      and\n        /* \"#utility.yul\":12127:12152   */\n      swap2\n      pop\n        /* \"#utility.yul\":12040:12158   */\n      pop\n        /* \"#utility.yul\":11989:12158   */\n      swap3\n      swap2\n      pop\n      pop\n      jump\t// out\n        /* \"#utility.yul\":12163:12458   */\n    tag_93:\n        /* \"#utility.yul\":12239:12243   */\n      0x00\n        /* \"#utility.yul\":12385:12414   */\n      tag_222\n        /* \"#utility.yul\":12410:12413   */\n      dup4\n        /* \"#utility.yul\":12404:12408   */\n      dup4\n        /* \"#utility.yul\":12385:12414   */\n      tag_92\n      jump\t// in\n    tag_222:\n        /* \"#utility.yul\":12377:12414   */\n      swap2\n      pop\n        /* \"#utility.yul\":12447:12450   */\n      dup3\n        /* \"#utility.yul\":12444:12445   */\n      0x02\n        /* \"#utility.yul\":12440:12451   */\n      mul\n        /* \"#utility.yul\":12434:12438   */\n      dup3\n        /* \"#utility.yul\":12431:12452   */\n      or\n        /* \"#utility.yul\":12423:12452   */\n      swap1\n      pop\n        /* \"#utility.yul\":12163:12458   */\n      swap3\n      swap2\n      pop\n      pop\n      jump\t// out\n        /* \"#utility.yul\":12463:13858   */\n    tag_46:\n        /* \"#utility.yul\":12580:12617   */\n      tag_224\n        /* \"#utility.yul\":12613:12616   */\n      dup3\n        /* \"#utility.yul\":12580:12617   */\n      tag_56\n      jump\t// in\n    tag_224:\n        /* \"#utility.yul\":12682:12700   */\n      0xffffffffffffffff\n        /* \"#utility.yul\":12674:12680   */\n      dup2\n        /* \"#utility.yul\":12671:12701   */\n      gt\n        /* \"#utility.yul\":12668:12724   */\n      iszero\n      tag_225\n      jumpi\n        /* \"#utility.yul\":12704:12722   */\n      tag_226\n      tag_78\n      jump\t// in\n    tag_226:\n        /* \"#utility.yul\":12668:12724   */\n    tag_225:\n        /* \"#utility.yul\":12748:12786   */\n      tag_227\n        /* \"#utility.yul\":12780:12784   */\n      dup3\n        /* \"#utility.yul\":12774:12785   */\n      sload\n        /* \"#utility.yul\":12748:12786   */\n      tag_28\n      jump\t// in\n    tag_227:\n        /* \"#utility.yul\":12833:12900   */\n      tag_228\n        /* \"#utility.yul\":12893:12899   */\n      dup3\n        /* \"#utility.yul\":12885:12891   */\n      dup3\n        /* \"#utility.yul\":12879:12883   */\n      dup6\n        /* \"#utility.yul\":12833:12900   */\n      tag_90\n      jump\t// in\n    tag_228:\n        /* \"#utility.yul\":12927:12928   */\n      0x00\n        /* \"#utility.yul\":12951:12955   */\n      0x20\n        /* \"#utility.yul\":12938:12955   */\n      swap1\n      pop\n        /* \"#utility.yul\":12983:12985   */\n      0x1f\n        /* \"#utility.yul\":12975:12981   */\n      dup4\n        /* \"#utility.yul\":12972:12986   */\n      gt\n        /* \"#utility.yul\":13000:13001   */\n      0x01\n        /* \"#utility.yul\":12995:13613   */\n      dup2\n      eq\n      tag_230\n      jumpi\n        /* \"#utility.yul\":13657:13658   */\n      0x00\n        /* \"#utility.yul\":13674:13680   */\n      dup5\n        /* \"#utility.yul\":13671:13748   */\n      iszero\n      tag_231\n      jumpi\n        /* \"#utility.yul\":13723:13732   */\n      dup3\n        /* \"#utility.yul\":13718:13721   */\n      dup8\n        /* \"#utility.yul\":13714:13733   */\n      add\n        /* \"#utility.yul\":13708:13734   */\n      mload\n        /* \"#utility.yul\":13699:13734   */\n      swap1\n      pop\n        /* \"#utility.yul\":13671:13748   */\n    tag_231:\n        /* \"#utility.yul\":13774:13841   */\n      tag_232\n        /* \"#utility.yul\":13834:13840   */\n      dup6\n        /* \"#utility.yul\":13827:13832   */\n      dup3\n        /* \"#utility.yul\":13774:13841   */\n      tag_93\n      jump\t// in\n    tag_232:\n        /* \"#utility.yul\":13768:13772   */\n      dup7\n        /* \"#utility.yul\":13761:13842   */\n      sstore\n        /* \"#utility.yul\":13630:13852   */\n      pop\n        /* \"#utility.yul\":12965:13852   */\n      jump(tag_229)\n        /* \"#utility.yul\":12995:13613   */\n    tag_230:\n        /* \"#utility.yul\":13047:13051   */\n      0x1f\n        /* \"#utility.yul\":13043:13052   */\n      not\n        /* \"#utility.yul\":13035:13041   */\n      dup5\n        /* \"#utility.yul\":13031:13053   */\n      and\n        /* \"#utility.yul\":13081:13118   */\n      tag_233\n        /* \"#utility.yul\":13113:13117   */\n      dup7\n        /* \"#utility.yul\":13081:13118   */\n      tag_79\n      jump\t// in\n    tag_233:\n        /* \"#utility.yul\":13140:13141   */\n      0x00\n        /* \"#utility.yul\":13154:13362   */\n    tag_234:\n        /* \"#utility.yul\":13168:13175   */\n      dup3\n        /* \"#utility.yul\":13165:13166   */\n      dup2\n        /* \"#utility.yul\":13162:13176   */\n      lt\n        /* \"#utility.yul\":13154:13362   */\n      iszero\n      tag_236\n      jumpi\n        /* \"#utility.yul\":13247:13256   */\n      dup5\n        /* \"#utility.yul\":13242:13245   */\n      dup10\n        /* \"#utility.yul\":13238:13257   */\n      add\n        /* \"#utility.yul\":13232:13258   */\n      mload\n        /* \"#utility.yul\":13224:13230   */\n      dup3\n        /* \"#utility.yul\":13217:13259   */\n      sstore\n        /* \"#utility.yul\":13298:13299   */\n      0x01\n        /* \"#utility.yul\":13290:13296   */\n      dup3\n        /* \"#utility.yul\":13286:13300   */\n      add\n        /* \"#utility.yul\":13276:13300   */\n      swap2\n      pop\n        /* \"#utility.yul\":13345:13347   */\n      0x20\n        /* \"#utility.yul\":13334:13343   */\n      dup6\n        /* \"#utility.yul\":13330:13348   */\n      add\n        /* \"#utility.yul\":13317:13348   */\n      swap5\n      pop\n        /* \"#utility.yul\":13191:13195   */\n      0x20\n        /* \"#utility.yul\":13188:13189   */\n      dup2\n        /* \"#utility.yul\":13184:13196   */\n      add\n        /* \"#utility.yul\":13179:13196   */\n      swap1\n      pop\n        /* \"#utility.yul\":13154:13362   */\n      jump(tag_234)\n    tag_236:\n        /* \"#utility.yul\":13390:13396   */\n      dup7\n        /* \"#utility.yul\":13381:13388   */\n      dup4\n        /* \"#utility.yul\":13378:13397   */\n      lt\n        /* \"#utility.yul\":13375:13554   */\n      iszero\n      tag_237\n      jumpi\n        /* \"#utility.yul\":13448:13457   */\n      dup5\n        /* \"#utility.yul\":13443:13446   */\n      dup10\n        /* \"#utility.yul\":13439:13458   */\n      add\n        /* \"#utility.yul\":13433:13459   */\n      mload\n        /* \"#utility.yul\":13491:13539   */\n      tag_238\n        /* \"#utility.yul\":13533:13537   */\n      0x1f\n        /* \"#utility.yul\":13525:13531   */\n      dup10\n        /* \"#utility.yul\":13521:13538   */\n      and\n        /* \"#utility.yul\":13510:13519   */\n      dup3\n        /* \"#utility.yul\":13491:13539   */\n      tag_92\n      jump\t// in\n    tag_238:\n        /* \"#utility.yul\":13483:13489   */\n      dup4\n        /* \"#utility.yul\":13476:13540   */\n      sstore\n        /* \"#utility.yul\":13398:13554   */\n      pop\n        /* \"#utility.yul\":13375:13554   */\n    tag_237:\n        /* \"#utility.yul\":13600:13601   */\n      0x01\n        /* \"#utility.yul\":13596:13597   */\n      0x02\n        /* \"#utility.yul\":13588:13594   */\n      dup9\n        /* \"#utility.yul\":13584:13598   */\n      mul\n        /* \"#utility.yul\":13580:13602   */\n      add\n        /* \"#utility.yul\":13574:13578   */\n      dup9\n        /* \"#utility.yul\":13567:13603   */\n      sstore\n        /* \"#utility.yul\":13002:13613   */\n      pop\n      pop\n      pop\n        /* \"#utility.yul\":12965:13852   */\n    tag_229:\n      pop\n        /* \"#utility.yul\":12555:13858   */\n      pop\n      pop\n      pop\n        /* \"#utility.yul\":12463:13858   */\n      pop\n      pop\n      jump\t// out\n\n    auxdata: 0xa2646970667358221220b7da8724584cf2165ca6713c8b3e0a6f605c9b225b350e2161e4bd5c029c74c364736f6c63430008170033\n}\n",
				"bytecode": {
					"linkReferences": {},
					"object": "608060405234801561000f575f80fd5b50610b038061001d5f395ff3fe608060405234801561000f575f80fd5b506004361061004a575f3560e01c80630b1e7f831461004e57806341f3004a146100805780638e53fb411461009e578063ebaac771146100bc575b5f80fd5b61006860048036038101906100639190610445565b6100d8565b60405161007793929190610548565b60405180910390f35b6100886101b1565b60405161009591906106f2565b60405180910390f35b6100a66102fa565b6040516100b39190610712565b60405180910390f35b6100d660048036038101906100d1919061078c565b610305565b005b5f81815481106100e6575f80fd5b905f5260205f2090600302015f91509050805f015f9054906101000a900473ffffffffffffffffffffffffffffffffffffffff169080600101805461012a90610804565b80601f016020809104026020016040519081016040528092919081815260200182805461015690610804565b80156101a15780601f10610178576101008083540402835291602001916101a1565b820191905f5260205f20905b81548152906001019060200180831161018457829003601f168201915b5050505050908060020154905083565b60605f805480602002602001604051908101604052809291908181526020015f905b828210156102f1578382905f5260205f2090600302016040518060600160405290815f82015f9054906101000a900473ffffffffffffffffffffffffffffffffffffffff1673ffffffffffffffffffffffffffffffffffffffff1673ffffffffffffffffffffffffffffffffffffffff16815260200160018201805461025890610804565b80601f016020809104026020016040519081016040528092919081815260200182805461028490610804565b80156102cf5780601f106102a6576101008083540402835291602001916102cf565b820191905f5260205f20905b8154815290600101906020018083116102b257829003601f168201915b50505050508152602001600282015481525050815260200190600101906101d3565b50505050905090565b5f8080549050905090565b5f60405180606001604052803373ffffffffffffffffffffffffffffffffffffffff16815260200184848080601f0160208091040260200160405190810160405280939291908181526020018383808284375f81840152601f19601f82011690508083019250505050505050815260200142815250908060018154018082558091505060019003905f5260205f2090600302015f909190919091505f820151815f015f6101000a81548173ffffffffffffffffffffffffffffffffffffffff021916908373ffffffffffffffffffffffffffffffffffffffff16021790555060208201518160010190816103f991906109fe565b506040820151816002015550505050565b5f80fd5b5f80fd5b5f819050919050565b61042481610412565b811461042e575f80fd5b50565b5f8135905061043f8161041b565b92915050565b5f6020828403121561045a5761045961040a565b5b5f61046784828501610431565b91505092915050565b5f73ffffffffffffffffffffffffffffffffffffffff82169050919050565b5f61049982610470565b9050919050565b6104a98161048f565b82525050565b5f81519050919050565b5f82825260208201905092915050565b5f5b838110156104e65780820151818401526020810190506104cb565b5f8484015250505050565b5f601f19601f8301169050919050565b5f61050b826104af565b61051581856104b9565b93506105258185602086016104c9565b61052e816104f1565b840191505092915050565b61054281610412565b82525050565b5f60608201905061055b5f8301866104a0565b818103602083015261056d8185610501565b905061057c6040830184610539565b949350505050565b5f81519050919050565b5f82825260208201905092915050565b5f819050602082019050919050565b6105b68161048f565b82525050565b5f82825260208201905092915050565b5f6105d6826104af565b6105e081856105bc565b93506105f08185602086016104c9565b6105f9816104f1565b840191505092915050565b61060d81610412565b82525050565b5f606083015f8301516106285f8601826105ad565b506020830151848203602086015261064082826105cc565b91505060408301516106556040860182610604565b508091505092915050565b5f61066b8383610613565b905092915050565b5f602082019050919050565b5f61068982610584565b610693818561058e565b9350836020820285016106a58561059e565b805f5b858110156106e057848403895281516106c18582610660565b94506106cc83610673565b925060208a019950506001810190506106a8565b50829750879550505050505092915050565b5f6020820190508181035f83015261070a818461067f565b905092915050565b5f6020820190506107255f830184610539565b92915050565b5f80fd5b5f80fd5b5f80fd5b5f8083601f84011261074c5761074b61072b565b5b8235905067ffffffffffffffff8111156107695761076861072f565b5b60208301915083600182028301111561078557610784610733565b5b9250929050565b5f80602083850312156107a2576107a161040a565b5b5f83013567ffffffffffffffff8111156107bf576107be61040e565b5b6107cb85828601610737565b92509250509250929050565b7f4e487b71000000000000000000000000000000000000000000000000000000005f52602260045260245ffd5b5f600282049050600182168061081b57607f821691505b60208210810361082e5761082d6107d7565b5b50919050565b7f4e487b71000000000000000000000000000000000000000000000000000000005f52604160045260245ffd5b5f819050815f5260205f209050919050565b5f6020601f8301049050919050565b5f82821b905092915050565b5f600883026108bd7fffffffffffffffffffffffffffffffffffffffffffffffffffffffffffffffff82610882565b6108c78683610882565b95508019841693508086168417925050509392505050565b5f819050919050565b5f6109026108fd6108f884610412565b6108df565b610412565b9050919050565b5f819050919050565b61091b836108e8565b61092f61092782610909565b84845461088e565b825550505050565b5f90565b610943610937565b61094e818484610912565b505050565b5b81811015610971576109665f8261093b565b600181019050610954565b5050565b601f8211156109b65761098781610861565b61099084610873565b8101602085101561099f578190505b6109b36109ab85610873565b830182610953565b50505b505050565b5f82821c905092915050565b5f6109d65f19846008026109bb565b1980831691505092915050565b5f6109ee83836109c7565b9150826002028217905092915050565b610a07826104af565b67ffffffffffffffff811115610a2057610a1f610834565b5b610a2a8254610804565b610a35828285610975565b5f60209050601f831160018114610a66575f8415610a54578287015190505b610a5e85826109e3565b865550610ac5565b601f198416610a7486610861565b5f5b82811015610a9b57848901518255600182019150602085019450602081019050610a76565b86831015610ab85784890151610ab4601f8916826109c7565b8355505b6001600288020188555050505b50505050505056fea2646970667358221220b7da8724584cf2165ca6713c8b3e0a6f605c9b225b350e2161e4bd5c029c74c364736f6c63430008170033",
					"opcodes": "PUSH1 0x80 PUSH1 0x40 MSTORE CALLVALUE DUP1 ISZERO PUSH2 0xF JUMPI PUSH0 DUP1 REVERT JUMPDEST POP PUSH2 0xB03 DUP1 PUSH2 0x1D PUSH0 CODECOPY PUSH0 RETURN INVALID PUSH1 0x80 PUSH1 0x40 MSTORE CALLVALUE DUP1 ISZERO PUSH2 0xF JUMPI PUSH0 DUP1 REVERT JUMPDEST POP PUSH1 0x4 CALLDATASIZE LT PUSH2 0x4A JUMPI PUSH0 CALLDATALOAD PUSH1 0xE0 SHR DUP1 PUSH4 0xB1E7F83 EQ PUSH2 0x4E JUMPI DUP1 PUSH4 0x41F3004A EQ PUSH2 0x80 JUMPI DUP1 PUSH4 0x8E53FB41 EQ PUSH2 0x9E JUMPI DUP1 PUSH4 0xEBAAC771 EQ PUSH2 0xBC JUMPI JUMPDEST PUSH0 DUP1 REVERT JUMPDEST PUSH2 0x68 PUSH1 0x4 DUP1 CALLDATASIZE SUB DUP2 ADD SWAP1 PUSH2 0x63 SWAP2 SWAP1 PUSH2 0x445 JUMP JUMPDEST PUSH2 0xD8 JUMP JUMPDEST PUSH1 0x40 MLOAD PUSH2 0x77 SWAP4 SWAP3 SWAP2 SWAP1 PUSH2 0x548 JUMP JUMPDEST PUSH1 0x40 MLOAD DUP1 SWAP2 SUB SWAP1 RETURN JUMPDEST PUSH2 0x88 PUSH2 0x1B1 JUMP JUMPDEST PUSH1 0x40 MLOAD PUSH2 0x95 SWAP2 SWAP1 PUSH2 0x6F2 JUMP JUMPDEST PUSH1 0x40 MLOAD DUP1 SWAP2 SUB SWAP1 RETURN JUMPDEST PUSH2 0xA6 PUSH2 0x2FA JUMP JUMPDEST PUSH1 0x40 MLOAD PUSH2 0xB3 SWAP2 SWAP1 PUSH2 0x712 JUMP JUMPDEST PUSH1 0x40 MLOAD DUP1 SWAP2 SUB SWAP1 RETURN JUMPDEST PUSH2 0xD6 PUSH1 0x4 DUP1 CALLDATASIZE SUB DUP2 ADD SWAP1 PUSH2 0xD1 SWAP2 SWAP1 PUSH2 0x78C JUMP JUMPDEST PUSH2 0x305 JUMP JUMPDEST STOP JUMPDEST PUSH0 DUP2 DUP2 SLOAD DUP2 LT PUSH2 0xE6 JUMPI PUSH0 DUP1 REVERT JUMPDEST SWAP1 PUSH0 MSTORE PUSH1 0x20 PUSH0 KECCAK256 SWAP1 PUSH1 0x3 MUL ADD PUSH0 SWAP2 POP SWAP1 POP DUP1 PUSH0 ADD PUSH0 SWAP1 SLOAD SWAP1 PUSH2 0x100 EXP SWAP1 DIV PUSH20 0xFFFFFFFFFFFFFFFFFFFFFFFFFFFFFFFFFFFFFFFF AND SWAP1 DUP1 PUSH1 0x1 ADD DUP1 SLOAD PUSH2 0x12A SWAP1 PUSH2 0x804 JUMP JUMPDEST DUP1 PUSH1 0x1F ADD PUSH1 0x20 DUP1 SWAP2 DIV MUL PUSH1 0x20 ADD PUSH1 0x40 MLOAD SWAP1 DUP2 ADD PUSH1 0x40 MSTORE DUP1 SWAP3 SWAP2 SWAP1 DUP2 DUP2 MSTORE PUSH1 0x20 ADD DUP3 DUP1 SLOAD PUSH2 0x156 SWAP1 PUSH2 0x804 JUMP JUMPDEST DUP1 ISZERO PUSH2 0x1A1 JUMPI DUP1 PUSH1 0x1F LT PUSH2 0x178 JUMPI PUSH2 0x100 DUP1 DUP4 SLOAD DIV MUL DUP4 MSTORE SWAP2 PUSH1 0x20 ADD SWAP2 PUSH2 0x1A1 JUMP JUMPDEST DUP3 ADD SWAP2 SWAP1 PUSH0 MSTORE PUSH1 0x20 PUSH0 KECCAK256 SWAP1 JUMPDEST DUP2 SLOAD DUP2 MSTORE SWAP1 PUSH1 0x1 ADD SWAP1 PUSH1 0x20 ADD DUP1 DUP4 GT PUSH2 0x184 JUMPI DUP3 SWAP1 SUB PUSH1 0x1F AND DUP3 ADD SWAP2 JUMPDEST POP POP POP POP POP SWAP1 DUP1 PUSH1 0x2 ADD SLOAD SWAP1 POP DUP4 JUMP JUMPDEST PUSH1 0x60 PUSH0 DUP1 SLOAD DUP1 PUSH1 0x20 MUL PUSH1 0x20 ADD PUSH1 0x40 MLOAD SWAP1 DUP2 ADD PUSH1 0x40 MSTORE DUP1 SWAP3 SWAP2 SWAP1 DUP2 DUP2 MSTORE PUSH1 0x20 ADD PUSH0 SWAP1 JUMPDEST DUP3 DUP3 LT ISZERO PUSH2 0x2F1 JUMPI DUP4 DUP3 SWAP1 PUSH0 MSTORE PUSH1 0x20 PUSH0 KECCAK256 SWAP1 PUSH1 0x3 MUL ADD PUSH1 0x40 MLOAD DUP1 PUSH1 0x60 ADD PUSH1 0x40 MSTORE SWAP1 DUP2 PUSH0 DUP3 ADD PUSH0 SWAP1 SLOAD SWAP1 PUSH2 0x100 EXP SWAP1 DIV PUSH20 0xFFFFFFFFFFFFFFFFFFFFFFFFFFFFFFFFFFFFFFFF AND PUSH20 0xFFFFFFFFFFFFFFFFFFFFFFFFFFFFFFFFFFFFFFFF AND PUSH20 0xFFFFFFFFFFFFFFFFFFFFFFFFFFFFFFFFFFFFFFFF AND DUP2 MSTORE PUSH1 0x20 ADD PUSH1 0x1 DUP3 ADD DUP1 SLOAD PUSH2 0x258 SWAP1 PUSH2 0x804 JUMP JUMPDEST DUP1 PUSH1 0x1F ADD PUSH1 0x20 DUP1 SWAP2 DIV MUL PUSH1 0x20 ADD PUSH1 0x40 MLOAD SWAP1 DUP2 ADD PUSH1 0x40 MSTORE DUP1 SWAP3 SWAP2 SWAP1 DUP2 DUP2 MSTORE PUSH1 0x20 ADD DUP3 DUP1 SLOAD PUSH2 0x284 SWAP1 PUSH2 0x804 JUMP JUMPDEST DUP1 ISZERO PUSH2 0x2CF JUMPI DUP1 PUSH1 0x1F LT PUSH2 0x2A6 JUMPI PUSH2 0x100 DUP1 DUP4 SLOAD DIV MUL DUP4 MSTORE SWAP2 PUSH1 0x20 ADD SWAP2 PUSH2 0x2CF JUMP JUMPDEST DUP3 ADD SWAP2 SWAP1 PUSH0 MSTORE PUSH1 0x20 PUSH0 KECCAK256 SWAP1 JUMPDEST DUP2 SLOAD DUP2 MSTORE SWAP1 PUSH1 0x1 ADD SWAP1 PUSH1 0x20 ADD DUP1 DUP4 GT PUSH2 0x2B2 JUMPI DUP3 SWAP1 SUB PUSH1 0x1F AND DUP3 ADD SWAP2 JUMPDEST POP POP POP POP POP DUP2 MSTORE PUSH1 0x20 ADD PUSH1 0x2 DUP3 ADD SLOAD DUP2 MSTORE POP POP DUP2 MSTORE PUSH1 0x20 ADD SWAP1 PUSH1 0x1 ADD SWAP1 PUSH2 0x1D3 JUMP JUMPDEST POP POP POP POP SWAP1 POP SWAP1 JUMP JUMPDEST PUSH0 DUP1 DUP1 SLOAD SWAP1 POP SWAP1 POP SWAP1 JUMP JUMPDEST PUSH0 PUSH1 0x40 MLOAD DUP1 PUSH1 0x60 ADD PUSH1 0x40 MSTORE DUP1 CALLER PUSH20 0xFFFFFFFFFFFFFFFFFFFFFFFFFFFFFFFFFFFFFFFF AND DUP2 MSTORE PUSH1 0x20 ADD DUP5 DUP5 DUP1 DUP1 PUSH1 0x1F ADD PUSH1 0x20 DUP1 SWAP2 DIV MUL PUSH1 0x20 ADD PUSH1 0x40 MLOAD SWAP1 DUP2 ADD PUSH1 0x40 MSTORE DUP1 SWAP4 SWAP3 SWAP2 SWAP1 DUP2 DUP2 MSTORE PUSH1 0x20 ADD DUP4 DUP4 DUP1 DUP3 DUP5 CALLDATACOPY PUSH0 DUP2 DUP5 ADD MSTORE PUSH1 0x1F NOT PUSH1 0x1F DUP3 ADD AND SWAP1 POP DUP1 DUP4 ADD SWAP3 POP POP POP POP POP POP POP DUP2 MSTORE PUSH1 0x20 ADD TIMESTAMP DUP2 MSTORE POP SWAP1 DUP1 PUSH1 0x1 DUP2 SLOAD ADD DUP1 DUP3 SSTORE DUP1 SWAP2 POP POP PUSH1 0x1 SWAP1 SUB SWAP1 PUSH0 MSTORE PUSH1 0x20 PUSH0 KECCAK256 SWAP1 PUSH1 0x3 MUL ADD PUSH0 SWAP1 SWAP2 SWAP1 SWAP2 SWAP1 SWAP2 POP PUSH0 DUP3 ADD MLOAD DUP2 PUSH0 ADD PUSH0 PUSH2 0x100 EXP DUP2 SLOAD DUP2 PUSH20 0xFFFFFFFFFFFFFFFFFFFFFFFFFFFFFFFFFFFFFFFF MUL NOT AND SWAP1 DUP4 PUSH20 0xFFFFFFFFFFFFFFFFFFFFFFFFFFFFFFFFFFFFFFFF AND MUL OR SWAP1 SSTORE POP PUSH1 0x20 DUP3 ADD MLOAD DUP2 PUSH1 0x1 ADD SWAP1 DUP2 PUSH2 0x3F9 SWAP2 SWAP1 PUSH2 0x9FE JUMP JUMPDEST POP PUSH1 0x40 DUP3 ADD MLOAD DUP2 PUSH1 0x2 ADD SSTORE POP POP POP POP JUMP JUMPDEST PUSH0 DUP1 REVERT JUMPDEST PUSH0 DUP1 REVERT JUMPDEST PUSH0 DUP2 SWAP1 POP SWAP2 SWAP1 POP JUMP JUMPDEST PUSH2 0x424 DUP2 PUSH2 0x412 JUMP JUMPDEST DUP2 EQ PUSH2 0x42E JUMPI PUSH0 DUP1 REVERT JUMPDEST POP JUMP JUMPDEST PUSH0 DUP2 CALLDATALOAD SWAP1 POP PUSH2 0x43F DUP2 PUSH2 0x41B JUMP JUMPDEST SWAP3 SWAP2 POP POP JUMP JUMPDEST PUSH0 PUSH1 0x20 DUP3 DUP5 SUB SLT ISZERO PUSH2 0x45A JUMPI PUSH2 0x459 PUSH2 0x40A JUMP JUMPDEST JUMPDEST PUSH0 PUSH2 0x467 DUP5 DUP3 DUP6 ADD PUSH2 0x431 JUMP JUMPDEST SWAP2 POP POP SWAP3 SWAP2 POP POP JUMP JUMPDEST PUSH0 PUSH20 0xFFFFFFFFFFFFFFFFFFFFFFFFFFFFFFFFFFFFFFFF DUP3 AND SWAP1 POP SWAP2 SWAP1 POP JUMP JUMPDEST PUSH0 PUSH2 0x499 DUP3 PUSH2 0x470 JUMP JUMPDEST SWAP1 POP SWAP2 SWAP1 POP JUMP JUMPDEST PUSH2 0x4A9 DUP2 PUSH2 0x48F JUMP JUMPDEST DUP3 MSTORE POP POP JUMP JUMPDEST PUSH0 DUP2 MLOAD SWAP1 POP SWAP2 SWAP1 POP JUMP JUMPDEST PUSH0 DUP3 DUP3 MSTORE PUSH1 0x20 DUP3 ADD SWAP1 POP SWAP3 SWAP2 POP POP JUMP JUMPDEST PUSH0 JUMPDEST DUP4 DUP2 LT ISZERO PUSH2 0x4E6 JUMPI DUP1 DUP3 ADD MLOAD DUP2 DUP5 ADD MSTORE PUSH1 0x20 DUP2 ADD SWAP1 POP PUSH2 0x4CB JUMP JUMPDEST PUSH0 DUP5 DUP5 ADD MSTORE POP POP POP POP JUMP JUMPDEST PUSH0 PUSH1 0x1F NOT PUSH1 0x1F DUP4 ADD AND SWAP1 POP SWAP2 SWAP1 POP JUMP JUMPDEST PUSH0 PUSH2 0x50B DUP3 PUSH2 0x4AF JUMP JUMPDEST PUSH2 0x515 DUP2 DUP6 PUSH2 0x4B9 JUMP JUMPDEST SWAP4 POP PUSH2 0x525 DUP2 DUP6 PUSH1 0x20 DUP7 ADD PUSH2 0x4C9 JUMP JUMPDEST PUSH2 0x52E DUP2 PUSH2 0x4F1 JUMP JUMPDEST DUP5 ADD SWAP2 POP POP SWAP3 SWAP2 POP POP JUMP JUMPDEST PUSH2 0x542 DUP2 PUSH2 0x412 JUMP JUMPDEST DUP3 MSTORE POP POP JUMP JUMPDEST PUSH0 PUSH1 0x60 DUP3 ADD SWAP1 POP PUSH2 0x55B PUSH0 DUP4 ADD DUP7 PUSH2 0x4A0 JUMP JUMPDEST DUP2 DUP2 SUB PUSH1 0x20 DUP4 ADD MSTORE PUSH2 0x56D DUP2 DUP6 PUSH2 0x501 JUMP JUMPDEST SWAP1 POP PUSH2 0x57C PUSH1 0x40 DUP4 ADD DUP5 PUSH2 0x539 JUMP JUMPDEST SWAP5 SWAP4 POP POP POP POP JUMP JUMPDEST PUSH0 DUP2 MLOAD SWAP1 POP SWAP2 SWAP1 POP JUMP JUMPDEST PUSH0 DUP3 DUP3 MSTORE PUSH1 0x20 DUP3 ADD SWAP1 POP SWAP3 SWAP2 POP POP JUMP JUMPDEST PUSH0 DUP2 SWAP1 POP PUSH1 0x20 DUP3 ADD SWAP1 POP SWAP2 SWAP1 POP JUMP JUMPDEST PUSH2 0x5B6 DUP2 PUSH2 0x48F JUMP JUMPDEST DUP3 MSTORE POP POP JUMP JUMPDEST PUSH0 DUP3 DUP3 MSTORE PUSH1 0x20 DUP3 ADD SWAP1 POP SWAP3 SWAP2 POP POP JUMP JUMPDEST PUSH0 PUSH2 0x5D6 DUP3 PUSH2 0x4AF JUMP JUMPDEST PUSH2 0x5E0 DUP2 DUP6 PUSH2 0x5BC JUMP JUMPDEST SWAP4 POP PUSH2 0x5F0 DUP2 DUP6 PUSH1 0x20 DUP7 ADD PUSH2 0x4C9 JUMP JUMPDEST PUSH2 0x5F9 DUP2 PUSH2 0x4F1 JUMP JUMPDEST DUP5 ADD SWAP2 POP POP SWAP3 SWAP2 POP POP JUMP JUMPDEST PUSH2 0x60D DUP2 PUSH2 0x412 JUMP JUMPDEST DUP3 MSTORE POP POP JUMP JUMPDEST PUSH0 PUSH1 0x60 DUP4 ADD PUSH0 DUP4 ADD MLOAD PUSH2 0x628 PUSH0 DUP7 ADD DUP3 PUSH2 0x5AD JUMP JUMPDEST POP PUSH1 0x20 DUP4 ADD MLOAD DUP5 DUP3 SUB PUSH1 0x20 DUP7 ADD MSTORE PUSH2 0x640 DUP3 DUP3 PUSH2 0x5CC JUMP JUMPDEST SWAP2 POP POP PUSH1 0x40 DUP4 ADD MLOAD PUSH2 0x655 PUSH1 0x40 DUP7 ADD DUP3 PUSH2 0x604 JUMP JUMPDEST POP DUP1 SWAP2 POP POP SWAP3 SWAP2 POP POP JUMP JUMPDEST PUSH0 PUSH2 0x66B DUP4 DUP4 PUSH2 0x613 JUMP JUMPDEST SWAP1 POP SWAP3 SWAP2 POP POP JUMP JUMPDEST PUSH0 PUSH1 0x20 DUP3 ADD SWAP1 POP SWAP2 SWAP1 POP JUMP JUMPDEST PUSH0 PUSH2 0x689 DUP3 PUSH2 0x584 JUMP JUMPDEST PUSH2 0x693 DUP2 DUP6 PUSH2 0x58E JUMP JUMPDEST SWAP4 POP DUP4 PUSH1 0x20 DUP3 MUL DUP6 ADD PUSH2 0x6A5 DUP6 PUSH2 0x59E JUMP JUMPDEST DUP1 PUSH0 JUMPDEST DUP6 DUP2 LT ISZERO PUSH2 0x6E0 JUMPI DUP5 DUP5 SUB DUP10 MSTORE DUP2 MLOAD PUSH2 0x6C1 DUP6 DUP3 PUSH2 0x660 JUMP JUMPDEST SWAP5 POP PUSH2 0x6CC DUP4 PUSH2 0x673 JUMP JUMPDEST SWAP3 POP PUSH1 0x20 DUP11 ADD SWAP10 POP POP PUSH1 0x1 DUP2 ADD SWAP1 POP PUSH2 0x6A8 JUMP JUMPDEST POP DUP3 SWAP8 POP DUP8 SWAP6 POP POP POP POP POP POP SWAP3 SWAP2 POP POP JUMP JUMPDEST PUSH0 PUSH1 0x20 DUP3 ADD SWAP1 POP DUP2 DUP2 SUB PUSH0 DUP4 ADD MSTORE PUSH2 0x70A DUP2 DUP5 PUSH2 0x67F JUMP JUMPDEST SWAP1 POP SWAP3 SWAP2 POP POP JUMP JUMPDEST PUSH0 PUSH1 0x20 DUP3 ADD SWAP1 POP PUSH2 0x725 PUSH0 DUP4 ADD DUP5 PUSH2 0x539 JUMP JUMPDEST SWAP3 SWAP2 POP POP JUMP JUMPDEST PUSH0 DUP1 REVERT JUMPDEST PUSH0 DUP1 REVERT JUMPDEST PUSH0 DUP1 REVERT JUMPDEST PUSH0 DUP1 DUP4 PUSH1 0x1F DUP5 ADD SLT PUSH2 0x74C JUMPI PUSH2 0x74B PUSH2 0x72B JUMP JUMPDEST JUMPDEST DUP3 CALLDATALOAD SWAP1 POP PUSH8 0xFFFFFFFFFFFFFFFF DUP2 GT ISZERO PUSH2 0x769 JUMPI PUSH2 0x768 PUSH2 0x72F JUMP JUMPDEST JUMPDEST PUSH1 0x20 DUP4 ADD SWAP2 POP DUP4 PUSH1 0x1 DUP3 MUL DUP4 ADD GT ISZERO PUSH2 0x785 JUMPI PUSH2 0x784 PUSH2 0x733 JUMP JUMPDEST JUMPDEST SWAP3 POP SWAP3 SWAP1 POP JUMP JUMPDEST PUSH0 DUP1 PUSH1 0x20 DUP4 DUP6 SUB SLT ISZERO PUSH2 0x7A2 JUMPI PUSH2 0x7A1 PUSH2 0x40A JUMP JUMPDEST JUMPDEST PUSH0 DUP4 ADD CALLDATALOAD PUSH8 0xFFFFFFFFFFFFFFFF DUP2 GT ISZERO PUSH2 0x7BF JUMPI PUSH2 0x7BE PUSH2 0x40E JUMP JUMPDEST JUMPDEST PUSH2 0x7CB DUP6 DUP3 DUP7 ADD PUSH2 0x737 JUMP JUMPDEST SWAP3 POP SWAP3 POP POP SWAP3 POP SWAP3 SWAP1 POP JUMP JUMPDEST PUSH32 0x4E487B7100000000000000000000000000000000000000000000000000000000 PUSH0 MSTORE PUSH1 0x22 PUSH1 0x4 MSTORE PUSH1 0x24 PUSH0 REVERT JUMPDEST PUSH0 PUSH1 0x2 DUP3 DIV SWAP1 POP PUSH1 0x1 DUP3 AND DUP1 PUSH2 0x81B JUMPI PUSH1 0x7F DUP3 AND SWAP2 POP JUMPDEST PUSH1 0x20 DUP3 LT DUP2 SUB PUSH2 0x82E JUMPI PUSH2 0x82D PUSH2 0x7D7 JUMP JUMPDEST JUMPDEST POP SWAP2 SWAP1 POP JUMP JUMPDEST PUSH32 0x4E487B7100000000000000000000000000000000000000000000000000000000 PUSH0 MSTORE PUSH1 0x41 PUSH1 0x4 MSTORE PUSH1 0x24 PUSH0 REVERT JUMPDEST PUSH0 DUP2 SWAP1 POP DUP2 PUSH0 MSTORE PUSH1 0x20 PUSH0 KECCAK256 SWAP1 POP SWAP2 SWAP1 POP JUMP JUMPDEST PUSH0 PUSH1 0x20 PUSH1 0x1F DUP4 ADD DIV SWAP1 POP SWAP2 SWAP1 POP JUMP JUMPDEST PUSH0 DUP3 DUP3 SHL SWAP1 POP SWAP3 SWAP2 POP POP JUMP JUMPDEST PUSH0 PUSH1 0x8 DUP4 MUL PUSH2 0x8BD PUSH32 0xFFFFFFFFFFFFFFFFFFFFFFFFFFFFFFFFFFFFFFFFFFFFFFFFFFFFFFFFFFFFFFFF DUP3 PUSH2 0x882 JUMP JUMPDEST PUSH2 0x8C7 DUP7 DUP4 PUSH2 0x882 JUMP JUMPDEST SWAP6 POP DUP1 NOT DUP5 AND SWAP4 POP DUP1 DUP7 AND DUP5 OR SWAP3 POP POP POP SWAP4 SWAP3 POP POP POP JUMP JUMPDEST PUSH0 DUP2 SWAP1 POP SWAP2 SWAP1 POP JUMP JUMPDEST PUSH0 PUSH2 0x902 PUSH2 0x8FD PUSH2 0x8F8 DUP5 PUSH2 0x412 JUMP JUMPDEST PUSH2 0x8DF JUMP JUMPDEST PUSH2 0x412 JUMP JUMPDEST SWAP1 POP SWAP2 SWAP1 POP JUMP JUMPDEST PUSH0 DUP2 SWAP1 POP SWAP2 SWAP1 POP JUMP JUMPDEST PUSH2 0x91B DUP4 PUSH2 0x8E8 JUMP JUMPDEST PUSH2 0x92F PUSH2 0x927 DUP3 PUSH2 0x909 JUMP JUMPDEST DUP5 DUP5 SLOAD PUSH2 0x88E JUMP JUMPDEST DUP3 SSTORE POP POP POP POP JUMP JUMPDEST PUSH0 SWAP1 JUMP JUMPDEST PUSH2 0x943 PUSH2 0x937 JUMP JUMPDEST PUSH2 0x94E DUP2 DUP5 DUP5 PUSH2 0x912 JUMP JUMPDEST POP POP POP JUMP JUMPDEST JUMPDEST DUP2 DUP2 LT ISZERO PUSH2 0x971 JUMPI PUSH2 0x966 PUSH0 DUP3 PUSH2 0x93B JUMP JUMPDEST PUSH1 0x1 DUP2 ADD SWAP1 POP PUSH2 0x954 JUMP JUMPDEST POP POP JUMP JUMPDEST PUSH1 0x1F DUP3 GT ISZERO PUSH2 0x9B6 JUMPI PUSH2 0x987 DUP2 PUSH2 0x861 JUMP JUMPDEST PUSH2 0x990 DUP5 PUSH2 0x873 JUMP JUMPDEST DUP2 ADD PUSH1 0x20 DUP6 LT ISZERO PUSH2 0x99F JUMPI DUP2 SWAP1 POP JUMPDEST PUSH2 0x9B3 PUSH2 0x9AB DUP6 PUSH2 0x873 JUMP JUMPDEST DUP4 ADD DUP3 PUSH2 0x953 JUMP JUMPDEST POP POP JUMPDEST POP POP POP JUMP JUMPDEST PUSH0 DUP3 DUP3 SHR SWAP1 POP SWAP3 SWAP2 POP POP JUMP JUMPDEST PUSH0 PUSH2 0x9D6 PUSH0 NOT DUP5 PUSH1 0x8 MUL PUSH2 0x9BB JUMP JUMPDEST NOT DUP1 DUP4 AND SWAP2 POP POP SWAP3 SWAP2 POP POP JUMP JUMPDEST PUSH0 PUSH2 0x9EE DUP4 DUP4 PUSH2 0x9C7 JUMP JUMPDEST SWAP2 POP DUP3 PUSH1 0x2 MUL DUP3 OR SWAP1 POP SWAP3 SWAP2 POP POP JUMP JUMPDEST PUSH2 0xA07 DUP3 PUSH2 0x4AF JUMP JUMPDEST PUSH8 0xFFFFFFFFFFFFFFFF DUP2 GT ISZERO PUSH2 0xA20 JUMPI PUSH2 0xA1F PUSH2 0x834 JUMP JUMPDEST JUMPDEST PUSH2 0xA2A DUP3 SLOAD PUSH2 0x804 JUMP JUMPDEST PUSH2 0xA35 DUP3 DUP3 DUP6 PUSH2 0x975 JUMP JUMPDEST PUSH0 PUSH1 0x20 SWAP1 POP PUSH1 0x1F DUP4 GT PUSH1 0x1 DUP2 EQ PUSH2 0xA66 JUMPI PUSH0 DUP5 ISZERO PUSH2 0xA54 JUMPI DUP3 DUP8 ADD MLOAD SWAP1 POP JUMPDEST PUSH2 0xA5E DUP6 DUP3 PUSH2 0x9E3 JUMP JUMPDEST DUP7 SSTORE POP PUSH2 0xAC5 JUMP JUMPDEST PUSH1 0x1F NOT DUP5 AND PUSH2 0xA74 DUP7 PUSH2 0x861 JUMP JUMPDEST PUSH0 JUMPDEST DUP3 DUP2 LT ISZERO PUSH2 0xA9B JUMPI DUP5 DUP10 ADD MLOAD DUP3 SSTORE PUSH1 0x1 DUP3 ADD SWAP2 POP PUSH1 0x20 DUP6 ADD SWAP5 POP PUSH1 0x20 DUP2 ADD SWAP1 POP PUSH2 0xA76 JUMP JUMPDEST DUP7 DUP4 LT ISZERO PUSH2 0xAB8 JUMPI DUP5 DUP10 ADD MLOAD PUSH2 0xAB4 PUSH1 0x1F DUP10 AND DUP3 PUSH2 0x9C7 JUMP JUMPDEST DUP4 SSTORE POP JUMPDEST PUSH1 0x1 PUSH1 0x2 DUP9 MUL ADD DUP9 SSTORE POP POP POP JUMPDEST POP POP POP POP POP POP JUMP INVALID LOG2 PUSH5 0x6970667358 0x22 SLT KECCAK256 0xB7 0xDA DUP8 0x24 PC 0x4C CALLCODE AND 0x5C 0xA6 PUSH18 0x3C8B3E0A6F605C9B225B350E2161E4BD5C02 SWAP13 PUSH21 0xC364736F6C63430008170033000000000000000000 "
				},
				"gasEstimates": {
					"creation": {
						"codeDepositCost": "563800",
						"executionCost": "598",
						"totalCost": "564398"
					},
					"external": {
						"getPosts()": "infinite",
						"posts(uint256)": "infinite",
						"totalPosts()": "2462",
						"write(string)": "infinite"
					}
				},
				"methodIdentifiers": {
					"getPosts()": "41f3004a",
					"posts(uint256)": "0b1e7f83",
					"totalPosts()": "8e53fb41",
					"write(string)": "ebaac771"
				}
			},
			"storageLayout": {
				"storage": [
					{
						"astId": 12,
						"contract": "monad dashboard/ThreadPost.sol:ThreadPost",
						"label": "posts",
						"offset": 0,
						"slot": "0",
						"type": "t_array(t_struct(Post)8_storage)dyn_storage"
					}
				],
				"types": {
					"t_address": {
						"encoding": "inplace",
						"label": "address",
						"numberOfBytes": "20"
					},
					"t_array(t_struct(Post)8_storage)dyn_storage": {
						"base": "t_struct(Post)8_storage",
						"encoding": "dynamic_array",
						"label": "struct ThreadPost.Post[]",
						"numberOfBytes": "32"
					},
					"t_string_storage": {
						"encoding": "bytes",
						"label": "string",
						"numberOfBytes": "32"
					},
					"t_struct(Post)8_storage": {
						"encoding": "inplace",
						"label": "struct ThreadPost.Post",
						"members": [
							{
								"astId": 3,
								"contract": "monad dashboard/ThreadPost.sol:ThreadPost",
								"label": "author",
								"offset": 0,
								"slot": "0",
								"type": "t_address"
							},
							{
								"astId": 5,
								"contract": "monad dashboard/ThreadPost.sol:ThreadPost",
								"label": "content",
								"offset": 0,
								"slot": "1",
								"type": "t_string_storage"
							},
							{
								"astId": 7,
								"contract": "monad dashboard/ThreadPost.sol:ThreadPost",
								"label": "timestamp",
								"offset": 0,
								"slot": "2",
								"type": "t_uint256"
							}
						],
						"numberOfBytes": "96"
					},
					"t_uint256": {
						"encoding": "inplace",
						"label": "uint256",
						"numberOfBytes": "32"
					}
				}
			},
			"userdoc": {
				"kind": "user",
				"methods": {},
				"version": 1
			}
		}
	}
}