{
	"monad dashboard/NameRegistry.sol": {
		"NameRegistry": {
			"abi": [
				{
					"inputs": [],
					"name": "counter",
					"outputs": [
						{
							"internalType": "uint256",
							"name": "",
							"type": "uint256"
						}
					],
					"stateMutability": "view",
					"type": "function"
				},
				{
					"inputs": [],
					"name": "getMyNames",
					"outputs": [
						{
							"internalType": "string[]",
							"name": "",
							"type": "string[]"
						}
					],
					"stateMutability": "view",
					"type": "function"
				},
				{
					"inputs": [
						{
							"internalType": "uint256",
							"name": "",
							"type": "uint256"
						}
					],
					"name": "names",
					"outputs": [
						{
							"internalType": "string",
							"name": "",
							"type": "string"
						}
					],
					"stateMutability": "view",
					"type": "function"
				},
				{
					"inputs": [
						{
							"internalType": "uint256",
							"name": "",
							"type": "uint256"
						}
					],
					"name": "owners",
					"outputs": [
						{
							"internalType": "address",
							"name": "",
							"type": "address"
						}
					],
					"stateMutability": "view",
					"type": "function"
				},
				{
					"inputs": [
						{
							"internalType": "string",
							"name": "_name",
							"type": "string"
						}
					],
					"name": "register",
					"outputs": [],
					"stateMutability": "nonpayable",
					"type": "function"
				}
			],
			"devdoc": {
				"kind": "dev",
				"methods": {},
				"version": 1
			},
			"evm": {
				"assembly": "    /* \"monad dashboard/NameRegistry.sol\":61:859  contract NameRegistry {... */\n  mstore(0x40, 0x80)\n  callvalue\n  dup1\n  iszero\n  tag_1\n  jumpi\n  0x00\n  dup1\n  revert\ntag_1:\n  pop\n  dataSize(sub_0)\n  dup1\n  dataOffset(sub_0)\n  0x00\n  codecopy\n  0x00\n  return\nstop\n\nsub_0: assembly {\n        /* \"monad dashboard/NameRegistry.sol\":61:859  contract NameRegistry {... */\n      mstore(0x40, 0x80)\n      callvalue\n      dup1\n      iszero\n      tag_1\n      jumpi\n      0x00\n      dup1\n      revert\n    tag_1:\n      pop\n      jumpi(tag_2, lt(calldatasize, 0x04))\n      shr(0xe0, calldataload(0x00))\n      dup1\n      0x025e7c27\n      eq\n      tag_3\n      jumpi\n      dup1\n      0x285cb06a\n      eq\n      tag_4\n      jumpi\n      dup1\n      0x4622ab03\n      eq\n      tag_5\n      jumpi\n      dup1\n      0x61bc221a\n      eq\n      tag_6\n      jumpi\n      dup1\n      0xf2c298be\n      eq\n      tag_7\n      jumpi\n    tag_2:\n      0x00\n      dup1\n      revert\n        /* \"monad dashboard/NameRegistry.sol\":133:171  mapping(uint => address) public owners */\n    tag_3:\n      tag_8\n      0x04\n      dup1\n      calldatasize\n      sub\n      dup2\n      add\n      swap1\n      tag_9\n      swap2\n      swap1\n      tag_10\n      jump\t// in\n    tag_9:\n      tag_11\n      jump\t// in\n    tag_8:\n      mload(0x40)\n      tag_12\n      swap2\n      swap1\n      tag_13\n      jump\t// in\n    tag_12:\n      mload(0x40)\n      dup1\n      swap2\n      sub\n      swap1\n      return\n        /* \"monad dashboard/NameRegistry.sol\":360:856  function getMyNames() public view returns (string[] memory) {... */\n    tag_4:\n      tag_14\n      tag_15\n      jump\t// in\n    tag_14:\n      mload(0x40)\n      tag_16\n      swap2\n      swap1\n      tag_17\n      jump\t// in\n    tag_16:\n      mload(0x40)\n      dup1\n      swap2\n      sub\n      swap1\n      return\n        /* \"monad dashboard/NameRegistry.sol\":90:126  mapping(uint => string) public names */\n    tag_5:\n      tag_18\n      0x04\n      dup1\n      calldatasize\n      sub\n      dup2\n      add\n      swap1\n      tag_19\n      swap2\n      swap1\n      tag_10\n      jump\t// in\n    tag_19:\n      tag_20\n      jump\t// in\n    tag_18:\n      mload(0x40)\n      tag_21\n      swap2\n      swap1\n      tag_22\n      jump\t// in\n    tag_21:\n      mload(0x40)\n      dup1\n      swap2\n      sub\n      swap1\n      return\n        /* \"monad dashboard/NameRegistry.sol\":178:197  uint public counter */\n    tag_6:\n      tag_23\n      tag_24\n      jump\t// in\n    tag_23:\n      mload(0x40)\n      tag_25\n      swap2\n      swap1\n      tag_26\n      jump\t// in\n    tag_25:\n      mload(0x40)\n      dup1\n      swap2\n      sub\n      swap1\n      return\n        /* \"monad dashboard/NameRegistry.sol\":206:352  function register(string memory _name) public {... */\n    tag_7:\n      tag_27\n      0x04\n      dup1\n      calldatasize\n      sub\n      dup2\n      add\n      swap1\n      tag_28\n      swap2\n      swap1\n      tag_29\n      jump\t// in\n    tag_28:\n      tag_30\n      jump\t// in\n    tag_27:\n      stop\n        /* \"monad dashboard/NameRegistry.sol\":133:171  mapping(uint => address) public owners */\n    tag_11:\n      mstore(0x20, 0x01)\n      dup1\n      0x00\n      mstore\n      keccak256(0x00, 0x40)\n      0x00\n      swap2\n      pop\n      sload\n      swap1\n      0x0100\n      exp\n      swap1\n      div\n      0xffffffffffffffffffffffffffffffffffffffff\n      and\n      dup2\n      jump\t// out\n        /* \"monad dashboard/NameRegistry.sol\":360:856  function getMyNames() public view returns (string[] memory) {... */\n    tag_15:\n        /* \"monad dashboard/NameRegistry.sol\":403:418  string[] memory */\n      0x60\n        /* \"monad dashboard/NameRegistry.sol\":431:441  uint count */\n      0x00\n        /* \"monad dashboard/NameRegistry.sol\":461:467  uint i */\n      dup1\n        /* \"monad dashboard/NameRegistry.sol\":470:471  1 */\n      0x01\n        /* \"monad dashboard/NameRegistry.sol\":461:471  uint i = 1 */\n      swap1\n      pop\n        /* \"monad dashboard/NameRegistry.sol\":456:555  for (uint i = 1; i <= counter; i++) {... */\n    tag_32:\n        /* \"monad dashboard/NameRegistry.sol\":478:485  counter */\n      sload(0x02)\n        /* \"monad dashboard/NameRegistry.sol\":473:474  i */\n      dup2\n        /* \"monad dashboard/NameRegistry.sol\":473:485  i <= counter */\n      gt\n        /* \"monad dashboard/NameRegistry.sol\":456:555  for (uint i = 1; i <= counter; i++) {... */\n      tag_33\n      jumpi\n        /* \"monad dashboard/NameRegistry.sol\":524:534  msg.sender */\n      caller\n        /* \"monad dashboard/NameRegistry.sol\":511:534  owners[i] == msg.sender */\n      0xffffffffffffffffffffffffffffffffffffffff\n      and\n        /* \"monad dashboard/NameRegistry.sol\":511:517  owners */\n      0x01\n        /* \"monad dashboard/NameRegistry.sol\":511:520  owners[i] */\n      0x00\n        /* \"monad dashboard/NameRegistry.sol\":518:519  i */\n      dup4\n        /* \"monad dashboard/NameRegistry.sol\":511:520  owners[i] */\n      dup2\n      mstore\n      0x20\n      add\n      swap1\n      dup2\n      mstore\n      0x20\n      add\n      0x00\n      keccak256\n      0x00\n      swap1\n      sload\n      swap1\n      0x0100\n      exp\n      swap1\n      div\n      0xffffffffffffffffffffffffffffffffffffffff\n      and\n        /* \"monad dashboard/NameRegistry.sol\":511:534  owners[i] == msg.sender */\n      0xffffffffffffffffffffffffffffffffffffffff\n      and\n      sub\n        /* \"monad dashboard/NameRegistry.sol\":507:543  if (owners[i] == msg.sender) count++ */\n      tag_35\n      jumpi\n        /* \"monad dashboard/NameRegistry.sol\":536:543  count++ */\n      dup2\n      dup1\n      tag_36\n      swap1\n      tag_37\n      jump\t// in\n    tag_36:\n      swap3\n      pop\n      pop\n        /* \"monad dashboard/NameRegistry.sol\":507:543  if (owners[i] == msg.sender) count++ */\n    tag_35:\n        /* \"monad dashboard/NameRegistry.sol\":487:490  i++ */\n      dup1\n      dup1\n      tag_38\n      swap1\n      tag_37\n      jump\t// in\n    tag_38:\n      swap2\n      pop\n      pop\n        /* \"monad dashboard/NameRegistry.sol\":456:555  for (uint i = 1; i <= counter; i++) {... */\n      jump(tag_32)\n    tag_33:\n      pop\n        /* \"monad dashboard/NameRegistry.sol\":567:589  string[] memory result */\n      0x00\n        /* \"monad dashboard/NameRegistry.sol\":605:610  count */\n      dup2\n        /* \"monad dashboard/NameRegistry.sol\":592:611  new string[](count) */\n      0xffffffffffffffff\n      dup2\n      gt\n      iszero\n      tag_39\n      jumpi\n      tag_40\n      tag_41\n      jump\t// in\n    tag_40:\n    tag_39:\n      mload(0x40)\n      swap1\n      dup1\n      dup3\n      mstore\n      dup1\n      0x20\n      mul\n      0x20\n      add\n      dup3\n      add\n      0x40\n      mstore\n      dup1\n      iszero\n      tag_42\n      jumpi\n      dup2\n      0x20\n      add\n    tag_43:\n      0x60\n      dup2\n      mstore\n      0x20\n      add\n      swap1\n      0x01\n      swap1\n      sub\n      swap1\n      dup2\n      tag_43\n      jumpi\n      swap1\n      pop\n    tag_42:\n      pop\n        /* \"monad dashboard/NameRegistry.sol\":567:611  string[] memory result = new string[](count) */\n      swap1\n      pop\n        /* \"monad dashboard/NameRegistry.sol\":622:632  uint index */\n      0x00\n        /* \"monad dashboard/NameRegistry.sol\":652:658  uint i */\n      dup1\n        /* \"monad dashboard/NameRegistry.sol\":661:662  1 */\n      0x01\n        /* \"monad dashboard/NameRegistry.sol\":652:662  uint i = 1 */\n      swap1\n      pop\n        /* \"monad dashboard/NameRegistry.sol\":647:823  for (uint i = 1; i <= counter; i++) {... */\n    tag_44:\n        /* \"monad dashboard/NameRegistry.sol\":669:676  counter */\n      sload(0x02)\n        /* \"monad dashboard/NameRegistry.sol\":664:665  i */\n      dup2\n        /* \"monad dashboard/NameRegistry.sol\":664:676  i <= counter */\n      gt\n        /* \"monad dashboard/NameRegistry.sol\":647:823  for (uint i = 1; i <= counter; i++) {... */\n      tag_45\n      jumpi\n        /* \"monad dashboard/NameRegistry.sol\":715:725  msg.sender */\n      caller\n        /* \"monad dashboard/NameRegistry.sol\":702:725  owners[i] == msg.sender */\n      0xffffffffffffffffffffffffffffffffffffffff\n      and\n        /* \"monad dashboard/NameRegistry.sol\":702:708  owners */\n      0x01\n        /* \"monad dashboard/NameRegistry.sol\":702:711  owners[i] */\n      0x00\n        /* \"monad dashboard/NameRegistry.sol\":709:710  i */\n      dup4\n        /* \"monad dashboard/NameRegistry.sol\":702:711  owners[i] */\n      dup2\n      mstore\n      0x20\n      add\n      swap1\n      dup2\n      mstore\n      0x20\n      add\n      0x00\n      keccak256\n      0x00\n      swap1\n      sload\n      swap1\n      0x0100\n      exp\n      swap1\n      div\n      0xffffffffffffffffffffffffffffffffffffffff\n      and\n        /* \"monad dashboard/NameRegistry.sol\":702:725  owners[i] == msg.sender */\n      0xffffffffffffffffffffffffffffffffffffffff\n      and\n      sub\n        /* \"monad dashboard/NameRegistry.sol\":698:812  if (owners[i] == msg.sender) {... */\n      tag_47\n      jumpi\n        /* \"monad dashboard/NameRegistry.sol\":762:767  names */\n      0x00\n        /* \"monad dashboard/NameRegistry.sol\":762:770  names[i] */\n      dup1\n        /* \"monad dashboard/NameRegistry.sol\":768:769  i */\n      dup3\n        /* \"monad dashboard/NameRegistry.sol\":762:770  names[i] */\n      dup2\n      mstore\n      0x20\n      add\n      swap1\n      dup2\n      mstore\n      0x20\n      add\n      0x00\n      keccak256\n        /* \"monad dashboard/NameRegistry.sol\":746:770  result[index] = names[i] */\n      dup1\n      sload\n      tag_48\n      swap1\n      tag_49\n      jump\t// in\n    tag_48:\n      dup1\n      0x1f\n      add\n      0x20\n      dup1\n      swap2\n      div\n      mul\n      0x20\n      add\n      mload(0x40)\n      swap1\n      dup2\n      add\n      0x40\n      mstore\n      dup1\n      swap3\n      swap2\n      swap1\n      dup2\n      dup2\n      mstore\n      0x20\n      add\n      dup3\n      dup1\n      sload\n      tag_50\n      swap1\n      tag_49\n      jump\t// in\n    tag_50:\n      dup1\n      iszero\n      tag_51\n      jumpi\n      dup1\n      0x1f\n      lt\n      tag_52\n      jumpi\n      0x0100\n      dup1\n      dup4\n      sload\n      div\n      mul\n      dup4\n      mstore\n      swap2\n      0x20\n      add\n      swap2\n      jump(tag_51)\n    tag_52:\n      dup3\n      add\n      swap2\n      swap1\n      0x00\n      mstore\n      keccak256(0x00, 0x20)\n      swap1\n    tag_53:\n      dup2\n      sload\n      dup2\n      mstore\n      swap1\n      0x01\n      add\n      swap1\n      0x20\n      add\n      dup1\n      dup4\n      gt\n      tag_53\n      jumpi\n      dup3\n      swap1\n      sub\n      0x1f\n      and\n      dup3\n      add\n      swap2\n    tag_51:\n      pop\n      pop\n      pop\n      pop\n      pop\n        /* \"monad dashboard/NameRegistry.sol\":746:752  result */\n      dup4\n        /* \"monad dashboard/NameRegistry.sol\":753:758  index */\n      dup4\n        /* \"monad dashboard/NameRegistry.sol\":746:759  result[index] */\n      dup2\n      mload\n      dup2\n      lt\n      tag_54\n      jumpi\n      tag_55\n      tag_56\n      jump\t// in\n    tag_55:\n    tag_54:\n      0x20\n      mul\n      0x20\n      add\n      add\n        /* \"monad dashboard/NameRegistry.sol\":746:770  result[index] = names[i] */\n      dup2\n      swap1\n      mstore\n      pop\n        /* \"monad dashboard/NameRegistry.sol\":789:796  index++ */\n      dup2\n      dup1\n      tag_57\n      swap1\n      tag_37\n      jump\t// in\n    tag_57:\n      swap3\n      pop\n      pop\n        /* \"monad dashboard/NameRegistry.sol\":698:812  if (owners[i] == msg.sender) {... */\n    tag_47:\n        /* \"monad dashboard/NameRegistry.sol\":678:681  i++ */\n      dup1\n      dup1\n      tag_58\n      swap1\n      tag_37\n      jump\t// in\n    tag_58:\n      swap2\n      pop\n      pop\n        /* \"monad dashboard/NameRegistry.sol\":647:823  for (uint i = 1; i <= counter; i++) {... */\n      jump(tag_44)\n    tag_45:\n      pop\n        /* \"monad dashboard/NameRegistry.sol\":842:848  result */\n      dup2\n        /* \"monad dashboard/NameRegistry.sol\":835:848  return result */\n      swap4\n      pop\n      pop\n      pop\n      pop\n        /* \"monad dashboard/NameRegistry.sol\":360:856  function getMyNames() public view returns (string[] memory) {... */\n      swap1\n      jump\t// out\n        /* \"monad dashboard/NameRegistry.sol\":90:126  mapping(uint => string) public names */\n    tag_20:\n      mstore(0x20, 0x00)\n      dup1\n      0x00\n      mstore\n      keccak256(0x00, 0x40)\n      0x00\n      swap2\n      pop\n      swap1\n      pop\n      dup1\n      sload\n      tag_59\n      swap1\n      tag_49\n      jump\t// in\n    tag_59:\n      dup1\n      0x1f\n      add\n      0x20\n      dup1\n      swap2\n      div\n      mul\n      0x20\n      add\n      mload(0x40)\n      swap1\n      dup2\n      add\n      0x40\n      mstore\n      dup1\n      swap3\n      swap2\n      swap1\n      dup2\n      dup2\n      mstore\n      0x20\n      add\n      dup3\n      dup1\n      sload\n      tag_60\n      swap1\n      tag_49\n      jump\t// in\n    tag_60:\n      dup1\n      iszero\n      tag_61\n      jumpi\n      dup1\n      0x1f\n      lt\n      tag_62\n      jumpi\n      0x0100\n      dup1\n      dup4\n      sload\n      div\n      mul\n      dup4\n      mstore\n      swap2\n      0x20\n      add\n      swap2\n      jump(tag_61)\n    tag_62:\n      dup3\n      add\n      swap2\n      swap1\n      0x00\n      mstore\n      keccak256(0x00, 0x20)\n      swap1\n    tag_63:\n      dup2\n      sload\n      dup2\n      mstore\n      swap1\n      0x01\n      add\n      swap1\n      0x20\n      add\n      dup1\n      dup4\n      gt\n      tag_63\n      jumpi\n      dup3\n      swap1\n      sub\n      0x1f\n      and\n      dup3\n      add\n      swap2\n    tag_61:\n      pop\n      pop\n      pop\n      pop\n      pop\n      dup2\n      jump\t// out\n        /* \"monad dashboard/NameRegistry.sol\":178:197  uint public counter */\n    tag_24:\n      sload(0x02)\n      dup2\n      jump\t// out\n        /* \"monad dashboard/NameRegistry.sol\":206:352  function register(string memory _name) public {... */\n    tag_30:\n        /* \"monad dashboard/NameRegistry.sol\":263:270  counter */\n      0x02\n      0x00\n        /* \"monad dashboard/NameRegistry.sol\":263:272  counter++ */\n      dup2\n      sload\n      dup1\n      swap3\n      swap2\n      swap1\n      tag_65\n      swap1\n      tag_37\n      jump\t// in\n    tag_65:\n      swap2\n      swap1\n      pop\n      sstore\n      pop\n        /* \"monad dashboard/NameRegistry.sol\":300:305  _name */\n      dup1\n        /* \"monad dashboard/NameRegistry.sol\":283:288  names */\n      0x00\n        /* \"monad dashboard/NameRegistry.sol\":283:297  names[counter] */\n      dup1\n        /* \"monad dashboard/NameRegistry.sol\":289:296  counter */\n      sload(0x02)\n        /* \"monad dashboard/NameRegistry.sol\":283:297  names[counter] */\n      dup2\n      mstore\n      0x20\n      add\n      swap1\n      dup2\n      mstore\n      0x20\n      add\n      0x00\n      keccak256\n        /* \"monad dashboard/NameRegistry.sol\":283:305  names[counter] = _name */\n      swap1\n      dup2\n      tag_66\n      swap2\n      swap1\n      tag_67\n      jump\t// in\n    tag_66:\n      pop\n        /* \"monad dashboard/NameRegistry.sol\":334:344  msg.sender */\n      caller\n        /* \"monad dashboard/NameRegistry.sol\":316:322  owners */\n      0x01\n        /* \"monad dashboard/NameRegistry.sol\":316:331  owners[counter] */\n      0x00\n        /* \"monad dashboard/NameRegistry.sol\":323:330  counter */\n      sload(0x02)\n        /* \"monad dashboard/NameRegistry.sol\":316:331  owners[counter] */\n      dup2\n      mstore\n      0x20\n      add\n      swap1\n      dup2\n      mstore\n      0x20\n      add\n      0x00\n      keccak256\n      0x00\n        /* \"monad dashboard/NameRegistry.sol\":316:344  owners[counter] = msg.sender */\n      0x0100\n      exp\n      dup2\n      sload\n      dup2\n      0xffffffffffffffffffffffffffffffffffffffff\n      mul\n      not\n      and\n      swap1\n      dup4\n      0xffffffffffffffffffffffffffffffffffffffff\n      and\n      mul\n      or\n      swap1\n      sstore\n      pop\n        /* \"monad dashboard/NameRegistry.sol\":206:352  function register(string memory _name) public {... */\n      pop\n      jump\t// out\n        /* \"#utility.yul\":7:82   */\n    tag_68:\n        /* \"#utility.yul\":40:46   */\n      0x00\n        /* \"#utility.yul\":73:75   */\n      0x40\n        /* \"#utility.yul\":67:76   */\n      mload\n        /* \"#utility.yul\":57:76   */\n      swap1\n      pop\n        /* \"#utility.yul\":7:82   */\n      swap1\n      jump\t// out\n        /* \"#utility.yul\":88:205   */\n    tag_69:\n        /* \"#utility.yul\":197:198   */\n      0x00\n        /* \"#utility.yul\":194:195   */\n      dup1\n        /* \"#utility.yul\":187:199   */\n      revert\n        /* \"#utility.yul\":211:328   */\n    tag_70:\n        /* \"#utility.yul\":320:321   */\n      0x00\n        /* \"#utility.yul\":317:318   */\n      dup1\n        /* \"#utility.yul\":310:322   */\n      revert\n        /* \"#utility.yul\":334:411   */\n    tag_71:\n        /* \"#utility.yul\":371:378   */\n      0x00\n        /* \"#utility.yul\":400:405   */\n      dup2\n        /* \"#utility.yul\":389:405   */\n      swap1\n      pop\n        /* \"#utility.yul\":334:411   */\n      swap2\n      swap1\n      pop\n      jump\t// out\n        /* \"#utility.yul\":417:539   */\n    tag_72:\n        /* \"#utility.yul\":490:514   */\n      tag_122\n        /* \"#utility.yul\":508:513   */\n      dup2\n        /* \"#utility.yul\":490:514   */\n      tag_71\n      jump\t// in\n    tag_122:\n        /* \"#utility.yul\":483:488   */\n      dup2\n        /* \"#utility.yul\":480:515   */\n      eq\n        /* \"#utility.yul\":470:533   */\n      tag_123\n      jumpi\n        /* \"#utility.yul\":529:530   */\n      0x00\n        /* \"#utility.yul\":526:527   */\n      dup1\n        /* \"#utility.yul\":519:531   */\n      revert\n        /* \"#utility.yul\":470:533   */\n    tag_123:\n        /* \"#utility.yul\":417:539   */\n      pop\n      jump\t// out\n        /* \"#utility.yul\":545:684   */\n    tag_73:\n        /* \"#utility.yul\":591:596   */\n      0x00\n        /* \"#utility.yul\":629:635   */\n      dup2\n        /* \"#utility.yul\":616:636   */\n      calldataload\n        /* \"#utility.yul\":607:636   */\n      swap1\n      pop\n        /* \"#utility.yul\":645:678   */\n      tag_125\n        /* \"#utility.yul\":672:677   */\n      dup2\n        /* \"#utility.yul\":645:678   */\n      tag_72\n      jump\t// in\n    tag_125:\n        /* \"#utility.yul\":545:684   */\n      swap3\n      swap2\n      pop\n      pop\n      jump\t// out\n        /* \"#utility.yul\":690:1019   */\n    tag_10:\n        /* \"#utility.yul\":749:755   */\n      0x00\n        /* \"#utility.yul\":798:800   */\n      0x20\n        /* \"#utility.yul\":786:795   */\n      dup3\n        /* \"#utility.yul\":777:784   */\n      dup5\n        /* \"#utility.yul\":773:796   */\n      sub\n        /* \"#utility.yul\":769:801   */\n      slt\n        /* \"#utility.yul\":766:885   */\n      iszero\n      tag_127\n      jumpi\n        /* \"#utility.yul\":804:883   */\n      tag_128\n      tag_69\n      jump\t// in\n    tag_128:\n        /* \"#utility.yul\":766:885   */\n    tag_127:\n        /* \"#utility.yul\":924:925   */\n      0x00\n        /* \"#utility.yul\":949:1002   */\n      tag_129\n        /* \"#utility.yul\":994:1001   */\n      dup5\n        /* \"#utility.yul\":985:991   */\n      dup3\n        /* \"#utility.yul\":974:983   */\n      dup6\n        /* \"#utility.yul\":970:992   */\n      add\n        /* \"#utility.yul\":949:1002   */\n      tag_73\n      jump\t// in\n    tag_129:\n        /* \"#utility.yul\":939:1002   */\n      swap2\n      pop\n        /* \"#utility.yul\":895:1012   */\n      pop\n        /* \"#utility.yul\":690:1019   */\n      swap3\n      swap2\n      pop\n      pop\n      jump\t// out\n        /* \"#utility.yul\":1025:1151   */\n    tag_74:\n        /* \"#utility.yul\":1062:1069   */\n      0x00\n        /* \"#utility.yul\":1102:1144   */\n      0xffffffffffffffffffffffffffffffffffffffff\n        /* \"#utility.yul\":1095:1100   */\n      dup3\n        /* \"#utility.yul\":1091:1145   */\n      and\n        /* \"#utility.yul\":1080:1145   */\n      swap1\n      pop\n        /* \"#utility.yul\":1025:1151   */\n      swap2\n      swap1\n      pop\n      jump\t// out\n        /* \"#utility.yul\":1157:1253   */\n    tag_75:\n        /* \"#utility.yul\":1194:1201   */\n      0x00\n        /* \"#utility.yul\":1223:1247   */\n      tag_132\n        /* \"#utility.yul\":1241:1246   */\n      dup3\n        /* \"#utility.yul\":1223:1247   */\n      tag_74\n      jump\t// in\n    tag_132:\n        /* \"#utility.yul\":1212:1247   */\n      swap1\n      pop\n        /* \"#utility.yul\":1157:1253   */\n      swap2\n      swap1\n      pop\n      jump\t// out\n        /* \"#utility.yul\":1259:1377   */\n    tag_76:\n        /* \"#utility.yul\":1346:1370   */\n      tag_134\n        /* \"#utility.yul\":1364:1369   */\n      dup2\n        /* \"#utility.yul\":1346:1370   */\n      tag_75\n      jump\t// in\n    tag_134:\n        /* \"#utility.yul\":1341:1344   */\n      dup3\n        /* \"#utility.yul\":1334:1371   */\n      mstore\n        /* \"#utility.yul\":1259:1377   */\n      pop\n      pop\n      jump\t// out\n        /* \"#utility.yul\":1383:1605   */\n    tag_13:\n        /* \"#utility.yul\":1476:1480   */\n      0x00\n        /* \"#utility.yul\":1514:1516   */\n      0x20\n        /* \"#utility.yul\":1503:1512   */\n      dup3\n        /* \"#utility.yul\":1499:1517   */\n      add\n        /* \"#utility.yul\":1491:1517   */\n      swap1\n      pop\n        /* \"#utility.yul\":1527:1598   */\n      tag_136\n        /* \"#utility.yul\":1595:1596   */\n      0x00\n        /* \"#utility.yul\":1584:1593   */\n      dup4\n        /* \"#utility.yul\":1580:1597   */\n      add\n        /* \"#utility.yul\":1571:1577   */\n      dup5\n        /* \"#utility.yul\":1527:1598   */\n      tag_76\n      jump\t// in\n    tag_136:\n        /* \"#utility.yul\":1383:1605   */\n      swap3\n      swap2\n      pop\n      pop\n      jump\t// out\n        /* \"#utility.yul\":1611:1735   */\n    tag_77:\n        /* \"#utility.yul\":1688:1694   */\n      0x00\n        /* \"#utility.yul\":1722:1727   */\n      dup2\n        /* \"#utility.yul\":1716:1728   */\n      mload\n        /* \"#utility.yul\":1706:1728   */\n      swap1\n      pop\n        /* \"#utility.yul\":1611:1735   */\n      swap2\n      swap1\n      pop\n      jump\t// out\n        /* \"#utility.yul\":1741:1935   */\n    tag_78:\n        /* \"#utility.yul\":1850:1861   */\n      0x00\n        /* \"#utility.yul\":1884:1890   */\n      dup3\n        /* \"#utility.yul\":1879:1882   */\n      dup3\n        /* \"#utility.yul\":1872:1891   */\n      mstore\n        /* \"#utility.yul\":1924:1928   */\n      0x20\n        /* \"#utility.yul\":1919:1922   */\n      dup3\n        /* \"#utility.yul\":1915:1929   */\n      add\n        /* \"#utility.yul\":1900:1929   */\n      swap1\n      pop\n        /* \"#utility.yul\":1741:1935   */\n      swap3\n      swap2\n      pop\n      pop\n      jump\t// out\n        /* \"#utility.yul\":1941:2083   */\n    tag_79:\n        /* \"#utility.yul\":2018:2022   */\n      0x00\n        /* \"#utility.yul\":2041:2044   */\n      dup2\n        /* \"#utility.yul\":2033:2044   */\n      swap1\n      pop\n        /* \"#utility.yul\":2071:2075   */\n      0x20\n        /* \"#utility.yul\":2066:2069   */\n      dup3\n        /* \"#utility.yul\":2062:2076   */\n      add\n        /* \"#utility.yul\":2054:2076   */\n      swap1\n      pop\n        /* \"#utility.yul\":1941:2083   */\n      swap2\n      swap1\n      pop\n      jump\t// out\n        /* \"#utility.yul\":2089:2188   */\n    tag_80:\n        /* \"#utility.yul\":2141:2147   */\n      0x00\n        /* \"#utility.yul\":2175:2180   */\n      dup2\n        /* \"#utility.yul\":2169:2181   */\n      mload\n        /* \"#utility.yul\":2159:2181   */\n      swap1\n      pop\n        /* \"#utility.yul\":2089:2188   */\n      swap2\n      swap1\n      pop\n      jump\t// out\n        /* \"#utility.yul\":2194:2353   */\n    tag_81:\n        /* \"#utility.yul\":2268:2279   */\n      0x00\n        /* \"#utility.yul\":2302:2308   */\n      dup3\n        /* \"#utility.yul\":2297:2300   */\n      dup3\n        /* \"#utility.yul\":2290:2309   */\n      mstore\n        /* \"#utility.yul\":2342:2346   */\n      0x20\n        /* \"#utility.yul\":2337:2340   */\n      dup3\n        /* \"#utility.yul\":2333:2347   */\n      add\n        /* \"#utility.yul\":2318:2347   */\n      swap1\n      pop\n        /* \"#utility.yul\":2194:2353   */\n      swap3\n      swap2\n      pop\n      pop\n      jump\t// out\n        /* \"#utility.yul\":2359:2605   */\n    tag_82:\n        /* \"#utility.yul\":2440:2441   */\n      0x00\n        /* \"#utility.yul\":2450:2563   */\n    tag_143:\n        /* \"#utility.yul\":2464:2470   */\n      dup4\n        /* \"#utility.yul\":2461:2462   */\n      dup2\n        /* \"#utility.yul\":2458:2471   */\n      lt\n        /* \"#utility.yul\":2450:2563   */\n      iszero\n      tag_145\n      jumpi\n        /* \"#utility.yul\":2549:2550   */\n      dup1\n        /* \"#utility.yul\":2544:2547   */\n      dup3\n        /* \"#utility.yul\":2540:2551   */\n      add\n        /* \"#utility.yul\":2534:2552   */\n      mload\n        /* \"#utility.yul\":2530:2531   */\n      dup2\n        /* \"#utility.yul\":2525:2528   */\n      dup5\n        /* \"#utility.yul\":2521:2532   */\n      add\n        /* \"#utility.yul\":2514:2553   */\n      mstore\n        /* \"#utility.yul\":2486:2488   */\n      0x20\n        /* \"#utility.yul\":2483:2484   */\n      dup2\n        /* \"#utility.yul\":2479:2489   */\n      add\n        /* \"#utility.yul\":2474:2489   */\n      swap1\n      pop\n        /* \"#utility.yul\":2450:2563   */\n      jump(tag_143)\n    tag_145:\n        /* \"#utility.yul\":2597:2598   */\n      0x00\n        /* \"#utility.yul\":2588:2594   */\n      dup5\n        /* \"#utility.yul\":2583:2586   */\n      dup5\n        /* \"#utility.yul\":2579:2595   */\n      add\n        /* \"#utility.yul\":2572:2599   */\n      mstore\n        /* \"#utility.yul\":2421:2605   */\n      pop\n        /* \"#utility.yul\":2359:2605   */\n      pop\n      pop\n      pop\n      jump\t// out\n        /* \"#utility.yul\":2611:2713   */\n    tag_83:\n        /* \"#utility.yul\":2652:2658   */\n      0x00\n        /* \"#utility.yul\":2703:2705   */\n      0x1f\n        /* \"#utility.yul\":2699:2706   */\n      not\n        /* \"#utility.yul\":2694:2696   */\n      0x1f\n        /* \"#utility.yul\":2687:2692   */\n      dup4\n        /* \"#utility.yul\":2683:2697   */\n      add\n        /* \"#utility.yul\":2679:2707   */\n      and\n        /* \"#utility.yul\":2669:2707   */\n      swap1\n      pop\n        /* \"#utility.yul\":2611:2713   */\n      swap2\n      swap1\n      pop\n      jump\t// out\n        /* \"#utility.yul\":2719:3076   */\n    tag_84:\n        /* \"#utility.yul\":2797:2800   */\n      0x00\n        /* \"#utility.yul\":2825:2864   */\n      tag_148\n        /* \"#utility.yul\":2858:2863   */\n      dup3\n        /* \"#utility.yul\":2825:2864   */\n      tag_80\n      jump\t// in\n    tag_148:\n        /* \"#utility.yul\":2880:2941   */\n      tag_149\n        /* \"#utility.yul\":2934:2940   */\n      dup2\n        /* \"#utility.yul\":2929:2932   */\n      dup6\n        /* \"#utility.yul\":2880:2941   */\n      tag_81\n      jump\t// in\n    tag_149:\n        /* \"#utility.yul\":2873:2941   */\n      swap4\n      pop\n        /* \"#utility.yul\":2950:3015   */\n      tag_150\n        /* \"#utility.yul\":3008:3014   */\n      dup2\n        /* \"#utility.yul\":3003:3006   */\n      dup6\n        /* \"#utility.yul\":2996:3000   */\n      0x20\n        /* \"#utility.yul\":2989:2994   */\n      dup7\n        /* \"#utility.yul\":2985:3001   */\n      add\n        /* \"#utility.yul\":2950:3015   */\n      tag_82\n      jump\t// in\n    tag_150:\n        /* \"#utility.yul\":3040:3069   */\n      tag_151\n        /* \"#utility.yul\":3062:3068   */\n      dup2\n        /* \"#utility.yul\":3040:3069   */\n      tag_83\n      jump\t// in\n    tag_151:\n        /* \"#utility.yul\":3035:3038   */\n      dup5\n        /* \"#utility.yul\":3031:3070   */\n      add\n        /* \"#utility.yul\":3024:3070   */\n      swap2\n      pop\n        /* \"#utility.yul\":2801:3076   */\n      pop\n        /* \"#utility.yul\":2719:3076   */\n      swap3\n      swap2\n      pop\n      pop\n      jump\t// out\n        /* \"#utility.yul\":3082:3278   */\n    tag_85:\n        /* \"#utility.yul\":3171:3181   */\n      0x00\n        /* \"#utility.yul\":3206:3272   */\n      tag_153\n        /* \"#utility.yul\":3268:3271   */\n      dup4\n        /* \"#utility.yul\":3260:3266   */\n      dup4\n        /* \"#utility.yul\":3206:3272   */\n      tag_84\n      jump\t// in\n    tag_153:\n        /* \"#utility.yul\":3192:3272   */\n      swap1\n      pop\n        /* \"#utility.yul\":3082:3278   */\n      swap3\n      swap2\n      pop\n      pop\n      jump\t// out\n        /* \"#utility.yul\":3284:3407   */\n    tag_86:\n        /* \"#utility.yul\":3364:3368   */\n      0x00\n        /* \"#utility.yul\":3396:3400   */\n      0x20\n        /* \"#utility.yul\":3391:3394   */\n      dup3\n        /* \"#utility.yul\":3387:3401   */\n      add\n        /* \"#utility.yul\":3379:3401   */\n      swap1\n      pop\n        /* \"#utility.yul\":3284:3407   */\n      swap2\n      swap1\n      pop\n      jump\t// out\n        /* \"#utility.yul\":3441:4432   */\n    tag_87:\n        /* \"#utility.yul\":3580:3583   */\n      0x00\n        /* \"#utility.yul\":3609:3673   */\n      tag_156\n        /* \"#utility.yul\":3667:3672   */\n      dup3\n        /* \"#utility.yul\":3609:3673   */\n      tag_77\n      jump\t// in\n    tag_156:\n        /* \"#utility.yul\":3689:3785   */\n      tag_157\n        /* \"#utility.yul\":3778:3784   */\n      dup2\n        /* \"#utility.yul\":3773:3776   */\n      dup6\n        /* \"#utility.yul\":3689:3785   */\n      tag_78\n      jump\t// in\n    tag_157:\n        /* \"#utility.yul\":3682:3785   */\n      swap4\n      pop\n        /* \"#utility.yul\":3811:3814   */\n      dup4\n        /* \"#utility.yul\":3856:3860   */\n      0x20\n        /* \"#utility.yul\":3848:3854   */\n      dup3\n        /* \"#utility.yul\":3844:3861   */\n      mul\n        /* \"#utility.yul\":3839:3842   */\n      dup6\n        /* \"#utility.yul\":3835:3862   */\n      add\n        /* \"#utility.yul\":3886:3952   */\n      tag_158\n        /* \"#utility.yul\":3946:3951   */\n      dup6\n        /* \"#utility.yul\":3886:3952   */\n      tag_79\n      jump\t// in\n    tag_158:\n        /* \"#utility.yul\":3975:3982   */\n      dup1\n        /* \"#utility.yul\":4006:4007   */\n      0x00\n        /* \"#utility.yul\":3991:4387   */\n    tag_159:\n        /* \"#utility.yul\":4016:4022   */\n      dup6\n        /* \"#utility.yul\":4013:4014   */\n      dup2\n        /* \"#utility.yul\":4010:4023   */\n      lt\n        /* \"#utility.yul\":3991:4387   */\n      iszero\n      tag_161\n      jumpi\n        /* \"#utility.yul\":4087:4096   */\n      dup5\n        /* \"#utility.yul\":4081:4085   */\n      dup5\n        /* \"#utility.yul\":4077:4097   */\n      sub\n        /* \"#utility.yul\":4072:4075   */\n      dup10\n        /* \"#utility.yul\":4065:4098   */\n      mstore\n        /* \"#utility.yul\":4138:4144   */\n      dup2\n        /* \"#utility.yul\":4132:4145   */\n      mload\n        /* \"#utility.yul\":4166:4250   */\n      tag_162\n        /* \"#utility.yul\":4245:4249   */\n      dup6\n        /* \"#utility.yul\":4230:4243   */\n      dup3\n        /* \"#utility.yul\":4166:4250   */\n      tag_85\n      jump\t// in\n    tag_162:\n        /* \"#utility.yul\":4158:4250   */\n      swap5\n      pop\n        /* \"#utility.yul\":4273:4343   */\n      tag_163\n        /* \"#utility.yul\":4336:4342   */\n      dup4\n        /* \"#utility.yul\":4273:4343   */\n      tag_86\n      jump\t// in\n    tag_163:\n        /* \"#utility.yul\":4263:4343   */\n      swap3\n      pop\n        /* \"#utility.yul\":4372:4376   */\n      0x20\n        /* \"#utility.yul\":4367:4370   */\n      dup11\n        /* \"#utility.yul\":4363:4377   */\n      add\n        /* \"#utility.yul\":4356:4377   */\n      swap10\n      pop\n        /* \"#utility.yul\":4051:4387   */\n      pop\n        /* \"#utility.yul\":4038:4039   */\n      0x01\n        /* \"#utility.yul\":4035:4036   */\n      dup2\n        /* \"#utility.yul\":4031:4040   */\n      add\n        /* \"#utility.yul\":4026:4040   */\n      swap1\n      pop\n        /* \"#utility.yul\":3991:4387   */\n      jump(tag_159)\n    tag_161:\n        /* \"#utility.yul\":3995:4009   */\n      pop\n        /* \"#utility.yul\":4403:4407   */\n      dup3\n        /* \"#utility.yul\":4396:4407   */\n      swap8\n      pop\n        /* \"#utility.yul\":4423:4426   */\n      dup8\n        /* \"#utility.yul\":4416:4426   */\n      swap6\n      pop\n        /* \"#utility.yul\":3585:4432   */\n      pop\n      pop\n      pop\n      pop\n      pop\n        /* \"#utility.yul\":3441:4432   */\n      swap3\n      swap2\n      pop\n      pop\n      jump\t// out\n        /* \"#utility.yul\":4438:4851   */\n    tag_17:\n        /* \"#utility.yul\":4601:4605   */\n      0x00\n        /* \"#utility.yul\":4639:4641   */\n      0x20\n        /* \"#utility.yul\":4628:4637   */\n      dup3\n        /* \"#utility.yul\":4624:4642   */\n      add\n        /* \"#utility.yul\":4616:4642   */\n      swap1\n      pop\n        /* \"#utility.yul\":4688:4697   */\n      dup2\n        /* \"#utility.yul\":4682:4686   */\n      dup2\n        /* \"#utility.yul\":4678:4698   */\n      sub\n        /* \"#utility.yul\":4674:4675   */\n      0x00\n        /* \"#utility.yul\":4663:4672   */\n      dup4\n        /* \"#utility.yul\":4659:4676   */\n      add\n        /* \"#utility.yul\":4652:4699   */\n      mstore\n        /* \"#utility.yul\":4716:4844   */\n      tag_165\n        /* \"#utility.yul\":4839:4843   */\n      dup2\n        /* \"#utility.yul\":4830:4836   */\n      dup5\n        /* \"#utility.yul\":4716:4844   */\n      tag_87\n      jump\t// in\n    tag_165:\n        /* \"#utility.yul\":4708:4844   */\n      swap1\n      pop\n        /* \"#utility.yul\":4438:4851   */\n      swap3\n      swap2\n      pop\n      pop\n      jump\t// out\n        /* \"#utility.yul\":4857:5026   */\n    tag_88:\n        /* \"#utility.yul\":4941:4952   */\n      0x00\n        /* \"#utility.yul\":4975:4981   */\n      dup3\n        /* \"#utility.yul\":4970:4973   */\n      dup3\n        /* \"#utility.yul\":4963:4982   */\n      mstore\n        /* \"#utility.yul\":5015:5019   */\n      0x20\n        /* \"#utility.yul\":5010:5013   */\n      dup3\n        /* \"#utility.yul\":5006:5020   */\n      add\n        /* \"#utility.yul\":4991:5020   */\n      swap1\n      pop\n        /* \"#utility.yul\":4857:5026   */\n      swap3\n      swap2\n      pop\n      pop\n      jump\t// out\n        /* \"#utility.yul\":5032:5409   */\n    tag_89:\n        /* \"#utility.yul\":5120:5123   */\n      0x00\n        /* \"#utility.yul\":5148:5187   */\n      tag_168\n        /* \"#utility.yul\":5181:5186   */\n      dup3\n        /* \"#utility.yul\":5148:5187   */\n      tag_80\n      jump\t// in\n    tag_168:\n        /* \"#utility.yul\":5203:5274   */\n      tag_169\n        /* \"#utility.yul\":5267:5273   */\n      dup2\n        /* \"#utility.yul\":5262:5265   */\n      dup6\n        /* \"#utility.yul\":5203:5274   */\n      tag_88\n      jump\t// in\n    tag_169:\n        /* \"#utility.yul\":5196:5274   */\n      swap4\n      pop\n        /* \"#utility.yul\":5283:5348   */\n      tag_170\n        /* \"#utility.yul\":5341:5347   */\n      dup2\n        /* \"#utility.yul\":5336:5339   */\n      dup6\n        /* \"#utility.yul\":5329:5333   */\n      0x20\n        /* \"#utility.yul\":5322:5327   */\n      dup7\n        /* \"#utility.yul\":5318:5334   */\n      add\n        /* \"#utility.yul\":5283:5348   */\n      tag_82\n      jump\t// in\n    tag_170:\n        /* \"#utility.yul\":5373:5402   */\n      tag_171\n        /* \"#utility.yul\":5395:5401   */\n      dup2\n        /* \"#utility.yul\":5373:5402   */\n      tag_83\n      jump\t// in\n    tag_171:\n        /* \"#utility.yul\":5368:5371   */\n      dup5\n        /* \"#utility.yul\":5364:5403   */\n      add\n        /* \"#utility.yul\":5357:5403   */\n      swap2\n      pop\n        /* \"#utility.yul\":5124:5409   */\n      pop\n        /* \"#utility.yul\":5032:5409   */\n      swap3\n      swap2\n      pop\n      pop\n      jump\t// out\n        /* \"#utility.yul\":5415:5728   */\n    tag_22:\n        /* \"#utility.yul\":5528:5532   */\n      0x00\n        /* \"#utility.yul\":5566:5568   */\n      0x20\n        /* \"#utility.yul\":5555:5564   */\n      dup3\n        /* \"#utility.yul\":5551:5569   */\n      add\n        /* \"#utility.yul\":5543:5569   */\n      swap1\n      pop\n        /* \"#utility.yul\":5615:5624   */\n      dup2\n        /* \"#utility.yul\":5609:5613   */\n      dup2\n        /* \"#utility.yul\":5605:5625   */\n      sub\n        /* \"#utility.yul\":5601:5602   */\n      0x00\n        /* \"#utility.yul\":5590:5599   */\n      dup4\n        /* \"#utility.yul\":5586:5603   */\n      add\n        /* \"#utility.yul\":5579:5626   */\n      mstore\n        /* \"#utility.yul\":5643:5721   */\n      tag_173\n        /* \"#utility.yul\":5716:5720   */\n      dup2\n        /* \"#utility.yul\":5707:5713   */\n      dup5\n        /* \"#utility.yul\":5643:5721   */\n      tag_89\n      jump\t// in\n    tag_173:\n        /* \"#utility.yul\":5635:5721   */\n      swap1\n      pop\n        /* \"#utility.yul\":5415:5728   */\n      swap3\n      swap2\n      pop\n      pop\n      jump\t// out\n        /* \"#utility.yul\":5734:5852   */\n    tag_90:\n        /* \"#utility.yul\":5821:5845   */\n      tag_175\n        /* \"#utility.yul\":5839:5844   */\n      dup2\n        /* \"#utility.yul\":5821:5845   */\n      tag_71\n      jump\t// in\n    tag_175:\n        /* \"#utility.yul\":5816:5819   */\n      dup3\n        /* \"#utility.yul\":5809:5846   */\n      mstore\n        /* \"#utility.yul\":5734:5852   */\n      pop\n      pop\n      jump\t// out\n        /* \"#utility.yul\":5858:6080   */\n    tag_26:\n        /* \"#utility.yul\":5951:5955   */\n      0x00\n        /* \"#utility.yul\":5989:5991   */\n      0x20\n        /* \"#utility.yul\":5978:5987   */\n      dup3\n        /* \"#utility.yul\":5974:5992   */\n      add\n        /* \"#utility.yul\":5966:5992   */\n      swap1\n      pop\n        /* \"#utility.yul\":6002:6073   */\n      tag_177\n        /* \"#utility.yul\":6070:6071   */\n      0x00\n        /* \"#utility.yul\":6059:6068   */\n      dup4\n        /* \"#utility.yul\":6055:6072   */\n      add\n        /* \"#utility.yul\":6046:6052   */\n      dup5\n        /* \"#utility.yul\":6002:6073   */\n      tag_90\n      jump\t// in\n    tag_177:\n        /* \"#utility.yul\":5858:6080   */\n      swap3\n      swap2\n      pop\n      pop\n      jump\t// out\n        /* \"#utility.yul\":6086:6203   */\n    tag_91:\n        /* \"#utility.yul\":6195:6196   */\n      0x00\n        /* \"#utility.yul\":6192:6193   */\n      dup1\n        /* \"#utility.yul\":6185:6197   */\n      revert\n        /* \"#utility.yul\":6209:6326   */\n    tag_92:\n        /* \"#utility.yul\":6318:6319   */\n      0x00\n        /* \"#utility.yul\":6315:6316   */\n      dup1\n        /* \"#utility.yul\":6308:6320   */\n      revert\n        /* \"#utility.yul\":6332:6512   */\n    tag_41:\n        /* \"#utility.yul\":6380:6457   */\n      0x4e487b7100000000000000000000000000000000000000000000000000000000\n        /* \"#utility.yul\":6377:6378   */\n      0x00\n        /* \"#utility.yul\":6370:6458   */\n      mstore\n        /* \"#utility.yul\":6477:6481   */\n      0x41\n        /* \"#utility.yul\":6474:6475   */\n      0x04\n        /* \"#utility.yul\":6467:6482   */\n      mstore\n        /* \"#utility.yul\":6501:6505   */\n      0x24\n        /* \"#utility.yul\":6498:6499   */\n      0x00\n        /* \"#utility.yul\":6491:6506   */\n      revert\n        /* \"#utility.yul\":6518:6799   */\n    tag_93:\n        /* \"#utility.yul\":6601:6628   */\n      tag_182\n        /* \"#utility.yul\":6623:6627   */\n      dup3\n        /* \"#utility.yul\":6601:6628   */\n      tag_83\n      jump\t// in\n    tag_182:\n        /* \"#utility.yul\":6593:6599   */\n      dup2\n        /* \"#utility.yul\":6589:6629   */\n      add\n        /* \"#utility.yul\":6731:6737   */\n      dup2\n        /* \"#utility.yul\":6719:6729   */\n      dup2\n        /* \"#utility.yul\":6716:6738   */\n      lt\n        /* \"#utility.yul\":6695:6713   */\n      0xffffffffffffffff\n        /* \"#utility.yul\":6683:6693   */\n      dup3\n        /* \"#utility.yul\":6680:6714   */\n      gt\n        /* \"#utility.yul\":6677:6739   */\n      or\n        /* \"#utility.yul\":6674:6762   */\n      iszero\n      tag_183\n      jumpi\n        /* \"#utility.yul\":6742:6760   */\n      tag_184\n      tag_41\n      jump\t// in\n    tag_184:\n        /* \"#utility.yul\":6674:6762   */\n    tag_183:\n        /* \"#utility.yul\":6782:6792   */\n      dup1\n        /* \"#utility.yul\":6778:6780   */\n      0x40\n        /* \"#utility.yul\":6771:6793   */\n      mstore\n        /* \"#utility.yul\":6561:6799   */\n      pop\n        /* \"#utility.yul\":6518:6799   */\n      pop\n      pop\n      jump\t// out\n        /* \"#utility.yul\":6805:6934   */\n    tag_94:\n        /* \"#utility.yul\":6839:6845   */\n      0x00\n        /* \"#utility.yul\":6866:6886   */\n      tag_186\n      tag_68\n      jump\t// in\n    tag_186:\n        /* \"#utility.yul\":6856:6886   */\n      swap1\n      pop\n        /* \"#utility.yul\":6895:6928   */\n      tag_187\n        /* \"#utility.yul\":6923:6927   */\n      dup3\n        /* \"#utility.yul\":6915:6921   */\n      dup3\n        /* \"#utility.yul\":6895:6928   */\n      tag_93\n      jump\t// in\n    tag_187:\n        /* \"#utility.yul\":6805:6934   */\n      swap2\n      swap1\n      pop\n      jump\t// out\n        /* \"#utility.yul\":6940:7248   */\n    tag_95:\n        /* \"#utility.yul\":7002:7006   */\n      0x00\n        /* \"#utility.yul\":7092:7110   */\n      0xffffffffffffffff\n        /* \"#utility.yul\":7084:7090   */\n      dup3\n        /* \"#utility.yul\":7081:7111   */\n      gt\n        /* \"#utility.yul\":7078:7134   */\n      iszero\n      tag_189\n      jumpi\n        /* \"#utility.yul\":7114:7132   */\n      tag_190\n      tag_41\n      jump\t// in\n    tag_190:\n        /* \"#utility.yul\":7078:7134   */\n    tag_189:\n        /* \"#utility.yul\":7152:7181   */\n      tag_191\n        /* \"#utility.yul\":7174:7180   */\n      dup3\n        /* \"#utility.yul\":7152:7181   */\n      tag_83\n      jump\t// in\n    tag_191:\n        /* \"#utility.yul\":7144:7181   */\n      swap1\n      pop\n        /* \"#utility.yul\":7236:7240   */\n      0x20\n        /* \"#utility.yul\":7230:7234   */\n      dup2\n        /* \"#utility.yul\":7226:7241   */\n      add\n        /* \"#utility.yul\":7218:7241   */\n      swap1\n      pop\n        /* \"#utility.yul\":6940:7248   */\n      swap2\n      swap1\n      pop\n      jump\t// out\n        /* \"#utility.yul\":7254:7400   */\n    tag_96:\n        /* \"#utility.yul\":7351:7357   */\n      dup3\n        /* \"#utility.yul\":7346:7349   */\n      dup2\n        /* \"#utility.yul\":7341:7344   */\n      dup4\n        /* \"#utility.yul\":7328:7358   */\n      calldatacopy\n        /* \"#utility.yul\":7392:7393   */\n      0x00\n        /* \"#utility.yul\":7383:7389   */\n      dup4\n        /* \"#utility.yul\":7378:7381   */\n      dup4\n        /* \"#utility.yul\":7374:7390   */\n      add\n        /* \"#utility.yul\":7367:7394   */\n      mstore\n        /* \"#utility.yul\":7254:7400   */\n      pop\n      pop\n      pop\n      jump\t// out\n        /* \"#utility.yul\":7406:7831   */\n    tag_97:\n        /* \"#utility.yul\":7484:7489   */\n      0x00\n        /* \"#utility.yul\":7509:7575   */\n      tag_194\n        /* \"#utility.yul\":7525:7574   */\n      tag_195\n        /* \"#utility.yul\":7567:7573   */\n      dup5\n        /* \"#utility.yul\":7525:7574   */\n      tag_95\n      jump\t// in\n    tag_195:\n        /* \"#utility.yul\":7509:7575   */\n      tag_94\n      jump\t// in\n    tag_194:\n        /* \"#utility.yul\":7500:7575   */\n      swap1\n      pop\n        /* \"#utility.yul\":7598:7604   */\n      dup3\n        /* \"#utility.yul\":7591:7596   */\n      dup2\n        /* \"#utility.yul\":7584:7605   */\n      mstore\n        /* \"#utility.yul\":7636:7640   */\n      0x20\n        /* \"#utility.yul\":7629:7634   */\n      dup2\n        /* \"#utility.yul\":7625:7641   */\n      add\n        /* \"#utility.yul\":7674:7677   */\n      dup5\n        /* \"#utility.yul\":7665:7671   */\n      dup5\n        /* \"#utility.yul\":7660:7663   */\n      dup5\n        /* \"#utility.yul\":7656:7672   */\n      add\n        /* \"#utility.yul\":7653:7678   */\n      gt\n        /* \"#utility.yul\":7650:7762   */\n      iszero\n      tag_196\n      jumpi\n        /* \"#utility.yul\":7681:7760   */\n      tag_197\n      tag_92\n      jump\t// in\n    tag_197:\n        /* \"#utility.yul\":7650:7762   */\n    tag_196:\n        /* \"#utility.yul\":7771:7825   */\n      tag_198\n        /* \"#utility.yul\":7818:7824   */\n      dup5\n        /* \"#utility.yul\":7813:7816   */\n      dup3\n        /* \"#utility.yul\":7808:7811   */\n      dup6\n        /* \"#utility.yul\":7771:7825   */\n      tag_96\n      jump\t// in\n    tag_198:\n        /* \"#utility.yul\":7490:7831   */\n      pop\n        /* \"#utility.yul\":7406:7831   */\n      swap4\n      swap3\n      pop\n      pop\n      pop\n      jump\t// out\n        /* \"#utility.yul\":7851:8191   */\n    tag_98:\n        /* \"#utility.yul\":7907:7912   */\n      0x00\n        /* \"#utility.yul\":7956:7959   */\n      dup3\n        /* \"#utility.yul\":7949:7953   */\n      0x1f\n        /* \"#utility.yul\":7941:7947   */\n      dup4\n        /* \"#utility.yul\":7937:7954   */\n      add\n        /* \"#utility.yul\":7933:7960   */\n      slt\n        /* \"#utility.yul\":7923:8045   */\n      tag_200\n      jumpi\n        /* \"#utility.yul\":7964:8043   */\n      tag_201\n      tag_91\n      jump\t// in\n    tag_201:\n        /* \"#utility.yul\":7923:8045   */\n    tag_200:\n        /* \"#utility.yul\":8081:8087   */\n      dup2\n        /* \"#utility.yul\":8068:8088   */\n      calldataload\n        /* \"#utility.yul\":8106:8185   */\n      tag_202\n        /* \"#utility.yul\":8181:8184   */\n      dup5\n        /* \"#utility.yul\":8173:8179   */\n      dup3\n        /* \"#utility.yul\":8166:8170   */\n      0x20\n        /* \"#utility.yul\":8158:8164   */\n      dup7\n        /* \"#utility.yul\":8154:8171   */\n      add\n        /* \"#utility.yul\":8106:8185   */\n      tag_97\n      jump\t// in\n    tag_202:\n        /* \"#utility.yul\":8097:8185   */\n      swap2\n      pop\n        /* \"#utility.yul\":7913:8191   */\n      pop\n        /* \"#utility.yul\":7851:8191   */\n      swap3\n      swap2\n      pop\n      pop\n      jump\t// out\n        /* \"#utility.yul\":8197:8706   */\n    tag_29:\n        /* \"#utility.yul\":8266:8272   */\n      0x00\n        /* \"#utility.yul\":8315:8317   */\n      0x20\n        /* \"#utility.yul\":8303:8312   */\n      dup3\n        /* \"#utility.yul\":8294:8301   */\n      dup5\n        /* \"#utility.yul\":8290:8313   */\n      sub\n        /* \"#utility.yul\":8286:8318   */\n      slt\n        /* \"#utility.yul\":8283:8402   */\n      iszero\n      tag_204\n      jumpi\n        /* \"#utility.yul\":8321:8400   */\n      tag_205\n      tag_69\n      jump\t// in\n    tag_205:\n        /* \"#utility.yul\":8283:8402   */\n    tag_204:\n        /* \"#utility.yul\":8469:8470   */\n      0x00\n        /* \"#utility.yul\":8458:8467   */\n      dup3\n        /* \"#utility.yul\":8454:8471   */\n      add\n        /* \"#utility.yul\":8441:8472   */\n      calldataload\n        /* \"#utility.yul\":8499:8517   */\n      0xffffffffffffffff\n        /* \"#utility.yul\":8491:8497   */\n      dup2\n        /* \"#utility.yul\":8488:8518   */\n      gt\n        /* \"#utility.yul\":8485:8602   */\n      iszero\n      tag_206\n      jumpi\n        /* \"#utility.yul\":8521:8600   */\n      tag_207\n      tag_70\n      jump\t// in\n    tag_207:\n        /* \"#utility.yul\":8485:8602   */\n    tag_206:\n        /* \"#utility.yul\":8626:8689   */\n      tag_208\n        /* \"#utility.yul\":8681:8688   */\n      dup5\n        /* \"#utility.yul\":8672:8678   */\n      dup3\n        /* \"#utility.yul\":8661:8670   */\n      dup6\n        /* \"#utility.yul\":8657:8679   */\n      add\n        /* \"#utility.yul\":8626:8689   */\n      tag_98\n      jump\t// in\n    tag_208:\n        /* \"#utility.yul\":8616:8689   */\n      swap2\n      pop\n        /* \"#utility.yul\":8412:8699   */\n      pop\n        /* \"#utility.yul\":8197:8706   */\n      swap3\n      swap2\n      pop\n      pop\n      jump\t// out\n        /* \"#utility.yul\":8712:8892   */\n    tag_99:\n        /* \"#utility.yul\":8760:8837   */\n      0x4e487b7100000000000000000000000000000000000000000000000000000000\n        /* \"#utility.yul\":8757:8758   */\n      0x00\n        /* \"#utility.yul\":8750:8838   */\n      mstore\n        /* \"#utility.yul\":8857:8861   */\n      0x11\n        /* \"#utility.yul\":8854:8855   */\n      0x04\n        /* \"#utility.yul\":8847:8862   */\n      mstore\n        /* \"#utility.yul\":8881:8885   */\n      0x24\n        /* \"#utility.yul\":8878:8879   */\n      0x00\n        /* \"#utility.yul\":8871:8886   */\n      revert\n        /* \"#utility.yul\":8898:9131   */\n    tag_37:\n        /* \"#utility.yul\":8937:8940   */\n      0x00\n        /* \"#utility.yul\":8960:8984   */\n      tag_211\n        /* \"#utility.yul\":8978:8983   */\n      dup3\n        /* \"#utility.yul\":8960:8984   */\n      tag_71\n      jump\t// in\n    tag_211:\n        /* \"#utility.yul\":8951:8984   */\n      swap2\n      pop\n        /* \"#utility.yul\":9006:9072   */\n      0xffffffffffffffffffffffffffffffffffffffffffffffffffffffffffffffff\n        /* \"#utility.yul\":8999:9004   */\n      dup3\n        /* \"#utility.yul\":8996:9073   */\n      sub\n        /* \"#utility.yul\":8993:9096   */\n      tag_212\n      jumpi\n        /* \"#utility.yul\":9076:9094   */\n      tag_213\n      tag_99\n      jump\t// in\n    tag_213:\n        /* \"#utility.yul\":8993:9096   */\n    tag_212:\n        /* \"#utility.yul\":9123:9124   */\n      0x01\n        /* \"#utility.yul\":9116:9121   */\n      dup3\n        /* \"#utility.yul\":9112:9125   */\n      add\n        /* \"#utility.yul\":9105:9125   */\n      swap1\n      pop\n        /* \"#utility.yul\":8898:9131   */\n      swap2\n      swap1\n      pop\n      jump\t// out\n        /* \"#utility.yul\":9137:9317   */\n    tag_100:\n        /* \"#utility.yul\":9185:9262   */\n      0x4e487b7100000000000000000000000000000000000000000000000000000000\n        /* \"#utility.yul\":9182:9183   */\n      0x00\n        /* \"#utility.yul\":9175:9263   */\n      mstore\n        /* \"#utility.yul\":9282:9286   */\n      0x22\n        /* \"#utility.yul\":9279:9280   */\n      0x04\n        /* \"#utility.yul\":9272:9287   */\n      mstore\n        /* \"#utility.yul\":9306:9310   */\n      0x24\n        /* \"#utility.yul\":9303:9304   */\n      0x00\n        /* \"#utility.yul\":9296:9311   */\n      revert\n        /* \"#utility.yul\":9323:9643   */\n    tag_49:\n        /* \"#utility.yul\":9367:9373   */\n      0x00\n        /* \"#utility.yul\":9404:9405   */\n      0x02\n        /* \"#utility.yul\":9398:9402   */\n      dup3\n        /* \"#utility.yul\":9394:9406   */\n      div\n        /* \"#utility.yul\":9384:9406   */\n      swap1\n      pop\n        /* \"#utility.yul\":9451:9452   */\n      0x01\n        /* \"#utility.yul\":9445:9449   */\n      dup3\n        /* \"#utility.yul\":9441:9453   */\n      and\n        /* \"#utility.yul\":9472:9490   */\n      dup1\n        /* \"#utility.yul\":9462:9543   */\n      tag_216\n      jumpi\n        /* \"#utility.yul\":9528:9532   */\n      0x7f\n        /* \"#utility.yul\":9520:9526   */\n      dup3\n        /* \"#utility.yul\":9516:9533   */\n      and\n        /* \"#utility.yul\":9506:9533   */\n      swap2\n      pop\n        /* \"#utility.yul\":9462:9543   */\n    tag_216:\n        /* \"#utility.yul\":9590:9592   */\n      0x20\n        /* \"#utility.yul\":9582:9588   */\n      dup3\n        /* \"#utility.yul\":9579:9593   */\n      lt\n        /* \"#utility.yul\":9559:9577   */\n      dup2\n        /* \"#utility.yul\":9556:9594   */\n      sub\n        /* \"#utility.yul\":9553:9637   */\n      tag_217\n      jumpi\n        /* \"#utility.yul\":9609:9627   */\n      tag_218\n      tag_100\n      jump\t// in\n    tag_218:\n        /* \"#utility.yul\":9553:9637   */\n    tag_217:\n        /* \"#utility.yul\":9374:9643   */\n      pop\n        /* \"#utility.yul\":9323:9643   */\n      swap2\n      swap1\n      pop\n      jump\t// out\n        /* \"#utility.yul\":9649:9829   */\n    tag_56:\n        /* \"#utility.yul\":9697:9774   */\n      0x4e487b7100000000000000000000000000000000000000000000000000000000\n        /* \"#utility.yul\":9694:9695   */\n      0x00\n        /* \"#utility.yul\":9687:9775   */\n      mstore\n        /* \"#utility.yul\":9794:9798   */\n      0x32\n        /* \"#utility.yul\":9791:9792   */\n      0x04\n        /* \"#utility.yul\":9784:9799   */\n      mstore\n        /* \"#utility.yul\":9818:9822   */\n      0x24\n        /* \"#utility.yul\":9815:9816   */\n      0x00\n        /* \"#utility.yul\":9808:9823   */\n      revert\n        /* \"#utility.yul\":9835:9976   */\n    tag_101:\n        /* \"#utility.yul\":9884:9888   */\n      0x00\n        /* \"#utility.yul\":9907:9910   */\n      dup2\n        /* \"#utility.yul\":9899:9910   */\n      swap1\n      pop\n        /* \"#utility.yul\":9930:9933   */\n      dup2\n        /* \"#utility.yul\":9927:9928   */\n      0x00\n        /* \"#utility.yul\":9920:9934   */\n      mstore\n        /* \"#utility.yul\":9964:9968   */\n      0x20\n        /* \"#utility.yul\":9961:9962   */\n      0x00\n        /* \"#utility.yul\":9951:9969   */\n      keccak256\n        /* \"#utility.yul\":9943:9969   */\n      swap1\n      pop\n        /* \"#utility.yul\":9835:9976   */\n      swap2\n      swap1\n      pop\n      jump\t// out\n        /* \"#utility.yul\":9982:10075   */\n    tag_102:\n        /* \"#utility.yul\":10019:10025   */\n      0x00\n        /* \"#utility.yul\":10066:10068   */\n      0x20\n        /* \"#utility.yul\":10061:10063   */\n      0x1f\n        /* \"#utility.yul\":10054:10059   */\n      dup4\n        /* \"#utility.yul\":10050:10064   */\n      add\n        /* \"#utility.yul\":10046:10069   */\n      div\n        /* \"#utility.yul\":10036:10069   */\n      swap1\n      pop\n        /* \"#utility.yul\":9982:10075   */\n      swap2\n      swap1\n      pop\n      jump\t// out\n        /* \"#utility.yul\":10081:10188   */\n    tag_103:\n        /* \"#utility.yul\":10125:10133   */\n      0x00\n        /* \"#utility.yul\":10175:10180   */\n      dup3\n        /* \"#utility.yul\":10169:10173   */\n      dup3\n        /* \"#utility.yul\":10165:10181   */\n      shl\n        /* \"#utility.yul\":10144:10181   */\n      swap1\n      pop\n        /* \"#utility.yul\":10081:10188   */\n      swap3\n      swap2\n      pop\n      pop\n      jump\t// out\n        /* \"#utility.yul\":10194:10587   */\n    tag_104:\n        /* \"#utility.yul\":10263:10269   */\n      0x00\n        /* \"#utility.yul\":10313:10314   */\n      0x08\n        /* \"#utility.yul\":10301:10311   */\n      dup4\n        /* \"#utility.yul\":10297:10315   */\n      mul\n        /* \"#utility.yul\":10336:10433   */\n      tag_224\n        /* \"#utility.yul\":10366:10432   */\n      0xffffffffffffffffffffffffffffffffffffffffffffffffffffffffffffffff\n        /* \"#utility.yul\":10355:10364   */\n      dup3\n        /* \"#utility.yul\":10336:10433   */\n      tag_103\n      jump\t// in\n    tag_224:\n        /* \"#utility.yul\":10454:10493   */\n      tag_225\n        /* \"#utility.yul\":10484:10492   */\n      dup7\n        /* \"#utility.yul\":10473:10482   */\n      dup4\n        /* \"#utility.yul\":10454:10493   */\n      tag_103\n      jump\t// in\n    tag_225:\n        /* \"#utility.yul\":10442:10493   */\n      swap6\n      pop\n        /* \"#utility.yul\":10526:10530   */\n      dup1\n        /* \"#utility.yul\":10522:10531   */\n      not\n        /* \"#utility.yul\":10515:10520   */\n      dup5\n        /* \"#utility.yul\":10511:10532   */\n      and\n        /* \"#utility.yul\":10502:10532   */\n      swap4\n      pop\n        /* \"#utility.yul\":10575:10579   */\n      dup1\n        /* \"#utility.yul\":10565:10573   */\n      dup7\n        /* \"#utility.yul\":10561:10580   */\n      and\n        /* \"#utility.yul\":10554:10559   */\n      dup5\n        /* \"#utility.yul\":10551:10581   */\n      or\n        /* \"#utility.yul\":10541:10581   */\n      swap3\n      pop\n        /* \"#utility.yul\":10270:10587   */\n      pop\n      pop\n        /* \"#utility.yul\":10194:10587   */\n      swap4\n      swap3\n      pop\n      pop\n      pop\n      jump\t// out\n        /* \"#utility.yul\":10593:10653   */\n    tag_105:\n        /* \"#utility.yul\":10621:10624   */\n      0x00\n        /* \"#utility.yul\":10642:10647   */\n      dup2\n        /* \"#utility.yul\":10635:10647   */\n      swap1\n      pop\n        /* \"#utility.yul\":10593:10653   */\n      swap2\n      swap1\n      pop\n      jump\t// out\n        /* \"#utility.yul\":10659:10801   */\n    tag_106:\n        /* \"#utility.yul\":10709:10718   */\n      0x00\n        /* \"#utility.yul\":10742:10795   */\n      tag_228\n        /* \"#utility.yul\":10760:10794   */\n      tag_229\n        /* \"#utility.yul\":10769:10793   */\n      tag_230\n        /* \"#utility.yul\":10787:10792   */\n      dup5\n        /* \"#utility.yul\":10769:10793   */\n      tag_71\n      jump\t// in\n    tag_230:\n        /* \"#utility.yul\":10760:10794   */\n      tag_105\n      jump\t// in\n    tag_229:\n        /* \"#utility.yul\":10742:10795   */\n      tag_71\n      jump\t// in\n    tag_228:\n        /* \"#utility.yul\":10729:10795   */\n      swap1\n      pop\n        /* \"#utility.yul\":10659:10801   */\n      swap2\n      swap1\n      pop\n      jump\t// out\n        /* \"#utility.yul\":10807:10882   */\n    tag_107:\n        /* \"#utility.yul\":10850:10853   */\n      0x00\n        /* \"#utility.yul\":10871:10876   */\n      dup2\n        /* \"#utility.yul\":10864:10876   */\n      swap1\n      pop\n        /* \"#utility.yul\":10807:10882   */\n      swap2\n      swap1\n      pop\n      jump\t// out\n        /* \"#utility.yul\":10888:11157   */\n    tag_108:\n        /* \"#utility.yul\":10998:11037   */\n      tag_233\n        /* \"#utility.yul\":11029:11036   */\n      dup4\n        /* \"#utility.yul\":10998:11037   */\n      tag_106\n      jump\t// in\n    tag_233:\n        /* \"#utility.yul\":11059:11150   */\n      tag_234\n        /* \"#utility.yul\":11108:11149   */\n      tag_235\n        /* \"#utility.yul\":11132:11148   */\n      dup3\n        /* \"#utility.yul\":11108:11149   */\n      tag_107\n      jump\t// in\n    tag_235:\n        /* \"#utility.yul\":11100:11106   */\n      dup5\n        /* \"#utility.yul\":11093:11097   */\n      dup5\n        /* \"#utility.yul\":11087:11098   */\n      sload\n        /* \"#utility.yul\":11059:11150   */\n      tag_104\n      jump\t// in\n    tag_234:\n        /* \"#utility.yul\":11053:11057   */\n      dup3\n        /* \"#utility.yul\":11046:11151   */\n      sstore\n        /* \"#utility.yul\":10964:11157   */\n      pop\n        /* \"#utility.yul\":10888:11157   */\n      pop\n      pop\n      pop\n      jump\t// out\n        /* \"#utility.yul\":11163:11236   */\n    tag_109:\n        /* \"#utility.yul\":11208:11211   */\n      0x00\n        /* \"#utility.yul\":11163:11236   */\n      swap1\n      jump\t// out\n        /* \"#utility.yul\":11242:11431   */\n    tag_110:\n        /* \"#utility.yul\":11319:11351   */\n      tag_238\n      tag_109\n      jump\t// in\n    tag_238:\n        /* \"#utility.yul\":11360:11425   */\n      tag_239\n        /* \"#utility.yul\":11418:11424   */\n      dup2\n        /* \"#utility.yul\":11410:11416   */\n      dup5\n        /* \"#utility.yul\":11404:11408   */\n      dup5\n        /* \"#utility.yul\":11360:11425   */\n      tag_108\n      jump\t// in\n    tag_239:\n        /* \"#utility.yul\":11295:11431   */\n      pop\n        /* \"#utility.yul\":11242:11431   */\n      pop\n      pop\n      jump\t// out\n        /* \"#utility.yul\":11437:11623   */\n    tag_111:\n        /* \"#utility.yul\":11497:11617   */\n    tag_241:\n        /* \"#utility.yul\":11514:11517   */\n      dup2\n        /* \"#utility.yul\":11507:11512   */\n      dup2\n        /* \"#utility.yul\":11504:11518   */\n      lt\n        /* \"#utility.yul\":11497:11617   */\n      iszero\n      tag_243\n      jumpi\n        /* \"#utility.yul\":11568:11607   */\n      tag_244\n        /* \"#utility.yul\":11605:11606   */\n      0x00\n        /* \"#utility.yul\":11598:11603   */\n      dup3\n        /* \"#utility.yul\":11568:11607   */\n      tag_110\n      jump\t// in\n    tag_244:\n        /* \"#utility.yul\":11541:11542   */\n      0x01\n        /* \"#utility.yul\":11534:11539   */\n      dup2\n        /* \"#utility.yul\":11530:11543   */\n      add\n        /* \"#utility.yul\":11521:11543   */\n      swap1\n      pop\n        /* \"#utility.yul\":11497:11617   */\n      jump(tag_241)\n    tag_243:\n        /* \"#utility.yul\":11437:11623   */\n      pop\n      pop\n      jump\t// out\n        /* \"#utility.yul\":11629:12172   */\n    tag_112:\n        /* \"#utility.yul\":11730:11732   */\n      0x1f\n        /* \"#utility.yul\":11725:11728   */\n      dup3\n        /* \"#utility.yul\":11722:11733   */\n      gt\n        /* \"#utility.yul\":11719:12165   */\n      iszero\n      tag_246\n      jumpi\n        /* \"#utility.yul\":11764:11802   */\n      tag_247\n        /* \"#utility.yul\":11796:11801   */\n      dup2\n        /* \"#utility.yul\":11764:11802   */\n      tag_101\n      jump\t// in\n    tag_247:\n        /* \"#utility.yul\":11848:11877   */\n      tag_248\n        /* \"#utility.yul\":11866:11876   */\n      dup5\n        /* \"#utility.yul\":11848:11877   */\n      tag_102\n      jump\t// in\n    tag_248:\n        /* \"#utility.yul\":11838:11846   */\n      dup2\n        /* \"#utility.yul\":11834:11878   */\n      add\n        /* \"#utility.yul\":12031:12033   */\n      0x20\n        /* \"#utility.yul\":12019:12029   */\n      dup6\n        /* \"#utility.yul\":12016:12034   */\n      lt\n        /* \"#utility.yul\":12013:12062   */\n      iszero\n      tag_249\n      jumpi\n        /* \"#utility.yul\":12052:12060   */\n      dup2\n        /* \"#utility.yul\":12037:12060   */\n      swap1\n      pop\n        /* \"#utility.yul\":12013:12062   */\n    tag_249:\n        /* \"#utility.yul\":12075:12155   */\n      tag_250\n        /* \"#utility.yul\":12131:12153   */\n      tag_251\n        /* \"#utility.yul\":12149:12152   */\n      dup6\n        /* \"#utility.yul\":12131:12153   */\n      tag_102\n      jump\t// in\n    tag_251:\n        /* \"#utility.yul\":12121:12129   */\n      dup4\n        /* \"#utility.yul\":12117:12154   */\n      add\n        /* \"#utility.yul\":12104:12115   */\n      dup3\n        /* \"#utility.yul\":12075:12155   */\n      tag_111\n      jump\t// in\n    tag_250:\n        /* \"#utility.yul\":11734:12165   */\n      pop\n      pop\n        /* \"#utility.yul\":11719:12165   */\n    tag_246:\n        /* \"#utility.yul\":11629:12172   */\n      pop\n      pop\n      pop\n      jump\t// out\n        /* \"#utility.yul\":12178:12295   */\n    tag_113:\n        /* \"#utility.yul\":12232:12240   */\n      0x00\n        /* \"#utility.yul\":12282:12287   */\n      dup3\n        /* \"#utility.yul\":12276:12280   */\n      dup3\n        /* \"#utility.yul\":12272:12288   */\n      shr\n        /* \"#utility.yul\":12251:12288   */\n      swap1\n      pop\n        /* \"#utility.yul\":12178:12295   */\n      swap3\n      swap2\n      pop\n      pop\n      jump\t// out\n        /* \"#utility.yul\":12301:12470   */\n    tag_114:\n        /* \"#utility.yul\":12345:12351   */\n      0x00\n        /* \"#utility.yul\":12378:12429   */\n      tag_254\n        /* \"#utility.yul\":12426:12427   */\n      0x00\n        /* \"#utility.yul\":12422:12428   */\n      not\n        /* \"#utility.yul\":12414:12419   */\n      dup5\n        /* \"#utility.yul\":12411:12412   */\n      0x08\n        /* \"#utility.yul\":12407:12420   */\n      mul\n        /* \"#utility.yul\":12378:12429   */\n      tag_113\n      jump\t// in\n    tag_254:\n        /* \"#utility.yul\":12374:12430   */\n      not\n        /* \"#utility.yul\":12459:12463   */\n      dup1\n        /* \"#utility.yul\":12453:12457   */\n      dup4\n        /* \"#utility.yul\":12449:12464   */\n      and\n        /* \"#utility.yul\":12439:12464   */\n      swap2\n      pop\n        /* \"#utility.yul\":12352:12470   */\n      pop\n        /* \"#utility.yul\":12301:12470   */\n      swap3\n      swap2\n      pop\n      pop\n      jump\t// out\n        /* \"#utility.yul\":12475:12770   */\n    tag_115:\n        /* \"#utility.yul\":12551:12555   */\n      0x00\n        /* \"#utility.yul\":12697:12726   */\n      tag_256\n        /* \"#utility.yul\":12722:12725   */\n      dup4\n        /* \"#utility.yul\":12716:12720   */\n      dup4\n        /* \"#utility.yul\":12697:12726   */\n      tag_114\n      jump\t// in\n    tag_256:\n        /* \"#utility.yul\":12689:12726   */\n      swap2\n      pop\n        /* \"#utility.yul\":12759:12762   */\n      dup3\n        /* \"#utility.yul\":12756:12757   */\n      0x02\n        /* \"#utility.yul\":12752:12763   */\n      mul\n        /* \"#utility.yul\":12746:12750   */\n      dup3\n        /* \"#utility.yul\":12743:12764   */\n      or\n        /* \"#utility.yul\":12735:12764   */\n      swap1\n      pop\n        /* \"#utility.yul\":12475:12770   */\n      swap3\n      swap2\n      pop\n      pop\n      jump\t// out\n        /* \"#utility.yul\":12775:14170   */\n    tag_67:\n        /* \"#utility.yul\":12892:12929   */\n      tag_258\n        /* \"#utility.yul\":12925:12928   */\n      dup3\n        /* \"#utility.yul\":12892:12929   */\n      tag_80\n      jump\t// in\n    tag_258:\n        /* \"#utility.yul\":12994:13012   */\n      0xffffffffffffffff\n        /* \"#utility.yul\":12986:12992   */\n      dup2\n        /* \"#utility.yul\":12983:13013   */\n      gt\n        /* \"#utility.yul\":12980:13036   */\n      iszero\n      tag_259\n      jumpi\n        /* \"#utility.yul\":13016:13034   */\n      tag_260\n      tag_41\n      jump\t// in\n    tag_260:\n        /* \"#utility.yul\":12980:13036   */\n    tag_259:\n        /* \"#utility.yul\":13060:13098   */\n      tag_261\n        /* \"#utility.yul\":13092:13096   */\n      dup3\n        /* \"#utility.yul\":13086:13097   */\n      sload\n        /* \"#utility.yul\":13060:13098   */\n      tag_49\n      jump\t// in\n    tag_261:\n        /* \"#utility.yul\":13145:13212   */\n      tag_262\n        /* \"#utility.yul\":13205:13211   */\n      dup3\n        /* \"#utility.yul\":13197:13203   */\n      dup3\n        /* \"#utility.yul\":13191:13195   */\n      dup6\n        /* \"#utility.yul\":13145:13212   */\n      tag_112\n      jump\t// in\n    tag_262:\n        /* \"#utility.yul\":13239:13240   */\n      0x00\n        /* \"#utility.yul\":13263:13267   */\n      0x20\n        /* \"#utility.yul\":13250:13267   */\n      swap1\n      pop\n        /* \"#utility.yul\":13295:13297   */\n      0x1f\n        /* \"#utility.yul\":13287:13293   */\n      dup4\n        /* \"#utility.yul\":13284:13298   */\n      gt\n        /* \"#utility.yul\":13312:13313   */\n      0x01\n        /* \"#utility.yul\":13307:13925   */\n      dup2\n      eq\n      tag_264\n      jumpi\n        /* \"#utility.yul\":13969:13970   */\n      0x00\n        /* \"#utility.yul\":13986:13992   */\n      dup5\n        /* \"#utility.yul\":13983:14060   */\n      iszero\n      tag_265\n      jumpi\n        /* \"#utility.yul\":14035:14044   */\n      dup3\n        /* \"#utility.yul\":14030:14033   */\n      dup8\n        /* \"#utility.yul\":14026:14045   */\n      add\n        /* \"#utility.yul\":14020:14046   */\n      mload\n        /* \"#utility.yul\":14011:14046   */\n      swap1\n      pop\n        /* \"#utility.yul\":13983:14060   */\n    tag_265:\n        /* \"#utility.yul\":14086:14153   */\n      tag_266\n        /* \"#utility.yul\":14146:14152   */\n      dup6\n        /* \"#utility.yul\":14139:14144   */\n      dup3\n        /* \"#utility.yul\":14086:14153   */\n      tag_115\n      jump\t// in\n    tag_266:\n        /* \"#utility.yul\":14080:14084   */\n      dup7\n        /* \"#utility.yul\":14073:14154   */\n      sstore\n        /* \"#utility.yul\":13942:14164   */\n      pop\n        /* \"#utility.yul\":13277:14164   */\n      jump(tag_263)\n        /* \"#utility.yul\":13307:13925   */\n    tag_264:\n        /* \"#utility.yul\":13359:13363   */\n      0x1f\n        /* \"#utility.yul\":13355:13364   */\n      not\n        /* \"#utility.yul\":13347:13353   */\n      dup5\n        /* \"#utility.yul\":13343:13365   */\n      and\n        /* \"#utility.yul\":13393:13430   */\n      tag_267\n        /* \"#utility.yul\":13425:13429   */\n      dup7\n        /* \"#utility.yul\":13393:13430   */\n      tag_101\n      jump\t// in\n    tag_267:\n        /* \"#utility.yul\":13452:13453   */\n      0x00\n        /* \"#utility.yul\":13466:13674   */\n    tag_268:\n        /* \"#utility.yul\":13480:13487   */\n      dup3\n        /* \"#utility.yul\":13477:13478   */\n      dup2\n        /* \"#utility.yul\":13474:13488   */\n      lt\n        /* \"#utility.yul\":13466:13674   */\n      iszero\n      tag_270\n      jumpi\n        /* \"#utility.yul\":13559:13568   */\n      dup5\n        /* \"#utility.yul\":13554:13557   */\n      dup10\n        /* \"#utility.yul\":13550:13569   */\n      add\n        /* \"#utility.yul\":13544:13570   */\n      mload\n        /* \"#utility.yul\":13536:13542   */\n      dup3\n        /* \"#utility.yul\":13529:13571   */\n      sstore\n        /* \"#utility.yul\":13610:13611   */\n      0x01\n        /* \"#utility.yul\":13602:13608   */\n      dup3\n        /* \"#utility.yul\":13598:13612   */\n      add\n        /* \"#utility.yul\":13588:13612   */\n      swap2\n      pop\n        /* \"#utility.yul\":13657:13659   */\n      0x20\n        /* \"#utility.yul\":13646:13655   */\n      dup6\n        /* \"#utility.yul\":13642:13660   */\n      add\n        /* \"#utility.yul\":13629:13660   */\n      swap5\n      pop\n        /* \"#utility.yul\":13503:13507   */\n      0x20\n        /* \"#utility.yul\":13500:13501   */\n      dup2\n        /* \"#utility.yul\":13496:13508   */\n      add\n        /* \"#utility.yul\":13491:13508   */\n      swap1\n      pop\n        /* \"#utility.yul\":13466:13674   */\n      jump(tag_268)\n    tag_270:\n        /* \"#utility.yul\":13702:13708   */\n      dup7\n        /* \"#utility.yul\":13693:13700   */\n      dup4\n        /* \"#utility.yul\":13690:13709   */\n      lt\n        /* \"#utility.yul\":13687:13866   */\n      iszero\n      tag_271\n      jumpi\n        /* \"#utility.yul\":13760:13769   */\n      dup5\n        /* \"#utility.yul\":13755:13758   */\n      dup10\n        /* \"#utility.yul\":13751:13770   */\n      add\n        /* \"#utility.yul\":13745:13771   */\n      mload\n        /* \"#utility.yul\":13803:13851   */\n      tag_272\n        /* \"#utility.yul\":13845:13849   */\n      0x1f\n        /* \"#utility.yul\":13837:13843   */\n      dup10\n        /* \"#utility.yul\":13833:13850   */\n      and\n        /* \"#utility.yul\":13822:13831   */\n      dup3\n        /* \"#utility.yul\":13803:13851   */\n      tag_114\n      jump\t// in\n    tag_272:\n        /* \"#utility.yul\":13795:13801   */\n      dup4\n        /* \"#utility.yul\":13788:13852   */\n      sstore\n        /* \"#utility.yul\":13710:13866   */\n      pop\n        /* \"#utility.yul\":13687:13866   */\n    tag_271:\n        /* \"#utility.yul\":13912:13913   */\n      0x01\n        /* \"#utility.yul\":13908:13909   */\n      0x02\n        /* \"#utility.yul\":13900:13906   */\n      dup9\n        /* \"#utility.yul\":13896:13910   */\n      mul\n        /* \"#utility.yul\":13892:13914   */\n      add\n        /* \"#utility.yul\":13886:13890   */\n      dup9\n        /* \"#utility.yul\":13879:13915   */\n      sstore\n        /* \"#utility.yul\":13314:13925   */\n      pop\n      pop\n      pop\n        /* \"#utility.yul\":13277:14164   */\n    tag_263:\n      pop\n        /* \"#utility.yul\":12867:14170   */\n      pop\n      pop\n      pop\n        /* \"#utility.yul\":12775:14170   */\n      pop\n      pop\n      jump\t// out\n\n    auxdata: 0xa2646970667358221220670910aaf5f0954273b0c6bd6490376645d949c7775615bb05d429c710ac307f64736f6c63430008170033\n}\n",
				"bytecode": {
					"linkReferences": {},
					"object": "608060405234801561000f575f80fd5b50610c788061001d5f395ff3fe608060405234801561000f575f80fd5b5060043610610055575f3560e01c8063025e7c2714610059578063285cb06a146100895780634622ab03146100a757806361bc221a146100d7578063f2c298be146100f5575b5f80fd5b610073600480360381019061006e91906104ed565b610111565b6040516100809190610557565b60405180910390f35b610091610141565b60405161009e91906106b5565b60405180910390f35b6100c160048036038101906100bc91906104ed565b61037e565b6040516100ce919061071d565b60405180910390f35b6100df610418565b6040516100ec919061074c565b60405180910390f35b61010f600480360381019061010a9190610891565b61041e565b005b6001602052805f5260405f205f915054906101000a900473ffffffffffffffffffffffffffffffffffffffff1681565b60605f80600190505b60025481116101d8573373ffffffffffffffffffffffffffffffffffffffff1660015f8381526020019081526020015f205f9054906101000a900473ffffffffffffffffffffffffffffffffffffffff1673ffffffffffffffffffffffffffffffffffffffff16036101c55781806101c190610905565b9250505b80806101d090610905565b91505061014a565b505f8167ffffffffffffffff8111156101f4576101f361076d565b5b60405190808252806020026020018201604052801561022757816020015b60608152602001906001900390816102125790505b5090505f80600190505b6002548111610374573373ffffffffffffffffffffffffffffffffffffffff1660015f8381526020019081526020015f205f9054906101000a900473ffffffffffffffffffffffffffffffffffffffff1673ffffffffffffffffffffffffffffffffffffffff1603610361575f808281526020019081526020015f2080546102b890610979565b80601f01602080910402602001604051908101604052809291908181526020018280546102e490610979565b801561032f5780601f106103065761010080835404028352916020019161032f565b820191905f5260205f20905b81548152906001019060200180831161031257829003601f168201915b5050505050838381518110610347576103466109a9565b5b6020026020010181905250818061035d90610905565b9250505b808061036c90610905565b915050610231565b5081935050505090565b5f602052805f5260405f205f91509050805461039990610979565b80601f01602080910402602001604051908101604052809291908181526020018280546103c590610979565b80156104105780601f106103e757610100808354040283529160200191610410565b820191905f5260205f20905b8154815290600101906020018083116103f357829003601f168201915b505050505081565b60025481565b60025f81548092919061043090610905565b9190505550805f8060025481526020019081526020015f2090816104549190610b73565b503360015f60025481526020019081526020015f205f6101000a81548173ffffffffffffffffffffffffffffffffffffffff021916908373ffffffffffffffffffffffffffffffffffffffff16021790555050565b5f604051905090565b5f80fd5b5f80fd5b5f819050919050565b6104cc816104ba565b81146104d6575f80fd5b50565b5f813590506104e7816104c3565b92915050565b5f60208284031215610502576105016104b2565b5b5f61050f848285016104d9565b91505092915050565b5f73ffffffffffffffffffffffffffffffffffffffff82169050919050565b5f61054182610518565b9050919050565b61055181610537565b82525050565b5f60208201905061056a5f830184610548565b92915050565b5f81519050919050565b5f82825260208201905092915050565b5f819050602082019050919050565b5f81519050919050565b5f82825260208201905092915050565b5f5b838110156105d05780820151818401526020810190506105b5565b5f8484015250505050565b5f601f19601f8301169050919050565b5f6105f582610599565b6105ff81856105a3565b935061060f8185602086016105b3565b610618816105db565b840191505092915050565b5f61062e83836105eb565b905092915050565b5f602082019050919050565b5f61064c82610570565b610656818561057a565b9350836020820285016106688561058a565b805f5b858110156106a357848403895281516106848582610623565b945061068f83610636565b925060208a0199505060018101905061066b565b50829750879550505050505092915050565b5f6020820190508181035f8301526106cd8184610642565b905092915050565b5f82825260208201905092915050565b5f6106ef82610599565b6106f981856106d5565b93506107098185602086016105b3565b610712816105db565b840191505092915050565b5f6020820190508181035f83015261073581846106e5565b905092915050565b610746816104ba565b82525050565b5f60208201905061075f5f83018461073d565b92915050565b5f80fd5b5f80fd5b7f4e487b71000000000000000000000000000000000000000000000000000000005f52604160045260245ffd5b6107a3826105db565b810181811067ffffffffffffffff821117156107c2576107c161076d565b5b80604052505050565b5f6107d46104a9565b90506107e0828261079a565b919050565b5f67ffffffffffffffff8211156107ff576107fe61076d565b5b610808826105db565b9050602081019050919050565b828183375f83830152505050565b5f610835610830846107e5565b6107cb565b90508281526020810184848401111561085157610850610769565b5b61085c848285610815565b509392505050565b5f82601f83011261087857610877610765565b5b8135610888848260208601610823565b91505092915050565b5f602082840312156108a6576108a56104b2565b5b5f82013567ffffffffffffffff8111156108c3576108c26104b6565b5b6108cf84828501610864565b91505092915050565b7f4e487b71000000000000000000000000000000000000000000000000000000005f52601160045260245ffd5b5f61090f826104ba565b91507fffffffffffffffffffffffffffffffffffffffffffffffffffffffffffffffff8203610941576109406108d8565b5b600182019050919050565b7f4e487b71000000000000000000000000000000000000000000000000000000005f52602260045260245ffd5b5f600282049050600182168061099057607f821691505b6020821081036109a3576109a261094c565b5b50919050565b7f4e487b71000000000000000000000000000000000000000000000000000000005f52603260045260245ffd5b5f819050815f5260205f209050919050565b5f6020601f8301049050919050565b5f82821b905092915050565b5f60088302610a327fffffffffffffffffffffffffffffffffffffffffffffffffffffffffffffffff826109f7565b610a3c86836109f7565b95508019841693508086168417925050509392505050565b5f819050919050565b5f610a77610a72610a6d846104ba565b610a54565b6104ba565b9050919050565b5f819050919050565b610a9083610a5d565b610aa4610a9c82610a7e565b848454610a03565b825550505050565b5f90565b610ab8610aac565b610ac3818484610a87565b505050565b5b81811015610ae657610adb5f82610ab0565b600181019050610ac9565b5050565b601f821115610b2b57610afc816109d6565b610b05846109e8565b81016020851015610b14578190505b610b28610b20856109e8565b830182610ac8565b50505b505050565b5f82821c905092915050565b5f610b4b5f1984600802610b30565b1980831691505092915050565b5f610b638383610b3c565b9150826002028217905092915050565b610b7c82610599565b67ffffffffffffffff811115610b9557610b9461076d565b5b610b9f8254610979565b610baa828285610aea565b5f60209050601f831160018114610bdb575f8415610bc9578287015190505b610bd38582610b58565b865550610c3a565b601f198416610be9866109d6565b5f5b82811015610c1057848901518255600182019150602085019450602081019050610beb565b86831015610c2d5784890151610c29601f891682610b3c565b8355505b6001600288020188555050505b50505050505056fea2646970667358221220670910aaf5f0954273b0c6bd6490376645d949c7775615bb05d429c710ac307f64736f6c63430008170033",
					"opcodes": "PUSH1 0x80 PUSH1 0x40 MSTORE CALLVALUE DUP1 ISZERO PUSH2 0xF JUMPI PUSH0 DUP1 REVERT JUMPDEST POP PUSH2 0xC78 DUP1 PUSH2 0x1D PUSH0 CODECOPY PUSH0 RETURN INVALID PUSH1 0x80 PUSH1 0x40 MSTORE CALLVALUE DUP1 ISZERO PUSH2 0xF JUMPI PUSH0 DUP1 REVERT JUMPDEST POP PUSH1 0x4 CALLDATASIZE LT PUSH2 0x55 JUMPI PUSH0 CALLDATALOAD PUSH1 0xE0 SHR DUP1 PUSH4 0x25E7C27 EQ PUSH2 0x59 JUMPI DUP1 PUSH4 0x285CB06A EQ PUSH2 0x89 JUMPI DUP1 PUSH4 0x4622AB03 EQ PUSH2 0xA7 JUMPI DUP1 PUSH4 0x61BC221A EQ PUSH2 0xD7 JUMPI DUP1 PUSH4 0xF2C298BE EQ PUSH2 0xF5 JUMPI JUMPDEST PUSH0 DUP1 REVERT JUMPDEST PUSH2 0x73 PUSH1 0x4 DUP1 CALLDATASIZE SUB DUP2 ADD SWAP1 PUSH2 0x6E SWAP2 SWAP1 PUSH2 0x4ED JUMP JUMPDEST PUSH2 0x111 JUMP JUMPDEST PUSH1 0x40 MLOAD PUSH2 0x80 SWAP2 SWAP1 PUSH2 0x557 JUMP JUMPDEST PUSH1 0x40 MLOAD DUP1 SWAP2 SUB SWAP1 RETURN JUMPDEST PUSH2 0x91 PUSH2 0x141 JUMP JUMPDEST PUSH1 0x40 MLOAD PUSH2 0x9E SWAP2 SWAP1 PUSH2 0x6B5 JUMP JUMPDEST PUSH1 0x40 MLOAD DUP1 SWAP2 SUB SWAP1 RETURN JUMPDEST PUSH2 0xC1 PUSH1 0x4 DUP1 CALLDATASIZE SUB DUP2 ADD SWAP1 PUSH2 0xBC SWAP2 SWAP1 PUSH2 0x4ED JUMP JUMPDEST PUSH2 0x37E JUMP JUMPDEST PUSH1 0x40 MLOAD PUSH2 0xCE SWAP2 SWAP1 PUSH2 0x71D JUMP JUMPDEST PUSH1 0x40 MLOAD DUP1 SWAP2 SUB SWAP1 RETURN JUMPDEST PUSH2 0xDF PUSH2 0x418 JUMP JUMPDEST PUSH1 0x40 MLOAD PUSH2 0xEC SWAP2 SWAP1 PUSH2 0x74C JUMP JUMPDEST PUSH1 0x40 MLOAD DUP1 SWAP2 SUB SWAP1 RETURN JUMPDEST PUSH2 0x10F PUSH1 0x4 DUP1 CALLDATASIZE SUB DUP2 ADD SWAP1 PUSH2 0x10A SWAP2 SWAP1 PUSH2 0x891 JUMP JUMPDEST PUSH2 0x41E JUMP JUMPDEST STOP JUMPDEST PUSH1 0x1 PUSH1 0x20 MSTORE DUP1 PUSH0 MSTORE PUSH1 0x40 PUSH0 KECCAK256 PUSH0 SWAP2 POP SLOAD SWAP1 PUSH2 0x100 EXP SWAP1 DIV PUSH20 0xFFFFFFFFFFFFFFFFFFFFFFFFFFFFFFFFFFFFFFFF AND DUP2 JUMP JUMPDEST PUSH1 0x60 PUSH0 DUP1 PUSH1 0x1 SWAP1 POP JUMPDEST PUSH1 0x2 SLOAD DUP2 GT PUSH2 0x1D8 JUMPI CALLER PUSH20 0xFFFFFFFFFFFFFFFFFFFFFFFFFFFFFFFFFFFFFFFF AND PUSH1 0x1 PUSH0 DUP4 DUP2 MSTORE PUSH1 0x20 ADD SWAP1 DUP2 MSTORE PUSH1 0x20 ADD PUSH0 KECCAK256 PUSH0 SWAP1 SLOAD SWAP1 PUSH2 0x100 EXP SWAP1 DIV PUSH20 0xFFFFFFFFFFFFFFFFFFFFFFFFFFFFFFFFFFFFFFFF AND PUSH20 0xFFFFFFFFFFFFFFFFFFFFFFFFFFFFFFFFFFFFFFFF AND SUB PUSH2 0x1C5 JUMPI DUP2 DUP1 PUSH2 0x1C1 SWAP1 PUSH2 0x905 JUMP JUMPDEST SWAP3 POP POP JUMPDEST DUP1 DUP1 PUSH2 0x1D0 SWAP1 PUSH2 0x905 JUMP JUMPDEST SWAP2 POP POP PUSH2 0x14A JUMP JUMPDEST POP PUSH0 DUP2 PUSH8 0xFFFFFFFFFFFFFFFF DUP2 GT ISZERO PUSH2 0x1F4 JUMPI PUSH2 0x1F3 PUSH2 0x76D JUMP JUMPDEST JUMPDEST PUSH1 0x40 MLOAD SWAP1 DUP1 DUP3 MSTORE DUP1 PUSH1 0x20 MUL PUSH1 0x20 ADD DUP3 ADD PUSH1 0x40 MSTORE DUP1 ISZERO PUSH2 0x227 JUMPI DUP2 PUSH1 0x20 ADD JUMPDEST PUSH1 0x60 DUP2 MSTORE PUSH1 0x20 ADD SWAP1 PUSH1 0x1 SWAP1 SUB SWAP1 DUP2 PUSH2 0x212 JUMPI SWAP1 POP JUMPDEST POP SWAP1 POP PUSH0 DUP1 PUSH1 0x1 SWAP1 POP JUMPDEST PUSH1 0x2 SLOAD DUP2 GT PUSH2 0x374 JUMPI CALLER PUSH20 0xFFFFFFFFFFFFFFFFFFFFFFFFFFFFFFFFFFFFFFFF AND PUSH1 0x1 PUSH0 DUP4 DUP2 MSTORE PUSH1 0x20 ADD SWAP1 DUP2 MSTORE PUSH1 0x20 ADD PUSH0 KECCAK256 PUSH0 SWAP1 SLOAD SWAP1 PUSH2 0x100 EXP SWAP1 DIV PUSH20 0xFFFFFFFFFFFFFFFFFFFFFFFFFFFFFFFFFFFFFFFF AND PUSH20 0xFFFFFFFFFFFFFFFFFFFFFFFFFFFFFFFFFFFFFFFF AND SUB PUSH2 0x361 JUMPI PUSH0 DUP1 DUP3 DUP2 MSTORE PUSH1 0x20 ADD SWAP1 DUP2 MSTORE PUSH1 0x20 ADD PUSH0 KECCAK256 DUP1 SLOAD PUSH2 0x2B8 SWAP1 PUSH2 0x979 JUMP JUMPDEST DUP1 PUSH1 0x1F ADD PUSH1 0x20 DUP1 SWAP2 DIV MUL PUSH1 0x20 ADD PUSH1 0x40 MLOAD SWAP1 DUP2 ADD PUSH1 0x40 MSTORE DUP1 SWAP3 SWAP2 SWAP1 DUP2 DUP2 MSTORE PUSH1 0x20 ADD DUP3 DUP1 SLOAD PUSH2 0x2E4 SWAP1 PUSH2 0x979 JUMP JUMPDEST DUP1 ISZERO PUSH2 0x32F JUMPI DUP1 PUSH1 0x1F LT PUSH2 0x306 JUMPI PUSH2 0x100 DUP1 DUP4 SLOAD DIV MUL DUP4 MSTORE SWAP2 PUSH1 0x20 ADD SWAP2 PUSH2 0x32F JUMP JUMPDEST DUP3 ADD SWAP2 SWAP1 PUSH0 MSTORE PUSH1 0x20 PUSH0 KECCAK256 SWAP1 JUMPDEST DUP2 SLOAD DUP2 MSTORE SWAP1 PUSH1 0x1 ADD SWAP1 PUSH1 0x20 ADD DUP1 DUP4 GT PUSH2 0x312 JUMPI DUP3 SWAP1 SUB PUSH1 0x1F AND DUP3 ADD SWAP2 JUMPDEST POP POP POP POP POP DUP4 DUP4 DUP2 MLOAD DUP2 LT PUSH2 0x347 JUMPI PUSH2 0x346 PUSH2 0x9A9 JUMP JUMPDEST JUMPDEST PUSH1 0x20 MUL PUSH1 0x20 ADD ADD DUP2 SWAP1 MSTORE POP DUP2 DUP1 PUSH2 0x35D SWAP1 PUSH2 0x905 JUMP JUMPDEST SWAP3 POP POP JUMPDEST DUP1 DUP1 PUSH2 0x36C SWAP1 PUSH2 0x905 JUMP JUMPDEST SWAP2 POP POP PUSH2 0x231 JUMP JUMPDEST POP DUP2 SWAP4 POP POP POP POP SWAP1 JUMP JUMPDEST PUSH0 PUSH1 0x20 MSTORE DUP1 PUSH0 MSTORE PUSH1 0x40 PUSH0 KECCAK256 PUSH0 SWAP2 POP SWAP1 POP DUP1 SLOAD PUSH2 0x399 SWAP1 PUSH2 0x979 JUMP JUMPDEST DUP1 PUSH1 0x1F ADD PUSH1 0x20 DUP1 SWAP2 DIV MUL PUSH1 0x20 ADD PUSH1 0x40 MLOAD SWAP1 DUP2 ADD PUSH1 0x40 MSTORE DUP1 SWAP3 SWAP2 SWAP1 DUP2 DUP2 MSTORE PUSH1 0x20 ADD DUP3 DUP1 SLOAD PUSH2 0x3C5 SWAP1 PUSH2 0x979 JUMP JUMPDEST DUP1 ISZERO PUSH2 0x410 JUMPI DUP1 PUSH1 0x1F LT PUSH2 0x3E7 JUMPI PUSH2 0x100 DUP1 DUP4 SLOAD DIV MUL DUP4 MSTORE SWAP2 PUSH1 0x20 ADD SWAP2 PUSH2 0x410 JUMP JUMPDEST DUP3 ADD SWAP2 SWAP1 PUSH0 MSTORE PUSH1 0x20 PUSH0 KECCAK256 SWAP1 JUMPDEST DUP2 SLOAD DUP2 MSTORE SWAP1 PUSH1 0x1 ADD SWAP1 PUSH1 0x20 ADD DUP1 DUP4 GT PUSH2 0x3F3 JUMPI DUP3 SWAP1 SUB PUSH1 0x1F AND DUP3 ADD SWAP2 JUMPDEST POP POP POP POP POP DUP2 JUMP JUMPDEST PUSH1 0x2 SLOAD DUP2 JUMP JUMPDEST PUSH1 0x2 PUSH0 DUP2 SLOAD DUP1 SWAP3 SWAP2 SWAP1 PUSH2 0x430 SWAP1 PUSH2 0x905 JUMP JUMPDEST SWAP2 SWAP1 POP SSTORE POP DUP1 PUSH0 DUP1 PUSH1 0x2 SLOAD DUP2 MSTORE PUSH1 0x20 ADD SWAP1 DUP2 MSTORE PUSH1 0x20 ADD PUSH0 KECCAK256 SWAP1 DUP2 PUSH2 0x454 SWAP2 SWAP1 PUSH2 0xB73 JUMP JUMPDEST POP CALLER PUSH1 0x1 PUSH0 PUSH1 0x2 SLOAD DUP2 MSTORE PUSH1 0x20 ADD SWAP1 DUP2 MSTORE PUSH1 0x20 ADD PUSH0 KECCAK256 PUSH0 PUSH2 0x100 EXP DUP2 SLOAD DUP2 PUSH20 0xFFFFFFFFFFFFFFFFFFFFFFFFFFFFFFFFFFFFFFFF MUL NOT AND SWAP1 DUP4 PUSH20 0xFFFFFFFFFFFFFFFFFFFFFFFFFFFFFFFFFFFFFFFF AND MUL OR SWAP1 SSTORE POP POP JUMP JUMPDEST PUSH0 PUSH1 0x40 MLOAD SWAP1 POP SWAP1 JUMP JUMPDEST PUSH0 DUP1 REVERT JUMPDEST PUSH0 DUP1 REVERT JUMPDEST PUSH0 DUP2 SWAP1 POP SWAP2 SWAP1 POP JUMP JUMPDEST PUSH2 0x4CC DUP2 PUSH2 0x4BA JUMP JUMPDEST DUP2 EQ PUSH2 0x4D6 JUMPI PUSH0 DUP1 REVERT JUMPDEST POP JUMP JUMPDEST PUSH0 DUP2 CALLDATALOAD SWAP1 POP PUSH2 0x4E7 DUP2 PUSH2 0x4C3 JUMP JUMPDEST SWAP3 SWAP2 POP POP JUMP JUMPDEST PUSH0 PUSH1 0x20 DUP3 DUP5 SUB SLT ISZERO PUSH2 0x502 JUMPI PUSH2 0x501 PUSH2 0x4B2 JUMP JUMPDEST JUMPDEST PUSH0 PUSH2 0x50F DUP5 DUP3 DUP6 ADD PUSH2 0x4D9 JUMP JUMPDEST SWAP2 POP POP SWAP3 SWAP2 POP POP JUMP JUMPDEST PUSH0 PUSH20 0xFFFFFFFFFFFFFFFFFFFFFFFFFFFFFFFFFFFFFFFF DUP3 AND SWAP1 POP SWAP2 SWAP1 POP JUMP JUMPDEST PUSH0 PUSH2 0x541 DUP3 PUSH2 0x518 JUMP JUMPDEST SWAP1 POP SWAP2 SWAP1 POP JUMP JUMPDEST PUSH2 0x551 DUP2 PUSH2 0x537 JUMP JUMPDEST DUP3 MSTORE POP POP JUMP JUMPDEST PUSH0 PUSH1 0x20 DUP3 ADD SWAP1 POP PUSH2 0x56A PUSH0 DUP4 ADD DUP5 PUSH2 0x548 JUMP JUMPDEST SWAP3 SWAP2 POP POP JUMP JUMPDEST PUSH0 DUP2 MLOAD SWAP1 POP SWAP2 SWAP1 POP JUMP JUMPDEST PUSH0 DUP3 DUP3 MSTORE PUSH1 0x20 DUP3 ADD SWAP1 POP SWAP3 SWAP2 POP POP JUMP JUMPDEST PUSH0 DUP2 SWAP1 POP PUSH1 0x20 DUP3 ADD SWAP1 POP SWAP2 SWAP1 POP JUMP JUMPDEST PUSH0 DUP2 MLOAD SWAP1 POP SWAP2 SWAP1 POP JUMP JUMPDEST PUSH0 DUP3 DUP3 MSTORE PUSH1 0x20 DUP3 ADD SWAP1 POP SWAP3 SWAP2 POP POP JUMP JUMPDEST PUSH0 JUMPDEST DUP4 DUP2 LT ISZERO PUSH2 0x5D0 JUMPI DUP1 DUP3 ADD MLOAD DUP2 DUP5 ADD MSTORE PUSH1 0x20 DUP2 ADD SWAP1 POP PUSH2 0x5B5 JUMP JUMPDEST PUSH0 DUP5 DUP5 ADD MSTORE POP POP POP POP JUMP JUMPDEST PUSH0 PUSH1 0x1F NOT PUSH1 0x1F DUP4 ADD AND SWAP1 POP SWAP2 SWAP1 POP JUMP JUMPDEST PUSH0 PUSH2 0x5F5 DUP3 PUSH2 0x599 JUMP JUMPDEST PUSH2 0x5FF DUP2 DUP6 PUSH2 0x5A3 JUMP JUMPDEST SWAP4 POP PUSH2 0x60F DUP2 DUP6 PUSH1 0x20 DUP7 ADD PUSH2 0x5B3 JUMP JUMPDEST PUSH2 0x618 DUP2 PUSH2 0x5DB JUMP JUMPDEST DUP5 ADD SWAP2 POP POP SWAP3 SWAP2 POP POP JUMP JUMPDEST PUSH0 PUSH2 0x62E DUP4 DUP4 PUSH2 0x5EB JUMP JUMPDEST SWAP1 POP SWAP3 SWAP2 POP POP JUMP JUMPDEST PUSH0 PUSH1 0x20 DUP3 ADD SWAP1 POP SWAP2 SWAP1 POP JUMP JUMPDEST PUSH0 PUSH2 0x64C DUP3 PUSH2 0x570 JUMP JUMPDEST PUSH2 0x656 DUP2 DUP6 PUSH2 0x57A JUMP JUMPDEST SWAP4 POP DUP4 PUSH1 0x20 DUP3 MUL DUP6 ADD PUSH2 0x668 DUP6 PUSH2 0x58A JUMP JUMPDEST DUP1 PUSH0 JUMPDEST DUP6 DUP2 LT ISZERO PUSH2 0x6A3 JUMPI DUP5 DUP5 SUB DUP10 MSTORE DUP2 MLOAD PUSH2 0x684 DUP6 DUP3 PUSH2 0x623 JUMP JUMPDEST SWAP5 POP PUSH2 0x68F DUP4 PUSH2 0x636 JUMP JUMPDEST SWAP3 POP PUSH1 0x20 DUP11 ADD SWAP10 POP POP PUSH1 0x1 DUP2 ADD SWAP1 POP PUSH2 0x66B JUMP JUMPDEST POP DUP3 SWAP8 POP DUP8 SWAP6 POP POP POP POP POP POP SWAP3 SWAP2 POP POP JUMP JUMPDEST PUSH0 PUSH1 0x20 DUP3 ADD SWAP1 POP DUP2 DUP2 SUB PUSH0 DUP4 ADD MSTORE PUSH2 0x6CD DUP2 DUP5 PUSH2 0x642 JUMP JUMPDEST SWAP1 POP SWAP3 SWAP2 POP POP JUMP JUMPDEST PUSH0 DUP3 DUP3 MSTORE PUSH1 0x20 DUP3 ADD SWAP1 POP SWAP3 SWAP2 POP POP JUMP JUMPDEST PUSH0 PUSH2 0x6EF DUP3 PUSH2 0x599 JUMP JUMPDEST PUSH2 0x6F9 DUP2 DUP6 PUSH2 0x6D5 JUMP JUMPDEST SWAP4 POP PUSH2 0x709 DUP2 DUP6 PUSH1 0x20 DUP7 ADD PUSH2 0x5B3 JUMP JUMPDEST PUSH2 0x712 DUP2 PUSH2 0x5DB JUMP JUMPDEST DUP5 ADD SWAP2 POP POP SWAP3 SWAP2 POP POP JUMP JUMPDEST PUSH0 PUSH1 0x20 DUP3 ADD SWAP1 POP DUP2 DUP2 SUB PUSH0 DUP4 ADD MSTORE PUSH2 0x735 DUP2 DUP5 PUSH2 0x6E5 JUMP JUMPDEST SWAP1 POP SWAP3 SWAP2 POP POP JUMP JUMPDEST PUSH2 0x746 DUP2 PUSH2 0x4BA JUMP JUMPDEST DUP3 MSTORE POP POP JUMP JUMPDEST PUSH0 PUSH1 0x20 DUP3 ADD SWAP1 POP PUSH2 0x75F PUSH0 DUP4 ADD DUP5 PUSH2 0x73D JUMP JUMPDEST SWAP3 SWAP2 POP POP JUMP JUMPDEST PUSH0 DUP1 REVERT JUMPDEST PUSH0 DUP1 REVERT JUMPDEST PUSH32 0x4E487B7100000000000000000000000000000000000000000000000000000000 PUSH0 MSTORE PUSH1 0x41 PUSH1 0x4 MSTORE PUSH1 0x24 PUSH0 REVERT JUMPDEST PUSH2 0x7A3 DUP3 PUSH2 0x5DB JUMP JUMPDEST DUP2 ADD DUP2 DUP2 LT PUSH8 0xFFFFFFFFFFFFFFFF DUP3 GT OR ISZERO PUSH2 0x7C2 JUMPI PUSH2 0x7C1 PUSH2 0x76D JUMP JUMPDEST JUMPDEST DUP1 PUSH1 0x40 MSTORE POP POP POP JUMP JUMPDEST PUSH0 PUSH2 0x7D4 PUSH2 0x4A9 JUMP JUMPDEST SWAP1 POP PUSH2 0x7E0 DUP3 DUP3 PUSH2 0x79A JUMP JUMPDEST SWAP2 SWAP1 POP JUMP JUMPDEST PUSH0 PUSH8 0xFFFFFFFFFFFFFFFF DUP3 GT ISZERO PUSH2 0x7FF JUMPI PUSH2 0x7FE PUSH2 0x76D JUMP JUMPDEST JUMPDEST PUSH2 0x808 DUP3 PUSH2 0x5DB JUMP JUMPDEST SWAP1 POP PUSH1 0x20 DUP2 ADD SWAP1 POP SWAP2 SWAP1 POP JUMP JUMPDEST DUP3 DUP2 DUP4 CALLDATACOPY PUSH0 DUP4 DUP4 ADD MSTORE POP POP POP JUMP JUMPDEST PUSH0 PUSH2 0x835 PUSH2 0x830 DUP5 PUSH2 0x7E5 JUMP JUMPDEST PUSH2 0x7CB JUMP JUMPDEST SWAP1 POP DUP3 DUP2 MSTORE PUSH1 0x20 DUP2 ADD DUP5 DUP5 DUP5 ADD GT ISZERO PUSH2 0x851 JUMPI PUSH2 0x850 PUSH2 0x769 JUMP JUMPDEST JUMPDEST PUSH2 0x85C DUP5 DUP3 DUP6 PUSH2 0x815 JUMP JUMPDEST POP SWAP4 SWAP3 POP POP POP JUMP JUMPDEST PUSH0 DUP3 PUSH1 0x1F DUP4 ADD SLT PUSH2 0x878 JUMPI PUSH2 0x877 PUSH2 0x765 JUMP JUMPDEST JUMPDEST DUP2 CALLDATALOAD PUSH2 0x888 DUP5 DUP3 PUSH1 0x20 DUP7 ADD PUSH2 0x823 JUMP JUMPDEST SWAP2 POP POP SWAP3 SWAP2 POP POP JUMP JUMPDEST PUSH0 PUSH1 0x20 DUP3 DUP5 SUB SLT ISZERO PUSH2 0x8A6 JUMPI PUSH2 0x8A5 PUSH2 0x4B2 JUMP JUMPDEST JUMPDEST PUSH0 DUP3 ADD CALLDATALOAD PUSH8 0xFFFFFFFFFFFFFFFF DUP2 GT ISZERO PUSH2 0x8C3 JUMPI PUSH2 0x8C2 PUSH2 0x4B6 JUMP JUMPDEST JUMPDEST PUSH2 0x8CF DUP5 DUP3 DUP6 ADD PUSH2 0x864 JUMP JUMPDEST SWAP2 POP POP SWAP3 SWAP2 POP POP JUMP JUMPDEST PUSH32 0x4E487B7100000000000000000000000000000000000000000000000000000000 PUSH0 MSTORE PUSH1 0x11 PUSH1 0x4 MSTORE PUSH1 0x24 PUSH0 REVERT JUMPDEST PUSH0 PUSH2 0x90F DUP3 PUSH2 0x4BA JUMP JUMPDEST SWAP2 POP PUSH32 0xFFFFFFFFFFFFFFFFFFFFFFFFFFFFFFFFFFFFFFFFFFFFFFFFFFFFFFFFFFFFFFFF DUP3 SUB PUSH2 0x941 JUMPI PUSH2 0x940 PUSH2 0x8D8 JUMP JUMPDEST JUMPDEST PUSH1 0x1 DUP3 ADD SWAP1 POP SWAP2 SWAP1 POP JUMP JUMPDEST PUSH32 0x4E487B7100000000000000000000000000000000000000000000000000000000 PUSH0 MSTORE PUSH1 0x22 PUSH1 0x4 MSTORE PUSH1 0x24 PUSH0 REVERT JUMPDEST PUSH0 PUSH1 0x2 DUP3 DIV SWAP1 POP PUSH1 0x1 DUP3 AND DUP1 PUSH2 0x990 JUMPI PUSH1 0x7F DUP3 AND SWAP2 POP JUMPDEST PUSH1 0x20 DUP3 LT DUP2 SUB PUSH2 0x9A3 JUMPI PUSH2 0x9A2 PUSH2 0x94C JUMP JUMPDEST JUMPDEST POP SWAP2 SWAP1 POP JUMP JUMPDEST PUSH32 0x4E487B7100000000000000000000000000000000000000000000000000000000 PUSH0 MSTORE PUSH1 0x32 PUSH1 0x4 MSTORE PUSH1 0x24 PUSH0 REVERT JUMPDEST PUSH0 DUP2 SWAP1 POP DUP2 PUSH0 MSTORE PUSH1 0x20 PUSH0 KECCAK256 SWAP1 POP SWAP2 SWAP1 POP JUMP JUMPDEST PUSH0 PUSH1 0x20 PUSH1 0x1F DUP4 ADD DIV SWAP1 POP SWAP2 SWAP1 POP JUMP JUMPDEST PUSH0 DUP3 DUP3 SHL SWAP1 POP SWAP3 SWAP2 POP POP JUMP JUMPDEST PUSH0 PUSH1 0x8 DUP4 MUL PUSH2 0xA32 PUSH32 0xFFFFFFFFFFFFFFFFFFFFFFFFFFFFFFFFFFFFFFFFFFFFFFFFFFFFFFFFFFFFFFFF DUP3 PUSH2 0x9F7 JUMP JUMPDEST PUSH2 0xA3C DUP7 DUP4 PUSH2 0x9F7 JUMP JUMPDEST SWAP6 POP DUP1 NOT DUP5 AND SWAP4 POP DUP1 DUP7 AND DUP5 OR SWAP3 POP POP POP SWAP4 SWAP3 POP POP POP JUMP JUMPDEST PUSH0 DUP2 SWAP1 POP SWAP2 SWAP1 POP JUMP JUMPDEST PUSH0 PUSH2 0xA77 PUSH2 0xA72 PUSH2 0xA6D DUP5 PUSH2 0x4BA JUMP JUMPDEST PUSH2 0xA54 JUMP JUMPDEST PUSH2 0x4BA JUMP JUMPDEST SWAP1 POP SWAP2 SWAP1 POP JUMP JUMPDEST PUSH0 DUP2 SWAP1 POP SWAP2 SWAP1 POP JUMP JUMPDEST PUSH2 0xA90 DUP4 PUSH2 0xA5D JUMP JUMPDEST PUSH2 0xAA4 PUSH2 0xA9C DUP3 PUSH2 0xA7E JUMP JUMPDEST DUP5 DUP5 SLOAD PUSH2 0xA03 JUMP JUMPDEST DUP3 SSTORE POP POP POP POP JUMP JUMPDEST PUSH0 SWAP1 JUMP JUMPDEST PUSH2 0xAB8 PUSH2 0xAAC JUMP JUMPDEST PUSH2 0xAC3 DUP2 DUP5 DUP5 PUSH2 0xA87 JUMP JUMPDEST POP POP POP JUMP JUMPDEST JUMPDEST DUP2 DUP2 LT ISZERO PUSH2 0xAE6 JUMPI PUSH2 0xADB PUSH0 DUP3 PUSH2 0xAB0 JUMP JUMPDEST PUSH1 0x1 DUP2 ADD SWAP1 POP PUSH2 0xAC9 JUMP JUMPDEST POP POP JUMP JUMPDEST PUSH1 0x1F DUP3 GT ISZERO PUSH2 0xB2B JUMPI PUSH2 0xAFC DUP2 PUSH2 0x9D6 JUMP JUMPDEST PUSH2 0xB05 DUP5 PUSH2 0x9E8 JUMP JUMPDEST DUP2 ADD PUSH1 0x20 DUP6 LT ISZERO PUSH2 0xB14 JUMPI DUP2 SWAP1 POP JUMPDEST PUSH2 0xB28 PUSH2 0xB20 DUP6 PUSH2 0x9E8 JUMP JUMPDEST DUP4 ADD DUP3 PUSH2 0xAC8 JUMP JUMPDEST POP POP JUMPDEST POP POP POP JUMP JUMPDEST PUSH0 DUP3 DUP3 SHR SWAP1 POP SWAP3 SWAP2 POP POP JUMP JUMPDEST PUSH0 PUSH2 0xB4B PUSH0 NOT DUP5 PUSH1 0x8 MUL PUSH2 0xB30 JUMP JUMPDEST NOT DUP1 DUP4 AND SWAP2 POP POP SWAP3 SWAP2 POP POP JUMP JUMPDEST PUSH0 PUSH2 0xB63 DUP4 DUP4 PUSH2 0xB3C JUMP JUMPDEST SWAP2 POP DUP3 PUSH1 0x2 MUL DUP3 OR SWAP1 POP SWAP3 SWAP2 POP POP JUMP JUMPDEST PUSH2 0xB7C DUP3 PUSH2 0x599 JUMP JUMPDEST PUSH8 0xFFFFFFFFFFFFFFFF DUP2 GT ISZERO PUSH2 0xB95 JUMPI PUSH2 0xB94 PUSH2 0x76D JUMP JUMPDEST JUMPDEST PUSH2 0xB9F DUP3 SLOAD PUSH2 0x979 JUMP JUMPDEST PUSH2 0xBAA DUP3 DUP3 DUP6 PUSH2 0xAEA JUMP JUMPDEST PUSH0 PUSH1 0x20 SWAP1 POP PUSH1 0x1F DUP4 GT PUSH1 0x1 DUP2 EQ PUSH2 0xBDB JUMPI PUSH0 DUP5 ISZERO PUSH2 0xBC9 JUMPI DUP3 DUP8 ADD MLOAD SWAP1 POP JUMPDEST PUSH2 0xBD3 DUP6 DUP3 PUSH2 0xB58 JUMP JUMPDEST DUP7 SSTORE POP PUSH2 0xC3A JUMP JUMPDEST PUSH1 0x1F NOT DUP5 AND PUSH2 0xBE9 DUP7 PUSH2 0x9D6 JUMP JUMPDEST PUSH0 JUMPDEST DUP3 DUP2 LT ISZERO PUSH2 0xC10 JUMPI DUP5 DUP10 ADD MLOAD DUP3 SSTORE PUSH1 0x1 DUP3 ADD SWAP2 POP PUSH1 0x20 DUP6 ADD SWAP5 POP PUSH1 0x20 DUP2 ADD SWAP1 POP PUSH2 0xBEB JUMP JUMPDEST DUP7 DUP4 LT ISZERO PUSH2 0xC2D JUMPI DUP5 DUP10 ADD MLOAD PUSH2 0xC29 PUSH1 0x1F DUP10 AND DUP3 PUSH2 0xB3C JUMP JUMPDEST DUP4 SSTORE POP JUMPDEST PUSH1 0x1 PUSH1 0x2 DUP9 MUL ADD DUP9 SSTORE POP POP POP JUMPDEST POP POP POP POP POP POP JUMP INVALID LOG2 PUSH5 0x6970667358 0x22 SLT KECCAK256 PUSH8 0x910AAF5F0954273 0xB0 0xC6 0xBD PUSH5 0x90376645D9 0x49 0xC7 PUSH24 0x5615BB05D429C710AC307F64736F6C634300081700330000 "
				},
				"gasEstimates": {
					"creation": {
						"codeDepositCost": "638400",
						"executionCost": "668",
						"totalCost": "639068"
					},
					"external": {
						"counter()": "2469",
						"getMyNames()": "infinite",
						"names(uint256)": "infinite",
						"owners(uint256)": "2805",
						"register(string)": "infinite"
					}
				},
				"methodIdentifiers": {
					"counter()": "61bc221a",
					"getMyNames()": "285cb06a",
					"names(uint256)": "4622ab03",
					"owners(uint256)": "025e7c27",
					"register(string)": "f2c298be"
				}
			},
			"storageLayout": {
				"storage": [
					{
						"astId": 5,
						"contract": "monad dashboard/NameRegistry.sol:NameRegistry",
						"label": "names",
						"offset": 0,
						"slot": "0",
						"type": "t_mapping(t_uint256,t_string_storage)"
					},
					{
						"astId": 9,
						"contract": "monad dashboard/NameRegistry.sol:NameRegistry",
						"label": "owners",
						"offset": 0,
						"slot": "1",
						"type": "t_mapping(t_uint256,t_address)"
					},
					{
						"astId": 11,
						"contract": "monad dashboard/NameRegistry.sol:NameRegistry",
						"label": "counter",
						"offset": 0,
						"slot": "2",
						"type": "t_uint256"
					}
				],
				"types": {
					"t_address": {
						"encoding": "inplace",
						"label": "address",
						"numberOfBytes": "20"
					},
					"t_mapping(t_uint256,t_address)": {
						"encoding": "mapping",
						"key": "t_uint256",
						"label": "mapping(uint256 => address)",
						"numberOfBytes": "32",
						"value": "t_address"
					},
					"t_mapping(t_uint256,t_string_storage)": {
						"encoding": "mapping",
						"key": "t_uint256",
						"label": "mapping(uint256 => string)",
						"numberOfBytes": "32",
						"value": "t_string_storage"
					},
					"t_string_storage": {
						"encoding": "bytes",
						"label": "string",
						"numberOfBytes": "32"
					},
					"t_uint256": {
						"encoding": "inplace",
						"label": "uint256",
						"numberOfBytes": "32"
					}
				}
			},
			"userdoc": {
				"kind": "user",
				"methods": {},
				"version": 1
			}
		}
	}
}