{
	"monad dashboard/SocialKarma.sol": {
		"SocialKarma": {
			"abi": [
				{
					"inputs": [],
					"stateMutability": "nonpayable",
					"type": "constructor"
				},
				{
					"inputs": [
						{
							"internalType": "address",
							"name": "user",
							"type": "address"
						}
					],
					"name": "applaud",
					"outputs": [],
					"stateMutability": "nonpayable",
					"type": "function"
				},
				{
					"inputs": [
						{
							"internalType": "address",
							"name": "user",
							"type": "address"
						}
					],
					"name": "boo",
					"outputs": [],
					"stateMutability": "nonpayable",
					"type": "function"
				},
				{
					"inputs": [
						{
							"internalType": "address",
							"name": "",
							"type": "address"
						}
					],
					"name": "karma",
					"outputs": [
						{
							"internalType": "int256",
							"name": "",
							"type": "int256"
						}
					],
					"stateMutability": "view",
					"type": "function"
				}
			],
			"devdoc": {
				"kind": "dev",
				"methods": {},
				"version": 1
			},
			"evm": {
				"assembly": "    /* \"monad dashboard/SocialKarma.sol\":105:402  contract SocialKarma {... */\n  mstore(0x40, 0x80)\n    /* \"monad dashboard/SocialKarma.sol\":181:237  constructor() {... */\n  callvalue\n  dup1\n  iszero\n  tag_1\n  jumpi\n  0x00\n  dup1\n  revert\ntag_1:\n  pop\n    /* \"monad dashboard/SocialKarma.sol\":226:229  100 */\n  0x64\n    /* \"monad dashboard/SocialKarma.sol\":206:211  karma */\n  0x00\n    /* \"monad dashboard/SocialKarma.sol\":206:223  karma[msg.sender] */\n  dup1\n    /* \"monad dashboard/SocialKarma.sol\":212:222  msg.sender */\n  caller\n    /* \"monad dashboard/SocialKarma.sol\":206:223  karma[msg.sender] */\n  0xffffffffffffffffffffffffffffffffffffffff\n  and\n  0xffffffffffffffffffffffffffffffffffffffff\n  and\n  dup2\n  mstore\n  0x20\n  add\n  swap1\n  dup2\n  mstore\n  0x20\n  add\n  0x00\n  keccak256\n    /* \"monad dashboard/SocialKarma.sol\":206:229  karma[msg.sender] = 100 */\n  dup2\n  swap1\n  sstore\n  pop\n    /* \"monad dashboard/SocialKarma.sol\":105:402  contract SocialKarma {... */\n  dataSize(sub_0)\n  dup1\n  dataOffset(sub_0)\n  0x00\n  codecopy\n  0x00\n  return\nstop\n\nsub_0: assembly {\n        /* \"monad dashboard/SocialKarma.sol\":105:402  contract SocialKarma {... */\n      mstore(0x40, 0x80)\n      callvalue\n      dup1\n      iszero\n      tag_1\n      jumpi\n      0x00\n      dup1\n      revert\n    tag_1:\n      pop\n      jumpi(tag_2, lt(calldatasize, 0x04))\n      shr(0xe0, calldataload(0x00))\n      dup1\n      0x3a2ee855\n      eq\n      tag_3\n      jumpi\n      dup1\n      0x5230bca3\n      eq\n      tag_4\n      jumpi\n      dup1\n      0x83ae2a63\n      eq\n      tag_5\n      jumpi\n    tag_2:\n      0x00\n      dup1\n      revert\n        /* \"monad dashboard/SocialKarma.sol\":133:172  mapping(address => int256) public karma */\n    tag_3:\n      tag_6\n      0x04\n      dup1\n      calldatasize\n      sub\n      dup2\n      add\n      swap1\n      tag_7\n      swap2\n      swap1\n      tag_8\n      jump\t// in\n    tag_7:\n      tag_9\n      jump\t// in\n    tag_6:\n      mload(0x40)\n      tag_10\n      swap2\n      swap1\n      tag_11\n      jump\t// in\n    tag_10:\n      mload(0x40)\n      dup1\n      swap2\n      sub\n      swap1\n      return\n        /* \"monad dashboard/SocialKarma.sol\":328:399  function boo(address user) external {... */\n    tag_4:\n      tag_12\n      0x04\n      dup1\n      calldatasize\n      sub\n      dup2\n      add\n      swap1\n      tag_13\n      swap2\n      swap1\n      tag_8\n      jump\t// in\n    tag_13:\n      tag_14\n      jump\t// in\n    tag_12:\n      stop\n        /* \"monad dashboard/SocialKarma.sol\":245:320  function applaud(address user) external {... */\n    tag_5:\n      tag_15\n      0x04\n      dup1\n      calldatasize\n      sub\n      dup2\n      add\n      swap1\n      tag_16\n      swap2\n      swap1\n      tag_8\n      jump\t// in\n    tag_16:\n      tag_17\n      jump\t// in\n    tag_15:\n      stop\n        /* \"monad dashboard/SocialKarma.sol\":133:172  mapping(address => int256) public karma */\n    tag_9:\n      mstore(0x20, 0x00)\n      dup1\n      0x00\n      mstore\n      keccak256(0x00, 0x40)\n      0x00\n      swap2\n      pop\n      swap1\n      pop\n      sload\n      dup2\n      jump\t// out\n        /* \"monad dashboard/SocialKarma.sol\":328:399  function boo(address user) external {... */\n    tag_14:\n        /* \"monad dashboard/SocialKarma.sol\":390:391  1 */\n      0x01\n        /* \"monad dashboard/SocialKarma.sol\":375:380  karma */\n      0x00\n        /* \"monad dashboard/SocialKarma.sol\":375:386  karma[user] */\n      dup1\n        /* \"monad dashboard/SocialKarma.sol\":381:385  user */\n      dup4\n        /* \"monad dashboard/SocialKarma.sol\":375:386  karma[user] */\n      0xffffffffffffffffffffffffffffffffffffffff\n      and\n      0xffffffffffffffffffffffffffffffffffffffff\n      and\n      dup2\n      mstore\n      0x20\n      add\n      swap1\n      dup2\n      mstore\n      0x20\n      add\n      0x00\n      keccak256\n      0x00\n        /* \"monad dashboard/SocialKarma.sol\":375:391  karma[user] -= 1 */\n      dup3\n      dup3\n      sload\n      tag_19\n      swap2\n      swap1\n      tag_20\n      jump\t// in\n    tag_19:\n      swap3\n      pop\n      pop\n      dup2\n      swap1\n      sstore\n      pop\n        /* \"monad dashboard/SocialKarma.sol\":328:399  function boo(address user) external {... */\n      pop\n      jump\t// out\n        /* \"monad dashboard/SocialKarma.sol\":245:320  function applaud(address user) external {... */\n    tag_17:\n        /* \"monad dashboard/SocialKarma.sol\":311:312  1 */\n      0x01\n        /* \"monad dashboard/SocialKarma.sol\":296:301  karma */\n      0x00\n        /* \"monad dashboard/SocialKarma.sol\":296:307  karma[user] */\n      dup1\n        /* \"monad dashboard/SocialKarma.sol\":302:306  user */\n      dup4\n        /* \"monad dashboard/SocialKarma.sol\":296:307  karma[user] */\n      0xffffffffffffffffffffffffffffffffffffffff\n      and\n      0xffffffffffffffffffffffffffffffffffffffff\n      and\n      dup2\n      mstore\n      0x20\n      add\n      swap1\n      dup2\n      mstore\n      0x20\n      add\n      0x00\n      keccak256\n      0x00\n        /* \"monad dashboard/SocialKarma.sol\":296:312  karma[user] += 1 */\n      dup3\n      dup3\n      sload\n      tag_22\n      swap2\n      swap1\n      tag_23\n      jump\t// in\n    tag_22:\n      swap3\n      pop\n      pop\n      dup2\n      swap1\n      sstore\n      pop\n        /* \"monad dashboard/SocialKarma.sol\":245:320  function applaud(address user) external {... */\n      pop\n      jump\t// out\n        /* \"#utility.yul\":88:205   */\n    tag_25:\n        /* \"#utility.yul\":197:198   */\n      0x00\n        /* \"#utility.yul\":194:195   */\n      dup1\n        /* \"#utility.yul\":187:199   */\n      revert\n        /* \"#utility.yul\":334:460   */\n    tag_27:\n        /* \"#utility.yul\":371:378   */\n      0x00\n        /* \"#utility.yul\":411:453   */\n      0xffffffffffffffffffffffffffffffffffffffff\n        /* \"#utility.yul\":404:409   */\n      dup3\n        /* \"#utility.yul\":400:454   */\n      and\n        /* \"#utility.yul\":389:454   */\n      swap1\n      pop\n        /* \"#utility.yul\":334:460   */\n      swap2\n      swap1\n      pop\n      jump\t// out\n        /* \"#utility.yul\":466:562   */\n    tag_28:\n        /* \"#utility.yul\":503:510   */\n      0x00\n        /* \"#utility.yul\":532:556   */\n      tag_40\n        /* \"#utility.yul\":550:555   */\n      dup3\n        /* \"#utility.yul\":532:556   */\n      tag_27\n      jump\t// in\n    tag_40:\n        /* \"#utility.yul\":521:556   */\n      swap1\n      pop\n        /* \"#utility.yul\":466:562   */\n      swap2\n      swap1\n      pop\n      jump\t// out\n        /* \"#utility.yul\":568:690   */\n    tag_29:\n        /* \"#utility.yul\":641:665   */\n      tag_42\n        /* \"#utility.yul\":659:664   */\n      dup2\n        /* \"#utility.yul\":641:665   */\n      tag_28\n      jump\t// in\n    tag_42:\n        /* \"#utility.yul\":634:639   */\n      dup2\n        /* \"#utility.yul\":631:666   */\n      eq\n        /* \"#utility.yul\":621:684   */\n      tag_43\n      jumpi\n        /* \"#utility.yul\":680:681   */\n      0x00\n        /* \"#utility.yul\":677:678   */\n      dup1\n        /* \"#utility.yul\":670:682   */\n      revert\n        /* \"#utility.yul\":621:684   */\n    tag_43:\n        /* \"#utility.yul\":568:690   */\n      pop\n      jump\t// out\n        /* \"#utility.yul\":696:835   */\n    tag_30:\n        /* \"#utility.yul\":742:747   */\n      0x00\n        /* \"#utility.yul\":780:786   */\n      dup2\n        /* \"#utility.yul\":767:787   */\n      calldataload\n        /* \"#utility.yul\":758:787   */\n      swap1\n      pop\n        /* \"#utility.yul\":796:829   */\n      tag_45\n        /* \"#utility.yul\":823:828   */\n      dup2\n        /* \"#utility.yul\":796:829   */\n      tag_29\n      jump\t// in\n    tag_45:\n        /* \"#utility.yul\":696:835   */\n      swap3\n      swap2\n      pop\n      pop\n      jump\t// out\n        /* \"#utility.yul\":841:1170   */\n    tag_8:\n        /* \"#utility.yul\":900:906   */\n      0x00\n        /* \"#utility.yul\":949:951   */\n      0x20\n        /* \"#utility.yul\":937:946   */\n      dup3\n        /* \"#utility.yul\":928:935   */\n      dup5\n        /* \"#utility.yul\":924:947   */\n      sub\n        /* \"#utility.yul\":920:952   */\n      slt\n        /* \"#utility.yul\":917:1036   */\n      iszero\n      tag_47\n      jumpi\n        /* \"#utility.yul\":955:1034   */\n      tag_48\n      tag_25\n      jump\t// in\n    tag_48:\n        /* \"#utility.yul\":917:1036   */\n    tag_47:\n        /* \"#utility.yul\":1075:1076   */\n      0x00\n        /* \"#utility.yul\":1100:1153   */\n      tag_49\n        /* \"#utility.yul\":1145:1152   */\n      dup5\n        /* \"#utility.yul\":1136:1142   */\n      dup3\n        /* \"#utility.yul\":1125:1134   */\n      dup6\n        /* \"#utility.yul\":1121:1143   */\n      add\n        /* \"#utility.yul\":1100:1153   */\n      tag_30\n      jump\t// in\n    tag_49:\n        /* \"#utility.yul\":1090:1153   */\n      swap2\n      pop\n        /* \"#utility.yul\":1046:1163   */\n      pop\n        /* \"#utility.yul\":841:1170   */\n      swap3\n      swap2\n      pop\n      pop\n      jump\t// out\n        /* \"#utility.yul\":1176:1252   */\n    tag_31:\n        /* \"#utility.yul\":1212:1219   */\n      0x00\n        /* \"#utility.yul\":1241:1246   */\n      dup2\n        /* \"#utility.yul\":1230:1246   */\n      swap1\n      pop\n        /* \"#utility.yul\":1176:1252   */\n      swap2\n      swap1\n      pop\n      jump\t// out\n        /* \"#utility.yul\":1258:1373   */\n    tag_32:\n        /* \"#utility.yul\":1343:1366   */\n      tag_52\n        /* \"#utility.yul\":1360:1365   */\n      dup2\n        /* \"#utility.yul\":1343:1366   */\n      tag_31\n      jump\t// in\n    tag_52:\n        /* \"#utility.yul\":1338:1341   */\n      dup3\n        /* \"#utility.yul\":1331:1367   */\n      mstore\n        /* \"#utility.yul\":1258:1373   */\n      pop\n      pop\n      jump\t// out\n        /* \"#utility.yul\":1379:1597   */\n    tag_11:\n        /* \"#utility.yul\":1470:1474   */\n      0x00\n        /* \"#utility.yul\":1508:1510   */\n      0x20\n        /* \"#utility.yul\":1497:1506   */\n      dup3\n        /* \"#utility.yul\":1493:1511   */\n      add\n        /* \"#utility.yul\":1485:1511   */\n      swap1\n      pop\n        /* \"#utility.yul\":1521:1590   */\n      tag_54\n        /* \"#utility.yul\":1587:1588   */\n      0x00\n        /* \"#utility.yul\":1576:1585   */\n      dup4\n        /* \"#utility.yul\":1572:1589   */\n      add\n        /* \"#utility.yul\":1563:1569   */\n      dup5\n        /* \"#utility.yul\":1521:1590   */\n      tag_32\n      jump\t// in\n    tag_54:\n        /* \"#utility.yul\":1379:1597   */\n      swap3\n      swap2\n      pop\n      pop\n      jump\t// out\n        /* \"#utility.yul\":1603:1783   */\n    tag_33:\n        /* \"#utility.yul\":1651:1728   */\n      0x4e487b7100000000000000000000000000000000000000000000000000000000\n        /* \"#utility.yul\":1648:1649   */\n      0x00\n        /* \"#utility.yul\":1641:1729   */\n      mstore\n        /* \"#utility.yul\":1748:1752   */\n      0x11\n        /* \"#utility.yul\":1745:1746   */\n      0x04\n        /* \"#utility.yul\":1738:1753   */\n      mstore\n        /* \"#utility.yul\":1772:1776   */\n      0x24\n        /* \"#utility.yul\":1769:1770   */\n      0x00\n        /* \"#utility.yul\":1762:1777   */\n      revert\n        /* \"#utility.yul\":1789:2161   */\n    tag_20:\n        /* \"#utility.yul\":1828:1832   */\n      0x00\n        /* \"#utility.yul\":1848:1867   */\n      tag_57\n        /* \"#utility.yul\":1865:1866   */\n      dup3\n        /* \"#utility.yul\":1848:1867   */\n      tag_31\n      jump\t// in\n    tag_57:\n        /* \"#utility.yul\":1843:1867   */\n      swap2\n      pop\n        /* \"#utility.yul\":1881:1900   */\n      tag_58\n        /* \"#utility.yul\":1898:1899   */\n      dup4\n        /* \"#utility.yul\":1881:1900   */\n      tag_31\n      jump\t// in\n    tag_58:\n        /* \"#utility.yul\":1876:1900   */\n      swap3\n      pop\n        /* \"#utility.yul\":1924:1925   */\n      dup3\n        /* \"#utility.yul\":1921:1922   */\n      dup3\n        /* \"#utility.yul\":1917:1926   */\n      sub\n        /* \"#utility.yul\":1909:1926   */\n      swap1\n      pop\n        /* \"#utility.yul\":2118:2119   */\n      dup2\n        /* \"#utility.yul\":2112:2116   */\n      dup2\n        /* \"#utility.yul\":2108:2120   */\n      slt\n        /* \"#utility.yul\":2104:2105   */\n      0x00\n        /* \"#utility.yul\":2101:2102   */\n      dup5\n        /* \"#utility.yul\":2097:2106   */\n      slt\n        /* \"#utility.yul\":2093:2121   */\n      and\n        /* \"#utility.yul\":2076:2077   */\n      dup3\n        /* \"#utility.yul\":2070:2074   */\n      dup3\n        /* \"#utility.yul\":2066:2078   */\n      sgt\n        /* \"#utility.yul\":2061:2062   */\n      0x00\n        /* \"#utility.yul\":2058:2059   */\n      dup6\n        /* \"#utility.yul\":2054:2063   */\n      slt\n        /* \"#utility.yul\":2047:2064   */\n      iszero\n        /* \"#utility.yul\":2043:2079   */\n      and\n        /* \"#utility.yul\":2027:2131   */\n      or\n        /* \"#utility.yul\":2024:2154   */\n      iszero\n      tag_59\n      jumpi\n        /* \"#utility.yul\":2134:2152   */\n      tag_60\n      tag_33\n      jump\t// in\n    tag_60:\n        /* \"#utility.yul\":2024:2154   */\n    tag_59:\n        /* \"#utility.yul\":1789:2161   */\n      swap3\n      swap2\n      pop\n      pop\n      jump\t// out\n        /* \"#utility.yul\":2167:2542   */\n    tag_23:\n        /* \"#utility.yul\":2206:2209   */\n      0x00\n        /* \"#utility.yul\":2225:2244   */\n      tag_62\n        /* \"#utility.yul\":2242:2243   */\n      dup3\n        /* \"#utility.yul\":2225:2244   */\n      tag_31\n      jump\t// in\n    tag_62:\n        /* \"#utility.yul\":2220:2244   */\n      swap2\n      pop\n        /* \"#utility.yul\":2258:2277   */\n      tag_63\n        /* \"#utility.yul\":2275:2276   */\n      dup4\n        /* \"#utility.yul\":2258:2277   */\n      tag_31\n      jump\t// in\n    tag_63:\n        /* \"#utility.yul\":2253:2277   */\n      swap3\n      pop\n        /* \"#utility.yul\":2300:2301   */\n      dup3\n        /* \"#utility.yul\":2297:2298   */\n      dup3\n        /* \"#utility.yul\":2293:2302   */\n      add\n        /* \"#utility.yul\":2286:2302   */\n      swap1\n      pop\n        /* \"#utility.yul\":2498:2499   */\n      dup3\n        /* \"#utility.yul\":2493:2496   */\n      dup2\n        /* \"#utility.yul\":2489:2500   */\n      slt\n        /* \"#utility.yul\":2482:2501   */\n      iszero\n        /* \"#utility.yul\":2478:2479   */\n      0x00\n        /* \"#utility.yul\":2475:2476   */\n      dup4\n        /* \"#utility.yul\":2471:2480   */\n      slt\n        /* \"#utility.yul\":2467:2502   */\n      and\n        /* \"#utility.yul\":2450:2451   */\n      dup4\n        /* \"#utility.yul\":2445:2448   */\n      dup3\n        /* \"#utility.yul\":2441:2452   */\n      slt\n        /* \"#utility.yul\":2436:2437   */\n      0x00\n        /* \"#utility.yul\":2433:2434   */\n      dup5\n        /* \"#utility.yul\":2429:2438   */\n      slt\n        /* \"#utility.yul\":2422:2439   */\n      iszero\n        /* \"#utility.yul\":2418:2453   */\n      and\n        /* \"#utility.yul\":2402:2512   */\n      or\n        /* \"#utility.yul\":2399:2535   */\n      iszero\n      tag_64\n      jumpi\n        /* \"#utility.yul\":2515:2533   */\n      tag_65\n      tag_33\n      jump\t// in\n    tag_65:\n        /* \"#utility.yul\":2399:2535   */\n    tag_64:\n        /* \"#utility.yul\":2167:2542   */\n      swap3\n      swap2\n      pop\n      pop\n      jump\t// out\n\n    auxdata: 0xa2646970667358221220bf060c474cc46b1fdc815ec6af07cd8f5c430277c4e483ccab53bc3eae56d5aa64736f6c63430008170033\n}\n",
				"bytecode": {
					"linkReferences": {},
					"object": "608060405234801561000f575f80fd5b5060645f803373ffffffffffffffffffffffffffffffffffffffff1673ffffffffffffffffffffffffffffffffffffffff1681526020019081526020015f20819055506103098061005f5f395ff3fe608060405234801561000f575f80fd5b506004361061003f575f3560e01c80633a2ee855146100435780635230bca31461007357806383ae2a631461008f575b5f80fd5b61005d600480360381019061005891906101c9565b6100ab565b60405161006a919061020c565b60405180910390f35b61008d600480360381019061008891906101c9565b6100bf565b005b6100a960048036038101906100a491906101c9565b610115565b005b5f602052805f5260405f205f915090505481565b60015f808373ffffffffffffffffffffffffffffffffffffffff1673ffffffffffffffffffffffffffffffffffffffff1681526020019081526020015f205f82825461010b9190610252565b9250508190555050565b60015f808373ffffffffffffffffffffffffffffffffffffffff1673ffffffffffffffffffffffffffffffffffffffff1681526020019081526020015f205f8282546101619190610292565b9250508190555050565b5f80fd5b5f73ffffffffffffffffffffffffffffffffffffffff82169050919050565b5f6101988261016f565b9050919050565b6101a88161018e565b81146101b2575f80fd5b50565b5f813590506101c38161019f565b92915050565b5f602082840312156101de576101dd61016b565b5b5f6101eb848285016101b5565b91505092915050565b5f819050919050565b610206816101f4565b82525050565b5f60208201905061021f5f8301846101fd565b92915050565b7f4e487b71000000000000000000000000000000000000000000000000000000005f52601160045260245ffd5b5f61025c826101f4565b9150610267836101f4565b925082820390508181125f8412168282135f85121516171561028c5761028b610225565b5b92915050565b5f61029c826101f4565b91506102a7836101f4565b92508282019050828112155f8312168382125f8412151617156102cd576102cc610225565b5b9291505056fea2646970667358221220bf060c474cc46b1fdc815ec6af07cd8f5c430277c4e483ccab53bc3eae56d5aa64736f6c63430008170033",
					"opcodes": "PUSH1 0x80 PUSH1 0x40 MSTORE CALLVALUE DUP1 ISZERO PUSH2 0xF JUMPI PUSH0 DUP1 REVERT JUMPDEST POP PUSH1 0x64 PUSH0 DUP1 CALLER PUSH20 0xFFFFFFFFFFFFFFFFFFFFFFFFFFFFFFFFFFFFFFFF AND PUSH20 0xFFFFFFFFFFFFFFFFFFFFFFFFFFFFFFFFFFFFFFFF AND DUP2 MSTORE PUSH1 0x20 ADD SWAP1 DUP2 MSTORE PUSH1 0x20 ADD PUSH0 KECCAK256 DUP2 SWAP1 SSTORE POP PUSH2 0x309 DUP1 PUSH2 0x5F PUSH0 CODECOPY PUSH0 RETURN INVALID PUSH1 0x80 PUSH1 0x40 MSTORE CALLVALUE DUP1 ISZERO PUSH2 0xF JUMPI PUSH0 DUP1 REVERT JUMPDEST POP PUSH1 0x4 CALLDATASIZE LT PUSH2 0x3F JUMPI PUSH0 CALLDATALOAD PUSH1 0xE0 SHR DUP1 PUSH4 0x3A2EE855 EQ PUSH2 0x43 JUMPI DUP1 PUSH4 0x5230BCA3 EQ PUSH2 0x73 JUMPI DUP1 PUSH4 0x83AE2A63 EQ PUSH2 0x8F JUMPI JUMPDEST PUSH0 DUP1 REVERT JUMPDEST PUSH2 0x5D PUSH1 0x4 DUP1 CALLDATASIZE SUB DUP2 ADD SWAP1 PUSH2 0x58 SWAP2 SWAP1 PUSH2 0x1C9 JUMP JUMPDEST PUSH2 0xAB JUMP JUMPDEST PUSH1 0x40 MLOAD PUSH2 0x6A SWAP2 SWAP1 PUSH2 0x20C JUMP JUMPDEST PUSH1 0x40 MLOAD DUP1 SWAP2 SUB SWAP1 RETURN JUMPDEST PUSH2 0x8D PUSH1 0x4 DUP1 CALLDATASIZE SUB DUP2 ADD SWAP1 PUSH2 0x88 SWAP2 SWAP1 PUSH2 0x1C9 JUMP JUMPDEST PUSH2 0xBF JUMP JUMPDEST STOP JUMPDEST PUSH2 0xA9 PUSH1 0x4 DUP1 CALLDATASIZE SUB DUP2 ADD SWAP1 PUSH2 0xA4 SWAP2 SWAP1 PUSH2 0x1C9 JUMP JUMPDEST PUSH2 0x115 JUMP JUMPDEST STOP JUMPDEST PUSH0 PUSH1 0x20 MSTORE DUP1 PUSH0 MSTORE PUSH1 0x40 PUSH0 KECCAK256 PUSH0 SWAP2 POP SWAP1 POP SLOAD DUP2 JUMP JUMPDEST PUSH1 0x1 PUSH0 DUP1 DUP4 PUSH20 0xFFFFFFFFFFFFFFFFFFFFFFFFFFFFFFFFFFFFFFFF AND PUSH20 0xFFFFFFFFFFFFFFFFFFFFFFFFFFFFFFFFFFFFFFFF AND DUP2 MSTORE PUSH1 0x20 ADD SWAP1 DUP2 MSTORE PUSH1 0x20 ADD PUSH0 KECCAK256 PUSH0 DUP3 DUP3 SLOAD PUSH2 0x10B SWAP2 SWAP1 PUSH2 0x252 JUMP JUMPDEST SWAP3 POP POP DUP2 SWAP1 SSTORE POP POP JUMP JUMPDEST PUSH1 0x1 PUSH0 DUP1 DUP4 PUSH20 0xFFFFFFFFFFFFFFFFFFFFFFFFFFFFFFFFFFFFFFFF AND PUSH20 0xFFFFFFFFFFFFFFFFFFFFFFFFFFFFFFFFFFFFFFFF AND DUP2 MSTORE PUSH1 0x20 ADD SWAP1 DUP2 MSTORE PUSH1 0x20 ADD PUSH0 KECCAK256 PUSH0 DUP3 DUP3 SLOAD PUSH2 0x161 SWAP2 SWAP1 PUSH2 0x292 JUMP JUMPDEST SWAP3 POP POP DUP2 SWAP1 SSTORE POP POP JUMP JUMPDEST PUSH0 DUP1 REVERT JUMPDEST PUSH0 PUSH20 0xFFFFFFFFFFFFFFFFFFFFFFFFFFFFFFFFFFFFFFFF DUP3 AND SWAP1 POP SWAP2 SWAP1 POP JUMP JUMPDEST PUSH0 PUSH2 0x198 DUP3 PUSH2 0x16F JUMP JUMPDEST SWAP1 POP SWAP2 SWAP1 POP JUMP JUMPDEST PUSH2 0x1A8 DUP2 PUSH2 0x18E JUMP JUMPDEST DUP2 EQ PUSH2 0x1B2 JUMPI PUSH0 DUP1 REVERT JUMPDEST POP JUMP JUMPDEST PUSH0 DUP2 CALLDATALOAD SWAP1 POP PUSH2 0x1C3 DUP2 PUSH2 0x19F JUMP JUMPDEST SWAP3 SWAP2 POP POP JUMP JUMPDEST PUSH0 PUSH1 0x20 DUP3 DUP5 SUB SLT ISZERO PUSH2 0x1DE JUMPI PUSH2 0x1DD PUSH2 0x16B JUMP JUMPDEST JUMPDEST PUSH0 PUSH2 0x1EB DUP5 DUP3 DUP6 ADD PUSH2 0x1B5 JUMP JUMPDEST SWAP2 POP POP SWAP3 SWAP2 POP POP JUMP JUMPDEST PUSH0 DUP2 SWAP1 POP SWAP2 SWAP1 POP JUMP JUMPDEST PUSH2 0x206 DUP2 PUSH2 0x1F4 JUMP JUMPDEST DUP3 MSTORE POP POP JUMP JUMPDEST PUSH0 PUSH1 0x20 DUP3 ADD SWAP1 POP PUSH2 0x21F PUSH0 DUP4 ADD DUP5 PUSH2 0x1FD JUMP JUMPDEST SWAP3 SWAP2 POP POP JUMP JUMPDEST PUSH32 0x4E487B7100000000000000000000000000000000000000000000000000000000 PUSH0 MSTORE PUSH1 0x11 PUSH1 0x4 MSTORE PUSH1 0x24 PUSH0 REVERT JUMPDEST PUSH0 PUSH2 0x25C DUP3 PUSH2 0x1F4 JUMP JUMPDEST SWAP2 POP PUSH2 0x267 DUP4 PUSH2 0x1F4 JUMP JUMPDEST SWAP3 POP DUP3 DUP3 SUB SWAP1 POP DUP2 DUP2 SLT PUSH0 DUP5 SLT AND DUP3 DUP3 SGT PUSH0 DUP6 SLT ISZERO AND OR ISZERO PUSH2 0x28C JUMPI PUSH2 0x28B PUSH2 0x225 JUMP JUMPDEST JUMPDEST SWAP3 SWAP2 POP POP JUMP JUMPDEST PUSH0 PUSH2 0x29C DUP3 PUSH2 0x1F4 JUMP JUMPDEST SWAP2 POP PUSH2 0x2A7 DUP4 PUSH2 0x1F4 JUMP JUMPDEST SWAP3 POP DUP3 DUP3 ADD SWAP1 POP DUP3 DUP2 SLT ISZERO PUSH0 DUP4 SLT AND DUP4 DUP3 SLT PUSH0 DUP5 SLT ISZERO AND OR ISZERO PUSH2 0x2CD JUMPI PUSH2 0x2CC PUSH2 0x225 JUMP JUMPDEST JUMPDEST SWAP3 SWAP2 POP POP JUMP INVALID LOG2 PUSH5 0x6970667358 0x22 SLT KECCAK256 0xBF MOD 0xC SELFBALANCE 0x4C 0xC4 PUSH12 0x1FDC815EC6AF07CD8F5C4302 PUSH24 0xC4E483CCAB53BC3EAE56D5AA64736F6C6343000817003300 "
				},
				"gasEstimates": {
					"creation": {
						"codeDepositCost": "155400",
						"executionCost": "22401",
						"totalCost": "177801"
					},
					"external": {
						"applaud(address)": "infinite",
						"boo(address)": "infinite",
						"karma(address)": "2779"
					}
				},
				"methodIdentifiers": {
					"applaud(address)": "83ae2a63",
					"boo(address)": "5230bca3",
					"karma(address)": "3a2ee855"
				}
			},
			"storageLayout": {
				"storage": [
					{
						"astId": 5,
						"contract": "monad dashboard/SocialKarma.sol:SocialKarma",
						"label": "karma",
						"offset": 0,
						"slot": "0",
						"type": "t_mapping(t_address,t_int256)"
					}
				],
				"types": {
					"t_address": {
						"encoding": "inplace",
						"label": "address",
						"numberOfBytes": "20"
					},
					"t_int256": {
						"encoding": "inplace",
						"label": "int256",
						"numberOfBytes": "32"
					},
					"t_mapping(t_address,t_int256)": {
						"encoding": "mapping",
						"key": "t_address",
						"label": "mapping(address => int256)",
						"numberOfBytes": "32",
						"value": "t_int256"
					}
				}
			},
			"userdoc": {
				"kind": "user",
				"methods": {},
				"version": 1
			}
		}
	}
}