{
	"monad dashboard/TaskList.sol": {
		"TaskList": {
			"abi": [
				{
					"inputs": [
						{
							"internalType": "string",
							"name": "desc",
							"type": "string"
						}
					],
					"name": "addTask",
					"outputs": [],
					"stateMutability": "nonpayable",
					"type": "function"
				},
				{
					"inputs": [
						{
							"internalType": "uint256",
							"name": "index",
							"type": "uint256"
						}
					],
					"name": "completeTask",
					"outputs": [],
					"stateMutability": "nonpayable",
					"type": "function"
				},
				{
					"inputs": [
						{
							"internalType": "address",
							"name": "",
							"type": "address"
						},
						{
							"internalType": "uint256",
							"name": "",
							"type": "uint256"
						}
					],
					"name": "tasks",
					"outputs": [
						{
							"internalType": "string",
							"name": "description",
							"type": "string"
						},
						{
							"internalType": "bool",
							"name": "completed",
							"type": "bool"
						}
					],
					"stateMutability": "view",
					"type": "function"
				}
			],
			"devdoc": {
				"kind": "dev",
				"methods": {},
				"version": 1
			},
			"evm": {
				"assembly": "    /* \"monad dashboard/TaskList.sol\":93:464  contract TaskList {... */\n  mstore(0x40, 0x80)\n  callvalue\n  dup1\n  iszero\n  tag_1\n  jumpi\n  0x00\n  dup1\n  revert\ntag_1:\n  pop\n  dataSize(sub_0)\n  dup1\n  dataOffset(sub_0)\n  0x00\n  codecopy\n  0x00\n  return\nstop\n\nsub_0: assembly {\n        /* \"monad dashboard/TaskList.sol\":93:464  contract TaskList {... */\n      mstore(0x40, 0x80)\n      callvalue\n      dup1\n      iszero\n      tag_1\n      jumpi\n      0x00\n      dup1\n      revert\n    tag_1:\n      pop\n      jumpi(tag_2, lt(calldatasize, 0x04))\n      shr(0xe0, calldataload(0x00))\n      dup1\n      0x67238562\n      eq\n      tag_3\n      jumpi\n      dup1\n      0x7149d2e4\n      eq\n      tag_4\n      jumpi\n      dup1\n      0xe1e29558\n      eq\n      tag_5\n      jumpi\n    tag_2:\n      0x00\n      dup1\n      revert\n        /* \"monad dashboard/TaskList.sol\":244:352  function addTask(string calldata desc) external {... */\n    tag_3:\n      tag_6\n      0x04\n      dup1\n      calldatasize\n      sub\n      dup2\n      add\n      swap1\n      tag_7\n      swap2\n      swap1\n      tag_8\n      jump\t// in\n    tag_7:\n      tag_9\n      jump\t// in\n    tag_6:\n      stop\n        /* \"monad dashboard/TaskList.sol\":198:237  mapping(address => Task[]) public tasks */\n    tag_4:\n      tag_10\n      0x04\n      dup1\n      calldatasize\n      sub\n      dup2\n      add\n      swap1\n      tag_11\n      swap2\n      swap1\n      tag_12\n      jump\t// in\n    tag_11:\n      tag_13\n      jump\t// in\n    tag_10:\n      mload(0x40)\n      tag_14\n      swap3\n      swap2\n      swap1\n      tag_15\n      jump\t// in\n    tag_14:\n      mload(0x40)\n      dup1\n      swap2\n      sub\n      swap1\n      return\n        /* \"monad dashboard/TaskList.sol\":358:461  function completeTask(uint index) external {... */\n    tag_5:\n      tag_16\n      0x04\n      dup1\n      calldatasize\n      sub\n      dup2\n      add\n      swap1\n      tag_17\n      swap2\n      swap1\n      tag_18\n      jump\t// in\n    tag_17:\n      tag_19\n      jump\t// in\n    tag_16:\n      stop\n        /* \"monad dashboard/TaskList.sol\":244:352  function addTask(string calldata desc) external {... */\n    tag_9:\n        /* \"monad dashboard/TaskList.sol\":303:308  tasks */\n      0x00\n        /* \"monad dashboard/TaskList.sol\":303:320  tasks[msg.sender] */\n      dup1\n        /* \"monad dashboard/TaskList.sol\":309:319  msg.sender */\n      caller\n        /* \"monad dashboard/TaskList.sol\":303:320  tasks[msg.sender] */\n      0xffffffffffffffffffffffffffffffffffffffff\n      and\n      0xffffffffffffffffffffffffffffffffffffffff\n      and\n      dup2\n      mstore\n      0x20\n      add\n      swap1\n      dup2\n      mstore\n      0x20\n      add\n      0x00\n      keccak256\n        /* \"monad dashboard/TaskList.sol\":326:343  Task(desc, false) */\n      mload(0x40)\n      dup1\n      0x40\n      add\n      0x40\n      mstore\n      dup1\n        /* \"monad dashboard/TaskList.sol\":331:335  desc */\n      dup5\n      dup5\n        /* \"monad dashboard/TaskList.sol\":326:343  Task(desc, false) */\n      dup1\n      dup1\n      0x1f\n      add\n      0x20\n      dup1\n      swap2\n      div\n      mul\n      0x20\n      add\n      mload(0x40)\n      swap1\n      dup2\n      add\n      0x40\n      mstore\n      dup1\n      swap4\n      swap3\n      swap2\n      swap1\n      dup2\n      dup2\n      mstore\n      0x20\n      add\n      dup4\n      dup4\n      dup1\n      dup3\n      dup5\n      calldatacopy\n      0x00\n      dup2\n      dup5\n      add\n      mstore\n      not(0x1f)\n      0x1f\n      dup3\n      add\n      and\n      swap1\n      pop\n      dup1\n      dup4\n      add\n      swap3\n      pop\n      pop\n      pop\n      pop\n      pop\n      pop\n      pop\n      dup2\n      mstore\n      0x20\n      add\n        /* \"monad dashboard/TaskList.sol\":337:342  false */\n      0x00\n        /* \"monad dashboard/TaskList.sol\":326:343  Task(desc, false) */\n      iszero\n      iszero\n      dup2\n      mstore\n      pop\n        /* \"monad dashboard/TaskList.sol\":303:344  tasks[msg.sender].push(Task(desc, false)) */\n      swap1\n      dup1\n      0x01\n      dup2\n      sload\n      add\n      dup1\n      dup3\n      sstore\n      dup1\n      swap2\n      pop\n      pop\n      0x01\n      swap1\n      sub\n      swap1\n      0x00\n      mstore\n      keccak256(0x00, 0x20)\n      swap1\n      0x02\n      mul\n      add\n      0x00\n      swap1\n      swap2\n      swap1\n      swap2\n      swap1\n      swap2\n      pop\n      0x00\n      dup3\n      add\n      mload\n      dup2\n      0x00\n      add\n      swap1\n      dup2\n      tag_22\n      swap2\n      swap1\n      tag_23\n      jump\t// in\n    tag_22:\n      pop\n      0x20\n      dup3\n      add\n      mload\n      dup2\n      0x01\n      add\n      exp(0x0100, 0x00)\n      dup2\n      sload\n      dup2\n      0xff\n      mul\n      not\n      and\n      swap1\n      dup4\n      iszero\n      iszero\n      mul\n      or\n      swap1\n      sstore\n      pop\n      pop\n      pop\n        /* \"monad dashboard/TaskList.sol\":244:352  function addTask(string calldata desc) external {... */\n      pop\n      pop\n      jump\t// out\n        /* \"monad dashboard/TaskList.sol\":198:237  mapping(address => Task[]) public tasks */\n    tag_13:\n      mstore(0x20, 0x00)\n      dup2\n      0x00\n      mstore\n      keccak256(0x00, 0x40)\n      dup2\n      dup2\n      sload\n      dup2\n      lt\n      tag_24\n      jumpi\n      0x00\n      dup1\n      revert\n    tag_24:\n      swap1\n      0x00\n      mstore\n      keccak256(0x00, 0x20)\n      swap1\n      0x02\n      mul\n      add\n      0x00\n      swap2\n      pop\n      swap2\n      pop\n      pop\n      dup1\n      0x00\n      add\n      dup1\n      sload\n      tag_26\n      swap1\n      tag_27\n      jump\t// in\n    tag_26:\n      dup1\n      0x1f\n      add\n      0x20\n      dup1\n      swap2\n      div\n      mul\n      0x20\n      add\n      mload(0x40)\n      swap1\n      dup2\n      add\n      0x40\n      mstore\n      dup1\n      swap3\n      swap2\n      swap1\n      dup2\n      dup2\n      mstore\n      0x20\n      add\n      dup3\n      dup1\n      sload\n      tag_28\n      swap1\n      tag_27\n      jump\t// in\n    tag_28:\n      dup1\n      iszero\n      tag_29\n      jumpi\n      dup1\n      0x1f\n      lt\n      tag_30\n      jumpi\n      0x0100\n      dup1\n      dup4\n      sload\n      div\n      mul\n      dup4\n      mstore\n      swap2\n      0x20\n      add\n      swap2\n      jump(tag_29)\n    tag_30:\n      dup3\n      add\n      swap2\n      swap1\n      0x00\n      mstore\n      keccak256(0x00, 0x20)\n      swap1\n    tag_31:\n      dup2\n      sload\n      dup2\n      mstore\n      swap1\n      0x01\n      add\n      swap1\n      0x20\n      add\n      dup1\n      dup4\n      gt\n      tag_31\n      jumpi\n      dup3\n      swap1\n      sub\n      0x1f\n      and\n      dup3\n      add\n      swap2\n    tag_29:\n      pop\n      pop\n      pop\n      pop\n      pop\n      swap1\n      dup1\n      0x01\n      add\n      0x00\n      swap1\n      sload\n      swap1\n      0x0100\n      exp\n      swap1\n      div\n      0xff\n      and\n      swap1\n      pop\n      dup3\n      jump\t// out\n        /* \"monad dashboard/TaskList.sol\":358:461  function completeTask(uint index) external {... */\n    tag_19:\n        /* \"monad dashboard/TaskList.sol\":449:453  true */\n      0x01\n        /* \"monad dashboard/TaskList.sol\":412:417  tasks */\n      0x00\n        /* \"monad dashboard/TaskList.sol\":412:429  tasks[msg.sender] */\n      dup1\n        /* \"monad dashboard/TaskList.sol\":418:428  msg.sender */\n      caller\n        /* \"monad dashboard/TaskList.sol\":412:429  tasks[msg.sender] */\n      0xffffffffffffffffffffffffffffffffffffffff\n      and\n      0xffffffffffffffffffffffffffffffffffffffff\n      and\n      dup2\n      mstore\n      0x20\n      add\n      swap1\n      dup2\n      mstore\n      0x20\n      add\n      0x00\n      keccak256\n        /* \"monad dashboard/TaskList.sol\":430:435  index */\n      dup3\n        /* \"monad dashboard/TaskList.sol\":412:436  tasks[msg.sender][index] */\n      dup2\n      sload\n      dup2\n      lt\n      tag_33\n      jumpi\n      tag_34\n      tag_35\n      jump\t// in\n    tag_34:\n    tag_33:\n      swap1\n      0x00\n      mstore\n      keccak256(0x00, 0x20)\n      swap1\n      0x02\n      mul\n      add\n        /* \"monad dashboard/TaskList.sol\":412:446  tasks[msg.sender][index].completed */\n      0x01\n      add\n      0x00\n        /* \"monad dashboard/TaskList.sol\":412:453  tasks[msg.sender][index].completed = true */\n      0x0100\n      exp\n      dup2\n      sload\n      dup2\n      0xff\n      mul\n      not\n      and\n      swap1\n      dup4\n      iszero\n      iszero\n      mul\n      or\n      swap1\n      sstore\n      pop\n        /* \"monad dashboard/TaskList.sol\":358:461  function completeTask(uint index) external {... */\n      pop\n      jump\t// out\n        /* \"#utility.yul\":88:205   */\n    tag_38:\n        /* \"#utility.yul\":197:198   */\n      0x00\n        /* \"#utility.yul\":194:195   */\n      dup1\n        /* \"#utility.yul\":187:199   */\n      revert\n        /* \"#utility.yul\":211:328   */\n    tag_39:\n        /* \"#utility.yul\":320:321   */\n      0x00\n        /* \"#utility.yul\":317:318   */\n      dup1\n        /* \"#utility.yul\":310:322   */\n      revert\n        /* \"#utility.yul\":334:451   */\n    tag_40:\n        /* \"#utility.yul\":443:444   */\n      0x00\n        /* \"#utility.yul\":440:441   */\n      dup1\n        /* \"#utility.yul\":433:445   */\n      revert\n        /* \"#utility.yul\":457:574   */\n    tag_41:\n        /* \"#utility.yul\":566:567   */\n      0x00\n        /* \"#utility.yul\":563:564   */\n      dup1\n        /* \"#utility.yul\":556:568   */\n      revert\n        /* \"#utility.yul\":580:697   */\n    tag_42:\n        /* \"#utility.yul\":689:690   */\n      0x00\n        /* \"#utility.yul\":686:687   */\n      dup1\n        /* \"#utility.yul\":679:691   */\n      revert\n        /* \"#utility.yul\":717:1270   */\n    tag_43:\n        /* \"#utility.yul\":775:783   */\n      0x00\n        /* \"#utility.yul\":785:791   */\n      dup1\n        /* \"#utility.yul\":835:838   */\n      dup4\n        /* \"#utility.yul\":828:832   */\n      0x1f\n        /* \"#utility.yul\":820:826   */\n      dup5\n        /* \"#utility.yul\":816:833   */\n      add\n        /* \"#utility.yul\":812:839   */\n      slt\n        /* \"#utility.yul\":802:924   */\n      tag_83\n      jumpi\n        /* \"#utility.yul\":843:922   */\n      tag_84\n      tag_40\n      jump\t// in\n    tag_84:\n        /* \"#utility.yul\":802:924   */\n    tag_83:\n        /* \"#utility.yul\":956:962   */\n      dup3\n        /* \"#utility.yul\":943:963   */\n      calldataload\n        /* \"#utility.yul\":933:963   */\n      swap1\n      pop\n        /* \"#utility.yul\":986:1004   */\n      0xffffffffffffffff\n        /* \"#utility.yul\":978:984   */\n      dup2\n        /* \"#utility.yul\":975:1005   */\n      gt\n        /* \"#utility.yul\":972:1089   */\n      iszero\n      tag_85\n      jumpi\n        /* \"#utility.yul\":1008:1087   */\n      tag_86\n      tag_41\n      jump\t// in\n    tag_86:\n        /* \"#utility.yul\":972:1089   */\n    tag_85:\n        /* \"#utility.yul\":1122:1126   */\n      0x20\n        /* \"#utility.yul\":1114:1120   */\n      dup4\n        /* \"#utility.yul\":1110:1127   */\n      add\n        /* \"#utility.yul\":1098:1127   */\n      swap2\n      pop\n        /* \"#utility.yul\":1176:1179   */\n      dup4\n        /* \"#utility.yul\":1168:1172   */\n      0x01\n        /* \"#utility.yul\":1160:1166   */\n      dup3\n        /* \"#utility.yul\":1156:1173   */\n      mul\n        /* \"#utility.yul\":1146:1154   */\n      dup4\n        /* \"#utility.yul\":1142:1174   */\n      add\n        /* \"#utility.yul\":1139:1180   */\n      gt\n        /* \"#utility.yul\":1136:1264   */\n      iszero\n      tag_87\n      jumpi\n        /* \"#utility.yul\":1183:1262   */\n      tag_88\n      tag_42\n      jump\t// in\n    tag_88:\n        /* \"#utility.yul\":1136:1264   */\n    tag_87:\n        /* \"#utility.yul\":717:1270   */\n      swap3\n      pop\n      swap3\n      swap1\n      pop\n      jump\t// out\n        /* \"#utility.yul\":1276:1805   */\n    tag_8:\n        /* \"#utility.yul\":1347:1353   */\n      0x00\n        /* \"#utility.yul\":1355:1361   */\n      dup1\n        /* \"#utility.yul\":1404:1406   */\n      0x20\n        /* \"#utility.yul\":1392:1401   */\n      dup4\n        /* \"#utility.yul\":1383:1390   */\n      dup6\n        /* \"#utility.yul\":1379:1402   */\n      sub\n        /* \"#utility.yul\":1375:1407   */\n      slt\n        /* \"#utility.yul\":1372:1491   */\n      iszero\n      tag_90\n      jumpi\n        /* \"#utility.yul\":1410:1489   */\n      tag_91\n      tag_38\n      jump\t// in\n    tag_91:\n        /* \"#utility.yul\":1372:1491   */\n    tag_90:\n        /* \"#utility.yul\":1558:1559   */\n      0x00\n        /* \"#utility.yul\":1547:1556   */\n      dup4\n        /* \"#utility.yul\":1543:1560   */\n      add\n        /* \"#utility.yul\":1530:1561   */\n      calldataload\n        /* \"#utility.yul\":1588:1606   */\n      0xffffffffffffffff\n        /* \"#utility.yul\":1580:1586   */\n      dup2\n        /* \"#utility.yul\":1577:1607   */\n      gt\n        /* \"#utility.yul\":1574:1691   */\n      iszero\n      tag_92\n      jumpi\n        /* \"#utility.yul\":1610:1689   */\n      tag_93\n      tag_39\n      jump\t// in\n    tag_93:\n        /* \"#utility.yul\":1574:1691   */\n    tag_92:\n        /* \"#utility.yul\":1723:1788   */\n      tag_94\n        /* \"#utility.yul\":1780:1787   */\n      dup6\n        /* \"#utility.yul\":1771:1777   */\n      dup3\n        /* \"#utility.yul\":1760:1769   */\n      dup7\n        /* \"#utility.yul\":1756:1778   */\n      add\n        /* \"#utility.yul\":1723:1788   */\n      tag_43\n      jump\t// in\n    tag_94:\n        /* \"#utility.yul\":1705:1788   */\n      swap3\n      pop\n      swap3\n      pop\n        /* \"#utility.yul\":1501:1798   */\n      pop\n        /* \"#utility.yul\":1276:1805   */\n      swap3\n      pop\n      swap3\n      swap1\n      pop\n      jump\t// out\n        /* \"#utility.yul\":1811:1937   */\n    tag_44:\n        /* \"#utility.yul\":1848:1855   */\n      0x00\n        /* \"#utility.yul\":1888:1930   */\n      0xffffffffffffffffffffffffffffffffffffffff\n        /* \"#utility.yul\":1881:1886   */\n      dup3\n        /* \"#utility.yul\":1877:1931   */\n      and\n        /* \"#utility.yul\":1866:1931   */\n      swap1\n      pop\n        /* \"#utility.yul\":1811:1937   */\n      swap2\n      swap1\n      pop\n      jump\t// out\n        /* \"#utility.yul\":1943:2039   */\n    tag_45:\n        /* \"#utility.yul\":1980:1987   */\n      0x00\n        /* \"#utility.yul\":2009:2033   */\n      tag_97\n        /* \"#utility.yul\":2027:2032   */\n      dup3\n        /* \"#utility.yul\":2009:2033   */\n      tag_44\n      jump\t// in\n    tag_97:\n        /* \"#utility.yul\":1998:2033   */\n      swap1\n      pop\n        /* \"#utility.yul\":1943:2039   */\n      swap2\n      swap1\n      pop\n      jump\t// out\n        /* \"#utility.yul\":2045:2167   */\n    tag_46:\n        /* \"#utility.yul\":2118:2142   */\n      tag_99\n        /* \"#utility.yul\":2136:2141   */\n      dup2\n        /* \"#utility.yul\":2118:2142   */\n      tag_45\n      jump\t// in\n    tag_99:\n        /* \"#utility.yul\":2111:2116   */\n      dup2\n        /* \"#utility.yul\":2108:2143   */\n      eq\n        /* \"#utility.yul\":2098:2161   */\n      tag_100\n      jumpi\n        /* \"#utility.yul\":2157:2158   */\n      0x00\n        /* \"#utility.yul\":2154:2155   */\n      dup1\n        /* \"#utility.yul\":2147:2159   */\n      revert\n        /* \"#utility.yul\":2098:2161   */\n    tag_100:\n        /* \"#utility.yul\":2045:2167   */\n      pop\n      jump\t// out\n        /* \"#utility.yul\":2173:2312   */\n    tag_47:\n        /* \"#utility.yul\":2219:2224   */\n      0x00\n        /* \"#utility.yul\":2257:2263   */\n      dup2\n        /* \"#utility.yul\":2244:2264   */\n      calldataload\n        /* \"#utility.yul\":2235:2264   */\n      swap1\n      pop\n        /* \"#utility.yul\":2273:2306   */\n      tag_102\n        /* \"#utility.yul\":2300:2305   */\n      dup2\n        /* \"#utility.yul\":2273:2306   */\n      tag_46\n      jump\t// in\n    tag_102:\n        /* \"#utility.yul\":2173:2312   */\n      swap3\n      swap2\n      pop\n      pop\n      jump\t// out\n        /* \"#utility.yul\":2318:2395   */\n    tag_48:\n        /* \"#utility.yul\":2355:2362   */\n      0x00\n        /* \"#utility.yul\":2384:2389   */\n      dup2\n        /* \"#utility.yul\":2373:2389   */\n      swap1\n      pop\n        /* \"#utility.yul\":2318:2395   */\n      swap2\n      swap1\n      pop\n      jump\t// out\n        /* \"#utility.yul\":2401:2523   */\n    tag_49:\n        /* \"#utility.yul\":2474:2498   */\n      tag_105\n        /* \"#utility.yul\":2492:2497   */\n      dup2\n        /* \"#utility.yul\":2474:2498   */\n      tag_48\n      jump\t// in\n    tag_105:\n        /* \"#utility.yul\":2467:2472   */\n      dup2\n        /* \"#utility.yul\":2464:2499   */\n      eq\n        /* \"#utility.yul\":2454:2517   */\n      tag_106\n      jumpi\n        /* \"#utility.yul\":2513:2514   */\n      0x00\n        /* \"#utility.yul\":2510:2511   */\n      dup1\n        /* \"#utility.yul\":2503:2515   */\n      revert\n        /* \"#utility.yul\":2454:2517   */\n    tag_106:\n        /* \"#utility.yul\":2401:2523   */\n      pop\n      jump\t// out\n        /* \"#utility.yul\":2529:2668   */\n    tag_50:\n        /* \"#utility.yul\":2575:2580   */\n      0x00\n        /* \"#utility.yul\":2613:2619   */\n      dup2\n        /* \"#utility.yul\":2600:2620   */\n      calldataload\n        /* \"#utility.yul\":2591:2620   */\n      swap1\n      pop\n        /* \"#utility.yul\":2629:2662   */\n      tag_108\n        /* \"#utility.yul\":2656:2661   */\n      dup2\n        /* \"#utility.yul\":2629:2662   */\n      tag_49\n      jump\t// in\n    tag_108:\n        /* \"#utility.yul\":2529:2668   */\n      swap3\n      swap2\n      pop\n      pop\n      jump\t// out\n        /* \"#utility.yul\":2674:3148   */\n    tag_12:\n        /* \"#utility.yul\":2742:2748   */\n      0x00\n        /* \"#utility.yul\":2750:2756   */\n      dup1\n        /* \"#utility.yul\":2799:2801   */\n      0x40\n        /* \"#utility.yul\":2787:2796   */\n      dup4\n        /* \"#utility.yul\":2778:2785   */\n      dup6\n        /* \"#utility.yul\":2774:2797   */\n      sub\n        /* \"#utility.yul\":2770:2802   */\n      slt\n        /* \"#utility.yul\":2767:2886   */\n      iszero\n      tag_110\n      jumpi\n        /* \"#utility.yul\":2805:2884   */\n      tag_111\n      tag_38\n      jump\t// in\n    tag_111:\n        /* \"#utility.yul\":2767:2886   */\n    tag_110:\n        /* \"#utility.yul\":2925:2926   */\n      0x00\n        /* \"#utility.yul\":2950:3003   */\n      tag_112\n        /* \"#utility.yul\":2995:3002   */\n      dup6\n        /* \"#utility.yul\":2986:2992   */\n      dup3\n        /* \"#utility.yul\":2975:2984   */\n      dup7\n        /* \"#utility.yul\":2971:2993   */\n      add\n        /* \"#utility.yul\":2950:3003   */\n      tag_47\n      jump\t// in\n    tag_112:\n        /* \"#utility.yul\":2940:3003   */\n      swap3\n      pop\n        /* \"#utility.yul\":2896:3013   */\n      pop\n        /* \"#utility.yul\":3052:3054   */\n      0x20\n        /* \"#utility.yul\":3078:3131   */\n      tag_113\n        /* \"#utility.yul\":3123:3130   */\n      dup6\n        /* \"#utility.yul\":3114:3120   */\n      dup3\n        /* \"#utility.yul\":3103:3112   */\n      dup7\n        /* \"#utility.yul\":3099:3121   */\n      add\n        /* \"#utility.yul\":3078:3131   */\n      tag_50\n      jump\t// in\n    tag_113:\n        /* \"#utility.yul\":3068:3131   */\n      swap2\n      pop\n        /* \"#utility.yul\":3023:3141   */\n      pop\n        /* \"#utility.yul\":2674:3148   */\n      swap3\n      pop\n      swap3\n      swap1\n      pop\n      jump\t// out\n        /* \"#utility.yul\":3154:3253   */\n    tag_51:\n        /* \"#utility.yul\":3206:3212   */\n      0x00\n        /* \"#utility.yul\":3240:3245   */\n      dup2\n        /* \"#utility.yul\":3234:3246   */\n      mload\n        /* \"#utility.yul\":3224:3246   */\n      swap1\n      pop\n        /* \"#utility.yul\":3154:3253   */\n      swap2\n      swap1\n      pop\n      jump\t// out\n        /* \"#utility.yul\":3259:3428   */\n    tag_52:\n        /* \"#utility.yul\":3343:3354   */\n      0x00\n        /* \"#utility.yul\":3377:3383   */\n      dup3\n        /* \"#utility.yul\":3372:3375   */\n      dup3\n        /* \"#utility.yul\":3365:3384   */\n      mstore\n        /* \"#utility.yul\":3417:3421   */\n      0x20\n        /* \"#utility.yul\":3412:3415   */\n      dup3\n        /* \"#utility.yul\":3408:3422   */\n      add\n        /* \"#utility.yul\":3393:3422   */\n      swap1\n      pop\n        /* \"#utility.yul\":3259:3428   */\n      swap3\n      swap2\n      pop\n      pop\n      jump\t// out\n        /* \"#utility.yul\":3434:3680   */\n    tag_53:\n        /* \"#utility.yul\":3515:3516   */\n      0x00\n        /* \"#utility.yul\":3525:3638   */\n    tag_117:\n        /* \"#utility.yul\":3539:3545   */\n      dup4\n        /* \"#utility.yul\":3536:3537   */\n      dup2\n        /* \"#utility.yul\":3533:3546   */\n      lt\n        /* \"#utility.yul\":3525:3638   */\n      iszero\n      tag_119\n      jumpi\n        /* \"#utility.yul\":3624:3625   */\n      dup1\n        /* \"#utility.yul\":3619:3622   */\n      dup3\n        /* \"#utility.yul\":3615:3626   */\n      add\n        /* \"#utility.yul\":3609:3627   */\n      mload\n        /* \"#utility.yul\":3605:3606   */\n      dup2\n        /* \"#utility.yul\":3600:3603   */\n      dup5\n        /* \"#utility.yul\":3596:3607   */\n      add\n        /* \"#utility.yul\":3589:3628   */\n      mstore\n        /* \"#utility.yul\":3561:3563   */\n      0x20\n        /* \"#utility.yul\":3558:3559   */\n      dup2\n        /* \"#utility.yul\":3554:3564   */\n      add\n        /* \"#utility.yul\":3549:3564   */\n      swap1\n      pop\n        /* \"#utility.yul\":3525:3638   */\n      jump(tag_117)\n    tag_119:\n        /* \"#utility.yul\":3672:3673   */\n      0x00\n        /* \"#utility.yul\":3663:3669   */\n      dup5\n        /* \"#utility.yul\":3658:3661   */\n      dup5\n        /* \"#utility.yul\":3654:3670   */\n      add\n        /* \"#utility.yul\":3647:3674   */\n      mstore\n        /* \"#utility.yul\":3496:3680   */\n      pop\n        /* \"#utility.yul\":3434:3680   */\n      pop\n      pop\n      pop\n      jump\t// out\n        /* \"#utility.yul\":3686:3788   */\n    tag_54:\n        /* \"#utility.yul\":3727:3733   */\n      0x00\n        /* \"#utility.yul\":3778:3780   */\n      0x1f\n        /* \"#utility.yul\":3774:3781   */\n      not\n        /* \"#utility.yul\":3769:3771   */\n      0x1f\n        /* \"#utility.yul\":3762:3767   */\n      dup4\n        /* \"#utility.yul\":3758:3772   */\n      add\n        /* \"#utility.yul\":3754:3782   */\n      and\n        /* \"#utility.yul\":3744:3782   */\n      swap1\n      pop\n        /* \"#utility.yul\":3686:3788   */\n      swap2\n      swap1\n      pop\n      jump\t// out\n        /* \"#utility.yul\":3794:4171   */\n    tag_55:\n        /* \"#utility.yul\":3882:3885   */\n      0x00\n        /* \"#utility.yul\":3910:3949   */\n      tag_122\n        /* \"#utility.yul\":3943:3948   */\n      dup3\n        /* \"#utility.yul\":3910:3949   */\n      tag_51\n      jump\t// in\n    tag_122:\n        /* \"#utility.yul\":3965:4036   */\n      tag_123\n        /* \"#utility.yul\":4029:4035   */\n      dup2\n        /* \"#utility.yul\":4024:4027   */\n      dup6\n        /* \"#utility.yul\":3965:4036   */\n      tag_52\n      jump\t// in\n    tag_123:\n        /* \"#utility.yul\":3958:4036   */\n      swap4\n      pop\n        /* \"#utility.yul\":4045:4110   */\n      tag_124\n        /* \"#utility.yul\":4103:4109   */\n      dup2\n        /* \"#utility.yul\":4098:4101   */\n      dup6\n        /* \"#utility.yul\":4091:4095   */\n      0x20\n        /* \"#utility.yul\":4084:4089   */\n      dup7\n        /* \"#utility.yul\":4080:4096   */\n      add\n        /* \"#utility.yul\":4045:4110   */\n      tag_53\n      jump\t// in\n    tag_124:\n        /* \"#utility.yul\":4135:4164   */\n      tag_125\n        /* \"#utility.yul\":4157:4163   */\n      dup2\n        /* \"#utility.yul\":4135:4164   */\n      tag_54\n      jump\t// in\n    tag_125:\n        /* \"#utility.yul\":4130:4133   */\n      dup5\n        /* \"#utility.yul\":4126:4165   */\n      add\n        /* \"#utility.yul\":4119:4165   */\n      swap2\n      pop\n        /* \"#utility.yul\":3886:4171   */\n      pop\n        /* \"#utility.yul\":3794:4171   */\n      swap3\n      swap2\n      pop\n      pop\n      jump\t// out\n        /* \"#utility.yul\":4177:4267   */\n    tag_56:\n        /* \"#utility.yul\":4211:4218   */\n      0x00\n        /* \"#utility.yul\":4254:4259   */\n      dup2\n        /* \"#utility.yul\":4247:4260   */\n      iszero\n        /* \"#utility.yul\":4240:4261   */\n      iszero\n        /* \"#utility.yul\":4229:4261   */\n      swap1\n      pop\n        /* \"#utility.yul\":4177:4267   */\n      swap2\n      swap1\n      pop\n      jump\t// out\n        /* \"#utility.yul\":4273:4382   */\n    tag_57:\n        /* \"#utility.yul\":4354:4375   */\n      tag_128\n        /* \"#utility.yul\":4369:4374   */\n      dup2\n        /* \"#utility.yul\":4354:4375   */\n      tag_56\n      jump\t// in\n    tag_128:\n        /* \"#utility.yul\":4349:4352   */\n      dup3\n        /* \"#utility.yul\":4342:4376   */\n      mstore\n        /* \"#utility.yul\":4273:4382   */\n      pop\n      pop\n      jump\t// out\n        /* \"#utility.yul\":4388:4799   */\n    tag_15:\n        /* \"#utility.yul\":4523:4527   */\n      0x00\n        /* \"#utility.yul\":4561:4563   */\n      0x40\n        /* \"#utility.yul\":4550:4559   */\n      dup3\n        /* \"#utility.yul\":4546:4564   */\n      add\n        /* \"#utility.yul\":4538:4564   */\n      swap1\n      pop\n        /* \"#utility.yul\":4610:4619   */\n      dup2\n        /* \"#utility.yul\":4604:4608   */\n      dup2\n        /* \"#utility.yul\":4600:4620   */\n      sub\n        /* \"#utility.yul\":4596:4597   */\n      0x00\n        /* \"#utility.yul\":4585:4594   */\n      dup4\n        /* \"#utility.yul\":4581:4598   */\n      add\n        /* \"#utility.yul\":4574:4621   */\n      mstore\n        /* \"#utility.yul\":4638:4716   */\n      tag_130\n        /* \"#utility.yul\":4711:4715   */\n      dup2\n        /* \"#utility.yul\":4702:4708   */\n      dup6\n        /* \"#utility.yul\":4638:4716   */\n      tag_55\n      jump\t// in\n    tag_130:\n        /* \"#utility.yul\":4630:4716   */\n      swap1\n      pop\n        /* \"#utility.yul\":4726:4792   */\n      tag_131\n        /* \"#utility.yul\":4788:4790   */\n      0x20\n        /* \"#utility.yul\":4777:4786   */\n      dup4\n        /* \"#utility.yul\":4773:4791   */\n      add\n        /* \"#utility.yul\":4764:4770   */\n      dup5\n        /* \"#utility.yul\":4726:4792   */\n      tag_57\n      jump\t// in\n    tag_131:\n        /* \"#utility.yul\":4388:4799   */\n      swap4\n      swap3\n      pop\n      pop\n      pop\n      jump\t// out\n        /* \"#utility.yul\":4805:5134   */\n    tag_18:\n        /* \"#utility.yul\":4864:4870   */\n      0x00\n        /* \"#utility.yul\":4913:4915   */\n      0x20\n        /* \"#utility.yul\":4901:4910   */\n      dup3\n        /* \"#utility.yul\":4892:4899   */\n      dup5\n        /* \"#utility.yul\":4888:4911   */\n      sub\n        /* \"#utility.yul\":4884:4916   */\n      slt\n        /* \"#utility.yul\":4881:5000   */\n      iszero\n      tag_133\n      jumpi\n        /* \"#utility.yul\":4919:4998   */\n      tag_134\n      tag_38\n      jump\t// in\n    tag_134:\n        /* \"#utility.yul\":4881:5000   */\n    tag_133:\n        /* \"#utility.yul\":5039:5040   */\n      0x00\n        /* \"#utility.yul\":5064:5117   */\n      tag_135\n        /* \"#utility.yul\":5109:5116   */\n      dup5\n        /* \"#utility.yul\":5100:5106   */\n      dup3\n        /* \"#utility.yul\":5089:5098   */\n      dup6\n        /* \"#utility.yul\":5085:5107   */\n      add\n        /* \"#utility.yul\":5064:5117   */\n      tag_50\n      jump\t// in\n    tag_135:\n        /* \"#utility.yul\":5054:5117   */\n      swap2\n      pop\n        /* \"#utility.yul\":5010:5127   */\n      pop\n        /* \"#utility.yul\":4805:5134   */\n      swap3\n      swap2\n      pop\n      pop\n      jump\t// out\n        /* \"#utility.yul\":5140:5320   */\n    tag_58:\n        /* \"#utility.yul\":5188:5265   */\n      0x4e487b7100000000000000000000000000000000000000000000000000000000\n        /* \"#utility.yul\":5185:5186   */\n      0x00\n        /* \"#utility.yul\":5178:5266   */\n      mstore\n        /* \"#utility.yul\":5285:5289   */\n      0x41\n        /* \"#utility.yul\":5282:5283   */\n      0x04\n        /* \"#utility.yul\":5275:5290   */\n      mstore\n        /* \"#utility.yul\":5309:5313   */\n      0x24\n        /* \"#utility.yul\":5306:5307   */\n      0x00\n        /* \"#utility.yul\":5299:5314   */\n      revert\n        /* \"#utility.yul\":5326:5506   */\n    tag_59:\n        /* \"#utility.yul\":5374:5451   */\n      0x4e487b7100000000000000000000000000000000000000000000000000000000\n        /* \"#utility.yul\":5371:5372   */\n      0x00\n        /* \"#utility.yul\":5364:5452   */\n      mstore\n        /* \"#utility.yul\":5471:5475   */\n      0x22\n        /* \"#utility.yul\":5468:5469   */\n      0x04\n        /* \"#utility.yul\":5461:5476   */\n      mstore\n        /* \"#utility.yul\":5495:5499   */\n      0x24\n        /* \"#utility.yul\":5492:5493   */\n      0x00\n        /* \"#utility.yul\":5485:5500   */\n      revert\n        /* \"#utility.yul\":5512:5832   */\n    tag_27:\n        /* \"#utility.yul\":5556:5562   */\n      0x00\n        /* \"#utility.yul\":5593:5594   */\n      0x02\n        /* \"#utility.yul\":5587:5591   */\n      dup3\n        /* \"#utility.yul\":5583:5595   */\n      div\n        /* \"#utility.yul\":5573:5595   */\n      swap1\n      pop\n        /* \"#utility.yul\":5640:5641   */\n      0x01\n        /* \"#utility.yul\":5634:5638   */\n      dup3\n        /* \"#utility.yul\":5630:5642   */\n      and\n        /* \"#utility.yul\":5661:5679   */\n      dup1\n        /* \"#utility.yul\":5651:5732   */\n      tag_139\n      jumpi\n        /* \"#utility.yul\":5717:5721   */\n      0x7f\n        /* \"#utility.yul\":5709:5715   */\n      dup3\n        /* \"#utility.yul\":5705:5722   */\n      and\n        /* \"#utility.yul\":5695:5722   */\n      swap2\n      pop\n        /* \"#utility.yul\":5651:5732   */\n    tag_139:\n        /* \"#utility.yul\":5779:5781   */\n      0x20\n        /* \"#utility.yul\":5771:5777   */\n      dup3\n        /* \"#utility.yul\":5768:5782   */\n      lt\n        /* \"#utility.yul\":5748:5766   */\n      dup2\n        /* \"#utility.yul\":5745:5783   */\n      sub\n        /* \"#utility.yul\":5742:5826   */\n      tag_140\n      jumpi\n        /* \"#utility.yul\":5798:5816   */\n      tag_141\n      tag_59\n      jump\t// in\n    tag_141:\n        /* \"#utility.yul\":5742:5826   */\n    tag_140:\n        /* \"#utility.yul\":5563:5832   */\n      pop\n        /* \"#utility.yul\":5512:5832   */\n      swap2\n      swap1\n      pop\n      jump\t// out\n        /* \"#utility.yul\":5838:5979   */\n    tag_60:\n        /* \"#utility.yul\":5887:5891   */\n      0x00\n        /* \"#utility.yul\":5910:5913   */\n      dup2\n        /* \"#utility.yul\":5902:5913   */\n      swap1\n      pop\n        /* \"#utility.yul\":5933:5936   */\n      dup2\n        /* \"#utility.yul\":5930:5931   */\n      0x00\n        /* \"#utility.yul\":5923:5937   */\n      mstore\n        /* \"#utility.yul\":5967:5971   */\n      0x20\n        /* \"#utility.yul\":5964:5965   */\n      0x00\n        /* \"#utility.yul\":5954:5972   */\n      keccak256\n        /* \"#utility.yul\":5946:5972   */\n      swap1\n      pop\n        /* \"#utility.yul\":5838:5979   */\n      swap2\n      swap1\n      pop\n      jump\t// out\n        /* \"#utility.yul\":5985:6078   */\n    tag_61:\n        /* \"#utility.yul\":6022:6028   */\n      0x00\n        /* \"#utility.yul\":6069:6071   */\n      0x20\n        /* \"#utility.yul\":6064:6066   */\n      0x1f\n        /* \"#utility.yul\":6057:6062   */\n      dup4\n        /* \"#utility.yul\":6053:6067   */\n      add\n        /* \"#utility.yul\":6049:6072   */\n      div\n        /* \"#utility.yul\":6039:6072   */\n      swap1\n      pop\n        /* \"#utility.yul\":5985:6078   */\n      swap2\n      swap1\n      pop\n      jump\t// out\n        /* \"#utility.yul\":6084:6191   */\n    tag_62:\n        /* \"#utility.yul\":6128:6136   */\n      0x00\n        /* \"#utility.yul\":6178:6183   */\n      dup3\n        /* \"#utility.yul\":6172:6176   */\n      dup3\n        /* \"#utility.yul\":6168:6184   */\n      shl\n        /* \"#utility.yul\":6147:6184   */\n      swap1\n      pop\n        /* \"#utility.yul\":6084:6191   */\n      swap3\n      swap2\n      pop\n      pop\n      jump\t// out\n        /* \"#utility.yul\":6197:6590   */\n    tag_63:\n        /* \"#utility.yul\":6266:6272   */\n      0x00\n        /* \"#utility.yul\":6316:6317   */\n      0x08\n        /* \"#utility.yul\":6304:6314   */\n      dup4\n        /* \"#utility.yul\":6300:6318   */\n      mul\n        /* \"#utility.yul\":6339:6436   */\n      tag_146\n        /* \"#utility.yul\":6369:6435   */\n      0xffffffffffffffffffffffffffffffffffffffffffffffffffffffffffffffff\n        /* \"#utility.yul\":6358:6367   */\n      dup3\n        /* \"#utility.yul\":6339:6436   */\n      tag_62\n      jump\t// in\n    tag_146:\n        /* \"#utility.yul\":6457:6496   */\n      tag_147\n        /* \"#utility.yul\":6487:6495   */\n      dup7\n        /* \"#utility.yul\":6476:6485   */\n      dup4\n        /* \"#utility.yul\":6457:6496   */\n      tag_62\n      jump\t// in\n    tag_147:\n        /* \"#utility.yul\":6445:6496   */\n      swap6\n      pop\n        /* \"#utility.yul\":6529:6533   */\n      dup1\n        /* \"#utility.yul\":6525:6534   */\n      not\n        /* \"#utility.yul\":6518:6523   */\n      dup5\n        /* \"#utility.yul\":6514:6535   */\n      and\n        /* \"#utility.yul\":6505:6535   */\n      swap4\n      pop\n        /* \"#utility.yul\":6578:6582   */\n      dup1\n        /* \"#utility.yul\":6568:6576   */\n      dup7\n        /* \"#utility.yul\":6564:6583   */\n      and\n        /* \"#utility.yul\":6557:6562   */\n      dup5\n        /* \"#utility.yul\":6554:6584   */\n      or\n        /* \"#utility.yul\":6544:6584   */\n      swap3\n      pop\n        /* \"#utility.yul\":6273:6590   */\n      pop\n      pop\n        /* \"#utility.yul\":6197:6590   */\n      swap4\n      swap3\n      pop\n      pop\n      pop\n      jump\t// out\n        /* \"#utility.yul\":6596:6656   */\n    tag_64:\n        /* \"#utility.yul\":6624:6627   */\n      0x00\n        /* \"#utility.yul\":6645:6650   */\n      dup2\n        /* \"#utility.yul\":6638:6650   */\n      swap1\n      pop\n        /* \"#utility.yul\":6596:6656   */\n      swap2\n      swap1\n      pop\n      jump\t// out\n        /* \"#utility.yul\":6662:6804   */\n    tag_65:\n        /* \"#utility.yul\":6712:6721   */\n      0x00\n        /* \"#utility.yul\":6745:6798   */\n      tag_150\n        /* \"#utility.yul\":6763:6797   */\n      tag_151\n        /* \"#utility.yul\":6772:6796   */\n      tag_152\n        /* \"#utility.yul\":6790:6795   */\n      dup5\n        /* \"#utility.yul\":6772:6796   */\n      tag_48\n      jump\t// in\n    tag_152:\n        /* \"#utility.yul\":6763:6797   */\n      tag_64\n      jump\t// in\n    tag_151:\n        /* \"#utility.yul\":6745:6798   */\n      tag_48\n      jump\t// in\n    tag_150:\n        /* \"#utility.yul\":6732:6798   */\n      swap1\n      pop\n        /* \"#utility.yul\":6662:6804   */\n      swap2\n      swap1\n      pop\n      jump\t// out\n        /* \"#utility.yul\":6810:6885   */\n    tag_66:\n        /* \"#utility.yul\":6853:6856   */\n      0x00\n        /* \"#utility.yul\":6874:6879   */\n      dup2\n        /* \"#utility.yul\":6867:6879   */\n      swap1\n      pop\n        /* \"#utility.yul\":6810:6885   */\n      swap2\n      swap1\n      pop\n      jump\t// out\n        /* \"#utility.yul\":6891:7160   */\n    tag_67:\n        /* \"#utility.yul\":7001:7040   */\n      tag_155\n        /* \"#utility.yul\":7032:7039   */\n      dup4\n        /* \"#utility.yul\":7001:7040   */\n      tag_65\n      jump\t// in\n    tag_155:\n        /* \"#utility.yul\":7062:7153   */\n      tag_156\n        /* \"#utility.yul\":7111:7152   */\n      tag_157\n        /* \"#utility.yul\":7135:7151   */\n      dup3\n        /* \"#utility.yul\":7111:7152   */\n      tag_66\n      jump\t// in\n    tag_157:\n        /* \"#utility.yul\":7103:7109   */\n      dup5\n        /* \"#utility.yul\":7096:7100   */\n      dup5\n        /* \"#utility.yul\":7090:7101   */\n      sload\n        /* \"#utility.yul\":7062:7153   */\n      tag_63\n      jump\t// in\n    tag_156:\n        /* \"#utility.yul\":7056:7060   */\n      dup3\n        /* \"#utility.yul\":7049:7154   */\n      sstore\n        /* \"#utility.yul\":6967:7160   */\n      pop\n        /* \"#utility.yul\":6891:7160   */\n      pop\n      pop\n      pop\n      jump\t// out\n        /* \"#utility.yul\":7166:7239   */\n    tag_68:\n        /* \"#utility.yul\":7211:7214   */\n      0x00\n        /* \"#utility.yul\":7166:7239   */\n      swap1\n      jump\t// out\n        /* \"#utility.yul\":7245:7434   */\n    tag_69:\n        /* \"#utility.yul\":7322:7354   */\n      tag_160\n      tag_68\n      jump\t// in\n    tag_160:\n        /* \"#utility.yul\":7363:7428   */\n      tag_161\n        /* \"#utility.yul\":7421:7427   */\n      dup2\n        /* \"#utility.yul\":7413:7419   */\n      dup5\n        /* \"#utility.yul\":7407:7411   */\n      dup5\n        /* \"#utility.yul\":7363:7428   */\n      tag_67\n      jump\t// in\n    tag_161:\n        /* \"#utility.yul\":7298:7434   */\n      pop\n        /* \"#utility.yul\":7245:7434   */\n      pop\n      pop\n      jump\t// out\n        /* \"#utility.yul\":7440:7626   */\n    tag_70:\n        /* \"#utility.yul\":7500:7620   */\n    tag_163:\n        /* \"#utility.yul\":7517:7520   */\n      dup2\n        /* \"#utility.yul\":7510:7515   */\n      dup2\n        /* \"#utility.yul\":7507:7521   */\n      lt\n        /* \"#utility.yul\":7500:7620   */\n      iszero\n      tag_165\n      jumpi\n        /* \"#utility.yul\":7571:7610   */\n      tag_166\n        /* \"#utility.yul\":7608:7609   */\n      0x00\n        /* \"#utility.yul\":7601:7606   */\n      dup3\n        /* \"#utility.yul\":7571:7610   */\n      tag_69\n      jump\t// in\n    tag_166:\n        /* \"#utility.yul\":7544:7545   */\n      0x01\n        /* \"#utility.yul\":7537:7542   */\n      dup2\n        /* \"#utility.yul\":7533:7546   */\n      add\n        /* \"#utility.yul\":7524:7546   */\n      swap1\n      pop\n        /* \"#utility.yul\":7500:7620   */\n      jump(tag_163)\n    tag_165:\n        /* \"#utility.yul\":7440:7626   */\n      pop\n      pop\n      jump\t// out\n        /* \"#utility.yul\":7632:8175   */\n    tag_71:\n        /* \"#utility.yul\":7733:7735   */\n      0x1f\n        /* \"#utility.yul\":7728:7731   */\n      dup3\n        /* \"#utility.yul\":7725:7736   */\n      gt\n        /* \"#utility.yul\":7722:8168   */\n      iszero\n      tag_168\n      jumpi\n        /* \"#utility.yul\":7767:7805   */\n      tag_169\n        /* \"#utility.yul\":7799:7804   */\n      dup2\n        /* \"#utility.yul\":7767:7805   */\n      tag_60\n      jump\t// in\n    tag_169:\n        /* \"#utility.yul\":7851:7880   */\n      tag_170\n        /* \"#utility.yul\":7869:7879   */\n      dup5\n        /* \"#utility.yul\":7851:7880   */\n      tag_61\n      jump\t// in\n    tag_170:\n        /* \"#utility.yul\":7841:7849   */\n      dup2\n        /* \"#utility.yul\":7837:7881   */\n      add\n        /* \"#utility.yul\":8034:8036   */\n      0x20\n        /* \"#utility.yul\":8022:8032   */\n      dup6\n        /* \"#utility.yul\":8019:8037   */\n      lt\n        /* \"#utility.yul\":8016:8065   */\n      iszero\n      tag_171\n      jumpi\n        /* \"#utility.yul\":8055:8063   */\n      dup2\n        /* \"#utility.yul\":8040:8063   */\n      swap1\n      pop\n        /* \"#utility.yul\":8016:8065   */\n    tag_171:\n        /* \"#utility.yul\":8078:8158   */\n      tag_172\n        /* \"#utility.yul\":8134:8156   */\n      tag_173\n        /* \"#utility.yul\":8152:8155   */\n      dup6\n        /* \"#utility.yul\":8134:8156   */\n      tag_61\n      jump\t// in\n    tag_173:\n        /* \"#utility.yul\":8124:8132   */\n      dup4\n        /* \"#utility.yul\":8120:8157   */\n      add\n        /* \"#utility.yul\":8107:8118   */\n      dup3\n        /* \"#utility.yul\":8078:8158   */\n      tag_70\n      jump\t// in\n    tag_172:\n        /* \"#utility.yul\":7737:8168   */\n      pop\n      pop\n        /* \"#utility.yul\":7722:8168   */\n    tag_168:\n        /* \"#utility.yul\":7632:8175   */\n      pop\n      pop\n      pop\n      jump\t// out\n        /* \"#utility.yul\":8181:8298   */\n    tag_72:\n        /* \"#utility.yul\":8235:8243   */\n      0x00\n        /* \"#utility.yul\":8285:8290   */\n      dup3\n        /* \"#utility.yul\":8279:8283   */\n      dup3\n        /* \"#utility.yul\":8275:8291   */\n      shr\n        /* \"#utility.yul\":8254:8291   */\n      swap1\n      pop\n        /* \"#utility.yul\":8181:8298   */\n      swap3\n      swap2\n      pop\n      pop\n      jump\t// out\n        /* \"#utility.yul\":8304:8473   */\n    tag_73:\n        /* \"#utility.yul\":8348:8354   */\n      0x00\n        /* \"#utility.yul\":8381:8432   */\n      tag_176\n        /* \"#utility.yul\":8429:8430   */\n      0x00\n        /* \"#utility.yul\":8425:8431   */\n      not\n        /* \"#utility.yul\":8417:8422   */\n      dup5\n        /* \"#utility.yul\":8414:8415   */\n      0x08\n        /* \"#utility.yul\":8410:8423   */\n      mul\n        /* \"#utility.yul\":8381:8432   */\n      tag_72\n      jump\t// in\n    tag_176:\n        /* \"#utility.yul\":8377:8433   */\n      not\n        /* \"#utility.yul\":8462:8466   */\n      dup1\n        /* \"#utility.yul\":8456:8460   */\n      dup4\n        /* \"#utility.yul\":8452:8467   */\n      and\n        /* \"#utility.yul\":8442:8467   */\n      swap2\n      pop\n        /* \"#utility.yul\":8355:8473   */\n      pop\n        /* \"#utility.yul\":8304:8473   */\n      swap3\n      swap2\n      pop\n      pop\n      jump\t// out\n        /* \"#utility.yul\":8478:8773   */\n    tag_74:\n        /* \"#utility.yul\":8554:8558   */\n      0x00\n        /* \"#utility.yul\":8700:8729   */\n      tag_178\n        /* \"#utility.yul\":8725:8728   */\n      dup4\n        /* \"#utility.yul\":8719:8723   */\n      dup4\n        /* \"#utility.yul\":8700:8729   */\n      tag_73\n      jump\t// in\n    tag_178:\n        /* \"#utility.yul\":8692:8729   */\n      swap2\n      pop\n        /* \"#utility.yul\":8762:8765   */\n      dup3\n        /* \"#utility.yul\":8759:8760   */\n      0x02\n        /* \"#utility.yul\":8755:8766   */\n      mul\n        /* \"#utility.yul\":8749:8753   */\n      dup3\n        /* \"#utility.yul\":8746:8767   */\n      or\n        /* \"#utility.yul\":8738:8767   */\n      swap1\n      pop\n        /* \"#utility.yul\":8478:8773   */\n      swap3\n      swap2\n      pop\n      pop\n      jump\t// out\n        /* \"#utility.yul\":8778:10173   */\n    tag_23:\n        /* \"#utility.yul\":8895:8932   */\n      tag_180\n        /* \"#utility.yul\":8928:8931   */\n      dup3\n        /* \"#utility.yul\":8895:8932   */\n      tag_51\n      jump\t// in\n    tag_180:\n        /* \"#utility.yul\":8997:9015   */\n      0xffffffffffffffff\n        /* \"#utility.yul\":8989:8995   */\n      dup2\n        /* \"#utility.yul\":8986:9016   */\n      gt\n        /* \"#utility.yul\":8983:9039   */\n      iszero\n      tag_181\n      jumpi\n        /* \"#utility.yul\":9019:9037   */\n      tag_182\n      tag_58\n      jump\t// in\n    tag_182:\n        /* \"#utility.yul\":8983:9039   */\n    tag_181:\n        /* \"#utility.yul\":9063:9101   */\n      tag_183\n        /* \"#utility.yul\":9095:9099   */\n      dup3\n        /* \"#utility.yul\":9089:9100   */\n      sload\n        /* \"#utility.yul\":9063:9101   */\n      tag_27\n      jump\t// in\n    tag_183:\n        /* \"#utility.yul\":9148:9215   */\n      tag_184\n        /* \"#utility.yul\":9208:9214   */\n      dup3\n        /* \"#utility.yul\":9200:9206   */\n      dup3\n        /* \"#utility.yul\":9194:9198   */\n      dup6\n        /* \"#utility.yul\":9148:9215   */\n      tag_71\n      jump\t// in\n    tag_184:\n        /* \"#utility.yul\":9242:9243   */\n      0x00\n        /* \"#utility.yul\":9266:9270   */\n      0x20\n        /* \"#utility.yul\":9253:9270   */\n      swap1\n      pop\n        /* \"#utility.yul\":9298:9300   */\n      0x1f\n        /* \"#utility.yul\":9290:9296   */\n      dup4\n        /* \"#utility.yul\":9287:9301   */\n      gt\n        /* \"#utility.yul\":9315:9316   */\n      0x01\n        /* \"#utility.yul\":9310:9928   */\n      dup2\n      eq\n      tag_186\n      jumpi\n        /* \"#utility.yul\":9972:9973   */\n      0x00\n        /* \"#utility.yul\":9989:9995   */\n      dup5\n        /* \"#utility.yul\":9986:10063   */\n      iszero\n      tag_187\n      jumpi\n        /* \"#utility.yul\":10038:10047   */\n      dup3\n        /* \"#utility.yul\":10033:10036   */\n      dup8\n        /* \"#utility.yul\":10029:10048   */\n      add\n        /* \"#utility.yul\":10023:10049   */\n      mload\n        /* \"#utility.yul\":10014:10049   */\n      swap1\n      pop\n        /* \"#utility.yul\":9986:10063   */\n    tag_187:\n        /* \"#utility.yul\":10089:10156   */\n      tag_188\n        /* \"#utility.yul\":10149:10155   */\n      dup6\n        /* \"#utility.yul\":10142:10147   */\n      dup3\n        /* \"#utility.yul\":10089:10156   */\n      tag_74\n      jump\t// in\n    tag_188:\n        /* \"#utility.yul\":10083:10087   */\n      dup7\n        /* \"#utility.yul\":10076:10157   */\n      sstore\n        /* \"#utility.yul\":9945:10167   */\n      pop\n        /* \"#utility.yul\":9280:10167   */\n      jump(tag_185)\n        /* \"#utility.yul\":9310:9928   */\n    tag_186:\n        /* \"#utility.yul\":9362:9366   */\n      0x1f\n        /* \"#utility.yul\":9358:9367   */\n      not\n        /* \"#utility.yul\":9350:9356   */\n      dup5\n        /* \"#utility.yul\":9346:9368   */\n      and\n        /* \"#utility.yul\":9396:9433   */\n      tag_189\n        /* \"#utility.yul\":9428:9432   */\n      dup7\n        /* \"#utility.yul\":9396:9433   */\n      tag_60\n      jump\t// in\n    tag_189:\n        /* \"#utility.yul\":9455:9456   */\n      0x00\n        /* \"#utility.yul\":9469:9677   */\n    tag_190:\n        /* \"#utility.yul\":9483:9490   */\n      dup3\n        /* \"#utility.yul\":9480:9481   */\n      dup2\n        /* \"#utility.yul\":9477:9491   */\n      lt\n        /* \"#utility.yul\":9469:9677   */\n      iszero\n      tag_192\n      jumpi\n        /* \"#utility.yul\":9562:9571   */\n      dup5\n        /* \"#utility.yul\":9557:9560   */\n      dup10\n        /* \"#utility.yul\":9553:9572   */\n      add\n        /* \"#utility.yul\":9547:9573   */\n      mload\n        /* \"#utility.yul\":9539:9545   */\n      dup3\n        /* \"#utility.yul\":9532:9574   */\n      sstore\n        /* \"#utility.yul\":9613:9614   */\n      0x01\n        /* \"#utility.yul\":9605:9611   */\n      dup3\n        /* \"#utility.yul\":9601:9615   */\n      add\n        /* \"#utility.yul\":9591:9615   */\n      swap2\n      pop\n        /* \"#utility.yul\":9660:9662   */\n      0x20\n        /* \"#utility.yul\":9649:9658   */\n      dup6\n        /* \"#utility.yul\":9645:9663   */\n      add\n        /* \"#utility.yul\":9632:9663   */\n      swap5\n      pop\n        /* \"#utility.yul\":9506:9510   */\n      0x20\n        /* \"#utility.yul\":9503:9504   */\n      dup2\n        /* \"#utility.yul\":9499:9511   */\n      add\n        /* \"#utility.yul\":9494:9511   */\n      swap1\n      pop\n        /* \"#utility.yul\":9469:9677   */\n      jump(tag_190)\n    tag_192:\n        /* \"#utility.yul\":9705:9711   */\n      dup7\n        /* \"#utility.yul\":9696:9703   */\n      dup4\n        /* \"#utility.yul\":9693:9712   */\n      lt\n        /* \"#utility.yul\":9690:9869   */\n      iszero\n      tag_193\n      jumpi\n        /* \"#utility.yul\":9763:9772   */\n      dup5\n        /* \"#utility.yul\":9758:9761   */\n      dup10\n        /* \"#utility.yul\":9754:9773   */\n      add\n        /* \"#utility.yul\":9748:9774   */\n      mload\n        /* \"#utility.yul\":9806:9854   */\n      tag_194\n        /* \"#utility.yul\":9848:9852   */\n      0x1f\n        /* \"#utility.yul\":9840:9846   */\n      dup10\n        /* \"#utility.yul\":9836:9853   */\n      and\n        /* \"#utility.yul\":9825:9834   */\n      dup3\n        /* \"#utility.yul\":9806:9854   */\n      tag_73\n      jump\t// in\n    tag_194:\n        /* \"#utility.yul\":9798:9804   */\n      dup4\n        /* \"#utility.yul\":9791:9855   */\n      sstore\n        /* \"#utility.yul\":9713:9869   */\n      pop\n        /* \"#utility.yul\":9690:9869   */\n    tag_193:\n        /* \"#utility.yul\":9915:9916   */\n      0x01\n        /* \"#utility.yul\":9911:9912   */\n      0x02\n        /* \"#utility.yul\":9903:9909   */\n      dup9\n        /* \"#utility.yul\":9899:9913   */\n      mul\n        /* \"#utility.yul\":9895:9917   */\n      add\n        /* \"#utility.yul\":9889:9893   */\n      dup9\n        /* \"#utility.yul\":9882:9918   */\n      sstore\n        /* \"#utility.yul\":9317:9928   */\n      pop\n      pop\n      pop\n        /* \"#utility.yul\":9280:10167   */\n    tag_185:\n      pop\n        /* \"#utility.yul\":8870:10173   */\n      pop\n      pop\n      pop\n        /* \"#utility.yul\":8778:10173   */\n      pop\n      pop\n      jump\t// out\n        /* \"#utility.yul\":10179:10359   */\n    tag_35:\n        /* \"#utility.yul\":10227:10304   */\n      0x4e487b7100000000000000000000000000000000000000000000000000000000\n        /* \"#utility.yul\":10224:10225   */\n      0x00\n        /* \"#utility.yul\":10217:10305   */\n      mstore\n        /* \"#utility.yul\":10324:10328   */\n      0x32\n        /* \"#utility.yul\":10321:10322   */\n      0x04\n        /* \"#utility.yul\":10314:10329   */\n      mstore\n        /* \"#utility.yul\":10348:10352   */\n      0x24\n        /* \"#utility.yul\":10345:10346   */\n      0x00\n        /* \"#utility.yul\":10338:10353   */\n      revert\n\n    auxdata: 0xa2646970667358221220367042bc6baf89d4e1b3f53b8d09b6c7d2b01d5b15bf0456d99b96fc25dab88b64736f6c63430008170033\n}\n",
				"bytecode": {
					"linkReferences": {},
					"object": "608060405234801561000f575f80fd5b506108b98061001d5f395ff3fe608060405234801561000f575f80fd5b506004361061003f575f3560e01c806367238562146100435780637149d2e41461005f578063e1e2955814610090575b5f80fd5b61005d6004803603810190610058919061034d565b6100ac565b005b61007960048036038101906100749190610425565b6101a1565b604051610087929190610507565b60405180910390f35b6100aa60048036038101906100a59190610535565b61026c565b005b5f803373ffffffffffffffffffffffffffffffffffffffff1673ffffffffffffffffffffffffffffffffffffffff1681526020019081526020015f20604051806040016040528084848080601f0160208091040260200160405190810160405280939291908181526020018383808284375f81840152601f19601f8201169050808301925050505050505081526020015f1515815250908060018154018082558091505060019003905f5260205f2090600202015f909190919091505f820151815f01908161017b9190610787565b506020820151816001015f6101000a81548160ff02191690831515021790555050505050565b5f602052815f5260405f2081815481106101b9575f80fd5b905f5260205f2090600202015f9150915050805f0180546101d9906105ba565b80601f0160208091040260200160405190810160405280929190818152602001828054610205906105ba565b80156102505780601f1061022757610100808354040283529160200191610250565b820191905f5260205f20905b81548152906001019060200180831161023357829003601f168201915b505050505090806001015f9054906101000a900460ff16905082565b60015f803373ffffffffffffffffffffffffffffffffffffffff1673ffffffffffffffffffffffffffffffffffffffff1681526020019081526020015f2082815481106102bc576102bb610856565b5b905f5260205f2090600202016001015f6101000a81548160ff02191690831515021790555050565b5f80fd5b5f80fd5b5f80fd5b5f80fd5b5f80fd5b5f8083601f84011261030d5761030c6102ec565b5b8235905067ffffffffffffffff81111561032a576103296102f0565b5b602083019150836001820283011115610346576103456102f4565b5b9250929050565b5f8060208385031215610363576103626102e4565b5b5f83013567ffffffffffffffff8111156103805761037f6102e8565b5b61038c858286016102f8565b92509250509250929050565b5f73ffffffffffffffffffffffffffffffffffffffff82169050919050565b5f6103c182610398565b9050919050565b6103d1816103b7565b81146103db575f80fd5b50565b5f813590506103ec816103c8565b92915050565b5f819050919050565b610404816103f2565b811461040e575f80fd5b50565b5f8135905061041f816103fb565b92915050565b5f806040838503121561043b5761043a6102e4565b5b5f610448858286016103de565b925050602061045985828601610411565b9150509250929050565b5f81519050919050565b5f82825260208201905092915050565b5f5b8381101561049a57808201518184015260208101905061047f565b5f8484015250505050565b5f601f19601f8301169050919050565b5f6104bf82610463565b6104c9818561046d565b93506104d981856020860161047d565b6104e2816104a5565b840191505092915050565b5f8115159050919050565b610501816104ed565b82525050565b5f6040820190508181035f83015261051f81856104b5565b905061052e60208301846104f8565b9392505050565b5f6020828403121561054a576105496102e4565b5b5f61055784828501610411565b91505092915050565b7f4e487b71000000000000000000000000000000000000000000000000000000005f52604160045260245ffd5b7f4e487b71000000000000000000000000000000000000000000000000000000005f52602260045260245ffd5b5f60028204905060018216806105d157607f821691505b6020821081036105e4576105e361058d565b5b50919050565b5f819050815f5260205f209050919050565b5f6020601f8301049050919050565b5f82821b905092915050565b5f600883026106467fffffffffffffffffffffffffffffffffffffffffffffffffffffffffffffffff8261060b565b610650868361060b565b95508019841693508086168417925050509392505050565b5f819050919050565b5f61068b610686610681846103f2565b610668565b6103f2565b9050919050565b5f819050919050565b6106a483610671565b6106b86106b082610692565b848454610617565b825550505050565b5f90565b6106cc6106c0565b6106d781848461069b565b505050565b5b818110156106fa576106ef5f826106c4565b6001810190506106dd565b5050565b601f82111561073f57610710816105ea565b610719846105fc565b81016020851015610728578190505b61073c610734856105fc565b8301826106dc565b50505b505050565b5f82821c905092915050565b5f61075f5f1984600802610744565b1980831691505092915050565b5f6107778383610750565b9150826002028217905092915050565b61079082610463565b67ffffffffffffffff8111156107a9576107a8610560565b5b6107b382546105ba565b6107be8282856106fe565b5f60209050601f8311600181146107ef575f84156107dd578287015190505b6107e7858261076c565b86555061084e565b601f1984166107fd866105ea565b5f5b82811015610824578489015182556001820191506020850194506020810190506107ff565b86831015610841578489015161083d601f891682610750565b8355505b6001600288020188555050505b505050505050565b7f4e487b71000000000000000000000000000000000000000000000000000000005f52603260045260245ffdfea2646970667358221220367042bc6baf89d4e1b3f53b8d09b6c7d2b01d5b15bf0456d99b96fc25dab88b64736f6c63430008170033",
					"opcodes": "PUSH1 0x80 PUSH1 0x40 MSTORE CALLVALUE DUP1 ISZERO PUSH2 0xF JUMPI PUSH0 DUP1 REVERT JUMPDEST POP PUSH2 0x8B9 DUP1 PUSH2 0x1D PUSH0 CODECOPY PUSH0 RETURN INVALID PUSH1 0x80 PUSH1 0x40 MSTORE CALLVALUE DUP1 ISZERO PUSH2 0xF JUMPI PUSH0 DUP1 REVERT JUMPDEST POP PUSH1 0x4 CALLDATASIZE LT PUSH2 0x3F JUMPI PUSH0 CALLDATALOAD PUSH1 0xE0 SHR DUP1 PUSH4 0x67238562 EQ PUSH2 0x43 JUMPI DUP1 PUSH4 0x7149D2E4 EQ PUSH2 0x5F JUMPI DUP1 PUSH4 0xE1E29558 EQ PUSH2 0x90 JUMPI JUMPDEST PUSH0 DUP1 REVERT JUMPDEST PUSH2 0x5D PUSH1 0x4 DUP1 CALLDATASIZE SUB DUP2 ADD SWAP1 PUSH2 0x58 SWAP2 SWAP1 PUSH2 0x34D JUMP JUMPDEST PUSH2 0xAC JUMP JUMPDEST STOP JUMPDEST PUSH2 0x79 PUSH1 0x4 DUP1 CALLDATASIZE SUB DUP2 ADD SWAP1 PUSH2 0x74 SWAP2 SWAP1 PUSH2 0x425 JUMP JUMPDEST PUSH2 0x1A1 JUMP JUMPDEST PUSH1 0x40 MLOAD PUSH2 0x87 SWAP3 SWAP2 SWAP1 PUSH2 0x507 JUMP JUMPDEST PUSH1 0x40 MLOAD DUP1 SWAP2 SUB SWAP1 RETURN JUMPDEST PUSH2 0xAA PUSH1 0x4 DUP1 CALLDATASIZE SUB DUP2 ADD SWAP1 PUSH2 0xA5 SWAP2 SWAP1 PUSH2 0x535 JUMP JUMPDEST PUSH2 0x26C JUMP JUMPDEST STOP JUMPDEST PUSH0 DUP1 CALLER PUSH20 0xFFFFFFFFFFFFFFFFFFFFFFFFFFFFFFFFFFFFFFFF AND PUSH20 0xFFFFFFFFFFFFFFFFFFFFFFFFFFFFFFFFFFFFFFFF AND DUP2 MSTORE PUSH1 0x20 ADD SWAP1 DUP2 MSTORE PUSH1 0x20 ADD PUSH0 KECCAK256 PUSH1 0x40 MLOAD DUP1 PUSH1 0x40 ADD PUSH1 0x40 MSTORE DUP1 DUP5 DUP5 DUP1 DUP1 PUSH1 0x1F ADD PUSH1 0x20 DUP1 SWAP2 DIV MUL PUSH1 0x20 ADD PUSH1 0x40 MLOAD SWAP1 DUP2 ADD PUSH1 0x40 MSTORE DUP1 SWAP4 SWAP3 SWAP2 SWAP1 DUP2 DUP2 MSTORE PUSH1 0x20 ADD DUP4 DUP4 DUP1 DUP3 DUP5 CALLDATACOPY PUSH0 DUP2 DUP5 ADD MSTORE PUSH1 0x1F NOT PUSH1 0x1F DUP3 ADD AND SWAP1 POP DUP1 DUP4 ADD SWAP3 POP POP POP POP POP POP POP DUP2 MSTORE PUSH1 0x20 ADD PUSH0 ISZERO ISZERO DUP2 MSTORE POP SWAP1 DUP1 PUSH1 0x1 DUP2 SLOAD ADD DUP1 DUP3 SSTORE DUP1 SWAP2 POP POP PUSH1 0x1 SWAP1 SUB SWAP1 PUSH0 MSTORE PUSH1 0x20 PUSH0 KECCAK256 SWAP1 PUSH1 0x2 MUL ADD PUSH0 SWAP1 SWAP2 SWAP1 SWAP2 SWAP1 SWAP2 POP PUSH0 DUP3 ADD MLOAD DUP2 PUSH0 ADD SWAP1 DUP2 PUSH2 0x17B SWAP2 SWAP1 PUSH2 0x787 JUMP JUMPDEST POP PUSH1 0x20 DUP3 ADD MLOAD DUP2 PUSH1 0x1 ADD PUSH0 PUSH2 0x100 EXP DUP2 SLOAD DUP2 PUSH1 0xFF MUL NOT AND SWAP1 DUP4 ISZERO ISZERO MUL OR SWAP1 SSTORE POP POP POP POP POP JUMP JUMPDEST PUSH0 PUSH1 0x20 MSTORE DUP2 PUSH0 MSTORE PUSH1 0x40 PUSH0 KECCAK256 DUP2 DUP2 SLOAD DUP2 LT PUSH2 0x1B9 JUMPI PUSH0 DUP1 REVERT JUMPDEST SWAP1 PUSH0 MSTORE PUSH1 0x20 PUSH0 KECCAK256 SWAP1 PUSH1 0x2 MUL ADD PUSH0 SWAP2 POP SWAP2 POP POP DUP1 PUSH0 ADD DUP1 SLOAD PUSH2 0x1D9 SWAP1 PUSH2 0x5BA JUMP JUMPDEST DUP1 PUSH1 0x1F ADD PUSH1 0x20 DUP1 SWAP2 DIV MUL PUSH1 0x20 ADD PUSH1 0x40 MLOAD SWAP1 DUP2 ADD PUSH1 0x40 MSTORE DUP1 SWAP3 SWAP2 SWAP1 DUP2 DUP2 MSTORE PUSH1 0x20 ADD DUP3 DUP1 SLOAD PUSH2 0x205 SWAP1 PUSH2 0x5BA JUMP JUMPDEST DUP1 ISZERO PUSH2 0x250 JUMPI DUP1 PUSH1 0x1F LT PUSH2 0x227 JUMPI PUSH2 0x100 DUP1 DUP4 SLOAD DIV MUL DUP4 MSTORE SWAP2 PUSH1 0x20 ADD SWAP2 PUSH2 0x250 JUMP JUMPDEST DUP3 ADD SWAP2 SWAP1 PUSH0 MSTORE PUSH1 0x20 PUSH0 KECCAK256 SWAP1 JUMPDEST DUP2 SLOAD DUP2 MSTORE SWAP1 PUSH1 0x1 ADD SWAP1 PUSH1 0x20 ADD DUP1 DUP4 GT PUSH2 0x233 JUMPI DUP3 SWAP1 SUB PUSH1 0x1F AND DUP3 ADD SWAP2 JUMPDEST POP POP POP POP POP SWAP1 DUP1 PUSH1 0x1 ADD PUSH0 SWAP1 SLOAD SWAP1 PUSH2 0x100 EXP SWAP1 DIV PUSH1 0xFF AND SWAP1 POP DUP3 JUMP JUMPDEST PUSH1 0x1 PUSH0 DUP1 CALLER PUSH20 0xFFFFFFFFFFFFFFFFFFFFFFFFFFFFFFFFFFFFFFFF AND PUSH20 0xFFFFFFFFFFFFFFFFFFFFFFFFFFFFFFFFFFFFFFFF AND DUP2 MSTORE PUSH1 0x20 ADD SWAP1 DUP2 MSTORE PUSH1 0x20 ADD PUSH0 KECCAK256 DUP3 DUP2 SLOAD DUP2 LT PUSH2 0x2BC JUMPI PUSH2 0x2BB PUSH2 0x856 JUMP JUMPDEST JUMPDEST SWAP1 PUSH0 MSTORE PUSH1 0x20 PUSH0 KECCAK256 SWAP1 PUSH1 0x2 MUL ADD PUSH1 0x1 ADD PUSH0 PUSH2 0x100 EXP DUP2 SLOAD DUP2 PUSH1 0xFF MUL NOT AND SWAP1 DUP4 ISZERO ISZERO MUL OR SWAP1 SSTORE POP POP JUMP JUMPDEST PUSH0 DUP1 REVERT JUMPDEST PUSH0 DUP1 REVERT JUMPDEST PUSH0 DUP1 REVERT JUMPDEST PUSH0 DUP1 REVERT JUMPDEST PUSH0 DUP1 REVERT JUMPDEST PUSH0 DUP1 DUP4 PUSH1 0x1F DUP5 ADD SLT PUSH2 0x30D JUMPI PUSH2 0x30C PUSH2 0x2EC JUMP JUMPDEST JUMPDEST DUP3 CALLDATALOAD SWAP1 POP PUSH8 0xFFFFFFFFFFFFFFFF DUP2 GT ISZERO PUSH2 0x32A JUMPI PUSH2 0x329 PUSH2 0x2F0 JUMP JUMPDEST JUMPDEST PUSH1 0x20 DUP4 ADD SWAP2 POP DUP4 PUSH1 0x1 DUP3 MUL DUP4 ADD GT ISZERO PUSH2 0x346 JUMPI PUSH2 0x345 PUSH2 0x2F4 JUMP JUMPDEST JUMPDEST SWAP3 POP SWAP3 SWAP1 POP JUMP JUMPDEST PUSH0 DUP1 PUSH1 0x20 DUP4 DUP6 SUB SLT ISZERO PUSH2 0x363 JUMPI PUSH2 0x362 PUSH2 0x2E4 JUMP JUMPDEST JUMPDEST PUSH0 DUP4 ADD CALLDATALOAD PUSH8 0xFFFFFFFFFFFFFFFF DUP2 GT ISZERO PUSH2 0x380 JUMPI PUSH2 0x37F PUSH2 0x2E8 JUMP JUMPDEST JUMPDEST PUSH2 0x38C DUP6 DUP3 DUP7 ADD PUSH2 0x2F8 JUMP JUMPDEST SWAP3 POP SWAP3 POP POP SWAP3 POP SWAP3 SWAP1 POP JUMP JUMPDEST PUSH0 PUSH20 0xFFFFFFFFFFFFFFFFFFFFFFFFFFFFFFFFFFFFFFFF DUP3 AND SWAP1 POP SWAP2 SWAP1 POP JUMP JUMPDEST PUSH0 PUSH2 0x3C1 DUP3 PUSH2 0x398 JUMP JUMPDEST SWAP1 POP SWAP2 SWAP1 POP JUMP JUMPDEST PUSH2 0x3D1 DUP2 PUSH2 0x3B7 JUMP JUMPDEST DUP2 EQ PUSH2 0x3DB JUMPI PUSH0 DUP1 REVERT JUMPDEST POP JUMP JUMPDEST PUSH0 DUP2 CALLDATALOAD SWAP1 POP PUSH2 0x3EC DUP2 PUSH2 0x3C8 JUMP JUMPDEST SWAP3 SWAP2 POP POP JUMP JUMPDEST PUSH0 DUP2 SWAP1 POP SWAP2 SWAP1 POP JUMP JUMPDEST PUSH2 0x404 DUP2 PUSH2 0x3F2 JUMP JUMPDEST DUP2 EQ PUSH2 0x40E JUMPI PUSH0 DUP1 REVERT JUMPDEST POP JUMP JUMPDEST PUSH0 DUP2 CALLDATALOAD SWAP1 POP PUSH2 0x41F DUP2 PUSH2 0x3FB JUMP JUMPDEST SWAP3 SWAP2 POP POP JUMP JUMPDEST PUSH0 DUP1 PUSH1 0x40 DUP4 DUP6 SUB SLT ISZERO PUSH2 0x43B JUMPI PUSH2 0x43A PUSH2 0x2E4 JUMP JUMPDEST JUMPDEST PUSH0 PUSH2 0x448 DUP6 DUP3 DUP7 ADD PUSH2 0x3DE JUMP JUMPDEST SWAP3 POP POP PUSH1 0x20 PUSH2 0x459 DUP6 DUP3 DUP7 ADD PUSH2 0x411 JUMP JUMPDEST SWAP2 POP POP SWAP3 POP SWAP3 SWAP1 POP JUMP JUMPDEST PUSH0 DUP2 MLOAD SWAP1 POP SWAP2 SWAP1 POP JUMP JUMPDEST PUSH0 DUP3 DUP3 MSTORE PUSH1 0x20 DUP3 ADD SWAP1 POP SWAP3 SWAP2 POP POP JUMP JUMPDEST PUSH0 JUMPDEST DUP4 DUP2 LT ISZERO PUSH2 0x49A JUMPI DUP1 DUP3 ADD MLOAD DUP2 DUP5 ADD MSTORE PUSH1 0x20 DUP2 ADD SWAP1 POP PUSH2 0x47F JUMP JUMPDEST PUSH0 DUP5 DUP5 ADD MSTORE POP POP POP POP JUMP JUMPDEST PUSH0 PUSH1 0x1F NOT PUSH1 0x1F DUP4 ADD AND SWAP1 POP SWAP2 SWAP1 POP JUMP JUMPDEST PUSH0 PUSH2 0x4BF DUP3 PUSH2 0x463 JUMP JUMPDEST PUSH2 0x4C9 DUP2 DUP6 PUSH2 0x46D JUMP JUMPDEST SWAP4 POP PUSH2 0x4D9 DUP2 DUP6 PUSH1 0x20 DUP7 ADD PUSH2 0x47D JUMP JUMPDEST PUSH2 0x4E2 DUP2 PUSH2 0x4A5 JUMP JUMPDEST DUP5 ADD SWAP2 POP POP SWAP3 SWAP2 POP POP JUMP JUMPDEST PUSH0 DUP2 ISZERO ISZERO SWAP1 POP SWAP2 SWAP1 POP JUMP JUMPDEST PUSH2 0x501 DUP2 PUSH2 0x4ED JUMP JUMPDEST DUP3 MSTORE POP POP JUMP JUMPDEST PUSH0 PUSH1 0x40 DUP3 ADD SWAP1 POP DUP2 DUP2 SUB PUSH0 DUP4 ADD MSTORE PUSH2 0x51F DUP2 DUP6 PUSH2 0x4B5 JUMP JUMPDEST SWAP1 POP PUSH2 0x52E PUSH1 0x20 DUP4 ADD DUP5 PUSH2 0x4F8 JUMP JUMPDEST SWAP4 SWAP3 POP POP POP JUMP JUMPDEST PUSH0 PUSH1 0x20 DUP3 DUP5 SUB SLT ISZERO PUSH2 0x54A JUMPI PUSH2 0x549 PUSH2 0x2E4 JUMP JUMPDEST JUMPDEST PUSH0 PUSH2 0x557 DUP5 DUP3 DUP6 ADD PUSH2 0x411 JUMP JUMPDEST SWAP2 POP POP SWAP3 SWAP2 POP POP JUMP JUMPDEST PUSH32 0x4E487B7100000000000000000000000000000000000000000000000000000000 PUSH0 MSTORE PUSH1 0x41 PUSH1 0x4 MSTORE PUSH1 0x24 PUSH0 REVERT JUMPDEST PUSH32 0x4E487B7100000000000000000000000000000000000000000000000000000000 PUSH0 MSTORE PUSH1 0x22 PUSH1 0x4 MSTORE PUSH1 0x24 PUSH0 REVERT JUMPDEST PUSH0 PUSH1 0x2 DUP3 DIV SWAP1 POP PUSH1 0x1 DUP3 AND DUP1 PUSH2 0x5D1 JUMPI PUSH1 0x7F DUP3 AND SWAP2 POP JUMPDEST PUSH1 0x20 DUP3 LT DUP2 SUB PUSH2 0x5E4 JUMPI PUSH2 0x5E3 PUSH2 0x58D JUMP JUMPDEST JUMPDEST POP SWAP2 SWAP1 POP JUMP JUMPDEST PUSH0 DUP2 SWAP1 POP DUP2 PUSH0 MSTORE PUSH1 0x20 PUSH0 KECCAK256 SWAP1 POP SWAP2 SWAP1 POP JUMP JUMPDEST PUSH0 PUSH1 0x20 PUSH1 0x1F DUP4 ADD DIV SWAP1 POP SWAP2 SWAP1 POP JUMP JUMPDEST PUSH0 DUP3 DUP3 SHL SWAP1 POP SWAP3 SWAP2 POP POP JUMP JUMPDEST PUSH0 PUSH1 0x8 DUP4 MUL PUSH2 0x646 PUSH32 0xFFFFFFFFFFFFFFFFFFFFFFFFFFFFFFFFFFFFFFFFFFFFFFFFFFFFFFFFFFFFFFFF DUP3 PUSH2 0x60B JUMP JUMPDEST PUSH2 0x650 DUP7 DUP4 PUSH2 0x60B JUMP JUMPDEST SWAP6 POP DUP1 NOT DUP5 AND SWAP4 POP DUP1 DUP7 AND DUP5 OR SWAP3 POP POP POP SWAP4 SWAP3 POP POP POP JUMP JUMPDEST PUSH0 DUP2 SWAP1 POP SWAP2 SWAP1 POP JUMP JUMPDEST PUSH0 PUSH2 0x68B PUSH2 0x686 PUSH2 0x681 DUP5 PUSH2 0x3F2 JUMP JUMPDEST PUSH2 0x668 JUMP JUMPDEST PUSH2 0x3F2 JUMP JUMPDEST SWAP1 POP SWAP2 SWAP1 POP JUMP JUMPDEST PUSH0 DUP2 SWAP1 POP SWAP2 SWAP1 POP JUMP JUMPDEST PUSH2 0x6A4 DUP4 PUSH2 0x671 JUMP JUMPDEST PUSH2 0x6B8 PUSH2 0x6B0 DUP3 PUSH2 0x692 JUMP JUMPDEST DUP5 DUP5 SLOAD PUSH2 0x617 JUMP JUMPDEST DUP3 SSTORE POP POP POP POP JUMP JUMPDEST PUSH0 SWAP1 JUMP JUMPDEST PUSH2 0x6CC PUSH2 0x6C0 JUMP JUMPDEST PUSH2 0x6D7 DUP2 DUP5 DUP5 PUSH2 0x69B JUMP JUMPDEST POP POP POP JUMP JUMPDEST JUMPDEST DUP2 DUP2 LT ISZERO PUSH2 0x6FA JUMPI PUSH2 0x6EF PUSH0 DUP3 PUSH2 0x6C4 JUMP JUMPDEST PUSH1 0x1 DUP2 ADD SWAP1 POP PUSH2 0x6DD JUMP JUMPDEST POP POP JUMP JUMPDEST PUSH1 0x1F DUP3 GT ISZERO PUSH2 0x73F JUMPI PUSH2 0x710 DUP2 PUSH2 0x5EA JUMP JUMPDEST PUSH2 0x719 DUP5 PUSH2 0x5FC JUMP JUMPDEST DUP2 ADD PUSH1 0x20 DUP6 LT ISZERO PUSH2 0x728 JUMPI DUP2 SWAP1 POP JUMPDEST PUSH2 0x73C PUSH2 0x734 DUP6 PUSH2 0x5FC JUMP JUMPDEST DUP4 ADD DUP3 PUSH2 0x6DC JUMP JUMPDEST POP POP JUMPDEST POP POP POP JUMP JUMPDEST PUSH0 DUP3 DUP3 SHR SWAP1 POP SWAP3 SWAP2 POP POP JUMP JUMPDEST PUSH0 PUSH2 0x75F PUSH0 NOT DUP5 PUSH1 0x8 MUL PUSH2 0x744 JUMP JUMPDEST NOT DUP1 DUP4 AND SWAP2 POP POP SWAP3 SWAP2 POP POP JUMP JUMPDEST PUSH0 PUSH2 0x777 DUP4 DUP4 PUSH2 0x750 JUMP JUMPDEST SWAP2 POP DUP3 PUSH1 0x2 MUL DUP3 OR SWAP1 POP SWAP3 SWAP2 POP POP JUMP JUMPDEST PUSH2 0x790 DUP3 PUSH2 0x463 JUMP JUMPDEST PUSH8 0xFFFFFFFFFFFFFFFF DUP2 GT ISZERO PUSH2 0x7A9 JUMPI PUSH2 0x7A8 PUSH2 0x560 JUMP JUMPDEST JUMPDEST PUSH2 0x7B3 DUP3 SLOAD PUSH2 0x5BA JUMP JUMPDEST PUSH2 0x7BE DUP3 DUP3 DUP6 PUSH2 0x6FE JUMP JUMPDEST PUSH0 PUSH1 0x20 SWAP1 POP PUSH1 0x1F DUP4 GT PUSH1 0x1 DUP2 EQ PUSH2 0x7EF JUMPI PUSH0 DUP5 ISZERO PUSH2 0x7DD JUMPI DUP3 DUP8 ADD MLOAD SWAP1 POP JUMPDEST PUSH2 0x7E7 DUP6 DUP3 PUSH2 0x76C JUMP JUMPDEST DUP7 SSTORE POP PUSH2 0x84E JUMP JUMPDEST PUSH1 0x1F NOT DUP5 AND PUSH2 0x7FD DUP7 PUSH2 0x5EA JUMP JUMPDEST PUSH0 JUMPDEST DUP3 DUP2 LT ISZERO PUSH2 0x824 JUMPI DUP5 DUP10 ADD MLOAD DUP3 SSTORE PUSH1 0x1 DUP3 ADD SWAP2 POP PUSH1 0x20 DUP6 ADD SWAP5 POP PUSH1 0x20 DUP2 ADD SWAP1 POP PUSH2 0x7FF JUMP JUMPDEST DUP7 DUP4 LT ISZERO PUSH2 0x841 JUMPI DUP5 DUP10 ADD MLOAD PUSH2 0x83D PUSH1 0x1F DUP10 AND DUP3 PUSH2 0x750 JUMP JUMPDEST DUP4 SSTORE POP JUMPDEST PUSH1 0x1 PUSH1 0x2 DUP9 MUL ADD DUP9 SSTORE POP POP POP JUMPDEST POP POP POP POP POP POP JUMP JUMPDEST PUSH32 0x4E487B7100000000000000000000000000000000000000000000000000000000 PUSH0 MSTORE PUSH1 0x32 PUSH1 0x4 MSTORE PUSH1 0x24 PUSH0 REVERT INVALID LOG2 PUSH5 0x6970667358 0x22 SLT KECCAK256 CALLDATASIZE PUSH17 0x42BC6BAF89D4E1B3F53B8D09B6C7D2B01D JUMPDEST ISZERO 0xBF DIV JUMP 0xD9 SWAP12 SWAP7 0xFC 0x25 0xDA 0xB8 DUP12 PUSH5 0x736F6C6343 STOP ADDMOD OR STOP CALLER "
				},
				"gasEstimates": {
					"creation": {
						"codeDepositCost": "446600",
						"executionCost": "478",
						"totalCost": "447078"
					},
					"external": {
						"addTask(string)": "infinite",
						"completeTask(uint256)": "26971",
						"tasks(address,uint256)": "infinite"
					}
				},
				"methodIdentifiers": {
					"addTask(string)": "67238562",
					"completeTask(uint256)": "e1e29558",
					"tasks(address,uint256)": "7149d2e4"
				}
			},
			"storageLayout": {
				"storage": [
					{
						"astId": 12,
						"contract": "monad dashboard/TaskList.sol:TaskList",
						"label": "tasks",
						"offset": 0,
						"slot": "0",
						"type": "t_mapping(t_address,t_array(t_struct(Task)6_storage)dyn_storage)"
					}
				],
				"types": {
					"t_address": {
						"encoding": "inplace",
						"label": "address",
						"numberOfBytes": "20"
					},
					"t_array(t_struct(Task)6_storage)dyn_storage": {
						"base": "t_struct(Task)6_storage",
						"encoding": "dynamic_array",
						"label": "struct TaskList.Task[]",
						"numberOfBytes": "32"
					},
					"t_bool": {
						"encoding": "inplace",
						"label": "bool",
						"numberOfBytes": "1"
					},
					"t_mapping(t_address,t_array(t_struct(Task)6_storage)dyn_storage)": {
						"encoding": "mapping",
						"key": "t_address",
						"label": "mapping(address => struct TaskList.Task[])",
						"numberOfBytes": "32",
						"value": "t_array(t_struct(Task)6_storage)dyn_storage"
					},
					"t_string_storage": {
						"encoding": "bytes",
						"label": "string",
						"numberOfBytes": "32"
					},
					"t_struct(Task)6_storage": {
						"encoding": "inplace",
						"label": "struct TaskList.Task",
						"members": [
							{
								"astId": 3,
								"contract": "monad dashboard/TaskList.sol:TaskList",
								"label": "description",
								"offset": 0,
								"slot": "0",
								"type": "t_string_storage"
							},
							{
								"astId": 5,
								"contract": "monad dashboard/TaskList.sol:TaskList",
								"label": "completed",
								"offset": 0,
								"slot": "1",
								"type": "t_bool"
							}
						],
						"numberOfBytes": "64"
					}
				}
			},
			"userdoc": {
				"kind": "user",
				"methods": {},
				"version": 1
			}
		}
	}
}