{
	"monad dashboard/GuessTheNumber.sol": {
		"GuessTheNumber": {
			"abi": [
				{
					"inputs": [],
					"stateMutability": "payable",
					"type": "constructor"
				},
				{
					"anonymous": false,
					"inputs": [
						{
							"indexed": true,
							"internalType": "address",
							"name": "winner",
							"type": "address"
						},
						{
							"indexed": false,
							"internalType": "uint256",
							"name": "prize",
							"type": "uint256"
						}
					],
					"name": "GameWon",
					"type": "event"
				},
				{
					"anonymous": false,
					"inputs": [
						{
							"indexed": true,
							"internalType": "address",
							"name": "player",
							"type": "address"
						},
						{
							"indexed": false,
							"internalType": "uint8",
							"name": "guess",
							"type": "uint8"
						},
						{
							"indexed": false,
							"internalType": "bool",
							"name": "correct",
							"type": "bool"
						}
					],
					"name": "NumberGuessed",
					"type": "event"
				},
				{
					"inputs": [],
					"name": "gameEnded",
					"outputs": [
						{
							"internalType": "bool",
							"name": "",
							"type": "bool"
						}
					],
					"stateMutability": "view",
					"type": "function"
				},
				{
					"inputs": [],
					"name": "getHint",
					"outputs": [
						{
							"internalType": "string",
							"name": "",
							"type": "string"
						}
					],
					"stateMutability": "view",
					"type": "function"
				},
				{
					"inputs": [
						{
							"internalType": "uint8",
							"name": "_guess",
							"type": "uint8"
						}
					],
					"name": "guess",
					"outputs": [],
					"stateMutability": "nonpayable",
					"type": "function"
				},
				{
					"inputs": [],
					"name": "isGameActive",
					"outputs": [
						{
							"internalType": "bool",
							"name": "",
							"type": "bool"
						}
					],
					"stateMutability": "view",
					"type": "function"
				},
				{
					"inputs": [],
					"name": "winner",
					"outputs": [
						{
							"internalType": "address",
							"name": "",
							"type": "address"
						}
					],
					"stateMutability": "view",
					"type": "function"
				}
			],
			"devdoc": {
				"kind": "dev",
				"methods": {},
				"version": 1
			},
			"evm": {
				"assembly": "    /* \"monad dashboard/GuessTheNumber.sol\":268:1547  contract GuessTheNumber {... */\n  mstore(0x40, 0xa0)\n    /* \"monad dashboard/GuessTheNumber.sol\":591:592  0 */\n  0x00\n    /* \"monad dashboard/GuessTheNumber.sol\":579:588  msg.value */\n  callvalue\n    /* \"monad dashboard/GuessTheNumber.sol\":579:592  msg.value > 0 */\n  gt\n    /* \"monad dashboard/GuessTheNumber.sol\":571:611  require(msg.value > 0, \"Prize required\") */\n  tag_3\n  jumpi\n  mload(0x40)\n  0x08c379a000000000000000000000000000000000000000000000000000000000\n  dup2\n  mstore\n  0x04\n  add\n  tag_4\n  swap1\n  tag_5\n  jump\t// in\ntag_4:\n  mload(0x40)\n  dup1\n  swap2\n  sub\n  swap1\n  revert\ntag_3:\n    /* \"monad dashboard/GuessTheNumber.sol\":711:714  100 */\n  0x64\n    /* \"monad dashboard/GuessTheNumber.sol\":678:693  block.timestamp */\n  timestamp\n    /* \"monad dashboard/GuessTheNumber.sol\":695:705  msg.sender */\n  caller\n    /* \"monad dashboard/GuessTheNumber.sol\":661:706  abi.encodePacked(block.timestamp, msg.sender) */\n  add(0x20, mload(0x40))\n  tag_6\n  swap3\n  swap2\n  swap1\n  tag_7\n  jump\t// in\ntag_6:\n  mload(0x40)\n  0x20\n  dup2\n  dup4\n  sub\n  sub\n  dup2\n  mstore\n  swap1\n  0x40\n  mstore\n    /* \"monad dashboard/GuessTheNumber.sol\":651:707  keccak256(abi.encodePacked(block.timestamp, msg.sender)) */\n  dup1\n  mload\n  swap1\n  0x20\n  add\n  keccak256\n    /* \"monad dashboard/GuessTheNumber.sol\":643:708  uint256(keccak256(abi.encodePacked(block.timestamp, msg.sender))) */\n  0x00\n  shr\n    /* \"monad dashboard/GuessTheNumber.sol\":643:714  uint256(keccak256(abi.encodePacked(block.timestamp, msg.sender))) % 100 */\n  tag_8\n  swap2\n  swap1\n  tag_9\n  jump\t// in\ntag_8:\n    /* \"monad dashboard/GuessTheNumber.sol\":622:715  secretNumber = uint8(uint256(keccak256(abi.encodePacked(block.timestamp, msg.sender))) % 100) */\n  0xff\n  and\n  0x80\n  dup2\n  0xff\n  and\n  dup2\n  mstore\n  pop\n  pop\n    /* \"monad dashboard/GuessTheNumber.sol\":743:744  0 */\n  0x00\n    /* \"monad dashboard/GuessTheNumber.sol\":726:732  winner */\n  dup1\n  0x00\n    /* \"monad dashboard/GuessTheNumber.sol\":726:745  winner = address(0) */\n  0x0100\n  exp\n  dup2\n  sload\n  dup2\n  0xffffffffffffffffffffffffffffffffffffffff\n  mul\n  not\n  and\n  swap1\n  dup4\n  0xffffffffffffffffffffffffffffffffffffffff\n  and\n  mul\n  or\n  swap1\n  sstore\n  pop\n    /* \"monad dashboard/GuessTheNumber.sol\":768:773  false */\n  0x00\n    /* \"monad dashboard/GuessTheNumber.sol\":756:765  gameEnded */\n  dup1\n  0x14\n    /* \"monad dashboard/GuessTheNumber.sol\":756:773  gameEnded = false */\n  0x0100\n  exp\n  dup2\n  sload\n  dup2\n  0xff\n  mul\n  not\n  and\n  swap1\n  dup4\n  iszero\n  iszero\n  mul\n  or\n  swap1\n  sstore\n  pop\n    /* \"monad dashboard/GuessTheNumber.sol\":268:1547  contract GuessTheNumber {... */\n  jump(tag_10)\n    /* \"#utility.yul\":7:176   */\ntag_11:\n    /* \"#utility.yul\":91:102   */\n  0x00\n    /* \"#utility.yul\":125:131   */\n  dup3\n    /* \"#utility.yul\":120:123   */\n  dup3\n    /* \"#utility.yul\":113:132   */\n  mstore\n    /* \"#utility.yul\":165:169   */\n  0x20\n    /* \"#utility.yul\":160:163   */\n  dup3\n    /* \"#utility.yul\":156:170   */\n  add\n    /* \"#utility.yul\":141:170   */\n  swap1\n  pop\n    /* \"#utility.yul\":7:176   */\n  swap3\n  swap2\n  pop\n  pop\n  jump\t// out\n    /* \"#utility.yul\":182:346   */\ntag_12:\n    /* \"#utility.yul\":322:338   */\n  0x5072697a65207265717569726564000000000000000000000000000000000000\n    /* \"#utility.yul\":318:319   */\n  0x00\n    /* \"#utility.yul\":310:316   */\n  dup3\n    /* \"#utility.yul\":306:320   */\n  add\n    /* \"#utility.yul\":299:339   */\n  mstore\n    /* \"#utility.yul\":182:346   */\n  pop\n  jump\t// out\n    /* \"#utility.yul\":352:718   */\ntag_13:\n    /* \"#utility.yul\":494:497   */\n  0x00\n    /* \"#utility.yul\":515:582   */\n  tag_28\n    /* \"#utility.yul\":579:581   */\n  0x0e\n    /* \"#utility.yul\":574:577   */\n  dup4\n    /* \"#utility.yul\":515:582   */\n  tag_11\n  jump\t// in\ntag_28:\n    /* \"#utility.yul\":508:582   */\n  swap2\n  pop\n    /* \"#utility.yul\":591:684   */\n  tag_29\n    /* \"#utility.yul\":680:683   */\n  dup3\n    /* \"#utility.yul\":591:684   */\n  tag_12\n  jump\t// in\ntag_29:\n    /* \"#utility.yul\":709:711   */\n  0x20\n    /* \"#utility.yul\":704:707   */\n  dup3\n    /* \"#utility.yul\":700:712   */\n  add\n    /* \"#utility.yul\":693:712   */\n  swap1\n  pop\n    /* \"#utility.yul\":352:718   */\n  swap2\n  swap1\n  pop\n  jump\t// out\n    /* \"#utility.yul\":724:1143   */\ntag_5:\n    /* \"#utility.yul\":890:894   */\n  0x00\n    /* \"#utility.yul\":928:930   */\n  0x20\n    /* \"#utility.yul\":917:926   */\n  dup3\n    /* \"#utility.yul\":913:931   */\n  add\n    /* \"#utility.yul\":905:931   */\n  swap1\n  pop\n    /* \"#utility.yul\":977:986   */\n  dup2\n    /* \"#utility.yul\":971:975   */\n  dup2\n    /* \"#utility.yul\":967:987   */\n  sub\n    /* \"#utility.yul\":963:964   */\n  0x00\n    /* \"#utility.yul\":952:961   */\n  dup4\n    /* \"#utility.yul\":948:965   */\n  add\n    /* \"#utility.yul\":941:988   */\n  mstore\n    /* \"#utility.yul\":1005:1136   */\n  tag_31\n    /* \"#utility.yul\":1131:1135   */\n  dup2\n    /* \"#utility.yul\":1005:1136   */\n  tag_13\n  jump\t// in\ntag_31:\n    /* \"#utility.yul\":997:1136   */\n  swap1\n  pop\n    /* \"#utility.yul\":724:1143   */\n  swap2\n  swap1\n  pop\n  jump\t// out\n    /* \"#utility.yul\":1149:1226   */\ntag_14:\n    /* \"#utility.yul\":1186:1193   */\n  0x00\n    /* \"#utility.yul\":1215:1220   */\n  dup2\n    /* \"#utility.yul\":1204:1220   */\n  swap1\n  pop\n    /* \"#utility.yul\":1149:1226   */\n  swap2\n  swap1\n  pop\n  jump\t// out\n    /* \"#utility.yul\":1232:1311   */\ntag_15:\n    /* \"#utility.yul\":1271:1278   */\n  0x00\n    /* \"#utility.yul\":1300:1305   */\n  dup2\n    /* \"#utility.yul\":1289:1305   */\n  swap1\n  pop\n    /* \"#utility.yul\":1232:1311   */\n  swap2\n  swap1\n  pop\n  jump\t// out\n    /* \"#utility.yul\":1317:1474   */\ntag_16:\n    /* \"#utility.yul\":1422:1467   */\n  tag_35\n    /* \"#utility.yul\":1442:1466   */\n  tag_36\n    /* \"#utility.yul\":1460:1465   */\n  dup3\n    /* \"#utility.yul\":1442:1466   */\n  tag_14\n  jump\t// in\ntag_36:\n    /* \"#utility.yul\":1422:1467   */\n  tag_15\n  jump\t// in\ntag_35:\n    /* \"#utility.yul\":1417:1420   */\n  dup3\n    /* \"#utility.yul\":1410:1468   */\n  mstore\n    /* \"#utility.yul\":1317:1474   */\n  pop\n  pop\n  jump\t// out\n    /* \"#utility.yul\":1480:1606   */\ntag_17:\n    /* \"#utility.yul\":1517:1524   */\n  0x00\n    /* \"#utility.yul\":1557:1599   */\n  0xffffffffffffffffffffffffffffffffffffffff\n    /* \"#utility.yul\":1550:1555   */\n  dup3\n    /* \"#utility.yul\":1546:1600   */\n  and\n    /* \"#utility.yul\":1535:1600   */\n  swap1\n  pop\n    /* \"#utility.yul\":1480:1606   */\n  swap2\n  swap1\n  pop\n  jump\t// out\n    /* \"#utility.yul\":1612:1708   */\ntag_18:\n    /* \"#utility.yul\":1649:1656   */\n  0x00\n    /* \"#utility.yul\":1678:1702   */\n  tag_39\n    /* \"#utility.yul\":1696:1701   */\n  dup3\n    /* \"#utility.yul\":1678:1702   */\n  tag_17\n  jump\t// in\ntag_39:\n    /* \"#utility.yul\":1667:1702   */\n  swap1\n  pop\n    /* \"#utility.yul\":1612:1708   */\n  swap2\n  swap1\n  pop\n  jump\t// out\n    /* \"#utility.yul\":1714:1808   */\ntag_19:\n    /* \"#utility.yul\":1747:1755   */\n  0x00\n    /* \"#utility.yul\":1795:1800   */\n  dup2\n    /* \"#utility.yul\":1791:1793   */\n  0x60\n    /* \"#utility.yul\":1787:1801   */\n  shl\n    /* \"#utility.yul\":1766:1801   */\n  swap1\n  pop\n    /* \"#utility.yul\":1714:1808   */\n  swap2\n  swap1\n  pop\n  jump\t// out\n    /* \"#utility.yul\":1814:1908   */\ntag_20:\n    /* \"#utility.yul\":1853:1860   */\n  0x00\n    /* \"#utility.yul\":1882:1902   */\n  tag_42\n    /* \"#utility.yul\":1896:1901   */\n  dup3\n    /* \"#utility.yul\":1882:1902   */\n  tag_19\n  jump\t// in\ntag_42:\n    /* \"#utility.yul\":1871:1902   */\n  swap1\n  pop\n    /* \"#utility.yul\":1814:1908   */\n  swap2\n  swap1\n  pop\n  jump\t// out\n    /* \"#utility.yul\":1914:2014   */\ntag_21:\n    /* \"#utility.yul\":1953:1960   */\n  0x00\n    /* \"#utility.yul\":1982:2008   */\n  tag_44\n    /* \"#utility.yul\":2002:2007   */\n  dup3\n    /* \"#utility.yul\":1982:2008   */\n  tag_20\n  jump\t// in\ntag_44:\n    /* \"#utility.yul\":1971:2008   */\n  swap1\n  pop\n    /* \"#utility.yul\":1914:2014   */\n  swap2\n  swap1\n  pop\n  jump\t// out\n    /* \"#utility.yul\":2020:2177   */\ntag_22:\n    /* \"#utility.yul\":2125:2170   */\n  tag_46\n    /* \"#utility.yul\":2145:2169   */\n  tag_47\n    /* \"#utility.yul\":2163:2168   */\n  dup3\n    /* \"#utility.yul\":2145:2169   */\n  tag_18\n  jump\t// in\ntag_47:\n    /* \"#utility.yul\":2125:2170   */\n  tag_21\n  jump\t// in\ntag_46:\n    /* \"#utility.yul\":2120:2123   */\n  dup3\n    /* \"#utility.yul\":2113:2171   */\n  mstore\n    /* \"#utility.yul\":2020:2177   */\n  pop\n  pop\n  jump\t// out\n    /* \"#utility.yul\":2183:2580   */\ntag_7:\n    /* \"#utility.yul\":2323:2326   */\n  0x00\n    /* \"#utility.yul\":2338:2413   */\n  tag_49\n    /* \"#utility.yul\":2409:2412   */\n  dup3\n    /* \"#utility.yul\":2400:2406   */\n  dup6\n    /* \"#utility.yul\":2338:2413   */\n  tag_16\n  jump\t// in\ntag_49:\n    /* \"#utility.yul\":2438:2440   */\n  0x20\n    /* \"#utility.yul\":2433:2436   */\n  dup3\n    /* \"#utility.yul\":2429:2441   */\n  add\n    /* \"#utility.yul\":2422:2441   */\n  swap2\n  pop\n    /* \"#utility.yul\":2451:2526   */\n  tag_50\n    /* \"#utility.yul\":2522:2525   */\n  dup3\n    /* \"#utility.yul\":2513:2519   */\n  dup5\n    /* \"#utility.yul\":2451:2526   */\n  tag_22\n  jump\t// in\ntag_50:\n    /* \"#utility.yul\":2551:2553   */\n  0x14\n    /* \"#utility.yul\":2546:2549   */\n  dup3\n    /* \"#utility.yul\":2542:2554   */\n  add\n    /* \"#utility.yul\":2535:2554   */\n  swap2\n  pop\n    /* \"#utility.yul\":2571:2574   */\n  dup2\n    /* \"#utility.yul\":2564:2574   */\n  swap1\n  pop\n    /* \"#utility.yul\":2183:2580   */\n  swap4\n  swap3\n  pop\n  pop\n  pop\n  jump\t// out\n    /* \"#utility.yul\":2586:2766   */\ntag_23:\n    /* \"#utility.yul\":2634:2711   */\n  0x4e487b7100000000000000000000000000000000000000000000000000000000\n    /* \"#utility.yul\":2631:2632   */\n  0x00\n    /* \"#utility.yul\":2624:2712   */\n  mstore\n    /* \"#utility.yul\":2731:2735   */\n  0x12\n    /* \"#utility.yul\":2728:2729   */\n  0x04\n    /* \"#utility.yul\":2721:2736   */\n  mstore\n    /* \"#utility.yul\":2755:2759   */\n  0x24\n    /* \"#utility.yul\":2752:2753   */\n  0x00\n    /* \"#utility.yul\":2745:2760   */\n  revert\n    /* \"#utility.yul\":2772:2948   */\ntag_9:\n    /* \"#utility.yul\":2804:2805   */\n  0x00\n    /* \"#utility.yul\":2821:2841   */\n  tag_53\n    /* \"#utility.yul\":2839:2840   */\n  dup3\n    /* \"#utility.yul\":2821:2841   */\n  tag_14\n  jump\t// in\ntag_53:\n    /* \"#utility.yul\":2816:2841   */\n  swap2\n  pop\n    /* \"#utility.yul\":2855:2875   */\n  tag_54\n    /* \"#utility.yul\":2873:2874   */\n  dup4\n    /* \"#utility.yul\":2855:2875   */\n  tag_14\n  jump\t// in\ntag_54:\n    /* \"#utility.yul\":2850:2875   */\n  swap3\n  pop\n    /* \"#utility.yul\":2894:2895   */\n  dup3\n    /* \"#utility.yul\":2884:2919   */\n  tag_55\n  jumpi\n    /* \"#utility.yul\":2899:2917   */\n  tag_56\n  tag_23\n  jump\t// in\ntag_56:\n    /* \"#utility.yul\":2884:2919   */\ntag_55:\n    /* \"#utility.yul\":2940:2941   */\n  dup3\n    /* \"#utility.yul\":2937:2938   */\n  dup3\n    /* \"#utility.yul\":2933:2942   */\n  mod\n    /* \"#utility.yul\":2928:2942   */\n  swap1\n  pop\n    /* \"#utility.yul\":2772:2948   */\n  swap3\n  swap2\n  pop\n  pop\n  jump\t// out\n    /* \"monad dashboard/GuessTheNumber.sol\":268:1547  contract GuessTheNumber {... */\ntag_10:\n  mload(0x80)\n  codecopy(0x00, dataOffset(sub_0), dataSize(sub_0))\n  0x00\n  assignImmutable(\"0x13600b294191fc92924bb3ce4b969c1e7e2bab8f4c93c3fc6d0a51733df3c060\")\n  return(0x00, dataSize(sub_0))\nstop\n\nsub_0: assembly {\n        /* \"monad dashboard/GuessTheNumber.sol\":268:1547  contract GuessTheNumber {... */\n      mstore(0x40, 0x80)\n      callvalue\n      dup1\n      iszero\n      tag_1\n      jumpi\n      0x00\n      dup1\n      revert\n    tag_1:\n      pop\n      jumpi(tag_2, lt(calldatasize, 0x04))\n      shr(0xe0, calldataload(0x00))\n      dup1\n      0x0c0ef2b0\n      eq\n      tag_3\n      jumpi\n      dup1\n      0x2f6fe396\n      eq\n      tag_4\n      jumpi\n      dup1\n      0x41225071\n      eq\n      tag_5\n      jumpi\n      dup1\n      0x4ba4c16b\n      eq\n      tag_6\n      jumpi\n      dup1\n      0xdfbf53ae\n      eq\n      tag_7\n      jumpi\n    tag_2:\n      0x00\n      dup1\n      revert\n        /* \"monad dashboard/GuessTheNumber.sol\":1455:1544  function isGameActive() external view returns (bool) {... */\n    tag_3:\n      tag_8\n      tag_9\n      jump\t// in\n    tag_8:\n      mload(0x40)\n      tag_10\n      swap2\n      swap1\n      tag_11\n      jump\t// in\n    tag_10:\n      mload(0x40)\n      dup1\n      swap2\n      sub\n      swap1\n      return\n        /* \"monad dashboard/GuessTheNumber.sol\":370:391  bool public gameEnded */\n    tag_4:\n      tag_12\n      tag_13\n      jump\t// in\n    tag_12:\n      mload(0x40)\n      tag_14\n      swap2\n      swap1\n      tag_11\n      jump\t// in\n    tag_14:\n      mload(0x40)\n      dup1\n      swap2\n      sub\n      swap1\n      return\n        /* \"monad dashboard/GuessTheNumber.sol\":1280:1447  function getHint() external view returns (string memory) {... */\n    tag_5:\n      tag_15\n      tag_16\n      jump\t// in\n    tag_15:\n      mload(0x40)\n      tag_17\n      swap2\n      swap1\n      tag_18\n      jump\t// in\n    tag_17:\n      mload(0x40)\n      dup1\n      swap2\n      sub\n      swap1\n      return\n        /* \"monad dashboard/GuessTheNumber.sol\":789:1272  function guess(uint8 _guess) external {... */\n    tag_6:\n      tag_19\n      0x04\n      dup1\n      calldatasize\n      sub\n      dup2\n      add\n      swap1\n      tag_20\n      swap2\n      swap1\n      tag_21\n      jump\t// in\n    tag_20:\n      tag_22\n      jump\t// in\n    tag_19:\n      stop\n        /* \"monad dashboard/GuessTheNumber.sol\":342:363  address public winner */\n    tag_7:\n      tag_23\n      tag_24\n      jump\t// in\n    tag_23:\n      mload(0x40)\n      tag_25\n      swap2\n      swap1\n      tag_26\n      jump\t// in\n    tag_25:\n      mload(0x40)\n      dup1\n      swap2\n      sub\n      swap1\n      return\n        /* \"monad dashboard/GuessTheNumber.sol\":1455:1544  function isGameActive() external view returns (bool) {... */\n    tag_9:\n        /* \"monad dashboard/GuessTheNumber.sol\":1502:1506  bool */\n      0x00\n        /* \"monad dashboard/GuessTheNumber.sol\":1527:1536  gameEnded */\n      dup1\n      0x14\n      swap1\n      sload\n      swap1\n      0x0100\n      exp\n      swap1\n      div\n      0xff\n      and\n        /* \"monad dashboard/GuessTheNumber.sol\":1526:1536  !gameEnded */\n      iszero\n        /* \"monad dashboard/GuessTheNumber.sol\":1519:1536  return !gameEnded */\n      swap1\n      pop\n        /* \"monad dashboard/GuessTheNumber.sol\":1455:1544  function isGameActive() external view returns (bool) {... */\n      swap1\n      jump\t// out\n        /* \"monad dashboard/GuessTheNumber.sol\":370:391  bool public gameEnded */\n    tag_13:\n      0x00\n      0x14\n      swap1\n      sload\n      swap1\n      0x0100\n      exp\n      swap1\n      div\n      0xff\n      and\n      dup2\n      jump\t// out\n        /* \"monad dashboard/GuessTheNumber.sol\":1280:1447  function getHint() external view returns (string memory) {... */\n    tag_16:\n        /* \"monad dashboard/GuessTheNumber.sol\":1322:1335  string memory */\n      0x60\n        /* \"monad dashboard/GuessTheNumber.sol\":1352:1361  gameEnded */\n      0x00\n      0x14\n      swap1\n      sload\n      swap1\n      0x0100\n      exp\n      swap1\n      div\n      0xff\n      and\n        /* \"monad dashboard/GuessTheNumber.sol\":1348:1388  if (gameEnded) return \"Game already won\" */\n      iszero\n      tag_29\n      jumpi\n        /* \"monad dashboard/GuessTheNumber.sol\":1363:1388  return \"Game already won\" */\n      mload(0x40)\n      dup1\n      0x40\n      add\n      0x40\n      mstore\n      dup1\n      0x10\n      dup2\n      mstore\n      0x20\n      add\n      0x47616d6520616c726561647920776f6e00000000000000000000000000000000\n      dup2\n      mstore\n      pop\n      swap1\n      pop\n      jump(tag_28)\n        /* \"monad dashboard/GuessTheNumber.sol\":1348:1388  if (gameEnded) return \"Game already won\" */\n    tag_29:\n        /* \"monad dashboard/GuessTheNumber.sol\":1399:1439  return \"Guess a number between 0 and 99\" */\n      mload(0x40)\n      dup1\n      0x40\n      add\n      0x40\n      mstore\n      dup1\n      0x1f\n      dup2\n      mstore\n      0x20\n      add\n      0x47756573732061206e756d626572206265747765656e203020616e6420393900\n      dup2\n      mstore\n      pop\n      swap1\n      pop\n        /* \"monad dashboard/GuessTheNumber.sol\":1280:1447  function getHint() external view returns (string memory) {... */\n    tag_28:\n      swap1\n      jump\t// out\n        /* \"monad dashboard/GuessTheNumber.sol\":789:1272  function guess(uint8 _guess) external {... */\n    tag_22:\n        /* \"monad dashboard/GuessTheNumber.sol\":847:856  gameEnded */\n      0x00\n      0x14\n      swap1\n      sload\n      swap1\n      0x0100\n      exp\n      swap1\n      div\n      0xff\n      and\n        /* \"monad dashboard/GuessTheNumber.sol\":846:856  !gameEnded */\n      iszero\n        /* \"monad dashboard/GuessTheNumber.sol\":838:870  require(!gameEnded, \"Game over\") */\n      tag_31\n      jumpi\n      mload(0x40)\n      0x08c379a000000000000000000000000000000000000000000000000000000000\n      dup2\n      mstore\n      0x04\n      add\n      tag_32\n      swap1\n      tag_33\n      jump\t// in\n    tag_32:\n      mload(0x40)\n      dup1\n      swap2\n      sub\n      swap1\n      revert\n    tag_31:\n        /* \"monad dashboard/GuessTheNumber.sol\":899:901  99 */\n      0x63\n        /* \"monad dashboard/GuessTheNumber.sol\":889:895  _guess */\n      dup2\n        /* \"monad dashboard/GuessTheNumber.sol\":889:901  _guess <= 99 */\n      0xff\n      and\n      gt\n      iszero\n        /* \"monad dashboard/GuessTheNumber.sol\":881:924  require(_guess <= 99, \"Guess out of range\") */\n      tag_34\n      jumpi\n      mload(0x40)\n      0x08c379a000000000000000000000000000000000000000000000000000000000\n      dup2\n      mstore\n      0x04\n      add\n      tag_35\n      swap1\n      tag_36\n      jump\t// in\n    tag_35:\n      mload(0x40)\n      dup1\n      swap2\n      sub\n      swap1\n      revert\n    tag_34:\n        /* \"monad dashboard/GuessTheNumber.sol\":951:963  secretNumber */\n      immutable(\"0x13600b294191fc92924bb3ce4b969c1e7e2bab8f4c93c3fc6d0a51733df3c060\")\n        /* \"monad dashboard/GuessTheNumber.sol\":941:963  _guess == secretNumber */\n      0xff\n      and\n        /* \"monad dashboard/GuessTheNumber.sol\":941:947  _guess */\n      dup2\n        /* \"monad dashboard/GuessTheNumber.sol\":941:963  _guess == secretNumber */\n      0xff\n      and\n      sub\n        /* \"monad dashboard/GuessTheNumber.sol\":937:1190  if (_guess == secretNumber) {... */\n      tag_37\n      jumpi\n        /* \"monad dashboard/GuessTheNumber.sol\":992:996  true */\n      0x01\n        /* \"monad dashboard/GuessTheNumber.sol\":980:989  gameEnded */\n      0x00\n      0x14\n        /* \"monad dashboard/GuessTheNumber.sol\":980:996  gameEnded = true */\n      0x0100\n      exp\n      dup2\n      sload\n      dup2\n      0xff\n      mul\n      not\n      and\n      swap1\n      dup4\n      iszero\n      iszero\n      mul\n      or\n      swap1\n      sstore\n      pop\n        /* \"monad dashboard/GuessTheNumber.sol\":1020:1030  msg.sender */\n      caller\n        /* \"monad dashboard/GuessTheNumber.sol\":1011:1017  winner */\n      0x00\n      dup1\n        /* \"monad dashboard/GuessTheNumber.sol\":1011:1030  winner = msg.sender */\n      0x0100\n      exp\n      dup2\n      sload\n      dup2\n      0xffffffffffffffffffffffffffffffffffffffff\n      mul\n      not\n      and\n      swap1\n      dup4\n      0xffffffffffffffffffffffffffffffffffffffff\n      and\n      mul\n      or\n      swap1\n      sstore\n      pop\n        /* \"monad dashboard/GuessTheNumber.sol\":1045:1058  uint256 prize */\n      0x00\n        /* \"monad dashboard/GuessTheNumber.sol\":1061:1082  address(this).balance */\n      selfbalance\n        /* \"monad dashboard/GuessTheNumber.sol\":1045:1082  uint256 prize = address(this).balance */\n      swap1\n      pop\n        /* \"monad dashboard/GuessTheNumber.sol\":1105:1115  msg.sender */\n      caller\n        /* \"monad dashboard/GuessTheNumber.sol\":1097:1125  payable(msg.sender).transfer */\n      0xffffffffffffffffffffffffffffffffffffffff\n      and\n        /* \"monad dashboard/GuessTheNumber.sol\":1097:1132  payable(msg.sender).transfer(prize) */\n      0x08fc\n        /* \"monad dashboard/GuessTheNumber.sol\":1126:1131  prize */\n      dup3\n        /* \"monad dashboard/GuessTheNumber.sol\":1097:1132  payable(msg.sender).transfer(prize) */\n      swap1\n      dup2\n      iszero\n      mul\n      swap1\n      mload(0x40)\n      0x00\n      mload(0x40)\n      dup1\n      dup4\n      sub\n      dup2\n      dup6\n      dup9\n      dup9\n      call\n      swap4\n      pop\n      pop\n      pop\n      pop\n      iszero\n      dup1\n      iszero\n      tag_39\n      jumpi\n      returndatasize\n      0x00\n      dup1\n      returndatacopy\n      revert(0x00, returndatasize)\n    tag_39:\n      pop\n        /* \"monad dashboard/GuessTheNumber.sol\":1160:1170  msg.sender */\n      caller\n        /* \"monad dashboard/GuessTheNumber.sol\":1152:1178  GameWon(msg.sender, prize) */\n      0xffffffffffffffffffffffffffffffffffffffff\n      and\n      0xdae072d96ce4f8bfc6557d4e8c29e0d1875b50c4efe52b340ab49669ec42ebe6\n        /* \"monad dashboard/GuessTheNumber.sol\":1172:1177  prize */\n      dup3\n        /* \"monad dashboard/GuessTheNumber.sol\":1152:1178  GameWon(msg.sender, prize) */\n      mload(0x40)\n      tag_40\n      swap2\n      swap1\n      tag_41\n      jump\t// in\n    tag_40:\n      mload(0x40)\n      dup1\n      swap2\n      sub\n      swap1\n      log2\n        /* \"monad dashboard/GuessTheNumber.sol\":965:1190  {... */\n      pop\n        /* \"monad dashboard/GuessTheNumber.sol\":937:1190  if (_guess == secretNumber) {... */\n    tag_37:\n        /* \"monad dashboard/GuessTheNumber.sol\":1221:1231  msg.sender */\n      caller\n        /* \"monad dashboard/GuessTheNumber.sol\":1207:1264  NumberGuessed(msg.sender, _guess, _guess == secretNumber) */\n      0xffffffffffffffffffffffffffffffffffffffff\n      and\n      0xeee3fe5a1077075c23dfe8e450b348c8949b9ce5a0240a8a3318cad6d26015c9\n        /* \"monad dashboard/GuessTheNumber.sol\":1233:1239  _guess */\n      dup3\n        /* \"monad dashboard/GuessTheNumber.sol\":1251:1263  secretNumber */\n      immutable(\"0x13600b294191fc92924bb3ce4b969c1e7e2bab8f4c93c3fc6d0a51733df3c060\")\n        /* \"monad dashboard/GuessTheNumber.sol\":1241:1263  _guess == secretNumber */\n      0xff\n      and\n        /* \"monad dashboard/GuessTheNumber.sol\":1241:1247  _guess */\n      dup5\n        /* \"monad dashboard/GuessTheNumber.sol\":1241:1263  _guess == secretNumber */\n      0xff\n      and\n      eq\n        /* \"monad dashboard/GuessTheNumber.sol\":1207:1264  NumberGuessed(msg.sender, _guess, _guess == secretNumber) */\n      mload(0x40)\n      tag_42\n      swap3\n      swap2\n      swap1\n      tag_43\n      jump\t// in\n    tag_42:\n      mload(0x40)\n      dup1\n      swap2\n      sub\n      swap1\n      log2\n        /* \"monad dashboard/GuessTheNumber.sol\":789:1272  function guess(uint8 _guess) external {... */\n      pop\n      jump\t// out\n        /* \"monad dashboard/GuessTheNumber.sol\":342:363  address public winner */\n    tag_24:\n      0x00\n      dup1\n      sload\n      swap1\n      0x0100\n      exp\n      swap1\n      div\n      0xffffffffffffffffffffffffffffffffffffffff\n      and\n      dup2\n      jump\t// out\n        /* \"#utility.yul\":7:97   */\n    tag_44:\n        /* \"#utility.yul\":41:48   */\n      0x00\n        /* \"#utility.yul\":84:89   */\n      dup2\n        /* \"#utility.yul\":77:90   */\n      iszero\n        /* \"#utility.yul\":70:91   */\n      iszero\n        /* \"#utility.yul\":59:91   */\n      swap1\n      pop\n        /* \"#utility.yul\":7:97   */\n      swap2\n      swap1\n      pop\n      jump\t// out\n        /* \"#utility.yul\":103:212   */\n    tag_45:\n        /* \"#utility.yul\":184:205   */\n      tag_70\n        /* \"#utility.yul\":199:204   */\n      dup2\n        /* \"#utility.yul\":184:205   */\n      tag_44\n      jump\t// in\n    tag_70:\n        /* \"#utility.yul\":179:182   */\n      dup3\n        /* \"#utility.yul\":172:206   */\n      mstore\n        /* \"#utility.yul\":103:212   */\n      pop\n      pop\n      jump\t// out\n        /* \"#utility.yul\":218:428   */\n    tag_11:\n        /* \"#utility.yul\":305:309   */\n      0x00\n        /* \"#utility.yul\":343:345   */\n      0x20\n        /* \"#utility.yul\":332:341   */\n      dup3\n        /* \"#utility.yul\":328:346   */\n      add\n        /* \"#utility.yul\":320:346   */\n      swap1\n      pop\n        /* \"#utility.yul\":356:421   */\n      tag_72\n        /* \"#utility.yul\":418:419   */\n      0x00\n        /* \"#utility.yul\":407:416   */\n      dup4\n        /* \"#utility.yul\":403:420   */\n      add\n        /* \"#utility.yul\":394:400   */\n      dup5\n        /* \"#utility.yul\":356:421   */\n      tag_45\n      jump\t// in\n    tag_72:\n        /* \"#utility.yul\":218:428   */\n      swap3\n      swap2\n      pop\n      pop\n      jump\t// out\n        /* \"#utility.yul\":434:533   */\n    tag_46:\n        /* \"#utility.yul\":486:492   */\n      0x00\n        /* \"#utility.yul\":520:525   */\n      dup2\n        /* \"#utility.yul\":514:526   */\n      mload\n        /* \"#utility.yul\":504:526   */\n      swap1\n      pop\n        /* \"#utility.yul\":434:533   */\n      swap2\n      swap1\n      pop\n      jump\t// out\n        /* \"#utility.yul\":539:708   */\n    tag_47:\n        /* \"#utility.yul\":623:634   */\n      0x00\n        /* \"#utility.yul\":657:663   */\n      dup3\n        /* \"#utility.yul\":652:655   */\n      dup3\n        /* \"#utility.yul\":645:664   */\n      mstore\n        /* \"#utility.yul\":697:701   */\n      0x20\n        /* \"#utility.yul\":692:695   */\n      dup3\n        /* \"#utility.yul\":688:702   */\n      add\n        /* \"#utility.yul\":673:702   */\n      swap1\n      pop\n        /* \"#utility.yul\":539:708   */\n      swap3\n      swap2\n      pop\n      pop\n      jump\t// out\n        /* \"#utility.yul\":714:960   */\n    tag_48:\n        /* \"#utility.yul\":795:796   */\n      0x00\n        /* \"#utility.yul\":805:918   */\n    tag_76:\n        /* \"#utility.yul\":819:825   */\n      dup4\n        /* \"#utility.yul\":816:817   */\n      dup2\n        /* \"#utility.yul\":813:826   */\n      lt\n        /* \"#utility.yul\":805:918   */\n      iszero\n      tag_78\n      jumpi\n        /* \"#utility.yul\":904:905   */\n      dup1\n        /* \"#utility.yul\":899:902   */\n      dup3\n        /* \"#utility.yul\":895:906   */\n      add\n        /* \"#utility.yul\":889:907   */\n      mload\n        /* \"#utility.yul\":885:886   */\n      dup2\n        /* \"#utility.yul\":880:883   */\n      dup5\n        /* \"#utility.yul\":876:887   */\n      add\n        /* \"#utility.yul\":869:908   */\n      mstore\n        /* \"#utility.yul\":841:843   */\n      0x20\n        /* \"#utility.yul\":838:839   */\n      dup2\n        /* \"#utility.yul\":834:844   */\n      add\n        /* \"#utility.yul\":829:844   */\n      swap1\n      pop\n        /* \"#utility.yul\":805:918   */\n      jump(tag_76)\n    tag_78:\n        /* \"#utility.yul\":952:953   */\n      0x00\n        /* \"#utility.yul\":943:949   */\n      dup5\n        /* \"#utility.yul\":938:941   */\n      dup5\n        /* \"#utility.yul\":934:950   */\n      add\n        /* \"#utility.yul\":927:954   */\n      mstore\n        /* \"#utility.yul\":776:960   */\n      pop\n        /* \"#utility.yul\":714:960   */\n      pop\n      pop\n      pop\n      jump\t// out\n        /* \"#utility.yul\":966:1068   */\n    tag_49:\n        /* \"#utility.yul\":1007:1013   */\n      0x00\n        /* \"#utility.yul\":1058:1060   */\n      0x1f\n        /* \"#utility.yul\":1054:1061   */\n      not\n        /* \"#utility.yul\":1049:1051   */\n      0x1f\n        /* \"#utility.yul\":1042:1047   */\n      dup4\n        /* \"#utility.yul\":1038:1052   */\n      add\n        /* \"#utility.yul\":1034:1062   */\n      and\n        /* \"#utility.yul\":1024:1062   */\n      swap1\n      pop\n        /* \"#utility.yul\":966:1068   */\n      swap2\n      swap1\n      pop\n      jump\t// out\n        /* \"#utility.yul\":1074:1451   */\n    tag_50:\n        /* \"#utility.yul\":1162:1165   */\n      0x00\n        /* \"#utility.yul\":1190:1229   */\n      tag_81\n        /* \"#utility.yul\":1223:1228   */\n      dup3\n        /* \"#utility.yul\":1190:1229   */\n      tag_46\n      jump\t// in\n    tag_81:\n        /* \"#utility.yul\":1245:1316   */\n      tag_82\n        /* \"#utility.yul\":1309:1315   */\n      dup2\n        /* \"#utility.yul\":1304:1307   */\n      dup6\n        /* \"#utility.yul\":1245:1316   */\n      tag_47\n      jump\t// in\n    tag_82:\n        /* \"#utility.yul\":1238:1316   */\n      swap4\n      pop\n        /* \"#utility.yul\":1325:1390   */\n      tag_83\n        /* \"#utility.yul\":1383:1389   */\n      dup2\n        /* \"#utility.yul\":1378:1381   */\n      dup6\n        /* \"#utility.yul\":1371:1375   */\n      0x20\n        /* \"#utility.yul\":1364:1369   */\n      dup7\n        /* \"#utility.yul\":1360:1376   */\n      add\n        /* \"#utility.yul\":1325:1390   */\n      tag_48\n      jump\t// in\n    tag_83:\n        /* \"#utility.yul\":1415:1444   */\n      tag_84\n        /* \"#utility.yul\":1437:1443   */\n      dup2\n        /* \"#utility.yul\":1415:1444   */\n      tag_49\n      jump\t// in\n    tag_84:\n        /* \"#utility.yul\":1410:1413   */\n      dup5\n        /* \"#utility.yul\":1406:1445   */\n      add\n        /* \"#utility.yul\":1399:1445   */\n      swap2\n      pop\n        /* \"#utility.yul\":1166:1451   */\n      pop\n        /* \"#utility.yul\":1074:1451   */\n      swap3\n      swap2\n      pop\n      pop\n      jump\t// out\n        /* \"#utility.yul\":1457:1770   */\n    tag_18:\n        /* \"#utility.yul\":1570:1574   */\n      0x00\n        /* \"#utility.yul\":1608:1610   */\n      0x20\n        /* \"#utility.yul\":1597:1606   */\n      dup3\n        /* \"#utility.yul\":1593:1611   */\n      add\n        /* \"#utility.yul\":1585:1611   */\n      swap1\n      pop\n        /* \"#utility.yul\":1657:1666   */\n      dup2\n        /* \"#utility.yul\":1651:1655   */\n      dup2\n        /* \"#utility.yul\":1647:1667   */\n      sub\n        /* \"#utility.yul\":1643:1644   */\n      0x00\n        /* \"#utility.yul\":1632:1641   */\n      dup4\n        /* \"#utility.yul\":1628:1645   */\n      add\n        /* \"#utility.yul\":1621:1668   */\n      mstore\n        /* \"#utility.yul\":1685:1763   */\n      tag_86\n        /* \"#utility.yul\":1758:1762   */\n      dup2\n        /* \"#utility.yul\":1749:1755   */\n      dup5\n        /* \"#utility.yul\":1685:1763   */\n      tag_50\n      jump\t// in\n    tag_86:\n        /* \"#utility.yul\":1677:1763   */\n      swap1\n      pop\n        /* \"#utility.yul\":1457:1770   */\n      swap3\n      swap2\n      pop\n      pop\n      jump\t// out\n        /* \"#utility.yul\":1857:1974   */\n    tag_52:\n        /* \"#utility.yul\":1966:1967   */\n      0x00\n        /* \"#utility.yul\":1963:1964   */\n      dup1\n        /* \"#utility.yul\":1956:1968   */\n      revert\n        /* \"#utility.yul\":2103:2189   */\n    tag_54:\n        /* \"#utility.yul\":2138:2145   */\n      0x00\n        /* \"#utility.yul\":2178:2182   */\n      0xff\n        /* \"#utility.yul\":2171:2176   */\n      dup3\n        /* \"#utility.yul\":2167:2183   */\n      and\n        /* \"#utility.yul\":2156:2183   */\n      swap1\n      pop\n        /* \"#utility.yul\":2103:2189   */\n      swap2\n      swap1\n      pop\n      jump\t// out\n        /* \"#utility.yul\":2195:2313   */\n    tag_55:\n        /* \"#utility.yul\":2266:2288   */\n      tag_92\n        /* \"#utility.yul\":2282:2287   */\n      dup2\n        /* \"#utility.yul\":2266:2288   */\n      tag_54\n      jump\t// in\n    tag_92:\n        /* \"#utility.yul\":2259:2264   */\n      dup2\n        /* \"#utility.yul\":2256:2289   */\n      eq\n        /* \"#utility.yul\":2246:2307   */\n      tag_93\n      jumpi\n        /* \"#utility.yul\":2303:2304   */\n      0x00\n        /* \"#utility.yul\":2300:2301   */\n      dup1\n        /* \"#utility.yul\":2293:2305   */\n      revert\n        /* \"#utility.yul\":2246:2307   */\n    tag_93:\n        /* \"#utility.yul\":2195:2313   */\n      pop\n      jump\t// out\n        /* \"#utility.yul\":2319:2454   */\n    tag_56:\n        /* \"#utility.yul\":2363:2368   */\n      0x00\n        /* \"#utility.yul\":2401:2407   */\n      dup2\n        /* \"#utility.yul\":2388:2408   */\n      calldataload\n        /* \"#utility.yul\":2379:2408   */\n      swap1\n      pop\n        /* \"#utility.yul\":2417:2448   */\n      tag_95\n        /* \"#utility.yul\":2442:2447   */\n      dup2\n        /* \"#utility.yul\":2417:2448   */\n      tag_55\n      jump\t// in\n    tag_95:\n        /* \"#utility.yul\":2319:2454   */\n      swap3\n      swap2\n      pop\n      pop\n      jump\t// out\n        /* \"#utility.yul\":2460:2785   */\n    tag_21:\n        /* \"#utility.yul\":2517:2523   */\n      0x00\n        /* \"#utility.yul\":2566:2568   */\n      0x20\n        /* \"#utility.yul\":2554:2563   */\n      dup3\n        /* \"#utility.yul\":2545:2552   */\n      dup5\n        /* \"#utility.yul\":2541:2564   */\n      sub\n        /* \"#utility.yul\":2537:2569   */\n      slt\n        /* \"#utility.yul\":2534:2653   */\n      iszero\n      tag_97\n      jumpi\n        /* \"#utility.yul\":2572:2651   */\n      tag_98\n      tag_52\n      jump\t// in\n    tag_98:\n        /* \"#utility.yul\":2534:2653   */\n    tag_97:\n        /* \"#utility.yul\":2692:2693   */\n      0x00\n        /* \"#utility.yul\":2717:2768   */\n      tag_99\n        /* \"#utility.yul\":2760:2767   */\n      dup5\n        /* \"#utility.yul\":2751:2757   */\n      dup3\n        /* \"#utility.yul\":2740:2749   */\n      dup6\n        /* \"#utility.yul\":2736:2758   */\n      add\n        /* \"#utility.yul\":2717:2768   */\n      tag_56\n      jump\t// in\n    tag_99:\n        /* \"#utility.yul\":2707:2768   */\n      swap2\n      pop\n        /* \"#utility.yul\":2663:2778   */\n      pop\n        /* \"#utility.yul\":2460:2785   */\n      swap3\n      swap2\n      pop\n      pop\n      jump\t// out\n        /* \"#utility.yul\":2791:2917   */\n    tag_57:\n        /* \"#utility.yul\":2828:2835   */\n      0x00\n        /* \"#utility.yul\":2868:2910   */\n      0xffffffffffffffffffffffffffffffffffffffff\n        /* \"#utility.yul\":2861:2866   */\n      dup3\n        /* \"#utility.yul\":2857:2911   */\n      and\n        /* \"#utility.yul\":2846:2911   */\n      swap1\n      pop\n        /* \"#utility.yul\":2791:2917   */\n      swap2\n      swap1\n      pop\n      jump\t// out\n        /* \"#utility.yul\":2923:3019   */\n    tag_58:\n        /* \"#utility.yul\":2960:2967   */\n      0x00\n        /* \"#utility.yul\":2989:3013   */\n      tag_102\n        /* \"#utility.yul\":3007:3012   */\n      dup3\n        /* \"#utility.yul\":2989:3013   */\n      tag_57\n      jump\t// in\n    tag_102:\n        /* \"#utility.yul\":2978:3013   */\n      swap1\n      pop\n        /* \"#utility.yul\":2923:3019   */\n      swap2\n      swap1\n      pop\n      jump\t// out\n        /* \"#utility.yul\":3025:3143   */\n    tag_59:\n        /* \"#utility.yul\":3112:3136   */\n      tag_104\n        /* \"#utility.yul\":3130:3135   */\n      dup2\n        /* \"#utility.yul\":3112:3136   */\n      tag_58\n      jump\t// in\n    tag_104:\n        /* \"#utility.yul\":3107:3110   */\n      dup3\n        /* \"#utility.yul\":3100:3137   */\n      mstore\n        /* \"#utility.yul\":3025:3143   */\n      pop\n      pop\n      jump\t// out\n        /* \"#utility.yul\":3149:3371   */\n    tag_26:\n        /* \"#utility.yul\":3242:3246   */\n      0x00\n        /* \"#utility.yul\":3280:3282   */\n      0x20\n        /* \"#utility.yul\":3269:3278   */\n      dup3\n        /* \"#utility.yul\":3265:3283   */\n      add\n        /* \"#utility.yul\":3257:3283   */\n      swap1\n      pop\n        /* \"#utility.yul\":3293:3364   */\n      tag_106\n        /* \"#utility.yul\":3361:3362   */\n      0x00\n        /* \"#utility.yul\":3350:3359   */\n      dup4\n        /* \"#utility.yul\":3346:3363   */\n      add\n        /* \"#utility.yul\":3337:3343   */\n      dup5\n        /* \"#utility.yul\":3293:3364   */\n      tag_59\n      jump\t// in\n    tag_106:\n        /* \"#utility.yul\":3149:3371   */\n      swap3\n      swap2\n      pop\n      pop\n      jump\t// out\n        /* \"#utility.yul\":3377:3536   */\n    tag_60:\n        /* \"#utility.yul\":3517:3528   */\n      0x47616d65206f7665720000000000000000000000000000000000000000000000\n        /* \"#utility.yul\":3513:3514   */\n      0x00\n        /* \"#utility.yul\":3505:3511   */\n      dup3\n        /* \"#utility.yul\":3501:3515   */\n      add\n        /* \"#utility.yul\":3494:3529   */\n      mstore\n        /* \"#utility.yul\":3377:3536   */\n      pop\n      jump\t// out\n        /* \"#utility.yul\":3542:3907   */\n    tag_61:\n        /* \"#utility.yul\":3684:3687   */\n      0x00\n        /* \"#utility.yul\":3705:3771   */\n      tag_109\n        /* \"#utility.yul\":3769:3770   */\n      0x09\n        /* \"#utility.yul\":3764:3767   */\n      dup4\n        /* \"#utility.yul\":3705:3771   */\n      tag_47\n      jump\t// in\n    tag_109:\n        /* \"#utility.yul\":3698:3771   */\n      swap2\n      pop\n        /* \"#utility.yul\":3780:3873   */\n      tag_110\n        /* \"#utility.yul\":3869:3872   */\n      dup3\n        /* \"#utility.yul\":3780:3873   */\n      tag_60\n      jump\t// in\n    tag_110:\n        /* \"#utility.yul\":3898:3900   */\n      0x20\n        /* \"#utility.yul\":3893:3896   */\n      dup3\n        /* \"#utility.yul\":3889:3901   */\n      add\n        /* \"#utility.yul\":3882:3901   */\n      swap1\n      pop\n        /* \"#utility.yul\":3542:3907   */\n      swap2\n      swap1\n      pop\n      jump\t// out\n        /* \"#utility.yul\":3913:4332   */\n    tag_33:\n        /* \"#utility.yul\":4079:4083   */\n      0x00\n        /* \"#utility.yul\":4117:4119   */\n      0x20\n        /* \"#utility.yul\":4106:4115   */\n      dup3\n        /* \"#utility.yul\":4102:4120   */\n      add\n        /* \"#utility.yul\":4094:4120   */\n      swap1\n      pop\n        /* \"#utility.yul\":4166:4175   */\n      dup2\n        /* \"#utility.yul\":4160:4164   */\n      dup2\n        /* \"#utility.yul\":4156:4176   */\n      sub\n        /* \"#utility.yul\":4152:4153   */\n      0x00\n        /* \"#utility.yul\":4141:4150   */\n      dup4\n        /* \"#utility.yul\":4137:4154   */\n      add\n        /* \"#utility.yul\":4130:4177   */\n      mstore\n        /* \"#utility.yul\":4194:4325   */\n      tag_112\n        /* \"#utility.yul\":4320:4324   */\n      dup2\n        /* \"#utility.yul\":4194:4325   */\n      tag_61\n      jump\t// in\n    tag_112:\n        /* \"#utility.yul\":4186:4325   */\n      swap1\n      pop\n        /* \"#utility.yul\":3913:4332   */\n      swap2\n      swap1\n      pop\n      jump\t// out\n        /* \"#utility.yul\":4338:4506   */\n    tag_62:\n        /* \"#utility.yul\":4478:4498   */\n      0x4775657373206f7574206f662072616e67650000000000000000000000000000\n        /* \"#utility.yul\":4474:4475   */\n      0x00\n        /* \"#utility.yul\":4466:4472   */\n      dup3\n        /* \"#utility.yul\":4462:4476   */\n      add\n        /* \"#utility.yul\":4455:4499   */\n      mstore\n        /* \"#utility.yul\":4338:4506   */\n      pop\n      jump\t// out\n        /* \"#utility.yul\":4512:4878   */\n    tag_63:\n        /* \"#utility.yul\":4654:4657   */\n      0x00\n        /* \"#utility.yul\":4675:4742   */\n      tag_115\n        /* \"#utility.yul\":4739:4741   */\n      0x12\n        /* \"#utility.yul\":4734:4737   */\n      dup4\n        /* \"#utility.yul\":4675:4742   */\n      tag_47\n      jump\t// in\n    tag_115:\n        /* \"#utility.yul\":4668:4742   */\n      swap2\n      pop\n        /* \"#utility.yul\":4751:4844   */\n      tag_116\n        /* \"#utility.yul\":4840:4843   */\n      dup3\n        /* \"#utility.yul\":4751:4844   */\n      tag_62\n      jump\t// in\n    tag_116:\n        /* \"#utility.yul\":4869:4871   */\n      0x20\n        /* \"#utility.yul\":4864:4867   */\n      dup3\n        /* \"#utility.yul\":4860:4872   */\n      add\n        /* \"#utility.yul\":4853:4872   */\n      swap1\n      pop\n        /* \"#utility.yul\":4512:4878   */\n      swap2\n      swap1\n      pop\n      jump\t// out\n        /* \"#utility.yul\":4884:5303   */\n    tag_36:\n        /* \"#utility.yul\":5050:5054   */\n      0x00\n        /* \"#utility.yul\":5088:5090   */\n      0x20\n        /* \"#utility.yul\":5077:5086   */\n      dup3\n        /* \"#utility.yul\":5073:5091   */\n      add\n        /* \"#utility.yul\":5065:5091   */\n      swap1\n      pop\n        /* \"#utility.yul\":5137:5146   */\n      dup2\n        /* \"#utility.yul\":5131:5135   */\n      dup2\n        /* \"#utility.yul\":5127:5147   */\n      sub\n        /* \"#utility.yul\":5123:5124   */\n      0x00\n        /* \"#utility.yul\":5112:5121   */\n      dup4\n        /* \"#utility.yul\":5108:5125   */\n      add\n        /* \"#utility.yul\":5101:5148   */\n      mstore\n        /* \"#utility.yul\":5165:5296   */\n      tag_118\n        /* \"#utility.yul\":5291:5295   */\n      dup2\n        /* \"#utility.yul\":5165:5296   */\n      tag_63\n      jump\t// in\n    tag_118:\n        /* \"#utility.yul\":5157:5296   */\n      swap1\n      pop\n        /* \"#utility.yul\":4884:5303   */\n      swap2\n      swap1\n      pop\n      jump\t// out\n        /* \"#utility.yul\":5309:5386   */\n    tag_64:\n        /* \"#utility.yul\":5346:5353   */\n      0x00\n        /* \"#utility.yul\":5375:5380   */\n      dup2\n        /* \"#utility.yul\":5364:5380   */\n      swap1\n      pop\n        /* \"#utility.yul\":5309:5386   */\n      swap2\n      swap1\n      pop\n      jump\t// out\n        /* \"#utility.yul\":5392:5510   */\n    tag_65:\n        /* \"#utility.yul\":5479:5503   */\n      tag_121\n        /* \"#utility.yul\":5497:5502   */\n      dup2\n        /* \"#utility.yul\":5479:5503   */\n      tag_64\n      jump\t// in\n    tag_121:\n        /* \"#utility.yul\":5474:5477   */\n      dup3\n        /* \"#utility.yul\":5467:5504   */\n      mstore\n        /* \"#utility.yul\":5392:5510   */\n      pop\n      pop\n      jump\t// out\n        /* \"#utility.yul\":5516:5738   */\n    tag_41:\n        /* \"#utility.yul\":5609:5613   */\n      0x00\n        /* \"#utility.yul\":5647:5649   */\n      0x20\n        /* \"#utility.yul\":5636:5645   */\n      dup3\n        /* \"#utility.yul\":5632:5650   */\n      add\n        /* \"#utility.yul\":5624:5650   */\n      swap1\n      pop\n        /* \"#utility.yul\":5660:5731   */\n      tag_123\n        /* \"#utility.yul\":5728:5729   */\n      0x00\n        /* \"#utility.yul\":5717:5726   */\n      dup4\n        /* \"#utility.yul\":5713:5730   */\n      add\n        /* \"#utility.yul\":5704:5710   */\n      dup5\n        /* \"#utility.yul\":5660:5731   */\n      tag_65\n      jump\t// in\n    tag_123:\n        /* \"#utility.yul\":5516:5738   */\n      swap3\n      swap2\n      pop\n      pop\n      jump\t// out\n        /* \"#utility.yul\":5744:5856   */\n    tag_66:\n        /* \"#utility.yul\":5827:5849   */\n      tag_125\n        /* \"#utility.yul\":5843:5848   */\n      dup2\n        /* \"#utility.yul\":5827:5849   */\n      tag_54\n      jump\t// in\n    tag_125:\n        /* \"#utility.yul\":5822:5825   */\n      dup3\n        /* \"#utility.yul\":5815:5850   */\n      mstore\n        /* \"#utility.yul\":5744:5856   */\n      pop\n      pop\n      jump\t// out\n        /* \"#utility.yul\":5862:6174   */\n    tag_43:\n        /* \"#utility.yul\":5973:5977   */\n      0x00\n        /* \"#utility.yul\":6011:6013   */\n      0x40\n        /* \"#utility.yul\":6000:6009   */\n      dup3\n        /* \"#utility.yul\":5996:6014   */\n      add\n        /* \"#utility.yul\":5988:6014   */\n      swap1\n      pop\n        /* \"#utility.yul\":6024:6091   */\n      tag_127\n        /* \"#utility.yul\":6088:6089   */\n      0x00\n        /* \"#utility.yul\":6077:6086   */\n      dup4\n        /* \"#utility.yul\":6073:6090   */\n      add\n        /* \"#utility.yul\":6064:6070   */\n      dup6\n        /* \"#utility.yul\":6024:6091   */\n      tag_66\n      jump\t// in\n    tag_127:\n        /* \"#utility.yul\":6101:6167   */\n      tag_128\n        /* \"#utility.yul\":6163:6165   */\n      0x20\n        /* \"#utility.yul\":6152:6161   */\n      dup4\n        /* \"#utility.yul\":6148:6166   */\n      add\n        /* \"#utility.yul\":6139:6145   */\n      dup5\n        /* \"#utility.yul\":6101:6167   */\n      tag_45\n      jump\t// in\n    tag_128:\n        /* \"#utility.yul\":5862:6174   */\n      swap4\n      swap3\n      pop\n      pop\n      pop\n      jump\t// out\n\n    auxdata: 0xa2646970667358221220604255fdeb38754056d2a5e0bb13bb9e19bfc0e2cc6b9383bb3eaa96a3e3602264736f6c63430008170033\n}\n",
				"bytecode": {
					"linkReferences": {},
					"object": "60a06040525f341162000049576040517f08c379a000000000000000000000000000000000000000000000000000000000815260040162000040906200014d565b60405180910390fd5b606442336040516020016200006092919062000219565b604051602081830303815290604052805190602001205f1c62000084919062000275565b60ff1660808160ff16815250505f805f6101000a81548173ffffffffffffffffffffffffffffffffffffffff021916908373ffffffffffffffffffffffffffffffffffffffff1602179055505f8060146101000a81548160ff021916908315150217905550620002ac565b5f82825260208201905092915050565b7f5072697a652072657175697265640000000000000000000000000000000000005f82015250565b5f62000135600e83620000ef565b91506200014282620000ff565b602082019050919050565b5f6020820190508181035f830152620001668162000127565b9050919050565b5f819050919050565b5f819050919050565b620001946200018e826200016d565b62000176565b82525050565b5f73ffffffffffffffffffffffffffffffffffffffff82169050919050565b5f620001c5826200019a565b9050919050565b5f8160601b9050919050565b5f620001e482620001cc565b9050919050565b5f620001f782620001d8565b9050919050565b620002136200020d82620001b9565b620001eb565b82525050565b5f6200022682856200017f565b602082019150620002388284620001fe565b6014820191508190509392505050565b7f4e487b71000000000000000000000000000000000000000000000000000000005f52601260045260245ffd5b5f62000281826200016d565b91506200028e836200016d565b925082620002a157620002a062000248565b5b828206905092915050565b6080516106fd620002cc5f395f818161023c015261039301526106fd5ff3fe608060405234801561000f575f80fd5b5060043610610055575f3560e01c80630c0ef2b0146100595780632f6fe3961461007757806341225071146100955780634ba4c16b146100b3578063dfbf53ae146100cf575b5f80fd5b6100616100ed565b60405161006e9190610410565b60405180910390f35b61007f610103565b60405161008c9190610410565b60405180910390f35b61009d610115565b6040516100aa91906104b3565b60405180910390f35b6100cd60048036038101906100c8919061050d565b6101a4565b005b6100d76103d3565b6040516100e49190610577565b60405180910390f35b5f8060149054906101000a900460ff1615905090565b5f60149054906101000a900460ff1681565b60605f60149054906101000a900460ff1615610168576040518060400160405280601081526020017f47616d6520616c726561647920776f6e0000000000000000000000000000000081525090506101a1565b6040518060400160405280601f81526020017f47756573732061206e756d626572206265747765656e203020616e642039390081525090505b90565b5f60149054906101000a900460ff16156101f3576040517f08c379a00000000000000000000000000000000000000000000000000000000081526004016101ea906105da565b60405180910390fd5b60638160ff16111561023a576040517f08c379a000000000000000000000000000000000000000000000000000000000815260040161023190610642565b60405180910390fd5b7f000000000000000000000000000000000000000000000000000000000000000060ff168160ff16036103585760015f60146101000a81548160ff021916908315150217905550335f806101000a81548173ffffffffffffffffffffffffffffffffffffffff021916908373ffffffffffffffffffffffffffffffffffffffff1602179055505f4790503373ffffffffffffffffffffffffffffffffffffffff166108fc8290811502906040515f60405180830381858888f19350505050158015610307573d5f803e3d5ffd5b503373ffffffffffffffffffffffffffffffffffffffff167fdae072d96ce4f8bfc6557d4e8c29e0d1875b50c4efe52b340ab49669ec42ebe68260405161034e9190610678565b60405180910390a2505b3373ffffffffffffffffffffffffffffffffffffffff167feee3fe5a1077075c23dfe8e450b348c8949b9ce5a0240a8a3318cad6d26015c9827f000000000000000000000000000000000000000000000000000000000000000060ff168460ff16146040516103c89291906106a0565b60405180910390a250565b5f8054906101000a900473ffffffffffffffffffffffffffffffffffffffff1681565b5f8115159050919050565b61040a816103f6565b82525050565b5f6020820190506104235f830184610401565b92915050565b5f81519050919050565b5f82825260208201905092915050565b5f5b83811015610460578082015181840152602081019050610445565b5f8484015250505050565b5f601f19601f8301169050919050565b5f61048582610429565b61048f8185610433565b935061049f818560208601610443565b6104a88161046b565b840191505092915050565b5f6020820190508181035f8301526104cb818461047b565b905092915050565b5f80fd5b5f60ff82169050919050565b6104ec816104d7565b81146104f6575f80fd5b50565b5f81359050610507816104e3565b92915050565b5f60208284031215610522576105216104d3565b5b5f61052f848285016104f9565b91505092915050565b5f73ffffffffffffffffffffffffffffffffffffffff82169050919050565b5f61056182610538565b9050919050565b61057181610557565b82525050565b5f60208201905061058a5f830184610568565b92915050565b7f47616d65206f76657200000000000000000000000000000000000000000000005f82015250565b5f6105c4600983610433565b91506105cf82610590565b602082019050919050565b5f6020820190508181035f8301526105f1816105b8565b9050919050565b7f4775657373206f7574206f662072616e676500000000000000000000000000005f82015250565b5f61062c601283610433565b9150610637826105f8565b602082019050919050565b5f6020820190508181035f83015261065981610620565b9050919050565b5f819050919050565b61067281610660565b82525050565b5f60208201905061068b5f830184610669565b92915050565b61069a816104d7565b82525050565b5f6040820190506106b35f830185610691565b6106c06020830184610401565b939250505056fea2646970667358221220604255fdeb38754056d2a5e0bb13bb9e19bfc0e2cc6b9383bb3eaa96a3e3602264736f6c63430008170033",
					"opcodes": "PUSH1 0xA0 PUSH1 0x40 MSTORE PUSH0 CALLVALUE GT PUSH3 0x49 JUMPI PUSH1 0x40 MLOAD PUSH32 0x8C379A000000000000000000000000000000000000000000000000000000000 DUP2 MSTORE PUSH1 0x4 ADD PUSH3 0x40 SWAP1 PUSH3 0x14D JUMP JUMPDEST PUSH1 0x40 MLOAD DUP1 SWAP2 SUB SWAP1 REVERT JUMPDEST PUSH1 0x64 TIMESTAMP CALLER PUSH1 0x40 MLOAD PUSH1 0x20 ADD PUSH3 0x60 SWAP3 SWAP2 SWAP1 PUSH3 0x219 JUMP JUMPDEST PUSH1 0x40 MLOAD PUSH1 0x20 DUP2 DUP4 SUB SUB DUP2 MSTORE SWAP1 PUSH1 0x40 MSTORE DUP1 MLOAD SWAP1 PUSH1 0x20 ADD KECCAK256 PUSH0 SHR PUSH3 0x84 SWAP2 SWAP1 PUSH3 0x275 JUMP JUMPDEST PUSH1 0xFF AND PUSH1 0x80 DUP2 PUSH1 0xFF AND DUP2 MSTORE POP POP PUSH0 DUP1 PUSH0 PUSH2 0x100 EXP DUP2 SLOAD DUP2 PUSH20 0xFFFFFFFFFFFFFFFFFFFFFFFFFFFFFFFFFFFFFFFF MUL NOT AND SWAP1 DUP4 PUSH20 0xFFFFFFFFFFFFFFFFFFFFFFFFFFFFFFFFFFFFFFFF AND MUL OR SWAP1 SSTORE POP PUSH0 DUP1 PUSH1 0x14 PUSH2 0x100 EXP DUP2 SLOAD DUP2 PUSH1 0xFF MUL NOT AND SWAP1 DUP4 ISZERO ISZERO MUL OR SWAP1 SSTORE POP PUSH3 0x2AC JUMP JUMPDEST PUSH0 DUP3 DUP3 MSTORE PUSH1 0x20 DUP3 ADD SWAP1 POP SWAP3 SWAP2 POP POP JUMP JUMPDEST PUSH32 0x5072697A65207265717569726564000000000000000000000000000000000000 PUSH0 DUP3 ADD MSTORE POP JUMP JUMPDEST PUSH0 PUSH3 0x135 PUSH1 0xE DUP4 PUSH3 0xEF JUMP JUMPDEST SWAP2 POP PUSH3 0x142 DUP3 PUSH3 0xFF JUMP JUMPDEST PUSH1 0x20 DUP3 ADD SWAP1 POP SWAP2 SWAP1 POP JUMP JUMPDEST PUSH0 PUSH1 0x20 DUP3 ADD SWAP1 POP DUP2 DUP2 SUB PUSH0 DUP4 ADD MSTORE PUSH3 0x166 DUP2 PUSH3 0x127 JUMP JUMPDEST SWAP1 POP SWAP2 SWAP1 POP JUMP JUMPDEST PUSH0 DUP2 SWAP1 POP SWAP2 SWAP1 POP JUMP JUMPDEST PUSH0 DUP2 SWAP1 POP SWAP2 SWAP1 POP JUMP JUMPDEST PUSH3 0x194 PUSH3 0x18E DUP3 PUSH3 0x16D JUMP JUMPDEST PUSH3 0x176 JUMP JUMPDEST DUP3 MSTORE POP POP JUMP JUMPDEST PUSH0 PUSH20 0xFFFFFFFFFFFFFFFFFFFFFFFFFFFFFFFFFFFFFFFF DUP3 AND SWAP1 POP SWAP2 SWAP1 POP JUMP JUMPDEST PUSH0 PUSH3 0x1C5 DUP3 PUSH3 0x19A JUMP JUMPDEST SWAP1 POP SWAP2 SWAP1 POP JUMP JUMPDEST PUSH0 DUP2 PUSH1 0x60 SHL SWAP1 POP SWAP2 SWAP1 POP JUMP JUMPDEST PUSH0 PUSH3 0x1E4 DUP3 PUSH3 0x1CC JUMP JUMPDEST SWAP1 POP SWAP2 SWAP1 POP JUMP JUMPDEST PUSH0 PUSH3 0x1F7 DUP3 PUSH3 0x1D8 JUMP JUMPDEST SWAP1 POP SWAP2 SWAP1 POP JUMP JUMPDEST PUSH3 0x213 PUSH3 0x20D DUP3 PUSH3 0x1B9 JUMP JUMPDEST PUSH3 0x1EB JUMP JUMPDEST DUP3 MSTORE POP POP JUMP JUMPDEST PUSH0 PUSH3 0x226 DUP3 DUP6 PUSH3 0x17F JUMP JUMPDEST PUSH1 0x20 DUP3 ADD SWAP2 POP PUSH3 0x238 DUP3 DUP5 PUSH3 0x1FE JUMP JUMPDEST PUSH1 0x14 DUP3 ADD SWAP2 POP DUP2 SWAP1 POP SWAP4 SWAP3 POP POP POP JUMP JUMPDEST PUSH32 0x4E487B7100000000000000000000000000000000000000000000000000000000 PUSH0 MSTORE PUSH1 0x12 PUSH1 0x4 MSTORE PUSH1 0x24 PUSH0 REVERT JUMPDEST PUSH0 PUSH3 0x281 DUP3 PUSH3 0x16D JUMP JUMPDEST SWAP2 POP PUSH3 0x28E DUP4 PUSH3 0x16D JUMP JUMPDEST SWAP3 POP DUP3 PUSH3 0x2A1 JUMPI PUSH3 0x2A0 PUSH3 0x248 JUMP JUMPDEST JUMPDEST DUP3 DUP3 MOD SWAP1 POP SWAP3 SWAP2 POP POP JUMP JUMPDEST PUSH1 0x80 MLOAD PUSH2 0x6FD PUSH3 0x2CC PUSH0 CODECOPY PUSH0 DUP2 DUP2 PUSH2 0x23C ADD MSTORE PUSH2 0x393 ADD MSTORE PUSH2 0x6FD PUSH0 RETURN INVALID PUSH1 0x80 PUSH1 0x40 MSTORE CALLVALUE DUP1 ISZERO PUSH2 0xF JUMPI PUSH0 DUP1 REVERT JUMPDEST POP PUSH1 0x4 CALLDATASIZE LT PUSH2 0x55 JUMPI PUSH0 CALLDATALOAD PUSH1 0xE0 SHR DUP1 PUSH4 0xC0EF2B0 EQ PUSH2 0x59 JUMPI DUP1 PUSH4 0x2F6FE396 EQ PUSH2 0x77 JUMPI DUP1 PUSH4 0x41225071 EQ PUSH2 0x95 JUMPI DUP1 PUSH4 0x4BA4C16B EQ PUSH2 0xB3 JUMPI DUP1 PUSH4 0xDFBF53AE EQ PUSH2 0xCF JUMPI JUMPDEST PUSH0 DUP1 REVERT JUMPDEST PUSH2 0x61 PUSH2 0xED JUMP JUMPDEST PUSH1 0x40 MLOAD PUSH2 0x6E SWAP2 SWAP1 PUSH2 0x410 JUMP JUMPDEST PUSH1 0x40 MLOAD DUP1 SWAP2 SUB SWAP1 RETURN JUMPDEST PUSH2 0x7F PUSH2 0x103 JUMP JUMPDEST PUSH1 0x40 MLOAD PUSH2 0x8C SWAP2 SWAP1 PUSH2 0x410 JUMP JUMPDEST PUSH1 0x40 MLOAD DUP1 SWAP2 SUB SWAP1 RETURN JUMPDEST PUSH2 0x9D PUSH2 0x115 JUMP JUMPDEST PUSH1 0x40 MLOAD PUSH2 0xAA SWAP2 SWAP1 PUSH2 0x4B3 JUMP JUMPDEST PUSH1 0x40 MLOAD DUP1 SWAP2 SUB SWAP1 RETURN JUMPDEST PUSH2 0xCD PUSH1 0x4 DUP1 CALLDATASIZE SUB DUP2 ADD SWAP1 PUSH2 0xC8 SWAP2 SWAP1 PUSH2 0x50D JUMP JUMPDEST PUSH2 0x1A4 JUMP JUMPDEST STOP JUMPDEST PUSH2 0xD7 PUSH2 0x3D3 JUMP JUMPDEST PUSH1 0x40 MLOAD PUSH2 0xE4 SWAP2 SWAP1 PUSH2 0x577 JUMP JUMPDEST PUSH1 0x40 MLOAD DUP1 SWAP2 SUB SWAP1 RETURN JUMPDEST PUSH0 DUP1 PUSH1 0x14 SWAP1 SLOAD SWAP1 PUSH2 0x100 EXP SWAP1 DIV PUSH1 0xFF AND ISZERO SWAP1 POP SWAP1 JUMP JUMPDEST PUSH0 PUSH1 0x14 SWAP1 SLOAD SWAP1 PUSH2 0x100 EXP SWAP1 DIV PUSH1 0xFF AND DUP2 JUMP JUMPDEST PUSH1 0x60 PUSH0 PUSH1 0x14 SWAP1 SLOAD SWAP1 PUSH2 0x100 EXP SWAP1 DIV PUSH1 0xFF AND ISZERO PUSH2 0x168 JUMPI PUSH1 0x40 MLOAD DUP1 PUSH1 0x40 ADD PUSH1 0x40 MSTORE DUP1 PUSH1 0x10 DUP2 MSTORE PUSH1 0x20 ADD PUSH32 0x47616D6520616C726561647920776F6E00000000000000000000000000000000 DUP2 MSTORE POP SWAP1 POP PUSH2 0x1A1 JUMP JUMPDEST PUSH1 0x40 MLOAD DUP1 PUSH1 0x40 ADD PUSH1 0x40 MSTORE DUP1 PUSH1 0x1F DUP2 MSTORE PUSH1 0x20 ADD PUSH32 0x47756573732061206E756D626572206265747765656E203020616E6420393900 DUP2 MSTORE POP SWAP1 POP JUMPDEST SWAP1 JUMP JUMPDEST PUSH0 PUSH1 0x14 SWAP1 SLOAD SWAP1 PUSH2 0x100 EXP SWAP1 DIV PUSH1 0xFF AND ISZERO PUSH2 0x1F3 JUMPI PUSH1 0x40 MLOAD PUSH32 0x8C379A000000000000000000000000000000000000000000000000000000000 DUP2 MSTORE PUSH1 0x4 ADD PUSH2 0x1EA SWAP1 PUSH2 0x5DA JUMP JUMPDEST PUSH1 0x40 MLOAD DUP1 SWAP2 SUB SWAP1 REVERT JUMPDEST PUSH1 0x63 DUP2 PUSH1 0xFF AND GT ISZERO PUSH2 0x23A JUMPI PUSH1 0x40 MLOAD PUSH32 0x8C379A000000000000000000000000000000000000000000000000000000000 DUP2 MSTORE PUSH1 0x4 ADD PUSH2 0x231 SWAP1 PUSH2 0x642 JUMP JUMPDEST PUSH1 0x40 MLOAD DUP1 SWAP2 SUB SWAP1 REVERT JUMPDEST PUSH32 0x0 PUSH1 0xFF AND DUP2 PUSH1 0xFF AND SUB PUSH2 0x358 JUMPI PUSH1 0x1 PUSH0 PUSH1 0x14 PUSH2 0x100 EXP DUP2 SLOAD DUP2 PUSH1 0xFF MUL NOT AND SWAP1 DUP4 ISZERO ISZERO MUL OR SWAP1 SSTORE POP CALLER PUSH0 DUP1 PUSH2 0x100 EXP DUP2 SLOAD DUP2 PUSH20 0xFFFFFFFFFFFFFFFFFFFFFFFFFFFFFFFFFFFFFFFF MUL NOT AND SWAP1 DUP4 PUSH20 0xFFFFFFFFFFFFFFFFFFFFFFFFFFFFFFFFFFFFFFFF AND MUL OR SWAP1 SSTORE POP PUSH0 SELFBALANCE SWAP1 POP CALLER PUSH20 0xFFFFFFFFFFFFFFFFFFFFFFFFFFFFFFFFFFFFFFFF AND PUSH2 0x8FC DUP3 SWAP1 DUP2 ISZERO MUL SWAP1 PUSH1 0x40 MLOAD PUSH0 PUSH1 0x40 MLOAD DUP1 DUP4 SUB DUP2 DUP6 DUP9 DUP9 CALL SWAP4 POP POP POP POP ISZERO DUP1 ISZERO PUSH2 0x307 JUMPI RETURNDATASIZE PUSH0 DUP1 RETURNDATACOPY RETURNDATASIZE PUSH0 REVERT JUMPDEST POP CALLER PUSH20 0xFFFFFFFFFFFFFFFFFFFFFFFFFFFFFFFFFFFFFFFF AND PUSH32 0xDAE072D96CE4F8BFC6557D4E8C29E0D1875B50C4EFE52B340AB49669EC42EBE6 DUP3 PUSH1 0x40 MLOAD PUSH2 0x34E SWAP2 SWAP1 PUSH2 0x678 JUMP JUMPDEST PUSH1 0x40 MLOAD DUP1 SWAP2 SUB SWAP1 LOG2 POP JUMPDEST CALLER PUSH20 0xFFFFFFFFFFFFFFFFFFFFFFFFFFFFFFFFFFFFFFFF AND PUSH32 0xEEE3FE5A1077075C23DFE8E450B348C8949B9CE5A0240A8A3318CAD6D26015C9 DUP3 PUSH32 0x0 PUSH1 0xFF AND DUP5 PUSH1 0xFF AND EQ PUSH1 0x40 MLOAD PUSH2 0x3C8 SWAP3 SWAP2 SWAP1 PUSH2 0x6A0 JUMP JUMPDEST PUSH1 0x40 MLOAD DUP1 SWAP2 SUB SWAP1 LOG2 POP JUMP JUMPDEST PUSH0 DUP1 SLOAD SWAP1 PUSH2 0x100 EXP SWAP1 DIV PUSH20 0xFFFFFFFFFFFFFFFFFFFFFFFFFFFFFFFFFFFFFFFF AND DUP2 JUMP JUMPDEST PUSH0 DUP2 ISZERO ISZERO SWAP1 POP SWAP2 SWAP1 POP JUMP JUMPDEST PUSH2 0x40A DUP2 PUSH2 0x3F6 JUMP JUMPDEST DUP3 MSTORE POP POP JUMP JUMPDEST PUSH0 PUSH1 0x20 DUP3 ADD SWAP1 POP PUSH2 0x423 PUSH0 DUP4 ADD DUP5 PUSH2 0x401 JUMP JUMPDEST SWAP3 SWAP2 POP POP JUMP JUMPDEST PUSH0 DUP2 MLOAD SWAP1 POP SWAP2 SWAP1 POP JUMP JUMPDEST PUSH0 DUP3 DUP3 MSTORE PUSH1 0x20 DUP3 ADD SWAP1 POP SWAP3 SWAP2 POP POP JUMP JUMPDEST PUSH0 JUMPDEST DUP4 DUP2 LT ISZERO PUSH2 0x460 JUMPI DUP1 DUP3 ADD MLOAD DUP2 DUP5 ADD MSTORE PUSH1 0x20 DUP2 ADD SWAP1 POP PUSH2 0x445 JUMP JUMPDEST PUSH0 DUP5 DUP5 ADD MSTORE POP POP POP POP JUMP JUMPDEST PUSH0 PUSH1 0x1F NOT PUSH1 0x1F DUP4 ADD AND SWAP1 POP SWAP2 SWAP1 POP JUMP JUMPDEST PUSH0 PUSH2 0x485 DUP3 PUSH2 0x429 JUMP JUMPDEST PUSH2 0x48F DUP2 DUP6 PUSH2 0x433 JUMP JUMPDEST SWAP4 POP PUSH2 0x49F DUP2 DUP6 PUSH1 0x20 DUP7 ADD PUSH2 0x443 JUMP JUMPDEST PUSH2 0x4A8 DUP2 PUSH2 0x46B JUMP JUMPDEST DUP5 ADD SWAP2 POP POP SWAP3 SWAP2 POP POP JUMP JUMPDEST PUSH0 PUSH1 0x20 DUP3 ADD SWAP1 POP DUP2 DUP2 SUB PUSH0 DUP4 ADD MSTORE PUSH2 0x4CB DUP2 DUP5 PUSH2 0x47B JUMP JUMPDEST SWAP1 POP SWAP3 SWAP2 POP POP JUMP JUMPDEST PUSH0 DUP1 REVERT JUMPDEST PUSH0 PUSH1 0xFF DUP3 AND SWAP1 POP SWAP2 SWAP1 POP JUMP JUMPDEST PUSH2 0x4EC DUP2 PUSH2 0x4D7 JUMP JUMPDEST DUP2 EQ PUSH2 0x4F6 JUMPI PUSH0 DUP1 REVERT JUMPDEST POP JUMP JUMPDEST PUSH0 DUP2 CALLDATALOAD SWAP1 POP PUSH2 0x507 DUP2 PUSH2 0x4E3 JUMP JUMPDEST SWAP3 SWAP2 POP POP JUMP JUMPDEST PUSH0 PUSH1 0x20 DUP3 DUP5 SUB SLT ISZERO PUSH2 0x522 JUMPI PUSH2 0x521 PUSH2 0x4D3 JUMP JUMPDEST JUMPDEST PUSH0 PUSH2 0x52F DUP5 DUP3 DUP6 ADD PUSH2 0x4F9 JUMP JUMPDEST SWAP2 POP POP SWAP3 SWAP2 POP POP JUMP JUMPDEST PUSH0 PUSH20 0xFFFFFFFFFFFFFFFFFFFFFFFFFFFFFFFFFFFFFFFF DUP3 AND SWAP1 POP SWAP2 SWAP1 POP JUMP JUMPDEST PUSH0 PUSH2 0x561 DUP3 PUSH2 0x538 JUMP JUMPDEST SWAP1 POP SWAP2 SWAP1 POP JUMP JUMPDEST PUSH2 0x571 DUP2 PUSH2 0x557 JUMP JUMPDEST DUP3 MSTORE POP POP JUMP JUMPDEST PUSH0 PUSH1 0x20 DUP3 ADD SWAP1 POP PUSH2 0x58A PUSH0 DUP4 ADD DUP5 PUSH2 0x568 JUMP JUMPDEST SWAP3 SWAP2 POP POP JUMP JUMPDEST PUSH32 0x47616D65206F7665720000000000000000000000000000000000000000000000 PUSH0 DUP3 ADD MSTORE POP JUMP JUMPDEST PUSH0 PUSH2 0x5C4 PUSH1 0x9 DUP4 PUSH2 0x433 JUMP JUMPDEST SWAP2 POP PUSH2 0x5CF DUP3 PUSH2 0x590 JUMP JUMPDEST PUSH1 0x20 DUP3 ADD SWAP1 POP SWAP2 SWAP1 POP JUMP JUMPDEST PUSH0 PUSH1 0x20 DUP3 ADD SWAP1 POP DUP2 DUP2 SUB PUSH0 DUP4 ADD MSTORE PUSH2 0x5F1 DUP2 PUSH2 0x5B8 JUMP JUMPDEST SWAP1 POP SWAP2 SWAP1 POP JUMP JUMPDEST PUSH32 0x4775657373206F7574206F662072616E67650000000000000000000000000000 PUSH0 DUP3 ADD MSTORE POP JUMP JUMPDEST PUSH0 PUSH2 0x62C PUSH1 0x12 DUP4 PUSH2 0x433 JUMP JUMPDEST SWAP2 POP PUSH2 0x637 DUP3 PUSH2 0x5F8 JUMP JUMPDEST PUSH1 0x20 DUP3 ADD SWAP1 POP SWAP2 SWAP1 POP JUMP JUMPDEST PUSH0 PUSH1 0x20 DUP3 ADD SWAP1 POP DUP2 DUP2 SUB PUSH0 DUP4 ADD MSTORE PUSH2 0x659 DUP2 PUSH2 0x620 JUMP JUMPDEST SWAP1 POP SWAP2 SWAP1 POP JUMP JUMPDEST PUSH0 DUP2 SWAP1 POP SWAP2 SWAP1 POP JUMP JUMPDEST PUSH2 0x672 DUP2 PUSH2 0x660 JUMP JUMPDEST DUP3 MSTORE POP POP JUMP JUMPDEST PUSH0 PUSH1 0x20 DUP3 ADD SWAP1 POP PUSH2 0x68B PUSH0 DUP4 ADD DUP5 PUSH2 0x669 JUMP JUMPDEST SWAP3 SWAP2 POP POP JUMP JUMPDEST PUSH2 0x69A DUP2 PUSH2 0x4D7 JUMP JUMPDEST DUP3 MSTORE POP POP JUMP JUMPDEST PUSH0 PUSH1 0x40 DUP3 ADD SWAP1 POP PUSH2 0x6B3 PUSH0 DUP4 ADD DUP6 PUSH2 0x691 JUMP JUMPDEST PUSH2 0x6C0 PUSH1 0x20 DUP4 ADD DUP5 PUSH2 0x401 JUMP JUMPDEST SWAP4 SWAP3 POP POP POP JUMP INVALID LOG2 PUSH5 0x6970667358 0x22 SLT KECCAK256 PUSH1 0x42 SSTORE REVERT 0xEB CODESIZE PUSH22 0x4056D2A5E0BB13BB9E19BFC0E2CC6B9383BB3EAA96A3 0xE3 PUSH1 0x22 PUSH5 0x736F6C6343 STOP ADDMOD OR STOP CALLER "
				},
				"gasEstimates": {
					"creation": {
						"codeDepositCost": "357800",
						"executionCost": "infinite",
						"totalCost": "infinite"
					},
					"external": {
						"gameEnded()": "2516",
						"getHint()": "infinite",
						"guess(uint8)": "infinite",
						"isGameActive()": "2505",
						"winner()": "2571"
					}
				},
				"methodIdentifiers": {
					"gameEnded()": "2f6fe396",
					"getHint()": "41225071",
					"guess(uint8)": "4ba4c16b",
					"isGameActive()": "0c0ef2b0",
					"winner()": "dfbf53ae"
				}
			},
			"storageLayout": {
				"storage": [
					{
						"astId": 6,
						"contract": "monad dashboard/GuessTheNumber.sol:GuessTheNumber",
						"label": "winner",
						"offset": 0,
						"slot": "0",
						"type": "t_address"
					},
					{
						"astId": 8,
						"contract": "monad dashboard/GuessTheNumber.sol:GuessTheNumber",
						"label": "gameEnded",
						"offset": 20,
						"slot": "0",
						"type": "t_bool"
					}
				],
				"types": {
					"t_address": {
						"encoding": "inplace",
						"label": "address",
						"numberOfBytes": "20"
					},
					"t_bool": {
						"encoding": "inplace",
						"label": "bool",
						"numberOfBytes": "1"
					}
				}
			},
			"userdoc": {
				"kind": "user",
				"methods": {},
				"notice": "Contract: GuessTheNumber A simple on-chain guessing game where the first player to guess the correct number wins all the ETH in the contract.",
				"version": 1
			}
		}
	}
}