{
	"monad dashboard/Subscription.sol": {
		"Subscription": {
			"abi": [
				{
					"inputs": [],
					"name": "fee",
					"outputs": [
						{
							"internalType": "uint256",
							"name": "",
							"type": "uint256"
						}
					],
					"stateMutability": "view",
					"type": "function"
				},
				{
					"inputs": [
						{
							"internalType": "address",
							"name": "user",
							"type": "address"
						}
					],
					"name": "isSubscribed",
					"outputs": [
						{
							"internalType": "bool",
							"name": "",
							"type": "bool"
						}
					],
					"stateMutability": "view",
					"type": "function"
				},
				{
					"inputs": [],
					"name": "subscribe",
					"outputs": [],
					"stateMutability": "payable",
					"type": "function"
				},
				{
					"inputs": [
						{
							"internalType": "address",
							"name": "",
							"type": "address"
						}
					],
					"name": "subscribers",
					"outputs": [
						{
							"internalType": "uint256",
							"name": "",
							"type": "uint256"
						}
					],
					"stateMutability": "view",
					"type": "function"
				}
			],
			"devdoc": {
				"kind": "dev",
				"methods": {},
				"version": 1
			},
			"evm": {
				"assembly": "    /* \"monad dashboard/Subscription.sol\":61:471  contract Subscription {... */\n  mstore(0x40, 0x80)\n    /* \"monad dashboard/Subscription.sol\":108:118  0.01 ether */\n  0x2386f26fc10000\n    /* \"monad dashboard/Subscription.sol\":90:118  uint public fee = 0.01 ether */\n  0x00\n  sstore\n    /* \"monad dashboard/Subscription.sol\":61:471  contract Subscription {... */\n  callvalue\n  dup1\n  iszero\n  tag_1\n  jumpi\n  0x00\n  dup1\n  revert\ntag_1:\n  pop\n  dataSize(sub_0)\n  dup1\n  dataOffset(sub_0)\n  0x00\n  codecopy\n  0x00\n  return\nstop\n\nsub_0: assembly {\n        /* \"monad dashboard/Subscription.sol\":61:471  contract Subscription {... */\n      mstore(0x40, 0x80)\n      jumpi(tag_1, lt(calldatasize, 0x04))\n      shr(0xe0, calldataload(0x00))\n      dup1\n      0x5745ae28\n      eq\n      tag_2\n      jumpi\n      dup1\n      0x8f449a05\n      eq\n      tag_3\n      jumpi\n      dup1\n      0xb92ae87c\n      eq\n      tag_4\n      jumpi\n      dup1\n      0xddca3f43\n      eq\n      tag_5\n      jumpi\n    tag_1:\n      0x00\n      dup1\n      revert\n        /* \"monad dashboard/Subscription.sol\":125:168  mapping(address => uint) public subscribers */\n    tag_2:\n      callvalue\n      dup1\n      iszero\n      tag_6\n      jumpi\n      0x00\n      dup1\n      revert\n    tag_6:\n      pop\n      tag_7\n      0x04\n      dup1\n      calldatasize\n      sub\n      dup2\n      add\n      swap1\n      tag_8\n      swap2\n      swap1\n      tag_9\n      jump\t// in\n    tag_8:\n      tag_10\n      jump\t// in\n    tag_7:\n      mload(0x40)\n      tag_11\n      swap2\n      swap1\n      tag_12\n      jump\t// in\n    tag_11:\n      mload(0x40)\n      dup1\n      swap2\n      sub\n      swap1\n      return\n        /* \"monad dashboard/Subscription.sol\":177:336  function subscribe() public payable {... */\n    tag_3:\n      tag_13\n      tag_14\n      jump\t// in\n    tag_13:\n      stop\n        /* \"monad dashboard/Subscription.sol\":344:468  function isSubscribed(address user) public view returns (bool) {... */\n    tag_4:\n      callvalue\n      dup1\n      iszero\n      tag_15\n      jumpi\n      0x00\n      dup1\n      revert\n    tag_15:\n      pop\n      tag_16\n      0x04\n      dup1\n      calldatasize\n      sub\n      dup2\n      add\n      swap1\n      tag_17\n      swap2\n      swap1\n      tag_9\n      jump\t// in\n    tag_17:\n      tag_18\n      jump\t// in\n    tag_16:\n      mload(0x40)\n      tag_19\n      swap2\n      swap1\n      tag_20\n      jump\t// in\n    tag_19:\n      mload(0x40)\n      dup1\n      swap2\n      sub\n      swap1\n      return\n        /* \"monad dashboard/Subscription.sol\":90:118  uint public fee = 0.01 ether */\n    tag_5:\n      callvalue\n      dup1\n      iszero\n      tag_21\n      jumpi\n      0x00\n      dup1\n      revert\n    tag_21:\n      pop\n      tag_22\n      tag_23\n      jump\t// in\n    tag_22:\n      mload(0x40)\n      tag_24\n      swap2\n      swap1\n      tag_12\n      jump\t// in\n    tag_24:\n      mload(0x40)\n      dup1\n      swap2\n      sub\n      swap1\n      return\n        /* \"monad dashboard/Subscription.sol\":125:168  mapping(address => uint) public subscribers */\n    tag_10:\n      mstore(0x20, 0x01)\n      dup1\n      0x00\n      mstore\n      keccak256(0x00, 0x40)\n      0x00\n      swap2\n      pop\n      swap1\n      pop\n      sload\n      dup2\n      jump\t// out\n        /* \"monad dashboard/Subscription.sol\":177:336  function subscribe() public payable {... */\n    tag_14:\n        /* \"monad dashboard/Subscription.sol\":245:248  fee */\n      sload(0x00)\n        /* \"monad dashboard/Subscription.sol\":232:241  msg.value */\n      callvalue\n        /* \"monad dashboard/Subscription.sol\":232:248  msg.value == fee */\n      eq\n        /* \"monad dashboard/Subscription.sol\":224:266  require(msg.value == fee, \"Incorrect fee\") */\n      tag_26\n      jumpi\n      mload(0x40)\n      0x08c379a000000000000000000000000000000000000000000000000000000000\n      dup2\n      mstore\n      0x04\n      add\n      tag_27\n      swap1\n      tag_28\n      jump\t// in\n    tag_27:\n      mload(0x40)\n      dup1\n      swap2\n      sub\n      swap1\n      revert\n    tag_26:\n        /* \"monad dashboard/Subscription.sol\":321:328  30 days */\n      0x278d00\n        /* \"monad dashboard/Subscription.sol\":303:318  block.timestamp */\n      timestamp\n        /* \"monad dashboard/Subscription.sol\":303:328  block.timestamp + 30 days */\n      tag_29\n      swap2\n      swap1\n      tag_30\n      jump\t// in\n    tag_29:\n        /* \"monad dashboard/Subscription.sol\":277:288  subscribers */\n      0x01\n        /* \"monad dashboard/Subscription.sol\":277:300  subscribers[msg.sender] */\n      0x00\n        /* \"monad dashboard/Subscription.sol\":289:299  msg.sender */\n      caller\n        /* \"monad dashboard/Subscription.sol\":277:300  subscribers[msg.sender] */\n      0xffffffffffffffffffffffffffffffffffffffff\n      and\n      0xffffffffffffffffffffffffffffffffffffffff\n      and\n      dup2\n      mstore\n      0x20\n      add\n      swap1\n      dup2\n      mstore\n      0x20\n      add\n      0x00\n      keccak256\n        /* \"monad dashboard/Subscription.sol\":277:328  subscribers[msg.sender] = block.timestamp + 30 days */\n      dup2\n      swap1\n      sstore\n      pop\n        /* \"monad dashboard/Subscription.sol\":177:336  function subscribe() public payable {... */\n      jump\t// out\n        /* \"monad dashboard/Subscription.sol\":344:468  function isSubscribed(address user) public view returns (bool) {... */\n    tag_18:\n        /* \"monad dashboard/Subscription.sol\":401:405  bool */\n      0x00\n        /* \"monad dashboard/Subscription.sol\":443:454  subscribers */\n      0x01\n        /* \"monad dashboard/Subscription.sol\":443:460  subscribers[user] */\n      0x00\n        /* \"monad dashboard/Subscription.sol\":455:459  user */\n      dup4\n        /* \"monad dashboard/Subscription.sol\":443:460  subscribers[user] */\n      0xffffffffffffffffffffffffffffffffffffffff\n      and\n      0xffffffffffffffffffffffffffffffffffffffff\n      and\n      dup2\n      mstore\n      0x20\n      add\n      swap1\n      dup2\n      mstore\n      0x20\n      add\n      0x00\n      keccak256\n      sload\n        /* \"monad dashboard/Subscription.sol\":425:440  block.timestamp */\n      timestamp\n        /* \"monad dashboard/Subscription.sol\":425:460  block.timestamp < subscribers[user] */\n      lt\n        /* \"monad dashboard/Subscription.sol\":418:460  return block.timestamp < subscribers[user] */\n      swap1\n      pop\n        /* \"monad dashboard/Subscription.sol\":344:468  function isSubscribed(address user) public view returns (bool) {... */\n      swap2\n      swap1\n      pop\n      jump\t// out\n        /* \"monad dashboard/Subscription.sol\":90:118  uint public fee = 0.01 ether */\n    tag_23:\n      sload(0x00)\n      dup2\n      jump\t// out\n        /* \"#utility.yul\":88:205   */\n    tag_33:\n        /* \"#utility.yul\":197:198   */\n      0x00\n        /* \"#utility.yul\":194:195   */\n      dup1\n        /* \"#utility.yul\":187:199   */\n      revert\n        /* \"#utility.yul\":334:460   */\n    tag_35:\n        /* \"#utility.yul\":371:378   */\n      0x00\n        /* \"#utility.yul\":411:453   */\n      0xffffffffffffffffffffffffffffffffffffffff\n        /* \"#utility.yul\":404:409   */\n      dup3\n        /* \"#utility.yul\":400:454   */\n      and\n        /* \"#utility.yul\":389:454   */\n      swap1\n      pop\n        /* \"#utility.yul\":334:460   */\n      swap2\n      swap1\n      pop\n      jump\t// out\n        /* \"#utility.yul\":466:562   */\n    tag_36:\n        /* \"#utility.yul\":503:510   */\n      0x00\n        /* \"#utility.yul\":532:556   */\n      tag_53\n        /* \"#utility.yul\":550:555   */\n      dup3\n        /* \"#utility.yul\":532:556   */\n      tag_35\n      jump\t// in\n    tag_53:\n        /* \"#utility.yul\":521:556   */\n      swap1\n      pop\n        /* \"#utility.yul\":466:562   */\n      swap2\n      swap1\n      pop\n      jump\t// out\n        /* \"#utility.yul\":568:690   */\n    tag_37:\n        /* \"#utility.yul\":641:665   */\n      tag_55\n        /* \"#utility.yul\":659:664   */\n      dup2\n        /* \"#utility.yul\":641:665   */\n      tag_36\n      jump\t// in\n    tag_55:\n        /* \"#utility.yul\":634:639   */\n      dup2\n        /* \"#utility.yul\":631:666   */\n      eq\n        /* \"#utility.yul\":621:684   */\n      tag_56\n      jumpi\n        /* \"#utility.yul\":680:681   */\n      0x00\n        /* \"#utility.yul\":677:678   */\n      dup1\n        /* \"#utility.yul\":670:682   */\n      revert\n        /* \"#utility.yul\":621:684   */\n    tag_56:\n        /* \"#utility.yul\":568:690   */\n      pop\n      jump\t// out\n        /* \"#utility.yul\":696:835   */\n    tag_38:\n        /* \"#utility.yul\":742:747   */\n      0x00\n        /* \"#utility.yul\":780:786   */\n      dup2\n        /* \"#utility.yul\":767:787   */\n      calldataload\n        /* \"#utility.yul\":758:787   */\n      swap1\n      pop\n        /* \"#utility.yul\":796:829   */\n      tag_58\n        /* \"#utility.yul\":823:828   */\n      dup2\n        /* \"#utility.yul\":796:829   */\n      tag_37\n      jump\t// in\n    tag_58:\n        /* \"#utility.yul\":696:835   */\n      swap3\n      swap2\n      pop\n      pop\n      jump\t// out\n        /* \"#utility.yul\":841:1170   */\n    tag_9:\n        /* \"#utility.yul\":900:906   */\n      0x00\n        /* \"#utility.yul\":949:951   */\n      0x20\n        /* \"#utility.yul\":937:946   */\n      dup3\n        /* \"#utility.yul\":928:935   */\n      dup5\n        /* \"#utility.yul\":924:947   */\n      sub\n        /* \"#utility.yul\":920:952   */\n      slt\n        /* \"#utility.yul\":917:1036   */\n      iszero\n      tag_60\n      jumpi\n        /* \"#utility.yul\":955:1034   */\n      tag_61\n      tag_33\n      jump\t// in\n    tag_61:\n        /* \"#utility.yul\":917:1036   */\n    tag_60:\n        /* \"#utility.yul\":1075:1076   */\n      0x00\n        /* \"#utility.yul\":1100:1153   */\n      tag_62\n        /* \"#utility.yul\":1145:1152   */\n      dup5\n        /* \"#utility.yul\":1136:1142   */\n      dup3\n        /* \"#utility.yul\":1125:1134   */\n      dup6\n        /* \"#utility.yul\":1121:1143   */\n      add\n        /* \"#utility.yul\":1100:1153   */\n      tag_38\n      jump\t// in\n    tag_62:\n        /* \"#utility.yul\":1090:1153   */\n      swap2\n      pop\n        /* \"#utility.yul\":1046:1163   */\n      pop\n        /* \"#utility.yul\":841:1170   */\n      swap3\n      swap2\n      pop\n      pop\n      jump\t// out\n        /* \"#utility.yul\":1176:1253   */\n    tag_39:\n        /* \"#utility.yul\":1213:1220   */\n      0x00\n        /* \"#utility.yul\":1242:1247   */\n      dup2\n        /* \"#utility.yul\":1231:1247   */\n      swap1\n      pop\n        /* \"#utility.yul\":1176:1253   */\n      swap2\n      swap1\n      pop\n      jump\t// out\n        /* \"#utility.yul\":1259:1377   */\n    tag_40:\n        /* \"#utility.yul\":1346:1370   */\n      tag_65\n        /* \"#utility.yul\":1364:1369   */\n      dup2\n        /* \"#utility.yul\":1346:1370   */\n      tag_39\n      jump\t// in\n    tag_65:\n        /* \"#utility.yul\":1341:1344   */\n      dup3\n        /* \"#utility.yul\":1334:1371   */\n      mstore\n        /* \"#utility.yul\":1259:1377   */\n      pop\n      pop\n      jump\t// out\n        /* \"#utility.yul\":1383:1605   */\n    tag_12:\n        /* \"#utility.yul\":1476:1480   */\n      0x00\n        /* \"#utility.yul\":1514:1516   */\n      0x20\n        /* \"#utility.yul\":1503:1512   */\n      dup3\n        /* \"#utility.yul\":1499:1517   */\n      add\n        /* \"#utility.yul\":1491:1517   */\n      swap1\n      pop\n        /* \"#utility.yul\":1527:1598   */\n      tag_67\n        /* \"#utility.yul\":1595:1596   */\n      0x00\n        /* \"#utility.yul\":1584:1593   */\n      dup4\n        /* \"#utility.yul\":1580:1597   */\n      add\n        /* \"#utility.yul\":1571:1577   */\n      dup5\n        /* \"#utility.yul\":1527:1598   */\n      tag_40\n      jump\t// in\n    tag_67:\n        /* \"#utility.yul\":1383:1605   */\n      swap3\n      swap2\n      pop\n      pop\n      jump\t// out\n        /* \"#utility.yul\":1611:1701   */\n    tag_41:\n        /* \"#utility.yul\":1645:1652   */\n      0x00\n        /* \"#utility.yul\":1688:1693   */\n      dup2\n        /* \"#utility.yul\":1681:1694   */\n      iszero\n        /* \"#utility.yul\":1674:1695   */\n      iszero\n        /* \"#utility.yul\":1663:1695   */\n      swap1\n      pop\n        /* \"#utility.yul\":1611:1701   */\n      swap2\n      swap1\n      pop\n      jump\t// out\n        /* \"#utility.yul\":1707:1816   */\n    tag_42:\n        /* \"#utility.yul\":1788:1809   */\n      tag_70\n        /* \"#utility.yul\":1803:1808   */\n      dup2\n        /* \"#utility.yul\":1788:1809   */\n      tag_41\n      jump\t// in\n    tag_70:\n        /* \"#utility.yul\":1783:1786   */\n      dup3\n        /* \"#utility.yul\":1776:1810   */\n      mstore\n        /* \"#utility.yul\":1707:1816   */\n      pop\n      pop\n      jump\t// out\n        /* \"#utility.yul\":1822:2032   */\n    tag_20:\n        /* \"#utility.yul\":1909:1913   */\n      0x00\n        /* \"#utility.yul\":1947:1949   */\n      0x20\n        /* \"#utility.yul\":1936:1945   */\n      dup3\n        /* \"#utility.yul\":1932:1950   */\n      add\n        /* \"#utility.yul\":1924:1950   */\n      swap1\n      pop\n        /* \"#utility.yul\":1960:2025   */\n      tag_72\n        /* \"#utility.yul\":2022:2023   */\n      0x00\n        /* \"#utility.yul\":2011:2020   */\n      dup4\n        /* \"#utility.yul\":2007:2024   */\n      add\n        /* \"#utility.yul\":1998:2004   */\n      dup5\n        /* \"#utility.yul\":1960:2025   */\n      tag_42\n      jump\t// in\n    tag_72:\n        /* \"#utility.yul\":1822:2032   */\n      swap3\n      swap2\n      pop\n      pop\n      jump\t// out\n        /* \"#utility.yul\":2038:2207   */\n    tag_43:\n        /* \"#utility.yul\":2122:2133   */\n      0x00\n        /* \"#utility.yul\":2156:2162   */\n      dup3\n        /* \"#utility.yul\":2151:2154   */\n      dup3\n        /* \"#utility.yul\":2144:2163   */\n      mstore\n        /* \"#utility.yul\":2196:2200   */\n      0x20\n        /* \"#utility.yul\":2191:2194   */\n      dup3\n        /* \"#utility.yul\":2187:2201   */\n      add\n        /* \"#utility.yul\":2172:2201   */\n      swap1\n      pop\n        /* \"#utility.yul\":2038:2207   */\n      swap3\n      swap2\n      pop\n      pop\n      jump\t// out\n        /* \"#utility.yul\":2213:2376   */\n    tag_44:\n        /* \"#utility.yul\":2353:2368   */\n      0x496e636f72726563742066656500000000000000000000000000000000000000\n        /* \"#utility.yul\":2349:2350   */\n      0x00\n        /* \"#utility.yul\":2341:2347   */\n      dup3\n        /* \"#utility.yul\":2337:2351   */\n      add\n        /* \"#utility.yul\":2330:2369   */\n      mstore\n        /* \"#utility.yul\":2213:2376   */\n      pop\n      jump\t// out\n        /* \"#utility.yul\":2382:2748   */\n    tag_45:\n        /* \"#utility.yul\":2524:2527   */\n      0x00\n        /* \"#utility.yul\":2545:2612   */\n      tag_76\n        /* \"#utility.yul\":2609:2611   */\n      0x0d\n        /* \"#utility.yul\":2604:2607   */\n      dup4\n        /* \"#utility.yul\":2545:2612   */\n      tag_43\n      jump\t// in\n    tag_76:\n        /* \"#utility.yul\":2538:2612   */\n      swap2\n      pop\n        /* \"#utility.yul\":2621:2714   */\n      tag_77\n        /* \"#utility.yul\":2710:2713   */\n      dup3\n        /* \"#utility.yul\":2621:2714   */\n      tag_44\n      jump\t// in\n    tag_77:\n        /* \"#utility.yul\":2739:2741   */\n      0x20\n        /* \"#utility.yul\":2734:2737   */\n      dup3\n        /* \"#utility.yul\":2730:2742   */\n      add\n        /* \"#utility.yul\":2723:2742   */\n      swap1\n      pop\n        /* \"#utility.yul\":2382:2748   */\n      swap2\n      swap1\n      pop\n      jump\t// out\n        /* \"#utility.yul\":2754:3173   */\n    tag_28:\n        /* \"#utility.yul\":2920:2924   */\n      0x00\n        /* \"#utility.yul\":2958:2960   */\n      0x20\n        /* \"#utility.yul\":2947:2956   */\n      dup3\n        /* \"#utility.yul\":2943:2961   */\n      add\n        /* \"#utility.yul\":2935:2961   */\n      swap1\n      pop\n        /* \"#utility.yul\":3007:3016   */\n      dup2\n        /* \"#utility.yul\":3001:3005   */\n      dup2\n        /* \"#utility.yul\":2997:3017   */\n      sub\n        /* \"#utility.yul\":2993:2994   */\n      0x00\n        /* \"#utility.yul\":2982:2991   */\n      dup4\n        /* \"#utility.yul\":2978:2995   */\n      add\n        /* \"#utility.yul\":2971:3018   */\n      mstore\n        /* \"#utility.yul\":3035:3166   */\n      tag_79\n        /* \"#utility.yul\":3161:3165   */\n      dup2\n        /* \"#utility.yul\":3035:3166   */\n      tag_45\n      jump\t// in\n    tag_79:\n        /* \"#utility.yul\":3027:3166   */\n      swap1\n      pop\n        /* \"#utility.yul\":2754:3173   */\n      swap2\n      swap1\n      pop\n      jump\t// out\n        /* \"#utility.yul\":3179:3359   */\n    tag_46:\n        /* \"#utility.yul\":3227:3304   */\n      0x4e487b7100000000000000000000000000000000000000000000000000000000\n        /* \"#utility.yul\":3224:3225   */\n      0x00\n        /* \"#utility.yul\":3217:3305   */\n      mstore\n        /* \"#utility.yul\":3324:3328   */\n      0x11\n        /* \"#utility.yul\":3321:3322   */\n      0x04\n        /* \"#utility.yul\":3314:3329   */\n      mstore\n        /* \"#utility.yul\":3348:3352   */\n      0x24\n        /* \"#utility.yul\":3345:3346   */\n      0x00\n        /* \"#utility.yul\":3338:3353   */\n      revert\n        /* \"#utility.yul\":3365:3556   */\n    tag_30:\n        /* \"#utility.yul\":3405:3408   */\n      0x00\n        /* \"#utility.yul\":3424:3444   */\n      tag_82\n        /* \"#utility.yul\":3442:3443   */\n      dup3\n        /* \"#utility.yul\":3424:3444   */\n      tag_39\n      jump\t// in\n    tag_82:\n        /* \"#utility.yul\":3419:3444   */\n      swap2\n      pop\n        /* \"#utility.yul\":3458:3478   */\n      tag_83\n        /* \"#utility.yul\":3476:3477   */\n      dup4\n        /* \"#utility.yul\":3458:3478   */\n      tag_39\n      jump\t// in\n    tag_83:\n        /* \"#utility.yul\":3453:3478   */\n      swap3\n      pop\n        /* \"#utility.yul\":3501:3502   */\n      dup3\n        /* \"#utility.yul\":3498:3499   */\n      dup3\n        /* \"#utility.yul\":3494:3503   */\n      add\n        /* \"#utility.yul\":3487:3503   */\n      swap1\n      pop\n        /* \"#utility.yul\":3522:3525   */\n      dup1\n        /* \"#utility.yul\":3519:3520   */\n      dup3\n        /* \"#utility.yul\":3516:3526   */\n      gt\n        /* \"#utility.yul\":3513:3549   */\n      iszero\n      tag_84\n      jumpi\n        /* \"#utility.yul\":3529:3547   */\n      tag_85\n      tag_46\n      jump\t// in\n    tag_85:\n        /* \"#utility.yul\":3513:3549   */\n    tag_84:\n        /* \"#utility.yul\":3365:3556   */\n      swap3\n      swap2\n      pop\n      pop\n      jump\t// out\n\n    auxdata: 0xa26469706673582212204d80100285c9440f923dd4ac5029b4949d16630a820e3e083b1d7d742007eb8364736f6c63430008170033\n}\n",
				"bytecode": {
					"linkReferences": {},
					"object": "6080604052662386f26fc100005f55348015610019575f80fd5b506103e0806100275f395ff3fe60806040526004361061003e575f3560e01c80635745ae28146100425780638f449a051461007e578063b92ae87c14610088578063ddca3f43146100c4575b5f80fd5b34801561004d575f80fd5b5061006860048036038101906100639190610243565b6100ee565b6040516100759190610286565b60405180910390f35b610086610103565b005b348015610093575f80fd5b506100ae60048036038101906100a99190610243565b610198565b6040516100bb91906102b9565b60405180910390f35b3480156100cf575f80fd5b506100d86101e0565b6040516100e59190610286565b60405180910390f35b6001602052805f5260405f205f915090505481565b5f543414610146576040517f08c379a000000000000000000000000000000000000000000000000000000000815260040161013d9061032c565b60405180910390fd5b62278d00426101559190610377565b60015f3373ffffffffffffffffffffffffffffffffffffffff1673ffffffffffffffffffffffffffffffffffffffff1681526020019081526020015f2081905550565b5f60015f8373ffffffffffffffffffffffffffffffffffffffff1673ffffffffffffffffffffffffffffffffffffffff1681526020019081526020015f205442109050919050565b5f5481565b5f80fd5b5f73ffffffffffffffffffffffffffffffffffffffff82169050919050565b5f610212826101e9565b9050919050565b61022281610208565b811461022c575f80fd5b50565b5f8135905061023d81610219565b92915050565b5f60208284031215610258576102576101e5565b5b5f6102658482850161022f565b91505092915050565b5f819050919050565b6102808161026e565b82525050565b5f6020820190506102995f830184610277565b92915050565b5f8115159050919050565b6102b38161029f565b82525050565b5f6020820190506102cc5f8301846102aa565b92915050565b5f82825260208201905092915050565b7f496e636f727265637420666565000000000000000000000000000000000000005f82015250565b5f610316600d836102d2565b9150610321826102e2565b602082019050919050565b5f6020820190508181035f8301526103438161030a565b9050919050565b7f4e487b71000000000000000000000000000000000000000000000000000000005f52601160045260245ffd5b5f6103818261026e565b915061038c8361026e565b92508282019050808211156103a4576103a361034a565b5b9291505056fea26469706673582212204d80100285c9440f923dd4ac5029b4949d16630a820e3e083b1d7d742007eb8364736f6c63430008170033",
					"opcodes": "PUSH1 0x80 PUSH1 0x40 MSTORE PUSH7 0x2386F26FC10000 PUSH0 SSTORE CALLVALUE DUP1 ISZERO PUSH2 0x19 JUMPI PUSH0 DUP1 REVERT JUMPDEST POP PUSH2 0x3E0 DUP1 PUSH2 0x27 PUSH0 CODECOPY PUSH0 RETURN INVALID PUSH1 0x80 PUSH1 0x40 MSTORE PUSH1 0x4 CALLDATASIZE LT PUSH2 0x3E JUMPI PUSH0 CALLDATALOAD PUSH1 0xE0 SHR DUP1 PUSH4 0x5745AE28 EQ PUSH2 0x42 JUMPI DUP1 PUSH4 0x8F449A05 EQ PUSH2 0x7E JUMPI DUP1 PUSH4 0xB92AE87C EQ PUSH2 0x88 JUMPI DUP1 PUSH4 0xDDCA3F43 EQ PUSH2 0xC4 JUMPI JUMPDEST PUSH0 DUP1 REVERT JUMPDEST CALLVALUE DUP1 ISZERO PUSH2 0x4D JUMPI PUSH0 DUP1 REVERT JUMPDEST POP PUSH2 0x68 PUSH1 0x4 DUP1 CALLDATASIZE SUB DUP2 ADD SWAP1 PUSH2 0x63 SWAP2 SWAP1 PUSH2 0x243 JUMP JUMPDEST PUSH2 0xEE JUMP JUMPDEST PUSH1 0x40 MLOAD PUSH2 0x75 SWAP2 SWAP1 PUSH2 0x286 JUMP JUMPDEST PUSH1 0x40 MLOAD DUP1 SWAP2 SUB SWAP1 RETURN JUMPDEST PUSH2 0x86 PUSH2 0x103 JUMP JUMPDEST STOP JUMPDEST CALLVALUE DUP1 ISZERO PUSH2 0x93 JUMPI PUSH0 DUP1 REVERT JUMPDEST POP PUSH2 0xAE PUSH1 0x4 DUP1 CALLDATASIZE SUB DUP2 ADD SWAP1 PUSH2 0xA9 SWAP2 SWAP1 PUSH2 0x243 JUMP JUMPDEST PUSH2 0x198 JUMP JUMPDEST PUSH1 0x40 MLOAD PUSH2 0xBB SWAP2 SWAP1 PUSH2 0x2B9 JUMP JUMPDEST PUSH1 0x40 MLOAD DUP1 SWAP2 SUB SWAP1 RETURN JUMPDEST CALLVALUE DUP1 ISZERO PUSH2 0xCF JUMPI PUSH0 DUP1 REVERT JUMPDEST POP PUSH2 0xD8 PUSH2 0x1E0 JUMP JUMPDEST PUSH1 0x40 MLOAD PUSH2 0xE5 SWAP2 SWAP1 PUSH2 0x286 JUMP JUMPDEST PUSH1 0x40 MLOAD DUP1 SWAP2 SUB SWAP1 RETURN JUMPDEST PUSH1 0x1 PUSH1 0x20 MSTORE DUP1 PUSH0 MSTORE PUSH1 0x40 PUSH0 KECCAK256 PUSH0 SWAP2 POP SWAP1 POP SLOAD DUP2 JUMP JUMPDEST PUSH0 SLOAD CALLVALUE EQ PUSH2 0x146 JUMPI PUSH1 0x40 MLOAD PUSH32 0x8C379A000000000000000000000000000000000000000000000000000000000 DUP2 MSTORE PUSH1 0x4 ADD PUSH2 0x13D SWAP1 PUSH2 0x32C JUMP JUMPDEST PUSH1 0x40 MLOAD DUP1 SWAP2 SUB SWAP1 REVERT JUMPDEST PUSH3 0x278D00 TIMESTAMP PUSH2 0x155 SWAP2 SWAP1 PUSH2 0x377 JUMP JUMPDEST PUSH1 0x1 PUSH0 CALLER PUSH20 0xFFFFFFFFFFFFFFFFFFFFFFFFFFFFFFFFFFFFFFFF AND PUSH20 0xFFFFFFFFFFFFFFFFFFFFFFFFFFFFFFFFFFFFFFFF AND DUP2 MSTORE PUSH1 0x20 ADD SWAP1 DUP2 MSTORE PUSH1 0x20 ADD PUSH0 KECCAK256 DUP2 SWAP1 SSTORE POP JUMP JUMPDEST PUSH0 PUSH1 0x1 PUSH0 DUP4 PUSH20 0xFFFFFFFFFFFFFFFFFFFFFFFFFFFFFFFFFFFFFFFF AND PUSH20 0xFFFFFFFFFFFFFFFFFFFFFFFFFFFFFFFFFFFFFFFF AND DUP2 MSTORE PUSH1 0x20 ADD SWAP1 DUP2 MSTORE PUSH1 0x20 ADD PUSH0 KECCAK256 SLOAD TIMESTAMP LT SWAP1 POP SWAP2 SWAP1 POP JUMP JUMPDEST PUSH0 SLOAD DUP2 JUMP JUMPDEST PUSH0 DUP1 REVERT JUMPDEST PUSH0 PUSH20 0xFFFFFFFFFFFFFFFFFFFFFFFFFFFFFFFFFFFFFFFF DUP3 AND SWAP1 POP SWAP2 SWAP1 POP JUMP JUMPDEST PUSH0 PUSH2 0x212 DUP3 PUSH2 0x1E9 JUMP JUMPDEST SWAP1 POP SWAP2 SWAP1 POP JUMP JUMPDEST PUSH2 0x222 DUP2 PUSH2 0x208 JUMP JUMPDEST DUP2 EQ PUSH2 0x22C JUMPI PUSH0 DUP1 REVERT JUMPDEST POP JUMP JUMPDEST PUSH0 DUP2 CALLDATALOAD SWAP1 POP PUSH2 0x23D DUP2 PUSH2 0x219 JUMP JUMPDEST SWAP3 SWAP2 POP POP JUMP JUMPDEST PUSH0 PUSH1 0x20 DUP3 DUP5 SUB SLT ISZERO PUSH2 0x258 JUMPI PUSH2 0x257 PUSH2 0x1E5 JUMP JUMPDEST JUMPDEST PUSH0 PUSH2 0x265 DUP5 DUP3 DUP6 ADD PUSH2 0x22F JUMP JUMPDEST SWAP2 POP POP SWAP3 SWAP2 POP POP JUMP JUMPDEST PUSH0 DUP2 SWAP1 POP SWAP2 SWAP1 POP JUMP JUMPDEST PUSH2 0x280 DUP2 PUSH2 0x26E JUMP JUMPDEST DUP3 MSTORE POP POP JUMP JUMPDEST PUSH0 PUSH1 0x20 DUP3 ADD SWAP1 POP PUSH2 0x299 PUSH0 DUP4 ADD DUP5 PUSH2 0x277 JUMP JUMPDEST SWAP3 SWAP2 POP POP JUMP JUMPDEST PUSH0 DUP2 ISZERO ISZERO SWAP1 POP SWAP2 SWAP1 POP JUMP JUMPDEST PUSH2 0x2B3 DUP2 PUSH2 0x29F JUMP JUMPDEST DUP3 MSTORE POP POP JUMP JUMPDEST PUSH0 PUSH1 0x20 DUP3 ADD SWAP1 POP PUSH2 0x2CC PUSH0 DUP4 ADD DUP5 PUSH2 0x2AA JUMP JUMPDEST SWAP3 SWAP2 POP POP JUMP JUMPDEST PUSH0 DUP3 DUP3 MSTORE PUSH1 0x20 DUP3 ADD SWAP1 POP SWAP3 SWAP2 POP POP JUMP JUMPDEST PUSH32 0x496E636F72726563742066656500000000000000000000000000000000000000 PUSH0 DUP3 ADD MSTORE POP JUMP JUMPDEST PUSH0 PUSH2 0x316 PUSH1 0xD DUP4 PUSH2 0x2D2 JUMP JUMPDEST SWAP2 POP PUSH2 0x321 DUP3 PUSH2 0x2E2 JUMP JUMPDEST PUSH1 0x20 DUP3 ADD SWAP1 POP SWAP2 SWAP1 POP JUMP JUMPDEST PUSH0 PUSH1 0x20 DUP3 ADD SWAP1 POP DUP2 DUP2 SUB PUSH0 DUP4 ADD MSTORE PUSH2 0x343 DUP2 PUSH2 0x30A JUMP JUMPDEST SWAP1 POP SWAP2 SWAP1 POP JUMP JUMPDEST PUSH32 0x4E487B7100000000000000000000000000000000000000000000000000000000 PUSH0 MSTORE PUSH1 0x11 PUSH1 0x4 MSTORE PUSH1 0x24 PUSH0 REVERT JUMPDEST PUSH0 PUSH2 0x381 DUP3 PUSH2 0x26E JUMP JUMPDEST SWAP2 POP PUSH2 0x38C DUP4 PUSH2 0x26E JUMP JUMPDEST SWAP3 POP DUP3 DUP3 ADD SWAP1 POP DUP1 DUP3 GT ISZERO PUSH2 0x3A4 JUMPI PUSH2 0x3A3 PUSH2 0x34A JUMP JUMPDEST JUMPDEST SWAP3 SWAP2 POP POP JUMP INVALID LOG2 PUSH5 0x6970667358 0x22 SLT KECCAK256 0x4D DUP1 LT MUL DUP6 0xC9 PREVRANDAO 0xF SWAP3 RETURNDATASIZE 0xD4 0xAC POP 0x29 0xB4 SWAP5 SWAP14 AND PUSH4 0xA820E3E ADDMOD EXTCODESIZE SAR PUSH30 0x742007EB8364736F6C634300081700330000000000000000000000000000 "
				},
				"gasEstimates": {
					"creation": {
						"codeDepositCost": "198400",
						"executionCost": "22341",
						"totalCost": "220741"
					},
					"external": {
						"fee()": "2468",
						"isSubscribed(address)": "2862",
						"subscribe()": "infinite",
						"subscribers(address)": "2780"
					}
				},
				"methodIdentifiers": {
					"fee()": "ddca3f43",
					"isSubscribed(address)": "b92ae87c",
					"subscribe()": "8f449a05",
					"subscribers(address)": "5745ae28"
				}
			},
			"storageLayout": {
				"storage": [
					{
						"astId": 4,
						"contract": "monad dashboard/Subscription.sol:Subscription",
						"label": "fee",
						"offset": 0,
						"slot": "0",
						"type": "t_uint256"
					},
					{
						"astId": 8,
						"contract": "monad dashboard/Subscription.sol:Subscription",
						"label": "subscribers",
						"offset": 0,
						"slot": "1",
						"type": "t_mapping(t_address,t_uint256)"
					}
				],
				"types": {
					"t_address": {
						"encoding": "inplace",
						"label": "address",
						"numberOfBytes": "20"
					},
					"t_mapping(t_address,t_uint256)": {
						"encoding": "mapping",
						"key": "t_address",
						"label": "mapping(address => uint256)",
						"numberOfBytes": "32",
						"value": "t_uint256"
					},
					"t_uint256": {
						"encoding": "inplace",
						"label": "uint256",
						"numberOfBytes": "32"
					}
				}
			},
			"userdoc": {
				"kind": "user",
				"methods": {},
				"version": 1
			}
		}
	}
}