{
	"monad dashboard/MiniMarketplace.sol": {
		"MiniMarketplace": {
			"abi": [
				{
					"inputs": [
						{
							"internalType": "uint256",
							"name": "_id",
							"type": "uint256"
						}
					],
					"name": "buyItem",
					"outputs": [],
					"stateMutability": "payable",
					"type": "function"
				},
				{
					"inputs": [
						{
							"internalType": "uint256",
							"name": "",
							"type": "uint256"
						}
					],
					"name": "items",
					"outputs": [
						{
							"internalType": "uint256",
							"name": "id",
							"type": "uint256"
						},
						{
							"internalType": "string",
							"name": "name",
							"type": "string"
						},
						{
							"internalType": "uint256",
							"name": "price",
							"type": "uint256"
						},
						{
							"internalType": "address",
							"name": "seller",
							"type": "address"
						},
						{
							"internalType": "bool",
							"name": "sold",
							"type": "bool"
						}
					],
					"stateMutability": "view",
					"type": "function"
				},
				{
					"inputs": [
						{
							"internalType": "string",
							"name": "_name",
							"type": "string"
						},
						{
							"internalType": "uint256",
							"name": "_price",
							"type": "uint256"
						}
					],
					"name": "listItem",
					"outputs": [],
					"stateMutability": "nonpayable",
					"type": "function"
				},
				{
					"inputs": [],
					"name": "nextId",
					"outputs": [
						{
							"internalType": "uint256",
							"name": "",
							"type": "uint256"
						}
					],
					"stateMutability": "view",
					"type": "function"
				}
			],
			"devdoc": {
				"kind": "dev",
				"methods": {},
				"version": 1
			},
			"evm": {
				"assembly": "    /* \"monad dashboard/MiniMarketplace.sol\":61:739  contract MiniMarketplace {... */\n  mstore(0x40, 0x80)\n  callvalue\n  dup1\n  iszero\n  tag_1\n  jumpi\n  0x00\n  dup1\n  revert\ntag_1:\n  pop\n  dataSize(sub_0)\n  dup1\n  dataOffset(sub_0)\n  0x00\n  codecopy\n  0x00\n  return\nstop\n\nsub_0: assembly {\n        /* \"monad dashboard/MiniMarketplace.sol\":61:739  contract MiniMarketplace {... */\n      mstore(0x40, 0x80)\n      jumpi(tag_1, lt(calldatasize, 0x04))\n      shr(0xe0, calldataload(0x00))\n      dup1\n      0x61b8ce8c\n      eq\n      tag_2\n      jumpi\n      dup1\n      0x8511c937\n      eq\n      tag_3\n      jumpi\n      dup1\n      0xbfb231d2\n      eq\n      tag_4\n      jumpi\n      dup1\n      0xe7fb74c7\n      eq\n      tag_5\n      jumpi\n    tag_1:\n      0x00\n      dup1\n      revert\n        /* \"monad dashboard/MiniMarketplace.sol\":227:245  uint public nextId */\n    tag_2:\n      callvalue\n      dup1\n      iszero\n      tag_6\n      jumpi\n      0x00\n      dup1\n      revert\n    tag_6:\n      pop\n      tag_7\n      tag_8\n      jump\t// in\n    tag_7:\n      mload(0x40)\n      tag_9\n      swap2\n      swap1\n      tag_10\n      jump\t// in\n    tag_9:\n      mload(0x40)\n      dup1\n      swap2\n      sub\n      swap1\n      return\n        /* \"monad dashboard/MiniMarketplace.sol\":295:454  function listItem(string memory _name, uint _price) public {... */\n    tag_3:\n      callvalue\n      dup1\n      iszero\n      tag_11\n      jumpi\n      0x00\n      dup1\n      revert\n    tag_11:\n      pop\n      tag_12\n      0x04\n      dup1\n      calldatasize\n      sub\n      dup2\n      add\n      swap1\n      tag_13\n      swap2\n      swap1\n      tag_14\n      jump\t// in\n    tag_13:\n      tag_15\n      jump\t// in\n    tag_12:\n      stop\n        /* \"monad dashboard/MiniMarketplace.sol\":252:286  mapping(uint => Item) public items */\n    tag_4:\n      callvalue\n      dup1\n      iszero\n      tag_16\n      jumpi\n      0x00\n      dup1\n      revert\n    tag_16:\n      pop\n      tag_17\n      0x04\n      dup1\n      calldatasize\n      sub\n      dup2\n      add\n      swap1\n      tag_18\n      swap2\n      swap1\n      tag_19\n      jump\t// in\n    tag_18:\n      tag_20\n      jump\t// in\n    tag_17:\n      mload(0x40)\n      tag_21\n      swap6\n      swap5\n      swap4\n      swap3\n      swap2\n      swap1\n      tag_22\n      jump\t// in\n    tag_21:\n      mload(0x40)\n      dup1\n      swap2\n      sub\n      swap1\n      return\n        /* \"monad dashboard/MiniMarketplace.sol\":462:736  function buyItem(uint _id) public payable {... */\n    tag_5:\n      tag_23\n      0x04\n      dup1\n      calldatasize\n      sub\n      dup2\n      add\n      swap1\n      tag_24\n      swap2\n      swap1\n      tag_19\n      jump\t// in\n    tag_24:\n      tag_25\n      jump\t// in\n    tag_23:\n      stop\n        /* \"monad dashboard/MiniMarketplace.sol\":227:245  uint public nextId */\n    tag_8:\n      sload(0x00)\n      dup2\n      jump\t// out\n        /* \"monad dashboard/MiniMarketplace.sol\":295:454  function listItem(string memory _name, uint _price) public {... */\n    tag_15:\n        /* \"monad dashboard/MiniMarketplace.sol\":381:427  Item(nextId, _name, _price, msg.sender, false) */\n      mload(0x40)\n      dup1\n      0xa0\n      add\n      0x40\n      mstore\n      dup1\n        /* \"monad dashboard/MiniMarketplace.sol\":386:392  nextId */\n      sload(0x00)\n        /* \"monad dashboard/MiniMarketplace.sol\":381:427  Item(nextId, _name, _price, msg.sender, false) */\n      dup2\n      mstore\n      0x20\n      add\n        /* \"monad dashboard/MiniMarketplace.sol\":394:399  _name */\n      dup4\n        /* \"monad dashboard/MiniMarketplace.sol\":381:427  Item(nextId, _name, _price, msg.sender, false) */\n      dup2\n      mstore\n      0x20\n      add\n        /* \"monad dashboard/MiniMarketplace.sol\":401:407  _price */\n      dup3\n        /* \"monad dashboard/MiniMarketplace.sol\":381:427  Item(nextId, _name, _price, msg.sender, false) */\n      dup2\n      mstore\n      0x20\n      add\n        /* \"monad dashboard/MiniMarketplace.sol\":409:419  msg.sender */\n      caller\n        /* \"monad dashboard/MiniMarketplace.sol\":381:427  Item(nextId, _name, _price, msg.sender, false) */\n      0xffffffffffffffffffffffffffffffffffffffff\n      and\n      dup2\n      mstore\n      0x20\n      add\n        /* \"monad dashboard/MiniMarketplace.sol\":421:426  false */\n      0x00\n        /* \"monad dashboard/MiniMarketplace.sol\":381:427  Item(nextId, _name, _price, msg.sender, false) */\n      iszero\n      iszero\n      dup2\n      mstore\n      pop\n        /* \"monad dashboard/MiniMarketplace.sol\":365:370  items */\n      0x01\n        /* \"monad dashboard/MiniMarketplace.sol\":365:378  items[nextId] */\n      0x00\n        /* \"monad dashboard/MiniMarketplace.sol\":371:377  nextId */\n      dup1\n      sload\n        /* \"monad dashboard/MiniMarketplace.sol\":365:378  items[nextId] */\n      dup2\n      mstore\n      0x20\n      add\n      swap1\n      dup2\n      mstore\n      0x20\n      add\n      0x00\n      keccak256\n        /* \"monad dashboard/MiniMarketplace.sol\":365:427  items[nextId] = Item(nextId, _name, _price, msg.sender, false) */\n      0x00\n      dup3\n      add\n      mload\n      dup2\n      0x00\n      add\n      sstore\n      0x20\n      dup3\n      add\n      mload\n      dup2\n      0x01\n      add\n      swap1\n      dup2\n      tag_27\n      swap2\n      swap1\n      tag_28\n      jump\t// in\n    tag_27:\n      pop\n      0x40\n      dup3\n      add\n      mload\n      dup2\n      0x02\n      add\n      sstore\n      0x60\n      dup3\n      add\n      mload\n      dup2\n      0x03\n      add\n      exp(0x0100, 0x00)\n      dup2\n      sload\n      dup2\n      0xffffffffffffffffffffffffffffffffffffffff\n      mul\n      not\n      and\n      swap1\n      dup4\n      0xffffffffffffffffffffffffffffffffffffffff\n      and\n      mul\n      or\n      swap1\n      sstore\n      pop\n      0x80\n      dup3\n      add\n      mload\n      dup2\n      0x03\n      add\n      exp(0x0100, 0x14)\n      dup2\n      sload\n      dup2\n      0xff\n      mul\n      not\n      and\n      swap1\n      dup4\n      iszero\n      iszero\n      mul\n      or\n      swap1\n      sstore\n      pop\n      swap1\n      pop\n      pop\n        /* \"monad dashboard/MiniMarketplace.sol\":438:444  nextId */\n      0x00\n      dup1\n        /* \"monad dashboard/MiniMarketplace.sol\":438:446  nextId++ */\n      dup2\n      sload\n      dup1\n      swap3\n      swap2\n      swap1\n      tag_29\n      swap1\n      tag_30\n      jump\t// in\n    tag_29:\n      swap2\n      swap1\n      pop\n      sstore\n      pop\n        /* \"monad dashboard/MiniMarketplace.sol\":295:454  function listItem(string memory _name, uint _price) public {... */\n      pop\n      pop\n      jump\t// out\n        /* \"monad dashboard/MiniMarketplace.sol\":252:286  mapping(uint => Item) public items */\n    tag_20:\n      mstore(0x20, 0x01)\n      dup1\n      0x00\n      mstore\n      keccak256(0x00, 0x40)\n      0x00\n      swap2\n      pop\n      swap1\n      pop\n      dup1\n      0x00\n      add\n      sload\n      swap1\n      dup1\n      0x01\n      add\n      dup1\n      sload\n      tag_31\n      swap1\n      tag_32\n      jump\t// in\n    tag_31:\n      dup1\n      0x1f\n      add\n      0x20\n      dup1\n      swap2\n      div\n      mul\n      0x20\n      add\n      mload(0x40)\n      swap1\n      dup2\n      add\n      0x40\n      mstore\n      dup1\n      swap3\n      swap2\n      swap1\n      dup2\n      dup2\n      mstore\n      0x20\n      add\n      dup3\n      dup1\n      sload\n      tag_33\n      swap1\n      tag_32\n      jump\t// in\n    tag_33:\n      dup1\n      iszero\n      tag_34\n      jumpi\n      dup1\n      0x1f\n      lt\n      tag_35\n      jumpi\n      0x0100\n      dup1\n      dup4\n      sload\n      div\n      mul\n      dup4\n      mstore\n      swap2\n      0x20\n      add\n      swap2\n      jump(tag_34)\n    tag_35:\n      dup3\n      add\n      swap2\n      swap1\n      0x00\n      mstore\n      keccak256(0x00, 0x20)\n      swap1\n    tag_36:\n      dup2\n      sload\n      dup2\n      mstore\n      swap1\n      0x01\n      add\n      swap1\n      0x20\n      add\n      dup1\n      dup4\n      gt\n      tag_36\n      jumpi\n      dup3\n      swap1\n      sub\n      0x1f\n      and\n      dup3\n      add\n      swap2\n    tag_34:\n      pop\n      pop\n      pop\n      pop\n      pop\n      swap1\n      dup1\n      0x02\n      add\n      sload\n      swap1\n      dup1\n      0x03\n      add\n      0x00\n      swap1\n      sload\n      swap1\n      0x0100\n      exp\n      swap1\n      div\n      0xffffffffffffffffffffffffffffffffffffffff\n      and\n      swap1\n      dup1\n      0x03\n      add\n      0x14\n      swap1\n      sload\n      swap1\n      0x0100\n      exp\n      swap1\n      div\n      0xff\n      and\n      swap1\n      pop\n      dup6\n      jump\t// out\n        /* \"monad dashboard/MiniMarketplace.sol\":462:736  function buyItem(uint _id) public payable {... */\n    tag_25:\n        /* \"monad dashboard/MiniMarketplace.sol\":515:532  Item storage item */\n      0x00\n        /* \"monad dashboard/MiniMarketplace.sol\":535:540  items */\n      0x01\n        /* \"monad dashboard/MiniMarketplace.sol\":535:545  items[_id] */\n      0x00\n        /* \"monad dashboard/MiniMarketplace.sol\":541:544  _id */\n      dup4\n        /* \"monad dashboard/MiniMarketplace.sol\":535:545  items[_id] */\n      dup2\n      mstore\n      0x20\n      add\n      swap1\n      dup2\n      mstore\n      0x20\n      add\n      0x00\n      keccak256\n        /* \"monad dashboard/MiniMarketplace.sol\":515:545  Item storage item = items[_id] */\n      swap1\n      pop\n        /* \"monad dashboard/MiniMarketplace.sol\":565:569  item */\n      dup1\n        /* \"monad dashboard/MiniMarketplace.sol\":565:574  item.sold */\n      0x03\n      add\n      0x14\n      swap1\n      sload\n      swap1\n      0x0100\n      exp\n      swap1\n      div\n      0xff\n      and\n        /* \"monad dashboard/MiniMarketplace.sol\":564:574  !item.sold */\n      iszero\n        /* \"monad dashboard/MiniMarketplace.sol\":556:591  require(!item.sold, \"Already sold\") */\n      tag_38\n      jumpi\n      mload(0x40)\n      0x08c379a000000000000000000000000000000000000000000000000000000000\n      dup2\n      mstore\n      0x04\n      add\n      tag_39\n      swap1\n      tag_40\n      jump\t// in\n    tag_39:\n      mload(0x40)\n      dup1\n      swap2\n      sub\n      swap1\n      revert\n    tag_38:\n        /* \"monad dashboard/MiniMarketplace.sol\":623:627  item */\n      dup1\n        /* \"monad dashboard/MiniMarketplace.sol\":623:633  item.price */\n      0x02\n      add\n      sload\n        /* \"monad dashboard/MiniMarketplace.sol\":610:619  msg.value */\n      callvalue\n        /* \"monad dashboard/MiniMarketplace.sol\":610:633  msg.value == item.price */\n      eq\n        /* \"monad dashboard/MiniMarketplace.sol\":602:650  require(msg.value == item.price, \"Wrong amount\") */\n      tag_41\n      jumpi\n      mload(0x40)\n      0x08c379a000000000000000000000000000000000000000000000000000000000\n      dup2\n      mstore\n      0x04\n      add\n      tag_42\n      swap1\n      tag_43\n      jump\t// in\n    tag_42:\n      mload(0x40)\n      dup1\n      swap2\n      sub\n      swap1\n      revert\n    tag_41:\n        /* \"monad dashboard/MiniMarketplace.sol\":673:677  true */\n      0x01\n        /* \"monad dashboard/MiniMarketplace.sol\":661:665  item */\n      dup2\n        /* \"monad dashboard/MiniMarketplace.sol\":661:670  item.sold */\n      0x03\n      add\n      0x14\n        /* \"monad dashboard/MiniMarketplace.sol\":661:677  item.sold = true */\n      0x0100\n      exp\n      dup2\n      sload\n      dup2\n      0xff\n      mul\n      not\n      and\n      swap1\n      dup4\n      iszero\n      iszero\n      mul\n      or\n      swap1\n      sstore\n      pop\n        /* \"monad dashboard/MiniMarketplace.sol\":696:700  item */\n      dup1\n        /* \"monad dashboard/MiniMarketplace.sol\":696:707  item.seller */\n      0x03\n      add\n      0x00\n      swap1\n      sload\n      swap1\n      0x0100\n      exp\n      swap1\n      div\n      0xffffffffffffffffffffffffffffffffffffffff\n      and\n        /* \"monad dashboard/MiniMarketplace.sol\":688:717  payable(item.seller).transfer */\n      0xffffffffffffffffffffffffffffffffffffffff\n      and\n        /* \"monad dashboard/MiniMarketplace.sol\":688:728  payable(item.seller).transfer(msg.value) */\n      0x08fc\n        /* \"monad dashboard/MiniMarketplace.sol\":718:727  msg.value */\n      callvalue\n        /* \"monad dashboard/MiniMarketplace.sol\":688:728  payable(item.seller).transfer(msg.value) */\n      swap1\n      dup2\n      iszero\n      mul\n      swap1\n      mload(0x40)\n      0x00\n      mload(0x40)\n      dup1\n      dup4\n      sub\n      dup2\n      dup6\n      dup9\n      dup9\n      call\n      swap4\n      pop\n      pop\n      pop\n      pop\n      iszero\n      dup1\n      iszero\n      tag_45\n      jumpi\n      returndatasize\n      0x00\n      dup1\n      returndatacopy\n      revert(0x00, returndatasize)\n    tag_45:\n      pop\n        /* \"monad dashboard/MiniMarketplace.sol\":504:736  {... */\n      pop\n        /* \"monad dashboard/MiniMarketplace.sol\":462:736  function buyItem(uint _id) public payable {... */\n      pop\n      jump\t// out\n        /* \"#utility.yul\":7:84   */\n    tag_46:\n        /* \"#utility.yul\":44:51   */\n      0x00\n        /* \"#utility.yul\":73:78   */\n      dup2\n        /* \"#utility.yul\":62:78   */\n      swap1\n      pop\n        /* \"#utility.yul\":7:84   */\n      swap2\n      swap1\n      pop\n      jump\t// out\n        /* \"#utility.yul\":90:208   */\n    tag_47:\n        /* \"#utility.yul\":177:201   */\n      tag_96\n        /* \"#utility.yul\":195:200   */\n      dup2\n        /* \"#utility.yul\":177:201   */\n      tag_46\n      jump\t// in\n    tag_96:\n        /* \"#utility.yul\":172:175   */\n      dup3\n        /* \"#utility.yul\":165:202   */\n      mstore\n        /* \"#utility.yul\":90:208   */\n      pop\n      pop\n      jump\t// out\n        /* \"#utility.yul\":214:436   */\n    tag_10:\n        /* \"#utility.yul\":307:311   */\n      0x00\n        /* \"#utility.yul\":345:347   */\n      0x20\n        /* \"#utility.yul\":334:343   */\n      dup3\n        /* \"#utility.yul\":330:348   */\n      add\n        /* \"#utility.yul\":322:348   */\n      swap1\n      pop\n        /* \"#utility.yul\":358:429   */\n      tag_98\n        /* \"#utility.yul\":426:427   */\n      0x00\n        /* \"#utility.yul\":415:424   */\n      dup4\n        /* \"#utility.yul\":411:428   */\n      add\n        /* \"#utility.yul\":402:408   */\n      dup5\n        /* \"#utility.yul\":358:429   */\n      tag_47\n      jump\t// in\n    tag_98:\n        /* \"#utility.yul\":214:436   */\n      swap3\n      swap2\n      pop\n      pop\n      jump\t// out\n        /* \"#utility.yul\":442:517   */\n    tag_48:\n        /* \"#utility.yul\":475:481   */\n      0x00\n        /* \"#utility.yul\":508:510   */\n      0x40\n        /* \"#utility.yul\":502:511   */\n      mload\n        /* \"#utility.yul\":492:511   */\n      swap1\n      pop\n        /* \"#utility.yul\":442:517   */\n      swap1\n      jump\t// out\n        /* \"#utility.yul\":523:640   */\n    tag_49:\n        /* \"#utility.yul\":632:633   */\n      0x00\n        /* \"#utility.yul\":629:630   */\n      dup1\n        /* \"#utility.yul\":622:634   */\n      revert\n        /* \"#utility.yul\":646:763   */\n    tag_50:\n        /* \"#utility.yul\":755:756   */\n      0x00\n        /* \"#utility.yul\":752:753   */\n      dup1\n        /* \"#utility.yul\":745:757   */\n      revert\n        /* \"#utility.yul\":769:886   */\n    tag_51:\n        /* \"#utility.yul\":878:879   */\n      0x00\n        /* \"#utility.yul\":875:876   */\n      dup1\n        /* \"#utility.yul\":868:880   */\n      revert\n        /* \"#utility.yul\":892:1009   */\n    tag_52:\n        /* \"#utility.yul\":1001:1002   */\n      0x00\n        /* \"#utility.yul\":998:999   */\n      dup1\n        /* \"#utility.yul\":991:1003   */\n      revert\n        /* \"#utility.yul\":1015:1117   */\n    tag_53:\n        /* \"#utility.yul\":1056:1062   */\n      0x00\n        /* \"#utility.yul\":1107:1109   */\n      0x1f\n        /* \"#utility.yul\":1103:1110   */\n      not\n        /* \"#utility.yul\":1098:1100   */\n      0x1f\n        /* \"#utility.yul\":1091:1096   */\n      dup4\n        /* \"#utility.yul\":1087:1101   */\n      add\n        /* \"#utility.yul\":1083:1111   */\n      and\n        /* \"#utility.yul\":1073:1111   */\n      swap1\n      pop\n        /* \"#utility.yul\":1015:1117   */\n      swap2\n      swap1\n      pop\n      jump\t// out\n        /* \"#utility.yul\":1123:1303   */\n    tag_54:\n        /* \"#utility.yul\":1171:1248   */\n      0x4e487b7100000000000000000000000000000000000000000000000000000000\n        /* \"#utility.yul\":1168:1169   */\n      0x00\n        /* \"#utility.yul\":1161:1249   */\n      mstore\n        /* \"#utility.yul\":1268:1272   */\n      0x41\n        /* \"#utility.yul\":1265:1266   */\n      0x04\n        /* \"#utility.yul\":1258:1273   */\n      mstore\n        /* \"#utility.yul\":1292:1296   */\n      0x24\n        /* \"#utility.yul\":1289:1290   */\n      0x00\n        /* \"#utility.yul\":1282:1297   */\n      revert\n        /* \"#utility.yul\":1309:1590   */\n    tag_55:\n        /* \"#utility.yul\":1392:1419   */\n      tag_107\n        /* \"#utility.yul\":1414:1418   */\n      dup3\n        /* \"#utility.yul\":1392:1419   */\n      tag_53\n      jump\t// in\n    tag_107:\n        /* \"#utility.yul\":1384:1390   */\n      dup2\n        /* \"#utility.yul\":1380:1420   */\n      add\n        /* \"#utility.yul\":1522:1528   */\n      dup2\n        /* \"#utility.yul\":1510:1520   */\n      dup2\n        /* \"#utility.yul\":1507:1529   */\n      lt\n        /* \"#utility.yul\":1486:1504   */\n      0xffffffffffffffff\n        /* \"#utility.yul\":1474:1484   */\n      dup3\n        /* \"#utility.yul\":1471:1505   */\n      gt\n        /* \"#utility.yul\":1468:1530   */\n      or\n        /* \"#utility.yul\":1465:1553   */\n      iszero\n      tag_108\n      jumpi\n        /* \"#utility.yul\":1533:1551   */\n      tag_109\n      tag_54\n      jump\t// in\n    tag_109:\n        /* \"#utility.yul\":1465:1553   */\n    tag_108:\n        /* \"#utility.yul\":1573:1583   */\n      dup1\n        /* \"#utility.yul\":1569:1571   */\n      0x40\n        /* \"#utility.yul\":1562:1584   */\n      mstore\n        /* \"#utility.yul\":1352:1590   */\n      pop\n        /* \"#utility.yul\":1309:1590   */\n      pop\n      pop\n      jump\t// out\n        /* \"#utility.yul\":1596:1725   */\n    tag_56:\n        /* \"#utility.yul\":1630:1636   */\n      0x00\n        /* \"#utility.yul\":1657:1677   */\n      tag_111\n      tag_48\n      jump\t// in\n    tag_111:\n        /* \"#utility.yul\":1647:1677   */\n      swap1\n      pop\n        /* \"#utility.yul\":1686:1719   */\n      tag_112\n        /* \"#utility.yul\":1714:1718   */\n      dup3\n        /* \"#utility.yul\":1706:1712   */\n      dup3\n        /* \"#utility.yul\":1686:1719   */\n      tag_55\n      jump\t// in\n    tag_112:\n        /* \"#utility.yul\":1596:1725   */\n      swap2\n      swap1\n      pop\n      jump\t// out\n        /* \"#utility.yul\":1731:2039   */\n    tag_57:\n        /* \"#utility.yul\":1793:1797   */\n      0x00\n        /* \"#utility.yul\":1883:1901   */\n      0xffffffffffffffff\n        /* \"#utility.yul\":1875:1881   */\n      dup3\n        /* \"#utility.yul\":1872:1902   */\n      gt\n        /* \"#utility.yul\":1869:1925   */\n      iszero\n      tag_114\n      jumpi\n        /* \"#utility.yul\":1905:1923   */\n      tag_115\n      tag_54\n      jump\t// in\n    tag_115:\n        /* \"#utility.yul\":1869:1925   */\n    tag_114:\n        /* \"#utility.yul\":1943:1972   */\n      tag_116\n        /* \"#utility.yul\":1965:1971   */\n      dup3\n        /* \"#utility.yul\":1943:1972   */\n      tag_53\n      jump\t// in\n    tag_116:\n        /* \"#utility.yul\":1935:1972   */\n      swap1\n      pop\n        /* \"#utility.yul\":2027:2031   */\n      0x20\n        /* \"#utility.yul\":2021:2025   */\n      dup2\n        /* \"#utility.yul\":2017:2032   */\n      add\n        /* \"#utility.yul\":2009:2032   */\n      swap1\n      pop\n        /* \"#utility.yul\":1731:2039   */\n      swap2\n      swap1\n      pop\n      jump\t// out\n        /* \"#utility.yul\":2045:2191   */\n    tag_58:\n        /* \"#utility.yul\":2142:2148   */\n      dup3\n        /* \"#utility.yul\":2137:2140   */\n      dup2\n        /* \"#utility.yul\":2132:2135   */\n      dup4\n        /* \"#utility.yul\":2119:2149   */\n      calldatacopy\n        /* \"#utility.yul\":2183:2184   */\n      0x00\n        /* \"#utility.yul\":2174:2180   */\n      dup4\n        /* \"#utility.yul\":2169:2172   */\n      dup4\n        /* \"#utility.yul\":2165:2181   */\n      add\n        /* \"#utility.yul\":2158:2185   */\n      mstore\n        /* \"#utility.yul\":2045:2191   */\n      pop\n      pop\n      pop\n      jump\t// out\n        /* \"#utility.yul\":2197:2622   */\n    tag_59:\n        /* \"#utility.yul\":2275:2280   */\n      0x00\n        /* \"#utility.yul\":2300:2366   */\n      tag_119\n        /* \"#utility.yul\":2316:2365   */\n      tag_120\n        /* \"#utility.yul\":2358:2364   */\n      dup5\n        /* \"#utility.yul\":2316:2365   */\n      tag_57\n      jump\t// in\n    tag_120:\n        /* \"#utility.yul\":2300:2366   */\n      tag_56\n      jump\t// in\n    tag_119:\n        /* \"#utility.yul\":2291:2366   */\n      swap1\n      pop\n        /* \"#utility.yul\":2389:2395   */\n      dup3\n        /* \"#utility.yul\":2382:2387   */\n      dup2\n        /* \"#utility.yul\":2375:2396   */\n      mstore\n        /* \"#utility.yul\":2427:2431   */\n      0x20\n        /* \"#utility.yul\":2420:2425   */\n      dup2\n        /* \"#utility.yul\":2416:2432   */\n      add\n        /* \"#utility.yul\":2465:2468   */\n      dup5\n        /* \"#utility.yul\":2456:2462   */\n      dup5\n        /* \"#utility.yul\":2451:2454   */\n      dup5\n        /* \"#utility.yul\":2447:2463   */\n      add\n        /* \"#utility.yul\":2444:2469   */\n      gt\n        /* \"#utility.yul\":2441:2553   */\n      iszero\n      tag_121\n      jumpi\n        /* \"#utility.yul\":2472:2551   */\n      tag_122\n      tag_52\n      jump\t// in\n    tag_122:\n        /* \"#utility.yul\":2441:2553   */\n    tag_121:\n        /* \"#utility.yul\":2562:2616   */\n      tag_123\n        /* \"#utility.yul\":2609:2615   */\n      dup5\n        /* \"#utility.yul\":2604:2607   */\n      dup3\n        /* \"#utility.yul\":2599:2602   */\n      dup6\n        /* \"#utility.yul\":2562:2616   */\n      tag_58\n      jump\t// in\n    tag_123:\n        /* \"#utility.yul\":2281:2622   */\n      pop\n        /* \"#utility.yul\":2197:2622   */\n      swap4\n      swap3\n      pop\n      pop\n      pop\n      jump\t// out\n        /* \"#utility.yul\":2642:2982   */\n    tag_60:\n        /* \"#utility.yul\":2698:2703   */\n      0x00\n        /* \"#utility.yul\":2747:2750   */\n      dup3\n        /* \"#utility.yul\":2740:2744   */\n      0x1f\n        /* \"#utility.yul\":2732:2738   */\n      dup4\n        /* \"#utility.yul\":2728:2745   */\n      add\n        /* \"#utility.yul\":2724:2751   */\n      slt\n        /* \"#utility.yul\":2714:2836   */\n      tag_125\n      jumpi\n        /* \"#utility.yul\":2755:2834   */\n      tag_126\n      tag_51\n      jump\t// in\n    tag_126:\n        /* \"#utility.yul\":2714:2836   */\n    tag_125:\n        /* \"#utility.yul\":2872:2878   */\n      dup2\n        /* \"#utility.yul\":2859:2879   */\n      calldataload\n        /* \"#utility.yul\":2897:2976   */\n      tag_127\n        /* \"#utility.yul\":2972:2975   */\n      dup5\n        /* \"#utility.yul\":2964:2970   */\n      dup3\n        /* \"#utility.yul\":2957:2961   */\n      0x20\n        /* \"#utility.yul\":2949:2955   */\n      dup7\n        /* \"#utility.yul\":2945:2962   */\n      add\n        /* \"#utility.yul\":2897:2976   */\n      tag_59\n      jump\t// in\n    tag_127:\n        /* \"#utility.yul\":2888:2976   */\n      swap2\n      pop\n        /* \"#utility.yul\":2704:2982   */\n      pop\n        /* \"#utility.yul\":2642:2982   */\n      swap3\n      swap2\n      pop\n      pop\n      jump\t// out\n        /* \"#utility.yul\":2988:3110   */\n    tag_61:\n        /* \"#utility.yul\":3061:3085   */\n      tag_129\n        /* \"#utility.yul\":3079:3084   */\n      dup2\n        /* \"#utility.yul\":3061:3085   */\n      tag_46\n      jump\t// in\n    tag_129:\n        /* \"#utility.yul\":3054:3059   */\n      dup2\n        /* \"#utility.yul\":3051:3086   */\n      eq\n        /* \"#utility.yul\":3041:3104   */\n      tag_130\n      jumpi\n        /* \"#utility.yul\":3100:3101   */\n      0x00\n        /* \"#utility.yul\":3097:3098   */\n      dup1\n        /* \"#utility.yul\":3090:3102   */\n      revert\n        /* \"#utility.yul\":3041:3104   */\n    tag_130:\n        /* \"#utility.yul\":2988:3110   */\n      pop\n      jump\t// out\n        /* \"#utility.yul\":3116:3255   */\n    tag_62:\n        /* \"#utility.yul\":3162:3167   */\n      0x00\n        /* \"#utility.yul\":3200:3206   */\n      dup2\n        /* \"#utility.yul\":3187:3207   */\n      calldataload\n        /* \"#utility.yul\":3178:3207   */\n      swap1\n      pop\n        /* \"#utility.yul\":3216:3249   */\n      tag_132\n        /* \"#utility.yul\":3243:3248   */\n      dup2\n        /* \"#utility.yul\":3216:3249   */\n      tag_61\n      jump\t// in\n    tag_132:\n        /* \"#utility.yul\":3116:3255   */\n      swap3\n      swap2\n      pop\n      pop\n      jump\t// out\n        /* \"#utility.yul\":3261:3915   */\n    tag_14:\n        /* \"#utility.yul\":3339:3345   */\n      0x00\n        /* \"#utility.yul\":3347:3353   */\n      dup1\n        /* \"#utility.yul\":3396:3398   */\n      0x40\n        /* \"#utility.yul\":3384:3393   */\n      dup4\n        /* \"#utility.yul\":3375:3382   */\n      dup6\n        /* \"#utility.yul\":3371:3394   */\n      sub\n        /* \"#utility.yul\":3367:3399   */\n      slt\n        /* \"#utility.yul\":3364:3483   */\n      iszero\n      tag_134\n      jumpi\n        /* \"#utility.yul\":3402:3481   */\n      tag_135\n      tag_49\n      jump\t// in\n    tag_135:\n        /* \"#utility.yul\":3364:3483   */\n    tag_134:\n        /* \"#utility.yul\":3550:3551   */\n      0x00\n        /* \"#utility.yul\":3539:3548   */\n      dup4\n        /* \"#utility.yul\":3535:3552   */\n      add\n        /* \"#utility.yul\":3522:3553   */\n      calldataload\n        /* \"#utility.yul\":3580:3598   */\n      0xffffffffffffffff\n        /* \"#utility.yul\":3572:3578   */\n      dup2\n        /* \"#utility.yul\":3569:3599   */\n      gt\n        /* \"#utility.yul\":3566:3683   */\n      iszero\n      tag_136\n      jumpi\n        /* \"#utility.yul\":3602:3681   */\n      tag_137\n      tag_50\n      jump\t// in\n    tag_137:\n        /* \"#utility.yul\":3566:3683   */\n    tag_136:\n        /* \"#utility.yul\":3707:3770   */\n      tag_138\n        /* \"#utility.yul\":3762:3769   */\n      dup6\n        /* \"#utility.yul\":3753:3759   */\n      dup3\n        /* \"#utility.yul\":3742:3751   */\n      dup7\n        /* \"#utility.yul\":3738:3760   */\n      add\n        /* \"#utility.yul\":3707:3770   */\n      tag_60\n      jump\t// in\n    tag_138:\n        /* \"#utility.yul\":3697:3770   */\n      swap3\n      pop\n        /* \"#utility.yul\":3493:3780   */\n      pop\n        /* \"#utility.yul\":3819:3821   */\n      0x20\n        /* \"#utility.yul\":3845:3898   */\n      tag_139\n        /* \"#utility.yul\":3890:3897   */\n      dup6\n        /* \"#utility.yul\":3881:3887   */\n      dup3\n        /* \"#utility.yul\":3870:3879   */\n      dup7\n        /* \"#utility.yul\":3866:3888   */\n      add\n        /* \"#utility.yul\":3845:3898   */\n      tag_62\n      jump\t// in\n    tag_139:\n        /* \"#utility.yul\":3835:3898   */\n      swap2\n      pop\n        /* \"#utility.yul\":3790:3908   */\n      pop\n        /* \"#utility.yul\":3261:3915   */\n      swap3\n      pop\n      swap3\n      swap1\n      pop\n      jump\t// out\n        /* \"#utility.yul\":3921:4250   */\n    tag_19:\n        /* \"#utility.yul\":3980:3986   */\n      0x00\n        /* \"#utility.yul\":4029:4031   */\n      0x20\n        /* \"#utility.yul\":4017:4026   */\n      dup3\n        /* \"#utility.yul\":4008:4015   */\n      dup5\n        /* \"#utility.yul\":4004:4027   */\n      sub\n        /* \"#utility.yul\":4000:4032   */\n      slt\n        /* \"#utility.yul\":3997:4116   */\n      iszero\n      tag_141\n      jumpi\n        /* \"#utility.yul\":4035:4114   */\n      tag_142\n      tag_49\n      jump\t// in\n    tag_142:\n        /* \"#utility.yul\":3997:4116   */\n    tag_141:\n        /* \"#utility.yul\":4155:4156   */\n      0x00\n        /* \"#utility.yul\":4180:4233   */\n      tag_143\n        /* \"#utility.yul\":4225:4232   */\n      dup5\n        /* \"#utility.yul\":4216:4222   */\n      dup3\n        /* \"#utility.yul\":4205:4214   */\n      dup6\n        /* \"#utility.yul\":4201:4223   */\n      add\n        /* \"#utility.yul\":4180:4233   */\n      tag_62\n      jump\t// in\n    tag_143:\n        /* \"#utility.yul\":4170:4233   */\n      swap2\n      pop\n        /* \"#utility.yul\":4126:4243   */\n      pop\n        /* \"#utility.yul\":3921:4250   */\n      swap3\n      swap2\n      pop\n      pop\n      jump\t// out\n        /* \"#utility.yul\":4256:4355   */\n    tag_63:\n        /* \"#utility.yul\":4308:4314   */\n      0x00\n        /* \"#utility.yul\":4342:4347   */\n      dup2\n        /* \"#utility.yul\":4336:4348   */\n      mload\n        /* \"#utility.yul\":4326:4348   */\n      swap1\n      pop\n        /* \"#utility.yul\":4256:4355   */\n      swap2\n      swap1\n      pop\n      jump\t// out\n        /* \"#utility.yul\":4361:4530   */\n    tag_64:\n        /* \"#utility.yul\":4445:4456   */\n      0x00\n        /* \"#utility.yul\":4479:4485   */\n      dup3\n        /* \"#utility.yul\":4474:4477   */\n      dup3\n        /* \"#utility.yul\":4467:4486   */\n      mstore\n        /* \"#utility.yul\":4519:4523   */\n      0x20\n        /* \"#utility.yul\":4514:4517   */\n      dup3\n        /* \"#utility.yul\":4510:4524   */\n      add\n        /* \"#utility.yul\":4495:4524   */\n      swap1\n      pop\n        /* \"#utility.yul\":4361:4530   */\n      swap3\n      swap2\n      pop\n      pop\n      jump\t// out\n        /* \"#utility.yul\":4536:4782   */\n    tag_65:\n        /* \"#utility.yul\":4617:4618   */\n      0x00\n        /* \"#utility.yul\":4627:4740   */\n    tag_147:\n        /* \"#utility.yul\":4641:4647   */\n      dup4\n        /* \"#utility.yul\":4638:4639   */\n      dup2\n        /* \"#utility.yul\":4635:4648   */\n      lt\n        /* \"#utility.yul\":4627:4740   */\n      iszero\n      tag_149\n      jumpi\n        /* \"#utility.yul\":4726:4727   */\n      dup1\n        /* \"#utility.yul\":4721:4724   */\n      dup3\n        /* \"#utility.yul\":4717:4728   */\n      add\n        /* \"#utility.yul\":4711:4729   */\n      mload\n        /* \"#utility.yul\":4707:4708   */\n      dup2\n        /* \"#utility.yul\":4702:4705   */\n      dup5\n        /* \"#utility.yul\":4698:4709   */\n      add\n        /* \"#utility.yul\":4691:4730   */\n      mstore\n        /* \"#utility.yul\":4663:4665   */\n      0x20\n        /* \"#utility.yul\":4660:4661   */\n      dup2\n        /* \"#utility.yul\":4656:4666   */\n      add\n        /* \"#utility.yul\":4651:4666   */\n      swap1\n      pop\n        /* \"#utility.yul\":4627:4740   */\n      jump(tag_147)\n    tag_149:\n        /* \"#utility.yul\":4774:4775   */\n      0x00\n        /* \"#utility.yul\":4765:4771   */\n      dup5\n        /* \"#utility.yul\":4760:4763   */\n      dup5\n        /* \"#utility.yul\":4756:4772   */\n      add\n        /* \"#utility.yul\":4749:4776   */\n      mstore\n        /* \"#utility.yul\":4598:4782   */\n      pop\n        /* \"#utility.yul\":4536:4782   */\n      pop\n      pop\n      pop\n      jump\t// out\n        /* \"#utility.yul\":4788:5165   */\n    tag_66:\n        /* \"#utility.yul\":4876:4879   */\n      0x00\n        /* \"#utility.yul\":4904:4943   */\n      tag_151\n        /* \"#utility.yul\":4937:4942   */\n      dup3\n        /* \"#utility.yul\":4904:4943   */\n      tag_63\n      jump\t// in\n    tag_151:\n        /* \"#utility.yul\":4959:5030   */\n      tag_152\n        /* \"#utility.yul\":5023:5029   */\n      dup2\n        /* \"#utility.yul\":5018:5021   */\n      dup6\n        /* \"#utility.yul\":4959:5030   */\n      tag_64\n      jump\t// in\n    tag_152:\n        /* \"#utility.yul\":4952:5030   */\n      swap4\n      pop\n        /* \"#utility.yul\":5039:5104   */\n      tag_153\n        /* \"#utility.yul\":5097:5103   */\n      dup2\n        /* \"#utility.yul\":5092:5095   */\n      dup6\n        /* \"#utility.yul\":5085:5089   */\n      0x20\n        /* \"#utility.yul\":5078:5083   */\n      dup7\n        /* \"#utility.yul\":5074:5090   */\n      add\n        /* \"#utility.yul\":5039:5104   */\n      tag_65\n      jump\t// in\n    tag_153:\n        /* \"#utility.yul\":5129:5158   */\n      tag_154\n        /* \"#utility.yul\":5151:5157   */\n      dup2\n        /* \"#utility.yul\":5129:5158   */\n      tag_53\n      jump\t// in\n    tag_154:\n        /* \"#utility.yul\":5124:5127   */\n      dup5\n        /* \"#utility.yul\":5120:5159   */\n      add\n        /* \"#utility.yul\":5113:5159   */\n      swap2\n      pop\n        /* \"#utility.yul\":4880:5165   */\n      pop\n        /* \"#utility.yul\":4788:5165   */\n      swap3\n      swap2\n      pop\n      pop\n      jump\t// out\n        /* \"#utility.yul\":5171:5297   */\n    tag_67:\n        /* \"#utility.yul\":5208:5215   */\n      0x00\n        /* \"#utility.yul\":5248:5290   */\n      0xffffffffffffffffffffffffffffffffffffffff\n        /* \"#utility.yul\":5241:5246   */\n      dup3\n        /* \"#utility.yul\":5237:5291   */\n      and\n        /* \"#utility.yul\":5226:5291   */\n      swap1\n      pop\n        /* \"#utility.yul\":5171:5297   */\n      swap2\n      swap1\n      pop\n      jump\t// out\n        /* \"#utility.yul\":5303:5399   */\n    tag_68:\n        /* \"#utility.yul\":5340:5347   */\n      0x00\n        /* \"#utility.yul\":5369:5393   */\n      tag_157\n        /* \"#utility.yul\":5387:5392   */\n      dup3\n        /* \"#utility.yul\":5369:5393   */\n      tag_67\n      jump\t// in\n    tag_157:\n        /* \"#utility.yul\":5358:5393   */\n      swap1\n      pop\n        /* \"#utility.yul\":5303:5399   */\n      swap2\n      swap1\n      pop\n      jump\t// out\n        /* \"#utility.yul\":5405:5523   */\n    tag_69:\n        /* \"#utility.yul\":5492:5516   */\n      tag_159\n        /* \"#utility.yul\":5510:5515   */\n      dup2\n        /* \"#utility.yul\":5492:5516   */\n      tag_68\n      jump\t// in\n    tag_159:\n        /* \"#utility.yul\":5487:5490   */\n      dup3\n        /* \"#utility.yul\":5480:5517   */\n      mstore\n        /* \"#utility.yul\":5405:5523   */\n      pop\n      pop\n      jump\t// out\n        /* \"#utility.yul\":5529:5619   */\n    tag_70:\n        /* \"#utility.yul\":5563:5570   */\n      0x00\n        /* \"#utility.yul\":5606:5611   */\n      dup2\n        /* \"#utility.yul\":5599:5612   */\n      iszero\n        /* \"#utility.yul\":5592:5613   */\n      iszero\n        /* \"#utility.yul\":5581:5613   */\n      swap1\n      pop\n        /* \"#utility.yul\":5529:5619   */\n      swap2\n      swap1\n      pop\n      jump\t// out\n        /* \"#utility.yul\":5625:5734   */\n    tag_71:\n        /* \"#utility.yul\":5706:5727   */\n      tag_162\n        /* \"#utility.yul\":5721:5726   */\n      dup2\n        /* \"#utility.yul\":5706:5727   */\n      tag_70\n      jump\t// in\n    tag_162:\n        /* \"#utility.yul\":5701:5704   */\n      dup3\n        /* \"#utility.yul\":5694:5728   */\n      mstore\n        /* \"#utility.yul\":5625:5734   */\n      pop\n      pop\n      jump\t// out\n        /* \"#utility.yul\":5740:6483   */\n    tag_22:\n        /* \"#utility.yul\":5959:5963   */\n      0x00\n        /* \"#utility.yul\":5997:6000   */\n      0xa0\n        /* \"#utility.yul\":5986:5995   */\n      dup3\n        /* \"#utility.yul\":5982:6001   */\n      add\n        /* \"#utility.yul\":5974:6001   */\n      swap1\n      pop\n        /* \"#utility.yul\":6011:6082   */\n      tag_164\n        /* \"#utility.yul\":6079:6080   */\n      0x00\n        /* \"#utility.yul\":6068:6077   */\n      dup4\n        /* \"#utility.yul\":6064:6081   */\n      add\n        /* \"#utility.yul\":6055:6061   */\n      dup9\n        /* \"#utility.yul\":6011:6082   */\n      tag_47\n      jump\t// in\n    tag_164:\n        /* \"#utility.yul\":6129:6138   */\n      dup2\n        /* \"#utility.yul\":6123:6127   */\n      dup2\n        /* \"#utility.yul\":6119:6139   */\n      sub\n        /* \"#utility.yul\":6114:6116   */\n      0x20\n        /* \"#utility.yul\":6103:6112   */\n      dup4\n        /* \"#utility.yul\":6099:6117   */\n      add\n        /* \"#utility.yul\":6092:6140   */\n      mstore\n        /* \"#utility.yul\":6157:6235   */\n      tag_165\n        /* \"#utility.yul\":6230:6234   */\n      dup2\n        /* \"#utility.yul\":6221:6227   */\n      dup8\n        /* \"#utility.yul\":6157:6235   */\n      tag_66\n      jump\t// in\n    tag_165:\n        /* \"#utility.yul\":6149:6235   */\n      swap1\n      pop\n        /* \"#utility.yul\":6245:6317   */\n      tag_166\n        /* \"#utility.yul\":6313:6315   */\n      0x40\n        /* \"#utility.yul\":6302:6311   */\n      dup4\n        /* \"#utility.yul\":6298:6316   */\n      add\n        /* \"#utility.yul\":6289:6295   */\n      dup7\n        /* \"#utility.yul\":6245:6317   */\n      tag_47\n      jump\t// in\n    tag_166:\n        /* \"#utility.yul\":6327:6399   */\n      tag_167\n        /* \"#utility.yul\":6395:6397   */\n      0x60\n        /* \"#utility.yul\":6384:6393   */\n      dup4\n        /* \"#utility.yul\":6380:6398   */\n      add\n        /* \"#utility.yul\":6371:6377   */\n      dup6\n        /* \"#utility.yul\":6327:6399   */\n      tag_69\n      jump\t// in\n    tag_167:\n        /* \"#utility.yul\":6409:6476   */\n      tag_168\n        /* \"#utility.yul\":6471:6474   */\n      0x80\n        /* \"#utility.yul\":6460:6469   */\n      dup4\n        /* \"#utility.yul\":6456:6475   */\n      add\n        /* \"#utility.yul\":6447:6453   */\n      dup5\n        /* \"#utility.yul\":6409:6476   */\n      tag_71\n      jump\t// in\n    tag_168:\n        /* \"#utility.yul\":5740:6483   */\n      swap7\n      swap6\n      pop\n      pop\n      pop\n      pop\n      pop\n      pop\n      jump\t// out\n        /* \"#utility.yul\":6489:6669   */\n    tag_72:\n        /* \"#utility.yul\":6537:6614   */\n      0x4e487b7100000000000000000000000000000000000000000000000000000000\n        /* \"#utility.yul\":6534:6535   */\n      0x00\n        /* \"#utility.yul\":6527:6615   */\n      mstore\n        /* \"#utility.yul\":6634:6638   */\n      0x22\n        /* \"#utility.yul\":6631:6632   */\n      0x04\n        /* \"#utility.yul\":6624:6639   */\n      mstore\n        /* \"#utility.yul\":6658:6662   */\n      0x24\n        /* \"#utility.yul\":6655:6656   */\n      0x00\n        /* \"#utility.yul\":6648:6663   */\n      revert\n        /* \"#utility.yul\":6675:6995   */\n    tag_32:\n        /* \"#utility.yul\":6719:6725   */\n      0x00\n        /* \"#utility.yul\":6756:6757   */\n      0x02\n        /* \"#utility.yul\":6750:6754   */\n      dup3\n        /* \"#utility.yul\":6746:6758   */\n      div\n        /* \"#utility.yul\":6736:6758   */\n      swap1\n      pop\n        /* \"#utility.yul\":6803:6804   */\n      0x01\n        /* \"#utility.yul\":6797:6801   */\n      dup3\n        /* \"#utility.yul\":6793:6805   */\n      and\n        /* \"#utility.yul\":6824:6842   */\n      dup1\n        /* \"#utility.yul\":6814:6895   */\n      tag_171\n      jumpi\n        /* \"#utility.yul\":6880:6884   */\n      0x7f\n        /* \"#utility.yul\":6872:6878   */\n      dup3\n        /* \"#utility.yul\":6868:6885   */\n      and\n        /* \"#utility.yul\":6858:6885   */\n      swap2\n      pop\n        /* \"#utility.yul\":6814:6895   */\n    tag_171:\n        /* \"#utility.yul\":6942:6944   */\n      0x20\n        /* \"#utility.yul\":6934:6940   */\n      dup3\n        /* \"#utility.yul\":6931:6945   */\n      lt\n        /* \"#utility.yul\":6911:6929   */\n      dup2\n        /* \"#utility.yul\":6908:6946   */\n      sub\n        /* \"#utility.yul\":6905:6989   */\n      tag_172\n      jumpi\n        /* \"#utility.yul\":6961:6979   */\n      tag_173\n      tag_72\n      jump\t// in\n    tag_173:\n        /* \"#utility.yul\":6905:6989   */\n    tag_172:\n        /* \"#utility.yul\":6726:6995   */\n      pop\n        /* \"#utility.yul\":6675:6995   */\n      swap2\n      swap1\n      pop\n      jump\t// out\n        /* \"#utility.yul\":7001:7142   */\n    tag_73:\n        /* \"#utility.yul\":7050:7054   */\n      0x00\n        /* \"#utility.yul\":7073:7076   */\n      dup2\n        /* \"#utility.yul\":7065:7076   */\n      swap1\n      pop\n        /* \"#utility.yul\":7096:7099   */\n      dup2\n        /* \"#utility.yul\":7093:7094   */\n      0x00\n        /* \"#utility.yul\":7086:7100   */\n      mstore\n        /* \"#utility.yul\":7130:7134   */\n      0x20\n        /* \"#utility.yul\":7127:7128   */\n      0x00\n        /* \"#utility.yul\":7117:7135   */\n      keccak256\n        /* \"#utility.yul\":7109:7135   */\n      swap1\n      pop\n        /* \"#utility.yul\":7001:7142   */\n      swap2\n      swap1\n      pop\n      jump\t// out\n        /* \"#utility.yul\":7148:7241   */\n    tag_74:\n        /* \"#utility.yul\":7185:7191   */\n      0x00\n        /* \"#utility.yul\":7232:7234   */\n      0x20\n        /* \"#utility.yul\":7227:7229   */\n      0x1f\n        /* \"#utility.yul\":7220:7225   */\n      dup4\n        /* \"#utility.yul\":7216:7230   */\n      add\n        /* \"#utility.yul\":7212:7235   */\n      div\n        /* \"#utility.yul\":7202:7235   */\n      swap1\n      pop\n        /* \"#utility.yul\":7148:7241   */\n      swap2\n      swap1\n      pop\n      jump\t// out\n        /* \"#utility.yul\":7247:7354   */\n    tag_75:\n        /* \"#utility.yul\":7291:7299   */\n      0x00\n        /* \"#utility.yul\":7341:7346   */\n      dup3\n        /* \"#utility.yul\":7335:7339   */\n      dup3\n        /* \"#utility.yul\":7331:7347   */\n      shl\n        /* \"#utility.yul\":7310:7347   */\n      swap1\n      pop\n        /* \"#utility.yul\":7247:7354   */\n      swap3\n      swap2\n      pop\n      pop\n      jump\t// out\n        /* \"#utility.yul\":7360:7753   */\n    tag_76:\n        /* \"#utility.yul\":7429:7435   */\n      0x00\n        /* \"#utility.yul\":7479:7480   */\n      0x08\n        /* \"#utility.yul\":7467:7477   */\n      dup4\n        /* \"#utility.yul\":7463:7481   */\n      mul\n        /* \"#utility.yul\":7502:7599   */\n      tag_178\n        /* \"#utility.yul\":7532:7598   */\n      0xffffffffffffffffffffffffffffffffffffffffffffffffffffffffffffffff\n        /* \"#utility.yul\":7521:7530   */\n      dup3\n        /* \"#utility.yul\":7502:7599   */\n      tag_75\n      jump\t// in\n    tag_178:\n        /* \"#utility.yul\":7620:7659   */\n      tag_179\n        /* \"#utility.yul\":7650:7658   */\n      dup7\n        /* \"#utility.yul\":7639:7648   */\n      dup4\n        /* \"#utility.yul\":7620:7659   */\n      tag_75\n      jump\t// in\n    tag_179:\n        /* \"#utility.yul\":7608:7659   */\n      swap6\n      pop\n        /* \"#utility.yul\":7692:7696   */\n      dup1\n        /* \"#utility.yul\":7688:7697   */\n      not\n        /* \"#utility.yul\":7681:7686   */\n      dup5\n        /* \"#utility.yul\":7677:7698   */\n      and\n        /* \"#utility.yul\":7668:7698   */\n      swap4\n      pop\n        /* \"#utility.yul\":7741:7745   */\n      dup1\n        /* \"#utility.yul\":7731:7739   */\n      dup7\n        /* \"#utility.yul\":7727:7746   */\n      and\n        /* \"#utility.yul\":7720:7725   */\n      dup5\n        /* \"#utility.yul\":7717:7747   */\n      or\n        /* \"#utility.yul\":7707:7747   */\n      swap3\n      pop\n        /* \"#utility.yul\":7436:7753   */\n      pop\n      pop\n        /* \"#utility.yul\":7360:7753   */\n      swap4\n      swap3\n      pop\n      pop\n      pop\n      jump\t// out\n        /* \"#utility.yul\":7759:7819   */\n    tag_77:\n        /* \"#utility.yul\":7787:7790   */\n      0x00\n        /* \"#utility.yul\":7808:7813   */\n      dup2\n        /* \"#utility.yul\":7801:7813   */\n      swap1\n      pop\n        /* \"#utility.yul\":7759:7819   */\n      swap2\n      swap1\n      pop\n      jump\t// out\n        /* \"#utility.yul\":7825:7967   */\n    tag_78:\n        /* \"#utility.yul\":7875:7884   */\n      0x00\n        /* \"#utility.yul\":7908:7961   */\n      tag_182\n        /* \"#utility.yul\":7926:7960   */\n      tag_183\n        /* \"#utility.yul\":7935:7959   */\n      tag_184\n        /* \"#utility.yul\":7953:7958   */\n      dup5\n        /* \"#utility.yul\":7935:7959   */\n      tag_46\n      jump\t// in\n    tag_184:\n        /* \"#utility.yul\":7926:7960   */\n      tag_77\n      jump\t// in\n    tag_183:\n        /* \"#utility.yul\":7908:7961   */\n      tag_46\n      jump\t// in\n    tag_182:\n        /* \"#utility.yul\":7895:7961   */\n      swap1\n      pop\n        /* \"#utility.yul\":7825:7967   */\n      swap2\n      swap1\n      pop\n      jump\t// out\n        /* \"#utility.yul\":7973:8048   */\n    tag_79:\n        /* \"#utility.yul\":8016:8019   */\n      0x00\n        /* \"#utility.yul\":8037:8042   */\n      dup2\n        /* \"#utility.yul\":8030:8042   */\n      swap1\n      pop\n        /* \"#utility.yul\":7973:8048   */\n      swap2\n      swap1\n      pop\n      jump\t// out\n        /* \"#utility.yul\":8054:8323   */\n    tag_80:\n        /* \"#utility.yul\":8164:8203   */\n      tag_187\n        /* \"#utility.yul\":8195:8202   */\n      dup4\n        /* \"#utility.yul\":8164:8203   */\n      tag_78\n      jump\t// in\n    tag_187:\n        /* \"#utility.yul\":8225:8316   */\n      tag_188\n        /* \"#utility.yul\":8274:8315   */\n      tag_189\n        /* \"#utility.yul\":8298:8314   */\n      dup3\n        /* \"#utility.yul\":8274:8315   */\n      tag_79\n      jump\t// in\n    tag_189:\n        /* \"#utility.yul\":8266:8272   */\n      dup5\n        /* \"#utility.yul\":8259:8263   */\n      dup5\n        /* \"#utility.yul\":8253:8264   */\n      sload\n        /* \"#utility.yul\":8225:8316   */\n      tag_76\n      jump\t// in\n    tag_188:\n        /* \"#utility.yul\":8219:8223   */\n      dup3\n        /* \"#utility.yul\":8212:8317   */\n      sstore\n        /* \"#utility.yul\":8130:8323   */\n      pop\n        /* \"#utility.yul\":8054:8323   */\n      pop\n      pop\n      pop\n      jump\t// out\n        /* \"#utility.yul\":8329:8402   */\n    tag_81:\n        /* \"#utility.yul\":8374:8377   */\n      0x00\n        /* \"#utility.yul\":8329:8402   */\n      swap1\n      jump\t// out\n        /* \"#utility.yul\":8408:8597   */\n    tag_82:\n        /* \"#utility.yul\":8485:8517   */\n      tag_192\n      tag_81\n      jump\t// in\n    tag_192:\n        /* \"#utility.yul\":8526:8591   */\n      tag_193\n        /* \"#utility.yul\":8584:8590   */\n      dup2\n        /* \"#utility.yul\":8576:8582   */\n      dup5\n        /* \"#utility.yul\":8570:8574   */\n      dup5\n        /* \"#utility.yul\":8526:8591   */\n      tag_80\n      jump\t// in\n    tag_193:\n        /* \"#utility.yul\":8461:8597   */\n      pop\n        /* \"#utility.yul\":8408:8597   */\n      pop\n      pop\n      jump\t// out\n        /* \"#utility.yul\":8603:8789   */\n    tag_83:\n        /* \"#utility.yul\":8663:8783   */\n    tag_195:\n        /* \"#utility.yul\":8680:8683   */\n      dup2\n        /* \"#utility.yul\":8673:8678   */\n      dup2\n        /* \"#utility.yul\":8670:8684   */\n      lt\n        /* \"#utility.yul\":8663:8783   */\n      iszero\n      tag_197\n      jumpi\n        /* \"#utility.yul\":8734:8773   */\n      tag_198\n        /* \"#utility.yul\":8771:8772   */\n      0x00\n        /* \"#utility.yul\":8764:8769   */\n      dup3\n        /* \"#utility.yul\":8734:8773   */\n      tag_82\n      jump\t// in\n    tag_198:\n        /* \"#utility.yul\":8707:8708   */\n      0x01\n        /* \"#utility.yul\":8700:8705   */\n      dup2\n        /* \"#utility.yul\":8696:8709   */\n      add\n        /* \"#utility.yul\":8687:8709   */\n      swap1\n      pop\n        /* \"#utility.yul\":8663:8783   */\n      jump(tag_195)\n    tag_197:\n        /* \"#utility.yul\":8603:8789   */\n      pop\n      pop\n      jump\t// out\n        /* \"#utility.yul\":8795:9338   */\n    tag_84:\n        /* \"#utility.yul\":8896:8898   */\n      0x1f\n        /* \"#utility.yul\":8891:8894   */\n      dup3\n        /* \"#utility.yul\":8888:8899   */\n      gt\n        /* \"#utility.yul\":8885:9331   */\n      iszero\n      tag_200\n      jumpi\n        /* \"#utility.yul\":8930:8968   */\n      tag_201\n        /* \"#utility.yul\":8962:8967   */\n      dup2\n        /* \"#utility.yul\":8930:8968   */\n      tag_73\n      jump\t// in\n    tag_201:\n        /* \"#utility.yul\":9014:9043   */\n      tag_202\n        /* \"#utility.yul\":9032:9042   */\n      dup5\n        /* \"#utility.yul\":9014:9043   */\n      tag_74\n      jump\t// in\n    tag_202:\n        /* \"#utility.yul\":9004:9012   */\n      dup2\n        /* \"#utility.yul\":9000:9044   */\n      add\n        /* \"#utility.yul\":9197:9199   */\n      0x20\n        /* \"#utility.yul\":9185:9195   */\n      dup6\n        /* \"#utility.yul\":9182:9200   */\n      lt\n        /* \"#utility.yul\":9179:9228   */\n      iszero\n      tag_203\n      jumpi\n        /* \"#utility.yul\":9218:9226   */\n      dup2\n        /* \"#utility.yul\":9203:9226   */\n      swap1\n      pop\n        /* \"#utility.yul\":9179:9228   */\n    tag_203:\n        /* \"#utility.yul\":9241:9321   */\n      tag_204\n        /* \"#utility.yul\":9297:9319   */\n      tag_205\n        /* \"#utility.yul\":9315:9318   */\n      dup6\n        /* \"#utility.yul\":9297:9319   */\n      tag_74\n      jump\t// in\n    tag_205:\n        /* \"#utility.yul\":9287:9295   */\n      dup4\n        /* \"#utility.yul\":9283:9320   */\n      add\n        /* \"#utility.yul\":9270:9281   */\n      dup3\n        /* \"#utility.yul\":9241:9321   */\n      tag_83\n      jump\t// in\n    tag_204:\n        /* \"#utility.yul\":8900:9331   */\n      pop\n      pop\n        /* \"#utility.yul\":8885:9331   */\n    tag_200:\n        /* \"#utility.yul\":8795:9338   */\n      pop\n      pop\n      pop\n      jump\t// out\n        /* \"#utility.yul\":9344:9461   */\n    tag_85:\n        /* \"#utility.yul\":9398:9406   */\n      0x00\n        /* \"#utility.yul\":9448:9453   */\n      dup3\n        /* \"#utility.yul\":9442:9446   */\n      dup3\n        /* \"#utility.yul\":9438:9454   */\n      shr\n        /* \"#utility.yul\":9417:9454   */\n      swap1\n      pop\n        /* \"#utility.yul\":9344:9461   */\n      swap3\n      swap2\n      pop\n      pop\n      jump\t// out\n        /* \"#utility.yul\":9467:9636   */\n    tag_86:\n        /* \"#utility.yul\":9511:9517   */\n      0x00\n        /* \"#utility.yul\":9544:9595   */\n      tag_208\n        /* \"#utility.yul\":9592:9593   */\n      0x00\n        /* \"#utility.yul\":9588:9594   */\n      not\n        /* \"#utility.yul\":9580:9585   */\n      dup5\n        /* \"#utility.yul\":9577:9578   */\n      0x08\n        /* \"#utility.yul\":9573:9586   */\n      mul\n        /* \"#utility.yul\":9544:9595   */\n      tag_85\n      jump\t// in\n    tag_208:\n        /* \"#utility.yul\":9540:9596   */\n      not\n        /* \"#utility.yul\":9625:9629   */\n      dup1\n        /* \"#utility.yul\":9619:9623   */\n      dup4\n        /* \"#utility.yul\":9615:9630   */\n      and\n        /* \"#utility.yul\":9605:9630   */\n      swap2\n      pop\n        /* \"#utility.yul\":9518:9636   */\n      pop\n        /* \"#utility.yul\":9467:9636   */\n      swap3\n      swap2\n      pop\n      pop\n      jump\t// out\n        /* \"#utility.yul\":9641:9936   */\n    tag_87:\n        /* \"#utility.yul\":9717:9721   */\n      0x00\n        /* \"#utility.yul\":9863:9892   */\n      tag_210\n        /* \"#utility.yul\":9888:9891   */\n      dup4\n        /* \"#utility.yul\":9882:9886   */\n      dup4\n        /* \"#utility.yul\":9863:9892   */\n      tag_86\n      jump\t// in\n    tag_210:\n        /* \"#utility.yul\":9855:9892   */\n      swap2\n      pop\n        /* \"#utility.yul\":9925:9928   */\n      dup3\n        /* \"#utility.yul\":9922:9923   */\n      0x02\n        /* \"#utility.yul\":9918:9929   */\n      mul\n        /* \"#utility.yul\":9912:9916   */\n      dup3\n        /* \"#utility.yul\":9909:9930   */\n      or\n        /* \"#utility.yul\":9901:9930   */\n      swap1\n      pop\n        /* \"#utility.yul\":9641:9936   */\n      swap3\n      swap2\n      pop\n      pop\n      jump\t// out\n        /* \"#utility.yul\":9941:11336   */\n    tag_28:\n        /* \"#utility.yul\":10058:10095   */\n      tag_212\n        /* \"#utility.yul\":10091:10094   */\n      dup3\n        /* \"#utility.yul\":10058:10095   */\n      tag_63\n      jump\t// in\n    tag_212:\n        /* \"#utility.yul\":10160:10178   */\n      0xffffffffffffffff\n        /* \"#utility.yul\":10152:10158   */\n      dup2\n        /* \"#utility.yul\":10149:10179   */\n      gt\n        /* \"#utility.yul\":10146:10202   */\n      iszero\n      tag_213\n      jumpi\n        /* \"#utility.yul\":10182:10200   */\n      tag_214\n      tag_54\n      jump\t// in\n    tag_214:\n        /* \"#utility.yul\":10146:10202   */\n    tag_213:\n        /* \"#utility.yul\":10226:10264   */\n      tag_215\n        /* \"#utility.yul\":10258:10262   */\n      dup3\n        /* \"#utility.yul\":10252:10263   */\n      sload\n        /* \"#utility.yul\":10226:10264   */\n      tag_32\n      jump\t// in\n    tag_215:\n        /* \"#utility.yul\":10311:10378   */\n      tag_216\n        /* \"#utility.yul\":10371:10377   */\n      dup3\n        /* \"#utility.yul\":10363:10369   */\n      dup3\n        /* \"#utility.yul\":10357:10361   */\n      dup6\n        /* \"#utility.yul\":10311:10378   */\n      tag_84\n      jump\t// in\n    tag_216:\n        /* \"#utility.yul\":10405:10406   */\n      0x00\n        /* \"#utility.yul\":10429:10433   */\n      0x20\n        /* \"#utility.yul\":10416:10433   */\n      swap1\n      pop\n        /* \"#utility.yul\":10461:10463   */\n      0x1f\n        /* \"#utility.yul\":10453:10459   */\n      dup4\n        /* \"#utility.yul\":10450:10464   */\n      gt\n        /* \"#utility.yul\":10478:10479   */\n      0x01\n        /* \"#utility.yul\":10473:11091   */\n      dup2\n      eq\n      tag_218\n      jumpi\n        /* \"#utility.yul\":11135:11136   */\n      0x00\n        /* \"#utility.yul\":11152:11158   */\n      dup5\n        /* \"#utility.yul\":11149:11226   */\n      iszero\n      tag_219\n      jumpi\n        /* \"#utility.yul\":11201:11210   */\n      dup3\n        /* \"#utility.yul\":11196:11199   */\n      dup8\n        /* \"#utility.yul\":11192:11211   */\n      add\n        /* \"#utility.yul\":11186:11212   */\n      mload\n        /* \"#utility.yul\":11177:11212   */\n      swap1\n      pop\n        /* \"#utility.yul\":11149:11226   */\n    tag_219:\n        /* \"#utility.yul\":11252:11319   */\n      tag_220\n        /* \"#utility.yul\":11312:11318   */\n      dup6\n        /* \"#utility.yul\":11305:11310   */\n      dup3\n        /* \"#utility.yul\":11252:11319   */\n      tag_87\n      jump\t// in\n    tag_220:\n        /* \"#utility.yul\":11246:11250   */\n      dup7\n        /* \"#utility.yul\":11239:11320   */\n      sstore\n        /* \"#utility.yul\":11108:11330   */\n      pop\n        /* \"#utility.yul\":10443:11330   */\n      jump(tag_217)\n        /* \"#utility.yul\":10473:11091   */\n    tag_218:\n        /* \"#utility.yul\":10525:10529   */\n      0x1f\n        /* \"#utility.yul\":10521:10530   */\n      not\n        /* \"#utility.yul\":10513:10519   */\n      dup5\n        /* \"#utility.yul\":10509:10531   */\n      and\n        /* \"#utility.yul\":10559:10596   */\n      tag_221\n        /* \"#utility.yul\":10591:10595   */\n      dup7\n        /* \"#utility.yul\":10559:10596   */\n      tag_73\n      jump\t// in\n    tag_221:\n        /* \"#utility.yul\":10618:10619   */\n      0x00\n        /* \"#utility.yul\":10632:10840   */\n    tag_222:\n        /* \"#utility.yul\":10646:10653   */\n      dup3\n        /* \"#utility.yul\":10643:10644   */\n      dup2\n        /* \"#utility.yul\":10640:10654   */\n      lt\n        /* \"#utility.yul\":10632:10840   */\n      iszero\n      tag_224\n      jumpi\n        /* \"#utility.yul\":10725:10734   */\n      dup5\n        /* \"#utility.yul\":10720:10723   */\n      dup10\n        /* \"#utility.yul\":10716:10735   */\n      add\n        /* \"#utility.yul\":10710:10736   */\n      mload\n        /* \"#utility.yul\":10702:10708   */\n      dup3\n        /* \"#utility.yul\":10695:10737   */\n      sstore\n        /* \"#utility.yul\":10776:10777   */\n      0x01\n        /* \"#utility.yul\":10768:10774   */\n      dup3\n        /* \"#utility.yul\":10764:10778   */\n      add\n        /* \"#utility.yul\":10754:10778   */\n      swap2\n      pop\n        /* \"#utility.yul\":10823:10825   */\n      0x20\n        /* \"#utility.yul\":10812:10821   */\n      dup6\n        /* \"#utility.yul\":10808:10826   */\n      add\n        /* \"#utility.yul\":10795:10826   */\n      swap5\n      pop\n        /* \"#utility.yul\":10669:10673   */\n      0x20\n        /* \"#utility.yul\":10666:10667   */\n      dup2\n        /* \"#utility.yul\":10662:10674   */\n      add\n        /* \"#utility.yul\":10657:10674   */\n      swap1\n      pop\n        /* \"#utility.yul\":10632:10840   */\n      jump(tag_222)\n    tag_224:\n        /* \"#utility.yul\":10868:10874   */\n      dup7\n        /* \"#utility.yul\":10859:10866   */\n      dup4\n        /* \"#utility.yul\":10856:10875   */\n      lt\n        /* \"#utility.yul\":10853:11032   */\n      iszero\n      tag_225\n      jumpi\n        /* \"#utility.yul\":10926:10935   */\n      dup5\n        /* \"#utility.yul\":10921:10924   */\n      dup10\n        /* \"#utility.yul\":10917:10936   */\n      add\n        /* \"#utility.yul\":10911:10937   */\n      mload\n        /* \"#utility.yul\":10969:11017   */\n      tag_226\n        /* \"#utility.yul\":11011:11015   */\n      0x1f\n        /* \"#utility.yul\":11003:11009   */\n      dup10\n        /* \"#utility.yul\":10999:11016   */\n      and\n        /* \"#utility.yul\":10988:10997   */\n      dup3\n        /* \"#utility.yul\":10969:11017   */\n      tag_86\n      jump\t// in\n    tag_226:\n        /* \"#utility.yul\":10961:10967   */\n      dup4\n        /* \"#utility.yul\":10954:11018   */\n      sstore\n        /* \"#utility.yul\":10876:11032   */\n      pop\n        /* \"#utility.yul\":10853:11032   */\n    tag_225:\n        /* \"#utility.yul\":11078:11079   */\n      0x01\n        /* \"#utility.yul\":11074:11075   */\n      0x02\n        /* \"#utility.yul\":11066:11072   */\n      dup9\n        /* \"#utility.yul\":11062:11076   */\n      mul\n        /* \"#utility.yul\":11058:11080   */\n      add\n        /* \"#utility.yul\":11052:11056   */\n      dup9\n        /* \"#utility.yul\":11045:11081   */\n      sstore\n        /* \"#utility.yul\":10480:11091   */\n      pop\n      pop\n      pop\n        /* \"#utility.yul\":10443:11330   */\n    tag_217:\n      pop\n        /* \"#utility.yul\":10033:11336   */\n      pop\n      pop\n      pop\n        /* \"#utility.yul\":9941:11336   */\n      pop\n      pop\n      jump\t// out\n        /* \"#utility.yul\":11342:11522   */\n    tag_88:\n        /* \"#utility.yul\":11390:11467   */\n      0x4e487b7100000000000000000000000000000000000000000000000000000000\n        /* \"#utility.yul\":11387:11388   */\n      0x00\n        /* \"#utility.yul\":11380:11468   */\n      mstore\n        /* \"#utility.yul\":11487:11491   */\n      0x11\n        /* \"#utility.yul\":11484:11485   */\n      0x04\n        /* \"#utility.yul\":11477:11492   */\n      mstore\n        /* \"#utility.yul\":11511:11515   */\n      0x24\n        /* \"#utility.yul\":11508:11509   */\n      0x00\n        /* \"#utility.yul\":11501:11516   */\n      revert\n        /* \"#utility.yul\":11528:11761   */\n    tag_30:\n        /* \"#utility.yul\":11567:11570   */\n      0x00\n        /* \"#utility.yul\":11590:11614   */\n      tag_229\n        /* \"#utility.yul\":11608:11613   */\n      dup3\n        /* \"#utility.yul\":11590:11614   */\n      tag_46\n      jump\t// in\n    tag_229:\n        /* \"#utility.yul\":11581:11614   */\n      swap2\n      pop\n        /* \"#utility.yul\":11636:11702   */\n      0xffffffffffffffffffffffffffffffffffffffffffffffffffffffffffffffff\n        /* \"#utility.yul\":11629:11634   */\n      dup3\n        /* \"#utility.yul\":11626:11703   */\n      sub\n        /* \"#utility.yul\":11623:11726   */\n      tag_230\n      jumpi\n        /* \"#utility.yul\":11706:11724   */\n      tag_231\n      tag_88\n      jump\t// in\n    tag_231:\n        /* \"#utility.yul\":11623:11726   */\n    tag_230:\n        /* \"#utility.yul\":11753:11754   */\n      0x01\n        /* \"#utility.yul\":11746:11751   */\n      dup3\n        /* \"#utility.yul\":11742:11755   */\n      add\n        /* \"#utility.yul\":11735:11755   */\n      swap1\n      pop\n        /* \"#utility.yul\":11528:11761   */\n      swap2\n      swap1\n      pop\n      jump\t// out\n        /* \"#utility.yul\":11767:11929   */\n    tag_89:\n        /* \"#utility.yul\":11907:11921   */\n      0x416c726561647920736f6c640000000000000000000000000000000000000000\n        /* \"#utility.yul\":11903:11904   */\n      0x00\n        /* \"#utility.yul\":11895:11901   */\n      dup3\n        /* \"#utility.yul\":11891:11905   */\n      add\n        /* \"#utility.yul\":11884:11922   */\n      mstore\n        /* \"#utility.yul\":11767:11929   */\n      pop\n      jump\t// out\n        /* \"#utility.yul\":11935:12301   */\n    tag_90:\n        /* \"#utility.yul\":12077:12080   */\n      0x00\n        /* \"#utility.yul\":12098:12165   */\n      tag_234\n        /* \"#utility.yul\":12162:12164   */\n      0x0c\n        /* \"#utility.yul\":12157:12160   */\n      dup4\n        /* \"#utility.yul\":12098:12165   */\n      tag_64\n      jump\t// in\n    tag_234:\n        /* \"#utility.yul\":12091:12165   */\n      swap2\n      pop\n        /* \"#utility.yul\":12174:12267   */\n      tag_235\n        /* \"#utility.yul\":12263:12266   */\n      dup3\n        /* \"#utility.yul\":12174:12267   */\n      tag_89\n      jump\t// in\n    tag_235:\n        /* \"#utility.yul\":12292:12294   */\n      0x20\n        /* \"#utility.yul\":12287:12290   */\n      dup3\n        /* \"#utility.yul\":12283:12295   */\n      add\n        /* \"#utility.yul\":12276:12295   */\n      swap1\n      pop\n        /* \"#utility.yul\":11935:12301   */\n      swap2\n      swap1\n      pop\n      jump\t// out\n        /* \"#utility.yul\":12307:12726   */\n    tag_40:\n        /* \"#utility.yul\":12473:12477   */\n      0x00\n        /* \"#utility.yul\":12511:12513   */\n      0x20\n        /* \"#utility.yul\":12500:12509   */\n      dup3\n        /* \"#utility.yul\":12496:12514   */\n      add\n        /* \"#utility.yul\":12488:12514   */\n      swap1\n      pop\n        /* \"#utility.yul\":12560:12569   */\n      dup2\n        /* \"#utility.yul\":12554:12558   */\n      dup2\n        /* \"#utility.yul\":12550:12570   */\n      sub\n        /* \"#utility.yul\":12546:12547   */\n      0x00\n        /* \"#utility.yul\":12535:12544   */\n      dup4\n        /* \"#utility.yul\":12531:12548   */\n      add\n        /* \"#utility.yul\":12524:12571   */\n      mstore\n        /* \"#utility.yul\":12588:12719   */\n      tag_237\n        /* \"#utility.yul\":12714:12718   */\n      dup2\n        /* \"#utility.yul\":12588:12719   */\n      tag_90\n      jump\t// in\n    tag_237:\n        /* \"#utility.yul\":12580:12719   */\n      swap1\n      pop\n        /* \"#utility.yul\":12307:12726   */\n      swap2\n      swap1\n      pop\n      jump\t// out\n        /* \"#utility.yul\":12732:12894   */\n    tag_91:\n        /* \"#utility.yul\":12872:12886   */\n      0x57726f6e6720616d6f756e740000000000000000000000000000000000000000\n        /* \"#utility.yul\":12868:12869   */\n      0x00\n        /* \"#utility.yul\":12860:12866   */\n      dup3\n        /* \"#utility.yul\":12856:12870   */\n      add\n        /* \"#utility.yul\":12849:12887   */\n      mstore\n        /* \"#utility.yul\":12732:12894   */\n      pop\n      jump\t// out\n        /* \"#utility.yul\":12900:13266   */\n    tag_92:\n        /* \"#utility.yul\":13042:13045   */\n      0x00\n        /* \"#utility.yul\":13063:13130   */\n      tag_240\n        /* \"#utility.yul\":13127:13129   */\n      0x0c\n        /* \"#utility.yul\":13122:13125   */\n      dup4\n        /* \"#utility.yul\":13063:13130   */\n      tag_64\n      jump\t// in\n    tag_240:\n        /* \"#utility.yul\":13056:13130   */\n      swap2\n      pop\n        /* \"#utility.yul\":13139:13232   */\n      tag_241\n        /* \"#utility.yul\":13228:13231   */\n      dup3\n        /* \"#utility.yul\":13139:13232   */\n      tag_91\n      jump\t// in\n    tag_241:\n        /* \"#utility.yul\":13257:13259   */\n      0x20\n        /* \"#utility.yul\":13252:13255   */\n      dup3\n        /* \"#utility.yul\":13248:13260   */\n      add\n        /* \"#utility.yul\":13241:13260   */\n      swap1\n      pop\n        /* \"#utility.yul\":12900:13266   */\n      swap2\n      swap1\n      pop\n      jump\t// out\n        /* \"#utility.yul\":13272:13691   */\n    tag_43:\n        /* \"#utility.yul\":13438:13442   */\n      0x00\n        /* \"#utility.yul\":13476:13478   */\n      0x20\n        /* \"#utility.yul\":13465:13474   */\n      dup3\n        /* \"#utility.yul\":13461:13479   */\n      add\n        /* \"#utility.yul\":13453:13479   */\n      swap1\n      pop\n        /* \"#utility.yul\":13525:13534   */\n      dup2\n        /* \"#utility.yul\":13519:13523   */\n      dup2\n        /* \"#utility.yul\":13515:13535   */\n      sub\n        /* \"#utility.yul\":13511:13512   */\n      0x00\n        /* \"#utility.yul\":13500:13509   */\n      dup4\n        /* \"#utility.yul\":13496:13513   */\n      add\n        /* \"#utility.yul\":13489:13536   */\n      mstore\n        /* \"#utility.yul\":13553:13684   */\n      tag_243\n        /* \"#utility.yul\":13679:13683   */\n      dup2\n        /* \"#utility.yul\":13553:13684   */\n      tag_92\n      jump\t// in\n    tag_243:\n        /* \"#utility.yul\":13545:13684   */\n      swap1\n      pop\n        /* \"#utility.yul\":13272:13691   */\n      swap2\n      swap1\n      pop\n      jump\t// out\n\n    auxdata: 0xa2646970667358221220bd8424d43df0b5d87a0f618c235c163fbcc7470fd895b4163c92b613bca8714364736f6c63430008170033\n}\n",
				"bytecode": {
					"linkReferences": {},
					"object": "608060405234801561000f575f80fd5b50610ba58061001d5f395ff3fe60806040526004361061003e575f3560e01c806361b8ce8c146100425780638511c9371461006c578063bfb231d214610094578063e7fb74c7146100d4575b5f80fd5b34801561004d575f80fd5b506100566100f0565b6040516100639190610422565b60405180910390f35b348015610077575f80fd5b50610092600480360381019061008d91906105b2565b6100f5565b005b34801561009f575f80fd5b506100ba60048036038101906100b5919061060c565b6101f2565b6040516100cb95949392919061070a565b60405180910390f35b6100ee60048036038101906100e9919061060c565b6102d6565b005b5f5481565b6040518060a001604052805f5481526020018381526020018281526020013373ffffffffffffffffffffffffffffffffffffffff1681526020015f151581525060015f805481526020019081526020015f205f820151815f01556020820151816001019081610164919061095c565b50604082015181600201556060820151816003015f6101000a81548173ffffffffffffffffffffffffffffffffffffffff021916908373ffffffffffffffffffffffffffffffffffffffff16021790555060808201518160030160146101000a81548160ff0219169083151502179055509050505f808154809291906101e990610a58565b91905055505050565b6001602052805f5260405f205f91509050805f0154908060010180546102179061078f565b80601f01602080910402602001604051908101604052809291908181526020018280546102439061078f565b801561028e5780601f106102655761010080835404028352916020019161028e565b820191905f5260205f20905b81548152906001019060200180831161027157829003601f168201915b505050505090806002015490806003015f9054906101000a900473ffffffffffffffffffffffffffffffffffffffff16908060030160149054906101000a900460ff16905085565b5f60015f8381526020019081526020015f2090508060030160149054906101000a900460ff161561033c576040517f08c379a000000000000000000000000000000000000000000000000000000000815260040161033390610ae9565b60405180910390fd5b80600201543414610382576040517f08c379a000000000000000000000000000000000000000000000000000000000815260040161037990610b51565b60405180910390fd5b60018160030160146101000a81548160ff021916908315150217905550806003015f9054906101000a900473ffffffffffffffffffffffffffffffffffffffff1673ffffffffffffffffffffffffffffffffffffffff166108fc3490811502906040515f60405180830381858888f19350505050158015610405573d5f803e3d5ffd5b505050565b5f819050919050565b61041c8161040a565b82525050565b5f6020820190506104355f830184610413565b92915050565b5f604051905090565b5f80fd5b5f80fd5b5f80fd5b5f80fd5b5f601f19601f8301169050919050565b7f4e487b71000000000000000000000000000000000000000000000000000000005f52604160045260245ffd5b61049a82610454565b810181811067ffffffffffffffff821117156104b9576104b8610464565b5b80604052505050565b5f6104cb61043b565b90506104d78282610491565b919050565b5f67ffffffffffffffff8211156104f6576104f5610464565b5b6104ff82610454565b9050602081019050919050565b828183375f83830152505050565b5f61052c610527846104dc565b6104c2565b90508281526020810184848401111561054857610547610450565b5b61055384828561050c565b509392505050565b5f82601f83011261056f5761056e61044c565b5b813561057f84826020860161051a565b91505092915050565b6105918161040a565b811461059b575f80fd5b50565b5f813590506105ac81610588565b92915050565b5f80604083850312156105c8576105c7610444565b5b5f83013567ffffffffffffffff8111156105e5576105e4610448565b5b6105f18582860161055b565b92505060206106028582860161059e565b9150509250929050565b5f6020828403121561062157610620610444565b5b5f61062e8482850161059e565b91505092915050565b5f81519050919050565b5f82825260208201905092915050565b5f5b8381101561066e578082015181840152602081019050610653565b5f8484015250505050565b5f61068382610637565b61068d8185610641565b935061069d818560208601610651565b6106a681610454565b840191505092915050565b5f73ffffffffffffffffffffffffffffffffffffffff82169050919050565b5f6106da826106b1565b9050919050565b6106ea816106d0565b82525050565b5f8115159050919050565b610704816106f0565b82525050565b5f60a08201905061071d5f830188610413565b818103602083015261072f8187610679565b905061073e6040830186610413565b61074b60608301856106e1565b61075860808301846106fb565b9695505050505050565b7f4e487b71000000000000000000000000000000000000000000000000000000005f52602260045260245ffd5b5f60028204905060018216806107a657607f821691505b6020821081036107b9576107b8610762565b5b50919050565b5f819050815f5260205f209050919050565b5f6020601f8301049050919050565b5f82821b905092915050565b5f6008830261081b7fffffffffffffffffffffffffffffffffffffffffffffffffffffffffffffffff826107e0565b61082586836107e0565b95508019841693508086168417925050509392505050565b5f819050919050565b5f61086061085b6108568461040a565b61083d565b61040a565b9050919050565b5f819050919050565b61087983610846565b61088d61088582610867565b8484546107ec565b825550505050565b5f90565b6108a1610895565b6108ac818484610870565b505050565b5b818110156108cf576108c45f82610899565b6001810190506108b2565b5050565b601f821115610914576108e5816107bf565b6108ee846107d1565b810160208510156108fd578190505b610911610909856107d1565b8301826108b1565b50505b505050565b5f82821c905092915050565b5f6109345f1984600802610919565b1980831691505092915050565b5f61094c8383610925565b9150826002028217905092915050565b61096582610637565b67ffffffffffffffff81111561097e5761097d610464565b5b610988825461078f565b6109938282856108d3565b5f60209050601f8311600181146109c4575f84156109b2578287015190505b6109bc8582610941565b865550610a23565b601f1984166109d2866107bf565b5f5b828110156109f9578489015182556001820191506020850194506020810190506109d4565b86831015610a165784890151610a12601f891682610925565b8355505b6001600288020188555050505b505050505050565b7f4e487b71000000000000000000000000000000000000000000000000000000005f52601160045260245ffd5b5f610a628261040a565b91507fffffffffffffffffffffffffffffffffffffffffffffffffffffffffffffffff8203610a9457610a93610a2b565b5b600182019050919050565b7f416c726561647920736f6c6400000000000000000000000000000000000000005f82015250565b5f610ad3600c83610641565b9150610ade82610a9f565b602082019050919050565b5f6020820190508181035f830152610b0081610ac7565b9050919050565b7f57726f6e6720616d6f756e7400000000000000000000000000000000000000005f82015250565b5f610b3b600c83610641565b9150610b4682610b07565b602082019050919050565b5f6020820190508181035f830152610b6881610b2f565b905091905056fea2646970667358221220bd8424d43df0b5d87a0f618c235c163fbcc7470fd895b4163c92b613bca8714364736f6c63430008170033",
					"opcodes": "PUSH1 0x80 PUSH1 0x40 MSTORE CALLVALUE DUP1 ISZERO PUSH2 0xF JUMPI PUSH0 DUP1 REVERT JUMPDEST POP PUSH2 0xBA5 DUP1 PUSH2 0x1D PUSH0 CODECOPY PUSH0 RETURN INVALID PUSH1 0x80 PUSH1 0x40 MSTORE PUSH1 0x4 CALLDATASIZE LT PUSH2 0x3E JUMPI PUSH0 CALLDATALOAD PUSH1 0xE0 SHR DUP1 PUSH4 0x61B8CE8C EQ PUSH2 0x42 JUMPI DUP1 PUSH4 0x8511C937 EQ PUSH2 0x6C JUMPI DUP1 PUSH4 0xBFB231D2 EQ PUSH2 0x94 JUMPI DUP1 PUSH4 0xE7FB74C7 EQ PUSH2 0xD4 JUMPI JUMPDEST PUSH0 DUP1 REVERT JUMPDEST CALLVALUE DUP1 ISZERO PUSH2 0x4D JUMPI PUSH0 DUP1 REVERT JUMPDEST POP PUSH2 0x56 PUSH2 0xF0 JUMP JUMPDEST PUSH1 0x40 MLOAD PUSH2 0x63 SWAP2 SWAP1 PUSH2 0x422 JUMP JUMPDEST PUSH1 0x40 MLOAD DUP1 SWAP2 SUB SWAP1 RETURN JUMPDEST CALLVALUE DUP1 ISZERO PUSH2 0x77 JUMPI PUSH0 DUP1 REVERT JUMPDEST POP PUSH2 0x92 PUSH1 0x4 DUP1 CALLDATASIZE SUB DUP2 ADD SWAP1 PUSH2 0x8D SWAP2 SWAP1 PUSH2 0x5B2 JUMP JUMPDEST PUSH2 0xF5 JUMP JUMPDEST STOP JUMPDEST CALLVALUE DUP1 ISZERO PUSH2 0x9F JUMPI PUSH0 DUP1 REVERT JUMPDEST POP PUSH2 0xBA PUSH1 0x4 DUP1 CALLDATASIZE SUB DUP2 ADD SWAP1 PUSH2 0xB5 SWAP2 SWAP1 PUSH2 0x60C JUMP JUMPDEST PUSH2 0x1F2 JUMP JUMPDEST PUSH1 0x40 MLOAD PUSH2 0xCB SWAP6 SWAP5 SWAP4 SWAP3 SWAP2 SWAP1 PUSH2 0x70A JUMP JUMPDEST PUSH1 0x40 MLOAD DUP1 SWAP2 SUB SWAP1 RETURN JUMPDEST PUSH2 0xEE PUSH1 0x4 DUP1 CALLDATASIZE SUB DUP2 ADD SWAP1 PUSH2 0xE9 SWAP2 SWAP1 PUSH2 0x60C JUMP JUMPDEST PUSH2 0x2D6 JUMP JUMPDEST STOP JUMPDEST PUSH0 SLOAD DUP2 JUMP JUMPDEST PUSH1 0x40 MLOAD DUP1 PUSH1 0xA0 ADD PUSH1 0x40 MSTORE DUP1 PUSH0 SLOAD DUP2 MSTORE PUSH1 0x20 ADD DUP4 DUP2 MSTORE PUSH1 0x20 ADD DUP3 DUP2 MSTORE PUSH1 0x20 ADD CALLER PUSH20 0xFFFFFFFFFFFFFFFFFFFFFFFFFFFFFFFFFFFFFFFF AND DUP2 MSTORE PUSH1 0x20 ADD PUSH0 ISZERO ISZERO DUP2 MSTORE POP PUSH1 0x1 PUSH0 DUP1 SLOAD DUP2 MSTORE PUSH1 0x20 ADD SWAP1 DUP2 MSTORE PUSH1 0x20 ADD PUSH0 KECCAK256 PUSH0 DUP3 ADD MLOAD DUP2 PUSH0 ADD SSTORE PUSH1 0x20 DUP3 ADD MLOAD DUP2 PUSH1 0x1 ADD SWAP1 DUP2 PUSH2 0x164 SWAP2 SWAP1 PUSH2 0x95C JUMP JUMPDEST POP PUSH1 0x40 DUP3 ADD MLOAD DUP2 PUSH1 0x2 ADD SSTORE PUSH1 0x60 DUP3 ADD MLOAD DUP2 PUSH1 0x3 ADD PUSH0 PUSH2 0x100 EXP DUP2 SLOAD DUP2 PUSH20 0xFFFFFFFFFFFFFFFFFFFFFFFFFFFFFFFFFFFFFFFF MUL NOT AND SWAP1 DUP4 PUSH20 0xFFFFFFFFFFFFFFFFFFFFFFFFFFFFFFFFFFFFFFFF AND MUL OR SWAP1 SSTORE POP PUSH1 0x80 DUP3 ADD MLOAD DUP2 PUSH1 0x3 ADD PUSH1 0x14 PUSH2 0x100 EXP DUP2 SLOAD DUP2 PUSH1 0xFF MUL NOT AND SWAP1 DUP4 ISZERO ISZERO MUL OR SWAP1 SSTORE POP SWAP1 POP POP PUSH0 DUP1 DUP2 SLOAD DUP1 SWAP3 SWAP2 SWAP1 PUSH2 0x1E9 SWAP1 PUSH2 0xA58 JUMP JUMPDEST SWAP2 SWAP1 POP SSTORE POP POP POP JUMP JUMPDEST PUSH1 0x1 PUSH1 0x20 MSTORE DUP1 PUSH0 MSTORE PUSH1 0x40 PUSH0 KECCAK256 PUSH0 SWAP2 POP SWAP1 POP DUP1 PUSH0 ADD SLOAD SWAP1 DUP1 PUSH1 0x1 ADD DUP1 SLOAD PUSH2 0x217 SWAP1 PUSH2 0x78F JUMP JUMPDEST DUP1 PUSH1 0x1F ADD PUSH1 0x20 DUP1 SWAP2 DIV MUL PUSH1 0x20 ADD PUSH1 0x40 MLOAD SWAP1 DUP2 ADD PUSH1 0x40 MSTORE DUP1 SWAP3 SWAP2 SWAP1 DUP2 DUP2 MSTORE PUSH1 0x20 ADD DUP3 DUP1 SLOAD PUSH2 0x243 SWAP1 PUSH2 0x78F JUMP JUMPDEST DUP1 ISZERO PUSH2 0x28E JUMPI DUP1 PUSH1 0x1F LT PUSH2 0x265 JUMPI PUSH2 0x100 DUP1 DUP4 SLOAD DIV MUL DUP4 MSTORE SWAP2 PUSH1 0x20 ADD SWAP2 PUSH2 0x28E JUMP JUMPDEST DUP3 ADD SWAP2 SWAP1 PUSH0 MSTORE PUSH1 0x20 PUSH0 KECCAK256 SWAP1 JUMPDEST DUP2 SLOAD DUP2 MSTORE SWAP1 PUSH1 0x1 ADD SWAP1 PUSH1 0x20 ADD DUP1 DUP4 GT PUSH2 0x271 JUMPI DUP3 SWAP1 SUB PUSH1 0x1F AND DUP3 ADD SWAP2 JUMPDEST POP POP POP POP POP SWAP1 DUP1 PUSH1 0x2 ADD SLOAD SWAP1 DUP1 PUSH1 0x3 ADD PUSH0 SWAP1 SLOAD SWAP1 PUSH2 0x100 EXP SWAP1 DIV PUSH20 0xFFFFFFFFFFFFFFFFFFFFFFFFFFFFFFFFFFFFFFFF AND SWAP1 DUP1 PUSH1 0x3 ADD PUSH1 0x14 SWAP1 SLOAD SWAP1 PUSH2 0x100 EXP SWAP1 DIV PUSH1 0xFF AND SWAP1 POP DUP6 JUMP JUMPDEST PUSH0 PUSH1 0x1 PUSH0 DUP4 DUP2 MSTORE PUSH1 0x20 ADD SWAP1 DUP2 MSTORE PUSH1 0x20 ADD PUSH0 KECCAK256 SWAP1 POP DUP1 PUSH1 0x3 ADD PUSH1 0x14 SWAP1 SLOAD SWAP1 PUSH2 0x100 EXP SWAP1 DIV PUSH1 0xFF AND ISZERO PUSH2 0x33C JUMPI PUSH1 0x40 MLOAD PUSH32 0x8C379A000000000000000000000000000000000000000000000000000000000 DUP2 MSTORE PUSH1 0x4 ADD PUSH2 0x333 SWAP1 PUSH2 0xAE9 JUMP JUMPDEST PUSH1 0x40 MLOAD DUP1 SWAP2 SUB SWAP1 REVERT JUMPDEST DUP1 PUSH1 0x2 ADD SLOAD CALLVALUE EQ PUSH2 0x382 JUMPI PUSH1 0x40 MLOAD PUSH32 0x8C379A000000000000000000000000000000000000000000000000000000000 DUP2 MSTORE PUSH1 0x4 ADD PUSH2 0x379 SWAP1 PUSH2 0xB51 JUMP JUMPDEST PUSH1 0x40 MLOAD DUP1 SWAP2 SUB SWAP1 REVERT JUMPDEST PUSH1 0x1 DUP2 PUSH1 0x3 ADD PUSH1 0x14 PUSH2 0x100 EXP DUP2 SLOAD DUP2 PUSH1 0xFF MUL NOT AND SWAP1 DUP4 ISZERO ISZERO MUL OR SWAP1 SSTORE POP DUP1 PUSH1 0x3 ADD PUSH0 SWAP1 SLOAD SWAP1 PUSH2 0x100 EXP SWAP1 DIV PUSH20 0xFFFFFFFFFFFFFFFFFFFFFFFFFFFFFFFFFFFFFFFF AND PUSH20 0xFFFFFFFFFFFFFFFFFFFFFFFFFFFFFFFFFFFFFFFF AND PUSH2 0x8FC CALLVALUE SWAP1 DUP2 ISZERO MUL SWAP1 PUSH1 0x40 MLOAD PUSH0 PUSH1 0x40 MLOAD DUP1 DUP4 SUB DUP2 DUP6 DUP9 DUP9 CALL SWAP4 POP POP POP POP ISZERO DUP1 ISZERO PUSH2 0x405 JUMPI RETURNDATASIZE PUSH0 DUP1 RETURNDATACOPY RETURNDATASIZE PUSH0 REVERT JUMPDEST POP POP POP JUMP JUMPDEST PUSH0 DUP2 SWAP1 POP SWAP2 SWAP1 POP JUMP JUMPDEST PUSH2 0x41C DUP2 PUSH2 0x40A JUMP JUMPDEST DUP3 MSTORE POP POP JUMP JUMPDEST PUSH0 PUSH1 0x20 DUP3 ADD SWAP1 POP PUSH2 0x435 PUSH0 DUP4 ADD DUP5 PUSH2 0x413 JUMP JUMPDEST SWAP3 SWAP2 POP POP JUMP JUMPDEST PUSH0 PUSH1 0x40 MLOAD SWAP1 POP SWAP1 JUMP JUMPDEST PUSH0 DUP1 REVERT JUMPDEST PUSH0 DUP1 REVERT JUMPDEST PUSH0 DUP1 REVERT JUMPDEST PUSH0 DUP1 REVERT JUMPDEST PUSH0 PUSH1 0x1F NOT PUSH1 0x1F DUP4 ADD AND SWAP1 POP SWAP2 SWAP1 POP JUMP JUMPDEST PUSH32 0x4E487B7100000000000000000000000000000000000000000000000000000000 PUSH0 MSTORE PUSH1 0x41 PUSH1 0x4 MSTORE PUSH1 0x24 PUSH0 REVERT JUMPDEST PUSH2 0x49A DUP3 PUSH2 0x454 JUMP JUMPDEST DUP2 ADD DUP2 DUP2 LT PUSH8 0xFFFFFFFFFFFFFFFF DUP3 GT OR ISZERO PUSH2 0x4B9 JUMPI PUSH2 0x4B8 PUSH2 0x464 JUMP JUMPDEST JUMPDEST DUP1 PUSH1 0x40 MSTORE POP POP POP JUMP JUMPDEST PUSH0 PUSH2 0x4CB PUSH2 0x43B JUMP JUMPDEST SWAP1 POP PUSH2 0x4D7 DUP3 DUP3 PUSH2 0x491 JUMP JUMPDEST SWAP2 SWAP1 POP JUMP JUMPDEST PUSH0 PUSH8 0xFFFFFFFFFFFFFFFF DUP3 GT ISZERO PUSH2 0x4F6 JUMPI PUSH2 0x4F5 PUSH2 0x464 JUMP JUMPDEST JUMPDEST PUSH2 0x4FF DUP3 PUSH2 0x454 JUMP JUMPDEST SWAP1 POP PUSH1 0x20 DUP2 ADD SWAP1 POP SWAP2 SWAP1 POP JUMP JUMPDEST DUP3 DUP2 DUP4 CALLDATACOPY PUSH0 DUP4 DUP4 ADD MSTORE POP POP POP JUMP JUMPDEST PUSH0 PUSH2 0x52C PUSH2 0x527 DUP5 PUSH2 0x4DC JUMP JUMPDEST PUSH2 0x4C2 JUMP JUMPDEST SWAP1 POP DUP3 DUP2 MSTORE PUSH1 0x20 DUP2 ADD DUP5 DUP5 DUP5 ADD GT ISZERO PUSH2 0x548 JUMPI PUSH2 0x547 PUSH2 0x450 JUMP JUMPDEST JUMPDEST PUSH2 0x553 DUP5 DUP3 DUP6 PUSH2 0x50C JUMP JUMPDEST POP SWAP4 SWAP3 POP POP POP JUMP JUMPDEST PUSH0 DUP3 PUSH1 0x1F DUP4 ADD SLT PUSH2 0x56F JUMPI PUSH2 0x56E PUSH2 0x44C JUMP JUMPDEST JUMPDEST DUP2 CALLDATALOAD PUSH2 0x57F DUP5 DUP3 PUSH1 0x20 DUP7 ADD PUSH2 0x51A JUMP JUMPDEST SWAP2 POP POP SWAP3 SWAP2 POP POP JUMP JUMPDEST PUSH2 0x591 DUP2 PUSH2 0x40A JUMP JUMPDEST DUP2 EQ PUSH2 0x59B JUMPI PUSH0 DUP1 REVERT JUMPDEST POP JUMP JUMPDEST PUSH0 DUP2 CALLDATALOAD SWAP1 POP PUSH2 0x5AC DUP2 PUSH2 0x588 JUMP JUMPDEST SWAP3 SWAP2 POP POP JUMP JUMPDEST PUSH0 DUP1 PUSH1 0x40 DUP4 DUP6 SUB SLT ISZERO PUSH2 0x5C8 JUMPI PUSH2 0x5C7 PUSH2 0x444 JUMP JUMPDEST JUMPDEST PUSH0 DUP4 ADD CALLDATALOAD PUSH8 0xFFFFFFFFFFFFFFFF DUP2 GT ISZERO PUSH2 0x5E5 JUMPI PUSH2 0x5E4 PUSH2 0x448 JUMP JUMPDEST JUMPDEST PUSH2 0x5F1 DUP6 DUP3 DUP7 ADD PUSH2 0x55B JUMP JUMPDEST SWAP3 POP POP PUSH1 0x20 PUSH2 0x602 DUP6 DUP3 DUP7 ADD PUSH2 0x59E JUMP JUMPDEST SWAP2 POP POP SWAP3 POP SWAP3 SWAP1 POP JUMP JUMPDEST PUSH0 PUSH1 0x20 DUP3 DUP5 SUB SLT ISZERO PUSH2 0x621 JUMPI PUSH2 0x620 PUSH2 0x444 JUMP JUMPDEST JUMPDEST PUSH0 PUSH2 0x62E DUP5 DUP3 DUP6 ADD PUSH2 0x59E JUMP JUMPDEST SWAP2 POP POP SWAP3 SWAP2 POP POP JUMP JUMPDEST PUSH0 DUP2 MLOAD SWAP1 POP SWAP2 SWAP1 POP JUMP JUMPDEST PUSH0 DUP3 DUP3 MSTORE PUSH1 0x20 DUP3 ADD SWAP1 POP SWAP3 SWAP2 POP POP JUMP JUMPDEST PUSH0 JUMPDEST DUP4 DUP2 LT ISZERO PUSH2 0x66E JUMPI DUP1 DUP3 ADD MLOAD DUP2 DUP5 ADD MSTORE PUSH1 0x20 DUP2 ADD SWAP1 POP PUSH2 0x653 JUMP JUMPDEST PUSH0 DUP5 DUP5 ADD MSTORE POP POP POP POP JUMP JUMPDEST PUSH0 PUSH2 0x683 DUP3 PUSH2 0x637 JUMP JUMPDEST PUSH2 0x68D DUP2 DUP6 PUSH2 0x641 JUMP JUMPDEST SWAP4 POP PUSH2 0x69D DUP2 DUP6 PUSH1 0x20 DUP7 ADD PUSH2 0x651 JUMP JUMPDEST PUSH2 0x6A6 DUP2 PUSH2 0x454 JUMP JUMPDEST DUP5 ADD SWAP2 POP POP SWAP3 SWAP2 POP POP JUMP JUMPDEST PUSH0 PUSH20 0xFFFFFFFFFFFFFFFFFFFFFFFFFFFFFFFFFFFFFFFF DUP3 AND SWAP1 POP SWAP2 SWAP1 POP JUMP JUMPDEST PUSH0 PUSH2 0x6DA DUP3 PUSH2 0x6B1 JUMP JUMPDEST SWAP1 POP SWAP2 SWAP1 POP JUMP JUMPDEST PUSH2 0x6EA DUP2 PUSH2 0x6D0 JUMP JUMPDEST DUP3 MSTORE POP POP JUMP JUMPDEST PUSH0 DUP2 ISZERO ISZERO SWAP1 POP SWAP2 SWAP1 POP JUMP JUMPDEST PUSH2 0x704 DUP2 PUSH2 0x6F0 JUMP JUMPDEST DUP3 MSTORE POP POP JUMP JUMPDEST PUSH0 PUSH1 0xA0 DUP3 ADD SWAP1 POP PUSH2 0x71D PUSH0 DUP4 ADD DUP9 PUSH2 0x413 JUMP JUMPDEST DUP2 DUP2 SUB PUSH1 0x20 DUP4 ADD MSTORE PUSH2 0x72F DUP2 DUP8 PUSH2 0x679 JUMP JUMPDEST SWAP1 POP PUSH2 0x73E PUSH1 0x40 DUP4 ADD DUP7 PUSH2 0x413 JUMP JUMPDEST PUSH2 0x74B PUSH1 0x60 DUP4 ADD DUP6 PUSH2 0x6E1 JUMP JUMPDEST PUSH2 0x758 PUSH1 0x80 DUP4 ADD DUP5 PUSH2 0x6FB JUMP JUMPDEST SWAP7 SWAP6 POP POP POP POP POP POP JUMP JUMPDEST PUSH32 0x4E487B7100000000000000000000000000000000000000000000000000000000 PUSH0 MSTORE PUSH1 0x22 PUSH1 0x4 MSTORE PUSH1 0x24 PUSH0 REVERT JUMPDEST PUSH0 PUSH1 0x2 DUP3 DIV SWAP1 POP PUSH1 0x1 DUP3 AND DUP1 PUSH2 0x7A6 JUMPI PUSH1 0x7F DUP3 AND SWAP2 POP JUMPDEST PUSH1 0x20 DUP3 LT DUP2 SUB PUSH2 0x7B9 JUMPI PUSH2 0x7B8 PUSH2 0x762 JUMP JUMPDEST JUMPDEST POP SWAP2 SWAP1 POP JUMP JUMPDEST PUSH0 DUP2 SWAP1 POP DUP2 PUSH0 MSTORE PUSH1 0x20 PUSH0 KECCAK256 SWAP1 POP SWAP2 SWAP1 POP JUMP JUMPDEST PUSH0 PUSH1 0x20 PUSH1 0x1F DUP4 ADD DIV SWAP1 POP SWAP2 SWAP1 POP JUMP JUMPDEST PUSH0 DUP3 DUP3 SHL SWAP1 POP SWAP3 SWAP2 POP POP JUMP JUMPDEST PUSH0 PUSH1 0x8 DUP4 MUL PUSH2 0x81B PUSH32 0xFFFFFFFFFFFFFFFFFFFFFFFFFFFFFFFFFFFFFFFFFFFFFFFFFFFFFFFFFFFFFFFF DUP3 PUSH2 0x7E0 JUMP JUMPDEST PUSH2 0x825 DUP7 DUP4 PUSH2 0x7E0 JUMP JUMPDEST SWAP6 POP DUP1 NOT DUP5 AND SWAP4 POP DUP1 DUP7 AND DUP5 OR SWAP3 POP POP POP SWAP4 SWAP3 POP POP POP JUMP JUMPDEST PUSH0 DUP2 SWAP1 POP SWAP2 SWAP1 POP JUMP JUMPDEST PUSH0 PUSH2 0x860 PUSH2 0x85B PUSH2 0x856 DUP5 PUSH2 0x40A JUMP JUMPDEST PUSH2 0x83D JUMP JUMPDEST PUSH2 0x40A JUMP JUMPDEST SWAP1 POP SWAP2 SWAP1 POP JUMP JUMPDEST PUSH0 DUP2 SWAP1 POP SWAP2 SWAP1 POP JUMP JUMPDEST PUSH2 0x879 DUP4 PUSH2 0x846 JUMP JUMPDEST PUSH2 0x88D PUSH2 0x885 DUP3 PUSH2 0x867 JUMP JUMPDEST DUP5 DUP5 SLOAD PUSH2 0x7EC JUMP JUMPDEST DUP3 SSTORE POP POP POP POP JUMP JUMPDEST PUSH0 SWAP1 JUMP JUMPDEST PUSH2 0x8A1 PUSH2 0x895 JUMP JUMPDEST PUSH2 0x8AC DUP2 DUP5 DUP5 PUSH2 0x870 JUMP JUMPDEST POP POP POP JUMP JUMPDEST JUMPDEST DUP2 DUP2 LT ISZERO PUSH2 0x8CF JUMPI PUSH2 0x8C4 PUSH0 DUP3 PUSH2 0x899 JUMP JUMPDEST PUSH1 0x1 DUP2 ADD SWAP1 POP PUSH2 0x8B2 JUMP JUMPDEST POP POP JUMP JUMPDEST PUSH1 0x1F DUP3 GT ISZERO PUSH2 0x914 JUMPI PUSH2 0x8E5 DUP2 PUSH2 0x7BF JUMP JUMPDEST PUSH2 0x8EE DUP5 PUSH2 0x7D1 JUMP JUMPDEST DUP2 ADD PUSH1 0x20 DUP6 LT ISZERO PUSH2 0x8FD JUMPI DUP2 SWAP1 POP JUMPDEST PUSH2 0x911 PUSH2 0x909 DUP6 PUSH2 0x7D1 JUMP JUMPDEST DUP4 ADD DUP3 PUSH2 0x8B1 JUMP JUMPDEST POP POP JUMPDEST POP POP POP JUMP JUMPDEST PUSH0 DUP3 DUP3 SHR SWAP1 POP SWAP3 SWAP2 POP POP JUMP JUMPDEST PUSH0 PUSH2 0x934 PUSH0 NOT DUP5 PUSH1 0x8 MUL PUSH2 0x919 JUMP JUMPDEST NOT DUP1 DUP4 AND SWAP2 POP POP SWAP3 SWAP2 POP POP JUMP JUMPDEST PUSH0 PUSH2 0x94C DUP4 DUP4 PUSH2 0x925 JUMP JUMPDEST SWAP2 POP DUP3 PUSH1 0x2 MUL DUP3 OR SWAP1 POP SWAP3 SWAP2 POP POP JUMP JUMPDEST PUSH2 0x965 DUP3 PUSH2 0x637 JUMP JUMPDEST PUSH8 0xFFFFFFFFFFFFFFFF DUP2 GT ISZERO PUSH2 0x97E JUMPI PUSH2 0x97D PUSH2 0x464 JUMP JUMPDEST JUMPDEST PUSH2 0x988 DUP3 SLOAD PUSH2 0x78F JUMP JUMPDEST PUSH2 0x993 DUP3 DUP3 DUP6 PUSH2 0x8D3 JUMP JUMPDEST PUSH0 PUSH1 0x20 SWAP1 POP PUSH1 0x1F DUP4 GT PUSH1 0x1 DUP2 EQ PUSH2 0x9C4 JUMPI PUSH0 DUP5 ISZERO PUSH2 0x9B2 JUMPI DUP3 DUP8 ADD MLOAD SWAP1 POP JUMPDEST PUSH2 0x9BC DUP6 DUP3 PUSH2 0x941 JUMP JUMPDEST DUP7 SSTORE POP PUSH2 0xA23 JUMP JUMPDEST PUSH1 0x1F NOT DUP5 AND PUSH2 0x9D2 DUP7 PUSH2 0x7BF JUMP JUMPDEST PUSH0 JUMPDEST DUP3 DUP2 LT ISZERO PUSH2 0x9F9 JUMPI DUP5 DUP10 ADD MLOAD DUP3 SSTORE PUSH1 0x1 DUP3 ADD SWAP2 POP PUSH1 0x20 DUP6 ADD SWAP5 POP PUSH1 0x20 DUP2 ADD SWAP1 POP PUSH2 0x9D4 JUMP JUMPDEST DUP7 DUP4 LT ISZERO PUSH2 0xA16 JUMPI DUP5 DUP10 ADD MLOAD PUSH2 0xA12 PUSH1 0x1F DUP10 AND DUP3 PUSH2 0x925 JUMP JUMPDEST DUP4 SSTORE POP JUMPDEST PUSH1 0x1 PUSH1 0x2 DUP9 MUL ADD DUP9 SSTORE POP POP POP JUMPDEST POP POP POP POP POP POP JUMP JUMPDEST PUSH32 0x4E487B7100000000000000000000000000000000000000000000000000000000 PUSH0 MSTORE PUSH1 0x11 PUSH1 0x4 MSTORE PUSH1 0x24 PUSH0 REVERT JUMPDEST PUSH0 PUSH2 0xA62 DUP3 PUSH2 0x40A JUMP JUMPDEST SWAP2 POP PUSH32 0xFFFFFFFFFFFFFFFFFFFFFFFFFFFFFFFFFFFFFFFFFFFFFFFFFFFFFFFFFFFFFFFF DUP3 SUB PUSH2 0xA94 JUMPI PUSH2 0xA93 PUSH2 0xA2B JUMP JUMPDEST JUMPDEST PUSH1 0x1 DUP3 ADD SWAP1 POP SWAP2 SWAP1 POP JUMP JUMPDEST PUSH32 0x416C726561647920736F6C640000000000000000000000000000000000000000 PUSH0 DUP3 ADD MSTORE POP JUMP JUMPDEST PUSH0 PUSH2 0xAD3 PUSH1 0xC DUP4 PUSH2 0x641 JUMP JUMPDEST SWAP2 POP PUSH2 0xADE DUP3 PUSH2 0xA9F JUMP JUMPDEST PUSH1 0x20 DUP3 ADD SWAP1 POP SWAP2 SWAP1 POP JUMP JUMPDEST PUSH0 PUSH1 0x20 DUP3 ADD SWAP1 POP DUP2 DUP2 SUB PUSH0 DUP4 ADD MSTORE PUSH2 0xB00 DUP2 PUSH2 0xAC7 JUMP JUMPDEST SWAP1 POP SWAP2 SWAP1 POP JUMP JUMPDEST PUSH32 0x57726F6E6720616D6F756E740000000000000000000000000000000000000000 PUSH0 DUP3 ADD MSTORE POP JUMP JUMPDEST PUSH0 PUSH2 0xB3B PUSH1 0xC DUP4 PUSH2 0x641 JUMP JUMPDEST SWAP2 POP PUSH2 0xB46 DUP3 PUSH2 0xB07 JUMP JUMPDEST PUSH1 0x20 DUP3 ADD SWAP1 POP SWAP2 SWAP1 POP JUMP JUMPDEST PUSH0 PUSH1 0x20 DUP3 ADD SWAP1 POP DUP2 DUP2 SUB PUSH0 DUP4 ADD MSTORE PUSH2 0xB68 DUP2 PUSH2 0xB2F JUMP JUMPDEST SWAP1 POP SWAP2 SWAP1 POP JUMP INVALID LOG2 PUSH5 0x6970667358 0x22 SLT KECCAK256 0xBD DUP5 0x24 0xD4 RETURNDATASIZE CREATE 0xB5 0xD8 PUSH27 0xF618C235C163FBCC7470FD895B4163C92B613BCA8714364736F6C PUSH4 0x43000817 STOP CALLER "
				},
				"gasEstimates": {
					"creation": {
						"codeDepositCost": "596200",
						"executionCost": "630",
						"totalCost": "596830"
					},
					"external": {
						"buyItem(uint256)": "infinite",
						"items(uint256)": "infinite",
						"listItem(string,uint256)": "infinite",
						"nextId()": "2402"
					}
				},
				"methodIdentifiers": {
					"buyItem(uint256)": "e7fb74c7",
					"items(uint256)": "bfb231d2",
					"listItem(string,uint256)": "8511c937",
					"nextId()": "61b8ce8c"
				}
			},
			"storageLayout": {
				"storage": [
					{
						"astId": 14,
						"contract": "monad dashboard/MiniMarketplace.sol:MiniMarketplace",
						"label": "nextId",
						"offset": 0,
						"slot": "0",
						"type": "t_uint256"
					},
					{
						"astId": 19,
						"contract": "monad dashboard/MiniMarketplace.sol:MiniMarketplace",
						"label": "items",
						"offset": 0,
						"slot": "1",
						"type": "t_mapping(t_uint256,t_struct(Item)12_storage)"
					}
				],
				"types": {
					"t_address": {
						"encoding": "inplace",
						"label": "address",
						"numberOfBytes": "20"
					},
					"t_bool": {
						"encoding": "inplace",
						"label": "bool",
						"numberOfBytes": "1"
					},
					"t_mapping(t_uint256,t_struct(Item)12_storage)": {
						"encoding": "mapping",
						"key": "t_uint256",
						"label": "mapping(uint256 => struct MiniMarketplace.Item)",
						"numberOfBytes": "32",
						"value": "t_struct(Item)12_storage"
					},
					"t_string_storage": {
						"encoding": "bytes",
						"label": "string",
						"numberOfBytes": "32"
					},
					"t_struct(Item)12_storage": {
						"encoding": "inplace",
						"label": "struct MiniMarketplace.Item",
						"members": [
							{
								"astId": 3,
								"contract": "monad dashboard/MiniMarketplace.sol:MiniMarketplace",
								"label": "id",
								"offset": 0,
								"slot": "0",
								"type": "t_uint256"
							},
							{
								"astId": 5,
								"contract": "monad dashboard/MiniMarketplace.sol:MiniMarketplace",
								"label": "name",
								"offset": 0,
								"slot": "1",
								"type": "t_string_storage"
							},
							{
								"astId": 7,
								"contract": "monad dashboard/MiniMarketplace.sol:MiniMarketplace",
								"label": "price",
								"offset": 0,
								"slot": "2",
								"type": "t_uint256"
							},
							{
								"astId": 9,
								"contract": "monad dashboard/MiniMarketplace.sol:MiniMarketplace",
								"label": "seller",
								"offset": 0,
								"slot": "3",
								"type": "t_address"
							},
							{
								"astId": 11,
								"contract": "monad dashboard/MiniMarketplace.sol:MiniMarketplace",
								"label": "sold",
								"offset": 20,
								"slot": "3",
								"type": "t_bool"
							}
						],
						"numberOfBytes": "128"
					},
					"t_uint256": {
						"encoding": "inplace",
						"label": "uint256",
						"numberOfBytes": "32"
					}
				}
			},
			"userdoc": {
				"kind": "user",
				"methods": {},
				"version": 1
			}
		}
	}
}