{
	"monad dashboard/DiceGame.sol": {
		"DiceGame": {
			"abi": [
				{
					"inputs": [],
					"name": "myWins",
					"outputs": [
						{
							"internalType": "uint256",
							"name": "",
							"type": "uint256"
						}
					],
					"stateMutability": "view",
					"type": "function"
				},
				{
					"inputs": [],
					"name": "roll",
					"outputs": [],
					"stateMutability": "nonpayable",
					"type": "function"
				},
				{
					"inputs": [
						{
							"internalType": "address",
							"name": "",
							"type": "address"
						}
					],
					"name": "wins",
					"outputs": [
						{
							"internalType": "uint256",
							"name": "",
							"type": "uint256"
						}
					],
					"stateMutability": "view",
					"type": "function"
				}
			],
			"devdoc": {
				"kind": "dev",
				"methods": {},
				"version": 1
			},
			"evm": {
				"assembly": "    /* \"monad dashboard/DiceGame.sol\":28:373  contract DiceGame {... */\n  mstore(0x40, 0x80)\n  callvalue\n  dup1\n  iszero\n  tag_1\n  jumpi\n  0x00\n  dup1\n  revert\ntag_1:\n  pop\n  dataSize(sub_0)\n  dup1\n  dataOffset(sub_0)\n  0x00\n  codecopy\n  0x00\n  return\nstop\n\nsub_0: assembly {\n        /* \"monad dashboard/DiceGame.sol\":28:373  contract DiceGame {... */\n      mstore(0x40, 0x80)\n      callvalue\n      dup1\n      iszero\n      tag_1\n      jumpi\n      0x00\n      dup1\n      revert\n    tag_1:\n      pop\n      jumpi(tag_2, lt(calldatasize, 0x04))\n      shr(0xe0, calldataload(0x00))\n      dup1\n      0x8047a97a\n      eq\n      tag_3\n      jumpi\n      dup1\n      0xcd5e3c5d\n      eq\n      tag_4\n      jumpi\n      dup1\n      0xe1832410\n      eq\n      tag_5\n      jumpi\n    tag_2:\n      0x00\n      dup1\n      revert\n        /* \"monad dashboard/DiceGame.sol\":53:89  mapping(address => uint) public wins */\n    tag_3:\n      tag_6\n      0x04\n      dup1\n      calldatasize\n      sub\n      dup2\n      add\n      swap1\n      tag_7\n      swap2\n      swap1\n      tag_8\n      jump\t// in\n    tag_7:\n      tag_9\n      jump\t// in\n    tag_6:\n      mload(0x40)\n      tag_10\n      swap2\n      swap1\n      tag_11\n      jump\t// in\n    tag_10:\n      mload(0x40)\n      dup1\n      swap2\n      sub\n      swap1\n      return\n        /* \"monad dashboard/DiceGame.sol\":98:273  function roll() external {... */\n    tag_4:\n      tag_12\n      tag_13\n      jump\t// in\n    tag_12:\n      stop\n        /* \"monad dashboard/DiceGame.sol\":281:370  function myWins() external view returns (uint) {... */\n    tag_5:\n      tag_14\n      tag_15\n      jump\t// in\n    tag_14:\n      mload(0x40)\n      tag_16\n      swap2\n      swap1\n      tag_11\n      jump\t// in\n    tag_16:\n      mload(0x40)\n      dup1\n      swap2\n      sub\n      swap1\n      return\n        /* \"monad dashboard/DiceGame.sol\":53:89  mapping(address => uint) public wins */\n    tag_9:\n      mstore(0x20, 0x00)\n      dup1\n      0x00\n      mstore\n      keccak256(0x00, 0x40)\n      0x00\n      swap2\n      pop\n      swap1\n      pop\n      sload\n      dup2\n      jump\t// out\n        /* \"monad dashboard/DiceGame.sol\":98:273  function roll() external {... */\n    tag_13:\n        /* \"monad dashboard/DiceGame.sol\":134:145  uint result */\n      0x00\n        /* \"monad dashboard/DiceGame.sol\":218:219  1 */\n      0x01\n        /* \"monad dashboard/DiceGame.sol\":214:215  6 */\n      0x06\n        /* \"monad dashboard/DiceGame.sol\":198:208  msg.sender */\n      caller\n        /* \"monad dashboard/DiceGame.sol\":185:210  uint(uint160(msg.sender)) */\n      0xffffffffffffffffffffffffffffffffffffffff\n      and\n        /* \"monad dashboard/DiceGame.sol\":179:180  1 */\n      0x01\n        /* \"monad dashboard/DiceGame.sol\":164:176  block.number */\n      number\n        /* \"monad dashboard/DiceGame.sol\":164:180  block.number - 1 */\n      tag_18\n      swap2\n      swap1\n      tag_19\n      jump\t// in\n    tag_18:\n        /* \"monad dashboard/DiceGame.sol\":154:181  blockhash(block.number - 1) */\n      blockhash\n        /* \"monad dashboard/DiceGame.sol\":149:182  uint(blockhash(block.number - 1)) */\n      0x00\n      shr\n        /* \"monad dashboard/DiceGame.sol\":149:210  uint(blockhash(block.number - 1)) + uint(uint160(msg.sender)) */\n      tag_20\n      swap2\n      swap1\n      tag_21\n      jump\t// in\n    tag_20:\n        /* \"monad dashboard/DiceGame.sol\":148:215  (uint(blockhash(block.number - 1)) + uint(uint160(msg.sender))) % 6 */\n      tag_22\n      swap2\n      swap1\n      tag_23\n      jump\t// in\n    tag_22:\n        /* \"monad dashboard/DiceGame.sol\":148:219  (uint(blockhash(block.number - 1)) + uint(uint160(msg.sender))) % 6 + 1 */\n      tag_24\n      swap2\n      swap1\n      tag_21\n      jump\t// in\n    tag_24:\n        /* \"monad dashboard/DiceGame.sol\":134:219  uint result = (uint(blockhash(block.number - 1)) + uint(uint160(msg.sender))) % 6 + 1 */\n      swap1\n      pop\n        /* \"monad dashboard/DiceGame.sol\":244:245  6 */\n      0x06\n        /* \"monad dashboard/DiceGame.sol\":234:240  result */\n      dup2\n        /* \"monad dashboard/DiceGame.sol\":234:245  result == 6 */\n      sub\n        /* \"monad dashboard/DiceGame.sol\":230:265  if (result == 6) wins[msg.sender]++ */\n      tag_25\n      jumpi\n        /* \"monad dashboard/DiceGame.sol\":247:251  wins */\n      0x00\n        /* \"monad dashboard/DiceGame.sol\":247:263  wins[msg.sender] */\n      dup1\n        /* \"monad dashboard/DiceGame.sol\":252:262  msg.sender */\n      caller\n        /* \"monad dashboard/DiceGame.sol\":247:263  wins[msg.sender] */\n      0xffffffffffffffffffffffffffffffffffffffff\n      and\n      0xffffffffffffffffffffffffffffffffffffffff\n      and\n      dup2\n      mstore\n      0x20\n      add\n      swap1\n      dup2\n      mstore\n      0x20\n      add\n      0x00\n      keccak256\n      0x00\n        /* \"monad dashboard/DiceGame.sol\":247:265  wins[msg.sender]++ */\n      dup2\n      sload\n      dup1\n      swap3\n      swap2\n      swap1\n      tag_26\n      swap1\n      tag_27\n      jump\t// in\n    tag_26:\n      swap2\n      swap1\n      pop\n      sstore\n      pop\n        /* \"monad dashboard/DiceGame.sol\":230:265  if (result == 6) wins[msg.sender]++ */\n    tag_25:\n        /* \"monad dashboard/DiceGame.sol\":123:273  {... */\n      pop\n        /* \"monad dashboard/DiceGame.sol\":98:273  function roll() external {... */\n      jump\t// out\n        /* \"monad dashboard/DiceGame.sol\":281:370  function myWins() external view returns (uint) {... */\n    tag_15:\n        /* \"monad dashboard/DiceGame.sol\":322:326  uint */\n      0x00\n        /* \"monad dashboard/DiceGame.sol\":346:350  wins */\n      dup1\n        /* \"monad dashboard/DiceGame.sol\":346:362  wins[msg.sender] */\n      0x00\n        /* \"monad dashboard/DiceGame.sol\":351:361  msg.sender */\n      caller\n        /* \"monad dashboard/DiceGame.sol\":346:362  wins[msg.sender] */\n      0xffffffffffffffffffffffffffffffffffffffff\n      and\n      0xffffffffffffffffffffffffffffffffffffffff\n      and\n      dup2\n      mstore\n      0x20\n      add\n      swap1\n      dup2\n      mstore\n      0x20\n      add\n      0x00\n      keccak256\n      sload\n        /* \"monad dashboard/DiceGame.sol\":339:362  return wins[msg.sender] */\n      swap1\n      pop\n        /* \"monad dashboard/DiceGame.sol\":281:370  function myWins() external view returns (uint) {... */\n      swap1\n      jump\t// out\n        /* \"#utility.yul\":88:205   */\n    tag_30:\n        /* \"#utility.yul\":197:198   */\n      0x00\n        /* \"#utility.yul\":194:195   */\n      dup1\n        /* \"#utility.yul\":187:199   */\n      revert\n        /* \"#utility.yul\":334:460   */\n    tag_32:\n        /* \"#utility.yul\":371:378   */\n      0x00\n        /* \"#utility.yul\":411:453   */\n      0xffffffffffffffffffffffffffffffffffffffff\n        /* \"#utility.yul\":404:409   */\n      dup3\n        /* \"#utility.yul\":400:454   */\n      and\n        /* \"#utility.yul\":389:454   */\n      swap1\n      pop\n        /* \"#utility.yul\":334:460   */\n      swap2\n      swap1\n      pop\n      jump\t// out\n        /* \"#utility.yul\":466:562   */\n    tag_33:\n        /* \"#utility.yul\":503:510   */\n      0x00\n        /* \"#utility.yul\":532:556   */\n      tag_46\n        /* \"#utility.yul\":550:555   */\n      dup3\n        /* \"#utility.yul\":532:556   */\n      tag_32\n      jump\t// in\n    tag_46:\n        /* \"#utility.yul\":521:556   */\n      swap1\n      pop\n        /* \"#utility.yul\":466:562   */\n      swap2\n      swap1\n      pop\n      jump\t// out\n        /* \"#utility.yul\":568:690   */\n    tag_34:\n        /* \"#utility.yul\":641:665   */\n      tag_48\n        /* \"#utility.yul\":659:664   */\n      dup2\n        /* \"#utility.yul\":641:665   */\n      tag_33\n      jump\t// in\n    tag_48:\n        /* \"#utility.yul\":634:639   */\n      dup2\n        /* \"#utility.yul\":631:666   */\n      eq\n        /* \"#utility.yul\":621:684   */\n      tag_49\n      jumpi\n        /* \"#utility.yul\":680:681   */\n      0x00\n        /* \"#utility.yul\":677:678   */\n      dup1\n        /* \"#utility.yul\":670:682   */\n      revert\n        /* \"#utility.yul\":621:684   */\n    tag_49:\n        /* \"#utility.yul\":568:690   */\n      pop\n      jump\t// out\n        /* \"#utility.yul\":696:835   */\n    tag_35:\n        /* \"#utility.yul\":742:747   */\n      0x00\n        /* \"#utility.yul\":780:786   */\n      dup2\n        /* \"#utility.yul\":767:787   */\n      calldataload\n        /* \"#utility.yul\":758:787   */\n      swap1\n      pop\n        /* \"#utility.yul\":796:829   */\n      tag_51\n        /* \"#utility.yul\":823:828   */\n      dup2\n        /* \"#utility.yul\":796:829   */\n      tag_34\n      jump\t// in\n    tag_51:\n        /* \"#utility.yul\":696:835   */\n      swap3\n      swap2\n      pop\n      pop\n      jump\t// out\n        /* \"#utility.yul\":841:1170   */\n    tag_8:\n        /* \"#utility.yul\":900:906   */\n      0x00\n        /* \"#utility.yul\":949:951   */\n      0x20\n        /* \"#utility.yul\":937:946   */\n      dup3\n        /* \"#utility.yul\":928:935   */\n      dup5\n        /* \"#utility.yul\":924:947   */\n      sub\n        /* \"#utility.yul\":920:952   */\n      slt\n        /* \"#utility.yul\":917:1036   */\n      iszero\n      tag_53\n      jumpi\n        /* \"#utility.yul\":955:1034   */\n      tag_54\n      tag_30\n      jump\t// in\n    tag_54:\n        /* \"#utility.yul\":917:1036   */\n    tag_53:\n        /* \"#utility.yul\":1075:1076   */\n      0x00\n        /* \"#utility.yul\":1100:1153   */\n      tag_55\n        /* \"#utility.yul\":1145:1152   */\n      dup5\n        /* \"#utility.yul\":1136:1142   */\n      dup3\n        /* \"#utility.yul\":1125:1134   */\n      dup6\n        /* \"#utility.yul\":1121:1143   */\n      add\n        /* \"#utility.yul\":1100:1153   */\n      tag_35\n      jump\t// in\n    tag_55:\n        /* \"#utility.yul\":1090:1153   */\n      swap2\n      pop\n        /* \"#utility.yul\":1046:1163   */\n      pop\n        /* \"#utility.yul\":841:1170   */\n      swap3\n      swap2\n      pop\n      pop\n      jump\t// out\n        /* \"#utility.yul\":1176:1253   */\n    tag_36:\n        /* \"#utility.yul\":1213:1220   */\n      0x00\n        /* \"#utility.yul\":1242:1247   */\n      dup2\n        /* \"#utility.yul\":1231:1247   */\n      swap1\n      pop\n        /* \"#utility.yul\":1176:1253   */\n      swap2\n      swap1\n      pop\n      jump\t// out\n        /* \"#utility.yul\":1259:1377   */\n    tag_37:\n        /* \"#utility.yul\":1346:1370   */\n      tag_58\n        /* \"#utility.yul\":1364:1369   */\n      dup2\n        /* \"#utility.yul\":1346:1370   */\n      tag_36\n      jump\t// in\n    tag_58:\n        /* \"#utility.yul\":1341:1344   */\n      dup3\n        /* \"#utility.yul\":1334:1371   */\n      mstore\n        /* \"#utility.yul\":1259:1377   */\n      pop\n      pop\n      jump\t// out\n        /* \"#utility.yul\":1383:1605   */\n    tag_11:\n        /* \"#utility.yul\":1476:1480   */\n      0x00\n        /* \"#utility.yul\":1514:1516   */\n      0x20\n        /* \"#utility.yul\":1503:1512   */\n      dup3\n        /* \"#utility.yul\":1499:1517   */\n      add\n        /* \"#utility.yul\":1491:1517   */\n      swap1\n      pop\n        /* \"#utility.yul\":1527:1598   */\n      tag_60\n        /* \"#utility.yul\":1595:1596   */\n      0x00\n        /* \"#utility.yul\":1584:1593   */\n      dup4\n        /* \"#utility.yul\":1580:1597   */\n      add\n        /* \"#utility.yul\":1571:1577   */\n      dup5\n        /* \"#utility.yul\":1527:1598   */\n      tag_37\n      jump\t// in\n    tag_60:\n        /* \"#utility.yul\":1383:1605   */\n      swap3\n      swap2\n      pop\n      pop\n      jump\t// out\n        /* \"#utility.yul\":1611:1791   */\n    tag_38:\n        /* \"#utility.yul\":1659:1736   */\n      0x4e487b7100000000000000000000000000000000000000000000000000000000\n        /* \"#utility.yul\":1656:1657   */\n      0x00\n        /* \"#utility.yul\":1649:1737   */\n      mstore\n        /* \"#utility.yul\":1756:1760   */\n      0x11\n        /* \"#utility.yul\":1753:1754   */\n      0x04\n        /* \"#utility.yul\":1746:1761   */\n      mstore\n        /* \"#utility.yul\":1780:1784   */\n      0x24\n        /* \"#utility.yul\":1777:1778   */\n      0x00\n        /* \"#utility.yul\":1770:1785   */\n      revert\n        /* \"#utility.yul\":1797:1991   */\n    tag_19:\n        /* \"#utility.yul\":1837:1841   */\n      0x00\n        /* \"#utility.yul\":1857:1877   */\n      tag_63\n        /* \"#utility.yul\":1875:1876   */\n      dup3\n        /* \"#utility.yul\":1857:1877   */\n      tag_36\n      jump\t// in\n    tag_63:\n        /* \"#utility.yul\":1852:1877   */\n      swap2\n      pop\n        /* \"#utility.yul\":1891:1911   */\n      tag_64\n        /* \"#utility.yul\":1909:1910   */\n      dup4\n        /* \"#utility.yul\":1891:1911   */\n      tag_36\n      jump\t// in\n    tag_64:\n        /* \"#utility.yul\":1886:1911   */\n      swap3\n      pop\n        /* \"#utility.yul\":1935:1936   */\n      dup3\n        /* \"#utility.yul\":1932:1933   */\n      dup3\n        /* \"#utility.yul\":1928:1937   */\n      sub\n        /* \"#utility.yul\":1920:1937   */\n      swap1\n      pop\n        /* \"#utility.yul\":1959:1960   */\n      dup2\n        /* \"#utility.yul\":1953:1957   */\n      dup2\n        /* \"#utility.yul\":1950:1961   */\n      gt\n        /* \"#utility.yul\":1947:1984   */\n      iszero\n      tag_65\n      jumpi\n        /* \"#utility.yul\":1964:1982   */\n      tag_66\n      tag_38\n      jump\t// in\n    tag_66:\n        /* \"#utility.yul\":1947:1984   */\n    tag_65:\n        /* \"#utility.yul\":1797:1991   */\n      swap3\n      swap2\n      pop\n      pop\n      jump\t// out\n        /* \"#utility.yul\":1997:2188   */\n    tag_21:\n        /* \"#utility.yul\":2037:2040   */\n      0x00\n        /* \"#utility.yul\":2056:2076   */\n      tag_68\n        /* \"#utility.yul\":2074:2075   */\n      dup3\n        /* \"#utility.yul\":2056:2076   */\n      tag_36\n      jump\t// in\n    tag_68:\n        /* \"#utility.yul\":2051:2076   */\n      swap2\n      pop\n        /* \"#utility.yul\":2090:2110   */\n      tag_69\n        /* \"#utility.yul\":2108:2109   */\n      dup4\n        /* \"#utility.yul\":2090:2110   */\n      tag_36\n      jump\t// in\n    tag_69:\n        /* \"#utility.yul\":2085:2110   */\n      swap3\n      pop\n        /* \"#utility.yul\":2133:2134   */\n      dup3\n        /* \"#utility.yul\":2130:2131   */\n      dup3\n        /* \"#utility.yul\":2126:2135   */\n      add\n        /* \"#utility.yul\":2119:2135   */\n      swap1\n      pop\n        /* \"#utility.yul\":2154:2157   */\n      dup1\n        /* \"#utility.yul\":2151:2152   */\n      dup3\n        /* \"#utility.yul\":2148:2158   */\n      gt\n        /* \"#utility.yul\":2145:2181   */\n      iszero\n      tag_70\n      jumpi\n        /* \"#utility.yul\":2161:2179   */\n      tag_71\n      tag_38\n      jump\t// in\n    tag_71:\n        /* \"#utility.yul\":2145:2181   */\n    tag_70:\n        /* \"#utility.yul\":1997:2188   */\n      swap3\n      swap2\n      pop\n      pop\n      jump\t// out\n        /* \"#utility.yul\":2194:2374   */\n    tag_39:\n        /* \"#utility.yul\":2242:2319   */\n      0x4e487b7100000000000000000000000000000000000000000000000000000000\n        /* \"#utility.yul\":2239:2240   */\n      0x00\n        /* \"#utility.yul\":2232:2320   */\n      mstore\n        /* \"#utility.yul\":2339:2343   */\n      0x12\n        /* \"#utility.yul\":2336:2337   */\n      0x04\n        /* \"#utility.yul\":2329:2344   */\n      mstore\n        /* \"#utility.yul\":2363:2367   */\n      0x24\n        /* \"#utility.yul\":2360:2361   */\n      0x00\n        /* \"#utility.yul\":2353:2368   */\n      revert\n        /* \"#utility.yul\":2380:2556   */\n    tag_23:\n        /* \"#utility.yul\":2412:2413   */\n      0x00\n        /* \"#utility.yul\":2429:2449   */\n      tag_74\n        /* \"#utility.yul\":2447:2448   */\n      dup3\n        /* \"#utility.yul\":2429:2449   */\n      tag_36\n      jump\t// in\n    tag_74:\n        /* \"#utility.yul\":2424:2449   */\n      swap2\n      pop\n        /* \"#utility.yul\":2463:2483   */\n      tag_75\n        /* \"#utility.yul\":2481:2482   */\n      dup4\n        /* \"#utility.yul\":2463:2483   */\n      tag_36\n      jump\t// in\n    tag_75:\n        /* \"#utility.yul\":2458:2483   */\n      swap3\n      pop\n        /* \"#utility.yul\":2502:2503   */\n      dup3\n        /* \"#utility.yul\":2492:2527   */\n      tag_76\n      jumpi\n        /* \"#utility.yul\":2507:2525   */\n      tag_77\n      tag_39\n      jump\t// in\n    tag_77:\n        /* \"#utility.yul\":2492:2527   */\n    tag_76:\n        /* \"#utility.yul\":2548:2549   */\n      dup3\n        /* \"#utility.yul\":2545:2546   */\n      dup3\n        /* \"#utility.yul\":2541:2550   */\n      mod\n        /* \"#utility.yul\":2536:2550   */\n      swap1\n      pop\n        /* \"#utility.yul\":2380:2556   */\n      swap3\n      swap2\n      pop\n      pop\n      jump\t// out\n        /* \"#utility.yul\":2562:2795   */\n    tag_27:\n        /* \"#utility.yul\":2601:2604   */\n      0x00\n        /* \"#utility.yul\":2624:2648   */\n      tag_79\n        /* \"#utility.yul\":2642:2647   */\n      dup3\n        /* \"#utility.yul\":2624:2648   */\n      tag_36\n      jump\t// in\n    tag_79:\n        /* \"#utility.yul\":2615:2648   */\n      swap2\n      pop\n        /* \"#utility.yul\":2670:2736   */\n      0xffffffffffffffffffffffffffffffffffffffffffffffffffffffffffffffff\n        /* \"#utility.yul\":2663:2668   */\n      dup3\n        /* \"#utility.yul\":2660:2737   */\n      sub\n        /* \"#utility.yul\":2657:2760   */\n      tag_80\n      jumpi\n        /* \"#utility.yul\":2740:2758   */\n      tag_81\n      tag_38\n      jump\t// in\n    tag_81:\n        /* \"#utility.yul\":2657:2760   */\n    tag_80:\n        /* \"#utility.yul\":2787:2788   */\n      0x01\n        /* \"#utility.yul\":2780:2785   */\n      dup3\n        /* \"#utility.yul\":2776:2789   */\n      add\n        /* \"#utility.yul\":2769:2789   */\n      swap1\n      pop\n        /* \"#utility.yul\":2562:2795   */\n      swap2\n      swap1\n      pop\n      jump\t// out\n\n    auxdata: 0xa2646970667358221220b2e8249d09c39e6f7d121c7430ded6b5e2ea4785ede98ef6e6ae69472a89d32d64736f6c63430008170033\n}\n",
				"bytecode": {
					"linkReferences": {},
					"object": "608060405234801561000f575f80fd5b506103c28061001d5f395ff3fe608060405234801561000f575f80fd5b506004361061003f575f3560e01c80638047a97a14610043578063cd5e3c5d14610073578063e18324101461007d575b5f80fd5b61005d600480360381019061005891906101f9565b61009b565b60405161006a919061023c565b60405180910390f35b61007b6100af565b005b610085610158565b604051610092919061023c565b60405180910390f35b5f602052805f5260405f205f915090505481565b5f600160063373ffffffffffffffffffffffffffffffffffffffff166001436100d89190610282565b405f1c6100e591906102b5565b6100ef9190610315565b6100f991906102b5565b905060068103610155575f803373ffffffffffffffffffffffffffffffffffffffff1673ffffffffffffffffffffffffffffffffffffffff1681526020019081526020015f205f81548092919061014f90610345565b91905055505b50565b5f805f3373ffffffffffffffffffffffffffffffffffffffff1673ffffffffffffffffffffffffffffffffffffffff1681526020019081526020015f2054905090565b5f80fd5b5f73ffffffffffffffffffffffffffffffffffffffff82169050919050565b5f6101c88261019f565b9050919050565b6101d8816101be565b81146101e2575f80fd5b50565b5f813590506101f3816101cf565b92915050565b5f6020828403121561020e5761020d61019b565b5b5f61021b848285016101e5565b91505092915050565b5f819050919050565b61023681610224565b82525050565b5f60208201905061024f5f83018461022d565b92915050565b7f4e487b71000000000000000000000000000000000000000000000000000000005f52601160045260245ffd5b5f61028c82610224565b915061029783610224565b92508282039050818111156102af576102ae610255565b5b92915050565b5f6102bf82610224565b91506102ca83610224565b92508282019050808211156102e2576102e1610255565b5b92915050565b7f4e487b71000000000000000000000000000000000000000000000000000000005f52601260045260245ffd5b5f61031f82610224565b915061032a83610224565b92508261033a576103396102e8565b5b828206905092915050565b5f61034f82610224565b91507fffffffffffffffffffffffffffffffffffffffffffffffffffffffffffffffff820361038157610380610255565b5b60018201905091905056fea2646970667358221220b2e8249d09c39e6f7d121c7430ded6b5e2ea4785ede98ef6e6ae69472a89d32d64736f6c63430008170033",
					"opcodes": "PUSH1 0x80 PUSH1 0x40 MSTORE CALLVALUE DUP1 ISZERO PUSH2 0xF JUMPI PUSH0 DUP1 REVERT JUMPDEST POP PUSH2 0x3C2 DUP1 PUSH2 0x1D PUSH0 CODECOPY PUSH0 RETURN INVALID PUSH1 0x80 PUSH1 0x40 MSTORE CALLVALUE DUP1 ISZERO PUSH2 0xF JUMPI PUSH0 DUP1 REVERT JUMPDEST POP PUSH1 0x4 CALLDATASIZE LT PUSH2 0x3F JUMPI PUSH0 CALLDATALOAD PUSH1 0xE0 SHR DUP1 PUSH4 0x8047A97A EQ PUSH2 0x43 JUMPI DUP1 PUSH4 0xCD5E3C5D EQ PUSH2 0x73 JUMPI DUP1 PUSH4 0xE1832410 EQ PUSH2 0x7D JUMPI JUMPDEST PUSH0 DUP1 REVERT JUMPDEST PUSH2 0x5D PUSH1 0x4 DUP1 CALLDATASIZE SUB DUP2 ADD SWAP1 PUSH2 0x58 SWAP2 SWAP1 PUSH2 0x1F9 JUMP JUMPDEST PUSH2 0x9B JUMP JUMPDEST PUSH1 0x40 MLOAD PUSH2 0x6A SWAP2 SWAP1 PUSH2 0x23C JUMP JUMPDEST PUSH1 0x40 MLOAD DUP1 SWAP2 SUB SWAP1 RETURN JUMPDEST PUSH2 0x7B PUSH2 0xAF JUMP JUMPDEST STOP JUMPDEST PUSH2 0x85 PUSH2 0x158 JUMP JUMPDEST PUSH1 0x40 MLOAD PUSH2 0x92 SWAP2 SWAP1 PUSH2 0x23C JUMP JUMPDEST PUSH1 0x40 MLOAD DUP1 SWAP2 SUB SWAP1 RETURN JUMPDEST PUSH0 PUSH1 0x20 MSTORE DUP1 PUSH0 MSTORE PUSH1 0x40 PUSH0 KECCAK256 PUSH0 SWAP2 POP SWAP1 POP SLOAD DUP2 JUMP JUMPDEST PUSH0 PUSH1 0x1 PUSH1 0x6 CALLER PUSH20 0xFFFFFFFFFFFFFFFFFFFFFFFFFFFFFFFFFFFFFFFF AND PUSH1 0x1 NUMBER PUSH2 0xD8 SWAP2 SWAP1 PUSH2 0x282 JUMP JUMPDEST BLOCKHASH PUSH0 SHR PUSH2 0xE5 SWAP2 SWAP1 PUSH2 0x2B5 JUMP JUMPDEST PUSH2 0xEF SWAP2 SWAP1 PUSH2 0x315 JUMP JUMPDEST PUSH2 0xF9 SWAP2 SWAP1 PUSH2 0x2B5 JUMP JUMPDEST SWAP1 POP PUSH1 0x6 DUP2 SUB PUSH2 0x155 JUMPI PUSH0 DUP1 CALLER PUSH20 0xFFFFFFFFFFFFFFFFFFFFFFFFFFFFFFFFFFFFFFFF AND PUSH20 0xFFFFFFFFFFFFFFFFFFFFFFFFFFFFFFFFFFFFFFFF AND DUP2 MSTORE PUSH1 0x20 ADD SWAP1 DUP2 MSTORE PUSH1 0x20 ADD PUSH0 KECCAK256 PUSH0 DUP2 SLOAD DUP1 SWAP3 SWAP2 SWAP1 PUSH2 0x14F SWAP1 PUSH2 0x345 JUMP JUMPDEST SWAP2 SWAP1 POP SSTORE POP JUMPDEST POP JUMP JUMPDEST PUSH0 DUP1 PUSH0 CALLER PUSH20 0xFFFFFFFFFFFFFFFFFFFFFFFFFFFFFFFFFFFFFFFF AND PUSH20 0xFFFFFFFFFFFFFFFFFFFFFFFFFFFFFFFFFFFFFFFF AND DUP2 MSTORE PUSH1 0x20 ADD SWAP1 DUP2 MSTORE PUSH1 0x20 ADD PUSH0 KECCAK256 SLOAD SWAP1 POP SWAP1 JUMP JUMPDEST PUSH0 DUP1 REVERT JUMPDEST PUSH0 PUSH20 0xFFFFFFFFFFFFFFFFFFFFFFFFFFFFFFFFFFFFFFFF DUP3 AND SWAP1 POP SWAP2 SWAP1 POP JUMP JUMPDEST PUSH0 PUSH2 0x1C8 DUP3 PUSH2 0x19F JUMP JUMPDEST SWAP1 POP SWAP2 SWAP1 POP JUMP JUMPDEST PUSH2 0x1D8 DUP2 PUSH2 0x1BE JUMP JUMPDEST DUP2 EQ PUSH2 0x1E2 JUMPI PUSH0 DUP1 REVERT JUMPDEST POP JUMP JUMPDEST PUSH0 DUP2 CALLDATALOAD SWAP1 POP PUSH2 0x1F3 DUP2 PUSH2 0x1CF JUMP JUMPDEST SWAP3 SWAP2 POP POP JUMP JUMPDEST PUSH0 PUSH1 0x20 DUP3 DUP5 SUB SLT ISZERO PUSH2 0x20E JUMPI PUSH2 0x20D PUSH2 0x19B JUMP JUMPDEST JUMPDEST PUSH0 PUSH2 0x21B DUP5 DUP3 DUP6 ADD PUSH2 0x1E5 JUMP JUMPDEST SWAP2 POP POP SWAP3 SWAP2 POP POP JUMP JUMPDEST PUSH0 DUP2 SWAP1 POP SWAP2 SWAP1 POP JUMP JUMPDEST PUSH2 0x236 DUP2 PUSH2 0x224 JUMP JUMPDEST DUP3 MSTORE POP POP JUMP JUMPDEST PUSH0 PUSH1 0x20 DUP3 ADD SWAP1 POP PUSH2 0x24F PUSH0 DUP4 ADD DUP5 PUSH2 0x22D JUMP JUMPDEST SWAP3 SWAP2 POP POP JUMP JUMPDEST PUSH32 0x4E487B7100000000000000000000000000000000000000000000000000000000 PUSH0 MSTORE PUSH1 0x11 PUSH1 0x4 MSTORE PUSH1 0x24 PUSH0 REVERT JUMPDEST PUSH0 PUSH2 0x28C DUP3 PUSH2 0x224 JUMP JUMPDEST SWAP2 POP PUSH2 0x297 DUP4 PUSH2 0x224 JUMP JUMPDEST SWAP3 POP DUP3 DUP3 SUB SWAP1 POP DUP2 DUP2 GT ISZERO PUSH2 0x2AF JUMPI PUSH2 0x2AE PUSH2 0x255 JUMP JUMPDEST JUMPDEST SWAP3 SWAP2 POP POP JUMP JUMPDEST PUSH0 PUSH2 0x2BF DUP3 PUSH2 0x224 JUMP JUMPDEST SWAP2 POP PUSH2 0x2CA DUP4 PUSH2 0x224 JUMP JUMPDEST SWAP3 POP DUP3 DUP3 ADD SWAP1 POP DUP1 DUP3 GT ISZERO PUSH2 0x2E2 JUMPI PUSH2 0x2E1 PUSH2 0x255 JUMP JUMPDEST JUMPDEST SWAP3 SWAP2 POP POP JUMP JUMPDEST PUSH32 0x4E487B7100000000000000000000000000000000000000000000000000000000 PUSH0 MSTORE PUSH1 0x12 PUSH1 0x4 MSTORE PUSH1 0x24 PUSH0 REVERT JUMPDEST PUSH0 PUSH2 0x31F DUP3 PUSH2 0x224 JUMP JUMPDEST SWAP2 POP PUSH2 0x32A DUP4 PUSH2 0x224 JUMP JUMPDEST SWAP3 POP DUP3 PUSH2 0x33A JUMPI PUSH2 0x339 PUSH2 0x2E8 JUMP JUMPDEST JUMPDEST DUP3 DUP3 MOD SWAP1 POP SWAP3 SWAP2 POP POP JUMP JUMPDEST PUSH0 PUSH2 0x34F DUP3 PUSH2 0x224 JUMP JUMPDEST SWAP2 POP PUSH32 0xFFFFFFFFFFFFFFFFFFFFFFFFFFFFFFFFFFFFFFFFFFFFFFFFFFFFFFFFFFFFFFFF DUP3 SUB PUSH2 0x381 JUMPI PUSH2 0x380 PUSH2 0x255 JUMP JUMPDEST JUMPDEST PUSH1 0x1 DUP3 ADD SWAP1 POP SWAP2 SWAP1 POP JUMP INVALID LOG2 PUSH5 0x6970667358 0x22 SLT KECCAK256 0xB2 0xE8 0x24 SWAP14 MULMOD 0xC3 SWAP15 PUSH16 0x7D121C7430DED6B5E2EA4785EDE98EF6 0xE6 0xAE PUSH10 0x472A89D32D64736F6C63 NUMBER STOP ADDMOD OR STOP CALLER "
				},
				"gasEstimates": {
					"creation": {
						"codeDepositCost": "192400",
						"executionCost": "236",
						"totalCost": "192636"
					},
					"external": {
						"myWins()": "2541",
						"roll()": "infinite",
						"wins(address)": "2779"
					}
				},
				"methodIdentifiers": {
					"myWins()": "e1832410",
					"roll()": "cd5e3c5d",
					"wins(address)": "8047a97a"
				}
			},
			"storageLayout": {
				"storage": [
					{
						"astId": 5,
						"contract": "monad dashboard/DiceGame.sol:DiceGame",
						"label": "wins",
						"offset": 0,
						"slot": "0",
						"type": "t_mapping(t_address,t_uint256)"
					}
				],
				"types": {
					"t_address": {
						"encoding": "inplace",
						"label": "address",
						"numberOfBytes": "20"
					},
					"t_mapping(t_address,t_uint256)": {
						"encoding": "mapping",
						"key": "t_address",
						"label": "mapping(address => uint256)",
						"numberOfBytes": "32",
						"value": "t_uint256"
					},
					"t_uint256": {
						"encoding": "inplace",
						"label": "uint256",
						"numberOfBytes": "32"
					}
				}
			},
			"userdoc": {
				"kind": "user",
				"methods": {},
				"version": 1
			}
		}
	}
}