{
	"monad dashboard/LinkVault.sol": {
		"LinkVault": {
			"abi": [
				{
					"inputs": [
						{
							"internalType": "string",
							"name": "url",
							"type": "string"
						}
					],
					"name": "addLink",
					"outputs": [],
					"stateMutability": "nonpayable",
					"type": "function"
				},
				{
					"inputs": [
						{
							"internalType": "address",
							"name": "",
							"type": "address"
						},
						{
							"internalType": "uint256",
							"name": "",
							"type": "uint256"
						}
					],
					"name": "links",
					"outputs": [
						{
							"internalType": "string",
							"name": "",
							"type": "string"
						}
					],
					"stateMutability": "view",
					"type": "function"
				}
			],
			"devdoc": {
				"kind": "dev",
				"methods": {},
				"version": 1
			},
			"evm": {
				"assembly": "    /* \"monad dashboard/LinkVault.sol\":111:281  contract LinkVault {... */\n  mstore(0x40, 0x80)\n  callvalue\n  dup1\n  iszero\n  tag_1\n  jumpi\n  0x00\n  dup1\n  revert\ntag_1:\n  pop\n  dataSize(sub_0)\n  dup1\n  dataOffset(sub_0)\n  0x00\n  codecopy\n  0x00\n  return\nstop\n\nsub_0: assembly {\n        /* \"monad dashboard/LinkVault.sol\":111:281  contract LinkVault {... */\n      mstore(0x40, 0x80)\n      callvalue\n      dup1\n      iszero\n      tag_1\n      jumpi\n      0x00\n      dup1\n      revert\n    tag_1:\n      pop\n      jumpi(tag_2, lt(calldatasize, 0x04))\n      shr(0xe0, calldataload(0x00))\n      dup1\n      0x22a618fa\n      eq\n      tag_3\n      jumpi\n      dup1\n      0xa3b23797\n      eq\n      tag_4\n      jumpi\n    tag_2:\n      0x00\n      dup1\n      revert\n        /* \"monad dashboard/LinkVault.sol\":185:278  function addLink(string calldata url) external {... */\n    tag_3:\n      tag_5\n      0x04\n      dup1\n      calldatasize\n      sub\n      dup2\n      add\n      swap1\n      tag_6\n      swap2\n      swap1\n      tag_7\n      jump\t// in\n    tag_6:\n      tag_8\n      jump\t// in\n    tag_5:\n      stop\n        /* \"monad dashboard/LinkVault.sol\":137:178  mapping(address => string[]) public links */\n    tag_4:\n      tag_9\n      0x04\n      dup1\n      calldatasize\n      sub\n      dup2\n      add\n      swap1\n      tag_10\n      swap2\n      swap1\n      tag_11\n      jump\t// in\n    tag_10:\n      tag_12\n      jump\t// in\n    tag_9:\n      mload(0x40)\n      tag_13\n      swap2\n      swap1\n      tag_14\n      jump\t// in\n    tag_13:\n      mload(0x40)\n      dup1\n      swap2\n      sub\n      swap1\n      return\n        /* \"monad dashboard/LinkVault.sol\":185:278  function addLink(string calldata url) external {... */\n    tag_8:\n        /* \"monad dashboard/LinkVault.sol\":243:248  links */\n      0x00\n        /* \"monad dashboard/LinkVault.sol\":243:260  links[msg.sender] */\n      dup1\n        /* \"monad dashboard/LinkVault.sol\":249:259  msg.sender */\n      caller\n        /* \"monad dashboard/LinkVault.sol\":243:260  links[msg.sender] */\n      0xffffffffffffffffffffffffffffffffffffffff\n      and\n      0xffffffffffffffffffffffffffffffffffffffff\n      and\n      dup2\n      mstore\n      0x20\n      add\n      swap1\n      dup2\n      mstore\n      0x20\n      add\n      0x00\n      keccak256\n        /* \"monad dashboard/LinkVault.sol\":266:269  url */\n      dup3\n      dup3\n        /* \"monad dashboard/LinkVault.sol\":243:270  links[msg.sender].push(url) */\n      swap1\n      swap2\n      dup1\n      0x01\n      dup2\n      sload\n      add\n      dup1\n      dup3\n      sstore\n      dup1\n      swap2\n      pop\n      pop\n      0x01\n      swap1\n      sub\n      swap1\n      0x00\n      mstore\n      keccak256(0x00, 0x20)\n      add\n      0x00\n      swap1\n      swap2\n      swap3\n      swap1\n      swap2\n      swap3\n      swap1\n      swap2\n      swap3\n      swap1\n      swap2\n      swap3\n      pop\n      swap2\n      dup3\n      tag_17\n      swap3\n      swap2\n      swap1\n      tag_18\n      jump\t// in\n    tag_17:\n      pop\n        /* \"monad dashboard/LinkVault.sol\":185:278  function addLink(string calldata url) external {... */\n      pop\n      pop\n      jump\t// out\n        /* \"monad dashboard/LinkVault.sol\":137:178  mapping(address => string[]) public links */\n    tag_12:\n      mstore(0x20, 0x00)\n      dup2\n      0x00\n      mstore\n      keccak256(0x00, 0x40)\n      dup2\n      dup2\n      sload\n      dup2\n      lt\n      tag_19\n      jumpi\n      0x00\n      dup1\n      revert\n    tag_19:\n      swap1\n      0x00\n      mstore\n      keccak256(0x00, 0x20)\n      add\n      0x00\n      swap2\n      pop\n      swap2\n      pop\n      pop\n      dup1\n      sload\n      tag_21\n      swap1\n      tag_22\n      jump\t// in\n    tag_21:\n      dup1\n      0x1f\n      add\n      0x20\n      dup1\n      swap2\n      div\n      mul\n      0x20\n      add\n      mload(0x40)\n      swap1\n      dup2\n      add\n      0x40\n      mstore\n      dup1\n      swap3\n      swap2\n      swap1\n      dup2\n      dup2\n      mstore\n      0x20\n      add\n      dup3\n      dup1\n      sload\n      tag_23\n      swap1\n      tag_22\n      jump\t// in\n    tag_23:\n      dup1\n      iszero\n      tag_24\n      jumpi\n      dup1\n      0x1f\n      lt\n      tag_25\n      jumpi\n      0x0100\n      dup1\n      dup4\n      sload\n      div\n      mul\n      dup4\n      mstore\n      swap2\n      0x20\n      add\n      swap2\n      jump(tag_24)\n    tag_25:\n      dup3\n      add\n      swap2\n      swap1\n      0x00\n      mstore\n      keccak256(0x00, 0x20)\n      swap1\n    tag_26:\n      dup2\n      sload\n      dup2\n      mstore\n      swap1\n      0x01\n      add\n      swap1\n      0x20\n      add\n      dup1\n      dup4\n      gt\n      tag_26\n      jumpi\n      dup3\n      swap1\n      sub\n      0x1f\n      and\n      dup3\n      add\n      swap2\n    tag_24:\n      pop\n      pop\n      pop\n      pop\n      pop\n      dup2\n      jump\t// out\n        /* \"#utility.yul\":88:205   */\n    tag_28:\n        /* \"#utility.yul\":197:198   */\n      0x00\n        /* \"#utility.yul\":194:195   */\n      dup1\n        /* \"#utility.yul\":187:199   */\n      revert\n        /* \"#utility.yul\":211:328   */\n    tag_29:\n        /* \"#utility.yul\":320:321   */\n      0x00\n        /* \"#utility.yul\":317:318   */\n      dup1\n        /* \"#utility.yul\":310:322   */\n      revert\n        /* \"#utility.yul\":334:451   */\n    tag_30:\n        /* \"#utility.yul\":443:444   */\n      0x00\n        /* \"#utility.yul\":440:441   */\n      dup1\n        /* \"#utility.yul\":433:445   */\n      revert\n        /* \"#utility.yul\":457:574   */\n    tag_31:\n        /* \"#utility.yul\":566:567   */\n      0x00\n        /* \"#utility.yul\":563:564   */\n      dup1\n        /* \"#utility.yul\":556:568   */\n      revert\n        /* \"#utility.yul\":580:697   */\n    tag_32:\n        /* \"#utility.yul\":689:690   */\n      0x00\n        /* \"#utility.yul\":686:687   */\n      dup1\n        /* \"#utility.yul\":679:691   */\n      revert\n        /* \"#utility.yul\":717:1270   */\n    tag_33:\n        /* \"#utility.yul\":775:783   */\n      0x00\n        /* \"#utility.yul\":785:791   */\n      dup1\n        /* \"#utility.yul\":835:838   */\n      dup4\n        /* \"#utility.yul\":828:832   */\n      0x1f\n        /* \"#utility.yul\":820:826   */\n      dup5\n        /* \"#utility.yul\":816:833   */\n      add\n        /* \"#utility.yul\":812:839   */\n      slt\n        /* \"#utility.yul\":802:924   */\n      tag_72\n      jumpi\n        /* \"#utility.yul\":843:922   */\n      tag_73\n      tag_30\n      jump\t// in\n    tag_73:\n        /* \"#utility.yul\":802:924   */\n    tag_72:\n        /* \"#utility.yul\":956:962   */\n      dup3\n        /* \"#utility.yul\":943:963   */\n      calldataload\n        /* \"#utility.yul\":933:963   */\n      swap1\n      pop\n        /* \"#utility.yul\":986:1004   */\n      0xffffffffffffffff\n        /* \"#utility.yul\":978:984   */\n      dup2\n        /* \"#utility.yul\":975:1005   */\n      gt\n        /* \"#utility.yul\":972:1089   */\n      iszero\n      tag_74\n      jumpi\n        /* \"#utility.yul\":1008:1087   */\n      tag_75\n      tag_31\n      jump\t// in\n    tag_75:\n        /* \"#utility.yul\":972:1089   */\n    tag_74:\n        /* \"#utility.yul\":1122:1126   */\n      0x20\n        /* \"#utility.yul\":1114:1120   */\n      dup4\n        /* \"#utility.yul\":1110:1127   */\n      add\n        /* \"#utility.yul\":1098:1127   */\n      swap2\n      pop\n        /* \"#utility.yul\":1176:1179   */\n      dup4\n        /* \"#utility.yul\":1168:1172   */\n      0x01\n        /* \"#utility.yul\":1160:1166   */\n      dup3\n        /* \"#utility.yul\":1156:1173   */\n      mul\n        /* \"#utility.yul\":1146:1154   */\n      dup4\n        /* \"#utility.yul\":1142:1174   */\n      add\n        /* \"#utility.yul\":1139:1180   */\n      gt\n        /* \"#utility.yul\":1136:1264   */\n      iszero\n      tag_76\n      jumpi\n        /* \"#utility.yul\":1183:1262   */\n      tag_77\n      tag_32\n      jump\t// in\n    tag_77:\n        /* \"#utility.yul\":1136:1264   */\n    tag_76:\n        /* \"#utility.yul\":717:1270   */\n      swap3\n      pop\n      swap3\n      swap1\n      pop\n      jump\t// out\n        /* \"#utility.yul\":1276:1805   */\n    tag_7:\n        /* \"#utility.yul\":1347:1353   */\n      0x00\n        /* \"#utility.yul\":1355:1361   */\n      dup1\n        /* \"#utility.yul\":1404:1406   */\n      0x20\n        /* \"#utility.yul\":1392:1401   */\n      dup4\n        /* \"#utility.yul\":1383:1390   */\n      dup6\n        /* \"#utility.yul\":1379:1402   */\n      sub\n        /* \"#utility.yul\":1375:1407   */\n      slt\n        /* \"#utility.yul\":1372:1491   */\n      iszero\n      tag_79\n      jumpi\n        /* \"#utility.yul\":1410:1489   */\n      tag_80\n      tag_28\n      jump\t// in\n    tag_80:\n        /* \"#utility.yul\":1372:1491   */\n    tag_79:\n        /* \"#utility.yul\":1558:1559   */\n      0x00\n        /* \"#utility.yul\":1547:1556   */\n      dup4\n        /* \"#utility.yul\":1543:1560   */\n      add\n        /* \"#utility.yul\":1530:1561   */\n      calldataload\n        /* \"#utility.yul\":1588:1606   */\n      0xffffffffffffffff\n        /* \"#utility.yul\":1580:1586   */\n      dup2\n        /* \"#utility.yul\":1577:1607   */\n      gt\n        /* \"#utility.yul\":1574:1691   */\n      iszero\n      tag_81\n      jumpi\n        /* \"#utility.yul\":1610:1689   */\n      tag_82\n      tag_29\n      jump\t// in\n    tag_82:\n        /* \"#utility.yul\":1574:1691   */\n    tag_81:\n        /* \"#utility.yul\":1723:1788   */\n      tag_83\n        /* \"#utility.yul\":1780:1787   */\n      dup6\n        /* \"#utility.yul\":1771:1777   */\n      dup3\n        /* \"#utility.yul\":1760:1769   */\n      dup7\n        /* \"#utility.yul\":1756:1778   */\n      add\n        /* \"#utility.yul\":1723:1788   */\n      tag_33\n      jump\t// in\n    tag_83:\n        /* \"#utility.yul\":1705:1788   */\n      swap3\n      pop\n      swap3\n      pop\n        /* \"#utility.yul\":1501:1798   */\n      pop\n        /* \"#utility.yul\":1276:1805   */\n      swap3\n      pop\n      swap3\n      swap1\n      pop\n      jump\t// out\n        /* \"#utility.yul\":1811:1937   */\n    tag_34:\n        /* \"#utility.yul\":1848:1855   */\n      0x00\n        /* \"#utility.yul\":1888:1930   */\n      0xffffffffffffffffffffffffffffffffffffffff\n        /* \"#utility.yul\":1881:1886   */\n      dup3\n        /* \"#utility.yul\":1877:1931   */\n      and\n        /* \"#utility.yul\":1866:1931   */\n      swap1\n      pop\n        /* \"#utility.yul\":1811:1937   */\n      swap2\n      swap1\n      pop\n      jump\t// out\n        /* \"#utility.yul\":1943:2039   */\n    tag_35:\n        /* \"#utility.yul\":1980:1987   */\n      0x00\n        /* \"#utility.yul\":2009:2033   */\n      tag_86\n        /* \"#utility.yul\":2027:2032   */\n      dup3\n        /* \"#utility.yul\":2009:2033   */\n      tag_34\n      jump\t// in\n    tag_86:\n        /* \"#utility.yul\":1998:2033   */\n      swap1\n      pop\n        /* \"#utility.yul\":1943:2039   */\n      swap2\n      swap1\n      pop\n      jump\t// out\n        /* \"#utility.yul\":2045:2167   */\n    tag_36:\n        /* \"#utility.yul\":2118:2142   */\n      tag_88\n        /* \"#utility.yul\":2136:2141   */\n      dup2\n        /* \"#utility.yul\":2118:2142   */\n      tag_35\n      jump\t// in\n    tag_88:\n        /* \"#utility.yul\":2111:2116   */\n      dup2\n        /* \"#utility.yul\":2108:2143   */\n      eq\n        /* \"#utility.yul\":2098:2161   */\n      tag_89\n      jumpi\n        /* \"#utility.yul\":2157:2158   */\n      0x00\n        /* \"#utility.yul\":2154:2155   */\n      dup1\n        /* \"#utility.yul\":2147:2159   */\n      revert\n        /* \"#utility.yul\":2098:2161   */\n    tag_89:\n        /* \"#utility.yul\":2045:2167   */\n      pop\n      jump\t// out\n        /* \"#utility.yul\":2173:2312   */\n    tag_37:\n        /* \"#utility.yul\":2219:2224   */\n      0x00\n        /* \"#utility.yul\":2257:2263   */\n      dup2\n        /* \"#utility.yul\":2244:2264   */\n      calldataload\n        /* \"#utility.yul\":2235:2264   */\n      swap1\n      pop\n        /* \"#utility.yul\":2273:2306   */\n      tag_91\n        /* \"#utility.yul\":2300:2305   */\n      dup2\n        /* \"#utility.yul\":2273:2306   */\n      tag_36\n      jump\t// in\n    tag_91:\n        /* \"#utility.yul\":2173:2312   */\n      swap3\n      swap2\n      pop\n      pop\n      jump\t// out\n        /* \"#utility.yul\":2318:2395   */\n    tag_38:\n        /* \"#utility.yul\":2355:2362   */\n      0x00\n        /* \"#utility.yul\":2384:2389   */\n      dup2\n        /* \"#utility.yul\":2373:2389   */\n      swap1\n      pop\n        /* \"#utility.yul\":2318:2395   */\n      swap2\n      swap1\n      pop\n      jump\t// out\n        /* \"#utility.yul\":2401:2523   */\n    tag_39:\n        /* \"#utility.yul\":2474:2498   */\n      tag_94\n        /* \"#utility.yul\":2492:2497   */\n      dup2\n        /* \"#utility.yul\":2474:2498   */\n      tag_38\n      jump\t// in\n    tag_94:\n        /* \"#utility.yul\":2467:2472   */\n      dup2\n        /* \"#utility.yul\":2464:2499   */\n      eq\n        /* \"#utility.yul\":2454:2517   */\n      tag_95\n      jumpi\n        /* \"#utility.yul\":2513:2514   */\n      0x00\n        /* \"#utility.yul\":2510:2511   */\n      dup1\n        /* \"#utility.yul\":2503:2515   */\n      revert\n        /* \"#utility.yul\":2454:2517   */\n    tag_95:\n        /* \"#utility.yul\":2401:2523   */\n      pop\n      jump\t// out\n        /* \"#utility.yul\":2529:2668   */\n    tag_40:\n        /* \"#utility.yul\":2575:2580   */\n      0x00\n        /* \"#utility.yul\":2613:2619   */\n      dup2\n        /* \"#utility.yul\":2600:2620   */\n      calldataload\n        /* \"#utility.yul\":2591:2620   */\n      swap1\n      pop\n        /* \"#utility.yul\":2629:2662   */\n      tag_97\n        /* \"#utility.yul\":2656:2661   */\n      dup2\n        /* \"#utility.yul\":2629:2662   */\n      tag_39\n      jump\t// in\n    tag_97:\n        /* \"#utility.yul\":2529:2668   */\n      swap3\n      swap2\n      pop\n      pop\n      jump\t// out\n        /* \"#utility.yul\":2674:3148   */\n    tag_11:\n        /* \"#utility.yul\":2742:2748   */\n      0x00\n        /* \"#utility.yul\":2750:2756   */\n      dup1\n        /* \"#utility.yul\":2799:2801   */\n      0x40\n        /* \"#utility.yul\":2787:2796   */\n      dup4\n        /* \"#utility.yul\":2778:2785   */\n      dup6\n        /* \"#utility.yul\":2774:2797   */\n      sub\n        /* \"#utility.yul\":2770:2802   */\n      slt\n        /* \"#utility.yul\":2767:2886   */\n      iszero\n      tag_99\n      jumpi\n        /* \"#utility.yul\":2805:2884   */\n      tag_100\n      tag_28\n      jump\t// in\n    tag_100:\n        /* \"#utility.yul\":2767:2886   */\n    tag_99:\n        /* \"#utility.yul\":2925:2926   */\n      0x00\n        /* \"#utility.yul\":2950:3003   */\n      tag_101\n        /* \"#utility.yul\":2995:3002   */\n      dup6\n        /* \"#utility.yul\":2986:2992   */\n      dup3\n        /* \"#utility.yul\":2975:2984   */\n      dup7\n        /* \"#utility.yul\":2971:2993   */\n      add\n        /* \"#utility.yul\":2950:3003   */\n      tag_37\n      jump\t// in\n    tag_101:\n        /* \"#utility.yul\":2940:3003   */\n      swap3\n      pop\n        /* \"#utility.yul\":2896:3013   */\n      pop\n        /* \"#utility.yul\":3052:3054   */\n      0x20\n        /* \"#utility.yul\":3078:3131   */\n      tag_102\n        /* \"#utility.yul\":3123:3130   */\n      dup6\n        /* \"#utility.yul\":3114:3120   */\n      dup3\n        /* \"#utility.yul\":3103:3112   */\n      dup7\n        /* \"#utility.yul\":3099:3121   */\n      add\n        /* \"#utility.yul\":3078:3131   */\n      tag_40\n      jump\t// in\n    tag_102:\n        /* \"#utility.yul\":3068:3131   */\n      swap2\n      pop\n        /* \"#utility.yul\":3023:3141   */\n      pop\n        /* \"#utility.yul\":2674:3148   */\n      swap3\n      pop\n      swap3\n      swap1\n      pop\n      jump\t// out\n        /* \"#utility.yul\":3154:3253   */\n    tag_41:\n        /* \"#utility.yul\":3206:3212   */\n      0x00\n        /* \"#utility.yul\":3240:3245   */\n      dup2\n        /* \"#utility.yul\":3234:3246   */\n      mload\n        /* \"#utility.yul\":3224:3246   */\n      swap1\n      pop\n        /* \"#utility.yul\":3154:3253   */\n      swap2\n      swap1\n      pop\n      jump\t// out\n        /* \"#utility.yul\":3259:3428   */\n    tag_42:\n        /* \"#utility.yul\":3343:3354   */\n      0x00\n        /* \"#utility.yul\":3377:3383   */\n      dup3\n        /* \"#utility.yul\":3372:3375   */\n      dup3\n        /* \"#utility.yul\":3365:3384   */\n      mstore\n        /* \"#utility.yul\":3417:3421   */\n      0x20\n        /* \"#utility.yul\":3412:3415   */\n      dup3\n        /* \"#utility.yul\":3408:3422   */\n      add\n        /* \"#utility.yul\":3393:3422   */\n      swap1\n      pop\n        /* \"#utility.yul\":3259:3428   */\n      swap3\n      swap2\n      pop\n      pop\n      jump\t// out\n        /* \"#utility.yul\":3434:3680   */\n    tag_43:\n        /* \"#utility.yul\":3515:3516   */\n      0x00\n        /* \"#utility.yul\":3525:3638   */\n    tag_106:\n        /* \"#utility.yul\":3539:3545   */\n      dup4\n        /* \"#utility.yul\":3536:3537   */\n      dup2\n        /* \"#utility.yul\":3533:3546   */\n      lt\n        /* \"#utility.yul\":3525:3638   */\n      iszero\n      tag_108\n      jumpi\n        /* \"#utility.yul\":3624:3625   */\n      dup1\n        /* \"#utility.yul\":3619:3622   */\n      dup3\n        /* \"#utility.yul\":3615:3626   */\n      add\n        /* \"#utility.yul\":3609:3627   */\n      mload\n        /* \"#utility.yul\":3605:3606   */\n      dup2\n        /* \"#utility.yul\":3600:3603   */\n      dup5\n        /* \"#utility.yul\":3596:3607   */\n      add\n        /* \"#utility.yul\":3589:3628   */\n      mstore\n        /* \"#utility.yul\":3561:3563   */\n      0x20\n        /* \"#utility.yul\":3558:3559   */\n      dup2\n        /* \"#utility.yul\":3554:3564   */\n      add\n        /* \"#utility.yul\":3549:3564   */\n      swap1\n      pop\n        /* \"#utility.yul\":3525:3638   */\n      jump(tag_106)\n    tag_108:\n        /* \"#utility.yul\":3672:3673   */\n      0x00\n        /* \"#utility.yul\":3663:3669   */\n      dup5\n        /* \"#utility.yul\":3658:3661   */\n      dup5\n        /* \"#utility.yul\":3654:3670   */\n      add\n        /* \"#utility.yul\":3647:3674   */\n      mstore\n        /* \"#utility.yul\":3496:3680   */\n      pop\n        /* \"#utility.yul\":3434:3680   */\n      pop\n      pop\n      pop\n      jump\t// out\n        /* \"#utility.yul\":3686:3788   */\n    tag_44:\n        /* \"#utility.yul\":3727:3733   */\n      0x00\n        /* \"#utility.yul\":3778:3780   */\n      0x1f\n        /* \"#utility.yul\":3774:3781   */\n      not\n        /* \"#utility.yul\":3769:3771   */\n      0x1f\n        /* \"#utility.yul\":3762:3767   */\n      dup4\n        /* \"#utility.yul\":3758:3772   */\n      add\n        /* \"#utility.yul\":3754:3782   */\n      and\n        /* \"#utility.yul\":3744:3782   */\n      swap1\n      pop\n        /* \"#utility.yul\":3686:3788   */\n      swap2\n      swap1\n      pop\n      jump\t// out\n        /* \"#utility.yul\":3794:4171   */\n    tag_45:\n        /* \"#utility.yul\":3882:3885   */\n      0x00\n        /* \"#utility.yul\":3910:3949   */\n      tag_111\n        /* \"#utility.yul\":3943:3948   */\n      dup3\n        /* \"#utility.yul\":3910:3949   */\n      tag_41\n      jump\t// in\n    tag_111:\n        /* \"#utility.yul\":3965:4036   */\n      tag_112\n        /* \"#utility.yul\":4029:4035   */\n      dup2\n        /* \"#utility.yul\":4024:4027   */\n      dup6\n        /* \"#utility.yul\":3965:4036   */\n      tag_42\n      jump\t// in\n    tag_112:\n        /* \"#utility.yul\":3958:4036   */\n      swap4\n      pop\n        /* \"#utility.yul\":4045:4110   */\n      tag_113\n        /* \"#utility.yul\":4103:4109   */\n      dup2\n        /* \"#utility.yul\":4098:4101   */\n      dup6\n        /* \"#utility.yul\":4091:4095   */\n      0x20\n        /* \"#utility.yul\":4084:4089   */\n      dup7\n        /* \"#utility.yul\":4080:4096   */\n      add\n        /* \"#utility.yul\":4045:4110   */\n      tag_43\n      jump\t// in\n    tag_113:\n        /* \"#utility.yul\":4135:4164   */\n      tag_114\n        /* \"#utility.yul\":4157:4163   */\n      dup2\n        /* \"#utility.yul\":4135:4164   */\n      tag_44\n      jump\t// in\n    tag_114:\n        /* \"#utility.yul\":4130:4133   */\n      dup5\n        /* \"#utility.yul\":4126:4165   */\n      add\n        /* \"#utility.yul\":4119:4165   */\n      swap2\n      pop\n        /* \"#utility.yul\":3886:4171   */\n      pop\n        /* \"#utility.yul\":3794:4171   */\n      swap3\n      swap2\n      pop\n      pop\n      jump\t// out\n        /* \"#utility.yul\":4177:4490   */\n    tag_14:\n        /* \"#utility.yul\":4290:4294   */\n      0x00\n        /* \"#utility.yul\":4328:4330   */\n      0x20\n        /* \"#utility.yul\":4317:4326   */\n      dup3\n        /* \"#utility.yul\":4313:4331   */\n      add\n        /* \"#utility.yul\":4305:4331   */\n      swap1\n      pop\n        /* \"#utility.yul\":4377:4386   */\n      dup2\n        /* \"#utility.yul\":4371:4375   */\n      dup2\n        /* \"#utility.yul\":4367:4387   */\n      sub\n        /* \"#utility.yul\":4363:4364   */\n      0x00\n        /* \"#utility.yul\":4352:4361   */\n      dup4\n        /* \"#utility.yul\":4348:4365   */\n      add\n        /* \"#utility.yul\":4341:4388   */\n      mstore\n        /* \"#utility.yul\":4405:4483   */\n      tag_116\n        /* \"#utility.yul\":4478:4482   */\n      dup2\n        /* \"#utility.yul\":4469:4475   */\n      dup5\n        /* \"#utility.yul\":4405:4483   */\n      tag_45\n      jump\t// in\n    tag_116:\n        /* \"#utility.yul\":4397:4483   */\n      swap1\n      pop\n        /* \"#utility.yul\":4177:4490   */\n      swap3\n      swap2\n      pop\n      pop\n      jump\t// out\n        /* \"#utility.yul\":4496:4593   */\n    tag_46:\n        /* \"#utility.yul\":4555:4561   */\n      0x00\n        /* \"#utility.yul\":4583:4586   */\n      dup3\n        /* \"#utility.yul\":4573:4586   */\n      swap1\n      pop\n        /* \"#utility.yul\":4496:4593   */\n      swap3\n      swap2\n      pop\n      pop\n      jump\t// out\n        /* \"#utility.yul\":4599:4779   */\n    tag_47:\n        /* \"#utility.yul\":4647:4724   */\n      0x4e487b7100000000000000000000000000000000000000000000000000000000\n        /* \"#utility.yul\":4644:4645   */\n      0x00\n        /* \"#utility.yul\":4637:4725   */\n      mstore\n        /* \"#utility.yul\":4744:4748   */\n      0x41\n        /* \"#utility.yul\":4741:4742   */\n      0x04\n        /* \"#utility.yul\":4734:4749   */\n      mstore\n        /* \"#utility.yul\":4768:4772   */\n      0x24\n        /* \"#utility.yul\":4765:4766   */\n      0x00\n        /* \"#utility.yul\":4758:4773   */\n      revert\n        /* \"#utility.yul\":4785:4965   */\n    tag_48:\n        /* \"#utility.yul\":4833:4910   */\n      0x4e487b7100000000000000000000000000000000000000000000000000000000\n        /* \"#utility.yul\":4830:4831   */\n      0x00\n        /* \"#utility.yul\":4823:4911   */\n      mstore\n        /* \"#utility.yul\":4930:4934   */\n      0x22\n        /* \"#utility.yul\":4927:4928   */\n      0x04\n        /* \"#utility.yul\":4920:4935   */\n      mstore\n        /* \"#utility.yul\":4954:4958   */\n      0x24\n        /* \"#utility.yul\":4951:4952   */\n      0x00\n        /* \"#utility.yul\":4944:4959   */\n      revert\n        /* \"#utility.yul\":4971:5291   */\n    tag_22:\n        /* \"#utility.yul\":5015:5021   */\n      0x00\n        /* \"#utility.yul\":5052:5053   */\n      0x02\n        /* \"#utility.yul\":5046:5050   */\n      dup3\n        /* \"#utility.yul\":5042:5054   */\n      div\n        /* \"#utility.yul\":5032:5054   */\n      swap1\n      pop\n        /* \"#utility.yul\":5099:5100   */\n      0x01\n        /* \"#utility.yul\":5093:5097   */\n      dup3\n        /* \"#utility.yul\":5089:5101   */\n      and\n        /* \"#utility.yul\":5120:5138   */\n      dup1\n        /* \"#utility.yul\":5110:5191   */\n      tag_121\n      jumpi\n        /* \"#utility.yul\":5176:5180   */\n      0x7f\n        /* \"#utility.yul\":5168:5174   */\n      dup3\n        /* \"#utility.yul\":5164:5181   */\n      and\n        /* \"#utility.yul\":5154:5181   */\n      swap2\n      pop\n        /* \"#utility.yul\":5110:5191   */\n    tag_121:\n        /* \"#utility.yul\":5238:5240   */\n      0x20\n        /* \"#utility.yul\":5230:5236   */\n      dup3\n        /* \"#utility.yul\":5227:5241   */\n      lt\n        /* \"#utility.yul\":5207:5225   */\n      dup2\n        /* \"#utility.yul\":5204:5242   */\n      sub\n        /* \"#utility.yul\":5201:5285   */\n      tag_122\n      jumpi\n        /* \"#utility.yul\":5257:5275   */\n      tag_123\n      tag_48\n      jump\t// in\n    tag_123:\n        /* \"#utility.yul\":5201:5285   */\n    tag_122:\n        /* \"#utility.yul\":5022:5291   */\n      pop\n        /* \"#utility.yul\":4971:5291   */\n      swap2\n      swap1\n      pop\n      jump\t// out\n        /* \"#utility.yul\":5297:5438   */\n    tag_49:\n        /* \"#utility.yul\":5346:5350   */\n      0x00\n        /* \"#utility.yul\":5369:5372   */\n      dup2\n        /* \"#utility.yul\":5361:5372   */\n      swap1\n      pop\n        /* \"#utility.yul\":5392:5395   */\n      dup2\n        /* \"#utility.yul\":5389:5390   */\n      0x00\n        /* \"#utility.yul\":5382:5396   */\n      mstore\n        /* \"#utility.yul\":5426:5430   */\n      0x20\n        /* \"#utility.yul\":5423:5424   */\n      0x00\n        /* \"#utility.yul\":5413:5431   */\n      keccak256\n        /* \"#utility.yul\":5405:5431   */\n      swap1\n      pop\n        /* \"#utility.yul\":5297:5438   */\n      swap2\n      swap1\n      pop\n      jump\t// out\n        /* \"#utility.yul\":5444:5537   */\n    tag_50:\n        /* \"#utility.yul\":5481:5487   */\n      0x00\n        /* \"#utility.yul\":5528:5530   */\n      0x20\n        /* \"#utility.yul\":5523:5525   */\n      0x1f\n        /* \"#utility.yul\":5516:5521   */\n      dup4\n        /* \"#utility.yul\":5512:5526   */\n      add\n        /* \"#utility.yul\":5508:5531   */\n      div\n        /* \"#utility.yul\":5498:5531   */\n      swap1\n      pop\n        /* \"#utility.yul\":5444:5537   */\n      swap2\n      swap1\n      pop\n      jump\t// out\n        /* \"#utility.yul\":5543:5650   */\n    tag_51:\n        /* \"#utility.yul\":5587:5595   */\n      0x00\n        /* \"#utility.yul\":5637:5642   */\n      dup3\n        /* \"#utility.yul\":5631:5635   */\n      dup3\n        /* \"#utility.yul\":5627:5643   */\n      shl\n        /* \"#utility.yul\":5606:5643   */\n      swap1\n      pop\n        /* \"#utility.yul\":5543:5650   */\n      swap3\n      swap2\n      pop\n      pop\n      jump\t// out\n        /* \"#utility.yul\":5656:6049   */\n    tag_52:\n        /* \"#utility.yul\":5725:5731   */\n      0x00\n        /* \"#utility.yul\":5775:5776   */\n      0x08\n        /* \"#utility.yul\":5763:5773   */\n      dup4\n        /* \"#utility.yul\":5759:5777   */\n      mul\n        /* \"#utility.yul\":5798:5895   */\n      tag_128\n        /* \"#utility.yul\":5828:5894   */\n      0xffffffffffffffffffffffffffffffffffffffffffffffffffffffffffffffff\n        /* \"#utility.yul\":5817:5826   */\n      dup3\n        /* \"#utility.yul\":5798:5895   */\n      tag_51\n      jump\t// in\n    tag_128:\n        /* \"#utility.yul\":5916:5955   */\n      tag_129\n        /* \"#utility.yul\":5946:5954   */\n      dup7\n        /* \"#utility.yul\":5935:5944   */\n      dup4\n        /* \"#utility.yul\":5916:5955   */\n      tag_51\n      jump\t// in\n    tag_129:\n        /* \"#utility.yul\":5904:5955   */\n      swap6\n      pop\n        /* \"#utility.yul\":5988:5992   */\n      dup1\n        /* \"#utility.yul\":5984:5993   */\n      not\n        /* \"#utility.yul\":5977:5982   */\n      dup5\n        /* \"#utility.yul\":5973:5994   */\n      and\n        /* \"#utility.yul\":5964:5994   */\n      swap4\n      pop\n        /* \"#utility.yul\":6037:6041   */\n      dup1\n        /* \"#utility.yul\":6027:6035   */\n      dup7\n        /* \"#utility.yul\":6023:6042   */\n      and\n        /* \"#utility.yul\":6016:6021   */\n      dup5\n        /* \"#utility.yul\":6013:6043   */\n      or\n        /* \"#utility.yul\":6003:6043   */\n      swap3\n      pop\n        /* \"#utility.yul\":5732:6049   */\n      pop\n      pop\n        /* \"#utility.yul\":5656:6049   */\n      swap4\n      swap3\n      pop\n      pop\n      pop\n      jump\t// out\n        /* \"#utility.yul\":6055:6115   */\n    tag_53:\n        /* \"#utility.yul\":6083:6086   */\n      0x00\n        /* \"#utility.yul\":6104:6109   */\n      dup2\n        /* \"#utility.yul\":6097:6109   */\n      swap1\n      pop\n        /* \"#utility.yul\":6055:6115   */\n      swap2\n      swap1\n      pop\n      jump\t// out\n        /* \"#utility.yul\":6121:6263   */\n    tag_54:\n        /* \"#utility.yul\":6171:6180   */\n      0x00\n        /* \"#utility.yul\":6204:6257   */\n      tag_132\n        /* \"#utility.yul\":6222:6256   */\n      tag_133\n        /* \"#utility.yul\":6231:6255   */\n      tag_134\n        /* \"#utility.yul\":6249:6254   */\n      dup5\n        /* \"#utility.yul\":6231:6255   */\n      tag_38\n      jump\t// in\n    tag_134:\n        /* \"#utility.yul\":6222:6256   */\n      tag_53\n      jump\t// in\n    tag_133:\n        /* \"#utility.yul\":6204:6257   */\n      tag_38\n      jump\t// in\n    tag_132:\n        /* \"#utility.yul\":6191:6257   */\n      swap1\n      pop\n        /* \"#utility.yul\":6121:6263   */\n      swap2\n      swap1\n      pop\n      jump\t// out\n        /* \"#utility.yul\":6269:6344   */\n    tag_55:\n        /* \"#utility.yul\":6312:6315   */\n      0x00\n        /* \"#utility.yul\":6333:6338   */\n      dup2\n        /* \"#utility.yul\":6326:6338   */\n      swap1\n      pop\n        /* \"#utility.yul\":6269:6344   */\n      swap2\n      swap1\n      pop\n      jump\t// out\n        /* \"#utility.yul\":6350:6619   */\n    tag_56:\n        /* \"#utility.yul\":6460:6499   */\n      tag_137\n        /* \"#utility.yul\":6491:6498   */\n      dup4\n        /* \"#utility.yul\":6460:6499   */\n      tag_54\n      jump\t// in\n    tag_137:\n        /* \"#utility.yul\":6521:6612   */\n      tag_138\n        /* \"#utility.yul\":6570:6611   */\n      tag_139\n        /* \"#utility.yul\":6594:6610   */\n      dup3\n        /* \"#utility.yul\":6570:6611   */\n      tag_55\n      jump\t// in\n    tag_139:\n        /* \"#utility.yul\":6562:6568   */\n      dup5\n        /* \"#utility.yul\":6555:6559   */\n      dup5\n        /* \"#utility.yul\":6549:6560   */\n      sload\n        /* \"#utility.yul\":6521:6612   */\n      tag_52\n      jump\t// in\n    tag_138:\n        /* \"#utility.yul\":6515:6519   */\n      dup3\n        /* \"#utility.yul\":6508:6613   */\n      sstore\n        /* \"#utility.yul\":6426:6619   */\n      pop\n        /* \"#utility.yul\":6350:6619   */\n      pop\n      pop\n      pop\n      jump\t// out\n        /* \"#utility.yul\":6625:6698   */\n    tag_57:\n        /* \"#utility.yul\":6670:6673   */\n      0x00\n        /* \"#utility.yul\":6625:6698   */\n      swap1\n      jump\t// out\n        /* \"#utility.yul\":6704:6893   */\n    tag_58:\n        /* \"#utility.yul\":6781:6813   */\n      tag_142\n      tag_57\n      jump\t// in\n    tag_142:\n        /* \"#utility.yul\":6822:6887   */\n      tag_143\n        /* \"#utility.yul\":6880:6886   */\n      dup2\n        /* \"#utility.yul\":6872:6878   */\n      dup5\n        /* \"#utility.yul\":6866:6870   */\n      dup5\n        /* \"#utility.yul\":6822:6887   */\n      tag_56\n      jump\t// in\n    tag_143:\n        /* \"#utility.yul\":6757:6893   */\n      pop\n        /* \"#utility.yul\":6704:6893   */\n      pop\n      pop\n      jump\t// out\n        /* \"#utility.yul\":6899:7085   */\n    tag_59:\n        /* \"#utility.yul\":6959:7079   */\n    tag_145:\n        /* \"#utility.yul\":6976:6979   */\n      dup2\n        /* \"#utility.yul\":6969:6974   */\n      dup2\n        /* \"#utility.yul\":6966:6980   */\n      lt\n        /* \"#utility.yul\":6959:7079   */\n      iszero\n      tag_147\n      jumpi\n        /* \"#utility.yul\":7030:7069   */\n      tag_148\n        /* \"#utility.yul\":7067:7068   */\n      0x00\n        /* \"#utility.yul\":7060:7065   */\n      dup3\n        /* \"#utility.yul\":7030:7069   */\n      tag_58\n      jump\t// in\n    tag_148:\n        /* \"#utility.yul\":7003:7004   */\n      0x01\n        /* \"#utility.yul\":6996:7001   */\n      dup2\n        /* \"#utility.yul\":6992:7005   */\n      add\n        /* \"#utility.yul\":6983:7005   */\n      swap1\n      pop\n        /* \"#utility.yul\":6959:7079   */\n      jump(tag_145)\n    tag_147:\n        /* \"#utility.yul\":6899:7085   */\n      pop\n      pop\n      jump\t// out\n        /* \"#utility.yul\":7091:7634   */\n    tag_60:\n        /* \"#utility.yul\":7192:7194   */\n      0x1f\n        /* \"#utility.yul\":7187:7190   */\n      dup3\n        /* \"#utility.yul\":7184:7195   */\n      gt\n        /* \"#utility.yul\":7181:7627   */\n      iszero\n      tag_150\n      jumpi\n        /* \"#utility.yul\":7226:7264   */\n      tag_151\n        /* \"#utility.yul\":7258:7263   */\n      dup2\n        /* \"#utility.yul\":7226:7264   */\n      tag_49\n      jump\t// in\n    tag_151:\n        /* \"#utility.yul\":7310:7339   */\n      tag_152\n        /* \"#utility.yul\":7328:7338   */\n      dup5\n        /* \"#utility.yul\":7310:7339   */\n      tag_50\n      jump\t// in\n    tag_152:\n        /* \"#utility.yul\":7300:7308   */\n      dup2\n        /* \"#utility.yul\":7296:7340   */\n      add\n        /* \"#utility.yul\":7493:7495   */\n      0x20\n        /* \"#utility.yul\":7481:7491   */\n      dup6\n        /* \"#utility.yul\":7478:7496   */\n      lt\n        /* \"#utility.yul\":7475:7524   */\n      iszero\n      tag_153\n      jumpi\n        /* \"#utility.yul\":7514:7522   */\n      dup2\n        /* \"#utility.yul\":7499:7522   */\n      swap1\n      pop\n        /* \"#utility.yul\":7475:7524   */\n    tag_153:\n        /* \"#utility.yul\":7537:7617   */\n      tag_154\n        /* \"#utility.yul\":7593:7615   */\n      tag_155\n        /* \"#utility.yul\":7611:7614   */\n      dup6\n        /* \"#utility.yul\":7593:7615   */\n      tag_50\n      jump\t// in\n    tag_155:\n        /* \"#utility.yul\":7583:7591   */\n      dup4\n        /* \"#utility.yul\":7579:7616   */\n      add\n        /* \"#utility.yul\":7566:7577   */\n      dup3\n        /* \"#utility.yul\":7537:7617   */\n      tag_59\n      jump\t// in\n    tag_154:\n        /* \"#utility.yul\":7196:7627   */\n      pop\n      pop\n        /* \"#utility.yul\":7181:7627   */\n    tag_150:\n        /* \"#utility.yul\":7091:7634   */\n      pop\n      pop\n      pop\n      jump\t// out\n        /* \"#utility.yul\":7640:7757   */\n    tag_61:\n        /* \"#utility.yul\":7694:7702   */\n      0x00\n        /* \"#utility.yul\":7744:7749   */\n      dup3\n        /* \"#utility.yul\":7738:7742   */\n      dup3\n        /* \"#utility.yul\":7734:7750   */\n      shr\n        /* \"#utility.yul\":7713:7750   */\n      swap1\n      pop\n        /* \"#utility.yul\":7640:7757   */\n      swap3\n      swap2\n      pop\n      pop\n      jump\t// out\n        /* \"#utility.yul\":7763:7932   */\n    tag_62:\n        /* \"#utility.yul\":7807:7813   */\n      0x00\n        /* \"#utility.yul\":7840:7891   */\n      tag_158\n        /* \"#utility.yul\":7888:7889   */\n      0x00\n        /* \"#utility.yul\":7884:7890   */\n      not\n        /* \"#utility.yul\":7876:7881   */\n      dup5\n        /* \"#utility.yul\":7873:7874   */\n      0x08\n        /* \"#utility.yul\":7869:7882   */\n      mul\n        /* \"#utility.yul\":7840:7891   */\n      tag_61\n      jump\t// in\n    tag_158:\n        /* \"#utility.yul\":7836:7892   */\n      not\n        /* \"#utility.yul\":7921:7925   */\n      dup1\n        /* \"#utility.yul\":7915:7919   */\n      dup4\n        /* \"#utility.yul\":7911:7926   */\n      and\n        /* \"#utility.yul\":7901:7926   */\n      swap2\n      pop\n        /* \"#utility.yul\":7814:7932   */\n      pop\n        /* \"#utility.yul\":7763:7932   */\n      swap3\n      swap2\n      pop\n      pop\n      jump\t// out\n        /* \"#utility.yul\":7937:8232   */\n    tag_63:\n        /* \"#utility.yul\":8013:8017   */\n      0x00\n        /* \"#utility.yul\":8159:8188   */\n      tag_160\n        /* \"#utility.yul\":8184:8187   */\n      dup4\n        /* \"#utility.yul\":8178:8182   */\n      dup4\n        /* \"#utility.yul\":8159:8188   */\n      tag_62\n      jump\t// in\n    tag_160:\n        /* \"#utility.yul\":8151:8188   */\n      swap2\n      pop\n        /* \"#utility.yul\":8221:8224   */\n      dup3\n        /* \"#utility.yul\":8218:8219   */\n      0x02\n        /* \"#utility.yul\":8214:8225   */\n      mul\n        /* \"#utility.yul\":8208:8212   */\n      dup3\n        /* \"#utility.yul\":8205:8226   */\n      or\n        /* \"#utility.yul\":8197:8226   */\n      swap1\n      pop\n        /* \"#utility.yul\":7937:8232   */\n      swap3\n      swap2\n      pop\n      pop\n      jump\t// out\n        /* \"#utility.yul\":8237:9640   */\n    tag_18:\n        /* \"#utility.yul\":8361:8405   */\n      tag_162\n        /* \"#utility.yul\":8401:8404   */\n      dup4\n        /* \"#utility.yul\":8396:8399   */\n      dup4\n        /* \"#utility.yul\":8361:8405   */\n      tag_46\n      jump\t// in\n    tag_162:\n        /* \"#utility.yul\":8470:8488   */\n      0xffffffffffffffff\n        /* \"#utility.yul\":8462:8468   */\n      dup2\n        /* \"#utility.yul\":8459:8489   */\n      gt\n        /* \"#utility.yul\":8456:8512   */\n      iszero\n      tag_163\n      jumpi\n        /* \"#utility.yul\":8492:8510   */\n      tag_164\n      tag_47\n      jump\t// in\n    tag_164:\n        /* \"#utility.yul\":8456:8512   */\n    tag_163:\n        /* \"#utility.yul\":8536:8574   */\n      tag_165\n        /* \"#utility.yul\":8568:8572   */\n      dup3\n        /* \"#utility.yul\":8562:8573   */\n      sload\n        /* \"#utility.yul\":8536:8574   */\n      tag_22\n      jump\t// in\n    tag_165:\n        /* \"#utility.yul\":8621:8688   */\n      tag_166\n        /* \"#utility.yul\":8681:8687   */\n      dup3\n        /* \"#utility.yul\":8673:8679   */\n      dup3\n        /* \"#utility.yul\":8667:8671   */\n      dup6\n        /* \"#utility.yul\":8621:8688   */\n      tag_60\n      jump\t// in\n    tag_166:\n        /* \"#utility.yul\":8715:8716   */\n      0x00\n        /* \"#utility.yul\":8744:8746   */\n      0x1f\n        /* \"#utility.yul\":8736:8742   */\n      dup4\n        /* \"#utility.yul\":8733:8747   */\n      gt\n        /* \"#utility.yul\":8761:8762   */\n      0x01\n        /* \"#utility.yul\":8756:9388   */\n      dup2\n      eq\n      tag_168\n      jumpi\n        /* \"#utility.yul\":9432:9433   */\n      0x00\n        /* \"#utility.yul\":9449:9455   */\n      dup5\n        /* \"#utility.yul\":9446:9530   */\n      iszero\n      tag_169\n      jumpi\n        /* \"#utility.yul\":9505:9514   */\n      dup3\n        /* \"#utility.yul\":9500:9503   */\n      dup8\n        /* \"#utility.yul\":9496:9515   */\n      add\n        /* \"#utility.yul\":9483:9516   */\n      calldataload\n        /* \"#utility.yul\":9474:9516   */\n      swap1\n      pop\n        /* \"#utility.yul\":9446:9530   */\n    tag_169:\n        /* \"#utility.yul\":9556:9623   */\n      tag_170\n        /* \"#utility.yul\":9616:9622   */\n      dup6\n        /* \"#utility.yul\":9609:9614   */\n      dup3\n        /* \"#utility.yul\":9556:9623   */\n      tag_63\n      jump\t// in\n    tag_170:\n        /* \"#utility.yul\":9550:9554   */\n      dup7\n        /* \"#utility.yul\":9543:9624   */\n      sstore\n        /* \"#utility.yul\":9405:9634   */\n      pop\n        /* \"#utility.yul\":8726:9634   */\n      jump(tag_167)\n        /* \"#utility.yul\":8756:9388   */\n    tag_168:\n        /* \"#utility.yul\":8808:8812   */\n      0x1f\n        /* \"#utility.yul\":8804:8813   */\n      not\n        /* \"#utility.yul\":8796:8802   */\n      dup5\n        /* \"#utility.yul\":8792:8814   */\n      and\n        /* \"#utility.yul\":8842:8879   */\n      tag_171\n        /* \"#utility.yul\":8874:8878   */\n      dup7\n        /* \"#utility.yul\":8842:8879   */\n      tag_49\n      jump\t// in\n    tag_171:\n        /* \"#utility.yul\":8901:8902   */\n      0x00\n        /* \"#utility.yul\":8915:9130   */\n    tag_172:\n        /* \"#utility.yul\":8929:8936   */\n      dup3\n        /* \"#utility.yul\":8926:8927   */\n      dup2\n        /* \"#utility.yul\":8923:8937   */\n      lt\n        /* \"#utility.yul\":8915:9130   */\n      iszero\n      tag_174\n      jumpi\n        /* \"#utility.yul\":9015:9024   */\n      dup5\n        /* \"#utility.yul\":9010:9013   */\n      dup10\n        /* \"#utility.yul\":9006:9025   */\n      add\n        /* \"#utility.yul\":8993:9026   */\n      calldataload\n        /* \"#utility.yul\":8985:8991   */\n      dup3\n        /* \"#utility.yul\":8978:9027   */\n      sstore\n        /* \"#utility.yul\":9066:9067   */\n      0x01\n        /* \"#utility.yul\":9058:9064   */\n      dup3\n        /* \"#utility.yul\":9054:9068   */\n      add\n        /* \"#utility.yul\":9044:9068   */\n      swap2\n      pop\n        /* \"#utility.yul\":9113:9115   */\n      0x20\n        /* \"#utility.yul\":9102:9111   */\n      dup6\n        /* \"#utility.yul\":9098:9116   */\n      add\n        /* \"#utility.yul\":9085:9116   */\n      swap5\n      pop\n        /* \"#utility.yul\":8952:8956   */\n      0x20\n        /* \"#utility.yul\":8949:8950   */\n      dup2\n        /* \"#utility.yul\":8945:8957   */\n      add\n        /* \"#utility.yul\":8940:8957   */\n      swap1\n      pop\n        /* \"#utility.yul\":8915:9130   */\n      jump(tag_172)\n    tag_174:\n        /* \"#utility.yul\":9158:9164   */\n      dup7\n        /* \"#utility.yul\":9149:9156   */\n      dup4\n        /* \"#utility.yul\":9146:9165   */\n      lt\n        /* \"#utility.yul\":9143:9329   */\n      iszero\n      tag_175\n      jumpi\n        /* \"#utility.yul\":9223:9232   */\n      dup5\n        /* \"#utility.yul\":9218:9221   */\n      dup10\n        /* \"#utility.yul\":9214:9233   */\n      add\n        /* \"#utility.yul\":9201:9234   */\n      calldataload\n        /* \"#utility.yul\":9266:9314   */\n      tag_176\n        /* \"#utility.yul\":9308:9312   */\n      0x1f\n        /* \"#utility.yul\":9300:9306   */\n      dup10\n        /* \"#utility.yul\":9296:9313   */\n      and\n        /* \"#utility.yul\":9285:9294   */\n      dup3\n        /* \"#utility.yul\":9266:9314   */\n      tag_62\n      jump\t// in\n    tag_176:\n        /* \"#utility.yul\":9258:9264   */\n      dup4\n        /* \"#utility.yul\":9251:9315   */\n      sstore\n        /* \"#utility.yul\":9166:9329   */\n      pop\n        /* \"#utility.yul\":9143:9329   */\n    tag_175:\n        /* \"#utility.yul\":9375:9376   */\n      0x01\n        /* \"#utility.yul\":9371:9372   */\n      0x02\n        /* \"#utility.yul\":9363:9369   */\n      dup9\n        /* \"#utility.yul\":9359:9373   */\n      mul\n        /* \"#utility.yul\":9355:9377   */\n      add\n        /* \"#utility.yul\":9349:9353   */\n      dup9\n        /* \"#utility.yul\":9342:9378   */\n      sstore\n        /* \"#utility.yul\":8763:9388   */\n      pop\n      pop\n      pop\n        /* \"#utility.yul\":8726:9634   */\n    tag_167:\n      pop\n        /* \"#utility.yul\":8336:9640   */\n      pop\n      pop\n      pop\n        /* \"#utility.yul\":8237:9640   */\n      pop\n      pop\n      pop\n      jump\t// out\n\n    auxdata: 0xa2646970667358221220894bbc9d279eda5902add49ce8a05c4fe1964d69b2e13ccd1d58780377a1f6be64736f6c63430008170033\n}\n",
				"bytecode": {
					"linkReferences": {},
					"object": "608060405234801561000f575f80fd5b5061070a8061001d5f395ff3fe608060405234801561000f575f80fd5b5060043610610034575f3560e01c806322a618fa14610038578063a3b2379714610054575b5f80fd5b610052600480360381019061004d9190610216565b610084565b005b61006e600480360381019061006991906102ee565b6100fd565b60405161007b91906103b6565b60405180910390f35b5f803373ffffffffffffffffffffffffffffffffffffffff1673ffffffffffffffffffffffffffffffffffffffff1681526020019081526020015f20828290918060018154018082558091505060019003905f5260205f20015f9091929091929091929091925091826100f8929190610607565b505050565b5f602052815f5260405f208181548110610115575f80fd5b905f5260205f20015f9150915050805461012e9061043a565b80601f016020809104026020016040519081016040528092919081815260200182805461015a9061043a565b80156101a55780601f1061017c576101008083540402835291602001916101a5565b820191905f5260205f20905b81548152906001019060200180831161018857829003601f168201915b505050505081565b5f80fd5b5f80fd5b5f80fd5b5f80fd5b5f80fd5b5f8083601f8401126101d6576101d56101b5565b5b8235905067ffffffffffffffff8111156101f3576101f26101b9565b5b60208301915083600182028301111561020f5761020e6101bd565b5b9250929050565b5f806020838503121561022c5761022b6101ad565b5b5f83013567ffffffffffffffff811115610249576102486101b1565b5b610255858286016101c1565b92509250509250929050565b5f73ffffffffffffffffffffffffffffffffffffffff82169050919050565b5f61028a82610261565b9050919050565b61029a81610280565b81146102a4575f80fd5b50565b5f813590506102b581610291565b92915050565b5f819050919050565b6102cd816102bb565b81146102d7575f80fd5b50565b5f813590506102e8816102c4565b92915050565b5f8060408385031215610304576103036101ad565b5b5f610311858286016102a7565b9250506020610322858286016102da565b9150509250929050565b5f81519050919050565b5f82825260208201905092915050565b5f5b83811015610363578082015181840152602081019050610348565b5f8484015250505050565b5f601f19601f8301169050919050565b5f6103888261032c565b6103928185610336565b93506103a2818560208601610346565b6103ab8161036e565b840191505092915050565b5f6020820190508181035f8301526103ce818461037e565b905092915050565b5f82905092915050565b7f4e487b71000000000000000000000000000000000000000000000000000000005f52604160045260245ffd5b7f4e487b71000000000000000000000000000000000000000000000000000000005f52602260045260245ffd5b5f600282049050600182168061045157607f821691505b6020821081036104645761046361040d565b5b50919050565b5f819050815f5260205f209050919050565b5f6020601f8301049050919050565b5f82821b905092915050565b5f600883026104c67fffffffffffffffffffffffffffffffffffffffffffffffffffffffffffffffff8261048b565b6104d0868361048b565b95508019841693508086168417925050509392505050565b5f819050919050565b5f61050b610506610501846102bb565b6104e8565b6102bb565b9050919050565b5f819050919050565b610524836104f1565b61053861053082610512565b848454610497565b825550505050565b5f90565b61054c610540565b61055781848461051b565b505050565b5b8181101561057a5761056f5f82610544565b60018101905061055d565b5050565b601f8211156105bf576105908161046a565b6105998461047c565b810160208510156105a8578190505b6105bc6105b48561047c565b83018261055c565b50505b505050565b5f82821c905092915050565b5f6105df5f19846008026105c4565b1980831691505092915050565b5f6105f783836105d0565b9150826002028217905092915050565b61061183836103d6565b67ffffffffffffffff81111561062a576106296103e0565b5b610634825461043a565b61063f82828561057e565b5f601f83116001811461066c575f841561065a578287013590505b61066485826105ec565b8655506106cb565b601f19841661067a8661046a565b5f5b828110156106a15784890135825560018201915060208501945060208101905061067c565b868310156106be57848901356106ba601f8916826105d0565b8355505b6001600288020188555050505b5050505050505056fea2646970667358221220894bbc9d279eda5902add49ce8a05c4fe1964d69b2e13ccd1d58780377a1f6be64736f6c63430008170033",
					"opcodes": "PUSH1 0x80 PUSH1 0x40 MSTORE CALLVALUE DUP1 ISZERO PUSH2 0xF JUMPI PUSH0 DUP1 REVERT JUMPDEST POP PUSH2 0x70A DUP1 PUSH2 0x1D PUSH0 CODECOPY PUSH0 RETURN INVALID PUSH1 0x80 PUSH1 0x40 MSTORE CALLVALUE DUP1 ISZERO PUSH2 0xF JUMPI PUSH0 DUP1 REVERT JUMPDEST POP PUSH1 0x4 CALLDATASIZE LT PUSH2 0x34 JUMPI PUSH0 CALLDATALOAD PUSH1 0xE0 SHR DUP1 PUSH4 0x22A618FA EQ PUSH2 0x38 JUMPI DUP1 PUSH4 0xA3B23797 EQ PUSH2 0x54 JUMPI JUMPDEST PUSH0 DUP1 REVERT JUMPDEST PUSH2 0x52 PUSH1 0x4 DUP1 CALLDATASIZE SUB DUP2 ADD SWAP1 PUSH2 0x4D SWAP2 SWAP1 PUSH2 0x216 JUMP JUMPDEST PUSH2 0x84 JUMP JUMPDEST STOP JUMPDEST PUSH2 0x6E PUSH1 0x4 DUP1 CALLDATASIZE SUB DUP2 ADD SWAP1 PUSH2 0x69 SWAP2 SWAP1 PUSH2 0x2EE JUMP JUMPDEST PUSH2 0xFD JUMP JUMPDEST PUSH1 0x40 MLOAD PUSH2 0x7B SWAP2 SWAP1 PUSH2 0x3B6 JUMP JUMPDEST PUSH1 0x40 MLOAD DUP1 SWAP2 SUB SWAP1 RETURN JUMPDEST PUSH0 DUP1 CALLER PUSH20 0xFFFFFFFFFFFFFFFFFFFFFFFFFFFFFFFFFFFFFFFF AND PUSH20 0xFFFFFFFFFFFFFFFFFFFFFFFFFFFFFFFFFFFFFFFF AND DUP2 MSTORE PUSH1 0x20 ADD SWAP1 DUP2 MSTORE PUSH1 0x20 ADD PUSH0 KECCAK256 DUP3 DUP3 SWAP1 SWAP2 DUP1 PUSH1 0x1 DUP2 SLOAD ADD DUP1 DUP3 SSTORE DUP1 SWAP2 POP POP PUSH1 0x1 SWAP1 SUB SWAP1 PUSH0 MSTORE PUSH1 0x20 PUSH0 KECCAK256 ADD PUSH0 SWAP1 SWAP2 SWAP3 SWAP1 SWAP2 SWAP3 SWAP1 SWAP2 SWAP3 SWAP1 SWAP2 SWAP3 POP SWAP2 DUP3 PUSH2 0xF8 SWAP3 SWAP2 SWAP1 PUSH2 0x607 JUMP JUMPDEST POP POP POP JUMP JUMPDEST PUSH0 PUSH1 0x20 MSTORE DUP2 PUSH0 MSTORE PUSH1 0x40 PUSH0 KECCAK256 DUP2 DUP2 SLOAD DUP2 LT PUSH2 0x115 JUMPI PUSH0 DUP1 REVERT JUMPDEST SWAP1 PUSH0 MSTORE PUSH1 0x20 PUSH0 KECCAK256 ADD PUSH0 SWAP2 POP SWAP2 POP POP DUP1 SLOAD PUSH2 0x12E SWAP1 PUSH2 0x43A JUMP JUMPDEST DUP1 PUSH1 0x1F ADD PUSH1 0x20 DUP1 SWAP2 DIV MUL PUSH1 0x20 ADD PUSH1 0x40 MLOAD SWAP1 DUP2 ADD PUSH1 0x40 MSTORE DUP1 SWAP3 SWAP2 SWAP1 DUP2 DUP2 MSTORE PUSH1 0x20 ADD DUP3 DUP1 SLOAD PUSH2 0x15A SWAP1 PUSH2 0x43A JUMP JUMPDEST DUP1 ISZERO PUSH2 0x1A5 JUMPI DUP1 PUSH1 0x1F LT PUSH2 0x17C JUMPI PUSH2 0x100 DUP1 DUP4 SLOAD DIV MUL DUP4 MSTORE SWAP2 PUSH1 0x20 ADD SWAP2 PUSH2 0x1A5 JUMP JUMPDEST DUP3 ADD SWAP2 SWAP1 PUSH0 MSTORE PUSH1 0x20 PUSH0 KECCAK256 SWAP1 JUMPDEST DUP2 SLOAD DUP2 MSTORE SWAP1 PUSH1 0x1 ADD SWAP1 PUSH1 0x20 ADD DUP1 DUP4 GT PUSH2 0x188 JUMPI DUP3 SWAP1 SUB PUSH1 0x1F AND DUP3 ADD SWAP2 JUMPDEST POP POP POP POP POP DUP2 JUMP JUMPDEST PUSH0 DUP1 REVERT JUMPDEST PUSH0 DUP1 REVERT JUMPDEST PUSH0 DUP1 REVERT JUMPDEST PUSH0 DUP1 REVERT JUMPDEST PUSH0 DUP1 REVERT JUMPDEST PUSH0 DUP1 DUP4 PUSH1 0x1F DUP5 ADD SLT PUSH2 0x1D6 JUMPI PUSH2 0x1D5 PUSH2 0x1B5 JUMP JUMPDEST JUMPDEST DUP3 CALLDATALOAD SWAP1 POP PUSH8 0xFFFFFFFFFFFFFFFF DUP2 GT ISZERO PUSH2 0x1F3 JUMPI PUSH2 0x1F2 PUSH2 0x1B9 JUMP JUMPDEST JUMPDEST PUSH1 0x20 DUP4 ADD SWAP2 POP DUP4 PUSH1 0x1 DUP3 MUL DUP4 ADD GT ISZERO PUSH2 0x20F JUMPI PUSH2 0x20E PUSH2 0x1BD JUMP JUMPDEST JUMPDEST SWAP3 POP SWAP3 SWAP1 POP JUMP JUMPDEST PUSH0 DUP1 PUSH1 0x20 DUP4 DUP6 SUB SLT ISZERO PUSH2 0x22C JUMPI PUSH2 0x22B PUSH2 0x1AD JUMP JUMPDEST JUMPDEST PUSH0 DUP4 ADD CALLDATALOAD PUSH8 0xFFFFFFFFFFFFFFFF DUP2 GT ISZERO PUSH2 0x249 JUMPI PUSH2 0x248 PUSH2 0x1B1 JUMP JUMPDEST JUMPDEST PUSH2 0x255 DUP6 DUP3 DUP7 ADD PUSH2 0x1C1 JUMP JUMPDEST SWAP3 POP SWAP3 POP POP SWAP3 POP SWAP3 SWAP1 POP JUMP JUMPDEST PUSH0 PUSH20 0xFFFFFFFFFFFFFFFFFFFFFFFFFFFFFFFFFFFFFFFF DUP3 AND SWAP1 POP SWAP2 SWAP1 POP JUMP JUMPDEST PUSH0 PUSH2 0x28A DUP3 PUSH2 0x261 JUMP JUMPDEST SWAP1 POP SWAP2 SWAP1 POP JUMP JUMPDEST PUSH2 0x29A DUP2 PUSH2 0x280 JUMP JUMPDEST DUP2 EQ PUSH2 0x2A4 JUMPI PUSH0 DUP1 REVERT JUMPDEST POP JUMP JUMPDEST PUSH0 DUP2 CALLDATALOAD SWAP1 POP PUSH2 0x2B5 DUP2 PUSH2 0x291 JUMP JUMPDEST SWAP3 SWAP2 POP POP JUMP JUMPDEST PUSH0 DUP2 SWAP1 POP SWAP2 SWAP1 POP JUMP JUMPDEST PUSH2 0x2CD DUP2 PUSH2 0x2BB JUMP JUMPDEST DUP2 EQ PUSH2 0x2D7 JUMPI PUSH0 DUP1 REVERT JUMPDEST POP JUMP JUMPDEST PUSH0 DUP2 CALLDATALOAD SWAP1 POP PUSH2 0x2E8 DUP2 PUSH2 0x2C4 JUMP JUMPDEST SWAP3 SWAP2 POP POP JUMP JUMPDEST PUSH0 DUP1 PUSH1 0x40 DUP4 DUP6 SUB SLT ISZERO PUSH2 0x304 JUMPI PUSH2 0x303 PUSH2 0x1AD JUMP JUMPDEST JUMPDEST PUSH0 PUSH2 0x311 DUP6 DUP3 DUP7 ADD PUSH2 0x2A7 JUMP JUMPDEST SWAP3 POP POP PUSH1 0x20 PUSH2 0x322 DUP6 DUP3 DUP7 ADD PUSH2 0x2DA JUMP JUMPDEST SWAP2 POP POP SWAP3 POP SWAP3 SWAP1 POP JUMP JUMPDEST PUSH0 DUP2 MLOAD SWAP1 POP SWAP2 SWAP1 POP JUMP JUMPDEST PUSH0 DUP3 DUP3 MSTORE PUSH1 0x20 DUP3 ADD SWAP1 POP SWAP3 SWAP2 POP POP JUMP JUMPDEST PUSH0 JUMPDEST DUP4 DUP2 LT ISZERO PUSH2 0x363 JUMPI DUP1 DUP3 ADD MLOAD DUP2 DUP5 ADD MSTORE PUSH1 0x20 DUP2 ADD SWAP1 POP PUSH2 0x348 JUMP JUMPDEST PUSH0 DUP5 DUP5 ADD MSTORE POP POP POP POP JUMP JUMPDEST PUSH0 PUSH1 0x1F NOT PUSH1 0x1F DUP4 ADD AND SWAP1 POP SWAP2 SWAP1 POP JUMP JUMPDEST PUSH0 PUSH2 0x388 DUP3 PUSH2 0x32C JUMP JUMPDEST PUSH2 0x392 DUP2 DUP6 PUSH2 0x336 JUMP JUMPDEST SWAP4 POP PUSH2 0x3A2 DUP2 DUP6 PUSH1 0x20 DUP7 ADD PUSH2 0x346 JUMP JUMPDEST PUSH2 0x3AB DUP2 PUSH2 0x36E JUMP JUMPDEST DUP5 ADD SWAP2 POP POP SWAP3 SWAP2 POP POP JUMP JUMPDEST PUSH0 PUSH1 0x20 DUP3 ADD SWAP1 POP DUP2 DUP2 SUB PUSH0 DUP4 ADD MSTORE PUSH2 0x3CE DUP2 DUP5 PUSH2 0x37E JUMP JUMPDEST SWAP1 POP SWAP3 SWAP2 POP POP JUMP JUMPDEST PUSH0 DUP3 SWAP1 POP SWAP3 SWAP2 POP POP JUMP JUMPDEST PUSH32 0x4E487B7100000000000000000000000000000000000000000000000000000000 PUSH0 MSTORE PUSH1 0x41 PUSH1 0x4 MSTORE PUSH1 0x24 PUSH0 REVERT JUMPDEST PUSH32 0x4E487B7100000000000000000000000000000000000000000000000000000000 PUSH0 MSTORE PUSH1 0x22 PUSH1 0x4 MSTORE PUSH1 0x24 PUSH0 REVERT JUMPDEST PUSH0 PUSH1 0x2 DUP3 DIV SWAP1 POP PUSH1 0x1 DUP3 AND DUP1 PUSH2 0x451 JUMPI PUSH1 0x7F DUP3 AND SWAP2 POP JUMPDEST PUSH1 0x20 DUP3 LT DUP2 SUB PUSH2 0x464 JUMPI PUSH2 0x463 PUSH2 0x40D JUMP JUMPDEST JUMPDEST POP SWAP2 SWAP1 POP JUMP JUMPDEST PUSH0 DUP2 SWAP1 POP DUP2 PUSH0 MSTORE PUSH1 0x20 PUSH0 KECCAK256 SWAP1 POP SWAP2 SWAP1 POP JUMP JUMPDEST PUSH0 PUSH1 0x20 PUSH1 0x1F DUP4 ADD DIV SWAP1 POP SWAP2 SWAP1 POP JUMP JUMPDEST PUSH0 DUP3 DUP3 SHL SWAP1 POP SWAP3 SWAP2 POP POP JUMP JUMPDEST PUSH0 PUSH1 0x8 DUP4 MUL PUSH2 0x4C6 PUSH32 0xFFFFFFFFFFFFFFFFFFFFFFFFFFFFFFFFFFFFFFFFFFFFFFFFFFFFFFFFFFFFFFFF DUP3 PUSH2 0x48B JUMP JUMPDEST PUSH2 0x4D0 DUP7 DUP4 PUSH2 0x48B JUMP JUMPDEST SWAP6 POP DUP1 NOT DUP5 AND SWAP4 POP DUP1 DUP7 AND DUP5 OR SWAP3 POP POP POP SWAP4 SWAP3 POP POP POP JUMP JUMPDEST PUSH0 DUP2 SWAP1 POP SWAP2 SWAP1 POP JUMP JUMPDEST PUSH0 PUSH2 0x50B PUSH2 0x506 PUSH2 0x501 DUP5 PUSH2 0x2BB JUMP JUMPDEST PUSH2 0x4E8 JUMP JUMPDEST PUSH2 0x2BB JUMP JUMPDEST SWAP1 POP SWAP2 SWAP1 POP JUMP JUMPDEST PUSH0 DUP2 SWAP1 POP SWAP2 SWAP1 POP JUMP JUMPDEST PUSH2 0x524 DUP4 PUSH2 0x4F1 JUMP JUMPDEST PUSH2 0x538 PUSH2 0x530 DUP3 PUSH2 0x512 JUMP JUMPDEST DUP5 DUP5 SLOAD PUSH2 0x497 JUMP JUMPDEST DUP3 SSTORE POP POP POP POP JUMP JUMPDEST PUSH0 SWAP1 JUMP JUMPDEST PUSH2 0x54C PUSH2 0x540 JUMP JUMPDEST PUSH2 0x557 DUP2 DUP5 DUP5 PUSH2 0x51B JUMP JUMPDEST POP POP POP JUMP JUMPDEST JUMPDEST DUP2 DUP2 LT ISZERO PUSH2 0x57A JUMPI PUSH2 0x56F PUSH0 DUP3 PUSH2 0x544 JUMP JUMPDEST PUSH1 0x1 DUP2 ADD SWAP1 POP PUSH2 0x55D JUMP JUMPDEST POP POP JUMP JUMPDEST PUSH1 0x1F DUP3 GT ISZERO PUSH2 0x5BF JUMPI PUSH2 0x590 DUP2 PUSH2 0x46A JUMP JUMPDEST PUSH2 0x599 DUP5 PUSH2 0x47C JUMP JUMPDEST DUP2 ADD PUSH1 0x20 DUP6 LT ISZERO PUSH2 0x5A8 JUMPI DUP2 SWAP1 POP JUMPDEST PUSH2 0x5BC PUSH2 0x5B4 DUP6 PUSH2 0x47C JUMP JUMPDEST DUP4 ADD DUP3 PUSH2 0x55C JUMP JUMPDEST POP POP JUMPDEST POP POP POP JUMP JUMPDEST PUSH0 DUP3 DUP3 SHR SWAP1 POP SWAP3 SWAP2 POP POP JUMP JUMPDEST PUSH0 PUSH2 0x5DF PUSH0 NOT DUP5 PUSH1 0x8 MUL PUSH2 0x5C4 JUMP JUMPDEST NOT DUP1 DUP4 AND SWAP2 POP POP SWAP3 SWAP2 POP POP JUMP JUMPDEST PUSH0 PUSH2 0x5F7 DUP4 DUP4 PUSH2 0x5D0 JUMP JUMPDEST SWAP2 POP DUP3 PUSH1 0x2 MUL DUP3 OR SWAP1 POP SWAP3 SWAP2 POP POP JUMP JUMPDEST PUSH2 0x611 DUP4 DUP4 PUSH2 0x3D6 JUMP JUMPDEST PUSH8 0xFFFFFFFFFFFFFFFF DUP2 GT ISZERO PUSH2 0x62A JUMPI PUSH2 0x629 PUSH2 0x3E0 JUMP JUMPDEST JUMPDEST PUSH2 0x634 DUP3 SLOAD PUSH2 0x43A JUMP JUMPDEST PUSH2 0x63F DUP3 DUP3 DUP6 PUSH2 0x57E JUMP JUMPDEST PUSH0 PUSH1 0x1F DUP4 GT PUSH1 0x1 DUP2 EQ PUSH2 0x66C JUMPI PUSH0 DUP5 ISZERO PUSH2 0x65A JUMPI DUP3 DUP8 ADD CALLDATALOAD SWAP1 POP JUMPDEST PUSH2 0x664 DUP6 DUP3 PUSH2 0x5EC JUMP JUMPDEST DUP7 SSTORE POP PUSH2 0x6CB JUMP JUMPDEST PUSH1 0x1F NOT DUP5 AND PUSH2 0x67A DUP7 PUSH2 0x46A JUMP JUMPDEST PUSH0 JUMPDEST DUP3 DUP2 LT ISZERO PUSH2 0x6A1 JUMPI DUP5 DUP10 ADD CALLDATALOAD DUP3 SSTORE PUSH1 0x1 DUP3 ADD SWAP2 POP PUSH1 0x20 DUP6 ADD SWAP5 POP PUSH1 0x20 DUP2 ADD SWAP1 POP PUSH2 0x67C JUMP JUMPDEST DUP7 DUP4 LT ISZERO PUSH2 0x6BE JUMPI DUP5 DUP10 ADD CALLDATALOAD PUSH2 0x6BA PUSH1 0x1F DUP10 AND DUP3 PUSH2 0x5D0 JUMP JUMPDEST DUP4 SSTORE POP JUMPDEST PUSH1 0x1 PUSH1 0x2 DUP9 MUL ADD DUP9 SSTORE POP POP POP JUMPDEST POP POP POP POP POP POP POP JUMP INVALID LOG2 PUSH5 0x6970667358 0x22 SLT KECCAK256 DUP10 0x4B 0xBC SWAP14 0x27 SWAP15 0xDA MSIZE MUL 0xAD 0xD4 SWAP13 0xE8 LOG0 0x5C 0x4F 0xE1 SWAP7 0x4D PUSH10 0xB2E13CCD1D58780377A1 0xF6 0xBE PUSH5 0x736F6C6343 STOP ADDMOD OR STOP CALLER "
				},
				"gasEstimates": {
					"creation": {
						"codeDepositCost": "360400",
						"executionCost": "397",
						"totalCost": "360797"
					},
					"external": {
						"addLink(string)": "infinite",
						"links(address,uint256)": "infinite"
					}
				},
				"methodIdentifiers": {
					"addLink(string)": "22a618fa",
					"links(address,uint256)": "a3b23797"
				}
			},
			"storageLayout": {
				"storage": [
					{
						"astId": 6,
						"contract": "monad dashboard/LinkVault.sol:LinkVault",
						"label": "links",
						"offset": 0,
						"slot": "0",
						"type": "t_mapping(t_address,t_array(t_string_storage)dyn_storage)"
					}
				],
				"types": {
					"t_address": {
						"encoding": "inplace",
						"label": "address",
						"numberOfBytes": "20"
					},
					"t_array(t_string_storage)dyn_storage": {
						"base": "t_string_storage",
						"encoding": "dynamic_array",
						"label": "string[]",
						"numberOfBytes": "32"
					},
					"t_mapping(t_address,t_array(t_string_storage)dyn_storage)": {
						"encoding": "mapping",
						"key": "t_address",
						"label": "mapping(address => string[])",
						"numberOfBytes": "32",
						"value": "t_array(t_string_storage)dyn_storage"
					},
					"t_string_storage": {
						"encoding": "bytes",
						"label": "string",
						"numberOfBytes": "32"
					}
				}
			},
			"userdoc": {
				"kind": "user",
				"methods": {},
				"version": 1
			}
		}
	}
}