{
	"monad dashboard/Counter.sol": {
		"Counter": {
			"abi": [
				{
					"inputs": [],
					"name": "count",
					"outputs": [
						{
							"internalType": "int256",
							"name": "",
							"type": "int256"
						}
					],
					"stateMutability": "view",
					"type": "function"
				},
				{
					"inputs": [],
					"name": "decrement",
					"outputs": [],
					"stateMutability": "nonpayable",
					"type": "function"
				},
				{
					"inputs": [],
					"name": "increment",
					"outputs": [],
					"stateMutability": "nonpayable",
					"type": "function"
				}
			],
			"devdoc": {
				"kind": "dev",
				"methods": {},
				"version": 1
			},
			"evm": {
				"assembly": "    /* \"monad dashboard/Counter.sol\":61:239  contract Counter {... */\n  mstore(0x40, 0x80)\n    /* \"monad dashboard/Counter.sol\":104:105  0 */\n  0x00\n    /* \"monad dashboard/Counter.sol\":85:105  int public count = 0 */\n  dup1\n  sstore\n    /* \"monad dashboard/Counter.sol\":61:239  contract Counter {... */\n  callvalue\n  dup1\n  iszero\n  tag_1\n  jumpi\n  0x00\n  dup1\n  revert\ntag_1:\n  pop\n  dataSize(sub_0)\n  dup1\n  dataOffset(sub_0)\n  0x00\n  codecopy\n  0x00\n  return\nstop\n\nsub_0: assembly {\n        /* \"monad dashboard/Counter.sol\":61:239  contract Counter {... */\n      mstore(0x40, 0x80)\n      callvalue\n      dup1\n      iszero\n      tag_1\n      jumpi\n      0x00\n      dup1\n      revert\n    tag_1:\n      pop\n      jumpi(tag_2, lt(calldatasize, 0x04))\n      shr(0xe0, calldataload(0x00))\n      dup1\n      0x06661abd\n      eq\n      tag_3\n      jumpi\n      dup1\n      0x2baeceb7\n      eq\n      tag_4\n      jumpi\n      dup1\n      0xd09de08a\n      eq\n      tag_5\n      jumpi\n    tag_2:\n      0x00\n      dup1\n      revert\n        /* \"monad dashboard/Counter.sol\":85:105  int public count = 0 */\n    tag_3:\n      tag_6\n      tag_7\n      jump\t// in\n    tag_6:\n      mload(0x40)\n      tag_8\n      swap2\n      swap1\n      tag_9\n      jump\t// in\n    tag_8:\n      mload(0x40)\n      dup1\n      swap2\n      sub\n      swap1\n      return\n        /* \"monad dashboard/Counter.sol\":179:236  function decrement() public {... */\n    tag_4:\n      tag_10\n      tag_11\n      jump\t// in\n    tag_10:\n      stop\n        /* \"monad dashboard/Counter.sol\":114:171  function increment() public {... */\n    tag_5:\n      tag_12\n      tag_13\n      jump\t// in\n    tag_12:\n      stop\n        /* \"monad dashboard/Counter.sol\":85:105  int public count = 0 */\n    tag_7:\n      sload(0x00)\n      dup2\n      jump\t// out\n        /* \"monad dashboard/Counter.sol\":179:236  function decrement() public {... */\n    tag_11:\n        /* \"monad dashboard/Counter.sol\":227:228  1 */\n      0x01\n        /* \"monad dashboard/Counter.sol\":218:223  count */\n      0x00\n      dup1\n        /* \"monad dashboard/Counter.sol\":218:228  count -= 1 */\n      dup3\n      dup3\n      sload\n      tag_15\n      swap2\n      swap1\n      tag_16\n      jump\t// in\n    tag_15:\n      swap3\n      pop\n      pop\n      dup2\n      swap1\n      sstore\n      pop\n        /* \"monad dashboard/Counter.sol\":179:236  function decrement() public {... */\n      jump\t// out\n        /* \"monad dashboard/Counter.sol\":114:171  function increment() public {... */\n    tag_13:\n        /* \"monad dashboard/Counter.sol\":162:163  1 */\n      0x01\n        /* \"monad dashboard/Counter.sol\":153:158  count */\n      0x00\n      dup1\n        /* \"monad dashboard/Counter.sol\":153:163  count += 1 */\n      dup3\n      dup3\n      sload\n      tag_18\n      swap2\n      swap1\n      tag_19\n      jump\t// in\n    tag_18:\n      swap3\n      pop\n      pop\n      dup2\n      swap1\n      sstore\n      pop\n        /* \"monad dashboard/Counter.sol\":114:171  function increment() public {... */\n      jump\t// out\n        /* \"#utility.yul\":7:83   */\n    tag_20:\n        /* \"#utility.yul\":43:50   */\n      0x00\n        /* \"#utility.yul\":72:77   */\n      dup2\n        /* \"#utility.yul\":61:77   */\n      swap1\n      pop\n        /* \"#utility.yul\":7:83   */\n      swap2\n      swap1\n      pop\n      jump\t// out\n        /* \"#utility.yul\":89:204   */\n    tag_21:\n        /* \"#utility.yul\":174:197   */\n      tag_26\n        /* \"#utility.yul\":191:196   */\n      dup2\n        /* \"#utility.yul\":174:197   */\n      tag_20\n      jump\t// in\n    tag_26:\n        /* \"#utility.yul\":169:172   */\n      dup3\n        /* \"#utility.yul\":162:198   */\n      mstore\n        /* \"#utility.yul\":89:204   */\n      pop\n      pop\n      jump\t// out\n        /* \"#utility.yul\":210:428   */\n    tag_9:\n        /* \"#utility.yul\":301:305   */\n      0x00\n        /* \"#utility.yul\":339:341   */\n      0x20\n        /* \"#utility.yul\":328:337   */\n      dup3\n        /* \"#utility.yul\":324:342   */\n      add\n        /* \"#utility.yul\":316:342   */\n      swap1\n      pop\n        /* \"#utility.yul\":352:421   */\n      tag_28\n        /* \"#utility.yul\":418:419   */\n      0x00\n        /* \"#utility.yul\":407:416   */\n      dup4\n        /* \"#utility.yul\":403:420   */\n      add\n        /* \"#utility.yul\":394:400   */\n      dup5\n        /* \"#utility.yul\":352:421   */\n      tag_21\n      jump\t// in\n    tag_28:\n        /* \"#utility.yul\":210:428   */\n      swap3\n      swap2\n      pop\n      pop\n      jump\t// out\n        /* \"#utility.yul\":434:614   */\n    tag_22:\n        /* \"#utility.yul\":482:559   */\n      0x4e487b7100000000000000000000000000000000000000000000000000000000\n        /* \"#utility.yul\":479:480   */\n      0x00\n        /* \"#utility.yul\":472:560   */\n      mstore\n        /* \"#utility.yul\":579:583   */\n      0x11\n        /* \"#utility.yul\":576:577   */\n      0x04\n        /* \"#utility.yul\":569:584   */\n      mstore\n        /* \"#utility.yul\":603:607   */\n      0x24\n        /* \"#utility.yul\":600:601   */\n      0x00\n        /* \"#utility.yul\":593:608   */\n      revert\n        /* \"#utility.yul\":620:992   */\n    tag_16:\n        /* \"#utility.yul\":659:663   */\n      0x00\n        /* \"#utility.yul\":679:698   */\n      tag_31\n        /* \"#utility.yul\":696:697   */\n      dup3\n        /* \"#utility.yul\":679:698   */\n      tag_20\n      jump\t// in\n    tag_31:\n        /* \"#utility.yul\":674:698   */\n      swap2\n      pop\n        /* \"#utility.yul\":712:731   */\n      tag_32\n        /* \"#utility.yul\":729:730   */\n      dup4\n        /* \"#utility.yul\":712:731   */\n      tag_20\n      jump\t// in\n    tag_32:\n        /* \"#utility.yul\":707:731   */\n      swap3\n      pop\n        /* \"#utility.yul\":755:756   */\n      dup3\n        /* \"#utility.yul\":752:753   */\n      dup3\n        /* \"#utility.yul\":748:757   */\n      sub\n        /* \"#utility.yul\":740:757   */\n      swap1\n      pop\n        /* \"#utility.yul\":949:950   */\n      dup2\n        /* \"#utility.yul\":943:947   */\n      dup2\n        /* \"#utility.yul\":939:951   */\n      slt\n        /* \"#utility.yul\":935:936   */\n      0x00\n        /* \"#utility.yul\":932:933   */\n      dup5\n        /* \"#utility.yul\":928:937   */\n      slt\n        /* \"#utility.yul\":924:952   */\n      and\n        /* \"#utility.yul\":907:908   */\n      dup3\n        /* \"#utility.yul\":901:905   */\n      dup3\n        /* \"#utility.yul\":897:909   */\n      sgt\n        /* \"#utility.yul\":892:893   */\n      0x00\n        /* \"#utility.yul\":889:890   */\n      dup6\n        /* \"#utility.yul\":885:894   */\n      slt\n        /* \"#utility.yul\":878:895   */\n      iszero\n        /* \"#utility.yul\":874:910   */\n      and\n        /* \"#utility.yul\":858:962   */\n      or\n        /* \"#utility.yul\":855:985   */\n      iszero\n      tag_33\n      jumpi\n        /* \"#utility.yul\":965:983   */\n      tag_34\n      tag_22\n      jump\t// in\n    tag_34:\n        /* \"#utility.yul\":855:985   */\n    tag_33:\n        /* \"#utility.yul\":620:992   */\n      swap3\n      swap2\n      pop\n      pop\n      jump\t// out\n        /* \"#utility.yul\":998:1373   */\n    tag_19:\n        /* \"#utility.yul\":1037:1040   */\n      0x00\n        /* \"#utility.yul\":1056:1075   */\n      tag_36\n        /* \"#utility.yul\":1073:1074   */\n      dup3\n        /* \"#utility.yul\":1056:1075   */\n      tag_20\n      jump\t// in\n    tag_36:\n        /* \"#utility.yul\":1051:1075   */\n      swap2\n      pop\n        /* \"#utility.yul\":1089:1108   */\n      tag_37\n        /* \"#utility.yul\":1106:1107   */\n      dup4\n        /* \"#utility.yul\":1089:1108   */\n      tag_20\n      jump\t// in\n    tag_37:\n        /* \"#utility.yul\":1084:1108   */\n      swap3\n      pop\n        /* \"#utility.yul\":1131:1132   */\n      dup3\n        /* \"#utility.yul\":1128:1129   */\n      dup3\n        /* \"#utility.yul\":1124:1133   */\n      add\n        /* \"#utility.yul\":1117:1133   */\n      swap1\n      pop\n        /* \"#utility.yul\":1329:1330   */\n      dup3\n        /* \"#utility.yul\":1324:1327   */\n      dup2\n        /* \"#utility.yul\":1320:1331   */\n      slt\n        /* \"#utility.yul\":1313:1332   */\n      iszero\n        /* \"#utility.yul\":1309:1310   */\n      0x00\n        /* \"#utility.yul\":1306:1307   */\n      dup4\n        /* \"#utility.yul\":1302:1311   */\n      slt\n        /* \"#utility.yul\":1298:1333   */\n      and\n        /* \"#utility.yul\":1281:1282   */\n      dup4\n        /* \"#utility.yul\":1276:1279   */\n      dup3\n        /* \"#utility.yul\":1272:1283   */\n      slt\n        /* \"#utility.yul\":1267:1268   */\n      0x00\n        /* \"#utility.yul\":1264:1265   */\n      dup5\n        /* \"#utility.yul\":1260:1269   */\n      slt\n        /* \"#utility.yul\":1253:1270   */\n      iszero\n        /* \"#utility.yul\":1249:1284   */\n      and\n        /* \"#utility.yul\":1233:1343   */\n      or\n        /* \"#utility.yul\":1230:1366   */\n      iszero\n      tag_38\n      jumpi\n        /* \"#utility.yul\":1346:1364   */\n      tag_39\n      tag_22\n      jump\t// in\n    tag_39:\n        /* \"#utility.yul\":1230:1366   */\n    tag_38:\n        /* \"#utility.yul\":998:1373   */\n      swap3\n      swap2\n      pop\n      pop\n      jump\t// out\n\n    auxdata: 0xa264697066735822122009839e33e3da85e8c9d916300d4d00fa5bfeafe93a0fb4b8f406296aacfe5f4164736f6c63430008170033\n}\n",
				"bytecode": {
					"linkReferences": {},
					"object": "60806040525f8055348015610012575f80fd5b506101c3806100205f395ff3fe608060405234801561000f575f80fd5b506004361061003f575f3560e01c806306661abd146100435780632baeceb714610061578063d09de08a1461006b575b5f80fd5b61004b610075565b60405161005891906100c6565b60405180910390f35b61006961007a565b005b610073610094565b005b5f5481565b60015f8082825461008b919061010c565b92505081905550565b60015f808282546100a5919061014c565b92505081905550565b5f819050919050565b6100c0816100ae565b82525050565b5f6020820190506100d95f8301846100b7565b92915050565b7f4e487b71000000000000000000000000000000000000000000000000000000005f52601160045260245ffd5b5f610116826100ae565b9150610121836100ae565b925082820390508181125f8412168282135f851215161715610146576101456100df565b5b92915050565b5f610156826100ae565b9150610161836100ae565b92508282019050828112155f8312168382125f841215161715610187576101866100df565b5b9291505056fea264697066735822122009839e33e3da85e8c9d916300d4d00fa5bfeafe93a0fb4b8f406296aacfe5f4164736f6c63430008170033",
					"opcodes": "PUSH1 0x80 PUSH1 0x40 MSTORE PUSH0 DUP1 SSTORE CALLVALUE DUP1 ISZERO PUSH2 0x12 JUMPI PUSH0 DUP1 REVERT JUMPDEST POP PUSH2 0x1C3 DUP1 PUSH2 0x20 PUSH0 CODECOPY PUSH0 RETURN INVALID PUSH1 0x80 PUSH1 0x40 MSTORE CALLVALUE DUP1 ISZERO PUSH2 0xF JUMPI PUSH0 DUP1 REVERT JUMPDEST POP PUSH1 0x4 CALLDATASIZE LT PUSH2 0x3F JUMPI PUSH0 CALLDATALOAD PUSH1 0xE0 SHR DUP1 PUSH4 0x6661ABD EQ PUSH2 0x43 JUMPI DUP1 PUSH4 0x2BAECEB7 EQ PUSH2 0x61 JUMPI DUP1 PUSH4 0xD09DE08A EQ PUSH2 0x6B JUMPI JUMPDEST PUSH0 DUP1 REVERT JUMPDEST PUSH2 0x4B PUSH2 0x75 JUMP JUMPDEST PUSH1 0x40 MLOAD PUSH2 0x58 SWAP2 SWAP1 PUSH2 0xC6 JUMP JUMPDEST PUSH1 0x40 MLOAD DUP1 SWAP2 SUB SWAP1 RETURN JUMPDEST PUSH2 0x69 PUSH2 0x7A JUMP JUMPDEST STOP JUMPDEST PUSH2 0x73 PUSH2 0x94 JUMP JUMPDEST STOP JUMPDEST PUSH0 SLOAD DUP2 JUMP JUMPDEST PUSH1 0x1 PUSH0 DUP1 DUP3 DUP3 SLOAD PUSH2 0x8B SWAP2 SWAP1 PUSH2 0x10C JUMP JUMPDEST SWAP3 POP POP DUP2 SWAP1 SSTORE POP JUMP JUMPDEST PUSH1 0x1 PUSH0 DUP1 DUP3 DUP3 SLOAD PUSH2 0xA5 SWAP2 SWAP1 PUSH2 0x14C JUMP JUMPDEST SWAP3 POP POP DUP2 SWAP1 SSTORE POP JUMP JUMPDEST PUSH0 DUP2 SWAP1 POP SWAP2 SWAP1 POP JUMP JUMPDEST PUSH2 0xC0 DUP2 PUSH2 0xAE JUMP JUMPDEST DUP3 MSTORE POP POP JUMP JUMPDEST PUSH0 PUSH1 0x20 DUP3 ADD SWAP1 POP PUSH2 0xD9 PUSH0 DUP4 ADD DUP5 PUSH2 0xB7 JUMP JUMPDEST SWAP3 SWAP2 POP POP JUMP JUMPDEST PUSH32 0x4E487B7100000000000000000000000000000000000000000000000000000000 PUSH0 MSTORE PUSH1 0x11 PUSH1 0x4 MSTORE PUSH1 0x24 PUSH0 REVERT JUMPDEST PUSH0 PUSH2 0x116 DUP3 PUSH2 0xAE JUMP JUMPDEST SWAP2 POP PUSH2 0x121 DUP4 PUSH2 0xAE JUMP JUMPDEST SWAP3 POP DUP3 DUP3 SUB SWAP1 POP DUP2 DUP2 SLT PUSH0 DUP5 SLT AND DUP3 DUP3 SGT PUSH0 DUP6 SLT ISZERO AND OR ISZERO PUSH2 0x146 JUMPI PUSH2 0x145 PUSH2 0xDF JUMP JUMPDEST JUMPDEST SWAP3 SWAP2 POP POP JUMP JUMPDEST PUSH0 PUSH2 0x156 DUP3 PUSH2 0xAE JUMP JUMPDEST SWAP2 POP PUSH2 0x161 DUP4 PUSH2 0xAE JUMP JUMPDEST SWAP3 POP DUP3 DUP3 ADD SWAP1 POP DUP3 DUP2 SLT ISZERO PUSH0 DUP4 SLT AND DUP4 DUP3 SLT PUSH0 DUP5 SLT ISZERO AND OR ISZERO PUSH2 0x187 JUMPI PUSH2 0x186 PUSH2 0xDF JUMP JUMPDEST JUMPDEST SWAP3 SWAP2 POP POP JUMP INVALID LOG2 PUSH5 0x6970667358 0x22 SLT KECCAK256 MULMOD DUP4 SWAP15 CALLER 0xE3 0xDA DUP6 0xE8 0xC9 0xD9 AND ADDRESS 0xD 0x4D STOP STATICCALL JUMPDEST INVALID 0xAF 0xE9 GASPRICE 0xF 0xB4 0xB8 DELEGATECALL MOD 0x29 PUSH11 0xACFE5F4164736F6C634300 ADDMOD OR STOP CALLER "
				},
				"gasEstimates": {
					"creation": {
						"codeDepositCost": "90200",
						"executionCost": "5144",
						"totalCost": "95344"
					},
					"external": {
						"count()": "2402",
						"decrement()": "infinite",
						"increment()": "infinite"
					}
				},
				"methodIdentifiers": {
					"count()": "06661abd",
					"decrement()": "2baeceb7",
					"increment()": "d09de08a"
				}
			},
			"storageLayout": {
				"storage": [
					{
						"astId": 4,
						"contract": "monad dashboard/Counter.sol:Counter",
						"label": "count",
						"offset": 0,
						"slot": "0",
						"type": "t_int256"
					}
				],
				"types": {
					"t_int256": {
						"encoding": "inplace",
						"label": "int256",
						"numberOfBytes": "32"
					}
				}
			},
			"userdoc": {
				"kind": "user",
				"methods": {},
				"version": 1
			}
		}
	}
}