{
	"monad dashboard/ProfileStatus.sol": {
		"ProfileStatus": {
			"abi": [
				{
					"inputs": [
						{
							"internalType": "address",
							"name": "",
							"type": "address"
						}
					],
					"name": "status",
					"outputs": [
						{
							"internalType": "string",
							"name": "",
							"type": "string"
						}
					],
					"stateMutability": "view",
					"type": "function"
				},
				{
					"inputs": [
						{
							"internalType": "string",
							"name": "newStatus",
							"type": "string"
						}
					],
					"name": "updateStatus",
					"outputs": [],
					"stateMutability": "nonpayable",
					"type": "function"
				}
			],
			"devdoc": {
				"kind": "dev",
				"methods": {},
				"version": 1
			},
			"evm": {
				"assembly": "    /* \"monad dashboard/ProfileStatus.sol\":101:288  contract ProfileStatus {... */\n  mstore(0x40, 0x80)\n  callvalue\n  dup1\n  iszero\n  tag_1\n  jumpi\n  0x00\n  dup1\n  revert\ntag_1:\n  pop\n  dataSize(sub_0)\n  dup1\n  dataOffset(sub_0)\n  0x00\n  codecopy\n  0x00\n  return\nstop\n\nsub_0: assembly {\n        /* \"monad dashboard/ProfileStatus.sol\":101:288  contract ProfileStatus {... */\n      mstore(0x40, 0x80)\n      callvalue\n      dup1\n      iszero\n      tag_1\n      jumpi\n      0x00\n      dup1\n      revert\n    tag_1:\n      pop\n      jumpi(tag_2, lt(calldatasize, 0x04))\n      shr(0xe0, calldataload(0x00))\n      dup1\n      0x2c215998\n      eq\n      tag_3\n      jumpi\n      dup1\n      0x645b8b1b\n      eq\n      tag_4\n      jumpi\n    tag_2:\n      0x00\n      dup1\n      revert\n        /* \"monad dashboard/ProfileStatus.sol\":178:285  function updateStatus(string calldata newStatus) external {... */\n    tag_3:\n      tag_5\n      0x04\n      dup1\n      calldatasize\n      sub\n      dup2\n      add\n      swap1\n      tag_6\n      swap2\n      swap1\n      tag_7\n      jump\t// in\n    tag_6:\n      tag_8\n      jump\t// in\n    tag_5:\n      stop\n        /* \"monad dashboard/ProfileStatus.sol\":131:171  mapping(address => string) public status */\n    tag_4:\n      tag_9\n      0x04\n      dup1\n      calldatasize\n      sub\n      dup2\n      add\n      swap1\n      tag_10\n      swap2\n      swap1\n      tag_11\n      jump\t// in\n    tag_10:\n      tag_12\n      jump\t// in\n    tag_9:\n      mload(0x40)\n      tag_13\n      swap2\n      swap1\n      tag_14\n      jump\t// in\n    tag_13:\n      mload(0x40)\n      dup1\n      swap2\n      sub\n      swap1\n      return\n        /* \"monad dashboard/ProfileStatus.sol\":178:285  function updateStatus(string calldata newStatus) external {... */\n    tag_8:\n        /* \"monad dashboard/ProfileStatus.sol\":268:277  newStatus */\n      dup2\n      dup2\n        /* \"monad dashboard/ProfileStatus.sol\":247:253  status */\n      0x00\n        /* \"monad dashboard/ProfileStatus.sol\":247:265  status[msg.sender] */\n      dup1\n        /* \"monad dashboard/ProfileStatus.sol\":254:264  msg.sender */\n      caller\n        /* \"monad dashboard/ProfileStatus.sol\":247:265  status[msg.sender] */\n      0xffffffffffffffffffffffffffffffffffffffff\n      and\n      0xffffffffffffffffffffffffffffffffffffffff\n      and\n      dup2\n      mstore\n      0x20\n      add\n      swap1\n      dup2\n      mstore\n      0x20\n      add\n      0x00\n      keccak256\n        /* \"monad dashboard/ProfileStatus.sol\":247:277  status[msg.sender] = newStatus */\n      swap2\n      dup3\n      tag_16\n      swap3\n      swap2\n      swap1\n      tag_17\n      jump\t// in\n    tag_16:\n      pop\n        /* \"monad dashboard/ProfileStatus.sol\":178:285  function updateStatus(string calldata newStatus) external {... */\n      pop\n      pop\n      jump\t// out\n        /* \"monad dashboard/ProfileStatus.sol\":131:171  mapping(address => string) public status */\n    tag_12:\n      mstore(0x20, 0x00)\n      dup1\n      0x00\n      mstore\n      keccak256(0x00, 0x40)\n      0x00\n      swap2\n      pop\n      swap1\n      pop\n      dup1\n      sload\n      tag_18\n      swap1\n      tag_19\n      jump\t// in\n    tag_18:\n      dup1\n      0x1f\n      add\n      0x20\n      dup1\n      swap2\n      div\n      mul\n      0x20\n      add\n      mload(0x40)\n      swap1\n      dup2\n      add\n      0x40\n      mstore\n      dup1\n      swap3\n      swap2\n      swap1\n      dup2\n      dup2\n      mstore\n      0x20\n      add\n      dup3\n      dup1\n      sload\n      tag_20\n      swap1\n      tag_19\n      jump\t// in\n    tag_20:\n      dup1\n      iszero\n      tag_21\n      jumpi\n      dup1\n      0x1f\n      lt\n      tag_22\n      jumpi\n      0x0100\n      dup1\n      dup4\n      sload\n      div\n      mul\n      dup4\n      mstore\n      swap2\n      0x20\n      add\n      swap2\n      jump(tag_21)\n    tag_22:\n      dup3\n      add\n      swap2\n      swap1\n      0x00\n      mstore\n      keccak256(0x00, 0x20)\n      swap1\n    tag_23:\n      dup2\n      sload\n      dup2\n      mstore\n      swap1\n      0x01\n      add\n      swap1\n      0x20\n      add\n      dup1\n      dup4\n      gt\n      tag_23\n      jumpi\n      dup3\n      swap1\n      sub\n      0x1f\n      and\n      dup3\n      add\n      swap2\n    tag_21:\n      pop\n      pop\n      pop\n      pop\n      pop\n      dup2\n      jump\t// out\n        /* \"#utility.yul\":88:205   */\n    tag_25:\n        /* \"#utility.yul\":197:198   */\n      0x00\n        /* \"#utility.yul\":194:195   */\n      dup1\n        /* \"#utility.yul\":187:199   */\n      revert\n        /* \"#utility.yul\":211:328   */\n    tag_26:\n        /* \"#utility.yul\":320:321   */\n      0x00\n        /* \"#utility.yul\":317:318   */\n      dup1\n        /* \"#utility.yul\":310:322   */\n      revert\n        /* \"#utility.yul\":334:451   */\n    tag_27:\n        /* \"#utility.yul\":443:444   */\n      0x00\n        /* \"#utility.yul\":440:441   */\n      dup1\n        /* \"#utility.yul\":433:445   */\n      revert\n        /* \"#utility.yul\":457:574   */\n    tag_28:\n        /* \"#utility.yul\":566:567   */\n      0x00\n        /* \"#utility.yul\":563:564   */\n      dup1\n        /* \"#utility.yul\":556:568   */\n      revert\n        /* \"#utility.yul\":580:697   */\n    tag_29:\n        /* \"#utility.yul\":689:690   */\n      0x00\n        /* \"#utility.yul\":686:687   */\n      dup1\n        /* \"#utility.yul\":679:691   */\n      revert\n        /* \"#utility.yul\":717:1270   */\n    tag_30:\n        /* \"#utility.yul\":775:783   */\n      0x00\n        /* \"#utility.yul\":785:791   */\n      dup1\n        /* \"#utility.yul\":835:838   */\n      dup4\n        /* \"#utility.yul\":828:832   */\n      0x1f\n        /* \"#utility.yul\":820:826   */\n      dup5\n        /* \"#utility.yul\":816:833   */\n      add\n        /* \"#utility.yul\":812:839   */\n      slt\n        /* \"#utility.yul\":802:924   */\n      tag_67\n      jumpi\n        /* \"#utility.yul\":843:922   */\n      tag_68\n      tag_27\n      jump\t// in\n    tag_68:\n        /* \"#utility.yul\":802:924   */\n    tag_67:\n        /* \"#utility.yul\":956:962   */\n      dup3\n        /* \"#utility.yul\":943:963   */\n      calldataload\n        /* \"#utility.yul\":933:963   */\n      swap1\n      pop\n        /* \"#utility.yul\":986:1004   */\n      0xffffffffffffffff\n        /* \"#utility.yul\":978:984   */\n      dup2\n        /* \"#utility.yul\":975:1005   */\n      gt\n        /* \"#utility.yul\":972:1089   */\n      iszero\n      tag_69\n      jumpi\n        /* \"#utility.yul\":1008:1087   */\n      tag_70\n      tag_28\n      jump\t// in\n    tag_70:\n        /* \"#utility.yul\":972:1089   */\n    tag_69:\n        /* \"#utility.yul\":1122:1126   */\n      0x20\n        /* \"#utility.yul\":1114:1120   */\n      dup4\n        /* \"#utility.yul\":1110:1127   */\n      add\n        /* \"#utility.yul\":1098:1127   */\n      swap2\n      pop\n        /* \"#utility.yul\":1176:1179   */\n      dup4\n        /* \"#utility.yul\":1168:1172   */\n      0x01\n        /* \"#utility.yul\":1160:1166   */\n      dup3\n        /* \"#utility.yul\":1156:1173   */\n      mul\n        /* \"#utility.yul\":1146:1154   */\n      dup4\n        /* \"#utility.yul\":1142:1174   */\n      add\n        /* \"#utility.yul\":1139:1180   */\n      gt\n        /* \"#utility.yul\":1136:1264   */\n      iszero\n      tag_71\n      jumpi\n        /* \"#utility.yul\":1183:1262   */\n      tag_72\n      tag_29\n      jump\t// in\n    tag_72:\n        /* \"#utility.yul\":1136:1264   */\n    tag_71:\n        /* \"#utility.yul\":717:1270   */\n      swap3\n      pop\n      swap3\n      swap1\n      pop\n      jump\t// out\n        /* \"#utility.yul\":1276:1805   */\n    tag_7:\n        /* \"#utility.yul\":1347:1353   */\n      0x00\n        /* \"#utility.yul\":1355:1361   */\n      dup1\n        /* \"#utility.yul\":1404:1406   */\n      0x20\n        /* \"#utility.yul\":1392:1401   */\n      dup4\n        /* \"#utility.yul\":1383:1390   */\n      dup6\n        /* \"#utility.yul\":1379:1402   */\n      sub\n        /* \"#utility.yul\":1375:1407   */\n      slt\n        /* \"#utility.yul\":1372:1491   */\n      iszero\n      tag_74\n      jumpi\n        /* \"#utility.yul\":1410:1489   */\n      tag_75\n      tag_25\n      jump\t// in\n    tag_75:\n        /* \"#utility.yul\":1372:1491   */\n    tag_74:\n        /* \"#utility.yul\":1558:1559   */\n      0x00\n        /* \"#utility.yul\":1547:1556   */\n      dup4\n        /* \"#utility.yul\":1543:1560   */\n      add\n        /* \"#utility.yul\":1530:1561   */\n      calldataload\n        /* \"#utility.yul\":1588:1606   */\n      0xffffffffffffffff\n        /* \"#utility.yul\":1580:1586   */\n      dup2\n        /* \"#utility.yul\":1577:1607   */\n      gt\n        /* \"#utility.yul\":1574:1691   */\n      iszero\n      tag_76\n      jumpi\n        /* \"#utility.yul\":1610:1689   */\n      tag_77\n      tag_26\n      jump\t// in\n    tag_77:\n        /* \"#utility.yul\":1574:1691   */\n    tag_76:\n        /* \"#utility.yul\":1723:1788   */\n      tag_78\n        /* \"#utility.yul\":1780:1787   */\n      dup6\n        /* \"#utility.yul\":1771:1777   */\n      dup3\n        /* \"#utility.yul\":1760:1769   */\n      dup7\n        /* \"#utility.yul\":1756:1778   */\n      add\n        /* \"#utility.yul\":1723:1788   */\n      tag_30\n      jump\t// in\n    tag_78:\n        /* \"#utility.yul\":1705:1788   */\n      swap3\n      pop\n      swap3\n      pop\n        /* \"#utility.yul\":1501:1798   */\n      pop\n        /* \"#utility.yul\":1276:1805   */\n      swap3\n      pop\n      swap3\n      swap1\n      pop\n      jump\t// out\n        /* \"#utility.yul\":1811:1937   */\n    tag_31:\n        /* \"#utility.yul\":1848:1855   */\n      0x00\n        /* \"#utility.yul\":1888:1930   */\n      0xffffffffffffffffffffffffffffffffffffffff\n        /* \"#utility.yul\":1881:1886   */\n      dup3\n        /* \"#utility.yul\":1877:1931   */\n      and\n        /* \"#utility.yul\":1866:1931   */\n      swap1\n      pop\n        /* \"#utility.yul\":1811:1937   */\n      swap2\n      swap1\n      pop\n      jump\t// out\n        /* \"#utility.yul\":1943:2039   */\n    tag_32:\n        /* \"#utility.yul\":1980:1987   */\n      0x00\n        /* \"#utility.yul\":2009:2033   */\n      tag_81\n        /* \"#utility.yul\":2027:2032   */\n      dup3\n        /* \"#utility.yul\":2009:2033   */\n      tag_31\n      jump\t// in\n    tag_81:\n        /* \"#utility.yul\":1998:2033   */\n      swap1\n      pop\n        /* \"#utility.yul\":1943:2039   */\n      swap2\n      swap1\n      pop\n      jump\t// out\n        /* \"#utility.yul\":2045:2167   */\n    tag_33:\n        /* \"#utility.yul\":2118:2142   */\n      tag_83\n        /* \"#utility.yul\":2136:2141   */\n      dup2\n        /* \"#utility.yul\":2118:2142   */\n      tag_32\n      jump\t// in\n    tag_83:\n        /* \"#utility.yul\":2111:2116   */\n      dup2\n        /* \"#utility.yul\":2108:2143   */\n      eq\n        /* \"#utility.yul\":2098:2161   */\n      tag_84\n      jumpi\n        /* \"#utility.yul\":2157:2158   */\n      0x00\n        /* \"#utility.yul\":2154:2155   */\n      dup1\n        /* \"#utility.yul\":2147:2159   */\n      revert\n        /* \"#utility.yul\":2098:2161   */\n    tag_84:\n        /* \"#utility.yul\":2045:2167   */\n      pop\n      jump\t// out\n        /* \"#utility.yul\":2173:2312   */\n    tag_34:\n        /* \"#utility.yul\":2219:2224   */\n      0x00\n        /* \"#utility.yul\":2257:2263   */\n      dup2\n        /* \"#utility.yul\":2244:2264   */\n      calldataload\n        /* \"#utility.yul\":2235:2264   */\n      swap1\n      pop\n        /* \"#utility.yul\":2273:2306   */\n      tag_86\n        /* \"#utility.yul\":2300:2305   */\n      dup2\n        /* \"#utility.yul\":2273:2306   */\n      tag_33\n      jump\t// in\n    tag_86:\n        /* \"#utility.yul\":2173:2312   */\n      swap3\n      swap2\n      pop\n      pop\n      jump\t// out\n        /* \"#utility.yul\":2318:2647   */\n    tag_11:\n        /* \"#utility.yul\":2377:2383   */\n      0x00\n        /* \"#utility.yul\":2426:2428   */\n      0x20\n        /* \"#utility.yul\":2414:2423   */\n      dup3\n        /* \"#utility.yul\":2405:2412   */\n      dup5\n        /* \"#utility.yul\":2401:2424   */\n      sub\n        /* \"#utility.yul\":2397:2429   */\n      slt\n        /* \"#utility.yul\":2394:2513   */\n      iszero\n      tag_88\n      jumpi\n        /* \"#utility.yul\":2432:2511   */\n      tag_89\n      tag_25\n      jump\t// in\n    tag_89:\n        /* \"#utility.yul\":2394:2513   */\n    tag_88:\n        /* \"#utility.yul\":2552:2553   */\n      0x00\n        /* \"#utility.yul\":2577:2630   */\n      tag_90\n        /* \"#utility.yul\":2622:2629   */\n      dup5\n        /* \"#utility.yul\":2613:2619   */\n      dup3\n        /* \"#utility.yul\":2602:2611   */\n      dup6\n        /* \"#utility.yul\":2598:2620   */\n      add\n        /* \"#utility.yul\":2577:2630   */\n      tag_34\n      jump\t// in\n    tag_90:\n        /* \"#utility.yul\":2567:2630   */\n      swap2\n      pop\n        /* \"#utility.yul\":2523:2640   */\n      pop\n        /* \"#utility.yul\":2318:2647   */\n      swap3\n      swap2\n      pop\n      pop\n      jump\t// out\n        /* \"#utility.yul\":2653:2752   */\n    tag_35:\n        /* \"#utility.yul\":2705:2711   */\n      0x00\n        /* \"#utility.yul\":2739:2744   */\n      dup2\n        /* \"#utility.yul\":2733:2745   */\n      mload\n        /* \"#utility.yul\":2723:2745   */\n      swap1\n      pop\n        /* \"#utility.yul\":2653:2752   */\n      swap2\n      swap1\n      pop\n      jump\t// out\n        /* \"#utility.yul\":2758:2927   */\n    tag_36:\n        /* \"#utility.yul\":2842:2853   */\n      0x00\n        /* \"#utility.yul\":2876:2882   */\n      dup3\n        /* \"#utility.yul\":2871:2874   */\n      dup3\n        /* \"#utility.yul\":2864:2883   */\n      mstore\n        /* \"#utility.yul\":2916:2920   */\n      0x20\n        /* \"#utility.yul\":2911:2914   */\n      dup3\n        /* \"#utility.yul\":2907:2921   */\n      add\n        /* \"#utility.yul\":2892:2921   */\n      swap1\n      pop\n        /* \"#utility.yul\":2758:2927   */\n      swap3\n      swap2\n      pop\n      pop\n      jump\t// out\n        /* \"#utility.yul\":2933:3179   */\n    tag_37:\n        /* \"#utility.yul\":3014:3015   */\n      0x00\n        /* \"#utility.yul\":3024:3137   */\n    tag_94:\n        /* \"#utility.yul\":3038:3044   */\n      dup4\n        /* \"#utility.yul\":3035:3036   */\n      dup2\n        /* \"#utility.yul\":3032:3045   */\n      lt\n        /* \"#utility.yul\":3024:3137   */\n      iszero\n      tag_96\n      jumpi\n        /* \"#utility.yul\":3123:3124   */\n      dup1\n        /* \"#utility.yul\":3118:3121   */\n      dup3\n        /* \"#utility.yul\":3114:3125   */\n      add\n        /* \"#utility.yul\":3108:3126   */\n      mload\n        /* \"#utility.yul\":3104:3105   */\n      dup2\n        /* \"#utility.yul\":3099:3102   */\n      dup5\n        /* \"#utility.yul\":3095:3106   */\n      add\n        /* \"#utility.yul\":3088:3127   */\n      mstore\n        /* \"#utility.yul\":3060:3062   */\n      0x20\n        /* \"#utility.yul\":3057:3058   */\n      dup2\n        /* \"#utility.yul\":3053:3063   */\n      add\n        /* \"#utility.yul\":3048:3063   */\n      swap1\n      pop\n        /* \"#utility.yul\":3024:3137   */\n      jump(tag_94)\n    tag_96:\n        /* \"#utility.yul\":3171:3172   */\n      0x00\n        /* \"#utility.yul\":3162:3168   */\n      dup5\n        /* \"#utility.yul\":3157:3160   */\n      dup5\n        /* \"#utility.yul\":3153:3169   */\n      add\n        /* \"#utility.yul\":3146:3173   */\n      mstore\n        /* \"#utility.yul\":2995:3179   */\n      pop\n        /* \"#utility.yul\":2933:3179   */\n      pop\n      pop\n      pop\n      jump\t// out\n        /* \"#utility.yul\":3185:3287   */\n    tag_38:\n        /* \"#utility.yul\":3226:3232   */\n      0x00\n        /* \"#utility.yul\":3277:3279   */\n      0x1f\n        /* \"#utility.yul\":3273:3280   */\n      not\n        /* \"#utility.yul\":3268:3270   */\n      0x1f\n        /* \"#utility.yul\":3261:3266   */\n      dup4\n        /* \"#utility.yul\":3257:3271   */\n      add\n        /* \"#utility.yul\":3253:3281   */\n      and\n        /* \"#utility.yul\":3243:3281   */\n      swap1\n      pop\n        /* \"#utility.yul\":3185:3287   */\n      swap2\n      swap1\n      pop\n      jump\t// out\n        /* \"#utility.yul\":3293:3670   */\n    tag_39:\n        /* \"#utility.yul\":3381:3384   */\n      0x00\n        /* \"#utility.yul\":3409:3448   */\n      tag_99\n        /* \"#utility.yul\":3442:3447   */\n      dup3\n        /* \"#utility.yul\":3409:3448   */\n      tag_35\n      jump\t// in\n    tag_99:\n        /* \"#utility.yul\":3464:3535   */\n      tag_100\n        /* \"#utility.yul\":3528:3534   */\n      dup2\n        /* \"#utility.yul\":3523:3526   */\n      dup6\n        /* \"#utility.yul\":3464:3535   */\n      tag_36\n      jump\t// in\n    tag_100:\n        /* \"#utility.yul\":3457:3535   */\n      swap4\n      pop\n        /* \"#utility.yul\":3544:3609   */\n      tag_101\n        /* \"#utility.yul\":3602:3608   */\n      dup2\n        /* \"#utility.yul\":3597:3600   */\n      dup6\n        /* \"#utility.yul\":3590:3594   */\n      0x20\n        /* \"#utility.yul\":3583:3588   */\n      dup7\n        /* \"#utility.yul\":3579:3595   */\n      add\n        /* \"#utility.yul\":3544:3609   */\n      tag_37\n      jump\t// in\n    tag_101:\n        /* \"#utility.yul\":3634:3663   */\n      tag_102\n        /* \"#utility.yul\":3656:3662   */\n      dup2\n        /* \"#utility.yul\":3634:3663   */\n      tag_38\n      jump\t// in\n    tag_102:\n        /* \"#utility.yul\":3629:3632   */\n      dup5\n        /* \"#utility.yul\":3625:3664   */\n      add\n        /* \"#utility.yul\":3618:3664   */\n      swap2\n      pop\n        /* \"#utility.yul\":3385:3670   */\n      pop\n        /* \"#utility.yul\":3293:3670   */\n      swap3\n      swap2\n      pop\n      pop\n      jump\t// out\n        /* \"#utility.yul\":3676:3989   */\n    tag_14:\n        /* \"#utility.yul\":3789:3793   */\n      0x00\n        /* \"#utility.yul\":3827:3829   */\n      0x20\n        /* \"#utility.yul\":3816:3825   */\n      dup3\n        /* \"#utility.yul\":3812:3830   */\n      add\n        /* \"#utility.yul\":3804:3830   */\n      swap1\n      pop\n        /* \"#utility.yul\":3876:3885   */\n      dup2\n        /* \"#utility.yul\":3870:3874   */\n      dup2\n        /* \"#utility.yul\":3866:3886   */\n      sub\n        /* \"#utility.yul\":3862:3863   */\n      0x00\n        /* \"#utility.yul\":3851:3860   */\n      dup4\n        /* \"#utility.yul\":3847:3864   */\n      add\n        /* \"#utility.yul\":3840:3887   */\n      mstore\n        /* \"#utility.yul\":3904:3982   */\n      tag_104\n        /* \"#utility.yul\":3977:3981   */\n      dup2\n        /* \"#utility.yul\":3968:3974   */\n      dup5\n        /* \"#utility.yul\":3904:3982   */\n      tag_39\n      jump\t// in\n    tag_104:\n        /* \"#utility.yul\":3896:3982   */\n      swap1\n      pop\n        /* \"#utility.yul\":3676:3989   */\n      swap3\n      swap2\n      pop\n      pop\n      jump\t// out\n        /* \"#utility.yul\":3995:4092   */\n    tag_40:\n        /* \"#utility.yul\":4054:4060   */\n      0x00\n        /* \"#utility.yul\":4082:4085   */\n      dup3\n        /* \"#utility.yul\":4072:4085   */\n      swap1\n      pop\n        /* \"#utility.yul\":3995:4092   */\n      swap3\n      swap2\n      pop\n      pop\n      jump\t// out\n        /* \"#utility.yul\":4098:4278   */\n    tag_41:\n        /* \"#utility.yul\":4146:4223   */\n      0x4e487b7100000000000000000000000000000000000000000000000000000000\n        /* \"#utility.yul\":4143:4144   */\n      0x00\n        /* \"#utility.yul\":4136:4224   */\n      mstore\n        /* \"#utility.yul\":4243:4247   */\n      0x41\n        /* \"#utility.yul\":4240:4241   */\n      0x04\n        /* \"#utility.yul\":4233:4248   */\n      mstore\n        /* \"#utility.yul\":4267:4271   */\n      0x24\n        /* \"#utility.yul\":4264:4265   */\n      0x00\n        /* \"#utility.yul\":4257:4272   */\n      revert\n        /* \"#utility.yul\":4284:4464   */\n    tag_42:\n        /* \"#utility.yul\":4332:4409   */\n      0x4e487b7100000000000000000000000000000000000000000000000000000000\n        /* \"#utility.yul\":4329:4330   */\n      0x00\n        /* \"#utility.yul\":4322:4410   */\n      mstore\n        /* \"#utility.yul\":4429:4433   */\n      0x22\n        /* \"#utility.yul\":4426:4427   */\n      0x04\n        /* \"#utility.yul\":4419:4434   */\n      mstore\n        /* \"#utility.yul\":4453:4457   */\n      0x24\n        /* \"#utility.yul\":4450:4451   */\n      0x00\n        /* \"#utility.yul\":4443:4458   */\n      revert\n        /* \"#utility.yul\":4470:4790   */\n    tag_19:\n        /* \"#utility.yul\":4514:4520   */\n      0x00\n        /* \"#utility.yul\":4551:4552   */\n      0x02\n        /* \"#utility.yul\":4545:4549   */\n      dup3\n        /* \"#utility.yul\":4541:4553   */\n      div\n        /* \"#utility.yul\":4531:4553   */\n      swap1\n      pop\n        /* \"#utility.yul\":4598:4599   */\n      0x01\n        /* \"#utility.yul\":4592:4596   */\n      dup3\n        /* \"#utility.yul\":4588:4600   */\n      and\n        /* \"#utility.yul\":4619:4637   */\n      dup1\n        /* \"#utility.yul\":4609:4690   */\n      tag_109\n      jumpi\n        /* \"#utility.yul\":4675:4679   */\n      0x7f\n        /* \"#utility.yul\":4667:4673   */\n      dup3\n        /* \"#utility.yul\":4663:4680   */\n      and\n        /* \"#utility.yul\":4653:4680   */\n      swap2\n      pop\n        /* \"#utility.yul\":4609:4690   */\n    tag_109:\n        /* \"#utility.yul\":4737:4739   */\n      0x20\n        /* \"#utility.yul\":4729:4735   */\n      dup3\n        /* \"#utility.yul\":4726:4740   */\n      lt\n        /* \"#utility.yul\":4706:4724   */\n      dup2\n        /* \"#utility.yul\":4703:4741   */\n      sub\n        /* \"#utility.yul\":4700:4784   */\n      tag_110\n      jumpi\n        /* \"#utility.yul\":4756:4774   */\n      tag_111\n      tag_42\n      jump\t// in\n    tag_111:\n        /* \"#utility.yul\":4700:4784   */\n    tag_110:\n        /* \"#utility.yul\":4521:4790   */\n      pop\n        /* \"#utility.yul\":4470:4790   */\n      swap2\n      swap1\n      pop\n      jump\t// out\n        /* \"#utility.yul\":4796:4937   */\n    tag_43:\n        /* \"#utility.yul\":4845:4849   */\n      0x00\n        /* \"#utility.yul\":4868:4871   */\n      dup2\n        /* \"#utility.yul\":4860:4871   */\n      swap1\n      pop\n        /* \"#utility.yul\":4891:4894   */\n      dup2\n        /* \"#utility.yul\":4888:4889   */\n      0x00\n        /* \"#utility.yul\":4881:4895   */\n      mstore\n        /* \"#utility.yul\":4925:4929   */\n      0x20\n        /* \"#utility.yul\":4922:4923   */\n      0x00\n        /* \"#utility.yul\":4912:4930   */\n      keccak256\n        /* \"#utility.yul\":4904:4930   */\n      swap1\n      pop\n        /* \"#utility.yul\":4796:4937   */\n      swap2\n      swap1\n      pop\n      jump\t// out\n        /* \"#utility.yul\":4943:5036   */\n    tag_44:\n        /* \"#utility.yul\":4980:4986   */\n      0x00\n        /* \"#utility.yul\":5027:5029   */\n      0x20\n        /* \"#utility.yul\":5022:5024   */\n      0x1f\n        /* \"#utility.yul\":5015:5020   */\n      dup4\n        /* \"#utility.yul\":5011:5025   */\n      add\n        /* \"#utility.yul\":5007:5030   */\n      div\n        /* \"#utility.yul\":4997:5030   */\n      swap1\n      pop\n        /* \"#utility.yul\":4943:5036   */\n      swap2\n      swap1\n      pop\n      jump\t// out\n        /* \"#utility.yul\":5042:5149   */\n    tag_45:\n        /* \"#utility.yul\":5086:5094   */\n      0x00\n        /* \"#utility.yul\":5136:5141   */\n      dup3\n        /* \"#utility.yul\":5130:5134   */\n      dup3\n        /* \"#utility.yul\":5126:5142   */\n      shl\n        /* \"#utility.yul\":5105:5142   */\n      swap1\n      pop\n        /* \"#utility.yul\":5042:5149   */\n      swap3\n      swap2\n      pop\n      pop\n      jump\t// out\n        /* \"#utility.yul\":5155:5548   */\n    tag_46:\n        /* \"#utility.yul\":5224:5230   */\n      0x00\n        /* \"#utility.yul\":5274:5275   */\n      0x08\n        /* \"#utility.yul\":5262:5272   */\n      dup4\n        /* \"#utility.yul\":5258:5276   */\n      mul\n        /* \"#utility.yul\":5297:5394   */\n      tag_116\n        /* \"#utility.yul\":5327:5393   */\n      0xffffffffffffffffffffffffffffffffffffffffffffffffffffffffffffffff\n        /* \"#utility.yul\":5316:5325   */\n      dup3\n        /* \"#utility.yul\":5297:5394   */\n      tag_45\n      jump\t// in\n    tag_116:\n        /* \"#utility.yul\":5415:5454   */\n      tag_117\n        /* \"#utility.yul\":5445:5453   */\n      dup7\n        /* \"#utility.yul\":5434:5443   */\n      dup4\n        /* \"#utility.yul\":5415:5454   */\n      tag_45\n      jump\t// in\n    tag_117:\n        /* \"#utility.yul\":5403:5454   */\n      swap6\n      pop\n        /* \"#utility.yul\":5487:5491   */\n      dup1\n        /* \"#utility.yul\":5483:5492   */\n      not\n        /* \"#utility.yul\":5476:5481   */\n      dup5\n        /* \"#utility.yul\":5472:5493   */\n      and\n        /* \"#utility.yul\":5463:5493   */\n      swap4\n      pop\n        /* \"#utility.yul\":5536:5540   */\n      dup1\n        /* \"#utility.yul\":5526:5534   */\n      dup7\n        /* \"#utility.yul\":5522:5541   */\n      and\n        /* \"#utility.yul\":5515:5520   */\n      dup5\n        /* \"#utility.yul\":5512:5542   */\n      or\n        /* \"#utility.yul\":5502:5542   */\n      swap3\n      pop\n        /* \"#utility.yul\":5231:5548   */\n      pop\n      pop\n        /* \"#utility.yul\":5155:5548   */\n      swap4\n      swap3\n      pop\n      pop\n      pop\n      jump\t// out\n        /* \"#utility.yul\":5554:5631   */\n    tag_47:\n        /* \"#utility.yul\":5591:5598   */\n      0x00\n        /* \"#utility.yul\":5620:5625   */\n      dup2\n        /* \"#utility.yul\":5609:5625   */\n      swap1\n      pop\n        /* \"#utility.yul\":5554:5631   */\n      swap2\n      swap1\n      pop\n      jump\t// out\n        /* \"#utility.yul\":5637:5697   */\n    tag_48:\n        /* \"#utility.yul\":5665:5668   */\n      0x00\n        /* \"#utility.yul\":5686:5691   */\n      dup2\n        /* \"#utility.yul\":5679:5691   */\n      swap1\n      pop\n        /* \"#utility.yul\":5637:5697   */\n      swap2\n      swap1\n      pop\n      jump\t// out\n        /* \"#utility.yul\":5703:5845   */\n    tag_49:\n        /* \"#utility.yul\":5753:5762   */\n      0x00\n        /* \"#utility.yul\":5786:5839   */\n      tag_121\n        /* \"#utility.yul\":5804:5838   */\n      tag_122\n        /* \"#utility.yul\":5813:5837   */\n      tag_123\n        /* \"#utility.yul\":5831:5836   */\n      dup5\n        /* \"#utility.yul\":5813:5837   */\n      tag_47\n      jump\t// in\n    tag_123:\n        /* \"#utility.yul\":5804:5838   */\n      tag_48\n      jump\t// in\n    tag_122:\n        /* \"#utility.yul\":5786:5839   */\n      tag_47\n      jump\t// in\n    tag_121:\n        /* \"#utility.yul\":5773:5839   */\n      swap1\n      pop\n        /* \"#utility.yul\":5703:5845   */\n      swap2\n      swap1\n      pop\n      jump\t// out\n        /* \"#utility.yul\":5851:5926   */\n    tag_50:\n        /* \"#utility.yul\":5894:5897   */\n      0x00\n        /* \"#utility.yul\":5915:5920   */\n      dup2\n        /* \"#utility.yul\":5908:5920   */\n      swap1\n      pop\n        /* \"#utility.yul\":5851:5926   */\n      swap2\n      swap1\n      pop\n      jump\t// out\n        /* \"#utility.yul\":5932:6201   */\n    tag_51:\n        /* \"#utility.yul\":6042:6081   */\n      tag_126\n        /* \"#utility.yul\":6073:6080   */\n      dup4\n        /* \"#utility.yul\":6042:6081   */\n      tag_49\n      jump\t// in\n    tag_126:\n        /* \"#utility.yul\":6103:6194   */\n      tag_127\n        /* \"#utility.yul\":6152:6193   */\n      tag_128\n        /* \"#utility.yul\":6176:6192   */\n      dup3\n        /* \"#utility.yul\":6152:6193   */\n      tag_50\n      jump\t// in\n    tag_128:\n        /* \"#utility.yul\":6144:6150   */\n      dup5\n        /* \"#utility.yul\":6137:6141   */\n      dup5\n        /* \"#utility.yul\":6131:6142   */\n      sload\n        /* \"#utility.yul\":6103:6194   */\n      tag_46\n      jump\t// in\n    tag_127:\n        /* \"#utility.yul\":6097:6101   */\n      dup3\n        /* \"#utility.yul\":6090:6195   */\n      sstore\n        /* \"#utility.yul\":6008:6201   */\n      pop\n        /* \"#utility.yul\":5932:6201   */\n      pop\n      pop\n      pop\n      jump\t// out\n        /* \"#utility.yul\":6207:6280   */\n    tag_52:\n        /* \"#utility.yul\":6252:6255   */\n      0x00\n        /* \"#utility.yul\":6207:6280   */\n      swap1\n      jump\t// out\n        /* \"#utility.yul\":6286:6475   */\n    tag_53:\n        /* \"#utility.yul\":6363:6395   */\n      tag_131\n      tag_52\n      jump\t// in\n    tag_131:\n        /* \"#utility.yul\":6404:6469   */\n      tag_132\n        /* \"#utility.yul\":6462:6468   */\n      dup2\n        /* \"#utility.yul\":6454:6460   */\n      dup5\n        /* \"#utility.yul\":6448:6452   */\n      dup5\n        /* \"#utility.yul\":6404:6469   */\n      tag_51\n      jump\t// in\n    tag_132:\n        /* \"#utility.yul\":6339:6475   */\n      pop\n        /* \"#utility.yul\":6286:6475   */\n      pop\n      pop\n      jump\t// out\n        /* \"#utility.yul\":6481:6667   */\n    tag_54:\n        /* \"#utility.yul\":6541:6661   */\n    tag_134:\n        /* \"#utility.yul\":6558:6561   */\n      dup2\n        /* \"#utility.yul\":6551:6556   */\n      dup2\n        /* \"#utility.yul\":6548:6562   */\n      lt\n        /* \"#utility.yul\":6541:6661   */\n      iszero\n      tag_136\n      jumpi\n        /* \"#utility.yul\":6612:6651   */\n      tag_137\n        /* \"#utility.yul\":6649:6650   */\n      0x00\n        /* \"#utility.yul\":6642:6647   */\n      dup3\n        /* \"#utility.yul\":6612:6651   */\n      tag_53\n      jump\t// in\n    tag_137:\n        /* \"#utility.yul\":6585:6586   */\n      0x01\n        /* \"#utility.yul\":6578:6583   */\n      dup2\n        /* \"#utility.yul\":6574:6587   */\n      add\n        /* \"#utility.yul\":6565:6587   */\n      swap1\n      pop\n        /* \"#utility.yul\":6541:6661   */\n      jump(tag_134)\n    tag_136:\n        /* \"#utility.yul\":6481:6667   */\n      pop\n      pop\n      jump\t// out\n        /* \"#utility.yul\":6673:7216   */\n    tag_55:\n        /* \"#utility.yul\":6774:6776   */\n      0x1f\n        /* \"#utility.yul\":6769:6772   */\n      dup3\n        /* \"#utility.yul\":6766:6777   */\n      gt\n        /* \"#utility.yul\":6763:7209   */\n      iszero\n      tag_139\n      jumpi\n        /* \"#utility.yul\":6808:6846   */\n      tag_140\n        /* \"#utility.yul\":6840:6845   */\n      dup2\n        /* \"#utility.yul\":6808:6846   */\n      tag_43\n      jump\t// in\n    tag_140:\n        /* \"#utility.yul\":6892:6921   */\n      tag_141\n        /* \"#utility.yul\":6910:6920   */\n      dup5\n        /* \"#utility.yul\":6892:6921   */\n      tag_44\n      jump\t// in\n    tag_141:\n        /* \"#utility.yul\":6882:6890   */\n      dup2\n        /* \"#utility.yul\":6878:6922   */\n      add\n        /* \"#utility.yul\":7075:7077   */\n      0x20\n        /* \"#utility.yul\":7063:7073   */\n      dup6\n        /* \"#utility.yul\":7060:7078   */\n      lt\n        /* \"#utility.yul\":7057:7106   */\n      iszero\n      tag_142\n      jumpi\n        /* \"#utility.yul\":7096:7104   */\n      dup2\n        /* \"#utility.yul\":7081:7104   */\n      swap1\n      pop\n        /* \"#utility.yul\":7057:7106   */\n    tag_142:\n        /* \"#utility.yul\":7119:7199   */\n      tag_143\n        /* \"#utility.yul\":7175:7197   */\n      tag_144\n        /* \"#utility.yul\":7193:7196   */\n      dup6\n        /* \"#utility.yul\":7175:7197   */\n      tag_44\n      jump\t// in\n    tag_144:\n        /* \"#utility.yul\":7165:7173   */\n      dup4\n        /* \"#utility.yul\":7161:7198   */\n      add\n        /* \"#utility.yul\":7148:7159   */\n      dup3\n        /* \"#utility.yul\":7119:7199   */\n      tag_54\n      jump\t// in\n    tag_143:\n        /* \"#utility.yul\":6778:7209   */\n      pop\n      pop\n        /* \"#utility.yul\":6763:7209   */\n    tag_139:\n        /* \"#utility.yul\":6673:7216   */\n      pop\n      pop\n      pop\n      jump\t// out\n        /* \"#utility.yul\":7222:7339   */\n    tag_56:\n        /* \"#utility.yul\":7276:7284   */\n      0x00\n        /* \"#utility.yul\":7326:7331   */\n      dup3\n        /* \"#utility.yul\":7320:7324   */\n      dup3\n        /* \"#utility.yul\":7316:7332   */\n      shr\n        /* \"#utility.yul\":7295:7332   */\n      swap1\n      pop\n        /* \"#utility.yul\":7222:7339   */\n      swap3\n      swap2\n      pop\n      pop\n      jump\t// out\n        /* \"#utility.yul\":7345:7514   */\n    tag_57:\n        /* \"#utility.yul\":7389:7395   */\n      0x00\n        /* \"#utility.yul\":7422:7473   */\n      tag_147\n        /* \"#utility.yul\":7470:7471   */\n      0x00\n        /* \"#utility.yul\":7466:7472   */\n      not\n        /* \"#utility.yul\":7458:7463   */\n      dup5\n        /* \"#utility.yul\":7455:7456   */\n      0x08\n        /* \"#utility.yul\":7451:7464   */\n      mul\n        /* \"#utility.yul\":7422:7473   */\n      tag_56\n      jump\t// in\n    tag_147:\n        /* \"#utility.yul\":7418:7474   */\n      not\n        /* \"#utility.yul\":7503:7507   */\n      dup1\n        /* \"#utility.yul\":7497:7501   */\n      dup4\n        /* \"#utility.yul\":7493:7508   */\n      and\n        /* \"#utility.yul\":7483:7508   */\n      swap2\n      pop\n        /* \"#utility.yul\":7396:7514   */\n      pop\n        /* \"#utility.yul\":7345:7514   */\n      swap3\n      swap2\n      pop\n      pop\n      jump\t// out\n        /* \"#utility.yul\":7519:7814   */\n    tag_58:\n        /* \"#utility.yul\":7595:7599   */\n      0x00\n        /* \"#utility.yul\":7741:7770   */\n      tag_149\n        /* \"#utility.yul\":7766:7769   */\n      dup4\n        /* \"#utility.yul\":7760:7764   */\n      dup4\n        /* \"#utility.yul\":7741:7770   */\n      tag_57\n      jump\t// in\n    tag_149:\n        /* \"#utility.yul\":7733:7770   */\n      swap2\n      pop\n        /* \"#utility.yul\":7803:7806   */\n      dup3\n        /* \"#utility.yul\":7800:7801   */\n      0x02\n        /* \"#utility.yul\":7796:7807   */\n      mul\n        /* \"#utility.yul\":7790:7794   */\n      dup3\n        /* \"#utility.yul\":7787:7808   */\n      or\n        /* \"#utility.yul\":7779:7808   */\n      swap1\n      pop\n        /* \"#utility.yul\":7519:7814   */\n      swap3\n      swap2\n      pop\n      pop\n      jump\t// out\n        /* \"#utility.yul\":7819:9222   */\n    tag_17:\n        /* \"#utility.yul\":7943:7987   */\n      tag_151\n        /* \"#utility.yul\":7983:7986   */\n      dup4\n        /* \"#utility.yul\":7978:7981   */\n      dup4\n        /* \"#utility.yul\":7943:7987   */\n      tag_40\n      jump\t// in\n    tag_151:\n        /* \"#utility.yul\":8052:8070   */\n      0xffffffffffffffff\n        /* \"#utility.yul\":8044:8050   */\n      dup2\n        /* \"#utility.yul\":8041:8071   */\n      gt\n        /* \"#utility.yul\":8038:8094   */\n      iszero\n      tag_152\n      jumpi\n        /* \"#utility.yul\":8074:8092   */\n      tag_153\n      tag_41\n      jump\t// in\n    tag_153:\n        /* \"#utility.yul\":8038:8094   */\n    tag_152:\n        /* \"#utility.yul\":8118:8156   */\n      tag_154\n        /* \"#utility.yul\":8150:8154   */\n      dup3\n        /* \"#utility.yul\":8144:8155   */\n      sload\n        /* \"#utility.yul\":8118:8156   */\n      tag_19\n      jump\t// in\n    tag_154:\n        /* \"#utility.yul\":8203:8270   */\n      tag_155\n        /* \"#utility.yul\":8263:8269   */\n      dup3\n        /* \"#utility.yul\":8255:8261   */\n      dup3\n        /* \"#utility.yul\":8249:8253   */\n      dup6\n        /* \"#utility.yul\":8203:8270   */\n      tag_55\n      jump\t// in\n    tag_155:\n        /* \"#utility.yul\":8297:8298   */\n      0x00\n        /* \"#utility.yul\":8326:8328   */\n      0x1f\n        /* \"#utility.yul\":8318:8324   */\n      dup4\n        /* \"#utility.yul\":8315:8329   */\n      gt\n        /* \"#utility.yul\":8343:8344   */\n      0x01\n        /* \"#utility.yul\":8338:8970   */\n      dup2\n      eq\n      tag_157\n      jumpi\n        /* \"#utility.yul\":9014:9015   */\n      0x00\n        /* \"#utility.yul\":9031:9037   */\n      dup5\n        /* \"#utility.yul\":9028:9112   */\n      iszero\n      tag_158\n      jumpi\n        /* \"#utility.yul\":9087:9096   */\n      dup3\n        /* \"#utility.yul\":9082:9085   */\n      dup8\n        /* \"#utility.yul\":9078:9097   */\n      add\n        /* \"#utility.yul\":9065:9098   */\n      calldataload\n        /* \"#utility.yul\":9056:9098   */\n      swap1\n      pop\n        /* \"#utility.yul\":9028:9112   */\n    tag_158:\n        /* \"#utility.yul\":9138:9205   */\n      tag_159\n        /* \"#utility.yul\":9198:9204   */\n      dup6\n        /* \"#utility.yul\":9191:9196   */\n      dup3\n        /* \"#utility.yul\":9138:9205   */\n      tag_58\n      jump\t// in\n    tag_159:\n        /* \"#utility.yul\":9132:9136   */\n      dup7\n        /* \"#utility.yul\":9125:9206   */\n      sstore\n        /* \"#utility.yul\":8987:9216   */\n      pop\n        /* \"#utility.yul\":8308:9216   */\n      jump(tag_156)\n        /* \"#utility.yul\":8338:8970   */\n    tag_157:\n        /* \"#utility.yul\":8390:8394   */\n      0x1f\n        /* \"#utility.yul\":8386:8395   */\n      not\n        /* \"#utility.yul\":8378:8384   */\n      dup5\n        /* \"#utility.yul\":8374:8396   */\n      and\n        /* \"#utility.yul\":8424:8461   */\n      tag_160\n        /* \"#utility.yul\":8456:8460   */\n      dup7\n        /* \"#utility.yul\":8424:8461   */\n      tag_43\n      jump\t// in\n    tag_160:\n        /* \"#utility.yul\":8483:8484   */\n      0x00\n        /* \"#utility.yul\":8497:8712   */\n    tag_161:\n        /* \"#utility.yul\":8511:8518   */\n      dup3\n        /* \"#utility.yul\":8508:8509   */\n      dup2\n        /* \"#utility.yul\":8505:8519   */\n      lt\n        /* \"#utility.yul\":8497:8712   */\n      iszero\n      tag_163\n      jumpi\n        /* \"#utility.yul\":8597:8606   */\n      dup5\n        /* \"#utility.yul\":8592:8595   */\n      dup10\n        /* \"#utility.yul\":8588:8607   */\n      add\n        /* \"#utility.yul\":8575:8608   */\n      calldataload\n        /* \"#utility.yul\":8567:8573   */\n      dup3\n        /* \"#utility.yul\":8560:8609   */\n      sstore\n        /* \"#utility.yul\":8648:8649   */\n      0x01\n        /* \"#utility.yul\":8640:8646   */\n      dup3\n        /* \"#utility.yul\":8636:8650   */\n      add\n        /* \"#utility.yul\":8626:8650   */\n      swap2\n      pop\n        /* \"#utility.yul\":8695:8697   */\n      0x20\n        /* \"#utility.yul\":8684:8693   */\n      dup6\n        /* \"#utility.yul\":8680:8698   */\n      add\n        /* \"#utility.yul\":8667:8698   */\n      swap5\n      pop\n        /* \"#utility.yul\":8534:8538   */\n      0x20\n        /* \"#utility.yul\":8531:8532   */\n      dup2\n        /* \"#utility.yul\":8527:8539   */\n      add\n        /* \"#utility.yul\":8522:8539   */\n      swap1\n      pop\n        /* \"#utility.yul\":8497:8712   */\n      jump(tag_161)\n    tag_163:\n        /* \"#utility.yul\":8740:8746   */\n      dup7\n        /* \"#utility.yul\":8731:8738   */\n      dup4\n        /* \"#utility.yul\":8728:8747   */\n      lt\n        /* \"#utility.yul\":8725:8911   */\n      iszero\n      tag_164\n      jumpi\n        /* \"#utility.yul\":8805:8814   */\n      dup5\n        /* \"#utility.yul\":8800:8803   */\n      dup10\n        /* \"#utility.yul\":8796:8815   */\n      add\n        /* \"#utility.yul\":8783:8816   */\n      calldataload\n        /* \"#utility.yul\":8848:8896   */\n      tag_165\n        /* \"#utility.yul\":8890:8894   */\n      0x1f\n        /* \"#utility.yul\":8882:8888   */\n      dup10\n        /* \"#utility.yul\":8878:8895   */\n      and\n        /* \"#utility.yul\":8867:8876   */\n      dup3\n        /* \"#utility.yul\":8848:8896   */\n      tag_57\n      jump\t// in\n    tag_165:\n        /* \"#utility.yul\":8840:8846   */\n      dup4\n        /* \"#utility.yul\":8833:8897   */\n      sstore\n        /* \"#utility.yul\":8748:8911   */\n      pop\n        /* \"#utility.yul\":8725:8911   */\n    tag_164:\n        /* \"#utility.yul\":8957:8958   */\n      0x01\n        /* \"#utility.yul\":8953:8954   */\n      0x02\n        /* \"#utility.yul\":8945:8951   */\n      dup9\n        /* \"#utility.yul\":8941:8955   */\n      mul\n        /* \"#utility.yul\":8937:8959   */\n      add\n        /* \"#utility.yul\":8931:8935   */\n      dup9\n        /* \"#utility.yul\":8924:8960   */\n      sstore\n        /* \"#utility.yul\":8345:8970   */\n      pop\n      pop\n      pop\n        /* \"#utility.yul\":8308:9216   */\n    tag_156:\n      pop\n        /* \"#utility.yul\":7918:9222   */\n      pop\n      pop\n      pop\n        /* \"#utility.yul\":7819:9222   */\n      pop\n      pop\n      pop\n      jump\t// out\n\n    auxdata: 0xa264697066735822122094b706d020a656834938b5ea490435f9c29202edf874b52133a13570dcac50ef64736f6c63430008170033\n}\n",
				"bytecode": {
					"linkReferences": {},
					"object": "608060405234801561000f575f80fd5b5061068e8061001d5f395ff3fe608060405234801561000f575f80fd5b5060043610610034575f3560e01c80632c21599814610038578063645b8b1b14610054575b5f80fd5b610052600480360381019061004d91906101d7565b610084565b005b61006e6004803603810190610069919061027c565b6100d4565b60405161007b9190610331565b60405180910390f35b81815f803373ffffffffffffffffffffffffffffffffffffffff1673ffffffffffffffffffffffffffffffffffffffff1681526020019081526020015f2091826100cf92919061058b565b505050565b5f602052805f5260405f205f9150905080546100ef906103b5565b80601f016020809104026020016040519081016040528092919081815260200182805461011b906103b5565b80156101665780601f1061013d57610100808354040283529160200191610166565b820191905f5260205f20905b81548152906001019060200180831161014957829003601f168201915b505050505081565b5f80fd5b5f80fd5b5f80fd5b5f80fd5b5f80fd5b5f8083601f84011261019757610196610176565b5b8235905067ffffffffffffffff8111156101b4576101b361017a565b5b6020830191508360018202830111156101d0576101cf61017e565b5b9250929050565b5f80602083850312156101ed576101ec61016e565b5b5f83013567ffffffffffffffff81111561020a57610209610172565b5b61021685828601610182565b92509250509250929050565b5f73ffffffffffffffffffffffffffffffffffffffff82169050919050565b5f61024b82610222565b9050919050565b61025b81610241565b8114610265575f80fd5b50565b5f8135905061027681610252565b92915050565b5f602082840312156102915761029061016e565b5b5f61029e84828501610268565b91505092915050565b5f81519050919050565b5f82825260208201905092915050565b5f5b838110156102de5780820151818401526020810190506102c3565b5f8484015250505050565b5f601f19601f8301169050919050565b5f610303826102a7565b61030d81856102b1565b935061031d8185602086016102c1565b610326816102e9565b840191505092915050565b5f6020820190508181035f83015261034981846102f9565b905092915050565b5f82905092915050565b7f4e487b71000000000000000000000000000000000000000000000000000000005f52604160045260245ffd5b7f4e487b71000000000000000000000000000000000000000000000000000000005f52602260045260245ffd5b5f60028204905060018216806103cc57607f821691505b6020821081036103df576103de610388565b5b50919050565b5f819050815f5260205f209050919050565b5f6020601f8301049050919050565b5f82821b905092915050565b5f600883026104417fffffffffffffffffffffffffffffffffffffffffffffffffffffffffffffffff82610406565b61044b8683610406565b95508019841693508086168417925050509392505050565b5f819050919050565b5f819050919050565b5f61048f61048a61048584610463565b61046c565b610463565b9050919050565b5f819050919050565b6104a883610475565b6104bc6104b482610496565b848454610412565b825550505050565b5f90565b6104d06104c4565b6104db81848461049f565b505050565b5b818110156104fe576104f35f826104c8565b6001810190506104e1565b5050565b601f82111561054357610514816103e5565b61051d846103f7565b8101602085101561052c578190505b610540610538856103f7565b8301826104e0565b50505b505050565b5f82821c905092915050565b5f6105635f1984600802610548565b1980831691505092915050565b5f61057b8383610554565b9150826002028217905092915050565b6105958383610351565b67ffffffffffffffff8111156105ae576105ad61035b565b5b6105b882546103b5565b6105c3828285610502565b5f601f8311600181146105f0575f84156105de578287013590505b6105e88582610570565b86555061064f565b601f1984166105fe866103e5565b5f5b8281101561062557848901358255600182019150602085019450602081019050610600565b86831015610642578489013561063e601f891682610554565b8355505b6001600288020188555050505b5050505050505056fea264697066735822122094b706d020a656834938b5ea490435f9c29202edf874b52133a13570dcac50ef64736f6c63430008170033",
					"opcodes": "PUSH1 0x80 PUSH1 0x40 MSTORE CALLVALUE DUP1 ISZERO PUSH2 0xF JUMPI PUSH0 DUP1 REVERT JUMPDEST POP PUSH2 0x68E DUP1 PUSH2 0x1D PUSH0 CODECOPY PUSH0 RETURN INVALID PUSH1 0x80 PUSH1 0x40 MSTORE CALLVALUE DUP1 ISZERO PUSH2 0xF JUMPI PUSH0 DUP1 REVERT JUMPDEST POP PUSH1 0x4 CALLDATASIZE LT PUSH2 0x34 JUMPI PUSH0 CALLDATALOAD PUSH1 0xE0 SHR DUP1 PUSH4 0x2C215998 EQ PUSH2 0x38 JUMPI DUP1 PUSH4 0x645B8B1B EQ PUSH2 0x54 JUMPI JUMPDEST PUSH0 DUP1 REVERT JUMPDEST PUSH2 0x52 PUSH1 0x4 DUP1 CALLDATASIZE SUB DUP2 ADD SWAP1 PUSH2 0x4D SWAP2 SWAP1 PUSH2 0x1D7 JUMP JUMPDEST PUSH2 0x84 JUMP JUMPDEST STOP JUMPDEST PUSH2 0x6E PUSH1 0x4 DUP1 CALLDATASIZE SUB DUP2 ADD SWAP1 PUSH2 0x69 SWAP2 SWAP1 PUSH2 0x27C JUMP JUMPDEST PUSH2 0xD4 JUMP JUMPDEST PUSH1 0x40 MLOAD PUSH2 0x7B SWAP2 SWAP1 PUSH2 0x331 JUMP JUMPDEST PUSH1 0x40 MLOAD DUP1 SWAP2 SUB SWAP1 RETURN JUMPDEST DUP2 DUP2 PUSH0 DUP1 CALLER PUSH20 0xFFFFFFFFFFFFFFFFFFFFFFFFFFFFFFFFFFFFFFFF AND PUSH20 0xFFFFFFFFFFFFFFFFFFFFFFFFFFFFFFFFFFFFFFFF AND DUP2 MSTORE PUSH1 0x20 ADD SWAP1 DUP2 MSTORE PUSH1 0x20 ADD PUSH0 KECCAK256 SWAP2 DUP3 PUSH2 0xCF SWAP3 SWAP2 SWAP1 PUSH2 0x58B JUMP JUMPDEST POP POP POP JUMP JUMPDEST PUSH0 PUSH1 0x20 MSTORE DUP1 PUSH0 MSTORE PUSH1 0x40 PUSH0 KECCAK256 PUSH0 SWAP2 POP SWAP1 POP DUP1 SLOAD PUSH2 0xEF SWAP1 PUSH2 0x3B5 JUMP JUMPDEST DUP1 PUSH1 0x1F ADD PUSH1 0x20 DUP1 SWAP2 DIV MUL PUSH1 0x20 ADD PUSH1 0x40 MLOAD SWAP1 DUP2 ADD PUSH1 0x40 MSTORE DUP1 SWAP3 SWAP2 SWAP1 DUP2 DUP2 MSTORE PUSH1 0x20 ADD DUP3 DUP1 SLOAD PUSH2 0x11B SWAP1 PUSH2 0x3B5 JUMP JUMPDEST DUP1 ISZERO PUSH2 0x166 JUMPI DUP1 PUSH1 0x1F LT PUSH2 0x13D JUMPI PUSH2 0x100 DUP1 DUP4 SLOAD DIV MUL DUP4 MSTORE SWAP2 PUSH1 0x20 ADD SWAP2 PUSH2 0x166 JUMP JUMPDEST DUP3 ADD SWAP2 SWAP1 PUSH0 MSTORE PUSH1 0x20 PUSH0 KECCAK256 SWAP1 JUMPDEST DUP2 SLOAD DUP2 MSTORE SWAP1 PUSH1 0x1 ADD SWAP1 PUSH1 0x20 ADD DUP1 DUP4 GT PUSH2 0x149 JUMPI DUP3 SWAP1 SUB PUSH1 0x1F AND DUP3 ADD SWAP2 JUMPDEST POP POP POP POP POP DUP2 JUMP JUMPDEST PUSH0 DUP1 REVERT JUMPDEST PUSH0 DUP1 REVERT JUMPDEST PUSH0 DUP1 REVERT JUMPDEST PUSH0 DUP1 REVERT JUMPDEST PUSH0 DUP1 REVERT JUMPDEST PUSH0 DUP1 DUP4 PUSH1 0x1F DUP5 ADD SLT PUSH2 0x197 JUMPI PUSH2 0x196 PUSH2 0x176 JUMP JUMPDEST JUMPDEST DUP3 CALLDATALOAD SWAP1 POP PUSH8 0xFFFFFFFFFFFFFFFF DUP2 GT ISZERO PUSH2 0x1B4 JUMPI PUSH2 0x1B3 PUSH2 0x17A JUMP JUMPDEST JUMPDEST PUSH1 0x20 DUP4 ADD SWAP2 POP DUP4 PUSH1 0x1 DUP3 MUL DUP4 ADD GT ISZERO PUSH2 0x1D0 JUMPI PUSH2 0x1CF PUSH2 0x17E JUMP JUMPDEST JUMPDEST SWAP3 POP SWAP3 SWAP1 POP JUMP JUMPDEST PUSH0 DUP1 PUSH1 0x20 DUP4 DUP6 SUB SLT ISZERO PUSH2 0x1ED JUMPI PUSH2 0x1EC PUSH2 0x16E JUMP JUMPDEST JUMPDEST PUSH0 DUP4 ADD CALLDATALOAD PUSH8 0xFFFFFFFFFFFFFFFF DUP2 GT ISZERO PUSH2 0x20A JUMPI PUSH2 0x209 PUSH2 0x172 JUMP JUMPDEST JUMPDEST PUSH2 0x216 DUP6 DUP3 DUP7 ADD PUSH2 0x182 JUMP JUMPDEST SWAP3 POP SWAP3 POP POP SWAP3 POP SWAP3 SWAP1 POP JUMP JUMPDEST PUSH0 PUSH20 0xFFFFFFFFFFFFFFFFFFFFFFFFFFFFFFFFFFFFFFFF DUP3 AND SWAP1 POP SWAP2 SWAP1 POP JUMP JUMPDEST PUSH0 PUSH2 0x24B DUP3 PUSH2 0x222 JUMP JUMPDEST SWAP1 POP SWAP2 SWAP1 POP JUMP JUMPDEST PUSH2 0x25B DUP2 PUSH2 0x241 JUMP JUMPDEST DUP2 EQ PUSH2 0x265 JUMPI PUSH0 DUP1 REVERT JUMPDEST POP JUMP JUMPDEST PUSH0 DUP2 CALLDATALOAD SWAP1 POP PUSH2 0x276 DUP2 PUSH2 0x252 JUMP JUMPDEST SWAP3 SWAP2 POP POP JUMP JUMPDEST PUSH0 PUSH1 0x20 DUP3 DUP5 SUB SLT ISZERO PUSH2 0x291 JUMPI PUSH2 0x290 PUSH2 0x16E JUMP JUMPDEST JUMPDEST PUSH0 PUSH2 0x29E DUP5 DUP3 DUP6 ADD PUSH2 0x268 JUMP JUMPDEST SWAP2 POP POP SWAP3 SWAP2 POP POP JUMP JUMPDEST PUSH0 DUP2 MLOAD SWAP1 POP SWAP2 SWAP1 POP JUMP JUMPDEST PUSH0 DUP3 DUP3 MSTORE PUSH1 0x20 DUP3 ADD SWAP1 POP SWAP3 SWAP2 POP POP JUMP JUMPDEST PUSH0 JUMPDEST DUP4 DUP2 LT ISZERO PUSH2 0x2DE JUMPI DUP1 DUP3 ADD MLOAD DUP2 DUP5 ADD MSTORE PUSH1 0x20 DUP2 ADD SWAP1 POP PUSH2 0x2C3 JUMP JUMPDEST PUSH0 DUP5 DUP5 ADD MSTORE POP POP POP POP JUMP JUMPDEST PUSH0 PUSH1 0x1F NOT PUSH1 0x1F DUP4 ADD AND SWAP1 POP SWAP2 SWAP1 POP JUMP JUMPDEST PUSH0 PUSH2 0x303 DUP3 PUSH2 0x2A7 JUMP JUMPDEST PUSH2 0x30D DUP2 DUP6 PUSH2 0x2B1 JUMP JUMPDEST SWAP4 POP PUSH2 0x31D DUP2 DUP6 PUSH1 0x20 DUP7 ADD PUSH2 0x2C1 JUMP JUMPDEST PUSH2 0x326 DUP2 PUSH2 0x2E9 JUMP JUMPDEST DUP5 ADD SWAP2 POP POP SWAP3 SWAP2 POP POP JUMP JUMPDEST PUSH0 PUSH1 0x20 DUP3 ADD SWAP1 POP DUP2 DUP2 SUB PUSH0 DUP4 ADD MSTORE PUSH2 0x349 DUP2 DUP5 PUSH2 0x2F9 JUMP JUMPDEST SWAP1 POP SWAP3 SWAP2 POP POP JUMP JUMPDEST PUSH0 DUP3 SWAP1 POP SWAP3 SWAP2 POP POP JUMP JUMPDEST PUSH32 0x4E487B7100000000000000000000000000000000000000000000000000000000 PUSH0 MSTORE PUSH1 0x41 PUSH1 0x4 MSTORE PUSH1 0x24 PUSH0 REVERT JUMPDEST PUSH32 0x4E487B7100000000000000000000000000000000000000000000000000000000 PUSH0 MSTORE PUSH1 0x22 PUSH1 0x4 MSTORE PUSH1 0x24 PUSH0 REVERT JUMPDEST PUSH0 PUSH1 0x2 DUP3 DIV SWAP1 POP PUSH1 0x1 DUP3 AND DUP1 PUSH2 0x3CC JUMPI PUSH1 0x7F DUP3 AND SWAP2 POP JUMPDEST PUSH1 0x20 DUP3 LT DUP2 SUB PUSH2 0x3DF JUMPI PUSH2 0x3DE PUSH2 0x388 JUMP JUMPDEST JUMPDEST POP SWAP2 SWAP1 POP JUMP JUMPDEST PUSH0 DUP2 SWAP1 POP DUP2 PUSH0 MSTORE PUSH1 0x20 PUSH0 KECCAK256 SWAP1 POP SWAP2 SWAP1 POP JUMP JUMPDEST PUSH0 PUSH1 0x20 PUSH1 0x1F DUP4 ADD DIV SWAP1 POP SWAP2 SWAP1 POP JUMP JUMPDEST PUSH0 DUP3 DUP3 SHL SWAP1 POP SWAP3 SWAP2 POP POP JUMP JUMPDEST PUSH0 PUSH1 0x8 DUP4 MUL PUSH2 0x441 PUSH32 0xFFFFFFFFFFFFFFFFFFFFFFFFFFFFFFFFFFFFFFFFFFFFFFFFFFFFFFFFFFFFFFFF DUP3 PUSH2 0x406 JUMP JUMPDEST PUSH2 0x44B DUP7 DUP4 PUSH2 0x406 JUMP JUMPDEST SWAP6 POP DUP1 NOT DUP5 AND SWAP4 POP DUP1 DUP7 AND DUP5 OR SWAP3 POP POP POP SWAP4 SWAP3 POP POP POP JUMP JUMPDEST PUSH0 DUP2 SWAP1 POP SWAP2 SWAP1 POP JUMP JUMPDEST PUSH0 DUP2 SWAP1 POP SWAP2 SWAP1 POP JUMP JUMPDEST PUSH0 PUSH2 0x48F PUSH2 0x48A PUSH2 0x485 DUP5 PUSH2 0x463 JUMP JUMPDEST PUSH2 0x46C JUMP JUMPDEST PUSH2 0x463 JUMP JUMPDEST SWAP1 POP SWAP2 SWAP1 POP JUMP JUMPDEST PUSH0 DUP2 SWAP1 POP SWAP2 SWAP1 POP JUMP JUMPDEST PUSH2 0x4A8 DUP4 PUSH2 0x475 JUMP JUMPDEST PUSH2 0x4BC PUSH2 0x4B4 DUP3 PUSH2 0x496 JUMP JUMPDEST DUP5 DUP5 SLOAD PUSH2 0x412 JUMP JUMPDEST DUP3 SSTORE POP POP POP POP JUMP JUMPDEST PUSH0 SWAP1 JUMP JUMPDEST PUSH2 0x4D0 PUSH2 0x4C4 JUMP JUMPDEST PUSH2 0x4DB DUP2 DUP5 DUP5 PUSH2 0x49F JUMP JUMPDEST POP POP POP JUMP JUMPDEST JUMPDEST DUP2 DUP2 LT ISZERO PUSH2 0x4FE JUMPI PUSH2 0x4F3 PUSH0 DUP3 PUSH2 0x4C8 JUMP JUMPDEST PUSH1 0x1 DUP2 ADD SWAP1 POP PUSH2 0x4E1 JUMP JUMPDEST POP POP JUMP JUMPDEST PUSH1 0x1F DUP3 GT ISZERO PUSH2 0x543 JUMPI PUSH2 0x514 DUP2 PUSH2 0x3E5 JUMP JUMPDEST PUSH2 0x51D DUP5 PUSH2 0x3F7 JUMP JUMPDEST DUP2 ADD PUSH1 0x20 DUP6 LT ISZERO PUSH2 0x52C JUMPI DUP2 SWAP1 POP JUMPDEST PUSH2 0x540 PUSH2 0x538 DUP6 PUSH2 0x3F7 JUMP JUMPDEST DUP4 ADD DUP3 PUSH2 0x4E0 JUMP JUMPDEST POP POP JUMPDEST POP POP POP JUMP JUMPDEST PUSH0 DUP3 DUP3 SHR SWAP1 POP SWAP3 SWAP2 POP POP JUMP JUMPDEST PUSH0 PUSH2 0x563 PUSH0 NOT DUP5 PUSH1 0x8 MUL PUSH2 0x548 JUMP JUMPDEST NOT DUP1 DUP4 AND SWAP2 POP POP SWAP3 SWAP2 POP POP JUMP JUMPDEST PUSH0 PUSH2 0x57B DUP4 DUP4 PUSH2 0x554 JUMP JUMPDEST SWAP2 POP DUP3 PUSH1 0x2 MUL DUP3 OR SWAP1 POP SWAP3 SWAP2 POP POP JUMP JUMPDEST PUSH2 0x595 DUP4 DUP4 PUSH2 0x351 JUMP JUMPDEST PUSH8 0xFFFFFFFFFFFFFFFF DUP2 GT ISZERO PUSH2 0x5AE JUMPI PUSH2 0x5AD PUSH2 0x35B JUMP JUMPDEST JUMPDEST PUSH2 0x5B8 DUP3 SLOAD PUSH2 0x3B5 JUMP JUMPDEST PUSH2 0x5C3 DUP3 DUP3 DUP6 PUSH2 0x502 JUMP JUMPDEST PUSH0 PUSH1 0x1F DUP4 GT PUSH1 0x1 DUP2 EQ PUSH2 0x5F0 JUMPI PUSH0 DUP5 ISZERO PUSH2 0x5DE JUMPI DUP3 DUP8 ADD CALLDATALOAD SWAP1 POP JUMPDEST PUSH2 0x5E8 DUP6 DUP3 PUSH2 0x570 JUMP JUMPDEST DUP7 SSTORE POP PUSH2 0x64F JUMP JUMPDEST PUSH1 0x1F NOT DUP5 AND PUSH2 0x5FE DUP7 PUSH2 0x3E5 JUMP JUMPDEST PUSH0 JUMPDEST DUP3 DUP2 LT ISZERO PUSH2 0x625 JUMPI DUP5 DUP10 ADD CALLDATALOAD DUP3 SSTORE PUSH1 0x1 DUP3 ADD SWAP2 POP PUSH1 0x20 DUP6 ADD SWAP5 POP PUSH1 0x20 DUP2 ADD SWAP1 POP PUSH2 0x600 JUMP JUMPDEST DUP7 DUP4 LT ISZERO PUSH2 0x642 JUMPI DUP5 DUP10 ADD CALLDATALOAD PUSH2 0x63E PUSH1 0x1F DUP10 AND DUP3 PUSH2 0x554 JUMP JUMPDEST DUP4 SSTORE POP JUMPDEST PUSH1 0x1 PUSH1 0x2 DUP9 MUL ADD DUP9 SSTORE POP POP POP JUMPDEST POP POP POP POP POP POP POP JUMP INVALID LOG2 PUSH5 0x6970667358 0x22 SLT KECCAK256 SWAP5 0xB7 MOD 0xD0 KECCAK256 0xA6 JUMP DUP4 0x49 CODESIZE 0xB5 0xEA 0x49 DIV CALLDATALOAD 0xF9 0xC2 SWAP3 MUL 0xED 0xF8 PUSH21 0xB52133A13570DCAC50EF64736F6C63430008170033 "
				},
				"gasEstimates": {
					"creation": {
						"codeDepositCost": "335600",
						"executionCost": "372",
						"totalCost": "335972"
					},
					"external": {
						"status(address)": "infinite",
						"updateStatus(string)": "infinite"
					}
				},
				"methodIdentifiers": {
					"status(address)": "645b8b1b",
					"updateStatus(string)": "2c215998"
				}
			},
			"storageLayout": {
				"storage": [
					{
						"astId": 5,
						"contract": "monad dashboard/ProfileStatus.sol:ProfileStatus",
						"label": "status",
						"offset": 0,
						"slot": "0",
						"type": "t_mapping(t_address,t_string_storage)"
					}
				],
				"types": {
					"t_address": {
						"encoding": "inplace",
						"label": "address",
						"numberOfBytes": "20"
					},
					"t_mapping(t_address,t_string_storage)": {
						"encoding": "mapping",
						"key": "t_address",
						"label": "mapping(address => string)",
						"numberOfBytes": "32",
						"value": "t_string_storage"
					},
					"t_string_storage": {
						"encoding": "bytes",
						"label": "string",
						"numberOfBytes": "32"
					}
				}
			},
			"userdoc": {
				"kind": "user",
				"methods": {},
				"version": 1
			}
		}
	}
}