{
	"monad dashboard/AnonymousNote.sol": {
		"AnonymousNotes": {
			"abi": [
				{
					"inputs": [
						{
							"internalType": "uint256",
							"name": "index",
							"type": "uint256"
						}
					],
					"name": "getNote",
					"outputs": [
						{
							"internalType": "string",
							"name": "",
							"type": "string"
						}
					],
					"stateMutability": "view",
					"type": "function"
				},
				{
					"inputs": [
						{
							"internalType": "uint256",
							"name": "",
							"type": "uint256"
						}
					],
					"name": "notes",
					"outputs": [
						{
							"internalType": "string",
							"name": "",
							"type": "string"
						}
					],
					"stateMutability": "view",
					"type": "function"
				},
				{
					"inputs": [],
					"name": "totalNotes",
					"outputs": [
						{
							"internalType": "uint256",
							"name": "",
							"type": "uint256"
						}
					],
					"stateMutability": "view",
					"type": "function"
				},
				{
					"inputs": [
						{
							"internalType": "string",
							"name": "_note",
							"type": "string"
						}
					],
					"name": "write",
					"outputs": [],
					"stateMutability": "nonpayable",
					"type": "function"
				}
			],
			"devdoc": {
				"kind": "dev",
				"methods": {},
				"version": 1
			},
			"evm": {
				"assembly": "    /* \"monad dashboard/AnonymousNote.sol\":26:377  contract AnonymousNotes {... */\n  mstore(0x40, 0x80)\n  callvalue\n  dup1\n  iszero\n  tag_1\n  jumpi\n  0x00\n  dup1\n  revert\ntag_1:\n  pop\n  dataSize(sub_0)\n  dup1\n  dataOffset(sub_0)\n  0x00\n  codecopy\n  0x00\n  return\nstop\n\nsub_0: assembly {\n        /* \"monad dashboard/AnonymousNote.sol\":26:377  contract AnonymousNotes {... */\n      mstore(0x40, 0x80)\n      callvalue\n      dup1\n      iszero\n      tag_1\n      jumpi\n      0x00\n      dup1\n      revert\n    tag_1:\n      pop\n      jumpi(tag_2, lt(calldatasize, 0x04))\n      shr(0xe0, calldataload(0x00))\n      dup1\n      0x61c3a7e6\n      eq\n      tag_3\n      jumpi\n      dup1\n      0xa965a941\n      eq\n      tag_4\n      jumpi\n      dup1\n      0xc1bbf4c1\n      eq\n      tag_5\n      jumpi\n      dup1\n      0xebaac771\n      eq\n      tag_6\n      jumpi\n    tag_2:\n      0x00\n      dup1\n      revert\n        /* \"monad dashboard/AnonymousNote.sol\":57:78  string[] public notes */\n    tag_3:\n      tag_7\n      0x04\n      dup1\n      calldatasize\n      sub\n      dup2\n      add\n      swap1\n      tag_8\n      swap2\n      swap1\n      tag_9\n      jump\t// in\n    tag_8:\n      tag_10\n      jump\t// in\n    tag_7:\n      mload(0x40)\n      tag_11\n      swap2\n      swap1\n      tag_12\n      jump\t// in\n    tag_11:\n      mload(0x40)\n      dup1\n      swap2\n      sub\n      swap1\n      return\n        /* \"monad dashboard/AnonymousNote.sol\":174:279  function getNote(uint index) external view returns (string memory) {... */\n    tag_4:\n      tag_13\n      0x04\n      dup1\n      calldatasize\n      sub\n      dup2\n      add\n      swap1\n      tag_14\n      swap2\n      swap1\n      tag_9\n      jump\t// in\n    tag_14:\n      tag_15\n      jump\t// in\n    tag_13:\n      mload(0x40)\n      tag_16\n      swap2\n      swap1\n      tag_12\n      jump\t// in\n    tag_16:\n      mload(0x40)\n      dup1\n      swap2\n      sub\n      swap1\n      return\n        /* \"monad dashboard/AnonymousNote.sol\":285:374  function totalNotes() external view returns (uint) {... */\n    tag_5:\n      tag_17\n      tag_18\n      jump\t// in\n    tag_17:\n      mload(0x40)\n      tag_19\n      swap2\n      swap1\n      tag_20\n      jump\t// in\n    tag_19:\n      mload(0x40)\n      dup1\n      swap2\n      sub\n      swap1\n      return\n        /* \"monad dashboard/AnonymousNote.sol\":85:168  function write(string calldata _note) external {... */\n    tag_6:\n      tag_21\n      0x04\n      dup1\n      calldatasize\n      sub\n      dup2\n      add\n      swap1\n      tag_22\n      swap2\n      swap1\n      tag_23\n      jump\t// in\n    tag_22:\n      tag_24\n      jump\t// in\n    tag_21:\n      stop\n        /* \"monad dashboard/AnonymousNote.sol\":57:78  string[] public notes */\n    tag_10:\n      0x00\n      dup2\n      dup2\n      sload\n      dup2\n      lt\n      tag_25\n      jumpi\n      0x00\n      dup1\n      revert\n    tag_25:\n      swap1\n      0x00\n      mstore\n      keccak256(0x00, 0x20)\n      add\n      0x00\n      swap2\n      pop\n      swap1\n      pop\n      dup1\n      sload\n      tag_27\n      swap1\n      tag_28\n      jump\t// in\n    tag_27:\n      dup1\n      0x1f\n      add\n      0x20\n      dup1\n      swap2\n      div\n      mul\n      0x20\n      add\n      mload(0x40)\n      swap1\n      dup2\n      add\n      0x40\n      mstore\n      dup1\n      swap3\n      swap2\n      swap1\n      dup2\n      dup2\n      mstore\n      0x20\n      add\n      dup3\n      dup1\n      sload\n      tag_29\n      swap1\n      tag_28\n      jump\t// in\n    tag_29:\n      dup1\n      iszero\n      tag_30\n      jumpi\n      dup1\n      0x1f\n      lt\n      tag_31\n      jumpi\n      0x0100\n      dup1\n      dup4\n      sload\n      div\n      mul\n      dup4\n      mstore\n      swap2\n      0x20\n      add\n      swap2\n      jump(tag_30)\n    tag_31:\n      dup3\n      add\n      swap2\n      swap1\n      0x00\n      mstore\n      keccak256(0x00, 0x20)\n      swap1\n    tag_32:\n      dup2\n      sload\n      dup2\n      mstore\n      swap1\n      0x01\n      add\n      swap1\n      0x20\n      add\n      dup1\n      dup4\n      gt\n      tag_32\n      jumpi\n      dup3\n      swap1\n      sub\n      0x1f\n      and\n      dup3\n      add\n      swap2\n    tag_30:\n      pop\n      pop\n      pop\n      pop\n      pop\n      dup2\n      jump\t// out\n        /* \"monad dashboard/AnonymousNote.sol\":174:279  function getNote(uint index) external view returns (string memory) {... */\n    tag_15:\n        /* \"monad dashboard/AnonymousNote.sol\":226:239  string memory */\n      0x60\n        /* \"monad dashboard/AnonymousNote.sol\":259:264  notes */\n      0x00\n        /* \"monad dashboard/AnonymousNote.sol\":265:270  index */\n      dup3\n        /* \"monad dashboard/AnonymousNote.sol\":259:271  notes[index] */\n      dup2\n      sload\n      dup2\n      lt\n      tag_34\n      jumpi\n      tag_35\n      tag_36\n      jump\t// in\n    tag_35:\n    tag_34:\n      swap1\n      0x00\n      mstore\n      keccak256(0x00, 0x20)\n      add\n        /* \"monad dashboard/AnonymousNote.sol\":252:271  return notes[index] */\n      dup1\n      sload\n      tag_38\n      swap1\n      tag_28\n      jump\t// in\n    tag_38:\n      dup1\n      0x1f\n      add\n      0x20\n      dup1\n      swap2\n      div\n      mul\n      0x20\n      add\n      mload(0x40)\n      swap1\n      dup2\n      add\n      0x40\n      mstore\n      dup1\n      swap3\n      swap2\n      swap1\n      dup2\n      dup2\n      mstore\n      0x20\n      add\n      dup3\n      dup1\n      sload\n      tag_39\n      swap1\n      tag_28\n      jump\t// in\n    tag_39:\n      dup1\n      iszero\n      tag_40\n      jumpi\n      dup1\n      0x1f\n      lt\n      tag_41\n      jumpi\n      0x0100\n      dup1\n      dup4\n      sload\n      div\n      mul\n      dup4\n      mstore\n      swap2\n      0x20\n      add\n      swap2\n      jump(tag_40)\n    tag_41:\n      dup3\n      add\n      swap2\n      swap1\n      0x00\n      mstore\n      keccak256(0x00, 0x20)\n      swap1\n    tag_42:\n      dup2\n      sload\n      dup2\n      mstore\n      swap1\n      0x01\n      add\n      swap1\n      0x20\n      add\n      dup1\n      dup4\n      gt\n      tag_42\n      jumpi\n      dup3\n      swap1\n      sub\n      0x1f\n      and\n      dup3\n      add\n      swap2\n    tag_40:\n      pop\n      pop\n      pop\n      pop\n      pop\n      swap1\n      pop\n        /* \"monad dashboard/AnonymousNote.sol\":174:279  function getNote(uint index) external view returns (string memory) {... */\n      swap2\n      swap1\n      pop\n      jump\t// out\n        /* \"monad dashboard/AnonymousNote.sol\":285:374  function totalNotes() external view returns (uint) {... */\n    tag_18:\n        /* \"monad dashboard/AnonymousNote.sol\":330:334  uint */\n      0x00\n        /* \"monad dashboard/AnonymousNote.sol\":354:359  notes */\n      dup1\n        /* \"monad dashboard/AnonymousNote.sol\":354:366  notes.length */\n      dup1\n      sload\n      swap1\n      pop\n        /* \"monad dashboard/AnonymousNote.sol\":347:366  return notes.length */\n      swap1\n      pop\n        /* \"monad dashboard/AnonymousNote.sol\":285:374  function totalNotes() external view returns (uint) {... */\n      swap1\n      jump\t// out\n        /* \"monad dashboard/AnonymousNote.sol\":85:168  function write(string calldata _note) external {... */\n    tag_24:\n        /* \"monad dashboard/AnonymousNote.sol\":143:148  notes */\n      0x00\n        /* \"monad dashboard/AnonymousNote.sol\":154:159  _note */\n      dup3\n      dup3\n        /* \"monad dashboard/AnonymousNote.sol\":143:160  notes.push(_note) */\n      swap1\n      swap2\n      dup1\n      0x01\n      dup2\n      sload\n      add\n      dup1\n      dup3\n      sstore\n      dup1\n      swap2\n      pop\n      pop\n      0x01\n      swap1\n      sub\n      swap1\n      0x00\n      mstore\n      keccak256(0x00, 0x20)\n      add\n      0x00\n      swap1\n      swap2\n      swap3\n      swap1\n      swap2\n      swap3\n      swap1\n      swap2\n      swap3\n      swap1\n      swap2\n      swap3\n      pop\n      swap2\n      dup3\n      tag_46\n      swap3\n      swap2\n      swap1\n      tag_47\n      jump\t// in\n    tag_46:\n      pop\n        /* \"monad dashboard/AnonymousNote.sol\":85:168  function write(string calldata _note) external {... */\n      pop\n      pop\n      jump\t// out\n        /* \"#utility.yul\":88:205   */\n    tag_49:\n        /* \"#utility.yul\":197:198   */\n      0x00\n        /* \"#utility.yul\":194:195   */\n      dup1\n        /* \"#utility.yul\":187:199   */\n      revert\n        /* \"#utility.yul\":211:328   */\n    tag_50:\n        /* \"#utility.yul\":320:321   */\n      0x00\n        /* \"#utility.yul\":317:318   */\n      dup1\n        /* \"#utility.yul\":310:322   */\n      revert\n        /* \"#utility.yul\":334:411   */\n    tag_51:\n        /* \"#utility.yul\":371:378   */\n      0x00\n        /* \"#utility.yul\":400:405   */\n      dup2\n        /* \"#utility.yul\":389:405   */\n      swap1\n      pop\n        /* \"#utility.yul\":334:411   */\n      swap2\n      swap1\n      pop\n      jump\t// out\n        /* \"#utility.yul\":417:539   */\n    tag_52:\n        /* \"#utility.yul\":490:514   */\n      tag_88\n        /* \"#utility.yul\":508:513   */\n      dup2\n        /* \"#utility.yul\":490:514   */\n      tag_51\n      jump\t// in\n    tag_88:\n        /* \"#utility.yul\":483:488   */\n      dup2\n        /* \"#utility.yul\":480:515   */\n      eq\n        /* \"#utility.yul\":470:533   */\n      tag_89\n      jumpi\n        /* \"#utility.yul\":529:530   */\n      0x00\n        /* \"#utility.yul\":526:527   */\n      dup1\n        /* \"#utility.yul\":519:531   */\n      revert\n        /* \"#utility.yul\":470:533   */\n    tag_89:\n        /* \"#utility.yul\":417:539   */\n      pop\n      jump\t// out\n        /* \"#utility.yul\":545:684   */\n    tag_53:\n        /* \"#utility.yul\":591:596   */\n      0x00\n        /* \"#utility.yul\":629:635   */\n      dup2\n        /* \"#utility.yul\":616:636   */\n      calldataload\n        /* \"#utility.yul\":607:636   */\n      swap1\n      pop\n        /* \"#utility.yul\":645:678   */\n      tag_91\n        /* \"#utility.yul\":672:677   */\n      dup2\n        /* \"#utility.yul\":645:678   */\n      tag_52\n      jump\t// in\n    tag_91:\n        /* \"#utility.yul\":545:684   */\n      swap3\n      swap2\n      pop\n      pop\n      jump\t// out\n        /* \"#utility.yul\":690:1019   */\n    tag_9:\n        /* \"#utility.yul\":749:755   */\n      0x00\n        /* \"#utility.yul\":798:800   */\n      0x20\n        /* \"#utility.yul\":786:795   */\n      dup3\n        /* \"#utility.yul\":777:784   */\n      dup5\n        /* \"#utility.yul\":773:796   */\n      sub\n        /* \"#utility.yul\":769:801   */\n      slt\n        /* \"#utility.yul\":766:885   */\n      iszero\n      tag_93\n      jumpi\n        /* \"#utility.yul\":804:883   */\n      tag_94\n      tag_49\n      jump\t// in\n    tag_94:\n        /* \"#utility.yul\":766:885   */\n    tag_93:\n        /* \"#utility.yul\":924:925   */\n      0x00\n        /* \"#utility.yul\":949:1002   */\n      tag_95\n        /* \"#utility.yul\":994:1001   */\n      dup5\n        /* \"#utility.yul\":985:991   */\n      dup3\n        /* \"#utility.yul\":974:983   */\n      dup6\n        /* \"#utility.yul\":970:992   */\n      add\n        /* \"#utility.yul\":949:1002   */\n      tag_53\n      jump\t// in\n    tag_95:\n        /* \"#utility.yul\":939:1002   */\n      swap2\n      pop\n        /* \"#utility.yul\":895:1012   */\n      pop\n        /* \"#utility.yul\":690:1019   */\n      swap3\n      swap2\n      pop\n      pop\n      jump\t// out\n        /* \"#utility.yul\":1025:1124   */\n    tag_54:\n        /* \"#utility.yul\":1077:1083   */\n      0x00\n        /* \"#utility.yul\":1111:1116   */\n      dup2\n        /* \"#utility.yul\":1105:1117   */\n      mload\n        /* \"#utility.yul\":1095:1117   */\n      swap1\n      pop\n        /* \"#utility.yul\":1025:1124   */\n      swap2\n      swap1\n      pop\n      jump\t// out\n        /* \"#utility.yul\":1130:1299   */\n    tag_55:\n        /* \"#utility.yul\":1214:1225   */\n      0x00\n        /* \"#utility.yul\":1248:1254   */\n      dup3\n        /* \"#utility.yul\":1243:1246   */\n      dup3\n        /* \"#utility.yul\":1236:1255   */\n      mstore\n        /* \"#utility.yul\":1288:1292   */\n      0x20\n        /* \"#utility.yul\":1283:1286   */\n      dup3\n        /* \"#utility.yul\":1279:1293   */\n      add\n        /* \"#utility.yul\":1264:1293   */\n      swap1\n      pop\n        /* \"#utility.yul\":1130:1299   */\n      swap3\n      swap2\n      pop\n      pop\n      jump\t// out\n        /* \"#utility.yul\":1305:1551   */\n    tag_56:\n        /* \"#utility.yul\":1386:1387   */\n      0x00\n        /* \"#utility.yul\":1396:1509   */\n    tag_99:\n        /* \"#utility.yul\":1410:1416   */\n      dup4\n        /* \"#utility.yul\":1407:1408   */\n      dup2\n        /* \"#utility.yul\":1404:1417   */\n      lt\n        /* \"#utility.yul\":1396:1509   */\n      iszero\n      tag_101\n      jumpi\n        /* \"#utility.yul\":1495:1496   */\n      dup1\n        /* \"#utility.yul\":1490:1493   */\n      dup3\n        /* \"#utility.yul\":1486:1497   */\n      add\n        /* \"#utility.yul\":1480:1498   */\n      mload\n        /* \"#utility.yul\":1476:1477   */\n      dup2\n        /* \"#utility.yul\":1471:1474   */\n      dup5\n        /* \"#utility.yul\":1467:1478   */\n      add\n        /* \"#utility.yul\":1460:1499   */\n      mstore\n        /* \"#utility.yul\":1432:1434   */\n      0x20\n        /* \"#utility.yul\":1429:1430   */\n      dup2\n        /* \"#utility.yul\":1425:1435   */\n      add\n        /* \"#utility.yul\":1420:1435   */\n      swap1\n      pop\n        /* \"#utility.yul\":1396:1509   */\n      jump(tag_99)\n    tag_101:\n        /* \"#utility.yul\":1543:1544   */\n      0x00\n        /* \"#utility.yul\":1534:1540   */\n      dup5\n        /* \"#utility.yul\":1529:1532   */\n      dup5\n        /* \"#utility.yul\":1525:1541   */\n      add\n        /* \"#utility.yul\":1518:1545   */\n      mstore\n        /* \"#utility.yul\":1367:1551   */\n      pop\n        /* \"#utility.yul\":1305:1551   */\n      pop\n      pop\n      pop\n      jump\t// out\n        /* \"#utility.yul\":1557:1659   */\n    tag_57:\n        /* \"#utility.yul\":1598:1604   */\n      0x00\n        /* \"#utility.yul\":1649:1651   */\n      0x1f\n        /* \"#utility.yul\":1645:1652   */\n      not\n        /* \"#utility.yul\":1640:1642   */\n      0x1f\n        /* \"#utility.yul\":1633:1638   */\n      dup4\n        /* \"#utility.yul\":1629:1643   */\n      add\n        /* \"#utility.yul\":1625:1653   */\n      and\n        /* \"#utility.yul\":1615:1653   */\n      swap1\n      pop\n        /* \"#utility.yul\":1557:1659   */\n      swap2\n      swap1\n      pop\n      jump\t// out\n        /* \"#utility.yul\":1665:2042   */\n    tag_58:\n        /* \"#utility.yul\":1753:1756   */\n      0x00\n        /* \"#utility.yul\":1781:1820   */\n      tag_104\n        /* \"#utility.yul\":1814:1819   */\n      dup3\n        /* \"#utility.yul\":1781:1820   */\n      tag_54\n      jump\t// in\n    tag_104:\n        /* \"#utility.yul\":1836:1907   */\n      tag_105\n        /* \"#utility.yul\":1900:1906   */\n      dup2\n        /* \"#utility.yul\":1895:1898   */\n      dup6\n        /* \"#utility.yul\":1836:1907   */\n      tag_55\n      jump\t// in\n    tag_105:\n        /* \"#utility.yul\":1829:1907   */\n      swap4\n      pop\n        /* \"#utility.yul\":1916:1981   */\n      tag_106\n        /* \"#utility.yul\":1974:1980   */\n      dup2\n        /* \"#utility.yul\":1969:1972   */\n      dup6\n        /* \"#utility.yul\":1962:1966   */\n      0x20\n        /* \"#utility.yul\":1955:1960   */\n      dup7\n        /* \"#utility.yul\":1951:1967   */\n      add\n        /* \"#utility.yul\":1916:1981   */\n      tag_56\n      jump\t// in\n    tag_106:\n        /* \"#utility.yul\":2006:2035   */\n      tag_107\n        /* \"#utility.yul\":2028:2034   */\n      dup2\n        /* \"#utility.yul\":2006:2035   */\n      tag_57\n      jump\t// in\n    tag_107:\n        /* \"#utility.yul\":2001:2004   */\n      dup5\n        /* \"#utility.yul\":1997:2036   */\n      add\n        /* \"#utility.yul\":1990:2036   */\n      swap2\n      pop\n        /* \"#utility.yul\":1757:2042   */\n      pop\n        /* \"#utility.yul\":1665:2042   */\n      swap3\n      swap2\n      pop\n      pop\n      jump\t// out\n        /* \"#utility.yul\":2048:2361   */\n    tag_12:\n        /* \"#utility.yul\":2161:2165   */\n      0x00\n        /* \"#utility.yul\":2199:2201   */\n      0x20\n        /* \"#utility.yul\":2188:2197   */\n      dup3\n        /* \"#utility.yul\":2184:2202   */\n      add\n        /* \"#utility.yul\":2176:2202   */\n      swap1\n      pop\n        /* \"#utility.yul\":2248:2257   */\n      dup2\n        /* \"#utility.yul\":2242:2246   */\n      dup2\n        /* \"#utility.yul\":2238:2258   */\n      sub\n        /* \"#utility.yul\":2234:2235   */\n      0x00\n        /* \"#utility.yul\":2223:2232   */\n      dup4\n        /* \"#utility.yul\":2219:2236   */\n      add\n        /* \"#utility.yul\":2212:2259   */\n      mstore\n        /* \"#utility.yul\":2276:2354   */\n      tag_109\n        /* \"#utility.yul\":2349:2353   */\n      dup2\n        /* \"#utility.yul\":2340:2346   */\n      dup5\n        /* \"#utility.yul\":2276:2354   */\n      tag_58\n      jump\t// in\n    tag_109:\n        /* \"#utility.yul\":2268:2354   */\n      swap1\n      pop\n        /* \"#utility.yul\":2048:2361   */\n      swap3\n      swap2\n      pop\n      pop\n      jump\t// out\n        /* \"#utility.yul\":2367:2485   */\n    tag_59:\n        /* \"#utility.yul\":2454:2478   */\n      tag_111\n        /* \"#utility.yul\":2472:2477   */\n      dup2\n        /* \"#utility.yul\":2454:2478   */\n      tag_51\n      jump\t// in\n    tag_111:\n        /* \"#utility.yul\":2449:2452   */\n      dup3\n        /* \"#utility.yul\":2442:2479   */\n      mstore\n        /* \"#utility.yul\":2367:2485   */\n      pop\n      pop\n      jump\t// out\n        /* \"#utility.yul\":2491:2713   */\n    tag_20:\n        /* \"#utility.yul\":2584:2588   */\n      0x00\n        /* \"#utility.yul\":2622:2624   */\n      0x20\n        /* \"#utility.yul\":2611:2620   */\n      dup3\n        /* \"#utility.yul\":2607:2625   */\n      add\n        /* \"#utility.yul\":2599:2625   */\n      swap1\n      pop\n        /* \"#utility.yul\":2635:2706   */\n      tag_113\n        /* \"#utility.yul\":2703:2704   */\n      0x00\n        /* \"#utility.yul\":2692:2701   */\n      dup4\n        /* \"#utility.yul\":2688:2705   */\n      add\n        /* \"#utility.yul\":2679:2685   */\n      dup5\n        /* \"#utility.yul\":2635:2706   */\n      tag_59\n      jump\t// in\n    tag_113:\n        /* \"#utility.yul\":2491:2713   */\n      swap3\n      swap2\n      pop\n      pop\n      jump\t// out\n        /* \"#utility.yul\":2719:2836   */\n    tag_60:\n        /* \"#utility.yul\":2828:2829   */\n      0x00\n        /* \"#utility.yul\":2825:2826   */\n      dup1\n        /* \"#utility.yul\":2818:2830   */\n      revert\n        /* \"#utility.yul\":2842:2959   */\n    tag_61:\n        /* \"#utility.yul\":2951:2952   */\n      0x00\n        /* \"#utility.yul\":2948:2949   */\n      dup1\n        /* \"#utility.yul\":2941:2953   */\n      revert\n        /* \"#utility.yul\":2965:3082   */\n    tag_62:\n        /* \"#utility.yul\":3074:3075   */\n      0x00\n        /* \"#utility.yul\":3071:3072   */\n      dup1\n        /* \"#utility.yul\":3064:3076   */\n      revert\n        /* \"#utility.yul\":3102:3655   */\n    tag_63:\n        /* \"#utility.yul\":3160:3168   */\n      0x00\n        /* \"#utility.yul\":3170:3176   */\n      dup1\n        /* \"#utility.yul\":3220:3223   */\n      dup4\n        /* \"#utility.yul\":3213:3217   */\n      0x1f\n        /* \"#utility.yul\":3205:3211   */\n      dup5\n        /* \"#utility.yul\":3201:3218   */\n      add\n        /* \"#utility.yul\":3197:3224   */\n      slt\n        /* \"#utility.yul\":3187:3309   */\n      tag_118\n      jumpi\n        /* \"#utility.yul\":3228:3307   */\n      tag_119\n      tag_60\n      jump\t// in\n    tag_119:\n        /* \"#utility.yul\":3187:3309   */\n    tag_118:\n        /* \"#utility.yul\":3341:3347   */\n      dup3\n        /* \"#utility.yul\":3328:3348   */\n      calldataload\n        /* \"#utility.yul\":3318:3348   */\n      swap1\n      pop\n        /* \"#utility.yul\":3371:3389   */\n      0xffffffffffffffff\n        /* \"#utility.yul\":3363:3369   */\n      dup2\n        /* \"#utility.yul\":3360:3390   */\n      gt\n        /* \"#utility.yul\":3357:3474   */\n      iszero\n      tag_120\n      jumpi\n        /* \"#utility.yul\":3393:3472   */\n      tag_121\n      tag_61\n      jump\t// in\n    tag_121:\n        /* \"#utility.yul\":3357:3474   */\n    tag_120:\n        /* \"#utility.yul\":3507:3511   */\n      0x20\n        /* \"#utility.yul\":3499:3505   */\n      dup4\n        /* \"#utility.yul\":3495:3512   */\n      add\n        /* \"#utility.yul\":3483:3512   */\n      swap2\n      pop\n        /* \"#utility.yul\":3561:3564   */\n      dup4\n        /* \"#utility.yul\":3553:3557   */\n      0x01\n        /* \"#utility.yul\":3545:3551   */\n      dup3\n        /* \"#utility.yul\":3541:3558   */\n      mul\n        /* \"#utility.yul\":3531:3539   */\n      dup4\n        /* \"#utility.yul\":3527:3559   */\n      add\n        /* \"#utility.yul\":3524:3565   */\n      gt\n        /* \"#utility.yul\":3521:3649   */\n      iszero\n      tag_122\n      jumpi\n        /* \"#utility.yul\":3568:3647   */\n      tag_123\n      tag_62\n      jump\t// in\n    tag_123:\n        /* \"#utility.yul\":3521:3649   */\n    tag_122:\n        /* \"#utility.yul\":3102:3655   */\n      swap3\n      pop\n      swap3\n      swap1\n      pop\n      jump\t// out\n        /* \"#utility.yul\":3661:4190   */\n    tag_23:\n        /* \"#utility.yul\":3732:3738   */\n      0x00\n        /* \"#utility.yul\":3740:3746   */\n      dup1\n        /* \"#utility.yul\":3789:3791   */\n      0x20\n        /* \"#utility.yul\":3777:3786   */\n      dup4\n        /* \"#utility.yul\":3768:3775   */\n      dup6\n        /* \"#utility.yul\":3764:3787   */\n      sub\n        /* \"#utility.yul\":3760:3792   */\n      slt\n        /* \"#utility.yul\":3757:3876   */\n      iszero\n      tag_125\n      jumpi\n        /* \"#utility.yul\":3795:3874   */\n      tag_126\n      tag_49\n      jump\t// in\n    tag_126:\n        /* \"#utility.yul\":3757:3876   */\n    tag_125:\n        /* \"#utility.yul\":3943:3944   */\n      0x00\n        /* \"#utility.yul\":3932:3941   */\n      dup4\n        /* \"#utility.yul\":3928:3945   */\n      add\n        /* \"#utility.yul\":3915:3946   */\n      calldataload\n        /* \"#utility.yul\":3973:3991   */\n      0xffffffffffffffff\n        /* \"#utility.yul\":3965:3971   */\n      dup2\n        /* \"#utility.yul\":3962:3992   */\n      gt\n        /* \"#utility.yul\":3959:4076   */\n      iszero\n      tag_127\n      jumpi\n        /* \"#utility.yul\":3995:4074   */\n      tag_128\n      tag_50\n      jump\t// in\n    tag_128:\n        /* \"#utility.yul\":3959:4076   */\n    tag_127:\n        /* \"#utility.yul\":4108:4173   */\n      tag_129\n        /* \"#utility.yul\":4165:4172   */\n      dup6\n        /* \"#utility.yul\":4156:4162   */\n      dup3\n        /* \"#utility.yul\":4145:4154   */\n      dup7\n        /* \"#utility.yul\":4141:4163   */\n      add\n        /* \"#utility.yul\":4108:4173   */\n      tag_63\n      jump\t// in\n    tag_129:\n        /* \"#utility.yul\":4090:4173   */\n      swap3\n      pop\n      swap3\n      pop\n        /* \"#utility.yul\":3886:4183   */\n      pop\n        /* \"#utility.yul\":3661:4190   */\n      swap3\n      pop\n      swap3\n      swap1\n      pop\n      jump\t// out\n        /* \"#utility.yul\":4196:4376   */\n    tag_64:\n        /* \"#utility.yul\":4244:4321   */\n      0x4e487b7100000000000000000000000000000000000000000000000000000000\n        /* \"#utility.yul\":4241:4242   */\n      0x00\n        /* \"#utility.yul\":4234:4322   */\n      mstore\n        /* \"#utility.yul\":4341:4345   */\n      0x22\n        /* \"#utility.yul\":4338:4339   */\n      0x04\n        /* \"#utility.yul\":4331:4346   */\n      mstore\n        /* \"#utility.yul\":4365:4369   */\n      0x24\n        /* \"#utility.yul\":4362:4363   */\n      0x00\n        /* \"#utility.yul\":4355:4370   */\n      revert\n        /* \"#utility.yul\":4382:4702   */\n    tag_28:\n        /* \"#utility.yul\":4426:4432   */\n      0x00\n        /* \"#utility.yul\":4463:4464   */\n      0x02\n        /* \"#utility.yul\":4457:4461   */\n      dup3\n        /* \"#utility.yul\":4453:4465   */\n      div\n        /* \"#utility.yul\":4443:4465   */\n      swap1\n      pop\n        /* \"#utility.yul\":4510:4511   */\n      0x01\n        /* \"#utility.yul\":4504:4508   */\n      dup3\n        /* \"#utility.yul\":4500:4512   */\n      and\n        /* \"#utility.yul\":4531:4549   */\n      dup1\n        /* \"#utility.yul\":4521:4602   */\n      tag_132\n      jumpi\n        /* \"#utility.yul\":4587:4591   */\n      0x7f\n        /* \"#utility.yul\":4579:4585   */\n      dup3\n        /* \"#utility.yul\":4575:4592   */\n      and\n        /* \"#utility.yul\":4565:4592   */\n      swap2\n      pop\n        /* \"#utility.yul\":4521:4602   */\n    tag_132:\n        /* \"#utility.yul\":4649:4651   */\n      0x20\n        /* \"#utility.yul\":4641:4647   */\n      dup3\n        /* \"#utility.yul\":4638:4652   */\n      lt\n        /* \"#utility.yul\":4618:4636   */\n      dup2\n        /* \"#utility.yul\":4615:4653   */\n      sub\n        /* \"#utility.yul\":4612:4696   */\n      tag_133\n      jumpi\n        /* \"#utility.yul\":4668:4686   */\n      tag_134\n      tag_64\n      jump\t// in\n    tag_134:\n        /* \"#utility.yul\":4612:4696   */\n    tag_133:\n        /* \"#utility.yul\":4433:4702   */\n      pop\n        /* \"#utility.yul\":4382:4702   */\n      swap2\n      swap1\n      pop\n      jump\t// out\n        /* \"#utility.yul\":4708:4888   */\n    tag_36:\n        /* \"#utility.yul\":4756:4833   */\n      0x4e487b7100000000000000000000000000000000000000000000000000000000\n        /* \"#utility.yul\":4753:4754   */\n      0x00\n        /* \"#utility.yul\":4746:4834   */\n      mstore\n        /* \"#utility.yul\":4853:4857   */\n      0x32\n        /* \"#utility.yul\":4850:4851   */\n      0x04\n        /* \"#utility.yul\":4843:4858   */\n      mstore\n        /* \"#utility.yul\":4877:4881   */\n      0x24\n        /* \"#utility.yul\":4874:4875   */\n      0x00\n        /* \"#utility.yul\":4867:4882   */\n      revert\n        /* \"#utility.yul\":4894:4991   */\n    tag_65:\n        /* \"#utility.yul\":4953:4959   */\n      0x00\n        /* \"#utility.yul\":4981:4984   */\n      dup3\n        /* \"#utility.yul\":4971:4984   */\n      swap1\n      pop\n        /* \"#utility.yul\":4894:4991   */\n      swap3\n      swap2\n      pop\n      pop\n      jump\t// out\n        /* \"#utility.yul\":4997:5177   */\n    tag_66:\n        /* \"#utility.yul\":5045:5122   */\n      0x4e487b7100000000000000000000000000000000000000000000000000000000\n        /* \"#utility.yul\":5042:5043   */\n      0x00\n        /* \"#utility.yul\":5035:5123   */\n      mstore\n        /* \"#utility.yul\":5142:5146   */\n      0x41\n        /* \"#utility.yul\":5139:5140   */\n      0x04\n        /* \"#utility.yul\":5132:5147   */\n      mstore\n        /* \"#utility.yul\":5166:5170   */\n      0x24\n        /* \"#utility.yul\":5163:5164   */\n      0x00\n        /* \"#utility.yul\":5156:5171   */\n      revert\n        /* \"#utility.yul\":5183:5324   */\n    tag_67:\n        /* \"#utility.yul\":5232:5236   */\n      0x00\n        /* \"#utility.yul\":5255:5258   */\n      dup2\n        /* \"#utility.yul\":5247:5258   */\n      swap1\n      pop\n        /* \"#utility.yul\":5278:5281   */\n      dup2\n        /* \"#utility.yul\":5275:5276   */\n      0x00\n        /* \"#utility.yul\":5268:5282   */\n      mstore\n        /* \"#utility.yul\":5312:5316   */\n      0x20\n        /* \"#utility.yul\":5309:5310   */\n      0x00\n        /* \"#utility.yul\":5299:5317   */\n      keccak256\n        /* \"#utility.yul\":5291:5317   */\n      swap1\n      pop\n        /* \"#utility.yul\":5183:5324   */\n      swap2\n      swap1\n      pop\n      jump\t// out\n        /* \"#utility.yul\":5330:5423   */\n    tag_68:\n        /* \"#utility.yul\":5367:5373   */\n      0x00\n        /* \"#utility.yul\":5414:5416   */\n      0x20\n        /* \"#utility.yul\":5409:5411   */\n      0x1f\n        /* \"#utility.yul\":5402:5407   */\n      dup4\n        /* \"#utility.yul\":5398:5412   */\n      add\n        /* \"#utility.yul\":5394:5417   */\n      div\n        /* \"#utility.yul\":5384:5417   */\n      swap1\n      pop\n        /* \"#utility.yul\":5330:5423   */\n      swap2\n      swap1\n      pop\n      jump\t// out\n        /* \"#utility.yul\":5429:5536   */\n    tag_69:\n        /* \"#utility.yul\":5473:5481   */\n      0x00\n        /* \"#utility.yul\":5523:5528   */\n      dup3\n        /* \"#utility.yul\":5517:5521   */\n      dup3\n        /* \"#utility.yul\":5513:5529   */\n      shl\n        /* \"#utility.yul\":5492:5529   */\n      swap1\n      pop\n        /* \"#utility.yul\":5429:5536   */\n      swap3\n      swap2\n      pop\n      pop\n      jump\t// out\n        /* \"#utility.yul\":5542:5935   */\n    tag_70:\n        /* \"#utility.yul\":5611:5617   */\n      0x00\n        /* \"#utility.yul\":5661:5662   */\n      0x08\n        /* \"#utility.yul\":5649:5659   */\n      dup4\n        /* \"#utility.yul\":5645:5663   */\n      mul\n        /* \"#utility.yul\":5684:5781   */\n      tag_142\n        /* \"#utility.yul\":5714:5780   */\n      0xffffffffffffffffffffffffffffffffffffffffffffffffffffffffffffffff\n        /* \"#utility.yul\":5703:5712   */\n      dup3\n        /* \"#utility.yul\":5684:5781   */\n      tag_69\n      jump\t// in\n    tag_142:\n        /* \"#utility.yul\":5802:5841   */\n      tag_143\n        /* \"#utility.yul\":5832:5840   */\n      dup7\n        /* \"#utility.yul\":5821:5830   */\n      dup4\n        /* \"#utility.yul\":5802:5841   */\n      tag_69\n      jump\t// in\n    tag_143:\n        /* \"#utility.yul\":5790:5841   */\n      swap6\n      pop\n        /* \"#utility.yul\":5874:5878   */\n      dup1\n        /* \"#utility.yul\":5870:5879   */\n      not\n        /* \"#utility.yul\":5863:5868   */\n      dup5\n        /* \"#utility.yul\":5859:5880   */\n      and\n        /* \"#utility.yul\":5850:5880   */\n      swap4\n      pop\n        /* \"#utility.yul\":5923:5927   */\n      dup1\n        /* \"#utility.yul\":5913:5921   */\n      dup7\n        /* \"#utility.yul\":5909:5928   */\n      and\n        /* \"#utility.yul\":5902:5907   */\n      dup5\n        /* \"#utility.yul\":5899:5929   */\n      or\n        /* \"#utility.yul\":5889:5929   */\n      swap3\n      pop\n        /* \"#utility.yul\":5618:5935   */\n      pop\n      pop\n        /* \"#utility.yul\":5542:5935   */\n      swap4\n      swap3\n      pop\n      pop\n      pop\n      jump\t// out\n        /* \"#utility.yul\":5941:6001   */\n    tag_71:\n        /* \"#utility.yul\":5969:5972   */\n      0x00\n        /* \"#utility.yul\":5990:5995   */\n      dup2\n        /* \"#utility.yul\":5983:5995   */\n      swap1\n      pop\n        /* \"#utility.yul\":5941:6001   */\n      swap2\n      swap1\n      pop\n      jump\t// out\n        /* \"#utility.yul\":6007:6149   */\n    tag_72:\n        /* \"#utility.yul\":6057:6066   */\n      0x00\n        /* \"#utility.yul\":6090:6143   */\n      tag_146\n        /* \"#utility.yul\":6108:6142   */\n      tag_147\n        /* \"#utility.yul\":6117:6141   */\n      tag_148\n        /* \"#utility.yul\":6135:6140   */\n      dup5\n        /* \"#utility.yul\":6117:6141   */\n      tag_51\n      jump\t// in\n    tag_148:\n        /* \"#utility.yul\":6108:6142   */\n      tag_71\n      jump\t// in\n    tag_147:\n        /* \"#utility.yul\":6090:6143   */\n      tag_51\n      jump\t// in\n    tag_146:\n        /* \"#utility.yul\":6077:6143   */\n      swap1\n      pop\n        /* \"#utility.yul\":6007:6149   */\n      swap2\n      swap1\n      pop\n      jump\t// out\n        /* \"#utility.yul\":6155:6230   */\n    tag_73:\n        /* \"#utility.yul\":6198:6201   */\n      0x00\n        /* \"#utility.yul\":6219:6224   */\n      dup2\n        /* \"#utility.yul\":6212:6224   */\n      swap1\n      pop\n        /* \"#utility.yul\":6155:6230   */\n      swap2\n      swap1\n      pop\n      jump\t// out\n        /* \"#utility.yul\":6236:6505   */\n    tag_74:\n        /* \"#utility.yul\":6346:6385   */\n      tag_151\n        /* \"#utility.yul\":6377:6384   */\n      dup4\n        /* \"#utility.yul\":6346:6385   */\n      tag_72\n      jump\t// in\n    tag_151:\n        /* \"#utility.yul\":6407:6498   */\n      tag_152\n        /* \"#utility.yul\":6456:6497   */\n      tag_153\n        /* \"#utility.yul\":6480:6496   */\n      dup3\n        /* \"#utility.yul\":6456:6497   */\n      tag_73\n      jump\t// in\n    tag_153:\n        /* \"#utility.yul\":6448:6454   */\n      dup5\n        /* \"#utility.yul\":6441:6445   */\n      dup5\n        /* \"#utility.yul\":6435:6446   */\n      sload\n        /* \"#utility.yul\":6407:6498   */\n      tag_70\n      jump\t// in\n    tag_152:\n        /* \"#utility.yul\":6401:6405   */\n      dup3\n        /* \"#utility.yul\":6394:6499   */\n      sstore\n        /* \"#utility.yul\":6312:6505   */\n      pop\n        /* \"#utility.yul\":6236:6505   */\n      pop\n      pop\n      pop\n      jump\t// out\n        /* \"#utility.yul\":6511:6584   */\n    tag_75:\n        /* \"#utility.yul\":6556:6559   */\n      0x00\n        /* \"#utility.yul\":6511:6584   */\n      swap1\n      jump\t// out\n        /* \"#utility.yul\":6590:6779   */\n    tag_76:\n        /* \"#utility.yul\":6667:6699   */\n      tag_156\n      tag_75\n      jump\t// in\n    tag_156:\n        /* \"#utility.yul\":6708:6773   */\n      tag_157\n        /* \"#utility.yul\":6766:6772   */\n      dup2\n        /* \"#utility.yul\":6758:6764   */\n      dup5\n        /* \"#utility.yul\":6752:6756   */\n      dup5\n        /* \"#utility.yul\":6708:6773   */\n      tag_74\n      jump\t// in\n    tag_157:\n        /* \"#utility.yul\":6643:6779   */\n      pop\n        /* \"#utility.yul\":6590:6779   */\n      pop\n      pop\n      jump\t// out\n        /* \"#utility.yul\":6785:6971   */\n    tag_77:\n        /* \"#utility.yul\":6845:6965   */\n    tag_159:\n        /* \"#utility.yul\":6862:6865   */\n      dup2\n        /* \"#utility.yul\":6855:6860   */\n      dup2\n        /* \"#utility.yul\":6852:6866   */\n      lt\n        /* \"#utility.yul\":6845:6965   */\n      iszero\n      tag_161\n      jumpi\n        /* \"#utility.yul\":6916:6955   */\n      tag_162\n        /* \"#utility.yul\":6953:6954   */\n      0x00\n        /* \"#utility.yul\":6946:6951   */\n      dup3\n        /* \"#utility.yul\":6916:6955   */\n      tag_76\n      jump\t// in\n    tag_162:\n        /* \"#utility.yul\":6889:6890   */\n      0x01\n        /* \"#utility.yul\":6882:6887   */\n      dup2\n        /* \"#utility.yul\":6878:6891   */\n      add\n        /* \"#utility.yul\":6869:6891   */\n      swap1\n      pop\n        /* \"#utility.yul\":6845:6965   */\n      jump(tag_159)\n    tag_161:\n        /* \"#utility.yul\":6785:6971   */\n      pop\n      pop\n      jump\t// out\n        /* \"#utility.yul\":6977:7520   */\n    tag_78:\n        /* \"#utility.yul\":7078:7080   */\n      0x1f\n        /* \"#utility.yul\":7073:7076   */\n      dup3\n        /* \"#utility.yul\":7070:7081   */\n      gt\n        /* \"#utility.yul\":7067:7513   */\n      iszero\n      tag_164\n      jumpi\n        /* \"#utility.yul\":7112:7150   */\n      tag_165\n        /* \"#utility.yul\":7144:7149   */\n      dup2\n        /* \"#utility.yul\":7112:7150   */\n      tag_67\n      jump\t// in\n    tag_165:\n        /* \"#utility.yul\":7196:7225   */\n      tag_166\n        /* \"#utility.yul\":7214:7224   */\n      dup5\n        /* \"#utility.yul\":7196:7225   */\n      tag_68\n      jump\t// in\n    tag_166:\n        /* \"#utility.yul\":7186:7194   */\n      dup2\n        /* \"#utility.yul\":7182:7226   */\n      add\n        /* \"#utility.yul\":7379:7381   */\n      0x20\n        /* \"#utility.yul\":7367:7377   */\n      dup6\n        /* \"#utility.yul\":7364:7382   */\n      lt\n        /* \"#utility.yul\":7361:7410   */\n      iszero\n      tag_167\n      jumpi\n        /* \"#utility.yul\":7400:7408   */\n      dup2\n        /* \"#utility.yul\":7385:7408   */\n      swap1\n      pop\n        /* \"#utility.yul\":7361:7410   */\n    tag_167:\n        /* \"#utility.yul\":7423:7503   */\n      tag_168\n        /* \"#utility.yul\":7479:7501   */\n      tag_169\n        /* \"#utility.yul\":7497:7500   */\n      dup6\n        /* \"#utility.yul\":7479:7501   */\n      tag_68\n      jump\t// in\n    tag_169:\n        /* \"#utility.yul\":7469:7477   */\n      dup4\n        /* \"#utility.yul\":7465:7502   */\n      add\n        /* \"#utility.yul\":7452:7463   */\n      dup3\n        /* \"#utility.yul\":7423:7503   */\n      tag_77\n      jump\t// in\n    tag_168:\n        /* \"#utility.yul\":7082:7513   */\n      pop\n      pop\n        /* \"#utility.yul\":7067:7513   */\n    tag_164:\n        /* \"#utility.yul\":6977:7520   */\n      pop\n      pop\n      pop\n      jump\t// out\n        /* \"#utility.yul\":7526:7643   */\n    tag_79:\n        /* \"#utility.yul\":7580:7588   */\n      0x00\n        /* \"#utility.yul\":7630:7635   */\n      dup3\n        /* \"#utility.yul\":7624:7628   */\n      dup3\n        /* \"#utility.yul\":7620:7636   */\n      shr\n        /* \"#utility.yul\":7599:7636   */\n      swap1\n      pop\n        /* \"#utility.yul\":7526:7643   */\n      swap3\n      swap2\n      pop\n      pop\n      jump\t// out\n        /* \"#utility.yul\":7649:7818   */\n    tag_80:\n        /* \"#utility.yul\":7693:7699   */\n      0x00\n        /* \"#utility.yul\":7726:7777   */\n      tag_172\n        /* \"#utility.yul\":7774:7775   */\n      0x00\n        /* \"#utility.yul\":7770:7776   */\n      not\n        /* \"#utility.yul\":7762:7767   */\n      dup5\n        /* \"#utility.yul\":7759:7760   */\n      0x08\n        /* \"#utility.yul\":7755:7768   */\n      mul\n        /* \"#utility.yul\":7726:7777   */\n      tag_79\n      jump\t// in\n    tag_172:\n        /* \"#utility.yul\":7722:7778   */\n      not\n        /* \"#utility.yul\":7807:7811   */\n      dup1\n        /* \"#utility.yul\":7801:7805   */\n      dup4\n        /* \"#utility.yul\":7797:7812   */\n      and\n        /* \"#utility.yul\":7787:7812   */\n      swap2\n      pop\n        /* \"#utility.yul\":7700:7818   */\n      pop\n        /* \"#utility.yul\":7649:7818   */\n      swap3\n      swap2\n      pop\n      pop\n      jump\t// out\n        /* \"#utility.yul\":7823:8118   */\n    tag_81:\n        /* \"#utility.yul\":7899:7903   */\n      0x00\n        /* \"#utility.yul\":8045:8074   */\n      tag_174\n        /* \"#utility.yul\":8070:8073   */\n      dup4\n        /* \"#utility.yul\":8064:8068   */\n      dup4\n        /* \"#utility.yul\":8045:8074   */\n      tag_80\n      jump\t// in\n    tag_174:\n        /* \"#utility.yul\":8037:8074   */\n      swap2\n      pop\n        /* \"#utility.yul\":8107:8110   */\n      dup3\n        /* \"#utility.yul\":8104:8105   */\n      0x02\n        /* \"#utility.yul\":8100:8111   */\n      mul\n        /* \"#utility.yul\":8094:8098   */\n      dup3\n        /* \"#utility.yul\":8091:8112   */\n      or\n        /* \"#utility.yul\":8083:8112   */\n      swap1\n      pop\n        /* \"#utility.yul\":7823:8118   */\n      swap3\n      swap2\n      pop\n      pop\n      jump\t// out\n        /* \"#utility.yul\":8123:9526   */\n    tag_47:\n        /* \"#utility.yul\":8247:8291   */\n      tag_176\n        /* \"#utility.yul\":8287:8290   */\n      dup4\n        /* \"#utility.yul\":8282:8285   */\n      dup4\n        /* \"#utility.yul\":8247:8291   */\n      tag_65\n      jump\t// in\n    tag_176:\n        /* \"#utility.yul\":8356:8374   */\n      0xffffffffffffffff\n        /* \"#utility.yul\":8348:8354   */\n      dup2\n        /* \"#utility.yul\":8345:8375   */\n      gt\n        /* \"#utility.yul\":8342:8398   */\n      iszero\n      tag_177\n      jumpi\n        /* \"#utility.yul\":8378:8396   */\n      tag_178\n      tag_66\n      jump\t// in\n    tag_178:\n        /* \"#utility.yul\":8342:8398   */\n    tag_177:\n        /* \"#utility.yul\":8422:8460   */\n      tag_179\n        /* \"#utility.yul\":8454:8458   */\n      dup3\n        /* \"#utility.yul\":8448:8459   */\n      sload\n        /* \"#utility.yul\":8422:8460   */\n      tag_28\n      jump\t// in\n    tag_179:\n        /* \"#utility.yul\":8507:8574   */\n      tag_180\n        /* \"#utility.yul\":8567:8573   */\n      dup3\n        /* \"#utility.yul\":8559:8565   */\n      dup3\n        /* \"#utility.yul\":8553:8557   */\n      dup6\n        /* \"#utility.yul\":8507:8574   */\n      tag_78\n      jump\t// in\n    tag_180:\n        /* \"#utility.yul\":8601:8602   */\n      0x00\n        /* \"#utility.yul\":8630:8632   */\n      0x1f\n        /* \"#utility.yul\":8622:8628   */\n      dup4\n        /* \"#utility.yul\":8619:8633   */\n      gt\n        /* \"#utility.yul\":8647:8648   */\n      0x01\n        /* \"#utility.yul\":8642:9274   */\n      dup2\n      eq\n      tag_182\n      jumpi\n        /* \"#utility.yul\":9318:9319   */\n      0x00\n        /* \"#utility.yul\":9335:9341   */\n      dup5\n        /* \"#utility.yul\":9332:9416   */\n      iszero\n      tag_183\n      jumpi\n        /* \"#utility.yul\":9391:9400   */\n      dup3\n        /* \"#utility.yul\":9386:9389   */\n      dup8\n        /* \"#utility.yul\":9382:9401   */\n      add\n        /* \"#utility.yul\":9369:9402   */\n      calldataload\n        /* \"#utility.yul\":9360:9402   */\n      swap1\n      pop\n        /* \"#utility.yul\":9332:9416   */\n    tag_183:\n        /* \"#utility.yul\":9442:9509   */\n      tag_184\n        /* \"#utility.yul\":9502:9508   */\n      dup6\n        /* \"#utility.yul\":9495:9500   */\n      dup3\n        /* \"#utility.yul\":9442:9509   */\n      tag_81\n      jump\t// in\n    tag_184:\n        /* \"#utility.yul\":9436:9440   */\n      dup7\n        /* \"#utility.yul\":9429:9510   */\n      sstore\n        /* \"#utility.yul\":9291:9520   */\n      pop\n        /* \"#utility.yul\":8612:9520   */\n      jump(tag_181)\n        /* \"#utility.yul\":8642:9274   */\n    tag_182:\n        /* \"#utility.yul\":8694:8698   */\n      0x1f\n        /* \"#utility.yul\":8690:8699   */\n      not\n        /* \"#utility.yul\":8682:8688   */\n      dup5\n        /* \"#utility.yul\":8678:8700   */\n      and\n        /* \"#utility.yul\":8728:8765   */\n      tag_185\n        /* \"#utility.yul\":8760:8764   */\n      dup7\n        /* \"#utility.yul\":8728:8765   */\n      tag_67\n      jump\t// in\n    tag_185:\n        /* \"#utility.yul\":8787:8788   */\n      0x00\n        /* \"#utility.yul\":8801:9016   */\n    tag_186:\n        /* \"#utility.yul\":8815:8822   */\n      dup3\n        /* \"#utility.yul\":8812:8813   */\n      dup2\n        /* \"#utility.yul\":8809:8823   */\n      lt\n        /* \"#utility.yul\":8801:9016   */\n      iszero\n      tag_188\n      jumpi\n        /* \"#utility.yul\":8901:8910   */\n      dup5\n        /* \"#utility.yul\":8896:8899   */\n      dup10\n        /* \"#utility.yul\":8892:8911   */\n      add\n        /* \"#utility.yul\":8879:8912   */\n      calldataload\n        /* \"#utility.yul\":8871:8877   */\n      dup3\n        /* \"#utility.yul\":8864:8913   */\n      sstore\n        /* \"#utility.yul\":8952:8953   */\n      0x01\n        /* \"#utility.yul\":8944:8950   */\n      dup3\n        /* \"#utility.yul\":8940:8954   */\n      add\n        /* \"#utility.yul\":8930:8954   */\n      swap2\n      pop\n        /* \"#utility.yul\":8999:9001   */\n      0x20\n        /* \"#utility.yul\":8988:8997   */\n      dup6\n        /* \"#utility.yul\":8984:9002   */\n      add\n        /* \"#utility.yul\":8971:9002   */\n      swap5\n      pop\n        /* \"#utility.yul\":8838:8842   */\n      0x20\n        /* \"#utility.yul\":8835:8836   */\n      dup2\n        /* \"#utility.yul\":8831:8843   */\n      add\n        /* \"#utility.yul\":8826:8843   */\n      swap1\n      pop\n        /* \"#utility.yul\":8801:9016   */\n      jump(tag_186)\n    tag_188:\n        /* \"#utility.yul\":9044:9050   */\n      dup7\n        /* \"#utility.yul\":9035:9042   */\n      dup4\n        /* \"#utility.yul\":9032:9051   */\n      lt\n        /* \"#utility.yul\":9029:9215   */\n      iszero\n      tag_189\n      jumpi\n        /* \"#utility.yul\":9109:9118   */\n      dup5\n        /* \"#utility.yul\":9104:9107   */\n      dup10\n        /* \"#utility.yul\":9100:9119   */\n      add\n        /* \"#utility.yul\":9087:9120   */\n      calldataload\n        /* \"#utility.yul\":9152:9200   */\n      tag_190\n        /* \"#utility.yul\":9194:9198   */\n      0x1f\n        /* \"#utility.yul\":9186:9192   */\n      dup10\n        /* \"#utility.yul\":9182:9199   */\n      and\n        /* \"#utility.yul\":9171:9180   */\n      dup3\n        /* \"#utility.yul\":9152:9200   */\n      tag_80\n      jump\t// in\n    tag_190:\n        /* \"#utility.yul\":9144:9150   */\n      dup4\n        /* \"#utility.yul\":9137:9201   */\n      sstore\n        /* \"#utility.yul\":9052:9215   */\n      pop\n        /* \"#utility.yul\":9029:9215   */\n    tag_189:\n        /* \"#utility.yul\":9261:9262   */\n      0x01\n        /* \"#utility.yul\":9257:9258   */\n      0x02\n        /* \"#utility.yul\":9249:9255   */\n      dup9\n        /* \"#utility.yul\":9245:9259   */\n      mul\n        /* \"#utility.yul\":9241:9263   */\n      add\n        /* \"#utility.yul\":9235:9239   */\n      dup9\n        /* \"#utility.yul\":9228:9264   */\n      sstore\n        /* \"#utility.yul\":8649:9274   */\n      pop\n      pop\n      pop\n        /* \"#utility.yul\":8612:9520   */\n    tag_181:\n      pop\n        /* \"#utility.yul\":8222:9526   */\n      pop\n      pop\n      pop\n        /* \"#utility.yul\":8123:9526   */\n      pop\n      pop\n      pop\n      jump\t// out\n\n    auxdata: 0xa26469706673582212206a28ad901f5392e423bcde85b8ccef50fbca99e08b3b0a2a523f31e9d064377e64736f6c63430008170033\n}\n",
				"bytecode": {
					"linkReferences": {},
					"object": "608060405234801561000f575f80fd5b506107c68061001d5f395ff3fe608060405234801561000f575f80fd5b506004361061004a575f3560e01c806361c3a7e61461004e578063a965a9411461007e578063c1bbf4c1146100ae578063ebaac771146100cc575b5f80fd5b610068600480360381019061006391906102bc565b6100e8565b6040516100759190610371565b60405180910390f35b610098600480360381019061009391906102bc565b61018d565b6040516100a59190610371565b60405180910390f35b6100b6610238565b6040516100c391906103a0565b60405180910390f35b6100e660048036038101906100e1919061041a565b610243565b005b5f81815481106100f6575f80fd5b905f5260205f20015f91509050805461010e90610492565b80601f016020809104026020016040519081016040528092919081815260200182805461013a90610492565b80156101855780601f1061015c57610100808354040283529160200191610185565b820191905f5260205f20905b81548152906001019060200180831161016857829003601f168201915b505050505081565b60605f82815481106101a2576101a16104c2565b5b905f5260205f200180546101b590610492565b80601f01602080910402602001604051908101604052809291908181526020018280546101e190610492565b801561022c5780601f106102035761010080835404028352916020019161022c565b820191905f5260205f20905b81548152906001019060200180831161020f57829003601f168201915b50505050509050919050565b5f8080549050905090565b5f828290918060018154018082558091505060019003905f5260205f20015f90919290919290919290919250918261027c9291906106c3565b505050565b5f80fd5b5f80fd5b5f819050919050565b61029b81610289565b81146102a5575f80fd5b50565b5f813590506102b681610292565b92915050565b5f602082840312156102d1576102d0610281565b5b5f6102de848285016102a8565b91505092915050565b5f81519050919050565b5f82825260208201905092915050565b5f5b8381101561031e578082015181840152602081019050610303565b5f8484015250505050565b5f601f19601f8301169050919050565b5f610343826102e7565b61034d81856102f1565b935061035d818560208601610301565b61036681610329565b840191505092915050565b5f6020820190508181035f8301526103898184610339565b905092915050565b61039a81610289565b82525050565b5f6020820190506103b35f830184610391565b92915050565b5f80fd5b5f80fd5b5f80fd5b5f8083601f8401126103da576103d96103b9565b5b8235905067ffffffffffffffff8111156103f7576103f66103bd565b5b602083019150836001820283011115610413576104126103c1565b5b9250929050565b5f80602083850312156104305761042f610281565b5b5f83013567ffffffffffffffff81111561044d5761044c610285565b5b610459858286016103c5565b92509250509250929050565b7f4e487b71000000000000000000000000000000000000000000000000000000005f52602260045260245ffd5b5f60028204905060018216806104a957607f821691505b6020821081036104bc576104bb610465565b5b50919050565b7f4e487b71000000000000000000000000000000000000000000000000000000005f52603260045260245ffd5b5f82905092915050565b7f4e487b71000000000000000000000000000000000000000000000000000000005f52604160045260245ffd5b5f819050815f5260205f209050919050565b5f6020601f8301049050919050565b5f82821b905092915050565b5f600883026105827fffffffffffffffffffffffffffffffffffffffffffffffffffffffffffffffff82610547565b61058c8683610547565b95508019841693508086168417925050509392505050565b5f819050919050565b5f6105c76105c26105bd84610289565b6105a4565b610289565b9050919050565b5f819050919050565b6105e0836105ad565b6105f46105ec826105ce565b848454610553565b825550505050565b5f90565b6106086105fc565b6106138184846105d7565b505050565b5b818110156106365761062b5f82610600565b600181019050610619565b5050565b601f82111561067b5761064c81610526565b61065584610538565b81016020851015610664578190505b61067861067085610538565b830182610618565b50505b505050565b5f82821c905092915050565b5f61069b5f1984600802610680565b1980831691505092915050565b5f6106b3838361068c565b9150826002028217905092915050565b6106cd83836104ef565b67ffffffffffffffff8111156106e6576106e56104f9565b5b6106f08254610492565b6106fb82828561063a565b5f601f831160018114610728575f8415610716578287013590505b61072085826106a8565b865550610787565b601f19841661073686610526565b5f5b8281101561075d57848901358255600182019150602085019450602081019050610738565b8683101561077a5784890135610776601f89168261068c565b8355505b6001600288020188555050505b5050505050505056fea26469706673582212206a28ad901f5392e423bcde85b8ccef50fbca99e08b3b0a2a523f31e9d064377e64736f6c63430008170033",
					"opcodes": "PUSH1 0x80 PUSH1 0x40 MSTORE CALLVALUE DUP1 ISZERO PUSH2 0xF JUMPI PUSH0 DUP1 REVERT JUMPDEST POP PUSH2 0x7C6 DUP1 PUSH2 0x1D PUSH0 CODECOPY PUSH0 RETURN INVALID PUSH1 0x80 PUSH1 0x40 MSTORE CALLVALUE DUP1 ISZERO PUSH2 0xF JUMPI PUSH0 DUP1 REVERT JUMPDEST POP PUSH1 0x4 CALLDATASIZE LT PUSH2 0x4A JUMPI PUSH0 CALLDATALOAD PUSH1 0xE0 SHR DUP1 PUSH4 0x61C3A7E6 EQ PUSH2 0x4E JUMPI DUP1 PUSH4 0xA965A941 EQ PUSH2 0x7E JUMPI DUP1 PUSH4 0xC1BBF4C1 EQ PUSH2 0xAE JUMPI DUP1 PUSH4 0xEBAAC771 EQ PUSH2 0xCC JUMPI JUMPDEST PUSH0 DUP1 REVERT JUMPDEST PUSH2 0x68 PUSH1 0x4 DUP1 CALLDATASIZE SUB DUP2 ADD SWAP1 PUSH2 0x63 SWAP2 SWAP1 PUSH2 0x2BC JUMP JUMPDEST PUSH2 0xE8 JUMP JUMPDEST PUSH1 0x40 MLOAD PUSH2 0x75 SWAP2 SWAP1 PUSH2 0x371 JUMP JUMPDEST PUSH1 0x40 MLOAD DUP1 SWAP2 SUB SWAP1 RETURN JUMPDEST PUSH2 0x98 PUSH1 0x4 DUP1 CALLDATASIZE SUB DUP2 ADD SWAP1 PUSH2 0x93 SWAP2 SWAP1 PUSH2 0x2BC JUMP JUMPDEST PUSH2 0x18D JUMP JUMPDEST PUSH1 0x40 MLOAD PUSH2 0xA5 SWAP2 SWAP1 PUSH2 0x371 JUMP JUMPDEST PUSH1 0x40 MLOAD DUP1 SWAP2 SUB SWAP1 RETURN JUMPDEST PUSH2 0xB6 PUSH2 0x238 JUMP JUMPDEST PUSH1 0x40 MLOAD PUSH2 0xC3 SWAP2 SWAP1 PUSH2 0x3A0 JUMP JUMPDEST PUSH1 0x40 MLOAD DUP1 SWAP2 SUB SWAP1 RETURN JUMPDEST PUSH2 0xE6 PUSH1 0x4 DUP1 CALLDATASIZE SUB DUP2 ADD SWAP1 PUSH2 0xE1 SWAP2 SWAP1 PUSH2 0x41A JUMP JUMPDEST PUSH2 0x243 JUMP JUMPDEST STOP JUMPDEST PUSH0 DUP2 DUP2 SLOAD DUP2 LT PUSH2 0xF6 JUMPI PUSH0 DUP1 REVERT JUMPDEST SWAP1 PUSH0 MSTORE PUSH1 0x20 PUSH0 KECCAK256 ADD PUSH0 SWAP2 POP SWAP1 POP DUP1 SLOAD PUSH2 0x10E SWAP1 PUSH2 0x492 JUMP JUMPDEST DUP1 PUSH1 0x1F ADD PUSH1 0x20 DUP1 SWAP2 DIV MUL PUSH1 0x20 ADD PUSH1 0x40 MLOAD SWAP1 DUP2 ADD PUSH1 0x40 MSTORE DUP1 SWAP3 SWAP2 SWAP1 DUP2 DUP2 MSTORE PUSH1 0x20 ADD DUP3 DUP1 SLOAD PUSH2 0x13A SWAP1 PUSH2 0x492 JUMP JUMPDEST DUP1 ISZERO PUSH2 0x185 JUMPI DUP1 PUSH1 0x1F LT PUSH2 0x15C JUMPI PUSH2 0x100 DUP1 DUP4 SLOAD DIV MUL DUP4 MSTORE SWAP2 PUSH1 0x20 ADD SWAP2 PUSH2 0x185 JUMP JUMPDEST DUP3 ADD SWAP2 SWAP1 PUSH0 MSTORE PUSH1 0x20 PUSH0 KECCAK256 SWAP1 JUMPDEST DUP2 SLOAD DUP2 MSTORE SWAP1 PUSH1 0x1 ADD SWAP1 PUSH1 0x20 ADD DUP1 DUP4 GT PUSH2 0x168 JUMPI DUP3 SWAP1 SUB PUSH1 0x1F AND DUP3 ADD SWAP2 JUMPDEST POP POP POP POP POP DUP2 JUMP JUMPDEST PUSH1 0x60 PUSH0 DUP3 DUP2 SLOAD DUP2 LT PUSH2 0x1A2 JUMPI PUSH2 0x1A1 PUSH2 0x4C2 JUMP JUMPDEST JUMPDEST SWAP1 PUSH0 MSTORE PUSH1 0x20 PUSH0 KECCAK256 ADD DUP1 SLOAD PUSH2 0x1B5 SWAP1 PUSH2 0x492 JUMP JUMPDEST DUP1 PUSH1 0x1F ADD PUSH1 0x20 DUP1 SWAP2 DIV MUL PUSH1 0x20 ADD PUSH1 0x40 MLOAD SWAP1 DUP2 ADD PUSH1 0x40 MSTORE DUP1 SWAP3 SWAP2 SWAP1 DUP2 DUP2 MSTORE PUSH1 0x20 ADD DUP3 DUP1 SLOAD PUSH2 0x1E1 SWAP1 PUSH2 0x492 JUMP JUMPDEST DUP1 ISZERO PUSH2 0x22C JUMPI DUP1 PUSH1 0x1F LT PUSH2 0x203 JUMPI PUSH2 0x100 DUP1 DUP4 SLOAD DIV MUL DUP4 MSTORE SWAP2 PUSH1 0x20 ADD SWAP2 PUSH2 0x22C JUMP JUMPDEST DUP3 ADD SWAP2 SWAP1 PUSH0 MSTORE PUSH1 0x20 PUSH0 KECCAK256 SWAP1 JUMPDEST DUP2 SLOAD DUP2 MSTORE SWAP1 PUSH1 0x1 ADD SWAP1 PUSH1 0x20 ADD DUP1 DUP4 GT PUSH2 0x20F JUMPI DUP3 SWAP1 SUB PUSH1 0x1F AND DUP3 ADD SWAP2 JUMPDEST POP POP POP POP POP SWAP1 POP SWAP2 SWAP1 POP JUMP JUMPDEST PUSH0 DUP1 DUP1 SLOAD SWAP1 POP SWAP1 POP SWAP1 JUMP JUMPDEST PUSH0 DUP3 DUP3 SWAP1 SWAP2 DUP1 PUSH1 0x1 DUP2 SLOAD ADD DUP1 DUP3 SSTORE DUP1 SWAP2 POP POP PUSH1 0x1 SWAP1 SUB SWAP1 PUSH0 MSTORE PUSH1 0x20 PUSH0 KECCAK256 ADD PUSH0 SWAP1 SWAP2 SWAP3 SWAP1 SWAP2 SWAP3 SWAP1 SWAP2 SWAP3 SWAP1 SWAP2 SWAP3 POP SWAP2 DUP3 PUSH2 0x27C SWAP3 SWAP2 SWAP1 PUSH2 0x6C3 JUMP JUMPDEST POP POP POP JUMP JUMPDEST PUSH0 DUP1 REVERT JUMPDEST PUSH0 DUP1 REVERT JUMPDEST PUSH0 DUP2 SWAP1 POP SWAP2 SWAP1 POP JUMP JUMPDEST PUSH2 0x29B DUP2 PUSH2 0x289 JUMP JUMPDEST DUP2 EQ PUSH2 0x2A5 JUMPI PUSH0 DUP1 REVERT JUMPDEST POP JUMP JUMPDEST PUSH0 DUP2 CALLDATALOAD SWAP1 POP PUSH2 0x2B6 DUP2 PUSH2 0x292 JUMP JUMPDEST SWAP3 SWAP2 POP POP JUMP JUMPDEST PUSH0 PUSH1 0x20 DUP3 DUP5 SUB SLT ISZERO PUSH2 0x2D1 JUMPI PUSH2 0x2D0 PUSH2 0x281 JUMP JUMPDEST JUMPDEST PUSH0 PUSH2 0x2DE DUP5 DUP3 DUP6 ADD PUSH2 0x2A8 JUMP JUMPDEST SWAP2 POP POP SWAP3 SWAP2 POP POP JUMP JUMPDEST PUSH0 DUP2 MLOAD SWAP1 POP SWAP2 SWAP1 POP JUMP JUMPDEST PUSH0 DUP3 DUP3 MSTORE PUSH1 0x20 DUP3 ADD SWAP1 POP SWAP3 SWAP2 POP POP JUMP JUMPDEST PUSH0 JUMPDEST DUP4 DUP2 LT ISZERO PUSH2 0x31E JUMPI DUP1 DUP3 ADD MLOAD DUP2 DUP5 ADD MSTORE PUSH1 0x20 DUP2 ADD SWAP1 POP PUSH2 0x303 JUMP JUMPDEST PUSH0 DUP5 DUP5 ADD MSTORE POP POP POP POP JUMP JUMPDEST PUSH0 PUSH1 0x1F NOT PUSH1 0x1F DUP4 ADD AND SWAP1 POP SWAP2 SWAP1 POP JUMP JUMPDEST PUSH0 PUSH2 0x343 DUP3 PUSH2 0x2E7 JUMP JUMPDEST PUSH2 0x34D DUP2 DUP6 PUSH2 0x2F1 JUMP JUMPDEST SWAP4 POP PUSH2 0x35D DUP2 DUP6 PUSH1 0x20 DUP7 ADD PUSH2 0x301 JUMP JUMPDEST PUSH2 0x366 DUP2 PUSH2 0x329 JUMP JUMPDEST DUP5 ADD SWAP2 POP POP SWAP3 SWAP2 POP POP JUMP JUMPDEST PUSH0 PUSH1 0x20 DUP3 ADD SWAP1 POP DUP2 DUP2 SUB PUSH0 DUP4 ADD MSTORE PUSH2 0x389 DUP2 DUP5 PUSH2 0x339 JUMP JUMPDEST SWAP1 POP SWAP3 SWAP2 POP POP JUMP JUMPDEST PUSH2 0x39A DUP2 PUSH2 0x289 JUMP JUMPDEST DUP3 MSTORE POP POP JUMP JUMPDEST PUSH0 PUSH1 0x20 DUP3 ADD SWAP1 POP PUSH2 0x3B3 PUSH0 DUP4 ADD DUP5 PUSH2 0x391 JUMP JUMPDEST SWAP3 SWAP2 POP POP JUMP JUMPDEST PUSH0 DUP1 REVERT JUMPDEST PUSH0 DUP1 REVERT JUMPDEST PUSH0 DUP1 REVERT JUMPDEST PUSH0 DUP1 DUP4 PUSH1 0x1F DUP5 ADD SLT PUSH2 0x3DA JUMPI PUSH2 0x3D9 PUSH2 0x3B9 JUMP JUMPDEST JUMPDEST DUP3 CALLDATALOAD SWAP1 POP PUSH8 0xFFFFFFFFFFFFFFFF DUP2 GT ISZERO PUSH2 0x3F7 JUMPI PUSH2 0x3F6 PUSH2 0x3BD JUMP JUMPDEST JUMPDEST PUSH1 0x20 DUP4 ADD SWAP2 POP DUP4 PUSH1 0x1 DUP3 MUL DUP4 ADD GT ISZERO PUSH2 0x413 JUMPI PUSH2 0x412 PUSH2 0x3C1 JUMP JUMPDEST JUMPDEST SWAP3 POP SWAP3 SWAP1 POP JUMP JUMPDEST PUSH0 DUP1 PUSH1 0x20 DUP4 DUP6 SUB SLT ISZERO PUSH2 0x430 JUMPI PUSH2 0x42F PUSH2 0x281 JUMP JUMPDEST JUMPDEST PUSH0 DUP4 ADD CALLDATALOAD PUSH8 0xFFFFFFFFFFFFFFFF DUP2 GT ISZERO PUSH2 0x44D JUMPI PUSH2 0x44C PUSH2 0x285 JUMP JUMPDEST JUMPDEST PUSH2 0x459 DUP6 DUP3 DUP7 ADD PUSH2 0x3C5 JUMP JUMPDEST SWAP3 POP SWAP3 POP POP SWAP3 POP SWAP3 SWAP1 POP JUMP JUMPDEST PUSH32 0x4E487B7100000000000000000000000000000000000000000000000000000000 PUSH0 MSTORE PUSH1 0x22 PUSH1 0x4 MSTORE PUSH1 0x24 PUSH0 REVERT JUMPDEST PUSH0 PUSH1 0x2 DUP3 DIV SWAP1 POP PUSH1 0x1 DUP3 AND DUP1 PUSH2 0x4A9 JUMPI PUSH1 0x7F DUP3 AND SWAP2 POP JUMPDEST PUSH1 0x20 DUP3 LT DUP2 SUB PUSH2 0x4BC JUMPI PUSH2 0x4BB PUSH2 0x465 JUMP JUMPDEST JUMPDEST POP SWAP2 SWAP1 POP JUMP JUMPDEST PUSH32 0x4E487B7100000000000000000000000000000000000000000000000000000000 PUSH0 MSTORE PUSH1 0x32 PUSH1 0x4 MSTORE PUSH1 0x24 PUSH0 REVERT JUMPDEST PUSH0 DUP3 SWAP1 POP SWAP3 SWAP2 POP POP JUMP JUMPDEST PUSH32 0x4E487B7100000000000000000000000000000000000000000000000000000000 PUSH0 MSTORE PUSH1 0x41 PUSH1 0x4 MSTORE PUSH1 0x24 PUSH0 REVERT JUMPDEST PUSH0 DUP2 SWAP1 POP DUP2 PUSH0 MSTORE PUSH1 0x20 PUSH0 KECCAK256 SWAP1 POP SWAP2 SWAP1 POP JUMP JUMPDEST PUSH0 PUSH1 0x20 PUSH1 0x1F DUP4 ADD DIV SWAP1 POP SWAP2 SWAP1 POP JUMP JUMPDEST PUSH0 DUP3 DUP3 SHL SWAP1 POP SWAP3 SWAP2 POP POP JUMP JUMPDEST PUSH0 PUSH1 0x8 DUP4 MUL PUSH2 0x582 PUSH32 0xFFFFFFFFFFFFFFFFFFFFFFFFFFFFFFFFFFFFFFFFFFFFFFFFFFFFFFFFFFFFFFFF DUP3 PUSH2 0x547 JUMP JUMPDEST PUSH2 0x58C DUP7 DUP4 PUSH2 0x547 JUMP JUMPDEST SWAP6 POP DUP1 NOT DUP5 AND SWAP4 POP DUP1 DUP7 AND DUP5 OR SWAP3 POP POP POP SWAP4 SWAP3 POP POP POP JUMP JUMPDEST PUSH0 DUP2 SWAP1 POP SWAP2 SWAP1 POP JUMP JUMPDEST PUSH0 PUSH2 0x5C7 PUSH2 0x5C2 PUSH2 0x5BD DUP5 PUSH2 0x289 JUMP JUMPDEST PUSH2 0x5A4 JUMP JUMPDEST PUSH2 0x289 JUMP JUMPDEST SWAP1 POP SWAP2 SWAP1 POP JUMP JUMPDEST PUSH0 DUP2 SWAP1 POP SWAP2 SWAP1 POP JUMP JUMPDEST PUSH2 0x5E0 DUP4 PUSH2 0x5AD JUMP JUMPDEST PUSH2 0x5F4 PUSH2 0x5EC DUP3 PUSH2 0x5CE JUMP JUMPDEST DUP5 DUP5 SLOAD PUSH2 0x553 JUMP JUMPDEST DUP3 SSTORE POP POP POP POP JUMP JUMPDEST PUSH0 SWAP1 JUMP JUMPDEST PUSH2 0x608 PUSH2 0x5FC JUMP JUMPDEST PUSH2 0x613 DUP2 DUP5 DUP5 PUSH2 0x5D7 JUMP JUMPDEST POP POP POP JUMP JUMPDEST JUMPDEST DUP2 DUP2 LT ISZERO PUSH2 0x636 JUMPI PUSH2 0x62B PUSH0 DUP3 PUSH2 0x600 JUMP JUMPDEST PUSH1 0x1 DUP2 ADD SWAP1 POP PUSH2 0x619 JUMP JUMPDEST POP POP JUMP JUMPDEST PUSH1 0x1F DUP3 GT ISZERO PUSH2 0x67B JUMPI PUSH2 0x64C DUP2 PUSH2 0x526 JUMP JUMPDEST PUSH2 0x655 DUP5 PUSH2 0x538 JUMP JUMPDEST DUP2 ADD PUSH1 0x20 DUP6 LT ISZERO PUSH2 0x664 JUMPI DUP2 SWAP1 POP JUMPDEST PUSH2 0x678 PUSH2 0x670 DUP6 PUSH2 0x538 JUMP JUMPDEST DUP4 ADD DUP3 PUSH2 0x618 JUMP JUMPDEST POP POP JUMPDEST POP POP POP JUMP JUMPDEST PUSH0 DUP3 DUP3 SHR SWAP1 POP SWAP3 SWAP2 POP POP JUMP JUMPDEST PUSH0 PUSH2 0x69B PUSH0 NOT DUP5 PUSH1 0x8 MUL PUSH2 0x680 JUMP JUMPDEST NOT DUP1 DUP4 AND SWAP2 POP POP SWAP3 SWAP2 POP POP JUMP JUMPDEST PUSH0 PUSH2 0x6B3 DUP4 DUP4 PUSH2 0x68C JUMP JUMPDEST SWAP2 POP DUP3 PUSH1 0x2 MUL DUP3 OR SWAP1 POP SWAP3 SWAP2 POP POP JUMP JUMPDEST PUSH2 0x6CD DUP4 DUP4 PUSH2 0x4EF JUMP JUMPDEST PUSH8 0xFFFFFFFFFFFFFFFF DUP2 GT ISZERO PUSH2 0x6E6 JUMPI PUSH2 0x6E5 PUSH2 0x4F9 JUMP JUMPDEST JUMPDEST PUSH2 0x6F0 DUP3 SLOAD PUSH2 0x492 JUMP JUMPDEST PUSH2 0x6FB DUP3 DUP3 DUP6 PUSH2 0x63A JUMP JUMPDEST PUSH0 PUSH1 0x1F DUP4 GT PUSH1 0x1 DUP2 EQ PUSH2 0x728 JUMPI PUSH0 DUP5 ISZERO PUSH2 0x716 JUMPI DUP3 DUP8 ADD CALLDATALOAD SWAP1 POP JUMPDEST PUSH2 0x720 DUP6 DUP3 PUSH2 0x6A8 JUMP JUMPDEST DUP7 SSTORE POP PUSH2 0x787 JUMP JUMPDEST PUSH1 0x1F NOT DUP5 AND PUSH2 0x736 DUP7 PUSH2 0x526 JUMP JUMPDEST PUSH0 JUMPDEST DUP3 DUP2 LT ISZERO PUSH2 0x75D JUMPI DUP5 DUP10 ADD CALLDATALOAD DUP3 SSTORE PUSH1 0x1 DUP3 ADD SWAP2 POP PUSH1 0x20 DUP6 ADD SWAP5 POP PUSH1 0x20 DUP2 ADD SWAP1 POP PUSH2 0x738 JUMP JUMPDEST DUP7 DUP4 LT ISZERO PUSH2 0x77A JUMPI DUP5 DUP10 ADD CALLDATALOAD PUSH2 0x776 PUSH1 0x1F DUP10 AND DUP3 PUSH2 0x68C JUMP JUMPDEST DUP4 SSTORE POP JUMPDEST PUSH1 0x1 PUSH1 0x2 DUP9 MUL ADD DUP9 SSTORE POP POP POP JUMPDEST POP POP POP POP POP POP POP JUMP INVALID LOG2 PUSH5 0x6970667358 0x22 SLT KECCAK256 PUSH11 0x28AD901F5392E423BCDE85 0xB8 0xCC 0xEF POP 0xFB 0xCA SWAP10 0xE0 DUP12 EXTCODESIZE EXP 0x2A MSTORE EXTCODEHASH BALANCE 0xE9 0xD0 PUSH5 0x377E64736F PUSH13 0x63430008170033000000000000 "
				},
				"gasEstimates": {
					"creation": {
						"codeDepositCost": "398000",
						"executionCost": "434",
						"totalCost": "398434"
					},
					"external": {
						"getNote(uint256)": "infinite",
						"notes(uint256)": "infinite",
						"totalNotes()": "2462",
						"write(string)": "infinite"
					}
				},
				"methodIdentifiers": {
					"getNote(uint256)": "a965a941",
					"notes(uint256)": "61c3a7e6",
					"totalNotes()": "c1bbf4c1",
					"write(string)": "ebaac771"
				}
			},
			"storageLayout": {
				"storage": [
					{
						"astId": 4,
						"contract": "monad dashboard/AnonymousNote.sol:AnonymousNotes",
						"label": "notes",
						"offset": 0,
						"slot": "0",
						"type": "t_array(t_string_storage)dyn_storage"
					}
				],
				"types": {
					"t_array(t_string_storage)dyn_storage": {
						"base": "t_string_storage",
						"encoding": "dynamic_array",
						"label": "string[]",
						"numberOfBytes": "32"
					},
					"t_string_storage": {
						"encoding": "bytes",
						"label": "string",
						"numberOfBytes": "32"
					}
				}
			},
			"userdoc": {
				"kind": "user",
				"methods": {},
				"version": 1
			}
		}
	}
}