{
	"monad dashboard/DailyQuote.sol": {
		"DailyQuote": {
			"abi": [
				{
					"inputs": [],
					"name": "lastSet",
					"outputs": [
						{
							"internalType": "uint256",
							"name": "",
							"type": "uint256"
						}
					],
					"stateMutability": "view",
					"type": "function"
				},
				{
					"inputs": [],
					"name": "quote",
					"outputs": [
						{
							"internalType": "string",
							"name": "",
							"type": "string"
						}
					],
					"stateMutability": "view",
					"type": "function"
				},
				{
					"inputs": [
						{
							"internalType": "string",
							"name": "newQuote",
							"type": "string"
						}
					],
					"name": "setQuote",
					"outputs": [],
					"stateMutability": "nonpayable",
					"type": "function"
				}
			],
			"devdoc": {
				"kind": "dev",
				"methods": {},
				"version": 1
			},
			"evm": {
				"assembly": "    /* \"monad dashboard/DailyQuote.sol\":105:382  contract DailyQuote {... */\n  mstore(0x40, 0x80)\n  callvalue\n  dup1\n  iszero\n  tag_1\n  jumpi\n  0x00\n  dup1\n  revert\ntag_1:\n  pop\n  dataSize(sub_0)\n  dup1\n  dataOffset(sub_0)\n  0x00\n  codecopy\n  0x00\n  return\nstop\n\nsub_0: assembly {\n        /* \"monad dashboard/DailyQuote.sol\":105:382  contract DailyQuote {... */\n      mstore(0x40, 0x80)\n      callvalue\n      dup1\n      iszero\n      tag_1\n      jumpi\n      0x00\n      dup1\n      revert\n    tag_1:\n      pop\n      jumpi(tag_2, lt(calldatasize, 0x04))\n      shr(0xe0, calldataload(0x00))\n      dup1\n      0x999b93af\n      eq\n      tag_3\n      jumpi\n      dup1\n      0xa03ce27d\n      eq\n      tag_4\n      jumpi\n      dup1\n      0xe3de1703\n      eq\n      tag_5\n      jumpi\n    tag_2:\n      0x00\n      dup1\n      revert\n        /* \"monad dashboard/DailyQuote.sol\":132:151  string public quote */\n    tag_3:\n      tag_6\n      tag_7\n      jump\t// in\n    tag_6:\n      mload(0x40)\n      tag_8\n      swap2\n      swap1\n      tag_9\n      jump\t// in\n    tag_8:\n      mload(0x40)\n      dup1\n      swap2\n      sub\n      swap1\n      return\n        /* \"monad dashboard/DailyQuote.sol\":158:180  uint256 public lastSet */\n    tag_4:\n      tag_10\n      tag_11\n      jump\t// in\n    tag_10:\n      mload(0x40)\n      tag_12\n      swap2\n      swap1\n      tag_13\n      jump\t// in\n    tag_12:\n      mload(0x40)\n      dup1\n      swap2\n      sub\n      swap1\n      return\n        /* \"monad dashboard/DailyQuote.sol\":187:379  function setQuote(string calldata newQuote) external {... */\n    tag_5:\n      tag_14\n      0x04\n      dup1\n      calldatasize\n      sub\n      dup2\n      add\n      swap1\n      tag_15\n      swap2\n      swap1\n      tag_16\n      jump\t// in\n    tag_15:\n      tag_17\n      jump\t// in\n    tag_14:\n      stop\n        /* \"monad dashboard/DailyQuote.sol\":132:151  string public quote */\n    tag_7:\n      0x00\n      dup1\n      sload\n      tag_18\n      swap1\n      tag_19\n      jump\t// in\n    tag_18:\n      dup1\n      0x1f\n      add\n      0x20\n      dup1\n      swap2\n      div\n      mul\n      0x20\n      add\n      mload(0x40)\n      swap1\n      dup2\n      add\n      0x40\n      mstore\n      dup1\n      swap3\n      swap2\n      swap1\n      dup2\n      dup2\n      mstore\n      0x20\n      add\n      dup3\n      dup1\n      sload\n      tag_20\n      swap1\n      tag_19\n      jump\t// in\n    tag_20:\n      dup1\n      iszero\n      tag_21\n      jumpi\n      dup1\n      0x1f\n      lt\n      tag_22\n      jumpi\n      0x0100\n      dup1\n      dup4\n      sload\n      div\n      mul\n      dup4\n      mstore\n      swap2\n      0x20\n      add\n      swap2\n      jump(tag_21)\n    tag_22:\n      dup3\n      add\n      swap2\n      swap1\n      0x00\n      mstore\n      keccak256(0x00, 0x20)\n      swap1\n    tag_23:\n      dup2\n      sload\n      dup2\n      mstore\n      swap1\n      0x01\n      add\n      swap1\n      0x20\n      add\n      dup1\n      dup4\n      gt\n      tag_23\n      jumpi\n      dup3\n      swap1\n      sub\n      0x1f\n      and\n      dup3\n      add\n      swap2\n    tag_21:\n      pop\n      pop\n      pop\n      pop\n      pop\n      dup2\n      jump\t// out\n        /* \"monad dashboard/DailyQuote.sol\":158:180  uint256 public lastSet */\n    tag_11:\n      sload(0x01)\n      dup2\n      jump\t// out\n        /* \"monad dashboard/DailyQuote.sol\":187:379  function setQuote(string calldata newQuote) external {... */\n    tag_17:\n        /* \"monad dashboard/DailyQuote.sol\":287:293  1 days */\n      0x015180\n        /* \"monad dashboard/DailyQuote.sol\":277:284  lastSet */\n      sload(0x01)\n        /* \"monad dashboard/DailyQuote.sol\":277:293  lastSet + 1 days */\n      tag_25\n      swap2\n      swap1\n      tag_26\n      jump\t// in\n    tag_25:\n        /* \"monad dashboard/DailyQuote.sol\":259:274  block.timestamp */\n      timestamp\n        /* \"monad dashboard/DailyQuote.sol\":259:293  block.timestamp > lastSet + 1 days */\n      gt\n        /* \"monad dashboard/DailyQuote.sol\":251:308  require(block.timestamp > lastSet + 1 days, \"Wait a day\") */\n      tag_27\n      jumpi\n      mload(0x40)\n      0x08c379a000000000000000000000000000000000000000000000000000000000\n      dup2\n      mstore\n      0x04\n      add\n      tag_28\n      swap1\n      tag_29\n      jump\t// in\n    tag_28:\n      mload(0x40)\n      dup1\n      swap2\n      sub\n      swap1\n      revert\n    tag_27:\n        /* \"monad dashboard/DailyQuote.sol\":327:335  newQuote */\n      dup2\n      dup2\n        /* \"monad dashboard/DailyQuote.sol\":319:324  quote */\n      0x00\n        /* \"monad dashboard/DailyQuote.sol\":319:335  quote = newQuote */\n      swap2\n      dup3\n      tag_30\n      swap3\n      swap2\n      swap1\n      tag_31\n      jump\t// in\n    tag_30:\n      pop\n        /* \"monad dashboard/DailyQuote.sol\":356:371  block.timestamp */\n      timestamp\n        /* \"monad dashboard/DailyQuote.sol\":346:353  lastSet */\n      0x01\n        /* \"monad dashboard/DailyQuote.sol\":346:371  lastSet = block.timestamp */\n      dup2\n      swap1\n      sstore\n      pop\n        /* \"monad dashboard/DailyQuote.sol\":187:379  function setQuote(string calldata newQuote) external {... */\n      pop\n      pop\n      jump\t// out\n        /* \"#utility.yul\":7:106   */\n    tag_32:\n        /* \"#utility.yul\":59:65   */\n      0x00\n        /* \"#utility.yul\":93:98   */\n      dup2\n        /* \"#utility.yul\":87:99   */\n      mload\n        /* \"#utility.yul\":77:99   */\n      swap1\n      pop\n        /* \"#utility.yul\":7:106   */\n      swap2\n      swap1\n      pop\n      jump\t// out\n        /* \"#utility.yul\":112:281   */\n    tag_33:\n        /* \"#utility.yul\":196:207   */\n      0x00\n        /* \"#utility.yul\":230:236   */\n      dup3\n        /* \"#utility.yul\":225:228   */\n      dup3\n        /* \"#utility.yul\":218:237   */\n      mstore\n        /* \"#utility.yul\":270:274   */\n      0x20\n        /* \"#utility.yul\":265:268   */\n      dup3\n        /* \"#utility.yul\":261:275   */\n      add\n        /* \"#utility.yul\":246:275   */\n      swap1\n      pop\n        /* \"#utility.yul\":112:281   */\n      swap3\n      swap2\n      pop\n      pop\n      jump\t// out\n        /* \"#utility.yul\":287:533   */\n    tag_34:\n        /* \"#utility.yul\":368:369   */\n      0x00\n        /* \"#utility.yul\":378:491   */\n    tag_71:\n        /* \"#utility.yul\":392:398   */\n      dup4\n        /* \"#utility.yul\":389:390   */\n      dup2\n        /* \"#utility.yul\":386:399   */\n      lt\n        /* \"#utility.yul\":378:491   */\n      iszero\n      tag_73\n      jumpi\n        /* \"#utility.yul\":477:478   */\n      dup1\n        /* \"#utility.yul\":472:475   */\n      dup3\n        /* \"#utility.yul\":468:479   */\n      add\n        /* \"#utility.yul\":462:480   */\n      mload\n        /* \"#utility.yul\":458:459   */\n      dup2\n        /* \"#utility.yul\":453:456   */\n      dup5\n        /* \"#utility.yul\":449:460   */\n      add\n        /* \"#utility.yul\":442:481   */\n      mstore\n        /* \"#utility.yul\":414:416   */\n      0x20\n        /* \"#utility.yul\":411:412   */\n      dup2\n        /* \"#utility.yul\":407:417   */\n      add\n        /* \"#utility.yul\":402:417   */\n      swap1\n      pop\n        /* \"#utility.yul\":378:491   */\n      jump(tag_71)\n    tag_73:\n        /* \"#utility.yul\":525:526   */\n      0x00\n        /* \"#utility.yul\":516:522   */\n      dup5\n        /* \"#utility.yul\":511:514   */\n      dup5\n        /* \"#utility.yul\":507:523   */\n      add\n        /* \"#utility.yul\":500:527   */\n      mstore\n        /* \"#utility.yul\":349:533   */\n      pop\n        /* \"#utility.yul\":287:533   */\n      pop\n      pop\n      pop\n      jump\t// out\n        /* \"#utility.yul\":539:641   */\n    tag_35:\n        /* \"#utility.yul\":580:586   */\n      0x00\n        /* \"#utility.yul\":631:633   */\n      0x1f\n        /* \"#utility.yul\":627:634   */\n      not\n        /* \"#utility.yul\":622:624   */\n      0x1f\n        /* \"#utility.yul\":615:620   */\n      dup4\n        /* \"#utility.yul\":611:625   */\n      add\n        /* \"#utility.yul\":607:635   */\n      and\n        /* \"#utility.yul\":597:635   */\n      swap1\n      pop\n        /* \"#utility.yul\":539:641   */\n      swap2\n      swap1\n      pop\n      jump\t// out\n        /* \"#utility.yul\":647:1024   */\n    tag_36:\n        /* \"#utility.yul\":735:738   */\n      0x00\n        /* \"#utility.yul\":763:802   */\n      tag_76\n        /* \"#utility.yul\":796:801   */\n      dup3\n        /* \"#utility.yul\":763:802   */\n      tag_32\n      jump\t// in\n    tag_76:\n        /* \"#utility.yul\":818:889   */\n      tag_77\n        /* \"#utility.yul\":882:888   */\n      dup2\n        /* \"#utility.yul\":877:880   */\n      dup6\n        /* \"#utility.yul\":818:889   */\n      tag_33\n      jump\t// in\n    tag_77:\n        /* \"#utility.yul\":811:889   */\n      swap4\n      pop\n        /* \"#utility.yul\":898:963   */\n      tag_78\n        /* \"#utility.yul\":956:962   */\n      dup2\n        /* \"#utility.yul\":951:954   */\n      dup6\n        /* \"#utility.yul\":944:948   */\n      0x20\n        /* \"#utility.yul\":937:942   */\n      dup7\n        /* \"#utility.yul\":933:949   */\n      add\n        /* \"#utility.yul\":898:963   */\n      tag_34\n      jump\t// in\n    tag_78:\n        /* \"#utility.yul\":988:1017   */\n      tag_79\n        /* \"#utility.yul\":1010:1016   */\n      dup2\n        /* \"#utility.yul\":988:1017   */\n      tag_35\n      jump\t// in\n    tag_79:\n        /* \"#utility.yul\":983:986   */\n      dup5\n        /* \"#utility.yul\":979:1018   */\n      add\n        /* \"#utility.yul\":972:1018   */\n      swap2\n      pop\n        /* \"#utility.yul\":739:1024   */\n      pop\n        /* \"#utility.yul\":647:1024   */\n      swap3\n      swap2\n      pop\n      pop\n      jump\t// out\n        /* \"#utility.yul\":1030:1343   */\n    tag_9:\n        /* \"#utility.yul\":1143:1147   */\n      0x00\n        /* \"#utility.yul\":1181:1183   */\n      0x20\n        /* \"#utility.yul\":1170:1179   */\n      dup3\n        /* \"#utility.yul\":1166:1184   */\n      add\n        /* \"#utility.yul\":1158:1184   */\n      swap1\n      pop\n        /* \"#utility.yul\":1230:1239   */\n      dup2\n        /* \"#utility.yul\":1224:1228   */\n      dup2\n        /* \"#utility.yul\":1220:1240   */\n      sub\n        /* \"#utility.yul\":1216:1217   */\n      0x00\n        /* \"#utility.yul\":1205:1214   */\n      dup4\n        /* \"#utility.yul\":1201:1218   */\n      add\n        /* \"#utility.yul\":1194:1241   */\n      mstore\n        /* \"#utility.yul\":1258:1336   */\n      tag_81\n        /* \"#utility.yul\":1331:1335   */\n      dup2\n        /* \"#utility.yul\":1322:1328   */\n      dup5\n        /* \"#utility.yul\":1258:1336   */\n      tag_36\n      jump\t// in\n    tag_81:\n        /* \"#utility.yul\":1250:1336   */\n      swap1\n      pop\n        /* \"#utility.yul\":1030:1343   */\n      swap3\n      swap2\n      pop\n      pop\n      jump\t// out\n        /* \"#utility.yul\":1349:1426   */\n    tag_37:\n        /* \"#utility.yul\":1386:1393   */\n      0x00\n        /* \"#utility.yul\":1415:1420   */\n      dup2\n        /* \"#utility.yul\":1404:1420   */\n      swap1\n      pop\n        /* \"#utility.yul\":1349:1426   */\n      swap2\n      swap1\n      pop\n      jump\t// out\n        /* \"#utility.yul\":1432:1550   */\n    tag_38:\n        /* \"#utility.yul\":1519:1543   */\n      tag_84\n        /* \"#utility.yul\":1537:1542   */\n      dup2\n        /* \"#utility.yul\":1519:1543   */\n      tag_37\n      jump\t// in\n    tag_84:\n        /* \"#utility.yul\":1514:1517   */\n      dup3\n        /* \"#utility.yul\":1507:1544   */\n      mstore\n        /* \"#utility.yul\":1432:1550   */\n      pop\n      pop\n      jump\t// out\n        /* \"#utility.yul\":1556:1778   */\n    tag_13:\n        /* \"#utility.yul\":1649:1653   */\n      0x00\n        /* \"#utility.yul\":1687:1689   */\n      0x20\n        /* \"#utility.yul\":1676:1685   */\n      dup3\n        /* \"#utility.yul\":1672:1690   */\n      add\n        /* \"#utility.yul\":1664:1690   */\n      swap1\n      pop\n        /* \"#utility.yul\":1700:1771   */\n      tag_86\n        /* \"#utility.yul\":1768:1769   */\n      0x00\n        /* \"#utility.yul\":1757:1766   */\n      dup4\n        /* \"#utility.yul\":1753:1770   */\n      add\n        /* \"#utility.yul\":1744:1750   */\n      dup5\n        /* \"#utility.yul\":1700:1771   */\n      tag_38\n      jump\t// in\n    tag_86:\n        /* \"#utility.yul\":1556:1778   */\n      swap3\n      swap2\n      pop\n      pop\n      jump\t// out\n        /* \"#utility.yul\":1865:1982   */\n    tag_40:\n        /* \"#utility.yul\":1974:1975   */\n      0x00\n        /* \"#utility.yul\":1971:1972   */\n      dup1\n        /* \"#utility.yul\":1964:1976   */\n      revert\n        /* \"#utility.yul\":1988:2105   */\n    tag_41:\n        /* \"#utility.yul\":2097:2098   */\n      0x00\n        /* \"#utility.yul\":2094:2095   */\n      dup1\n        /* \"#utility.yul\":2087:2099   */\n      revert\n        /* \"#utility.yul\":2111:2228   */\n    tag_42:\n        /* \"#utility.yul\":2220:2221   */\n      0x00\n        /* \"#utility.yul\":2217:2218   */\n      dup1\n        /* \"#utility.yul\":2210:2222   */\n      revert\n        /* \"#utility.yul\":2234:2351   */\n    tag_43:\n        /* \"#utility.yul\":2343:2344   */\n      0x00\n        /* \"#utility.yul\":2340:2341   */\n      dup1\n        /* \"#utility.yul\":2333:2345   */\n      revert\n        /* \"#utility.yul\":2357:2474   */\n    tag_44:\n        /* \"#utility.yul\":2466:2467   */\n      0x00\n        /* \"#utility.yul\":2463:2464   */\n      dup1\n        /* \"#utility.yul\":2456:2468   */\n      revert\n        /* \"#utility.yul\":2494:3047   */\n    tag_45:\n        /* \"#utility.yul\":2552:2560   */\n      0x00\n        /* \"#utility.yul\":2562:2568   */\n      dup1\n        /* \"#utility.yul\":2612:2615   */\n      dup4\n        /* \"#utility.yul\":2605:2609   */\n      0x1f\n        /* \"#utility.yul\":2597:2603   */\n      dup5\n        /* \"#utility.yul\":2593:2610   */\n      add\n        /* \"#utility.yul\":2589:2616   */\n      slt\n        /* \"#utility.yul\":2579:2701   */\n      tag_94\n      jumpi\n        /* \"#utility.yul\":2620:2699   */\n      tag_95\n      tag_42\n      jump\t// in\n    tag_95:\n        /* \"#utility.yul\":2579:2701   */\n    tag_94:\n        /* \"#utility.yul\":2733:2739   */\n      dup3\n        /* \"#utility.yul\":2720:2740   */\n      calldataload\n        /* \"#utility.yul\":2710:2740   */\n      swap1\n      pop\n        /* \"#utility.yul\":2763:2781   */\n      0xffffffffffffffff\n        /* \"#utility.yul\":2755:2761   */\n      dup2\n        /* \"#utility.yul\":2752:2782   */\n      gt\n        /* \"#utility.yul\":2749:2866   */\n      iszero\n      tag_96\n      jumpi\n        /* \"#utility.yul\":2785:2864   */\n      tag_97\n      tag_43\n      jump\t// in\n    tag_97:\n        /* \"#utility.yul\":2749:2866   */\n    tag_96:\n        /* \"#utility.yul\":2899:2903   */\n      0x20\n        /* \"#utility.yul\":2891:2897   */\n      dup4\n        /* \"#utility.yul\":2887:2904   */\n      add\n        /* \"#utility.yul\":2875:2904   */\n      swap2\n      pop\n        /* \"#utility.yul\":2953:2956   */\n      dup4\n        /* \"#utility.yul\":2945:2949   */\n      0x01\n        /* \"#utility.yul\":2937:2943   */\n      dup3\n        /* \"#utility.yul\":2933:2950   */\n      mul\n        /* \"#utility.yul\":2923:2931   */\n      dup4\n        /* \"#utility.yul\":2919:2951   */\n      add\n        /* \"#utility.yul\":2916:2957   */\n      gt\n        /* \"#utility.yul\":2913:3041   */\n      iszero\n      tag_98\n      jumpi\n        /* \"#utility.yul\":2960:3039   */\n      tag_99\n      tag_44\n      jump\t// in\n    tag_99:\n        /* \"#utility.yul\":2913:3041   */\n    tag_98:\n        /* \"#utility.yul\":2494:3047   */\n      swap3\n      pop\n      swap3\n      swap1\n      pop\n      jump\t// out\n        /* \"#utility.yul\":3053:3582   */\n    tag_16:\n        /* \"#utility.yul\":3124:3130   */\n      0x00\n        /* \"#utility.yul\":3132:3138   */\n      dup1\n        /* \"#utility.yul\":3181:3183   */\n      0x20\n        /* \"#utility.yul\":3169:3178   */\n      dup4\n        /* \"#utility.yul\":3160:3167   */\n      dup6\n        /* \"#utility.yul\":3156:3179   */\n      sub\n        /* \"#utility.yul\":3152:3184   */\n      slt\n        /* \"#utility.yul\":3149:3268   */\n      iszero\n      tag_101\n      jumpi\n        /* \"#utility.yul\":3187:3266   */\n      tag_102\n      tag_40\n      jump\t// in\n    tag_102:\n        /* \"#utility.yul\":3149:3268   */\n    tag_101:\n        /* \"#utility.yul\":3335:3336   */\n      0x00\n        /* \"#utility.yul\":3324:3333   */\n      dup4\n        /* \"#utility.yul\":3320:3337   */\n      add\n        /* \"#utility.yul\":3307:3338   */\n      calldataload\n        /* \"#utility.yul\":3365:3383   */\n      0xffffffffffffffff\n        /* \"#utility.yul\":3357:3363   */\n      dup2\n        /* \"#utility.yul\":3354:3384   */\n      gt\n        /* \"#utility.yul\":3351:3468   */\n      iszero\n      tag_103\n      jumpi\n        /* \"#utility.yul\":3387:3466   */\n      tag_104\n      tag_41\n      jump\t// in\n    tag_104:\n        /* \"#utility.yul\":3351:3468   */\n    tag_103:\n        /* \"#utility.yul\":3500:3565   */\n      tag_105\n        /* \"#utility.yul\":3557:3564   */\n      dup6\n        /* \"#utility.yul\":3548:3554   */\n      dup3\n        /* \"#utility.yul\":3537:3546   */\n      dup7\n        /* \"#utility.yul\":3533:3555   */\n      add\n        /* \"#utility.yul\":3500:3565   */\n      tag_45\n      jump\t// in\n    tag_105:\n        /* \"#utility.yul\":3482:3565   */\n      swap3\n      pop\n      swap3\n      pop\n        /* \"#utility.yul\":3278:3575   */\n      pop\n        /* \"#utility.yul\":3053:3582   */\n      swap3\n      pop\n      swap3\n      swap1\n      pop\n      jump\t// out\n        /* \"#utility.yul\":3588:3768   */\n    tag_46:\n        /* \"#utility.yul\":3636:3713   */\n      0x4e487b7100000000000000000000000000000000000000000000000000000000\n        /* \"#utility.yul\":3633:3634   */\n      0x00\n        /* \"#utility.yul\":3626:3714   */\n      mstore\n        /* \"#utility.yul\":3733:3737   */\n      0x22\n        /* \"#utility.yul\":3730:3731   */\n      0x04\n        /* \"#utility.yul\":3723:3738   */\n      mstore\n        /* \"#utility.yul\":3757:3761   */\n      0x24\n        /* \"#utility.yul\":3754:3755   */\n      0x00\n        /* \"#utility.yul\":3747:3762   */\n      revert\n        /* \"#utility.yul\":3774:4094   */\n    tag_19:\n        /* \"#utility.yul\":3818:3824   */\n      0x00\n        /* \"#utility.yul\":3855:3856   */\n      0x02\n        /* \"#utility.yul\":3849:3853   */\n      dup3\n        /* \"#utility.yul\":3845:3857   */\n      div\n        /* \"#utility.yul\":3835:3857   */\n      swap1\n      pop\n        /* \"#utility.yul\":3902:3903   */\n      0x01\n        /* \"#utility.yul\":3896:3900   */\n      dup3\n        /* \"#utility.yul\":3892:3904   */\n      and\n        /* \"#utility.yul\":3923:3941   */\n      dup1\n        /* \"#utility.yul\":3913:3994   */\n      tag_108\n      jumpi\n        /* \"#utility.yul\":3979:3983   */\n      0x7f\n        /* \"#utility.yul\":3971:3977   */\n      dup3\n        /* \"#utility.yul\":3967:3984   */\n      and\n        /* \"#utility.yul\":3957:3984   */\n      swap2\n      pop\n        /* \"#utility.yul\":3913:3994   */\n    tag_108:\n        /* \"#utility.yul\":4041:4043   */\n      0x20\n        /* \"#utility.yul\":4033:4039   */\n      dup3\n        /* \"#utility.yul\":4030:4044   */\n      lt\n        /* \"#utility.yul\":4010:4028   */\n      dup2\n        /* \"#utility.yul\":4007:4045   */\n      sub\n        /* \"#utility.yul\":4004:4088   */\n      tag_109\n      jumpi\n        /* \"#utility.yul\":4060:4078   */\n      tag_110\n      tag_46\n      jump\t// in\n    tag_110:\n        /* \"#utility.yul\":4004:4088   */\n    tag_109:\n        /* \"#utility.yul\":3825:4094   */\n      pop\n        /* \"#utility.yul\":3774:4094   */\n      swap2\n      swap1\n      pop\n      jump\t// out\n        /* \"#utility.yul\":4100:4280   */\n    tag_47:\n        /* \"#utility.yul\":4148:4225   */\n      0x4e487b7100000000000000000000000000000000000000000000000000000000\n        /* \"#utility.yul\":4145:4146   */\n      0x00\n        /* \"#utility.yul\":4138:4226   */\n      mstore\n        /* \"#utility.yul\":4245:4249   */\n      0x11\n        /* \"#utility.yul\":4242:4243   */\n      0x04\n        /* \"#utility.yul\":4235:4250   */\n      mstore\n        /* \"#utility.yul\":4269:4273   */\n      0x24\n        /* \"#utility.yul\":4266:4267   */\n      0x00\n        /* \"#utility.yul\":4259:4274   */\n      revert\n        /* \"#utility.yul\":4286:4477   */\n    tag_26:\n        /* \"#utility.yul\":4326:4329   */\n      0x00\n        /* \"#utility.yul\":4345:4365   */\n      tag_113\n        /* \"#utility.yul\":4363:4364   */\n      dup3\n        /* \"#utility.yul\":4345:4365   */\n      tag_37\n      jump\t// in\n    tag_113:\n        /* \"#utility.yul\":4340:4365   */\n      swap2\n      pop\n        /* \"#utility.yul\":4379:4399   */\n      tag_114\n        /* \"#utility.yul\":4397:4398   */\n      dup4\n        /* \"#utility.yul\":4379:4399   */\n      tag_37\n      jump\t// in\n    tag_114:\n        /* \"#utility.yul\":4374:4399   */\n      swap3\n      pop\n        /* \"#utility.yul\":4422:4423   */\n      dup3\n        /* \"#utility.yul\":4419:4420   */\n      dup3\n        /* \"#utility.yul\":4415:4424   */\n      add\n        /* \"#utility.yul\":4408:4424   */\n      swap1\n      pop\n        /* \"#utility.yul\":4443:4446   */\n      dup1\n        /* \"#utility.yul\":4440:4441   */\n      dup3\n        /* \"#utility.yul\":4437:4447   */\n      gt\n        /* \"#utility.yul\":4434:4470   */\n      iszero\n      tag_115\n      jumpi\n        /* \"#utility.yul\":4450:4468   */\n      tag_116\n      tag_47\n      jump\t// in\n    tag_116:\n        /* \"#utility.yul\":4434:4470   */\n    tag_115:\n        /* \"#utility.yul\":4286:4477   */\n      swap3\n      swap2\n      pop\n      pop\n      jump\t// out\n        /* \"#utility.yul\":4483:4643   */\n    tag_48:\n        /* \"#utility.yul\":4623:4635   */\n      0x5761697420612064617900000000000000000000000000000000000000000000\n        /* \"#utility.yul\":4619:4620   */\n      0x00\n        /* \"#utility.yul\":4611:4617   */\n      dup3\n        /* \"#utility.yul\":4607:4621   */\n      add\n        /* \"#utility.yul\":4600:4636   */\n      mstore\n        /* \"#utility.yul\":4483:4643   */\n      pop\n      jump\t// out\n        /* \"#utility.yul\":4649:5015   */\n    tag_49:\n        /* \"#utility.yul\":4791:4794   */\n      0x00\n        /* \"#utility.yul\":4812:4879   */\n      tag_119\n        /* \"#utility.yul\":4876:4878   */\n      0x0a\n        /* \"#utility.yul\":4871:4874   */\n      dup4\n        /* \"#utility.yul\":4812:4879   */\n      tag_33\n      jump\t// in\n    tag_119:\n        /* \"#utility.yul\":4805:4879   */\n      swap2\n      pop\n        /* \"#utility.yul\":4888:4981   */\n      tag_120\n        /* \"#utility.yul\":4977:4980   */\n      dup3\n        /* \"#utility.yul\":4888:4981   */\n      tag_48\n      jump\t// in\n    tag_120:\n        /* \"#utility.yul\":5006:5008   */\n      0x20\n        /* \"#utility.yul\":5001:5004   */\n      dup3\n        /* \"#utility.yul\":4997:5009   */\n      add\n        /* \"#utility.yul\":4990:5009   */\n      swap1\n      pop\n        /* \"#utility.yul\":4649:5015   */\n      swap2\n      swap1\n      pop\n      jump\t// out\n        /* \"#utility.yul\":5021:5440   */\n    tag_29:\n        /* \"#utility.yul\":5187:5191   */\n      0x00\n        /* \"#utility.yul\":5225:5227   */\n      0x20\n        /* \"#utility.yul\":5214:5223   */\n      dup3\n        /* \"#utility.yul\":5210:5228   */\n      add\n        /* \"#utility.yul\":5202:5228   */\n      swap1\n      pop\n        /* \"#utility.yul\":5274:5283   */\n      dup2\n        /* \"#utility.yul\":5268:5272   */\n      dup2\n        /* \"#utility.yul\":5264:5284   */\n      sub\n        /* \"#utility.yul\":5260:5261   */\n      0x00\n        /* \"#utility.yul\":5249:5258   */\n      dup4\n        /* \"#utility.yul\":5245:5262   */\n      add\n        /* \"#utility.yul\":5238:5285   */\n      mstore\n        /* \"#utility.yul\":5302:5433   */\n      tag_122\n        /* \"#utility.yul\":5428:5432   */\n      dup2\n        /* \"#utility.yul\":5302:5433   */\n      tag_49\n      jump\t// in\n    tag_122:\n        /* \"#utility.yul\":5294:5433   */\n      swap1\n      pop\n        /* \"#utility.yul\":5021:5440   */\n      swap2\n      swap1\n      pop\n      jump\t// out\n        /* \"#utility.yul\":5446:5543   */\n    tag_50:\n        /* \"#utility.yul\":5505:5511   */\n      0x00\n        /* \"#utility.yul\":5533:5536   */\n      dup3\n        /* \"#utility.yul\":5523:5536   */\n      swap1\n      pop\n        /* \"#utility.yul\":5446:5543   */\n      swap3\n      swap2\n      pop\n      pop\n      jump\t// out\n        /* \"#utility.yul\":5549:5729   */\n    tag_51:\n        /* \"#utility.yul\":5597:5674   */\n      0x4e487b7100000000000000000000000000000000000000000000000000000000\n        /* \"#utility.yul\":5594:5595   */\n      0x00\n        /* \"#utility.yul\":5587:5675   */\n      mstore\n        /* \"#utility.yul\":5694:5698   */\n      0x41\n        /* \"#utility.yul\":5691:5692   */\n      0x04\n        /* \"#utility.yul\":5684:5699   */\n      mstore\n        /* \"#utility.yul\":5718:5722   */\n      0x24\n        /* \"#utility.yul\":5715:5716   */\n      0x00\n        /* \"#utility.yul\":5708:5723   */\n      revert\n        /* \"#utility.yul\":5735:5876   */\n    tag_52:\n        /* \"#utility.yul\":5784:5788   */\n      0x00\n        /* \"#utility.yul\":5807:5810   */\n      dup2\n        /* \"#utility.yul\":5799:5810   */\n      swap1\n      pop\n        /* \"#utility.yul\":5830:5833   */\n      dup2\n        /* \"#utility.yul\":5827:5828   */\n      0x00\n        /* \"#utility.yul\":5820:5834   */\n      mstore\n        /* \"#utility.yul\":5864:5868   */\n      0x20\n        /* \"#utility.yul\":5861:5862   */\n      0x00\n        /* \"#utility.yul\":5851:5869   */\n      keccak256\n        /* \"#utility.yul\":5843:5869   */\n      swap1\n      pop\n        /* \"#utility.yul\":5735:5876   */\n      swap2\n      swap1\n      pop\n      jump\t// out\n        /* \"#utility.yul\":5882:5975   */\n    tag_53:\n        /* \"#utility.yul\":5919:5925   */\n      0x00\n        /* \"#utility.yul\":5966:5968   */\n      0x20\n        /* \"#utility.yul\":5961:5963   */\n      0x1f\n        /* \"#utility.yul\":5954:5959   */\n      dup4\n        /* \"#utility.yul\":5950:5964   */\n      add\n        /* \"#utility.yul\":5946:5969   */\n      div\n        /* \"#utility.yul\":5936:5969   */\n      swap1\n      pop\n        /* \"#utility.yul\":5882:5975   */\n      swap2\n      swap1\n      pop\n      jump\t// out\n        /* \"#utility.yul\":5981:6088   */\n    tag_54:\n        /* \"#utility.yul\":6025:6033   */\n      0x00\n        /* \"#utility.yul\":6075:6080   */\n      dup3\n        /* \"#utility.yul\":6069:6073   */\n      dup3\n        /* \"#utility.yul\":6065:6081   */\n      shl\n        /* \"#utility.yul\":6044:6081   */\n      swap1\n      pop\n        /* \"#utility.yul\":5981:6088   */\n      swap3\n      swap2\n      pop\n      pop\n      jump\t// out\n        /* \"#utility.yul\":6094:6487   */\n    tag_55:\n        /* \"#utility.yul\":6163:6169   */\n      0x00\n        /* \"#utility.yul\":6213:6214   */\n      0x08\n        /* \"#utility.yul\":6201:6211   */\n      dup4\n        /* \"#utility.yul\":6197:6215   */\n      mul\n        /* \"#utility.yul\":6236:6333   */\n      tag_129\n        /* \"#utility.yul\":6266:6332   */\n      0xffffffffffffffffffffffffffffffffffffffffffffffffffffffffffffffff\n        /* \"#utility.yul\":6255:6264   */\n      dup3\n        /* \"#utility.yul\":6236:6333   */\n      tag_54\n      jump\t// in\n    tag_129:\n        /* \"#utility.yul\":6354:6393   */\n      tag_130\n        /* \"#utility.yul\":6384:6392   */\n      dup7\n        /* \"#utility.yul\":6373:6382   */\n      dup4\n        /* \"#utility.yul\":6354:6393   */\n      tag_54\n      jump\t// in\n    tag_130:\n        /* \"#utility.yul\":6342:6393   */\n      swap6\n      pop\n        /* \"#utility.yul\":6426:6430   */\n      dup1\n        /* \"#utility.yul\":6422:6431   */\n      not\n        /* \"#utility.yul\":6415:6420   */\n      dup5\n        /* \"#utility.yul\":6411:6432   */\n      and\n        /* \"#utility.yul\":6402:6432   */\n      swap4\n      pop\n        /* \"#utility.yul\":6475:6479   */\n      dup1\n        /* \"#utility.yul\":6465:6473   */\n      dup7\n        /* \"#utility.yul\":6461:6480   */\n      and\n        /* \"#utility.yul\":6454:6459   */\n      dup5\n        /* \"#utility.yul\":6451:6481   */\n      or\n        /* \"#utility.yul\":6441:6481   */\n      swap3\n      pop\n        /* \"#utility.yul\":6170:6487   */\n      pop\n      pop\n        /* \"#utility.yul\":6094:6487   */\n      swap4\n      swap3\n      pop\n      pop\n      pop\n      jump\t// out\n        /* \"#utility.yul\":6493:6553   */\n    tag_56:\n        /* \"#utility.yul\":6521:6524   */\n      0x00\n        /* \"#utility.yul\":6542:6547   */\n      dup2\n        /* \"#utility.yul\":6535:6547   */\n      swap1\n      pop\n        /* \"#utility.yul\":6493:6553   */\n      swap2\n      swap1\n      pop\n      jump\t// out\n        /* \"#utility.yul\":6559:6701   */\n    tag_57:\n        /* \"#utility.yul\":6609:6618   */\n      0x00\n        /* \"#utility.yul\":6642:6695   */\n      tag_133\n        /* \"#utility.yul\":6660:6694   */\n      tag_134\n        /* \"#utility.yul\":6669:6693   */\n      tag_135\n        /* \"#utility.yul\":6687:6692   */\n      dup5\n        /* \"#utility.yul\":6669:6693   */\n      tag_37\n      jump\t// in\n    tag_135:\n        /* \"#utility.yul\":6660:6694   */\n      tag_56\n      jump\t// in\n    tag_134:\n        /* \"#utility.yul\":6642:6695   */\n      tag_37\n      jump\t// in\n    tag_133:\n        /* \"#utility.yul\":6629:6695   */\n      swap1\n      pop\n        /* \"#utility.yul\":6559:6701   */\n      swap2\n      swap1\n      pop\n      jump\t// out\n        /* \"#utility.yul\":6707:6782   */\n    tag_58:\n        /* \"#utility.yul\":6750:6753   */\n      0x00\n        /* \"#utility.yul\":6771:6776   */\n      dup2\n        /* \"#utility.yul\":6764:6776   */\n      swap1\n      pop\n        /* \"#utility.yul\":6707:6782   */\n      swap2\n      swap1\n      pop\n      jump\t// out\n        /* \"#utility.yul\":6788:7057   */\n    tag_59:\n        /* \"#utility.yul\":6898:6937   */\n      tag_138\n        /* \"#utility.yul\":6929:6936   */\n      dup4\n        /* \"#utility.yul\":6898:6937   */\n      tag_57\n      jump\t// in\n    tag_138:\n        /* \"#utility.yul\":6959:7050   */\n      tag_139\n        /* \"#utility.yul\":7008:7049   */\n      tag_140\n        /* \"#utility.yul\":7032:7048   */\n      dup3\n        /* \"#utility.yul\":7008:7049   */\n      tag_58\n      jump\t// in\n    tag_140:\n        /* \"#utility.yul\":7000:7006   */\n      dup5\n        /* \"#utility.yul\":6993:6997   */\n      dup5\n        /* \"#utility.yul\":6987:6998   */\n      sload\n        /* \"#utility.yul\":6959:7050   */\n      tag_55\n      jump\t// in\n    tag_139:\n        /* \"#utility.yul\":6953:6957   */\n      dup3\n        /* \"#utility.yul\":6946:7051   */\n      sstore\n        /* \"#utility.yul\":6864:7057   */\n      pop\n        /* \"#utility.yul\":6788:7057   */\n      pop\n      pop\n      pop\n      jump\t// out\n        /* \"#utility.yul\":7063:7136   */\n    tag_60:\n        /* \"#utility.yul\":7108:7111   */\n      0x00\n        /* \"#utility.yul\":7063:7136   */\n      swap1\n      jump\t// out\n        /* \"#utility.yul\":7142:7331   */\n    tag_61:\n        /* \"#utility.yul\":7219:7251   */\n      tag_143\n      tag_60\n      jump\t// in\n    tag_143:\n        /* \"#utility.yul\":7260:7325   */\n      tag_144\n        /* \"#utility.yul\":7318:7324   */\n      dup2\n        /* \"#utility.yul\":7310:7316   */\n      dup5\n        /* \"#utility.yul\":7304:7308   */\n      dup5\n        /* \"#utility.yul\":7260:7325   */\n      tag_59\n      jump\t// in\n    tag_144:\n        /* \"#utility.yul\":7195:7331   */\n      pop\n        /* \"#utility.yul\":7142:7331   */\n      pop\n      pop\n      jump\t// out\n        /* \"#utility.yul\":7337:7523   */\n    tag_62:\n        /* \"#utility.yul\":7397:7517   */\n    tag_146:\n        /* \"#utility.yul\":7414:7417   */\n      dup2\n        /* \"#utility.yul\":7407:7412   */\n      dup2\n        /* \"#utility.yul\":7404:7418   */\n      lt\n        /* \"#utility.yul\":7397:7517   */\n      iszero\n      tag_148\n      jumpi\n        /* \"#utility.yul\":7468:7507   */\n      tag_149\n        /* \"#utility.yul\":7505:7506   */\n      0x00\n        /* \"#utility.yul\":7498:7503   */\n      dup3\n        /* \"#utility.yul\":7468:7507   */\n      tag_61\n      jump\t// in\n    tag_149:\n        /* \"#utility.yul\":7441:7442   */\n      0x01\n        /* \"#utility.yul\":7434:7439   */\n      dup2\n        /* \"#utility.yul\":7430:7443   */\n      add\n        /* \"#utility.yul\":7421:7443   */\n      swap1\n      pop\n        /* \"#utility.yul\":7397:7517   */\n      jump(tag_146)\n    tag_148:\n        /* \"#utility.yul\":7337:7523   */\n      pop\n      pop\n      jump\t// out\n        /* \"#utility.yul\":7529:8072   */\n    tag_63:\n        /* \"#utility.yul\":7630:7632   */\n      0x1f\n        /* \"#utility.yul\":7625:7628   */\n      dup3\n        /* \"#utility.yul\":7622:7633   */\n      gt\n        /* \"#utility.yul\":7619:8065   */\n      iszero\n      tag_151\n      jumpi\n        /* \"#utility.yul\":7664:7702   */\n      tag_152\n        /* \"#utility.yul\":7696:7701   */\n      dup2\n        /* \"#utility.yul\":7664:7702   */\n      tag_52\n      jump\t// in\n    tag_152:\n        /* \"#utility.yul\":7748:7777   */\n      tag_153\n        /* \"#utility.yul\":7766:7776   */\n      dup5\n        /* \"#utility.yul\":7748:7777   */\n      tag_53\n      jump\t// in\n    tag_153:\n        /* \"#utility.yul\":7738:7746   */\n      dup2\n        /* \"#utility.yul\":7734:7778   */\n      add\n        /* \"#utility.yul\":7931:7933   */\n      0x20\n        /* \"#utility.yul\":7919:7929   */\n      dup6\n        /* \"#utility.yul\":7916:7934   */\n      lt\n        /* \"#utility.yul\":7913:7962   */\n      iszero\n      tag_154\n      jumpi\n        /* \"#utility.yul\":7952:7960   */\n      dup2\n        /* \"#utility.yul\":7937:7960   */\n      swap1\n      pop\n        /* \"#utility.yul\":7913:7962   */\n    tag_154:\n        /* \"#utility.yul\":7975:8055   */\n      tag_155\n        /* \"#utility.yul\":8031:8053   */\n      tag_156\n        /* \"#utility.yul\":8049:8052   */\n      dup6\n        /* \"#utility.yul\":8031:8053   */\n      tag_53\n      jump\t// in\n    tag_156:\n        /* \"#utility.yul\":8021:8029   */\n      dup4\n        /* \"#utility.yul\":8017:8054   */\n      add\n        /* \"#utility.yul\":8004:8015   */\n      dup3\n        /* \"#utility.yul\":7975:8055   */\n      tag_62\n      jump\t// in\n    tag_155:\n        /* \"#utility.yul\":7634:8065   */\n      pop\n      pop\n        /* \"#utility.yul\":7619:8065   */\n    tag_151:\n        /* \"#utility.yul\":7529:8072   */\n      pop\n      pop\n      pop\n      jump\t// out\n        /* \"#utility.yul\":8078:8195   */\n    tag_64:\n        /* \"#utility.yul\":8132:8140   */\n      0x00\n        /* \"#utility.yul\":8182:8187   */\n      dup3\n        /* \"#utility.yul\":8176:8180   */\n      dup3\n        /* \"#utility.yul\":8172:8188   */\n      shr\n        /* \"#utility.yul\":8151:8188   */\n      swap1\n      pop\n        /* \"#utility.yul\":8078:8195   */\n      swap3\n      swap2\n      pop\n      pop\n      jump\t// out\n        /* \"#utility.yul\":8201:8370   */\n    tag_65:\n        /* \"#utility.yul\":8245:8251   */\n      0x00\n        /* \"#utility.yul\":8278:8329   */\n      tag_159\n        /* \"#utility.yul\":8326:8327   */\n      0x00\n        /* \"#utility.yul\":8322:8328   */\n      not\n        /* \"#utility.yul\":8314:8319   */\n      dup5\n        /* \"#utility.yul\":8311:8312   */\n      0x08\n        /* \"#utility.yul\":8307:8320   */\n      mul\n        /* \"#utility.yul\":8278:8329   */\n      tag_64\n      jump\t// in\n    tag_159:\n        /* \"#utility.yul\":8274:8330   */\n      not\n        /* \"#utility.yul\":8359:8363   */\n      dup1\n        /* \"#utility.yul\":8353:8357   */\n      dup4\n        /* \"#utility.yul\":8349:8364   */\n      and\n        /* \"#utility.yul\":8339:8364   */\n      swap2\n      pop\n        /* \"#utility.yul\":8252:8370   */\n      pop\n        /* \"#utility.yul\":8201:8370   */\n      swap3\n      swap2\n      pop\n      pop\n      jump\t// out\n        /* \"#utility.yul\":8375:8670   */\n    tag_66:\n        /* \"#utility.yul\":8451:8455   */\n      0x00\n        /* \"#utility.yul\":8597:8626   */\n      tag_161\n        /* \"#utility.yul\":8622:8625   */\n      dup4\n        /* \"#utility.yul\":8616:8620   */\n      dup4\n        /* \"#utility.yul\":8597:8626   */\n      tag_65\n      jump\t// in\n    tag_161:\n        /* \"#utility.yul\":8589:8626   */\n      swap2\n      pop\n        /* \"#utility.yul\":8659:8662   */\n      dup3\n        /* \"#utility.yul\":8656:8657   */\n      0x02\n        /* \"#utility.yul\":8652:8663   */\n      mul\n        /* \"#utility.yul\":8646:8650   */\n      dup3\n        /* \"#utility.yul\":8643:8664   */\n      or\n        /* \"#utility.yul\":8635:8664   */\n      swap1\n      pop\n        /* \"#utility.yul\":8375:8670   */\n      swap3\n      swap2\n      pop\n      pop\n      jump\t// out\n        /* \"#utility.yul\":8675:10078   */\n    tag_31:\n        /* \"#utility.yul\":8799:8843   */\n      tag_163\n        /* \"#utility.yul\":8839:8842   */\n      dup4\n        /* \"#utility.yul\":8834:8837   */\n      dup4\n        /* \"#utility.yul\":8799:8843   */\n      tag_50\n      jump\t// in\n    tag_163:\n        /* \"#utility.yul\":8908:8926   */\n      0xffffffffffffffff\n        /* \"#utility.yul\":8900:8906   */\n      dup2\n        /* \"#utility.yul\":8897:8927   */\n      gt\n        /* \"#utility.yul\":8894:8950   */\n      iszero\n      tag_164\n      jumpi\n        /* \"#utility.yul\":8930:8948   */\n      tag_165\n      tag_51\n      jump\t// in\n    tag_165:\n        /* \"#utility.yul\":8894:8950   */\n    tag_164:\n        /* \"#utility.yul\":8974:9012   */\n      tag_166\n        /* \"#utility.yul\":9006:9010   */\n      dup3\n        /* \"#utility.yul\":9000:9011   */\n      sload\n        /* \"#utility.yul\":8974:9012   */\n      tag_19\n      jump\t// in\n    tag_166:\n        /* \"#utility.yul\":9059:9126   */\n      tag_167\n        /* \"#utility.yul\":9119:9125   */\n      dup3\n        /* \"#utility.yul\":9111:9117   */\n      dup3\n        /* \"#utility.yul\":9105:9109   */\n      dup6\n        /* \"#utility.yul\":9059:9126   */\n      tag_63\n      jump\t// in\n    tag_167:\n        /* \"#utility.yul\":9153:9154   */\n      0x00\n        /* \"#utility.yul\":9182:9184   */\n      0x1f\n        /* \"#utility.yul\":9174:9180   */\n      dup4\n        /* \"#utility.yul\":9171:9185   */\n      gt\n        /* \"#utility.yul\":9199:9200   */\n      0x01\n        /* \"#utility.yul\":9194:9826   */\n      dup2\n      eq\n      tag_169\n      jumpi\n        /* \"#utility.yul\":9870:9871   */\n      0x00\n        /* \"#utility.yul\":9887:9893   */\n      dup5\n        /* \"#utility.yul\":9884:9968   */\n      iszero\n      tag_170\n      jumpi\n        /* \"#utility.yul\":9943:9952   */\n      dup3\n        /* \"#utility.yul\":9938:9941   */\n      dup8\n        /* \"#utility.yul\":9934:9953   */\n      add\n        /* \"#utility.yul\":9921:9954   */\n      calldataload\n        /* \"#utility.yul\":9912:9954   */\n      swap1\n      pop\n        /* \"#utility.yul\":9884:9968   */\n    tag_170:\n        /* \"#utility.yul\":9994:10061   */\n      tag_171\n        /* \"#utility.yul\":10054:10060   */\n      dup6\n        /* \"#utility.yul\":10047:10052   */\n      dup3\n        /* \"#utility.yul\":9994:10061   */\n      tag_66\n      jump\t// in\n    tag_171:\n        /* \"#utility.yul\":9988:9992   */\n      dup7\n        /* \"#utility.yul\":9981:10062   */\n      sstore\n        /* \"#utility.yul\":9843:10072   */\n      pop\n        /* \"#utility.yul\":9164:10072   */\n      jump(tag_168)\n        /* \"#utility.yul\":9194:9826   */\n    tag_169:\n        /* \"#utility.yul\":9246:9250   */\n      0x1f\n        /* \"#utility.yul\":9242:9251   */\n      not\n        /* \"#utility.yul\":9234:9240   */\n      dup5\n        /* \"#utility.yul\":9230:9252   */\n      and\n        /* \"#utility.yul\":9280:9317   */\n      tag_172\n        /* \"#utility.yul\":9312:9316   */\n      dup7\n        /* \"#utility.yul\":9280:9317   */\n      tag_52\n      jump\t// in\n    tag_172:\n        /* \"#utility.yul\":9339:9340   */\n      0x00\n        /* \"#utility.yul\":9353:9568   */\n    tag_173:\n        /* \"#utility.yul\":9367:9374   */\n      dup3\n        /* \"#utility.yul\":9364:9365   */\n      dup2\n        /* \"#utility.yul\":9361:9375   */\n      lt\n        /* \"#utility.yul\":9353:9568   */\n      iszero\n      tag_175\n      jumpi\n        /* \"#utility.yul\":9453:9462   */\n      dup5\n        /* \"#utility.yul\":9448:9451   */\n      dup10\n        /* \"#utility.yul\":9444:9463   */\n      add\n        /* \"#utility.yul\":9431:9464   */\n      calldataload\n        /* \"#utility.yul\":9423:9429   */\n      dup3\n        /* \"#utility.yul\":9416:9465   */\n      sstore\n        /* \"#utility.yul\":9504:9505   */\n      0x01\n        /* \"#utility.yul\":9496:9502   */\n      dup3\n        /* \"#utility.yul\":9492:9506   */\n      add\n        /* \"#utility.yul\":9482:9506   */\n      swap2\n      pop\n        /* \"#utility.yul\":9551:9553   */\n      0x20\n        /* \"#utility.yul\":9540:9549   */\n      dup6\n        /* \"#utility.yul\":9536:9554   */\n      add\n        /* \"#utility.yul\":9523:9554   */\n      swap5\n      pop\n        /* \"#utility.yul\":9390:9394   */\n      0x20\n        /* \"#utility.yul\":9387:9388   */\n      dup2\n        /* \"#utility.yul\":9383:9395   */\n      add\n        /* \"#utility.yul\":9378:9395   */\n      swap1\n      pop\n        /* \"#utility.yul\":9353:9568   */\n      jump(tag_173)\n    tag_175:\n        /* \"#utility.yul\":9596:9602   */\n      dup7\n        /* \"#utility.yul\":9587:9594   */\n      dup4\n        /* \"#utility.yul\":9584:9603   */\n      lt\n        /* \"#utility.yul\":9581:9767   */\n      iszero\n      tag_176\n      jumpi\n        /* \"#utility.yul\":9661:9670   */\n      dup5\n        /* \"#utility.yul\":9656:9659   */\n      dup10\n        /* \"#utility.yul\":9652:9671   */\n      add\n        /* \"#utility.yul\":9639:9672   */\n      calldataload\n        /* \"#utility.yul\":9704:9752   */\n      tag_177\n        /* \"#utility.yul\":9746:9750   */\n      0x1f\n        /* \"#utility.yul\":9738:9744   */\n      dup10\n        /* \"#utility.yul\":9734:9751   */\n      and\n        /* \"#utility.yul\":9723:9732   */\n      dup3\n        /* \"#utility.yul\":9704:9752   */\n      tag_65\n      jump\t// in\n    tag_177:\n        /* \"#utility.yul\":9696:9702   */\n      dup4\n        /* \"#utility.yul\":9689:9753   */\n      sstore\n        /* \"#utility.yul\":9604:9767   */\n      pop\n        /* \"#utility.yul\":9581:9767   */\n    tag_176:\n        /* \"#utility.yul\":9813:9814   */\n      0x01\n        /* \"#utility.yul\":9809:9810   */\n      0x02\n        /* \"#utility.yul\":9801:9807   */\n      dup9\n        /* \"#utility.yul\":9797:9811   */\n      mul\n        /* \"#utility.yul\":9793:9815   */\n      add\n        /* \"#utility.yul\":9787:9791   */\n      dup9\n        /* \"#utility.yul\":9780:9816   */\n      sstore\n        /* \"#utility.yul\":9201:9826   */\n      pop\n      pop\n      pop\n        /* \"#utility.yul\":9164:10072   */\n    tag_168:\n      pop\n        /* \"#utility.yul\":8774:10078   */\n      pop\n      pop\n      pop\n        /* \"#utility.yul\":8675:10078   */\n      pop\n      pop\n      pop\n      jump\t// out\n\n    auxdata: 0xa2646970667358221220a4cbb417278dc0bb77471bc098bb0c14705b72ba18cf155597b1bc485b2ddf2064736f6c63430008170033\n}\n",
				"bytecode": {
					"linkReferences": {},
					"object": "608060405234801561000f575f80fd5b506107258061001d5f395ff3fe608060405234801561000f575f80fd5b506004361061003f575f3560e01c8063999b93af14610043578063a03ce27d14610061578063e3de17031461007f575b5f80fd5b61004b61009b565b6040516100589190610224565b60405180910390f35b610069610126565b604051610076919061025c565b60405180910390f35b610099600480360381019061009491906102de565b61012c565b005b5f80546100a790610356565b80601f01602080910402602001604051908101604052809291908181526020018280546100d390610356565b801561011e5780601f106100f55761010080835404028352916020019161011e565b820191905f5260205f20905b81548152906001019060200180831161010157829003601f168201915b505050505081565b60015481565b6201518060015461013d91906103b3565b421161017e576040517f08c379a000000000000000000000000000000000000000000000000000000000815260040161017590610430565b60405180910390fd5b81815f918261018e929190610622565b50426001819055505050565b5f81519050919050565b5f82825260208201905092915050565b5f5b838110156101d15780820151818401526020810190506101b6565b5f8484015250505050565b5f601f19601f8301169050919050565b5f6101f68261019a565b61020081856101a4565b93506102108185602086016101b4565b610219816101dc565b840191505092915050565b5f6020820190508181035f83015261023c81846101ec565b905092915050565b5f819050919050565b61025681610244565b82525050565b5f60208201905061026f5f83018461024d565b92915050565b5f80fd5b5f80fd5b5f80fd5b5f80fd5b5f80fd5b5f8083601f84011261029e5761029d61027d565b5b8235905067ffffffffffffffff8111156102bb576102ba610281565b5b6020830191508360018202830111156102d7576102d6610285565b5b9250929050565b5f80602083850312156102f4576102f3610275565b5b5f83013567ffffffffffffffff81111561031157610310610279565b5b61031d85828601610289565b92509250509250929050565b7f4e487b71000000000000000000000000000000000000000000000000000000005f52602260045260245ffd5b5f600282049050600182168061036d57607f821691505b6020821081036103805761037f610329565b5b50919050565b7f4e487b71000000000000000000000000000000000000000000000000000000005f52601160045260245ffd5b5f6103bd82610244565b91506103c883610244565b92508282019050808211156103e0576103df610386565b5b92915050565b7f57616974206120646179000000000000000000000000000000000000000000005f82015250565b5f61041a600a836101a4565b9150610425826103e6565b602082019050919050565b5f6020820190508181035f8301526104478161040e565b9050919050565b5f82905092915050565b7f4e487b71000000000000000000000000000000000000000000000000000000005f52604160045260245ffd5b5f819050815f5260205f209050919050565b5f6020601f8301049050919050565b5f82821b905092915050565b5f600883026104e17fffffffffffffffffffffffffffffffffffffffffffffffffffffffffffffffff826104a6565b6104eb86836104a6565b95508019841693508086168417925050509392505050565b5f819050919050565b5f61052661052161051c84610244565b610503565b610244565b9050919050565b5f819050919050565b61053f8361050c565b61055361054b8261052d565b8484546104b2565b825550505050565b5f90565b61056761055b565b610572818484610536565b505050565b5b818110156105955761058a5f8261055f565b600181019050610578565b5050565b601f8211156105da576105ab81610485565b6105b484610497565b810160208510156105c3578190505b6105d76105cf85610497565b830182610577565b50505b505050565b5f82821c905092915050565b5f6105fa5f19846008026105df565b1980831691505092915050565b5f61061283836105eb565b9150826002028217905092915050565b61062c838361044e565b67ffffffffffffffff81111561064557610644610458565b5b61064f8254610356565b61065a828285610599565b5f601f831160018114610687575f8415610675578287013590505b61067f8582610607565b8655506106e6565b601f19841661069586610485565b5f5b828110156106bc57848901358255600182019150602085019450602081019050610697565b868310156106d957848901356106d5601f8916826105eb565b8355505b6001600288020188555050505b5050505050505056fea2646970667358221220a4cbb417278dc0bb77471bc098bb0c14705b72ba18cf155597b1bc485b2ddf2064736f6c63430008170033",
					"opcodes": "PUSH1 0x80 PUSH1 0x40 MSTORE CALLVALUE DUP1 ISZERO PUSH2 0xF JUMPI PUSH0 DUP1 REVERT JUMPDEST POP PUSH2 0x725 DUP1 PUSH2 0x1D PUSH0 CODECOPY PUSH0 RETURN INVALID PUSH1 0x80 PUSH1 0x40 MSTORE CALLVALUE DUP1 ISZERO PUSH2 0xF JUMPI PUSH0 DUP1 REVERT JUMPDEST POP PUSH1 0x4 CALLDATASIZE LT PUSH2 0x3F JUMPI PUSH0 CALLDATALOAD PUSH1 0xE0 SHR DUP1 PUSH4 0x999B93AF EQ PUSH2 0x43 JUMPI DUP1 PUSH4 0xA03CE27D EQ PUSH2 0x61 JUMPI DUP1 PUSH4 0xE3DE1703 EQ PUSH2 0x7F JUMPI JUMPDEST PUSH0 DUP1 REVERT JUMPDEST PUSH2 0x4B PUSH2 0x9B JUMP JUMPDEST PUSH1 0x40 MLOAD PUSH2 0x58 SWAP2 SWAP1 PUSH2 0x224 JUMP JUMPDEST PUSH1 0x40 MLOAD DUP1 SWAP2 SUB SWAP1 RETURN JUMPDEST PUSH2 0x69 PUSH2 0x126 JUMP JUMPDEST PUSH1 0x40 MLOAD PUSH2 0x76 SWAP2 SWAP1 PUSH2 0x25C JUMP JUMPDEST PUSH1 0x40 MLOAD DUP1 SWAP2 SUB SWAP1 RETURN JUMPDEST PUSH2 0x99 PUSH1 0x4 DUP1 CALLDATASIZE SUB DUP2 ADD SWAP1 PUSH2 0x94 SWAP2 SWAP1 PUSH2 0x2DE JUMP JUMPDEST PUSH2 0x12C JUMP JUMPDEST STOP JUMPDEST PUSH0 DUP1 SLOAD PUSH2 0xA7 SWAP1 PUSH2 0x356 JUMP JUMPDEST DUP1 PUSH1 0x1F ADD PUSH1 0x20 DUP1 SWAP2 DIV MUL PUSH1 0x20 ADD PUSH1 0x40 MLOAD SWAP1 DUP2 ADD PUSH1 0x40 MSTORE DUP1 SWAP3 SWAP2 SWAP1 DUP2 DUP2 MSTORE PUSH1 0x20 ADD DUP3 DUP1 SLOAD PUSH2 0xD3 SWAP1 PUSH2 0x356 JUMP JUMPDEST DUP1 ISZERO PUSH2 0x11E JUMPI DUP1 PUSH1 0x1F LT PUSH2 0xF5 JUMPI PUSH2 0x100 DUP1 DUP4 SLOAD DIV MUL DUP4 MSTORE SWAP2 PUSH1 0x20 ADD SWAP2 PUSH2 0x11E JUMP JUMPDEST DUP3 ADD SWAP2 SWAP1 PUSH0 MSTORE PUSH1 0x20 PUSH0 KECCAK256 SWAP1 JUMPDEST DUP2 SLOAD DUP2 MSTORE SWAP1 PUSH1 0x1 ADD SWAP1 PUSH1 0x20 ADD DUP1 DUP4 GT PUSH2 0x101 JUMPI DUP3 SWAP1 SUB PUSH1 0x1F AND DUP3 ADD SWAP2 JUMPDEST POP POP POP POP POP DUP2 JUMP JUMPDEST PUSH1 0x1 SLOAD DUP2 JUMP JUMPDEST PUSH3 0x15180 PUSH1 0x1 SLOAD PUSH2 0x13D SWAP2 SWAP1 PUSH2 0x3B3 JUMP JUMPDEST TIMESTAMP GT PUSH2 0x17E JUMPI PUSH1 0x40 MLOAD PUSH32 0x8C379A000000000000000000000000000000000000000000000000000000000 DUP2 MSTORE PUSH1 0x4 ADD PUSH2 0x175 SWAP1 PUSH2 0x430 JUMP JUMPDEST PUSH1 0x40 MLOAD DUP1 SWAP2 SUB SWAP1 REVERT JUMPDEST DUP2 DUP2 PUSH0 SWAP2 DUP3 PUSH2 0x18E SWAP3 SWAP2 SWAP1 PUSH2 0x622 JUMP JUMPDEST POP TIMESTAMP PUSH1 0x1 DUP2 SWAP1 SSTORE POP POP POP JUMP JUMPDEST PUSH0 DUP2 MLOAD SWAP1 POP SWAP2 SWAP1 POP JUMP JUMPDEST PUSH0 DUP3 DUP3 MSTORE PUSH1 0x20 DUP3 ADD SWAP1 POP SWAP3 SWAP2 POP POP JUMP JUMPDEST PUSH0 JUMPDEST DUP4 DUP2 LT ISZERO PUSH2 0x1D1 JUMPI DUP1 DUP3 ADD MLOAD DUP2 DUP5 ADD MSTORE PUSH1 0x20 DUP2 ADD SWAP1 POP PUSH2 0x1B6 JUMP JUMPDEST PUSH0 DUP5 DUP5 ADD MSTORE POP POP POP POP JUMP JUMPDEST PUSH0 PUSH1 0x1F NOT PUSH1 0x1F DUP4 ADD AND SWAP1 POP SWAP2 SWAP1 POP JUMP JUMPDEST PUSH0 PUSH2 0x1F6 DUP3 PUSH2 0x19A JUMP JUMPDEST PUSH2 0x200 DUP2 DUP6 PUSH2 0x1A4 JUMP JUMPDEST SWAP4 POP PUSH2 0x210 DUP2 DUP6 PUSH1 0x20 DUP7 ADD PUSH2 0x1B4 JUMP JUMPDEST PUSH2 0x219 DUP2 PUSH2 0x1DC JUMP JUMPDEST DUP5 ADD SWAP2 POP POP SWAP3 SWAP2 POP POP JUMP JUMPDEST PUSH0 PUSH1 0x20 DUP3 ADD SWAP1 POP DUP2 DUP2 SUB PUSH0 DUP4 ADD MSTORE PUSH2 0x23C DUP2 DUP5 PUSH2 0x1EC JUMP JUMPDEST SWAP1 POP SWAP3 SWAP2 POP POP JUMP JUMPDEST PUSH0 DUP2 SWAP1 POP SWAP2 SWAP1 POP JUMP JUMPDEST PUSH2 0x256 DUP2 PUSH2 0x244 JUMP JUMPDEST DUP3 MSTORE POP POP JUMP JUMPDEST PUSH0 PUSH1 0x20 DUP3 ADD SWAP1 POP PUSH2 0x26F PUSH0 DUP4 ADD DUP5 PUSH2 0x24D JUMP JUMPDEST SWAP3 SWAP2 POP POP JUMP JUMPDEST PUSH0 DUP1 REVERT JUMPDEST PUSH0 DUP1 REVERT JUMPDEST PUSH0 DUP1 REVERT JUMPDEST PUSH0 DUP1 REVERT JUMPDEST PUSH0 DUP1 REVERT JUMPDEST PUSH0 DUP1 DUP4 PUSH1 0x1F DUP5 ADD SLT PUSH2 0x29E JUMPI PUSH2 0x29D PUSH2 0x27D JUMP JUMPDEST JUMPDEST DUP3 CALLDATALOAD SWAP1 POP PUSH8 0xFFFFFFFFFFFFFFFF DUP2 GT ISZERO PUSH2 0x2BB JUMPI PUSH2 0x2BA PUSH2 0x281 JUMP JUMPDEST JUMPDEST PUSH1 0x20 DUP4 ADD SWAP2 POP DUP4 PUSH1 0x1 DUP3 MUL DUP4 ADD GT ISZERO PUSH2 0x2D7 JUMPI PUSH2 0x2D6 PUSH2 0x285 JUMP JUMPDEST JUMPDEST SWAP3 POP SWAP3 SWAP1 POP JUMP JUMPDEST PUSH0 DUP1 PUSH1 0x20 DUP4 DUP6 SUB SLT ISZERO PUSH2 0x2F4 JUMPI PUSH2 0x2F3 PUSH2 0x275 JUMP JUMPDEST JUMPDEST PUSH0 DUP4 ADD CALLDATALOAD PUSH8 0xFFFFFFFFFFFFFFFF DUP2 GT ISZERO PUSH2 0x311 JUMPI PUSH2 0x310 PUSH2 0x279 JUMP JUMPDEST JUMPDEST PUSH2 0x31D DUP6 DUP3 DUP7 ADD PUSH2 0x289 JUMP JUMPDEST SWAP3 POP SWAP3 POP POP SWAP3 POP SWAP3 SWAP1 POP JUMP JUMPDEST PUSH32 0x4E487B7100000000000000000000000000000000000000000000000000000000 PUSH0 MSTORE PUSH1 0x22 PUSH1 0x4 MSTORE PUSH1 0x24 PUSH0 REVERT JUMPDEST PUSH0 PUSH1 0x2 DUP3 DIV SWAP1 POP PUSH1 0x1 DUP3 AND DUP1 PUSH2 0x36D JUMPI PUSH1 0x7F DUP3 AND SWAP2 POP JUMPDEST PUSH1 0x20 DUP3 LT DUP2 SUB PUSH2 0x380 JUMPI PUSH2 0x37F PUSH2 0x329 JUMP JUMPDEST JUMPDEST POP SWAP2 SWAP1 POP JUMP JUMPDEST PUSH32 0x4E487B7100000000000000000000000000000000000000000000000000000000 PUSH0 MSTORE PUSH1 0x11 PUSH1 0x4 MSTORE PUSH1 0x24 PUSH0 REVERT JUMPDEST PUSH0 PUSH2 0x3BD DUP3 PUSH2 0x244 JUMP JUMPDEST SWAP2 POP PUSH2 0x3C8 DUP4 PUSH2 0x244 JUMP JUMPDEST SWAP3 POP DUP3 DUP3 ADD SWAP1 POP DUP1 DUP3 GT ISZERO PUSH2 0x3E0 JUMPI PUSH2 0x3DF PUSH2 0x386 JUMP JUMPDEST JUMPDEST SWAP3 SWAP2 POP POP JUMP JUMPDEST PUSH32 0x5761697420612064617900000000000000000000000000000000000000000000 PUSH0 DUP3 ADD MSTORE POP JUMP JUMPDEST PUSH0 PUSH2 0x41A PUSH1 0xA DUP4 PUSH2 0x1A4 JUMP JUMPDEST SWAP2 POP PUSH2 0x425 DUP3 PUSH2 0x3E6 JUMP JUMPDEST PUSH1 0x20 DUP3 ADD SWAP1 POP SWAP2 SWAP1 POP JUMP JUMPDEST PUSH0 PUSH1 0x20 DUP3 ADD SWAP1 POP DUP2 DUP2 SUB PUSH0 DUP4 ADD MSTORE PUSH2 0x447 DUP2 PUSH2 0x40E JUMP JUMPDEST SWAP1 POP SWAP2 SWAP1 POP JUMP JUMPDEST PUSH0 DUP3 SWAP1 POP SWAP3 SWAP2 POP POP JUMP JUMPDEST PUSH32 0x4E487B7100000000000000000000000000000000000000000000000000000000 PUSH0 MSTORE PUSH1 0x41 PUSH1 0x4 MSTORE PUSH1 0x24 PUSH0 REVERT JUMPDEST PUSH0 DUP2 SWAP1 POP DUP2 PUSH0 MSTORE PUSH1 0x20 PUSH0 KECCAK256 SWAP1 POP SWAP2 SWAP1 POP JUMP JUMPDEST PUSH0 PUSH1 0x20 PUSH1 0x1F DUP4 ADD DIV SWAP1 POP SWAP2 SWAP1 POP JUMP JUMPDEST PUSH0 DUP3 DUP3 SHL SWAP1 POP SWAP3 SWAP2 POP POP JUMP JUMPDEST PUSH0 PUSH1 0x8 DUP4 MUL PUSH2 0x4E1 PUSH32 0xFFFFFFFFFFFFFFFFFFFFFFFFFFFFFFFFFFFFFFFFFFFFFFFFFFFFFFFFFFFFFFFF DUP3 PUSH2 0x4A6 JUMP JUMPDEST PUSH2 0x4EB DUP7 DUP4 PUSH2 0x4A6 JUMP JUMPDEST SWAP6 POP DUP1 NOT DUP5 AND SWAP4 POP DUP1 DUP7 AND DUP5 OR SWAP3 POP POP POP SWAP4 SWAP3 POP POP POP JUMP JUMPDEST PUSH0 DUP2 SWAP1 POP SWAP2 SWAP1 POP JUMP JUMPDEST PUSH0 PUSH2 0x526 PUSH2 0x521 PUSH2 0x51C DUP5 PUSH2 0x244 JUMP JUMPDEST PUSH2 0x503 JUMP JUMPDEST PUSH2 0x244 JUMP JUMPDEST SWAP1 POP SWAP2 SWAP1 POP JUMP JUMPDEST PUSH0 DUP2 SWAP1 POP SWAP2 SWAP1 POP JUMP JUMPDEST PUSH2 0x53F DUP4 PUSH2 0x50C JUMP JUMPDEST PUSH2 0x553 PUSH2 0x54B DUP3 PUSH2 0x52D JUMP JUMPDEST DUP5 DUP5 SLOAD PUSH2 0x4B2 JUMP JUMPDEST DUP3 SSTORE POP POP POP POP JUMP JUMPDEST PUSH0 SWAP1 JUMP JUMPDEST PUSH2 0x567 PUSH2 0x55B JUMP JUMPDEST PUSH2 0x572 DUP2 DUP5 DUP5 PUSH2 0x536 JUMP JUMPDEST POP POP POP JUMP JUMPDEST JUMPDEST DUP2 DUP2 LT ISZERO PUSH2 0x595 JUMPI PUSH2 0x58A PUSH0 DUP3 PUSH2 0x55F JUMP JUMPDEST PUSH1 0x1 DUP2 ADD SWAP1 POP PUSH2 0x578 JUMP JUMPDEST POP POP JUMP JUMPDEST PUSH1 0x1F DUP3 GT ISZERO PUSH2 0x5DA JUMPI PUSH2 0x5AB DUP2 PUSH2 0x485 JUMP JUMPDEST PUSH2 0x5B4 DUP5 PUSH2 0x497 JUMP JUMPDEST DUP2 ADD PUSH1 0x20 DUP6 LT ISZERO PUSH2 0x5C3 JUMPI DUP2 SWAP1 POP JUMPDEST PUSH2 0x5D7 PUSH2 0x5CF DUP6 PUSH2 0x497 JUMP JUMPDEST DUP4 ADD DUP3 PUSH2 0x577 JUMP JUMPDEST POP POP JUMPDEST POP POP POP JUMP JUMPDEST PUSH0 DUP3 DUP3 SHR SWAP1 POP SWAP3 SWAP2 POP POP JUMP JUMPDEST PUSH0 PUSH2 0x5FA PUSH0 NOT DUP5 PUSH1 0x8 MUL PUSH2 0x5DF JUMP JUMPDEST NOT DUP1 DUP4 AND SWAP2 POP POP SWAP3 SWAP2 POP POP JUMP JUMPDEST PUSH0 PUSH2 0x612 DUP4 DUP4 PUSH2 0x5EB JUMP JUMPDEST SWAP2 POP DUP3 PUSH1 0x2 MUL DUP3 OR SWAP1 POP SWAP3 SWAP2 POP POP JUMP JUMPDEST PUSH2 0x62C DUP4 DUP4 PUSH2 0x44E JUMP JUMPDEST PUSH8 0xFFFFFFFFFFFFFFFF DUP2 GT ISZERO PUSH2 0x645 JUMPI PUSH2 0x644 PUSH2 0x458 JUMP JUMPDEST JUMPDEST PUSH2 0x64F DUP3 SLOAD PUSH2 0x356 JUMP JUMPDEST PUSH2 0x65A DUP3 DUP3 DUP6 PUSH2 0x599 JUMP JUMPDEST PUSH0 PUSH1 0x1F DUP4 GT PUSH1 0x1 DUP2 EQ PUSH2 0x687 JUMPI PUSH0 DUP5 ISZERO PUSH2 0x675 JUMPI DUP3 DUP8 ADD CALLDATALOAD SWAP1 POP JUMPDEST PUSH2 0x67F DUP6 DUP3 PUSH2 0x607 JUMP JUMPDEST DUP7 SSTORE POP PUSH2 0x6E6 JUMP JUMPDEST PUSH1 0x1F NOT DUP5 AND PUSH2 0x695 DUP7 PUSH2 0x485 JUMP JUMPDEST PUSH0 JUMPDEST DUP3 DUP2 LT ISZERO PUSH2 0x6BC JUMPI DUP5 DUP10 ADD CALLDATALOAD DUP3 SSTORE PUSH1 0x1 DUP3 ADD SWAP2 POP PUSH1 0x20 DUP6 ADD SWAP5 POP PUSH1 0x20 DUP2 ADD SWAP1 POP PUSH2 0x697 JUMP JUMPDEST DUP7 DUP4 LT ISZERO PUSH2 0x6D9 JUMPI DUP5 DUP10 ADD CALLDATALOAD PUSH2 0x6D5 PUSH1 0x1F DUP10 AND DUP3 PUSH2 0x5EB JUMP JUMPDEST DUP4 SSTORE POP JUMPDEST PUSH1 0x1 PUSH1 0x2 DUP9 MUL ADD DUP9 SSTORE POP POP POP JUMPDEST POP POP POP POP POP POP POP JUMP INVALID LOG2 PUSH5 0x6970667358 0x22 SLT KECCAK256 LOG4 0xCB 0xB4 OR 0x27 DUP14 0xC0 0xBB PUSH24 0x471BC098BB0C14705B72BA18CF155597B1BC485B2DDF2064 PUSH20 0x6F6C634300081700330000000000000000000000 "
				},
				"gasEstimates": {
					"creation": {
						"codeDepositCost": "365800",
						"executionCost": "403",
						"totalCost": "366203"
					},
					"external": {
						"lastSet()": "2425",
						"quote()": "infinite",
						"setQuote(string)": "infinite"
					}
				},
				"methodIdentifiers": {
					"lastSet()": "a03ce27d",
					"quote()": "999b93af",
					"setQuote(string)": "e3de1703"
				}
			},
			"storageLayout": {
				"storage": [
					{
						"astId": 3,
						"contract": "monad dashboard/DailyQuote.sol:DailyQuote",
						"label": "quote",
						"offset": 0,
						"slot": "0",
						"type": "t_string_storage"
					},
					{
						"astId": 5,
						"contract": "monad dashboard/DailyQuote.sol:DailyQuote",
						"label": "lastSet",
						"offset": 0,
						"slot": "1",
						"type": "t_uint256"
					}
				],
				"types": {
					"t_string_storage": {
						"encoding": "bytes",
						"label": "string",
						"numberOfBytes": "32"
					},
					"t_uint256": {
						"encoding": "inplace",
						"label": "uint256",
						"numberOfBytes": "32"
					}
				}
			},
			"userdoc": {
				"kind": "user",
				"methods": {},
				"version": 1
			}
		}
	}
}