{
	"monad dashboard/SocialProfileRegistry.sol": {
		"AnonymousConfessions": {
			"abi": [
				{
					"inputs": [],
					"stateMutability": "nonpayable",
					"type": "constructor"
				},
				{
					"anonymous": false,
					"inputs": [
						{
							"indexed": false,
							"internalType": "string",
							"name": "text",
							"type": "string"
						}
					],
					"name": "NewConfession",
					"type": "event"
				},
				{
					"inputs": [
						{
							"internalType": "uint256",
							"name": "",
							"type": "uint256"
						}
					],
					"name": "confessions",
					"outputs": [
						{
							"internalType": "string",
							"name": "",
							"type": "string"
						}
					],
					"stateMutability": "view",
					"type": "function"
				},
				{
					"inputs": [
						{
							"internalType": "string",
							"name": "_text",
							"type": "string"
						}
					],
					"name": "submit",
					"outputs": [],
					"stateMutability": "nonpayable",
					"type": "function"
				}
			],
			"devdoc": {
				"kind": "dev",
				"methods": {},
				"version": 1
			},
			"evm": {
				"assembly": "    /* \"monad dashboard/SocialProfileRegistry.sol\":2436:2835  contract AnonymousConfessions {... */\n  mstore(0x40, 0x80)\n    /* \"monad dashboard/SocialProfileRegistry.sol\":2548:2698  constructor() {... */\n  callvalue\n  dup1\n  iszero\n  tag_1\n  jumpi\n  0x00\n  dup1\n  revert\ntag_1:\n  pop\n    /* \"monad dashboard/SocialProfileRegistry.sol\":2573:2584  confessions */\n  0x00\n    /* \"monad dashboard/SocialProfileRegistry.sol\":2573:2625  confessions.push(\"I ape memecoins without research\") */\n  dup1\n  0x01\n  dup2\n  sload\n  add\n  dup1\n  dup3\n  sstore\n  dup1\n  swap2\n  pop\n  pop\n  0x01\n  swap1\n  sub\n  swap1\n  0x00\n  mstore\n  keccak256(0x00, 0x20)\n  add\n  0x00\n  mload(0x40)\n  dup1\n  0x40\n  add\n  0x40\n  mstore\n  dup1\n  0x20\n  dup2\n  mstore\n  0x20\n  add\n  0x4920617065206d656d65636f696e7320776974686f7574207265736561726368\n  dup2\n  mstore\n  pop\n  swap1\n  swap2\n  swap1\n  swap2\n  pop\n  swap1\n  dup2\n  tag_5\n  swap2\n  swap1\n  tag_6\n  jump\t// in\ntag_5:\n  pop\n    /* \"monad dashboard/SocialProfileRegistry.sol\":2641:2690  NewConfession(\"I ape memecoins without research\") */\n  0x0618188fc5e17c341b42e794497317c42890794a01d5703262cf2effa10c1550\n  mload(0x40)\n  tag_7\n  swap1\n  tag_8\n  jump\t// in\ntag_7:\n  mload(0x40)\n  dup1\n  swap2\n  sub\n  swap1\n  log1\n    /* \"monad dashboard/SocialProfileRegistry.sol\":2436:2835  contract AnonymousConfessions {... */\n  jump(tag_9)\n    /* \"#utility.yul\":7:106   */\ntag_10:\n    /* \"#utility.yul\":59:65   */\n  0x00\n    /* \"#utility.yul\":93:98   */\n  dup2\n    /* \"#utility.yul\":87:99   */\n  mload\n    /* \"#utility.yul\":77:99   */\n  swap1\n  pop\n    /* \"#utility.yul\":7:106   */\n  swap2\n  swap1\n  pop\n  jump\t// out\n    /* \"#utility.yul\":112:292   */\ntag_11:\n    /* \"#utility.yul\":160:237   */\n  0x4e487b7100000000000000000000000000000000000000000000000000000000\n    /* \"#utility.yul\":157:158   */\n  0x00\n    /* \"#utility.yul\":150:238   */\n  mstore\n    /* \"#utility.yul\":257:261   */\n  0x41\n    /* \"#utility.yul\":254:255   */\n  0x04\n    /* \"#utility.yul\":247:262   */\n  mstore\n    /* \"#utility.yul\":281:285   */\n  0x24\n    /* \"#utility.yul\":278:279   */\n  0x00\n    /* \"#utility.yul\":271:286   */\n  revert\n    /* \"#utility.yul\":298:478   */\ntag_12:\n    /* \"#utility.yul\":346:423   */\n  0x4e487b7100000000000000000000000000000000000000000000000000000000\n    /* \"#utility.yul\":343:344   */\n  0x00\n    /* \"#utility.yul\":336:424   */\n  mstore\n    /* \"#utility.yul\":443:447   */\n  0x22\n    /* \"#utility.yul\":440:441   */\n  0x04\n    /* \"#utility.yul\":433:448   */\n  mstore\n    /* \"#utility.yul\":467:471   */\n  0x24\n    /* \"#utility.yul\":464:465   */\n  0x00\n    /* \"#utility.yul\":457:472   */\n  revert\n    /* \"#utility.yul\":484:804   */\ntag_13:\n    /* \"#utility.yul\":528:534   */\n  0x00\n    /* \"#utility.yul\":565:566   */\n  0x02\n    /* \"#utility.yul\":559:563   */\n  dup3\n    /* \"#utility.yul\":555:567   */\n  div\n    /* \"#utility.yul\":545:567   */\n  swap1\n  pop\n    /* \"#utility.yul\":612:613   */\n  0x01\n    /* \"#utility.yul\":606:610   */\n  dup3\n    /* \"#utility.yul\":602:614   */\n  and\n    /* \"#utility.yul\":633:651   */\n  dup1\n    /* \"#utility.yul\":623:704   */\n  tag_38\n  jumpi\n    /* \"#utility.yul\":689:693   */\n  0x7f\n    /* \"#utility.yul\":681:687   */\n  dup3\n    /* \"#utility.yul\":677:694   */\n  and\n    /* \"#utility.yul\":667:694   */\n  swap2\n  pop\n    /* \"#utility.yul\":623:704   */\ntag_38:\n    /* \"#utility.yul\":751:753   */\n  0x20\n    /* \"#utility.yul\":743:749   */\n  dup3\n    /* \"#utility.yul\":740:754   */\n  lt\n    /* \"#utility.yul\":720:738   */\n  dup2\n    /* \"#utility.yul\":717:755   */\n  sub\n    /* \"#utility.yul\":714:798   */\n  tag_39\n  jumpi\n    /* \"#utility.yul\":770:788   */\n  tag_40\n  tag_12\n  jump\t// in\ntag_40:\n    /* \"#utility.yul\":714:798   */\ntag_39:\n    /* \"#utility.yul\":535:804   */\n  pop\n    /* \"#utility.yul\":484:804   */\n  swap2\n  swap1\n  pop\n  jump\t// out\n    /* \"#utility.yul\":810:951   */\ntag_14:\n    /* \"#utility.yul\":859:863   */\n  0x00\n    /* \"#utility.yul\":882:885   */\n  dup2\n    /* \"#utility.yul\":874:885   */\n  swap1\n  pop\n    /* \"#utility.yul\":905:908   */\n  dup2\n    /* \"#utility.yul\":902:903   */\n  0x00\n    /* \"#utility.yul\":895:909   */\n  mstore\n    /* \"#utility.yul\":939:943   */\n  0x20\n    /* \"#utility.yul\":936:937   */\n  0x00\n    /* \"#utility.yul\":926:944   */\n  keccak256\n    /* \"#utility.yul\":918:944   */\n  swap1\n  pop\n    /* \"#utility.yul\":810:951   */\n  swap2\n  swap1\n  pop\n  jump\t// out\n    /* \"#utility.yul\":957:1050   */\ntag_15:\n    /* \"#utility.yul\":994:1000   */\n  0x00\n    /* \"#utility.yul\":1041:1043   */\n  0x20\n    /* \"#utility.yul\":1036:1038   */\n  0x1f\n    /* \"#utility.yul\":1029:1034   */\n  dup4\n    /* \"#utility.yul\":1025:1039   */\n  add\n    /* \"#utility.yul\":1021:1044   */\n  div\n    /* \"#utility.yul\":1011:1044   */\n  swap1\n  pop\n    /* \"#utility.yul\":957:1050   */\n  swap2\n  swap1\n  pop\n  jump\t// out\n    /* \"#utility.yul\":1056:1163   */\ntag_16:\n    /* \"#utility.yul\":1100:1108   */\n  0x00\n    /* \"#utility.yul\":1150:1155   */\n  dup3\n    /* \"#utility.yul\":1144:1148   */\n  dup3\n    /* \"#utility.yul\":1140:1156   */\n  shl\n    /* \"#utility.yul\":1119:1156   */\n  swap1\n  pop\n    /* \"#utility.yul\":1056:1163   */\n  swap3\n  swap2\n  pop\n  pop\n  jump\t// out\n    /* \"#utility.yul\":1169:1562   */\ntag_17:\n    /* \"#utility.yul\":1238:1244   */\n  0x00\n    /* \"#utility.yul\":1288:1289   */\n  0x08\n    /* \"#utility.yul\":1276:1286   */\n  dup4\n    /* \"#utility.yul\":1272:1290   */\n  mul\n    /* \"#utility.yul\":1311:1408   */\n  tag_45\n    /* \"#utility.yul\":1341:1407   */\n  0xffffffffffffffffffffffffffffffffffffffffffffffffffffffffffffffff\n    /* \"#utility.yul\":1330:1339   */\n  dup3\n    /* \"#utility.yul\":1311:1408   */\n  tag_16\n  jump\t// in\ntag_45:\n    /* \"#utility.yul\":1429:1468   */\n  tag_46\n    /* \"#utility.yul\":1459:1467   */\n  dup7\n    /* \"#utility.yul\":1448:1457   */\n  dup4\n    /* \"#utility.yul\":1429:1468   */\n  tag_16\n  jump\t// in\ntag_46:\n    /* \"#utility.yul\":1417:1468   */\n  swap6\n  pop\n    /* \"#utility.yul\":1501:1505   */\n  dup1\n    /* \"#utility.yul\":1497:1506   */\n  not\n    /* \"#utility.yul\":1490:1495   */\n  dup5\n    /* \"#utility.yul\":1486:1507   */\n  and\n    /* \"#utility.yul\":1477:1507   */\n  swap4\n  pop\n    /* \"#utility.yul\":1550:1554   */\n  dup1\n    /* \"#utility.yul\":1540:1548   */\n  dup7\n    /* \"#utility.yul\":1536:1555   */\n  and\n    /* \"#utility.yul\":1529:1534   */\n  dup5\n    /* \"#utility.yul\":1526:1556   */\n  or\n    /* \"#utility.yul\":1516:1556   */\n  swap3\n  pop\n    /* \"#utility.yul\":1245:1562   */\n  pop\n  pop\n    /* \"#utility.yul\":1169:1562   */\n  swap4\n  swap3\n  pop\n  pop\n  pop\n  jump\t// out\n    /* \"#utility.yul\":1568:1645   */\ntag_18:\n    /* \"#utility.yul\":1605:1612   */\n  0x00\n    /* \"#utility.yul\":1634:1639   */\n  dup2\n    /* \"#utility.yul\":1623:1639   */\n  swap1\n  pop\n    /* \"#utility.yul\":1568:1645   */\n  swap2\n  swap1\n  pop\n  jump\t// out\n    /* \"#utility.yul\":1651:1711   */\ntag_19:\n    /* \"#utility.yul\":1679:1682   */\n  0x00\n    /* \"#utility.yul\":1700:1705   */\n  dup2\n    /* \"#utility.yul\":1693:1705   */\n  swap1\n  pop\n    /* \"#utility.yul\":1651:1711   */\n  swap2\n  swap1\n  pop\n  jump\t// out\n    /* \"#utility.yul\":1717:1859   */\ntag_20:\n    /* \"#utility.yul\":1767:1776   */\n  0x00\n    /* \"#utility.yul\":1800:1853   */\n  tag_50\n    /* \"#utility.yul\":1818:1852   */\n  tag_51\n    /* \"#utility.yul\":1827:1851   */\n  tag_52\n    /* \"#utility.yul\":1845:1850   */\n  dup5\n    /* \"#utility.yul\":1827:1851   */\n  tag_18\n  jump\t// in\ntag_52:\n    /* \"#utility.yul\":1818:1852   */\n  tag_19\n  jump\t// in\ntag_51:\n    /* \"#utility.yul\":1800:1853   */\n  tag_18\n  jump\t// in\ntag_50:\n    /* \"#utility.yul\":1787:1853   */\n  swap1\n  pop\n    /* \"#utility.yul\":1717:1859   */\n  swap2\n  swap1\n  pop\n  jump\t// out\n    /* \"#utility.yul\":1865:1940   */\ntag_21:\n    /* \"#utility.yul\":1908:1911   */\n  0x00\n    /* \"#utility.yul\":1929:1934   */\n  dup2\n    /* \"#utility.yul\":1922:1934   */\n  swap1\n  pop\n    /* \"#utility.yul\":1865:1940   */\n  swap2\n  swap1\n  pop\n  jump\t// out\n    /* \"#utility.yul\":1946:2215   */\ntag_22:\n    /* \"#utility.yul\":2056:2095   */\n  tag_55\n    /* \"#utility.yul\":2087:2094   */\n  dup4\n    /* \"#utility.yul\":2056:2095   */\n  tag_20\n  jump\t// in\ntag_55:\n    /* \"#utility.yul\":2117:2208   */\n  tag_56\n    /* \"#utility.yul\":2166:2207   */\n  tag_57\n    /* \"#utility.yul\":2190:2206   */\n  dup3\n    /* \"#utility.yul\":2166:2207   */\n  tag_21\n  jump\t// in\ntag_57:\n    /* \"#utility.yul\":2158:2164   */\n  dup5\n    /* \"#utility.yul\":2151:2155   */\n  dup5\n    /* \"#utility.yul\":2145:2156   */\n  sload\n    /* \"#utility.yul\":2117:2208   */\n  tag_17\n  jump\t// in\ntag_56:\n    /* \"#utility.yul\":2111:2115   */\n  dup3\n    /* \"#utility.yul\":2104:2209   */\n  sstore\n    /* \"#utility.yul\":2022:2215   */\n  pop\n    /* \"#utility.yul\":1946:2215   */\n  pop\n  pop\n  pop\n  jump\t// out\n    /* \"#utility.yul\":2221:2294   */\ntag_23:\n    /* \"#utility.yul\":2266:2269   */\n  0x00\n    /* \"#utility.yul\":2221:2294   */\n  swap1\n  jump\t// out\n    /* \"#utility.yul\":2300:2489   */\ntag_24:\n    /* \"#utility.yul\":2377:2409   */\n  tag_60\n  tag_23\n  jump\t// in\ntag_60:\n    /* \"#utility.yul\":2418:2483   */\n  tag_61\n    /* \"#utility.yul\":2476:2482   */\n  dup2\n    /* \"#utility.yul\":2468:2474   */\n  dup5\n    /* \"#utility.yul\":2462:2466   */\n  dup5\n    /* \"#utility.yul\":2418:2483   */\n  tag_22\n  jump\t// in\ntag_61:\n    /* \"#utility.yul\":2353:2489   */\n  pop\n    /* \"#utility.yul\":2300:2489   */\n  pop\n  pop\n  jump\t// out\n    /* \"#utility.yul\":2495:2681   */\ntag_25:\n    /* \"#utility.yul\":2555:2675   */\ntag_63:\n    /* \"#utility.yul\":2572:2575   */\n  dup2\n    /* \"#utility.yul\":2565:2570   */\n  dup2\n    /* \"#utility.yul\":2562:2576   */\n  lt\n    /* \"#utility.yul\":2555:2675   */\n  iszero\n  tag_65\n  jumpi\n    /* \"#utility.yul\":2626:2665   */\n  tag_66\n    /* \"#utility.yul\":2663:2664   */\n  0x00\n    /* \"#utility.yul\":2656:2661   */\n  dup3\n    /* \"#utility.yul\":2626:2665   */\n  tag_24\n  jump\t// in\ntag_66:\n    /* \"#utility.yul\":2599:2600   */\n  0x01\n    /* \"#utility.yul\":2592:2597   */\n  dup2\n    /* \"#utility.yul\":2588:2601   */\n  add\n    /* \"#utility.yul\":2579:2601   */\n  swap1\n  pop\n    /* \"#utility.yul\":2555:2675   */\n  jump(tag_63)\ntag_65:\n    /* \"#utility.yul\":2495:2681   */\n  pop\n  pop\n  jump\t// out\n    /* \"#utility.yul\":2687:3230   */\ntag_26:\n    /* \"#utility.yul\":2788:2790   */\n  0x1f\n    /* \"#utility.yul\":2783:2786   */\n  dup3\n    /* \"#utility.yul\":2780:2791   */\n  gt\n    /* \"#utility.yul\":2777:3223   */\n  iszero\n  tag_68\n  jumpi\n    /* \"#utility.yul\":2822:2860   */\n  tag_69\n    /* \"#utility.yul\":2854:2859   */\n  dup2\n    /* \"#utility.yul\":2822:2860   */\n  tag_14\n  jump\t// in\ntag_69:\n    /* \"#utility.yul\":2906:2935   */\n  tag_70\n    /* \"#utility.yul\":2924:2934   */\n  dup5\n    /* \"#utility.yul\":2906:2935   */\n  tag_15\n  jump\t// in\ntag_70:\n    /* \"#utility.yul\":2896:2904   */\n  dup2\n    /* \"#utility.yul\":2892:2936   */\n  add\n    /* \"#utility.yul\":3089:3091   */\n  0x20\n    /* \"#utility.yul\":3077:3087   */\n  dup6\n    /* \"#utility.yul\":3074:3092   */\n  lt\n    /* \"#utility.yul\":3071:3120   */\n  iszero\n  tag_71\n  jumpi\n    /* \"#utility.yul\":3110:3118   */\n  dup2\n    /* \"#utility.yul\":3095:3118   */\n  swap1\n  pop\n    /* \"#utility.yul\":3071:3120   */\ntag_71:\n    /* \"#utility.yul\":3133:3213   */\n  tag_72\n    /* \"#utility.yul\":3189:3211   */\n  tag_73\n    /* \"#utility.yul\":3207:3210   */\n  dup6\n    /* \"#utility.yul\":3189:3211   */\n  tag_15\n  jump\t// in\ntag_73:\n    /* \"#utility.yul\":3179:3187   */\n  dup4\n    /* \"#utility.yul\":3175:3212   */\n  add\n    /* \"#utility.yul\":3162:3173   */\n  dup3\n    /* \"#utility.yul\":3133:3213   */\n  tag_25\n  jump\t// in\ntag_72:\n    /* \"#utility.yul\":2792:3223   */\n  pop\n  pop\n    /* \"#utility.yul\":2777:3223   */\ntag_68:\n    /* \"#utility.yul\":2687:3230   */\n  pop\n  pop\n  pop\n  jump\t// out\n    /* \"#utility.yul\":3236:3353   */\ntag_27:\n    /* \"#utility.yul\":3290:3298   */\n  0x00\n    /* \"#utility.yul\":3340:3345   */\n  dup3\n    /* \"#utility.yul\":3334:3338   */\n  dup3\n    /* \"#utility.yul\":3330:3346   */\n  shr\n    /* \"#utility.yul\":3309:3346   */\n  swap1\n  pop\n    /* \"#utility.yul\":3236:3353   */\n  swap3\n  swap2\n  pop\n  pop\n  jump\t// out\n    /* \"#utility.yul\":3359:3528   */\ntag_28:\n    /* \"#utility.yul\":3403:3409   */\n  0x00\n    /* \"#utility.yul\":3436:3487   */\n  tag_76\n    /* \"#utility.yul\":3484:3485   */\n  0x00\n    /* \"#utility.yul\":3480:3486   */\n  not\n    /* \"#utility.yul\":3472:3477   */\n  dup5\n    /* \"#utility.yul\":3469:3470   */\n  0x08\n    /* \"#utility.yul\":3465:3478   */\n  mul\n    /* \"#utility.yul\":3436:3487   */\n  tag_27\n  jump\t// in\ntag_76:\n    /* \"#utility.yul\":3432:3488   */\n  not\n    /* \"#utility.yul\":3517:3521   */\n  dup1\n    /* \"#utility.yul\":3511:3515   */\n  dup4\n    /* \"#utility.yul\":3507:3522   */\n  and\n    /* \"#utility.yul\":3497:3522   */\n  swap2\n  pop\n    /* \"#utility.yul\":3410:3528   */\n  pop\n    /* \"#utility.yul\":3359:3528   */\n  swap3\n  swap2\n  pop\n  pop\n  jump\t// out\n    /* \"#utility.yul\":3533:3828   */\ntag_29:\n    /* \"#utility.yul\":3609:3613   */\n  0x00\n    /* \"#utility.yul\":3755:3784   */\n  tag_78\n    /* \"#utility.yul\":3780:3783   */\n  dup4\n    /* \"#utility.yul\":3774:3778   */\n  dup4\n    /* \"#utility.yul\":3755:3784   */\n  tag_28\n  jump\t// in\ntag_78:\n    /* \"#utility.yul\":3747:3784   */\n  swap2\n  pop\n    /* \"#utility.yul\":3817:3820   */\n  dup3\n    /* \"#utility.yul\":3814:3815   */\n  0x02\n    /* \"#utility.yul\":3810:3821   */\n  mul\n    /* \"#utility.yul\":3804:3808   */\n  dup3\n    /* \"#utility.yul\":3801:3822   */\n  or\n    /* \"#utility.yul\":3793:3822   */\n  swap1\n  pop\n    /* \"#utility.yul\":3533:3828   */\n  swap3\n  swap2\n  pop\n  pop\n  jump\t// out\n    /* \"#utility.yul\":3833:5228   */\ntag_6:\n    /* \"#utility.yul\":3950:3987   */\n  tag_80\n    /* \"#utility.yul\":3983:3986   */\n  dup3\n    /* \"#utility.yul\":3950:3987   */\n  tag_10\n  jump\t// in\ntag_80:\n    /* \"#utility.yul\":4052:4070   */\n  0xffffffffffffffff\n    /* \"#utility.yul\":4044:4050   */\n  dup2\n    /* \"#utility.yul\":4041:4071   */\n  gt\n    /* \"#utility.yul\":4038:4094   */\n  iszero\n  tag_81\n  jumpi\n    /* \"#utility.yul\":4074:4092   */\n  tag_82\n  tag_11\n  jump\t// in\ntag_82:\n    /* \"#utility.yul\":4038:4094   */\ntag_81:\n    /* \"#utility.yul\":4118:4156   */\n  tag_83\n    /* \"#utility.yul\":4150:4154   */\n  dup3\n    /* \"#utility.yul\":4144:4155   */\n  sload\n    /* \"#utility.yul\":4118:4156   */\n  tag_13\n  jump\t// in\ntag_83:\n    /* \"#utility.yul\":4203:4270   */\n  tag_84\n    /* \"#utility.yul\":4263:4269   */\n  dup3\n    /* \"#utility.yul\":4255:4261   */\n  dup3\n    /* \"#utility.yul\":4249:4253   */\n  dup6\n    /* \"#utility.yul\":4203:4270   */\n  tag_26\n  jump\t// in\ntag_84:\n    /* \"#utility.yul\":4297:4298   */\n  0x00\n    /* \"#utility.yul\":4321:4325   */\n  0x20\n    /* \"#utility.yul\":4308:4325   */\n  swap1\n  pop\n    /* \"#utility.yul\":4353:4355   */\n  0x1f\n    /* \"#utility.yul\":4345:4351   */\n  dup4\n    /* \"#utility.yul\":4342:4356   */\n  gt\n    /* \"#utility.yul\":4370:4371   */\n  0x01\n    /* \"#utility.yul\":4365:4983   */\n  dup2\n  eq\n  tag_86\n  jumpi\n    /* \"#utility.yul\":5027:5028   */\n  0x00\n    /* \"#utility.yul\":5044:5050   */\n  dup5\n    /* \"#utility.yul\":5041:5118   */\n  iszero\n  tag_87\n  jumpi\n    /* \"#utility.yul\":5093:5102   */\n  dup3\n    /* \"#utility.yul\":5088:5091   */\n  dup8\n    /* \"#utility.yul\":5084:5103   */\n  add\n    /* \"#utility.yul\":5078:5104   */\n  mload\n    /* \"#utility.yul\":5069:5104   */\n  swap1\n  pop\n    /* \"#utility.yul\":5041:5118   */\ntag_87:\n    /* \"#utility.yul\":5144:5211   */\n  tag_88\n    /* \"#utility.yul\":5204:5210   */\n  dup6\n    /* \"#utility.yul\":5197:5202   */\n  dup3\n    /* \"#utility.yul\":5144:5211   */\n  tag_29\n  jump\t// in\ntag_88:\n    /* \"#utility.yul\":5138:5142   */\n  dup7\n    /* \"#utility.yul\":5131:5212   */\n  sstore\n    /* \"#utility.yul\":5000:5222   */\n  pop\n    /* \"#utility.yul\":4335:5222   */\n  jump(tag_85)\n    /* \"#utility.yul\":4365:4983   */\ntag_86:\n    /* \"#utility.yul\":4417:4421   */\n  0x1f\n    /* \"#utility.yul\":4413:4422   */\n  not\n    /* \"#utility.yul\":4405:4411   */\n  dup5\n    /* \"#utility.yul\":4401:4423   */\n  and\n    /* \"#utility.yul\":4451:4488   */\n  tag_89\n    /* \"#utility.yul\":4483:4487   */\n  dup7\n    /* \"#utility.yul\":4451:4488   */\n  tag_14\n  jump\t// in\ntag_89:\n    /* \"#utility.yul\":4510:4511   */\n  0x00\n    /* \"#utility.yul\":4524:4732   */\ntag_90:\n    /* \"#utility.yul\":4538:4545   */\n  dup3\n    /* \"#utility.yul\":4535:4536   */\n  dup2\n    /* \"#utility.yul\":4532:4546   */\n  lt\n    /* \"#utility.yul\":4524:4732   */\n  iszero\n  tag_92\n  jumpi\n    /* \"#utility.yul\":4617:4626   */\n  dup5\n    /* \"#utility.yul\":4612:4615   */\n  dup10\n    /* \"#utility.yul\":4608:4627   */\n  add\n    /* \"#utility.yul\":4602:4628   */\n  mload\n    /* \"#utility.yul\":4594:4600   */\n  dup3\n    /* \"#utility.yul\":4587:4629   */\n  sstore\n    /* \"#utility.yul\":4668:4669   */\n  0x01\n    /* \"#utility.yul\":4660:4666   */\n  dup3\n    /* \"#utility.yul\":4656:4670   */\n  add\n    /* \"#utility.yul\":4646:4670   */\n  swap2\n  pop\n    /* \"#utility.yul\":4715:4717   */\n  0x20\n    /* \"#utility.yul\":4704:4713   */\n  dup6\n    /* \"#utility.yul\":4700:4718   */\n  add\n    /* \"#utility.yul\":4687:4718   */\n  swap5\n  pop\n    /* \"#utility.yul\":4561:4565   */\n  0x20\n    /* \"#utility.yul\":4558:4559   */\n  dup2\n    /* \"#utility.yul\":4554:4566   */\n  add\n    /* \"#utility.yul\":4549:4566   */\n  swap1\n  pop\n    /* \"#utility.yul\":4524:4732   */\n  jump(tag_90)\ntag_92:\n    /* \"#utility.yul\":4760:4766   */\n  dup7\n    /* \"#utility.yul\":4751:4758   */\n  dup4\n    /* \"#utility.yul\":4748:4767   */\n  lt\n    /* \"#utility.yul\":4745:4924   */\n  iszero\n  tag_93\n  jumpi\n    /* \"#utility.yul\":4818:4827   */\n  dup5\n    /* \"#utility.yul\":4813:4816   */\n  dup10\n    /* \"#utility.yul\":4809:4828   */\n  add\n    /* \"#utility.yul\":4803:4829   */\n  mload\n    /* \"#utility.yul\":4861:4909   */\n  tag_94\n    /* \"#utility.yul\":4903:4907   */\n  0x1f\n    /* \"#utility.yul\":4895:4901   */\n  dup10\n    /* \"#utility.yul\":4891:4908   */\n  and\n    /* \"#utility.yul\":4880:4889   */\n  dup3\n    /* \"#utility.yul\":4861:4909   */\n  tag_28\n  jump\t// in\ntag_94:\n    /* \"#utility.yul\":4853:4859   */\n  dup4\n    /* \"#utility.yul\":4846:4910   */\n  sstore\n    /* \"#utility.yul\":4768:4924   */\n  pop\n    /* \"#utility.yul\":4745:4924   */\ntag_93:\n    /* \"#utility.yul\":4970:4971   */\n  0x01\n    /* \"#utility.yul\":4966:4967   */\n  0x02\n    /* \"#utility.yul\":4958:4964   */\n  dup9\n    /* \"#utility.yul\":4954:4968   */\n  mul\n    /* \"#utility.yul\":4950:4972   */\n  add\n    /* \"#utility.yul\":4944:4948   */\n  dup9\n    /* \"#utility.yul\":4937:4973   */\n  sstore\n    /* \"#utility.yul\":4372:4983   */\n  pop\n  pop\n  pop\n    /* \"#utility.yul\":4335:5222   */\ntag_85:\n  pop\n    /* \"#utility.yul\":3925:5228   */\n  pop\n  pop\n  pop\n    /* \"#utility.yul\":3833:5228   */\n  pop\n  pop\n  jump\t// out\n    /* \"#utility.yul\":5234:5403   */\ntag_30:\n    /* \"#utility.yul\":5318:5329   */\n  0x00\n    /* \"#utility.yul\":5352:5358   */\n  dup3\n    /* \"#utility.yul\":5347:5350   */\n  dup3\n    /* \"#utility.yul\":5340:5359   */\n  mstore\n    /* \"#utility.yul\":5392:5396   */\n  0x20\n    /* \"#utility.yul\":5387:5390   */\n  dup3\n    /* \"#utility.yul\":5383:5397   */\n  add\n    /* \"#utility.yul\":5368:5397   */\n  swap1\n  pop\n    /* \"#utility.yul\":5234:5403   */\n  swap3\n  swap2\n  pop\n  pop\n  jump\t// out\n    /* \"#utility.yul\":5409:5591   */\ntag_31:\n    /* \"#utility.yul\":5549:5583   */\n  0x4920617065206d656d65636f696e7320776974686f7574207265736561726368\n    /* \"#utility.yul\":5545:5546   */\n  0x00\n    /* \"#utility.yul\":5537:5543   */\n  dup3\n    /* \"#utility.yul\":5533:5547   */\n  add\n    /* \"#utility.yul\":5526:5584   */\n  mstore\n    /* \"#utility.yul\":5409:5591   */\n  pop\n  jump\t// out\n    /* \"#utility.yul\":5597:5963   */\ntag_32:\n    /* \"#utility.yul\":5739:5742   */\n  0x00\n    /* \"#utility.yul\":5760:5827   */\n  tag_98\n    /* \"#utility.yul\":5824:5826   */\n  0x20\n    /* \"#utility.yul\":5819:5822   */\n  dup4\n    /* \"#utility.yul\":5760:5827   */\n  tag_30\n  jump\t// in\ntag_98:\n    /* \"#utility.yul\":5753:5827   */\n  swap2\n  pop\n    /* \"#utility.yul\":5836:5929   */\n  tag_99\n    /* \"#utility.yul\":5925:5928   */\n  dup3\n    /* \"#utility.yul\":5836:5929   */\n  tag_31\n  jump\t// in\ntag_99:\n    /* \"#utility.yul\":5954:5956   */\n  0x20\n    /* \"#utility.yul\":5949:5952   */\n  dup3\n    /* \"#utility.yul\":5945:5957   */\n  add\n    /* \"#utility.yul\":5938:5957   */\n  swap1\n  pop\n    /* \"#utility.yul\":5597:5963   */\n  swap2\n  swap1\n  pop\n  jump\t// out\n    /* \"#utility.yul\":5969:6388   */\ntag_8:\n    /* \"#utility.yul\":6135:6139   */\n  0x00\n    /* \"#utility.yul\":6173:6175   */\n  0x20\n    /* \"#utility.yul\":6162:6171   */\n  dup3\n    /* \"#utility.yul\":6158:6176   */\n  add\n    /* \"#utility.yul\":6150:6176   */\n  swap1\n  pop\n    /* \"#utility.yul\":6222:6231   */\n  dup2\n    /* \"#utility.yul\":6216:6220   */\n  dup2\n    /* \"#utility.yul\":6212:6232   */\n  sub\n    /* \"#utility.yul\":6208:6209   */\n  0x00\n    /* \"#utility.yul\":6197:6206   */\n  dup4\n    /* \"#utility.yul\":6193:6210   */\n  add\n    /* \"#utility.yul\":6186:6233   */\n  mstore\n    /* \"#utility.yul\":6250:6381   */\n  tag_101\n    /* \"#utility.yul\":6376:6380   */\n  dup2\n    /* \"#utility.yul\":6250:6381   */\n  tag_32\n  jump\t// in\ntag_101:\n    /* \"#utility.yul\":6242:6381   */\n  swap1\n  pop\n    /* \"#utility.yul\":5969:6388   */\n  swap2\n  swap1\n  pop\n  jump\t// out\n    /* \"monad dashboard/SocialProfileRegistry.sol\":2436:2835  contract AnonymousConfessions {... */\ntag_9:\n  dataSize(sub_0)\n  dup1\n  dataOffset(sub_0)\n  0x00\n  codecopy\n  0x00\n  return\nstop\n\nsub_0: assembly {\n        /* \"monad dashboard/SocialProfileRegistry.sol\":2436:2835  contract AnonymousConfessions {... */\n      mstore(0x40, 0x80)\n      callvalue\n      dup1\n      iszero\n      tag_1\n      jumpi\n      0x00\n      dup1\n      revert\n    tag_1:\n      pop\n      jumpi(tag_2, lt(calldatasize, 0x04))\n      shr(0xe0, calldataload(0x00))\n      dup1\n      0x7cf7b946\n      eq\n      tag_3\n      jumpi\n      dup1\n      0xd99a8dc3\n      eq\n      tag_4\n      jumpi\n    tag_2:\n      0x00\n      dup1\n      revert\n        /* \"monad dashboard/SocialProfileRegistry.sol\":2473:2500  string[] public confessions */\n    tag_3:\n      tag_5\n      0x04\n      dup1\n      calldatasize\n      sub\n      dup2\n      add\n      swap1\n      tag_6\n      swap2\n      swap1\n      tag_7\n      jump\t// in\n    tag_6:\n      tag_8\n      jump\t// in\n    tag_5:\n      mload(0x40)\n      tag_9\n      swap2\n      swap1\n      tag_10\n      jump\t// in\n    tag_9:\n      mload(0x40)\n      dup1\n      swap2\n      sub\n      swap1\n      return\n        /* \"monad dashboard/SocialProfileRegistry.sol\":2706:2832  function submit(string calldata _text) external {... */\n    tag_4:\n      tag_11\n      0x04\n      dup1\n      calldatasize\n      sub\n      dup2\n      add\n      swap1\n      tag_12\n      swap2\n      swap1\n      tag_13\n      jump\t// in\n    tag_12:\n      tag_14\n      jump\t// in\n    tag_11:\n      stop\n        /* \"monad dashboard/SocialProfileRegistry.sol\":2473:2500  string[] public confessions */\n    tag_8:\n      0x00\n      dup2\n      dup2\n      sload\n      dup2\n      lt\n      tag_15\n      jumpi\n      0x00\n      dup1\n      revert\n    tag_15:\n      swap1\n      0x00\n      mstore\n      keccak256(0x00, 0x20)\n      add\n      0x00\n      swap2\n      pop\n      swap1\n      pop\n      dup1\n      sload\n      tag_17\n      swap1\n      tag_18\n      jump\t// in\n    tag_17:\n      dup1\n      0x1f\n      add\n      0x20\n      dup1\n      swap2\n      div\n      mul\n      0x20\n      add\n      mload(0x40)\n      swap1\n      dup2\n      add\n      0x40\n      mstore\n      dup1\n      swap3\n      swap2\n      swap1\n      dup2\n      dup2\n      mstore\n      0x20\n      add\n      dup3\n      dup1\n      sload\n      tag_19\n      swap1\n      tag_18\n      jump\t// in\n    tag_19:\n      dup1\n      iszero\n      tag_20\n      jumpi\n      dup1\n      0x1f\n      lt\n      tag_21\n      jumpi\n      0x0100\n      dup1\n      dup4\n      sload\n      div\n      mul\n      dup4\n      mstore\n      swap2\n      0x20\n      add\n      swap2\n      jump(tag_20)\n    tag_21:\n      dup3\n      add\n      swap2\n      swap1\n      0x00\n      mstore\n      keccak256(0x00, 0x20)\n      swap1\n    tag_22:\n      dup2\n      sload\n      dup2\n      mstore\n      swap1\n      0x01\n      add\n      swap1\n      0x20\n      add\n      dup1\n      dup4\n      gt\n      tag_22\n      jumpi\n      dup3\n      swap1\n      sub\n      0x1f\n      and\n      dup3\n      add\n      swap2\n    tag_20:\n      pop\n      pop\n      pop\n      pop\n      pop\n      dup2\n      jump\t// out\n        /* \"monad dashboard/SocialProfileRegistry.sol\":2706:2832  function submit(string calldata _text) external {... */\n    tag_14:\n        /* \"monad dashboard/SocialProfileRegistry.sol\":2765:2776  confessions */\n      0x00\n        /* \"monad dashboard/SocialProfileRegistry.sol\":2782:2787  _text */\n      dup3\n      dup3\n        /* \"monad dashboard/SocialProfileRegistry.sol\":2765:2788  confessions.push(_text) */\n      swap1\n      swap2\n      dup1\n      0x01\n      dup2\n      sload\n      add\n      dup1\n      dup3\n      sstore\n      dup1\n      swap2\n      pop\n      pop\n      0x01\n      swap1\n      sub\n      swap1\n      0x00\n      mstore\n      keccak256(0x00, 0x20)\n      add\n      0x00\n      swap1\n      swap2\n      swap3\n      swap1\n      swap2\n      swap3\n      swap1\n      swap2\n      swap3\n      swap1\n      swap2\n      swap3\n      pop\n      swap2\n      dup3\n      tag_25\n      swap3\n      swap2\n      swap1\n      tag_26\n      jump\t// in\n    tag_25:\n      pop\n        /* \"monad dashboard/SocialProfileRegistry.sol\":2804:2824  NewConfession(_text) */\n      0x0618188fc5e17c341b42e794497317c42890794a01d5703262cf2effa10c1550\n        /* \"monad dashboard/SocialProfileRegistry.sol\":2818:2823  _text */\n      dup3\n      dup3\n        /* \"monad dashboard/SocialProfileRegistry.sol\":2804:2824  NewConfession(_text) */\n      mload(0x40)\n      tag_27\n      swap3\n      swap2\n      swap1\n      tag_28\n      jump\t// in\n    tag_27:\n      mload(0x40)\n      dup1\n      swap2\n      sub\n      swap1\n      log1\n        /* \"monad dashboard/SocialProfileRegistry.sol\":2706:2832  function submit(string calldata _text) external {... */\n      pop\n      pop\n      jump\t// out\n        /* \"#utility.yul\":88:205   */\n    tag_30:\n        /* \"#utility.yul\":197:198   */\n      0x00\n        /* \"#utility.yul\":194:195   */\n      dup1\n        /* \"#utility.yul\":187:199   */\n      revert\n        /* \"#utility.yul\":211:328   */\n    tag_31:\n        /* \"#utility.yul\":320:321   */\n      0x00\n        /* \"#utility.yul\":317:318   */\n      dup1\n        /* \"#utility.yul\":310:322   */\n      revert\n        /* \"#utility.yul\":334:411   */\n    tag_32:\n        /* \"#utility.yul\":371:378   */\n      0x00\n        /* \"#utility.yul\":400:405   */\n      dup2\n        /* \"#utility.yul\":389:405   */\n      swap1\n      pop\n        /* \"#utility.yul\":334:411   */\n      swap2\n      swap1\n      pop\n      jump\t// out\n        /* \"#utility.yul\":417:539   */\n    tag_33:\n        /* \"#utility.yul\":490:514   */\n      tag_70\n        /* \"#utility.yul\":508:513   */\n      dup2\n        /* \"#utility.yul\":490:514   */\n      tag_32\n      jump\t// in\n    tag_70:\n        /* \"#utility.yul\":483:488   */\n      dup2\n        /* \"#utility.yul\":480:515   */\n      eq\n        /* \"#utility.yul\":470:533   */\n      tag_71\n      jumpi\n        /* \"#utility.yul\":529:530   */\n      0x00\n        /* \"#utility.yul\":526:527   */\n      dup1\n        /* \"#utility.yul\":519:531   */\n      revert\n        /* \"#utility.yul\":470:533   */\n    tag_71:\n        /* \"#utility.yul\":417:539   */\n      pop\n      jump\t// out\n        /* \"#utility.yul\":545:684   */\n    tag_34:\n        /* \"#utility.yul\":591:596   */\n      0x00\n        /* \"#utility.yul\":629:635   */\n      dup2\n        /* \"#utility.yul\":616:636   */\n      calldataload\n        /* \"#utility.yul\":607:636   */\n      swap1\n      pop\n        /* \"#utility.yul\":645:678   */\n      tag_73\n        /* \"#utility.yul\":672:677   */\n      dup2\n        /* \"#utility.yul\":645:678   */\n      tag_33\n      jump\t// in\n    tag_73:\n        /* \"#utility.yul\":545:684   */\n      swap3\n      swap2\n      pop\n      pop\n      jump\t// out\n        /* \"#utility.yul\":690:1019   */\n    tag_7:\n        /* \"#utility.yul\":749:755   */\n      0x00\n        /* \"#utility.yul\":798:800   */\n      0x20\n        /* \"#utility.yul\":786:795   */\n      dup3\n        /* \"#utility.yul\":777:784   */\n      dup5\n        /* \"#utility.yul\":773:796   */\n      sub\n        /* \"#utility.yul\":769:801   */\n      slt\n        /* \"#utility.yul\":766:885   */\n      iszero\n      tag_75\n      jumpi\n        /* \"#utility.yul\":804:883   */\n      tag_76\n      tag_30\n      jump\t// in\n    tag_76:\n        /* \"#utility.yul\":766:885   */\n    tag_75:\n        /* \"#utility.yul\":924:925   */\n      0x00\n        /* \"#utility.yul\":949:1002   */\n      tag_77\n        /* \"#utility.yul\":994:1001   */\n      dup5\n        /* \"#utility.yul\":985:991   */\n      dup3\n        /* \"#utility.yul\":974:983   */\n      dup6\n        /* \"#utility.yul\":970:992   */\n      add\n        /* \"#utility.yul\":949:1002   */\n      tag_34\n      jump\t// in\n    tag_77:\n        /* \"#utility.yul\":939:1002   */\n      swap2\n      pop\n        /* \"#utility.yul\":895:1012   */\n      pop\n        /* \"#utility.yul\":690:1019   */\n      swap3\n      swap2\n      pop\n      pop\n      jump\t// out\n        /* \"#utility.yul\":1025:1124   */\n    tag_35:\n        /* \"#utility.yul\":1077:1083   */\n      0x00\n        /* \"#utility.yul\":1111:1116   */\n      dup2\n        /* \"#utility.yul\":1105:1117   */\n      mload\n        /* \"#utility.yul\":1095:1117   */\n      swap1\n      pop\n        /* \"#utility.yul\":1025:1124   */\n      swap2\n      swap1\n      pop\n      jump\t// out\n        /* \"#utility.yul\":1130:1299   */\n    tag_36:\n        /* \"#utility.yul\":1214:1225   */\n      0x00\n        /* \"#utility.yul\":1248:1254   */\n      dup3\n        /* \"#utility.yul\":1243:1246   */\n      dup3\n        /* \"#utility.yul\":1236:1255   */\n      mstore\n        /* \"#utility.yul\":1288:1292   */\n      0x20\n        /* \"#utility.yul\":1283:1286   */\n      dup3\n        /* \"#utility.yul\":1279:1293   */\n      add\n        /* \"#utility.yul\":1264:1293   */\n      swap1\n      pop\n        /* \"#utility.yul\":1130:1299   */\n      swap3\n      swap2\n      pop\n      pop\n      jump\t// out\n        /* \"#utility.yul\":1305:1551   */\n    tag_37:\n        /* \"#utility.yul\":1386:1387   */\n      0x00\n        /* \"#utility.yul\":1396:1509   */\n    tag_81:\n        /* \"#utility.yul\":1410:1416   */\n      dup4\n        /* \"#utility.yul\":1407:1408   */\n      dup2\n        /* \"#utility.yul\":1404:1417   */\n      lt\n        /* \"#utility.yul\":1396:1509   */\n      iszero\n      tag_83\n      jumpi\n        /* \"#utility.yul\":1495:1496   */\n      dup1\n        /* \"#utility.yul\":1490:1493   */\n      dup3\n        /* \"#utility.yul\":1486:1497   */\n      add\n        /* \"#utility.yul\":1480:1498   */\n      mload\n        /* \"#utility.yul\":1476:1477   */\n      dup2\n        /* \"#utility.yul\":1471:1474   */\n      dup5\n        /* \"#utility.yul\":1467:1478   */\n      add\n        /* \"#utility.yul\":1460:1499   */\n      mstore\n        /* \"#utility.yul\":1432:1434   */\n      0x20\n        /* \"#utility.yul\":1429:1430   */\n      dup2\n        /* \"#utility.yul\":1425:1435   */\n      add\n        /* \"#utility.yul\":1420:1435   */\n      swap1\n      pop\n        /* \"#utility.yul\":1396:1509   */\n      jump(tag_81)\n    tag_83:\n        /* \"#utility.yul\":1543:1544   */\n      0x00\n        /* \"#utility.yul\":1534:1540   */\n      dup5\n        /* \"#utility.yul\":1529:1532   */\n      dup5\n        /* \"#utility.yul\":1525:1541   */\n      add\n        /* \"#utility.yul\":1518:1545   */\n      mstore\n        /* \"#utility.yul\":1367:1551   */\n      pop\n        /* \"#utility.yul\":1305:1551   */\n      pop\n      pop\n      pop\n      jump\t// out\n        /* \"#utility.yul\":1557:1659   */\n    tag_38:\n        /* \"#utility.yul\":1598:1604   */\n      0x00\n        /* \"#utility.yul\":1649:1651   */\n      0x1f\n        /* \"#utility.yul\":1645:1652   */\n      not\n        /* \"#utility.yul\":1640:1642   */\n      0x1f\n        /* \"#utility.yul\":1633:1638   */\n      dup4\n        /* \"#utility.yul\":1629:1643   */\n      add\n        /* \"#utility.yul\":1625:1653   */\n      and\n        /* \"#utility.yul\":1615:1653   */\n      swap1\n      pop\n        /* \"#utility.yul\":1557:1659   */\n      swap2\n      swap1\n      pop\n      jump\t// out\n        /* \"#utility.yul\":1665:2042   */\n    tag_39:\n        /* \"#utility.yul\":1753:1756   */\n      0x00\n        /* \"#utility.yul\":1781:1820   */\n      tag_86\n        /* \"#utility.yul\":1814:1819   */\n      dup3\n        /* \"#utility.yul\":1781:1820   */\n      tag_35\n      jump\t// in\n    tag_86:\n        /* \"#utility.yul\":1836:1907   */\n      tag_87\n        /* \"#utility.yul\":1900:1906   */\n      dup2\n        /* \"#utility.yul\":1895:1898   */\n      dup6\n        /* \"#utility.yul\":1836:1907   */\n      tag_36\n      jump\t// in\n    tag_87:\n        /* \"#utility.yul\":1829:1907   */\n      swap4\n      pop\n        /* \"#utility.yul\":1916:1981   */\n      tag_88\n        /* \"#utility.yul\":1974:1980   */\n      dup2\n        /* \"#utility.yul\":1969:1972   */\n      dup6\n        /* \"#utility.yul\":1962:1966   */\n      0x20\n        /* \"#utility.yul\":1955:1960   */\n      dup7\n        /* \"#utility.yul\":1951:1967   */\n      add\n        /* \"#utility.yul\":1916:1981   */\n      tag_37\n      jump\t// in\n    tag_88:\n        /* \"#utility.yul\":2006:2035   */\n      tag_89\n        /* \"#utility.yul\":2028:2034   */\n      dup2\n        /* \"#utility.yul\":2006:2035   */\n      tag_38\n      jump\t// in\n    tag_89:\n        /* \"#utility.yul\":2001:2004   */\n      dup5\n        /* \"#utility.yul\":1997:2036   */\n      add\n        /* \"#utility.yul\":1990:2036   */\n      swap2\n      pop\n        /* \"#utility.yul\":1757:2042   */\n      pop\n        /* \"#utility.yul\":1665:2042   */\n      swap3\n      swap2\n      pop\n      pop\n      jump\t// out\n        /* \"#utility.yul\":2048:2361   */\n    tag_10:\n        /* \"#utility.yul\":2161:2165   */\n      0x00\n        /* \"#utility.yul\":2199:2201   */\n      0x20\n        /* \"#utility.yul\":2188:2197   */\n      dup3\n        /* \"#utility.yul\":2184:2202   */\n      add\n        /* \"#utility.yul\":2176:2202   */\n      swap1\n      pop\n        /* \"#utility.yul\":2248:2257   */\n      dup2\n        /* \"#utility.yul\":2242:2246   */\n      dup2\n        /* \"#utility.yul\":2238:2258   */\n      sub\n        /* \"#utility.yul\":2234:2235   */\n      0x00\n        /* \"#utility.yul\":2223:2232   */\n      dup4\n        /* \"#utility.yul\":2219:2236   */\n      add\n        /* \"#utility.yul\":2212:2259   */\n      mstore\n        /* \"#utility.yul\":2276:2354   */\n      tag_91\n        /* \"#utility.yul\":2349:2353   */\n      dup2\n        /* \"#utility.yul\":2340:2346   */\n      dup5\n        /* \"#utility.yul\":2276:2354   */\n      tag_39\n      jump\t// in\n    tag_91:\n        /* \"#utility.yul\":2268:2354   */\n      swap1\n      pop\n        /* \"#utility.yul\":2048:2361   */\n      swap3\n      swap2\n      pop\n      pop\n      jump\t// out\n        /* \"#utility.yul\":2367:2484   */\n    tag_40:\n        /* \"#utility.yul\":2476:2477   */\n      0x00\n        /* \"#utility.yul\":2473:2474   */\n      dup1\n        /* \"#utility.yul\":2466:2478   */\n      revert\n        /* \"#utility.yul\":2490:2607   */\n    tag_41:\n        /* \"#utility.yul\":2599:2600   */\n      0x00\n        /* \"#utility.yul\":2596:2597   */\n      dup1\n        /* \"#utility.yul\":2589:2601   */\n      revert\n        /* \"#utility.yul\":2613:2730   */\n    tag_42:\n        /* \"#utility.yul\":2722:2723   */\n      0x00\n        /* \"#utility.yul\":2719:2720   */\n      dup1\n        /* \"#utility.yul\":2712:2724   */\n      revert\n        /* \"#utility.yul\":2750:3303   */\n    tag_43:\n        /* \"#utility.yul\":2808:2816   */\n      0x00\n        /* \"#utility.yul\":2818:2824   */\n      dup1\n        /* \"#utility.yul\":2868:2871   */\n      dup4\n        /* \"#utility.yul\":2861:2865   */\n      0x1f\n        /* \"#utility.yul\":2853:2859   */\n      dup5\n        /* \"#utility.yul\":2849:2866   */\n      add\n        /* \"#utility.yul\":2845:2872   */\n      slt\n        /* \"#utility.yul\":2835:2957   */\n      tag_96\n      jumpi\n        /* \"#utility.yul\":2876:2955   */\n      tag_97\n      tag_40\n      jump\t// in\n    tag_97:\n        /* \"#utility.yul\":2835:2957   */\n    tag_96:\n        /* \"#utility.yul\":2989:2995   */\n      dup3\n        /* \"#utility.yul\":2976:2996   */\n      calldataload\n        /* \"#utility.yul\":2966:2996   */\n      swap1\n      pop\n        /* \"#utility.yul\":3019:3037   */\n      0xffffffffffffffff\n        /* \"#utility.yul\":3011:3017   */\n      dup2\n        /* \"#utility.yul\":3008:3038   */\n      gt\n        /* \"#utility.yul\":3005:3122   */\n      iszero\n      tag_98\n      jumpi\n        /* \"#utility.yul\":3041:3120   */\n      tag_99\n      tag_41\n      jump\t// in\n    tag_99:\n        /* \"#utility.yul\":3005:3122   */\n    tag_98:\n        /* \"#utility.yul\":3155:3159   */\n      0x20\n        /* \"#utility.yul\":3147:3153   */\n      dup4\n        /* \"#utility.yul\":3143:3160   */\n      add\n        /* \"#utility.yul\":3131:3160   */\n      swap2\n      pop\n        /* \"#utility.yul\":3209:3212   */\n      dup4\n        /* \"#utility.yul\":3201:3205   */\n      0x01\n        /* \"#utility.yul\":3193:3199   */\n      dup3\n        /* \"#utility.yul\":3189:3206   */\n      mul\n        /* \"#utility.yul\":3179:3187   */\n      dup4\n        /* \"#utility.yul\":3175:3207   */\n      add\n        /* \"#utility.yul\":3172:3213   */\n      gt\n        /* \"#utility.yul\":3169:3297   */\n      iszero\n      tag_100\n      jumpi\n        /* \"#utility.yul\":3216:3295   */\n      tag_101\n      tag_42\n      jump\t// in\n    tag_101:\n        /* \"#utility.yul\":3169:3297   */\n    tag_100:\n        /* \"#utility.yul\":2750:3303   */\n      swap3\n      pop\n      swap3\n      swap1\n      pop\n      jump\t// out\n        /* \"#utility.yul\":3309:3838   */\n    tag_13:\n        /* \"#utility.yul\":3380:3386   */\n      0x00\n        /* \"#utility.yul\":3388:3394   */\n      dup1\n        /* \"#utility.yul\":3437:3439   */\n      0x20\n        /* \"#utility.yul\":3425:3434   */\n      dup4\n        /* \"#utility.yul\":3416:3423   */\n      dup6\n        /* \"#utility.yul\":3412:3435   */\n      sub\n        /* \"#utility.yul\":3408:3440   */\n      slt\n        /* \"#utility.yul\":3405:3524   */\n      iszero\n      tag_103\n      jumpi\n        /* \"#utility.yul\":3443:3522   */\n      tag_104\n      tag_30\n      jump\t// in\n    tag_104:\n        /* \"#utility.yul\":3405:3524   */\n    tag_103:\n        /* \"#utility.yul\":3591:3592   */\n      0x00\n        /* \"#utility.yul\":3580:3589   */\n      dup4\n        /* \"#utility.yul\":3576:3593   */\n      add\n        /* \"#utility.yul\":3563:3594   */\n      calldataload\n        /* \"#utility.yul\":3621:3639   */\n      0xffffffffffffffff\n        /* \"#utility.yul\":3613:3619   */\n      dup2\n        /* \"#utility.yul\":3610:3640   */\n      gt\n        /* \"#utility.yul\":3607:3724   */\n      iszero\n      tag_105\n      jumpi\n        /* \"#utility.yul\":3643:3722   */\n      tag_106\n      tag_31\n      jump\t// in\n    tag_106:\n        /* \"#utility.yul\":3607:3724   */\n    tag_105:\n        /* \"#utility.yul\":3756:3821   */\n      tag_107\n        /* \"#utility.yul\":3813:3820   */\n      dup6\n        /* \"#utility.yul\":3804:3810   */\n      dup3\n        /* \"#utility.yul\":3793:3802   */\n      dup7\n        /* \"#utility.yul\":3789:3811   */\n      add\n        /* \"#utility.yul\":3756:3821   */\n      tag_43\n      jump\t// in\n    tag_107:\n        /* \"#utility.yul\":3738:3821   */\n      swap3\n      pop\n      swap3\n      pop\n        /* \"#utility.yul\":3534:3831   */\n      pop\n        /* \"#utility.yul\":3309:3838   */\n      swap3\n      pop\n      swap3\n      swap1\n      pop\n      jump\t// out\n        /* \"#utility.yul\":3844:4024   */\n    tag_44:\n        /* \"#utility.yul\":3892:3969   */\n      0x4e487b7100000000000000000000000000000000000000000000000000000000\n        /* \"#utility.yul\":3889:3890   */\n      0x00\n        /* \"#utility.yul\":3882:3970   */\n      mstore\n        /* \"#utility.yul\":3989:3993   */\n      0x22\n        /* \"#utility.yul\":3986:3987   */\n      0x04\n        /* \"#utility.yul\":3979:3994   */\n      mstore\n        /* \"#utility.yul\":4013:4017   */\n      0x24\n        /* \"#utility.yul\":4010:4011   */\n      0x00\n        /* \"#utility.yul\":4003:4018   */\n      revert\n        /* \"#utility.yul\":4030:4350   */\n    tag_18:\n        /* \"#utility.yul\":4074:4080   */\n      0x00\n        /* \"#utility.yul\":4111:4112   */\n      0x02\n        /* \"#utility.yul\":4105:4109   */\n      dup3\n        /* \"#utility.yul\":4101:4113   */\n      div\n        /* \"#utility.yul\":4091:4113   */\n      swap1\n      pop\n        /* \"#utility.yul\":4158:4159   */\n      0x01\n        /* \"#utility.yul\":4152:4156   */\n      dup3\n        /* \"#utility.yul\":4148:4160   */\n      and\n        /* \"#utility.yul\":4179:4197   */\n      dup1\n        /* \"#utility.yul\":4169:4250   */\n      tag_110\n      jumpi\n        /* \"#utility.yul\":4235:4239   */\n      0x7f\n        /* \"#utility.yul\":4227:4233   */\n      dup3\n        /* \"#utility.yul\":4223:4240   */\n      and\n        /* \"#utility.yul\":4213:4240   */\n      swap2\n      pop\n        /* \"#utility.yul\":4169:4250   */\n    tag_110:\n        /* \"#utility.yul\":4297:4299   */\n      0x20\n        /* \"#utility.yul\":4289:4295   */\n      dup3\n        /* \"#utility.yul\":4286:4300   */\n      lt\n        /* \"#utility.yul\":4266:4284   */\n      dup2\n        /* \"#utility.yul\":4263:4301   */\n      sub\n        /* \"#utility.yul\":4260:4344   */\n      tag_111\n      jumpi\n        /* \"#utility.yul\":4316:4334   */\n      tag_112\n      tag_44\n      jump\t// in\n    tag_112:\n        /* \"#utility.yul\":4260:4344   */\n    tag_111:\n        /* \"#utility.yul\":4081:4350   */\n      pop\n        /* \"#utility.yul\":4030:4350   */\n      swap2\n      swap1\n      pop\n      jump\t// out\n        /* \"#utility.yul\":4356:4453   */\n    tag_45:\n        /* \"#utility.yul\":4415:4421   */\n      0x00\n        /* \"#utility.yul\":4443:4446   */\n      dup3\n        /* \"#utility.yul\":4433:4446   */\n      swap1\n      pop\n        /* \"#utility.yul\":4356:4453   */\n      swap3\n      swap2\n      pop\n      pop\n      jump\t// out\n        /* \"#utility.yul\":4459:4639   */\n    tag_46:\n        /* \"#utility.yul\":4507:4584   */\n      0x4e487b7100000000000000000000000000000000000000000000000000000000\n        /* \"#utility.yul\":4504:4505   */\n      0x00\n        /* \"#utility.yul\":4497:4585   */\n      mstore\n        /* \"#utility.yul\":4604:4608   */\n      0x41\n        /* \"#utility.yul\":4601:4602   */\n      0x04\n        /* \"#utility.yul\":4594:4609   */\n      mstore\n        /* \"#utility.yul\":4628:4632   */\n      0x24\n        /* \"#utility.yul\":4625:4626   */\n      0x00\n        /* \"#utility.yul\":4618:4633   */\n      revert\n        /* \"#utility.yul\":4645:4786   */\n    tag_47:\n        /* \"#utility.yul\":4694:4698   */\n      0x00\n        /* \"#utility.yul\":4717:4720   */\n      dup2\n        /* \"#utility.yul\":4709:4720   */\n      swap1\n      pop\n        /* \"#utility.yul\":4740:4743   */\n      dup2\n        /* \"#utility.yul\":4737:4738   */\n      0x00\n        /* \"#utility.yul\":4730:4744   */\n      mstore\n        /* \"#utility.yul\":4774:4778   */\n      0x20\n        /* \"#utility.yul\":4771:4772   */\n      0x00\n        /* \"#utility.yul\":4761:4779   */\n      keccak256\n        /* \"#utility.yul\":4753:4779   */\n      swap1\n      pop\n        /* \"#utility.yul\":4645:4786   */\n      swap2\n      swap1\n      pop\n      jump\t// out\n        /* \"#utility.yul\":4792:4885   */\n    tag_48:\n        /* \"#utility.yul\":4829:4835   */\n      0x00\n        /* \"#utility.yul\":4876:4878   */\n      0x20\n        /* \"#utility.yul\":4871:4873   */\n      0x1f\n        /* \"#utility.yul\":4864:4869   */\n      dup4\n        /* \"#utility.yul\":4860:4874   */\n      add\n        /* \"#utility.yul\":4856:4879   */\n      div\n        /* \"#utility.yul\":4846:4879   */\n      swap1\n      pop\n        /* \"#utility.yul\":4792:4885   */\n      swap2\n      swap1\n      pop\n      jump\t// out\n        /* \"#utility.yul\":4891:4998   */\n    tag_49:\n        /* \"#utility.yul\":4935:4943   */\n      0x00\n        /* \"#utility.yul\":4985:4990   */\n      dup3\n        /* \"#utility.yul\":4979:4983   */\n      dup3\n        /* \"#utility.yul\":4975:4991   */\n      shl\n        /* \"#utility.yul\":4954:4991   */\n      swap1\n      pop\n        /* \"#utility.yul\":4891:4998   */\n      swap3\n      swap2\n      pop\n      pop\n      jump\t// out\n        /* \"#utility.yul\":5004:5397   */\n    tag_50:\n        /* \"#utility.yul\":5073:5079   */\n      0x00\n        /* \"#utility.yul\":5123:5124   */\n      0x08\n        /* \"#utility.yul\":5111:5121   */\n      dup4\n        /* \"#utility.yul\":5107:5125   */\n      mul\n        /* \"#utility.yul\":5146:5243   */\n      tag_119\n        /* \"#utility.yul\":5176:5242   */\n      0xffffffffffffffffffffffffffffffffffffffffffffffffffffffffffffffff\n        /* \"#utility.yul\":5165:5174   */\n      dup3\n        /* \"#utility.yul\":5146:5243   */\n      tag_49\n      jump\t// in\n    tag_119:\n        /* \"#utility.yul\":5264:5303   */\n      tag_120\n        /* \"#utility.yul\":5294:5302   */\n      dup7\n        /* \"#utility.yul\":5283:5292   */\n      dup4\n        /* \"#utility.yul\":5264:5303   */\n      tag_49\n      jump\t// in\n    tag_120:\n        /* \"#utility.yul\":5252:5303   */\n      swap6\n      pop\n        /* \"#utility.yul\":5336:5340   */\n      dup1\n        /* \"#utility.yul\":5332:5341   */\n      not\n        /* \"#utility.yul\":5325:5330   */\n      dup5\n        /* \"#utility.yul\":5321:5342   */\n      and\n        /* \"#utility.yul\":5312:5342   */\n      swap4\n      pop\n        /* \"#utility.yul\":5385:5389   */\n      dup1\n        /* \"#utility.yul\":5375:5383   */\n      dup7\n        /* \"#utility.yul\":5371:5390   */\n      and\n        /* \"#utility.yul\":5364:5369   */\n      dup5\n        /* \"#utility.yul\":5361:5391   */\n      or\n        /* \"#utility.yul\":5351:5391   */\n      swap3\n      pop\n        /* \"#utility.yul\":5080:5397   */\n      pop\n      pop\n        /* \"#utility.yul\":5004:5397   */\n      swap4\n      swap3\n      pop\n      pop\n      pop\n      jump\t// out\n        /* \"#utility.yul\":5403:5463   */\n    tag_51:\n        /* \"#utility.yul\":5431:5434   */\n      0x00\n        /* \"#utility.yul\":5452:5457   */\n      dup2\n        /* \"#utility.yul\":5445:5457   */\n      swap1\n      pop\n        /* \"#utility.yul\":5403:5463   */\n      swap2\n      swap1\n      pop\n      jump\t// out\n        /* \"#utility.yul\":5469:5611   */\n    tag_52:\n        /* \"#utility.yul\":5519:5528   */\n      0x00\n        /* \"#utility.yul\":5552:5605   */\n      tag_123\n        /* \"#utility.yul\":5570:5604   */\n      tag_124\n        /* \"#utility.yul\":5579:5603   */\n      tag_125\n        /* \"#utility.yul\":5597:5602   */\n      dup5\n        /* \"#utility.yul\":5579:5603   */\n      tag_32\n      jump\t// in\n    tag_125:\n        /* \"#utility.yul\":5570:5604   */\n      tag_51\n      jump\t// in\n    tag_124:\n        /* \"#utility.yul\":5552:5605   */\n      tag_32\n      jump\t// in\n    tag_123:\n        /* \"#utility.yul\":5539:5605   */\n      swap1\n      pop\n        /* \"#utility.yul\":5469:5611   */\n      swap2\n      swap1\n      pop\n      jump\t// out\n        /* \"#utility.yul\":5617:5692   */\n    tag_53:\n        /* \"#utility.yul\":5660:5663   */\n      0x00\n        /* \"#utility.yul\":5681:5686   */\n      dup2\n        /* \"#utility.yul\":5674:5686   */\n      swap1\n      pop\n        /* \"#utility.yul\":5617:5692   */\n      swap2\n      swap1\n      pop\n      jump\t// out\n        /* \"#utility.yul\":5698:5967   */\n    tag_54:\n        /* \"#utility.yul\":5808:5847   */\n      tag_128\n        /* \"#utility.yul\":5839:5846   */\n      dup4\n        /* \"#utility.yul\":5808:5847   */\n      tag_52\n      jump\t// in\n    tag_128:\n        /* \"#utility.yul\":5869:5960   */\n      tag_129\n        /* \"#utility.yul\":5918:5959   */\n      tag_130\n        /* \"#utility.yul\":5942:5958   */\n      dup3\n        /* \"#utility.yul\":5918:5959   */\n      tag_53\n      jump\t// in\n    tag_130:\n        /* \"#utility.yul\":5910:5916   */\n      dup5\n        /* \"#utility.yul\":5903:5907   */\n      dup5\n        /* \"#utility.yul\":5897:5908   */\n      sload\n        /* \"#utility.yul\":5869:5960   */\n      tag_50\n      jump\t// in\n    tag_129:\n        /* \"#utility.yul\":5863:5867   */\n      dup3\n        /* \"#utility.yul\":5856:5961   */\n      sstore\n        /* \"#utility.yul\":5774:5967   */\n      pop\n        /* \"#utility.yul\":5698:5967   */\n      pop\n      pop\n      pop\n      jump\t// out\n        /* \"#utility.yul\":5973:6046   */\n    tag_55:\n        /* \"#utility.yul\":6018:6021   */\n      0x00\n        /* \"#utility.yul\":5973:6046   */\n      swap1\n      jump\t// out\n        /* \"#utility.yul\":6052:6241   */\n    tag_56:\n        /* \"#utility.yul\":6129:6161   */\n      tag_133\n      tag_55\n      jump\t// in\n    tag_133:\n        /* \"#utility.yul\":6170:6235   */\n      tag_134\n        /* \"#utility.yul\":6228:6234   */\n      dup2\n        /* \"#utility.yul\":6220:6226   */\n      dup5\n        /* \"#utility.yul\":6214:6218   */\n      dup5\n        /* \"#utility.yul\":6170:6235   */\n      tag_54\n      jump\t// in\n    tag_134:\n        /* \"#utility.yul\":6105:6241   */\n      pop\n        /* \"#utility.yul\":6052:6241   */\n      pop\n      pop\n      jump\t// out\n        /* \"#utility.yul\":6247:6433   */\n    tag_57:\n        /* \"#utility.yul\":6307:6427   */\n    tag_136:\n        /* \"#utility.yul\":6324:6327   */\n      dup2\n        /* \"#utility.yul\":6317:6322   */\n      dup2\n        /* \"#utility.yul\":6314:6328   */\n      lt\n        /* \"#utility.yul\":6307:6427   */\n      iszero\n      tag_138\n      jumpi\n        /* \"#utility.yul\":6378:6417   */\n      tag_139\n        /* \"#utility.yul\":6415:6416   */\n      0x00\n        /* \"#utility.yul\":6408:6413   */\n      dup3\n        /* \"#utility.yul\":6378:6417   */\n      tag_56\n      jump\t// in\n    tag_139:\n        /* \"#utility.yul\":6351:6352   */\n      0x01\n        /* \"#utility.yul\":6344:6349   */\n      dup2\n        /* \"#utility.yul\":6340:6353   */\n      add\n        /* \"#utility.yul\":6331:6353   */\n      swap1\n      pop\n        /* \"#utility.yul\":6307:6427   */\n      jump(tag_136)\n    tag_138:\n        /* \"#utility.yul\":6247:6433   */\n      pop\n      pop\n      jump\t// out\n        /* \"#utility.yul\":6439:6982   */\n    tag_58:\n        /* \"#utility.yul\":6540:6542   */\n      0x1f\n        /* \"#utility.yul\":6535:6538   */\n      dup3\n        /* \"#utility.yul\":6532:6543   */\n      gt\n        /* \"#utility.yul\":6529:6975   */\n      iszero\n      tag_141\n      jumpi\n        /* \"#utility.yul\":6574:6612   */\n      tag_142\n        /* \"#utility.yul\":6606:6611   */\n      dup2\n        /* \"#utility.yul\":6574:6612   */\n      tag_47\n      jump\t// in\n    tag_142:\n        /* \"#utility.yul\":6658:6687   */\n      tag_143\n        /* \"#utility.yul\":6676:6686   */\n      dup5\n        /* \"#utility.yul\":6658:6687   */\n      tag_48\n      jump\t// in\n    tag_143:\n        /* \"#utility.yul\":6648:6656   */\n      dup2\n        /* \"#utility.yul\":6644:6688   */\n      add\n        /* \"#utility.yul\":6841:6843   */\n      0x20\n        /* \"#utility.yul\":6829:6839   */\n      dup6\n        /* \"#utility.yul\":6826:6844   */\n      lt\n        /* \"#utility.yul\":6823:6872   */\n      iszero\n      tag_144\n      jumpi\n        /* \"#utility.yul\":6862:6870   */\n      dup2\n        /* \"#utility.yul\":6847:6870   */\n      swap1\n      pop\n        /* \"#utility.yul\":6823:6872   */\n    tag_144:\n        /* \"#utility.yul\":6885:6965   */\n      tag_145\n        /* \"#utility.yul\":6941:6963   */\n      tag_146\n        /* \"#utility.yul\":6959:6962   */\n      dup6\n        /* \"#utility.yul\":6941:6963   */\n      tag_48\n      jump\t// in\n    tag_146:\n        /* \"#utility.yul\":6931:6939   */\n      dup4\n        /* \"#utility.yul\":6927:6964   */\n      add\n        /* \"#utility.yul\":6914:6925   */\n      dup3\n        /* \"#utility.yul\":6885:6965   */\n      tag_57\n      jump\t// in\n    tag_145:\n        /* \"#utility.yul\":6544:6975   */\n      pop\n      pop\n        /* \"#utility.yul\":6529:6975   */\n    tag_141:\n        /* \"#utility.yul\":6439:6982   */\n      pop\n      pop\n      pop\n      jump\t// out\n        /* \"#utility.yul\":6988:7105   */\n    tag_59:\n        /* \"#utility.yul\":7042:7050   */\n      0x00\n        /* \"#utility.yul\":7092:7097   */\n      dup3\n        /* \"#utility.yul\":7086:7090   */\n      dup3\n        /* \"#utility.yul\":7082:7098   */\n      shr\n        /* \"#utility.yul\":7061:7098   */\n      swap1\n      pop\n        /* \"#utility.yul\":6988:7105   */\n      swap3\n      swap2\n      pop\n      pop\n      jump\t// out\n        /* \"#utility.yul\":7111:7280   */\n    tag_60:\n        /* \"#utility.yul\":7155:7161   */\n      0x00\n        /* \"#utility.yul\":7188:7239   */\n      tag_149\n        /* \"#utility.yul\":7236:7237   */\n      0x00\n        /* \"#utility.yul\":7232:7238   */\n      not\n        /* \"#utility.yul\":7224:7229   */\n      dup5\n        /* \"#utility.yul\":7221:7222   */\n      0x08\n        /* \"#utility.yul\":7217:7230   */\n      mul\n        /* \"#utility.yul\":7188:7239   */\n      tag_59\n      jump\t// in\n    tag_149:\n        /* \"#utility.yul\":7184:7240   */\n      not\n        /* \"#utility.yul\":7269:7273   */\n      dup1\n        /* \"#utility.yul\":7263:7267   */\n      dup4\n        /* \"#utility.yul\":7259:7274   */\n      and\n        /* \"#utility.yul\":7249:7274   */\n      swap2\n      pop\n        /* \"#utility.yul\":7162:7280   */\n      pop\n        /* \"#utility.yul\":7111:7280   */\n      swap3\n      swap2\n      pop\n      pop\n      jump\t// out\n        /* \"#utility.yul\":7285:7580   */\n    tag_61:\n        /* \"#utility.yul\":7361:7365   */\n      0x00\n        /* \"#utility.yul\":7507:7536   */\n      tag_151\n        /* \"#utility.yul\":7532:7535   */\n      dup4\n        /* \"#utility.yul\":7526:7530   */\n      dup4\n        /* \"#utility.yul\":7507:7536   */\n      tag_60\n      jump\t// in\n    tag_151:\n        /* \"#utility.yul\":7499:7536   */\n      swap2\n      pop\n        /* \"#utility.yul\":7569:7572   */\n      dup3\n        /* \"#utility.yul\":7566:7567   */\n      0x02\n        /* \"#utility.yul\":7562:7573   */\n      mul\n        /* \"#utility.yul\":7556:7560   */\n      dup3\n        /* \"#utility.yul\":7553:7574   */\n      or\n        /* \"#utility.yul\":7545:7574   */\n      swap1\n      pop\n        /* \"#utility.yul\":7285:7580   */\n      swap3\n      swap2\n      pop\n      pop\n      jump\t// out\n        /* \"#utility.yul\":7585:8988   */\n    tag_26:\n        /* \"#utility.yul\":7709:7753   */\n      tag_153\n        /* \"#utility.yul\":7749:7752   */\n      dup4\n        /* \"#utility.yul\":7744:7747   */\n      dup4\n        /* \"#utility.yul\":7709:7753   */\n      tag_45\n      jump\t// in\n    tag_153:\n        /* \"#utility.yul\":7818:7836   */\n      0xffffffffffffffff\n        /* \"#utility.yul\":7810:7816   */\n      dup2\n        /* \"#utility.yul\":7807:7837   */\n      gt\n        /* \"#utility.yul\":7804:7860   */\n      iszero\n      tag_154\n      jumpi\n        /* \"#utility.yul\":7840:7858   */\n      tag_155\n      tag_46\n      jump\t// in\n    tag_155:\n        /* \"#utility.yul\":7804:7860   */\n    tag_154:\n        /* \"#utility.yul\":7884:7922   */\n      tag_156\n        /* \"#utility.yul\":7916:7920   */\n      dup3\n        /* \"#utility.yul\":7910:7921   */\n      sload\n        /* \"#utility.yul\":7884:7922   */\n      tag_18\n      jump\t// in\n    tag_156:\n        /* \"#utility.yul\":7969:8036   */\n      tag_157\n        /* \"#utility.yul\":8029:8035   */\n      dup3\n        /* \"#utility.yul\":8021:8027   */\n      dup3\n        /* \"#utility.yul\":8015:8019   */\n      dup6\n        /* \"#utility.yul\":7969:8036   */\n      tag_58\n      jump\t// in\n    tag_157:\n        /* \"#utility.yul\":8063:8064   */\n      0x00\n        /* \"#utility.yul\":8092:8094   */\n      0x1f\n        /* \"#utility.yul\":8084:8090   */\n      dup4\n        /* \"#utility.yul\":8081:8095   */\n      gt\n        /* \"#utility.yul\":8109:8110   */\n      0x01\n        /* \"#utility.yul\":8104:8736   */\n      dup2\n      eq\n      tag_159\n      jumpi\n        /* \"#utility.yul\":8780:8781   */\n      0x00\n        /* \"#utility.yul\":8797:8803   */\n      dup5\n        /* \"#utility.yul\":8794:8878   */\n      iszero\n      tag_160\n      jumpi\n        /* \"#utility.yul\":8853:8862   */\n      dup3\n        /* \"#utility.yul\":8848:8851   */\n      dup8\n        /* \"#utility.yul\":8844:8863   */\n      add\n        /* \"#utility.yul\":8831:8864   */\n      calldataload\n        /* \"#utility.yul\":8822:8864   */\n      swap1\n      pop\n        /* \"#utility.yul\":8794:8878   */\n    tag_160:\n        /* \"#utility.yul\":8904:8971   */\n      tag_161\n        /* \"#utility.yul\":8964:8970   */\n      dup6\n        /* \"#utility.yul\":8957:8962   */\n      dup3\n        /* \"#utility.yul\":8904:8971   */\n      tag_61\n      jump\t// in\n    tag_161:\n        /* \"#utility.yul\":8898:8902   */\n      dup7\n        /* \"#utility.yul\":8891:8972   */\n      sstore\n        /* \"#utility.yul\":8753:8982   */\n      pop\n        /* \"#utility.yul\":8074:8982   */\n      jump(tag_158)\n        /* \"#utility.yul\":8104:8736   */\n    tag_159:\n        /* \"#utility.yul\":8156:8160   */\n      0x1f\n        /* \"#utility.yul\":8152:8161   */\n      not\n        /* \"#utility.yul\":8144:8150   */\n      dup5\n        /* \"#utility.yul\":8140:8162   */\n      and\n        /* \"#utility.yul\":8190:8227   */\n      tag_162\n        /* \"#utility.yul\":8222:8226   */\n      dup7\n        /* \"#utility.yul\":8190:8227   */\n      tag_47\n      jump\t// in\n    tag_162:\n        /* \"#utility.yul\":8249:8250   */\n      0x00\n        /* \"#utility.yul\":8263:8478   */\n    tag_163:\n        /* \"#utility.yul\":8277:8284   */\n      dup3\n        /* \"#utility.yul\":8274:8275   */\n      dup2\n        /* \"#utility.yul\":8271:8285   */\n      lt\n        /* \"#utility.yul\":8263:8478   */\n      iszero\n      tag_165\n      jumpi\n        /* \"#utility.yul\":8363:8372   */\n      dup5\n        /* \"#utility.yul\":8358:8361   */\n      dup10\n        /* \"#utility.yul\":8354:8373   */\n      add\n        /* \"#utility.yul\":8341:8374   */\n      calldataload\n        /* \"#utility.yul\":8333:8339   */\n      dup3\n        /* \"#utility.yul\":8326:8375   */\n      sstore\n        /* \"#utility.yul\":8414:8415   */\n      0x01\n        /* \"#utility.yul\":8406:8412   */\n      dup3\n        /* \"#utility.yul\":8402:8416   */\n      add\n        /* \"#utility.yul\":8392:8416   */\n      swap2\n      pop\n        /* \"#utility.yul\":8461:8463   */\n      0x20\n        /* \"#utility.yul\":8450:8459   */\n      dup6\n        /* \"#utility.yul\":8446:8464   */\n      add\n        /* \"#utility.yul\":8433:8464   */\n      swap5\n      pop\n        /* \"#utility.yul\":8300:8304   */\n      0x20\n        /* \"#utility.yul\":8297:8298   */\n      dup2\n        /* \"#utility.yul\":8293:8305   */\n      add\n        /* \"#utility.yul\":8288:8305   */\n      swap1\n      pop\n        /* \"#utility.yul\":8263:8478   */\n      jump(tag_163)\n    tag_165:\n        /* \"#utility.yul\":8506:8512   */\n      dup7\n        /* \"#utility.yul\":8497:8504   */\n      dup4\n        /* \"#utility.yul\":8494:8513   */\n      lt\n        /* \"#utility.yul\":8491:8677   */\n      iszero\n      tag_166\n      jumpi\n        /* \"#utility.yul\":8571:8580   */\n      dup5\n        /* \"#utility.yul\":8566:8569   */\n      dup10\n        /* \"#utility.yul\":8562:8581   */\n      add\n        /* \"#utility.yul\":8549:8582   */\n      calldataload\n        /* \"#utility.yul\":8614:8662   */\n      tag_167\n        /* \"#utility.yul\":8656:8660   */\n      0x1f\n        /* \"#utility.yul\":8648:8654   */\n      dup10\n        /* \"#utility.yul\":8644:8661   */\n      and\n        /* \"#utility.yul\":8633:8642   */\n      dup3\n        /* \"#utility.yul\":8614:8662   */\n      tag_60\n      jump\t// in\n    tag_167:\n        /* \"#utility.yul\":8606:8612   */\n      dup4\n        /* \"#utility.yul\":8599:8663   */\n      sstore\n        /* \"#utility.yul\":8514:8677   */\n      pop\n        /* \"#utility.yul\":8491:8677   */\n    tag_166:\n        /* \"#utility.yul\":8723:8724   */\n      0x01\n        /* \"#utility.yul\":8719:8720   */\n      0x02\n        /* \"#utility.yul\":8711:8717   */\n      dup9\n        /* \"#utility.yul\":8707:8721   */\n      mul\n        /* \"#utility.yul\":8703:8725   */\n      add\n        /* \"#utility.yul\":8697:8701   */\n      dup9\n        /* \"#utility.yul\":8690:8726   */\n      sstore\n        /* \"#utility.yul\":8111:8736   */\n      pop\n      pop\n      pop\n        /* \"#utility.yul\":8074:8982   */\n    tag_158:\n      pop\n        /* \"#utility.yul\":7684:8988   */\n      pop\n      pop\n      pop\n        /* \"#utility.yul\":7585:8988   */\n      pop\n      pop\n      pop\n      jump\t// out\n        /* \"#utility.yul\":8994:9140   */\n    tag_62:\n        /* \"#utility.yul\":9091:9097   */\n      dup3\n        /* \"#utility.yul\":9086:9089   */\n      dup2\n        /* \"#utility.yul\":9081:9084   */\n      dup4\n        /* \"#utility.yul\":9068:9098   */\n      calldatacopy\n        /* \"#utility.yul\":9132:9133   */\n      0x00\n        /* \"#utility.yul\":9123:9129   */\n      dup4\n        /* \"#utility.yul\":9118:9121   */\n      dup4\n        /* \"#utility.yul\":9114:9130   */\n      add\n        /* \"#utility.yul\":9107:9134   */\n      mstore\n        /* \"#utility.yul\":8994:9140   */\n      pop\n      pop\n      pop\n      jump\t// out\n        /* \"#utility.yul\":9170:9487   */\n    tag_63:\n        /* \"#utility.yul\":9268:9271   */\n      0x00\n        /* \"#utility.yul\":9289:9360   */\n      tag_170\n        /* \"#utility.yul\":9353:9359   */\n      dup4\n        /* \"#utility.yul\":9348:9351   */\n      dup6\n        /* \"#utility.yul\":9289:9360   */\n      tag_36\n      jump\t// in\n    tag_170:\n        /* \"#utility.yul\":9282:9360   */\n      swap4\n      pop\n        /* \"#utility.yul\":9370:9426   */\n      tag_171\n        /* \"#utility.yul\":9419:9425   */\n      dup4\n        /* \"#utility.yul\":9414:9417   */\n      dup6\n        /* \"#utility.yul\":9407:9412   */\n      dup5\n        /* \"#utility.yul\":9370:9426   */\n      tag_62\n      jump\t// in\n    tag_171:\n        /* \"#utility.yul\":9451:9480   */\n      tag_172\n        /* \"#utility.yul\":9473:9479   */\n      dup4\n        /* \"#utility.yul\":9451:9480   */\n      tag_38\n      jump\t// in\n    tag_172:\n        /* \"#utility.yul\":9446:9449   */\n      dup5\n        /* \"#utility.yul\":9442:9481   */\n      add\n        /* \"#utility.yul\":9435:9481   */\n      swap1\n      pop\n        /* \"#utility.yul\":9170:9487   */\n      swap4\n      swap3\n      pop\n      pop\n      pop\n      jump\t// out\n        /* \"#utility.yul\":9493:9826   */\n    tag_28:\n        /* \"#utility.yul\":9616:9620   */\n      0x00\n        /* \"#utility.yul\":9654:9656   */\n      0x20\n        /* \"#utility.yul\":9643:9652   */\n      dup3\n        /* \"#utility.yul\":9639:9657   */\n      add\n        /* \"#utility.yul\":9631:9657   */\n      swap1\n      pop\n        /* \"#utility.yul\":9703:9712   */\n      dup2\n        /* \"#utility.yul\":9697:9701   */\n      dup2\n        /* \"#utility.yul\":9693:9713   */\n      sub\n        /* \"#utility.yul\":9689:9690   */\n      0x00\n        /* \"#utility.yul\":9678:9687   */\n      dup4\n        /* \"#utility.yul\":9674:9691   */\n      add\n        /* \"#utility.yul\":9667:9714   */\n      mstore\n        /* \"#utility.yul\":9731:9819   */\n      tag_174\n        /* \"#utility.yul\":9814:9818   */\n      dup2\n        /* \"#utility.yul\":9805:9811   */\n      dup5\n        /* \"#utility.yul\":9797:9803   */\n      dup7\n        /* \"#utility.yul\":9731:9819   */\n      tag_63\n      jump\t// in\n    tag_174:\n        /* \"#utility.yul\":9723:9819   */\n      swap1\n      pop\n        /* \"#utility.yul\":9493:9826   */\n      swap4\n      swap3\n      pop\n      pop\n      pop\n      jump\t// out\n\n    auxdata: 0xa2646970667358221220e0d825e12b608c3691ea5c42ff9b491000694e1447dfcda570f13dbba0b63f4764736f6c63430008170033\n}\n",
				"bytecode": {
					"linkReferences": {},
					"object": "608060405234801562000010575f80fd5b505f8060018154018082558091505060019003905f5260205f20015f6040518060400160405280602081526020017f4920617065206d656d65636f696e7320776974686f75742072657365617263688152509091909150908162000075919062000317565b507f0618188fc5e17c341b42e794497317c42890794a01d5703262cf2effa10c1550604051620000a59062000459565b60405180910390a162000479565b5f81519050919050565b7f4e487b71000000000000000000000000000000000000000000000000000000005f52604160045260245ffd5b7f4e487b71000000000000000000000000000000000000000000000000000000005f52602260045260245ffd5b5f60028204905060018216806200012f57607f821691505b602082108103620001455762000144620000ea565b5b50919050565b5f819050815f5260205f209050919050565b5f6020601f8301049050919050565b5f82821b905092915050565b5f60088302620001a97fffffffffffffffffffffffffffffffffffffffffffffffffffffffffffffffff826200016c565b620001b586836200016c565b95508019841693508086168417925050509392505050565b5f819050919050565b5f819050919050565b5f620001ff620001f9620001f384620001cd565b620001d6565b620001cd565b9050919050565b5f819050919050565b6200021a83620001df565b62000232620002298262000206565b84845462000178565b825550505050565b5f90565b620002486200023a565b620002558184846200020f565b505050565b5b818110156200027c57620002705f826200023e565b6001810190506200025b565b5050565b601f821115620002cb5762000295816200014b565b620002a0846200015d565b81016020851015620002b0578190505b620002c8620002bf856200015d565b8301826200025a565b50505b505050565b5f82821c905092915050565b5f620002ed5f1984600802620002d0565b1980831691505092915050565b5f620003078383620002dc565b9150826002028217905092915050565b6200032282620000b3565b67ffffffffffffffff8111156200033e576200033d620000bd565b5b6200034a825462000117565b6200035782828562000280565b5f60209050601f8311600181146200038d575f841562000378578287015190505b620003848582620002fa565b865550620003f3565b601f1984166200039d866200014b565b5f5b82811015620003c6578489015182556001820191506020850194506020810190506200039f565b86831015620003e65784890151620003e2601f891682620002dc565b8355505b6001600288020188555050505b505050505050565b5f82825260208201905092915050565b7f4920617065206d656d65636f696e7320776974686f75742072657365617263685f82015250565b5f62000441602083620003fb565b91506200044e826200040b565b602082019050919050565b5f6020820190508181035f830152620004728162000433565b9050919050565b6106ec80620004875f395ff3fe608060405234801561000f575f80fd5b5060043610610034575f3560e01c80637cf7b94614610038578063d99a8dc314610068575b5f80fd5b610052600480360381019061004d91906101db565b610084565b60405161005f9190610290565b60405180910390f35b610082600480360381019061007d9190610311565b610129565b005b5f8181548110610092575f80fd5b905f5260205f20015f9150905080546100aa90610389565b80601f01602080910402602001604051908101604052809291908181526020018280546100d690610389565b80156101215780601f106100f857610100808354040283529160200191610121565b820191905f5260205f20905b81548152906001019060200180831161010457829003601f168201915b505050505081565b5f828290918060018154018082558091505060019003905f5260205f20015f90919290919290919290919250918261016292919061058d565b507f0618188fc5e17c341b42e794497317c42890794a01d5703262cf2effa10c15508282604051610194929190610694565b60405180910390a15050565b5f80fd5b5f80fd5b5f819050919050565b6101ba816101a8565b81146101c4575f80fd5b50565b5f813590506101d5816101b1565b92915050565b5f602082840312156101f0576101ef6101a0565b5b5f6101fd848285016101c7565b91505092915050565b5f81519050919050565b5f82825260208201905092915050565b5f5b8381101561023d578082015181840152602081019050610222565b5f8484015250505050565b5f601f19601f8301169050919050565b5f61026282610206565b61026c8185610210565b935061027c818560208601610220565b61028581610248565b840191505092915050565b5f6020820190508181035f8301526102a88184610258565b905092915050565b5f80fd5b5f80fd5b5f80fd5b5f8083601f8401126102d1576102d06102b0565b5b8235905067ffffffffffffffff8111156102ee576102ed6102b4565b5b60208301915083600182028301111561030a576103096102b8565b5b9250929050565b5f8060208385031215610327576103266101a0565b5b5f83013567ffffffffffffffff811115610344576103436101a4565b5b610350858286016102bc565b92509250509250929050565b7f4e487b71000000000000000000000000000000000000000000000000000000005f52602260045260245ffd5b5f60028204905060018216806103a057607f821691505b6020821081036103b3576103b261035c565b5b50919050565b5f82905092915050565b7f4e487b71000000000000000000000000000000000000000000000000000000005f52604160045260245ffd5b5f819050815f5260205f209050919050565b5f6020601f8301049050919050565b5f82821b905092915050565b5f6008830261044c7fffffffffffffffffffffffffffffffffffffffffffffffffffffffffffffffff82610411565b6104568683610411565b95508019841693508086168417925050509392505050565b5f819050919050565b5f61049161048c610487846101a8565b61046e565b6101a8565b9050919050565b5f819050919050565b6104aa83610477565b6104be6104b682610498565b84845461041d565b825550505050565b5f90565b6104d26104c6565b6104dd8184846104a1565b505050565b5b81811015610500576104f55f826104ca565b6001810190506104e3565b5050565b601f82111561054557610516816103f0565b61051f84610402565b8101602085101561052e578190505b61054261053a85610402565b8301826104e2565b50505b505050565b5f82821c905092915050565b5f6105655f198460080261054a565b1980831691505092915050565b5f61057d8383610556565b9150826002028217905092915050565b61059783836103b9565b67ffffffffffffffff8111156105b0576105af6103c3565b5b6105ba8254610389565b6105c5828285610504565b5f601f8311600181146105f2575f84156105e0578287013590505b6105ea8582610572565b865550610651565b601f198416610600866103f0565b5f5b8281101561062757848901358255600182019150602085019450602081019050610602565b868310156106445784890135610640601f891682610556565b8355505b6001600288020188555050505b50505050505050565b828183375f83830152505050565b5f6106738385610210565b935061068083858461065a565b61068983610248565b840190509392505050565b5f6020820190508181035f8301526106ad818486610668565b9050939250505056fea2646970667358221220e0d825e12b608c3691ea5c42ff9b491000694e1447dfcda570f13dbba0b63f4764736f6c63430008170033",
					"opcodes": "PUSH1 0x80 PUSH1 0x40 MSTORE CALLVALUE DUP1 ISZERO PUSH3 0x10 JUMPI PUSH0 DUP1 REVERT JUMPDEST POP PUSH0 DUP1 PUSH1 0x1 DUP2 SLOAD ADD DUP1 DUP3 SSTORE DUP1 SWAP2 POP POP PUSH1 0x1 SWAP1 SUB SWAP1 PUSH0 MSTORE PUSH1 0x20 PUSH0 KECCAK256 ADD PUSH0 PUSH1 0x40 MLOAD DUP1 PUSH1 0x40 ADD PUSH1 0x40 MSTORE DUP1 PUSH1 0x20 DUP2 MSTORE PUSH1 0x20 ADD PUSH32 0x4920617065206D656D65636F696E7320776974686F7574207265736561726368 DUP2 MSTORE POP SWAP1 SWAP2 SWAP1 SWAP2 POP SWAP1 DUP2 PUSH3 0x75 SWAP2 SWAP1 PUSH3 0x317 JUMP JUMPDEST POP PUSH32 0x618188FC5E17C341B42E794497317C42890794A01D5703262CF2EFFA10C1550 PUSH1 0x40 MLOAD PUSH3 0xA5 SWAP1 PUSH3 0x459 JUMP JUMPDEST PUSH1 0x40 MLOAD DUP1 SWAP2 SUB SWAP1 LOG1 PUSH3 0x479 JUMP JUMPDEST PUSH0 DUP2 MLOAD SWAP1 POP SWAP2 SWAP1 POP JUMP JUMPDEST PUSH32 0x4E487B7100000000000000000000000000000000000000000000000000000000 PUSH0 MSTORE PUSH1 0x41 PUSH1 0x4 MSTORE PUSH1 0x24 PUSH0 REVERT JUMPDEST PUSH32 0x4E487B7100000000000000000000000000000000000000000000000000000000 PUSH0 MSTORE PUSH1 0x22 PUSH1 0x4 MSTORE PUSH1 0x24 PUSH0 REVERT JUMPDEST PUSH0 PUSH1 0x2 DUP3 DIV SWAP1 POP PUSH1 0x1 DUP3 AND DUP1 PUSH3 0x12F JUMPI PUSH1 0x7F DUP3 AND SWAP2 POP JUMPDEST PUSH1 0x20 DUP3 LT DUP2 SUB PUSH3 0x145 JUMPI PUSH3 0x144 PUSH3 0xEA JUMP JUMPDEST JUMPDEST POP SWAP2 SWAP1 POP JUMP JUMPDEST PUSH0 DUP2 SWAP1 POP DUP2 PUSH0 MSTORE PUSH1 0x20 PUSH0 KECCAK256 SWAP1 POP SWAP2 SWAP1 POP JUMP JUMPDEST PUSH0 PUSH1 0x20 PUSH1 0x1F DUP4 ADD DIV SWAP1 POP SWAP2 SWAP1 POP JUMP JUMPDEST PUSH0 DUP3 DUP3 SHL SWAP1 POP SWAP3 SWAP2 POP POP JUMP JUMPDEST PUSH0 PUSH1 0x8 DUP4 MUL PUSH3 0x1A9 PUSH32 0xFFFFFFFFFFFFFFFFFFFFFFFFFFFFFFFFFFFFFFFFFFFFFFFFFFFFFFFFFFFFFFFF DUP3 PUSH3 0x16C JUMP JUMPDEST PUSH3 0x1B5 DUP7 DUP4 PUSH3 0x16C JUMP JUMPDEST SWAP6 POP DUP1 NOT DUP5 AND SWAP4 POP DUP1 DUP7 AND DUP5 OR SWAP3 POP POP POP SWAP4 SWAP3 POP POP POP JUMP JUMPDEST PUSH0 DUP2 SWAP1 POP SWAP2 SWAP1 POP JUMP JUMPDEST PUSH0 DUP2 SWAP1 POP SWAP2 SWAP1 POP JUMP JUMPDEST PUSH0 PUSH3 0x1FF PUSH3 0x1F9 PUSH3 0x1F3 DUP5 PUSH3 0x1CD JUMP JUMPDEST PUSH3 0x1D6 JUMP JUMPDEST PUSH3 0x1CD JUMP JUMPDEST SWAP1 POP SWAP2 SWAP1 POP JUMP JUMPDEST PUSH0 DUP2 SWAP1 POP SWAP2 SWAP1 POP JUMP JUMPDEST PUSH3 0x21A DUP4 PUSH3 0x1DF JUMP JUMPDEST PUSH3 0x232 PUSH3 0x229 DUP3 PUSH3 0x206 JUMP JUMPDEST DUP5 DUP5 SLOAD PUSH3 0x178 JUMP JUMPDEST DUP3 SSTORE POP POP POP POP JUMP JUMPDEST PUSH0 SWAP1 JUMP JUMPDEST PUSH3 0x248 PUSH3 0x23A JUMP JUMPDEST PUSH3 0x255 DUP2 DUP5 DUP5 PUSH3 0x20F JUMP JUMPDEST POP POP POP JUMP JUMPDEST JUMPDEST DUP2 DUP2 LT ISZERO PUSH3 0x27C JUMPI PUSH3 0x270 PUSH0 DUP3 PUSH3 0x23E JUMP JUMPDEST PUSH1 0x1 DUP2 ADD SWAP1 POP PUSH3 0x25B JUMP JUMPDEST POP POP JUMP JUMPDEST PUSH1 0x1F DUP3 GT ISZERO PUSH3 0x2CB JUMPI PUSH3 0x295 DUP2 PUSH3 0x14B JUMP JUMPDEST PUSH3 0x2A0 DUP5 PUSH3 0x15D JUMP JUMPDEST DUP2 ADD PUSH1 0x20 DUP6 LT ISZERO PUSH3 0x2B0 JUMPI DUP2 SWAP1 POP JUMPDEST PUSH3 0x2C8 PUSH3 0x2BF DUP6 PUSH3 0x15D JUMP JUMPDEST DUP4 ADD DUP3 PUSH3 0x25A JUMP JUMPDEST POP POP JUMPDEST POP POP POP JUMP JUMPDEST PUSH0 DUP3 DUP3 SHR SWAP1 POP SWAP3 SWAP2 POP POP JUMP JUMPDEST PUSH0 PUSH3 0x2ED PUSH0 NOT DUP5 PUSH1 0x8 MUL PUSH3 0x2D0 JUMP JUMPDEST NOT DUP1 DUP4 AND SWAP2 POP POP SWAP3 SWAP2 POP POP JUMP JUMPDEST PUSH0 PUSH3 0x307 DUP4 DUP4 PUSH3 0x2DC JUMP JUMPDEST SWAP2 POP DUP3 PUSH1 0x2 MUL DUP3 OR SWAP1 POP SWAP3 SWAP2 POP POP JUMP JUMPDEST PUSH3 0x322 DUP3 PUSH3 0xB3 JUMP JUMPDEST PUSH8 0xFFFFFFFFFFFFFFFF DUP2 GT ISZERO PUSH3 0x33E JUMPI PUSH3 0x33D PUSH3 0xBD JUMP JUMPDEST JUMPDEST PUSH3 0x34A DUP3 SLOAD PUSH3 0x117 JUMP JUMPDEST PUSH3 0x357 DUP3 DUP3 DUP6 PUSH3 0x280 JUMP JUMPDEST PUSH0 PUSH1 0x20 SWAP1 POP PUSH1 0x1F DUP4 GT PUSH1 0x1 DUP2 EQ PUSH3 0x38D JUMPI PUSH0 DUP5 ISZERO PUSH3 0x378 JUMPI DUP3 DUP8 ADD MLOAD SWAP1 POP JUMPDEST PUSH3 0x384 DUP6 DUP3 PUSH3 0x2FA JUMP JUMPDEST DUP7 SSTORE POP PUSH3 0x3F3 JUMP JUMPDEST PUSH1 0x1F NOT DUP5 AND PUSH3 0x39D DUP7 PUSH3 0x14B JUMP JUMPDEST PUSH0 JUMPDEST DUP3 DUP2 LT ISZERO PUSH3 0x3C6 JUMPI DUP5 DUP10 ADD MLOAD DUP3 SSTORE PUSH1 0x1 DUP3 ADD SWAP2 POP PUSH1 0x20 DUP6 ADD SWAP5 POP PUSH1 0x20 DUP2 ADD SWAP1 POP PUSH3 0x39F JUMP JUMPDEST DUP7 DUP4 LT ISZERO PUSH3 0x3E6 JUMPI DUP5 DUP10 ADD MLOAD PUSH3 0x3E2 PUSH1 0x1F DUP10 AND DUP3 PUSH3 0x2DC JUMP JUMPDEST DUP4 SSTORE POP JUMPDEST PUSH1 0x1 PUSH1 0x2 DUP9 MUL ADD DUP9 SSTORE POP POP POP JUMPDEST POP POP POP POP POP POP JUMP JUMPDEST PUSH0 DUP3 DUP3 MSTORE PUSH1 0x20 DUP3 ADD SWAP1 POP SWAP3 SWAP2 POP POP JUMP JUMPDEST PUSH32 0x4920617065206D656D65636F696E7320776974686F7574207265736561726368 PUSH0 DUP3 ADD MSTORE POP JUMP JUMPDEST PUSH0 PUSH3 0x441 PUSH1 0x20 DUP4 PUSH3 0x3FB JUMP JUMPDEST SWAP2 POP PUSH3 0x44E DUP3 PUSH3 0x40B JUMP JUMPDEST PUSH1 0x20 DUP3 ADD SWAP1 POP SWAP2 SWAP1 POP JUMP JUMPDEST PUSH0 PUSH1 0x20 DUP3 ADD SWAP1 POP DUP2 DUP2 SUB PUSH0 DUP4 ADD MSTORE PUSH3 0x472 DUP2 PUSH3 0x433 JUMP JUMPDEST SWAP1 POP SWAP2 SWAP1 POP JUMP JUMPDEST PUSH2 0x6EC DUP1 PUSH3 0x487 PUSH0 CODECOPY PUSH0 RETURN INVALID PUSH1 0x80 PUSH1 0x40 MSTORE CALLVALUE DUP1 ISZERO PUSH2 0xF JUMPI PUSH0 DUP1 REVERT JUMPDEST POP PUSH1 0x4 CALLDATASIZE LT PUSH2 0x34 JUMPI PUSH0 CALLDATALOAD PUSH1 0xE0 SHR DUP1 PUSH4 0x7CF7B946 EQ PUSH2 0x38 JUMPI DUP1 PUSH4 0xD99A8DC3 EQ PUSH2 0x68 JUMPI JUMPDEST PUSH0 DUP1 REVERT JUMPDEST PUSH2 0x52 PUSH1 0x4 DUP1 CALLDATASIZE SUB DUP2 ADD SWAP1 PUSH2 0x4D SWAP2 SWAP1 PUSH2 0x1DB JUMP JUMPDEST PUSH2 0x84 JUMP JUMPDEST PUSH1 0x40 MLOAD PUSH2 0x5F SWAP2 SWAP1 PUSH2 0x290 JUMP JUMPDEST PUSH1 0x40 MLOAD DUP1 SWAP2 SUB SWAP1 RETURN JUMPDEST PUSH2 0x82 PUSH1 0x4 DUP1 CALLDATASIZE SUB DUP2 ADD SWAP1 PUSH2 0x7D SWAP2 SWAP1 PUSH2 0x311 JUMP JUMPDEST PUSH2 0x129 JUMP JUMPDEST STOP JUMPDEST PUSH0 DUP2 DUP2 SLOAD DUP2 LT PUSH2 0x92 JUMPI PUSH0 DUP1 REVERT JUMPDEST SWAP1 PUSH0 MSTORE PUSH1 0x20 PUSH0 KECCAK256 ADD PUSH0 SWAP2 POP SWAP1 POP DUP1 SLOAD PUSH2 0xAA SWAP1 PUSH2 0x389 JUMP JUMPDEST DUP1 PUSH1 0x1F ADD PUSH1 0x20 DUP1 SWAP2 DIV MUL PUSH1 0x20 ADD PUSH1 0x40 MLOAD SWAP1 DUP2 ADD PUSH1 0x40 MSTORE DUP1 SWAP3 SWAP2 SWAP1 DUP2 DUP2 MSTORE PUSH1 0x20 ADD DUP3 DUP1 SLOAD PUSH2 0xD6 SWAP1 PUSH2 0x389 JUMP JUMPDEST DUP1 ISZERO PUSH2 0x121 JUMPI DUP1 PUSH1 0x1F LT PUSH2 0xF8 JUMPI PUSH2 0x100 DUP1 DUP4 SLOAD DIV MUL DUP4 MSTORE SWAP2 PUSH1 0x20 ADD SWAP2 PUSH2 0x121 JUMP JUMPDEST DUP3 ADD SWAP2 SWAP1 PUSH0 MSTORE PUSH1 0x20 PUSH0 KECCAK256 SWAP1 JUMPDEST DUP2 SLOAD DUP2 MSTORE SWAP1 PUSH1 0x1 ADD SWAP1 PUSH1 0x20 ADD DUP1 DUP4 GT PUSH2 0x104 JUMPI DUP3 SWAP1 SUB PUSH1 0x1F AND DUP3 ADD SWAP2 JUMPDEST POP POP POP POP POP DUP2 JUMP JUMPDEST PUSH0 DUP3 DUP3 SWAP1 SWAP2 DUP1 PUSH1 0x1 DUP2 SLOAD ADD DUP1 DUP3 SSTORE DUP1 SWAP2 POP POP PUSH1 0x1 SWAP1 SUB SWAP1 PUSH0 MSTORE PUSH1 0x20 PUSH0 KECCAK256 ADD PUSH0 SWAP1 SWAP2 SWAP3 SWAP1 SWAP2 SWAP3 SWAP1 SWAP2 SWAP3 SWAP1 SWAP2 SWAP3 POP SWAP2 DUP3 PUSH2 0x162 SWAP3 SWAP2 SWAP1 PUSH2 0x58D JUMP JUMPDEST POP PUSH32 0x618188FC5E17C341B42E794497317C42890794A01D5703262CF2EFFA10C1550 DUP3 DUP3 PUSH1 0x40 MLOAD PUSH2 0x194 SWAP3 SWAP2 SWAP1 PUSH2 0x694 JUMP JUMPDEST PUSH1 0x40 MLOAD DUP1 SWAP2 SUB SWAP1 LOG1 POP POP JUMP JUMPDEST PUSH0 DUP1 REVERT JUMPDEST PUSH0 DUP1 REVERT JUMPDEST PUSH0 DUP2 SWAP1 POP SWAP2 SWAP1 POP JUMP JUMPDEST PUSH2 0x1BA DUP2 PUSH2 0x1A8 JUMP JUMPDEST DUP2 EQ PUSH2 0x1C4 JUMPI PUSH0 DUP1 REVERT JUMPDEST POP JUMP JUMPDEST PUSH0 DUP2 CALLDATALOAD SWAP1 POP PUSH2 0x1D5 DUP2 PUSH2 0x1B1 JUMP JUMPDEST SWAP3 SWAP2 POP POP JUMP JUMPDEST PUSH0 PUSH1 0x20 DUP3 DUP5 SUB SLT ISZERO PUSH2 0x1F0 JUMPI PUSH2 0x1EF PUSH2 0x1A0 JUMP JUMPDEST JUMPDEST PUSH0 PUSH2 0x1FD DUP5 DUP3 DUP6 ADD PUSH2 0x1C7 JUMP JUMPDEST SWAP2 POP POP SWAP3 SWAP2 POP POP JUMP JUMPDEST PUSH0 DUP2 MLOAD SWAP1 POP SWAP2 SWAP1 POP JUMP JUMPDEST PUSH0 DUP3 DUP3 MSTORE PUSH1 0x20 DUP3 ADD SWAP1 POP SWAP3 SWAP2 POP POP JUMP JUMPDEST PUSH0 JUMPDEST DUP4 DUP2 LT ISZERO PUSH2 0x23D JUMPI DUP1 DUP3 ADD MLOAD DUP2 DUP5 ADD MSTORE PUSH1 0x20 DUP2 ADD SWAP1 POP PUSH2 0x222 JUMP JUMPDEST PUSH0 DUP5 DUP5 ADD MSTORE POP POP POP POP JUMP JUMPDEST PUSH0 PUSH1 0x1F NOT PUSH1 0x1F DUP4 ADD AND SWAP1 POP SWAP2 SWAP1 POP JUMP JUMPDEST PUSH0 PUSH2 0x262 DUP3 PUSH2 0x206 JUMP JUMPDEST PUSH2 0x26C DUP2 DUP6 PUSH2 0x210 JUMP JUMPDEST SWAP4 POP PUSH2 0x27C DUP2 DUP6 PUSH1 0x20 DUP7 ADD PUSH2 0x220 JUMP JUMPDEST PUSH2 0x285 DUP2 PUSH2 0x248 JUMP JUMPDEST DUP5 ADD SWAP2 POP POP SWAP3 SWAP2 POP POP JUMP JUMPDEST PUSH0 PUSH1 0x20 DUP3 ADD SWAP1 POP DUP2 DUP2 SUB PUSH0 DUP4 ADD MSTORE PUSH2 0x2A8 DUP2 DUP5 PUSH2 0x258 JUMP JUMPDEST SWAP1 POP SWAP3 SWAP2 POP POP JUMP JUMPDEST PUSH0 DUP1 REVERT JUMPDEST PUSH0 DUP1 REVERT JUMPDEST PUSH0 DUP1 REVERT JUMPDEST PUSH0 DUP1 DUP4 PUSH1 0x1F DUP5 ADD SLT PUSH2 0x2D1 JUMPI PUSH2 0x2D0 PUSH2 0x2B0 JUMP JUMPDEST JUMPDEST DUP3 CALLDATALOAD SWAP1 POP PUSH8 0xFFFFFFFFFFFFFFFF DUP2 GT ISZERO PUSH2 0x2EE JUMPI PUSH2 0x2ED PUSH2 0x2B4 JUMP JUMPDEST JUMPDEST PUSH1 0x20 DUP4 ADD SWAP2 POP DUP4 PUSH1 0x1 DUP3 MUL DUP4 ADD GT ISZERO PUSH2 0x30A JUMPI PUSH2 0x309 PUSH2 0x2B8 JUMP JUMPDEST JUMPDEST SWAP3 POP SWAP3 SWAP1 POP JUMP JUMPDEST PUSH0 DUP1 PUSH1 0x20 DUP4 DUP6 SUB SLT ISZERO PUSH2 0x327 JUMPI PUSH2 0x326 PUSH2 0x1A0 JUMP JUMPDEST JUMPDEST PUSH0 DUP4 ADD CALLDATALOAD PUSH8 0xFFFFFFFFFFFFFFFF DUP2 GT ISZERO PUSH2 0x344 JUMPI PUSH2 0x343 PUSH2 0x1A4 JUMP JUMPDEST JUMPDEST PUSH2 0x350 DUP6 DUP3 DUP7 ADD PUSH2 0x2BC JUMP JUMPDEST SWAP3 POP SWAP3 POP POP SWAP3 POP SWAP3 SWAP1 POP JUMP JUMPDEST PUSH32 0x4E487B7100000000000000000000000000000000000000000000000000000000 PUSH0 MSTORE PUSH1 0x22 PUSH1 0x4 MSTORE PUSH1 0x24 PUSH0 REVERT JUMPDEST PUSH0 PUSH1 0x2 DUP3 DIV SWAP1 POP PUSH1 0x1 DUP3 AND DUP1 PUSH2 0x3A0 JUMPI PUSH1 0x7F DUP3 AND SWAP2 POP JUMPDEST PUSH1 0x20 DUP3 LT DUP2 SUB PUSH2 0x3B3 JUMPI PUSH2 0x3B2 PUSH2 0x35C JUMP JUMPDEST JUMPDEST POP SWAP2 SWAP1 POP JUMP JUMPDEST PUSH0 DUP3 SWAP1 POP SWAP3 SWAP2 POP POP JUMP JUMPDEST PUSH32 0x4E487B7100000000000000000000000000000000000000000000000000000000 PUSH0 MSTORE PUSH1 0x41 PUSH1 0x4 MSTORE PUSH1 0x24 PUSH0 REVERT JUMPDEST PUSH0 DUP2 SWAP1 POP DUP2 PUSH0 MSTORE PUSH1 0x20 PUSH0 KECCAK256 SWAP1 POP SWAP2 SWAP1 POP JUMP JUMPDEST PUSH0 PUSH1 0x20 PUSH1 0x1F DUP4 ADD DIV SWAP1 POP SWAP2 SWAP1 POP JUMP JUMPDEST PUSH0 DUP3 DUP3 SHL SWAP1 POP SWAP3 SWAP2 POP POP JUMP JUMPDEST PUSH0 PUSH1 0x8 DUP4 MUL PUSH2 0x44C PUSH32 0xFFFFFFFFFFFFFFFFFFFFFFFFFFFFFFFFFFFFFFFFFFFFFFFFFFFFFFFFFFFFFFFF DUP3 PUSH2 0x411 JUMP JUMPDEST PUSH2 0x456 DUP7 DUP4 PUSH2 0x411 JUMP JUMPDEST SWAP6 POP DUP1 NOT DUP5 AND SWAP4 POP DUP1 DUP7 AND DUP5 OR SWAP3 POP POP POP SWAP4 SWAP3 POP POP POP JUMP JUMPDEST PUSH0 DUP2 SWAP1 POP SWAP2 SWAP1 POP JUMP JUMPDEST PUSH0 PUSH2 0x491 PUSH2 0x48C PUSH2 0x487 DUP5 PUSH2 0x1A8 JUMP JUMPDEST PUSH2 0x46E JUMP JUMPDEST PUSH2 0x1A8 JUMP JUMPDEST SWAP1 POP SWAP2 SWAP1 POP JUMP JUMPDEST PUSH0 DUP2 SWAP1 POP SWAP2 SWAP1 POP JUMP JUMPDEST PUSH2 0x4AA DUP4 PUSH2 0x477 JUMP JUMPDEST PUSH2 0x4BE PUSH2 0x4B6 DUP3 PUSH2 0x498 JUMP JUMPDEST DUP5 DUP5 SLOAD PUSH2 0x41D JUMP JUMPDEST DUP3 SSTORE POP POP POP POP JUMP JUMPDEST PUSH0 SWAP1 JUMP JUMPDEST PUSH2 0x4D2 PUSH2 0x4C6 JUMP JUMPDEST PUSH2 0x4DD DUP2 DUP5 DUP5 PUSH2 0x4A1 JUMP JUMPDEST POP POP POP JUMP JUMPDEST JUMPDEST DUP2 DUP2 LT ISZERO PUSH2 0x500 JUMPI PUSH2 0x4F5 PUSH0 DUP3 PUSH2 0x4CA JUMP JUMPDEST PUSH1 0x1 DUP2 ADD SWAP1 POP PUSH2 0x4E3 JUMP JUMPDEST POP POP JUMP JUMPDEST PUSH1 0x1F DUP3 GT ISZERO PUSH2 0x545 JUMPI PUSH2 0x516 DUP2 PUSH2 0x3F0 JUMP JUMPDEST PUSH2 0x51F DUP5 PUSH2 0x402 JUMP JUMPDEST DUP2 ADD PUSH1 0x20 DUP6 LT ISZERO PUSH2 0x52E JUMPI DUP2 SWAP1 POP JUMPDEST PUSH2 0x542 PUSH2 0x53A DUP6 PUSH2 0x402 JUMP JUMPDEST DUP4 ADD DUP3 PUSH2 0x4E2 JUMP JUMPDEST POP POP JUMPDEST POP POP POP JUMP JUMPDEST PUSH0 DUP3 DUP3 SHR SWAP1 POP SWAP3 SWAP2 POP POP JUMP JUMPDEST PUSH0 PUSH2 0x565 PUSH0 NOT DUP5 PUSH1 0x8 MUL PUSH2 0x54A JUMP JUMPDEST NOT DUP1 DUP4 AND SWAP2 POP POP SWAP3 SWAP2 POP POP JUMP JUMPDEST PUSH0 PUSH2 0x57D DUP4 DUP4 PUSH2 0x556 JUMP JUMPDEST SWAP2 POP DUP3 PUSH1 0x2 MUL DUP3 OR SWAP1 POP SWAP3 SWAP2 POP POP JUMP JUMPDEST PUSH2 0x597 DUP4 DUP4 PUSH2 0x3B9 JUMP JUMPDEST PUSH8 0xFFFFFFFFFFFFFFFF DUP2 GT ISZERO PUSH2 0x5B0 JUMPI PUSH2 0x5AF PUSH2 0x3C3 JUMP JUMPDEST JUMPDEST PUSH2 0x5BA DUP3 SLOAD PUSH2 0x389 JUMP JUMPDEST PUSH2 0x5C5 DUP3 DUP3 DUP6 PUSH2 0x504 JUMP JUMPDEST PUSH0 PUSH1 0x1F DUP4 GT PUSH1 0x1 DUP2 EQ PUSH2 0x5F2 JUMPI PUSH0 DUP5 ISZERO PUSH2 0x5E0 JUMPI DUP3 DUP8 ADD CALLDATALOAD SWAP1 POP JUMPDEST PUSH2 0x5EA DUP6 DUP3 PUSH2 0x572 JUMP JUMPDEST DUP7 SSTORE POP PUSH2 0x651 JUMP JUMPDEST PUSH1 0x1F NOT DUP5 AND PUSH2 0x600 DUP7 PUSH2 0x3F0 JUMP JUMPDEST PUSH0 JUMPDEST DUP3 DUP2 LT ISZERO PUSH2 0x627 JUMPI DUP5 DUP10 ADD CALLDATALOAD DUP3 SSTORE PUSH1 0x1 DUP3 ADD SWAP2 POP PUSH1 0x20 DUP6 ADD SWAP5 POP PUSH1 0x20 DUP2 ADD SWAP1 POP PUSH2 0x602 JUMP JUMPDEST DUP7 DUP4 LT ISZERO PUSH2 0x644 JUMPI DUP5 DUP10 ADD CALLDATALOAD PUSH2 0x640 PUSH1 0x1F DUP10 AND DUP3 PUSH2 0x556 JUMP JUMPDEST DUP4 SSTORE POP JUMPDEST PUSH1 0x1 PUSH1 0x2 DUP9 MUL ADD DUP9 SSTORE POP POP POP JUMPDEST POP POP POP POP POP POP POP JUMP JUMPDEST DUP3 DUP2 DUP4 CALLDATACOPY PUSH0 DUP4 DUP4 ADD MSTORE POP POP POP JUMP JUMPDEST PUSH0 PUSH2 0x673 DUP4 DUP6 PUSH2 0x210 JUMP JUMPDEST SWAP4 POP PUSH2 0x680 DUP4 DUP6 DUP5 PUSH2 0x65A JUMP JUMPDEST PUSH2 0x689 DUP4 PUSH2 0x248 JUMP JUMPDEST DUP5 ADD SWAP1 POP SWAP4 SWAP3 POP POP POP JUMP JUMPDEST PUSH0 PUSH1 0x20 DUP3 ADD SWAP1 POP DUP2 DUP2 SUB PUSH0 DUP4 ADD MSTORE PUSH2 0x6AD DUP2 DUP5 DUP7 PUSH2 0x668 JUMP JUMPDEST SWAP1 POP SWAP4 SWAP3 POP POP POP JUMP INVALID LOG2 PUSH5 0x6970667358 0x22 SLT KECCAK256 0xE0 0xD8 0x25 0xE1 0x2B PUSH1 0x8C CALLDATASIZE SWAP2 0xEA 0x5C TIMESTAMP SELFDESTRUCT SWAP12 0x49 LT STOP PUSH10 0x4E1447DFCDA570F13DBB LOG0 0xB6 EXTCODEHASH SELFBALANCE PUSH5 0x736F6C6343 STOP ADDMOD OR STOP CALLER "
				},
				"gasEstimates": {
					"creation": {
						"codeDepositCost": "354400",
						"executionCost": "infinite",
						"totalCost": "infinite"
					},
					"external": {
						"confessions(uint256)": "infinite",
						"submit(string)": "infinite"
					}
				},
				"methodIdentifiers": {
					"confessions(uint256)": "7cf7b946",
					"submit(string)": "d99a8dc3"
				}
			},
			"storageLayout": {
				"storage": [
					{
						"astId": 206,
						"contract": "monad dashboard/SocialProfileRegistry.sol:AnonymousConfessions",
						"label": "confessions",
						"offset": 0,
						"slot": "0",
						"type": "t_array(t_string_storage)dyn_storage"
					}
				],
				"types": {
					"t_array(t_string_storage)dyn_storage": {
						"base": "t_string_storage",
						"encoding": "dynamic_array",
						"label": "string[]",
						"numberOfBytes": "32"
					},
					"t_string_storage": {
						"encoding": "bytes",
						"label": "string",
						"numberOfBytes": "32"
					}
				}
			},
			"userdoc": {
				"kind": "user",
				"methods": {},
				"version": 1
			}
		}
	}
}