{
	"monad dashboard/SimpleAuction.sol": {
		"SimpleAuction": {
			"abi": [
				{
					"inputs": [],
					"stateMutability": "nonpayable",
					"type": "constructor"
				},
				{
					"inputs": [],
					"name": "bid",
					"outputs": [],
					"stateMutability": "payable",
					"type": "function"
				},
				{
					"inputs": [],
					"name": "endAuction",
					"outputs": [],
					"stateMutability": "nonpayable",
					"type": "function"
				},
				{
					"inputs": [],
					"name": "ended",
					"outputs": [
						{
							"internalType": "bool",
							"name": "",
							"type": "bool"
						}
					],
					"stateMutability": "view",
					"type": "function"
				},
				{
					"inputs": [],
					"name": "highestBid",
					"outputs": [
						{
							"internalType": "uint256",
							"name": "",
							"type": "uint256"
						}
					],
					"stateMutability": "view",
					"type": "function"
				},
				{
					"inputs": [],
					"name": "highestBidder",
					"outputs": [
						{
							"internalType": "address",
							"name": "",
							"type": "address"
						}
					],
					"stateMutability": "view",
					"type": "function"
				},
				{
					"inputs": [],
					"name": "owner",
					"outputs": [
						{
							"internalType": "address",
							"name": "",
							"type": "address"
						}
					],
					"stateMutability": "view",
					"type": "function"
				},
				{
					"inputs": [
						{
							"internalType": "address",
							"name": "",
							"type": "address"
						}
					],
					"name": "refunds",
					"outputs": [
						{
							"internalType": "uint256",
							"name": "",
							"type": "uint256"
						}
					],
					"stateMutability": "view",
					"type": "function"
				},
				{
					"inputs": [],
					"name": "withdrawRefund",
					"outputs": [],
					"stateMutability": "nonpayable",
					"type": "function"
				}
			],
			"devdoc": {
				"kind": "dev",
				"methods": {},
				"version": 1
			},
			"evm": {
				"assembly": "    /* \"monad dashboard/SimpleAuction.sol\":61:1059  contract SimpleAuction {... */\n  mstore(0x40, 0x80)\n    /* \"monad dashboard/SimpleAuction.sol\":208:259  constructor() {... */\n  callvalue\n  dup1\n  iszero\n  tag_1\n  jumpi\n  0x00\n  dup1\n  revert\ntag_1:\n  pop\n    /* \"monad dashboard/SimpleAuction.sol\":241:251  msg.sender */\n  caller\n    /* \"monad dashboard/SimpleAuction.sol\":233:238  owner */\n  0x02\n  0x00\n    /* \"monad dashboard/SimpleAuction.sol\":233:251  owner = msg.sender */\n  0x0100\n  exp\n  dup2\n  sload\n  dup2\n  0xffffffffffffffffffffffffffffffffffffffff\n  mul\n  not\n  and\n  swap1\n  dup4\n  0xffffffffffffffffffffffffffffffffffffffff\n  and\n  mul\n  or\n  swap1\n  sstore\n  pop\n    /* \"monad dashboard/SimpleAuction.sol\":61:1059  contract SimpleAuction {... */\n  dataSize(sub_0)\n  dup1\n  dataOffset(sub_0)\n  0x00\n  codecopy\n  0x00\n  return\nstop\n\nsub_0: assembly {\n        /* \"monad dashboard/SimpleAuction.sol\":61:1059  contract SimpleAuction {... */\n      mstore(0x40, 0x80)\n      jumpi(tag_1, lt(calldatasize, 0x04))\n      shr(0xe0, calldataload(0x00))\n      dup1\n      0x91f90157\n      gt\n      tag_10\n      jumpi\n      dup1\n      0x91f90157\n      eq\n      tag_6\n      jumpi\n      dup1\n      0xbc3da535\n      eq\n      tag_7\n      jumpi\n      dup1\n      0xd57bde79\n      eq\n      tag_8\n      jumpi\n      dup1\n      0xfe67a54b\n      eq\n      tag_9\n      jumpi\n      jump(tag_1)\n    tag_10:\n      dup1\n      0x110f8874\n      eq\n      tag_2\n      jumpi\n      dup1\n      0x12fa6feb\n      eq\n      tag_3\n      jumpi\n      dup1\n      0x1998aeef\n      eq\n      tag_4\n      jumpi\n      dup1\n      0x8da5cb5b\n      eq\n      tag_5\n      jumpi\n    tag_1:\n      0x00\n      dup1\n      revert\n        /* \"monad dashboard/SimpleAuction.sol\":628:847  function withdrawRefund() public {... */\n    tag_2:\n      callvalue\n      dup1\n      iszero\n      tag_11\n      jumpi\n      0x00\n      dup1\n      revert\n    tag_11:\n      pop\n      tag_12\n      tag_13\n      jump\t// in\n    tag_12:\n      stop\n        /* \"monad dashboard/SimpleAuction.sol\":182:199  bool public ended */\n    tag_3:\n      callvalue\n      dup1\n      iszero\n      tag_14\n      jumpi\n      0x00\n      dup1\n      revert\n    tag_14:\n      pop\n      tag_15\n      tag_16\n      jump\t// in\n    tag_15:\n      mload(0x40)\n      tag_17\n      swap2\n      swap1\n      tag_18\n      jump\t// in\n    tag_17:\n      mload(0x40)\n      dup1\n      swap2\n      sub\n      swap1\n      return\n        /* \"monad dashboard/SimpleAuction.sol\":315:620  function bid() public payable {... */\n    tag_4:\n      tag_19\n      tag_20\n      jump\t// in\n    tag_19:\n      stop\n        /* \"monad dashboard/SimpleAuction.sol\":155:175  address public owner */\n    tag_5:\n      callvalue\n      dup1\n      iszero\n      tag_21\n      jumpi\n      0x00\n      dup1\n      revert\n    tag_21:\n      pop\n      tag_22\n      tag_23\n      jump\t// in\n    tag_22:\n      mload(0x40)\n      tag_24\n      swap2\n      swap1\n      tag_25\n      jump\t// in\n    tag_24:\n      mload(0x40)\n      dup1\n      swap2\n      sub\n      swap1\n      return\n        /* \"monad dashboard/SimpleAuction.sol\":91:119  address public highestBidder */\n    tag_6:\n      callvalue\n      dup1\n      iszero\n      tag_26\n      jumpi\n      0x00\n      dup1\n      revert\n    tag_26:\n      pop\n      tag_27\n      tag_28\n      jump\t// in\n    tag_27:\n      mload(0x40)\n      tag_29\n      swap2\n      swap1\n      tag_25\n      jump\t// in\n    tag_29:\n      mload(0x40)\n      dup1\n      swap2\n      sub\n      swap1\n      return\n        /* \"monad dashboard/SimpleAuction.sol\":267:306  mapping(address => uint) public refunds */\n    tag_7:\n      callvalue\n      dup1\n      iszero\n      tag_30\n      jumpi\n      0x00\n      dup1\n      revert\n    tag_30:\n      pop\n      tag_31\n      0x04\n      dup1\n      calldatasize\n      sub\n      dup2\n      add\n      swap1\n      tag_32\n      swap2\n      swap1\n      tag_33\n      jump\t// in\n    tag_32:\n      tag_34\n      jump\t// in\n    tag_31:\n      mload(0x40)\n      tag_35\n      swap2\n      swap1\n      tag_36\n      jump\t// in\n    tag_35:\n      mload(0x40)\n      dup1\n      swap2\n      sub\n      swap1\n      return\n        /* \"monad dashboard/SimpleAuction.sol\":126:148  uint public highestBid */\n    tag_8:\n      callvalue\n      dup1\n      iszero\n      tag_37\n      jumpi\n      0x00\n      dup1\n      revert\n    tag_37:\n      pop\n      tag_38\n      tag_39\n      jump\t// in\n    tag_38:\n      mload(0x40)\n      tag_40\n      swap2\n      swap1\n      tag_36\n      jump\t// in\n    tag_40:\n      mload(0x40)\n      dup1\n      swap2\n      sub\n      swap1\n      return\n        /* \"monad dashboard/SimpleAuction.sol\":855:1056  function endAuction() public {... */\n    tag_9:\n      callvalue\n      dup1\n      iszero\n      tag_41\n      jumpi\n      0x00\n      dup1\n      revert\n    tag_41:\n      pop\n      tag_42\n      tag_43\n      jump\t// in\n    tag_42:\n      stop\n        /* \"monad dashboard/SimpleAuction.sol\":628:847  function withdrawRefund() public {... */\n    tag_13:\n        /* \"monad dashboard/SimpleAuction.sol\":672:683  uint amount */\n      0x00\n        /* \"monad dashboard/SimpleAuction.sol\":686:693  refunds */\n      0x03\n        /* \"monad dashboard/SimpleAuction.sol\":686:705  refunds[msg.sender] */\n      0x00\n        /* \"monad dashboard/SimpleAuction.sol\":694:704  msg.sender */\n      caller\n        /* \"monad dashboard/SimpleAuction.sol\":686:705  refunds[msg.sender] */\n      0xffffffffffffffffffffffffffffffffffffffff\n      and\n      0xffffffffffffffffffffffffffffffffffffffff\n      and\n      dup2\n      mstore\n      0x20\n      add\n      swap1\n      dup2\n      mstore\n      0x20\n      add\n      0x00\n      keccak256\n      sload\n        /* \"monad dashboard/SimpleAuction.sol\":672:705  uint amount = refunds[msg.sender] */\n      swap1\n      pop\n        /* \"monad dashboard/SimpleAuction.sol\":733:734  0 */\n      0x00\n        /* \"monad dashboard/SimpleAuction.sol\":724:730  amount */\n      dup2\n        /* \"monad dashboard/SimpleAuction.sol\":724:734  amount > 0 */\n      gt\n        /* \"monad dashboard/SimpleAuction.sol\":716:758  require(amount > 0, \"Nothing to withdraw\") */\n      tag_45\n      jumpi\n      mload(0x40)\n      0x08c379a000000000000000000000000000000000000000000000000000000000\n      dup2\n      mstore\n      0x04\n      add\n      tag_46\n      swap1\n      tag_47\n      jump\t// in\n    tag_46:\n      mload(0x40)\n      dup1\n      swap2\n      sub\n      swap1\n      revert\n    tag_45:\n        /* \"monad dashboard/SimpleAuction.sol\":791:792  0 */\n      0x00\n        /* \"monad dashboard/SimpleAuction.sol\":769:776  refunds */\n      0x03\n        /* \"monad dashboard/SimpleAuction.sol\":769:788  refunds[msg.sender] */\n      0x00\n        /* \"monad dashboard/SimpleAuction.sol\":777:787  msg.sender */\n      caller\n        /* \"monad dashboard/SimpleAuction.sol\":769:788  refunds[msg.sender] */\n      0xffffffffffffffffffffffffffffffffffffffff\n      and\n      0xffffffffffffffffffffffffffffffffffffffff\n      and\n      dup2\n      mstore\n      0x20\n      add\n      swap1\n      dup2\n      mstore\n      0x20\n      add\n      0x00\n      keccak256\n        /* \"monad dashboard/SimpleAuction.sol\":769:792  refunds[msg.sender] = 0 */\n      dup2\n      swap1\n      sstore\n      pop\n        /* \"monad dashboard/SimpleAuction.sol\":811:821  msg.sender */\n      caller\n        /* \"monad dashboard/SimpleAuction.sol\":803:831  payable(msg.sender).transfer */\n      0xffffffffffffffffffffffffffffffffffffffff\n      and\n        /* \"monad dashboard/SimpleAuction.sol\":803:839  payable(msg.sender).transfer(amount) */\n      0x08fc\n        /* \"monad dashboard/SimpleAuction.sol\":832:838  amount */\n      dup3\n        /* \"monad dashboard/SimpleAuction.sol\":803:839  payable(msg.sender).transfer(amount) */\n      swap1\n      dup2\n      iszero\n      mul\n      swap1\n      mload(0x40)\n      0x00\n      mload(0x40)\n      dup1\n      dup4\n      sub\n      dup2\n      dup6\n      dup9\n      dup9\n      call\n      swap4\n      pop\n      pop\n      pop\n      pop\n      iszero\n      dup1\n      iszero\n      tag_49\n      jumpi\n      returndatasize\n      0x00\n      dup1\n      returndatacopy\n      revert(0x00, returndatasize)\n    tag_49:\n      pop\n        /* \"monad dashboard/SimpleAuction.sol\":661:847  {... */\n      pop\n        /* \"monad dashboard/SimpleAuction.sol\":628:847  function withdrawRefund() public {... */\n      jump\t// out\n        /* \"monad dashboard/SimpleAuction.sol\":182:199  bool public ended */\n    tag_16:\n      0x02\n      0x14\n      swap1\n      sload\n      swap1\n      0x0100\n      exp\n      swap1\n      div\n      0xff\n      and\n      dup2\n      jump\t// out\n        /* \"monad dashboard/SimpleAuction.sol\":315:620  function bid() public payable {... */\n    tag_20:\n        /* \"monad dashboard/SimpleAuction.sol\":365:370  ended */\n      0x02\n      0x14\n      swap1\n      sload\n      swap1\n      0x0100\n      exp\n      swap1\n      div\n      0xff\n      and\n        /* \"monad dashboard/SimpleAuction.sol\":364:370  !ended */\n      iszero\n        /* \"monad dashboard/SimpleAuction.sol\":356:388  require(!ended, \"Auction ended\") */\n      tag_51\n      jumpi\n      mload(0x40)\n      0x08c379a000000000000000000000000000000000000000000000000000000000\n      dup2\n      mstore\n      0x04\n      add\n      tag_52\n      swap1\n      tag_53\n      jump\t// in\n    tag_52:\n      mload(0x40)\n      dup1\n      swap2\n      sub\n      swap1\n      revert\n    tag_51:\n        /* \"monad dashboard/SimpleAuction.sol\":419:429  highestBid */\n      sload(0x01)\n        /* \"monad dashboard/SimpleAuction.sol\":407:416  msg.value */\n      callvalue\n        /* \"monad dashboard/SimpleAuction.sol\":407:429  msg.value > highestBid */\n      gt\n        /* \"monad dashboard/SimpleAuction.sol\":399:445  require(msg.value > highestBid, \"Bid too low\") */\n      tag_54\n      jumpi\n      mload(0x40)\n      0x08c379a000000000000000000000000000000000000000000000000000000000\n      dup2\n      mstore\n      0x04\n      add\n      tag_55\n      swap1\n      tag_56\n      jump\t// in\n    tag_55:\n      mload(0x40)\n      dup1\n      swap2\n      sub\n      swap1\n      revert\n    tag_54:\n        /* \"monad dashboard/SimpleAuction.sol\":475:476  0 */\n      0x00\n        /* \"monad dashboard/SimpleAuction.sol\":462:472  highestBid */\n      sload(0x01)\n        /* \"monad dashboard/SimpleAuction.sol\":462:476  highestBid > 0 */\n      gt\n        /* \"monad dashboard/SimpleAuction.sol\":458:541  if (highestBid > 0) {... */\n      iszero\n      tag_57\n      jumpi\n        /* \"monad dashboard/SimpleAuction.sol\":519:529  highestBid */\n      sload(0x01)\n        /* \"monad dashboard/SimpleAuction.sol\":493:500  refunds */\n      0x03\n        /* \"monad dashboard/SimpleAuction.sol\":493:515  refunds[highestBidder] */\n      0x00\n        /* \"monad dashboard/SimpleAuction.sol\":501:514  highestBidder */\n      dup1\n      0x00\n      swap1\n      sload\n      swap1\n      0x0100\n      exp\n      swap1\n      div\n      0xffffffffffffffffffffffffffffffffffffffff\n      and\n        /* \"monad dashboard/SimpleAuction.sol\":493:515  refunds[highestBidder] */\n      0xffffffffffffffffffffffffffffffffffffffff\n      and\n      0xffffffffffffffffffffffffffffffffffffffff\n      and\n      dup2\n      mstore\n      0x20\n      add\n      swap1\n      dup2\n      mstore\n      0x20\n      add\n      0x00\n      keccak256\n      0x00\n        /* \"monad dashboard/SimpleAuction.sol\":493:529  refunds[highestBidder] += highestBid */\n      dup3\n      dup3\n      sload\n      tag_58\n      swap2\n      swap1\n      tag_59\n      jump\t// in\n    tag_58:\n      swap3\n      pop\n      pop\n      dup2\n      swap1\n      sstore\n      pop\n        /* \"monad dashboard/SimpleAuction.sol\":458:541  if (highestBid > 0) {... */\n    tag_57:\n        /* \"monad dashboard/SimpleAuction.sol\":569:579  msg.sender */\n      caller\n        /* \"monad dashboard/SimpleAuction.sol\":553:566  highestBidder */\n      0x00\n      dup1\n        /* \"monad dashboard/SimpleAuction.sol\":553:579  highestBidder = msg.sender */\n      0x0100\n      exp\n      dup2\n      sload\n      dup2\n      0xffffffffffffffffffffffffffffffffffffffff\n      mul\n      not\n      and\n      swap1\n      dup4\n      0xffffffffffffffffffffffffffffffffffffffff\n      and\n      mul\n      or\n      swap1\n      sstore\n      pop\n        /* \"monad dashboard/SimpleAuction.sol\":603:612  msg.value */\n      callvalue\n        /* \"monad dashboard/SimpleAuction.sol\":590:600  highestBid */\n      0x01\n        /* \"monad dashboard/SimpleAuction.sol\":590:612  highestBid = msg.value */\n      dup2\n      swap1\n      sstore\n      pop\n        /* \"monad dashboard/SimpleAuction.sol\":315:620  function bid() public payable {... */\n      jump\t// out\n        /* \"monad dashboard/SimpleAuction.sol\":155:175  address public owner */\n    tag_23:\n      0x02\n      0x00\n      swap1\n      sload\n      swap1\n      0x0100\n      exp\n      swap1\n      div\n      0xffffffffffffffffffffffffffffffffffffffff\n      and\n      dup2\n      jump\t// out\n        /* \"monad dashboard/SimpleAuction.sol\":91:119  address public highestBidder */\n    tag_28:\n      0x00\n      dup1\n      sload\n      swap1\n      0x0100\n      exp\n      swap1\n      div\n      0xffffffffffffffffffffffffffffffffffffffff\n      and\n      dup2\n      jump\t// out\n        /* \"monad dashboard/SimpleAuction.sol\":267:306  mapping(address => uint) public refunds */\n    tag_34:\n      mstore(0x20, 0x03)\n      dup1\n      0x00\n      mstore\n      keccak256(0x00, 0x40)\n      0x00\n      swap2\n      pop\n      swap1\n      pop\n      sload\n      dup2\n      jump\t// out\n        /* \"monad dashboard/SimpleAuction.sol\":126:148  uint public highestBid */\n    tag_39:\n      sload(0x01)\n      dup2\n      jump\t// out\n        /* \"monad dashboard/SimpleAuction.sol\":855:1056  function endAuction() public {... */\n    tag_43:\n        /* \"monad dashboard/SimpleAuction.sol\":917:922  owner */\n      0x02\n      0x00\n      swap1\n      sload\n      swap1\n      0x0100\n      exp\n      swap1\n      div\n      0xffffffffffffffffffffffffffffffffffffffff\n      and\n        /* \"monad dashboard/SimpleAuction.sol\":903:922  msg.sender == owner */\n      0xffffffffffffffffffffffffffffffffffffffff\n      and\n        /* \"monad dashboard/SimpleAuction.sol\":903:913  msg.sender */\n      caller\n        /* \"monad dashboard/SimpleAuction.sol\":903:922  msg.sender == owner */\n      0xffffffffffffffffffffffffffffffffffffffff\n      and\n      eq\n        /* \"monad dashboard/SimpleAuction.sol\":895:936  require(msg.sender == owner, \"Not owner\") */\n      tag_61\n      jumpi\n      mload(0x40)\n      0x08c379a000000000000000000000000000000000000000000000000000000000\n      dup2\n      mstore\n      0x04\n      add\n      tag_62\n      swap1\n      tag_63\n      jump\t// in\n    tag_62:\n      mload(0x40)\n      dup1\n      swap2\n      sub\n      swap1\n      revert\n    tag_61:\n        /* \"monad dashboard/SimpleAuction.sol\":956:961  ended */\n      0x02\n      0x14\n      swap1\n      sload\n      swap1\n      0x0100\n      exp\n      swap1\n      div\n      0xff\n      and\n        /* \"monad dashboard/SimpleAuction.sol\":955:961  !ended */\n      iszero\n        /* \"monad dashboard/SimpleAuction.sol\":947:979  require(!ended, \"Already ended\") */\n      tag_64\n      jumpi\n      mload(0x40)\n      0x08c379a000000000000000000000000000000000000000000000000000000000\n      dup2\n      mstore\n      0x04\n      add\n      tag_65\n      swap1\n      tag_66\n      jump\t// in\n    tag_65:\n      mload(0x40)\n      dup1\n      swap2\n      sub\n      swap1\n      revert\n    tag_64:\n        /* \"monad dashboard/SimpleAuction.sol\":998:1002  true */\n      0x01\n        /* \"monad dashboard/SimpleAuction.sol\":990:995  ended */\n      0x02\n      0x14\n        /* \"monad dashboard/SimpleAuction.sol\":990:1002  ended = true */\n      0x0100\n      exp\n      dup2\n      sload\n      dup2\n      0xff\n      mul\n      not\n      and\n      swap1\n      dup4\n      iszero\n      iszero\n      mul\n      or\n      swap1\n      sstore\n      pop\n        /* \"monad dashboard/SimpleAuction.sol\":1021:1026  owner */\n      0x02\n      0x00\n      swap1\n      sload\n      swap1\n      0x0100\n      exp\n      swap1\n      div\n      0xffffffffffffffffffffffffffffffffffffffff\n      and\n        /* \"monad dashboard/SimpleAuction.sol\":1013:1036  payable(owner).transfer */\n      0xffffffffffffffffffffffffffffffffffffffff\n      and\n        /* \"monad dashboard/SimpleAuction.sol\":1013:1048  payable(owner).transfer(highestBid) */\n      0x08fc\n        /* \"monad dashboard/SimpleAuction.sol\":1037:1047  highestBid */\n      sload(0x01)\n        /* \"monad dashboard/SimpleAuction.sol\":1013:1048  payable(owner).transfer(highestBid) */\n      swap1\n      dup2\n      iszero\n      mul\n      swap1\n      mload(0x40)\n      0x00\n      mload(0x40)\n      dup1\n      dup4\n      sub\n      dup2\n      dup6\n      dup9\n      dup9\n      call\n      swap4\n      pop\n      pop\n      pop\n      pop\n      iszero\n      dup1\n      iszero\n      tag_68\n      jumpi\n      returndatasize\n      0x00\n      dup1\n      returndatacopy\n      revert(0x00, returndatasize)\n    tag_68:\n      pop\n        /* \"monad dashboard/SimpleAuction.sol\":855:1056  function endAuction() public {... */\n      jump\t// out\n        /* \"#utility.yul\":7:97   */\n    tag_69:\n        /* \"#utility.yul\":41:48   */\n      0x00\n        /* \"#utility.yul\":84:89   */\n      dup2\n        /* \"#utility.yul\":77:90   */\n      iszero\n        /* \"#utility.yul\":70:91   */\n      iszero\n        /* \"#utility.yul\":59:91   */\n      swap1\n      pop\n        /* \"#utility.yul\":7:97   */\n      swap2\n      swap1\n      pop\n      jump\t// out\n        /* \"#utility.yul\":103:212   */\n    tag_70:\n        /* \"#utility.yul\":184:205   */\n      tag_96\n        /* \"#utility.yul\":199:204   */\n      dup2\n        /* \"#utility.yul\":184:205   */\n      tag_69\n      jump\t// in\n    tag_96:\n        /* \"#utility.yul\":179:182   */\n      dup3\n        /* \"#utility.yul\":172:206   */\n      mstore\n        /* \"#utility.yul\":103:212   */\n      pop\n      pop\n      jump\t// out\n        /* \"#utility.yul\":218:428   */\n    tag_18:\n        /* \"#utility.yul\":305:309   */\n      0x00\n        /* \"#utility.yul\":343:345   */\n      0x20\n        /* \"#utility.yul\":332:341   */\n      dup3\n        /* \"#utility.yul\":328:346   */\n      add\n        /* \"#utility.yul\":320:346   */\n      swap1\n      pop\n        /* \"#utility.yul\":356:421   */\n      tag_98\n        /* \"#utility.yul\":418:419   */\n      0x00\n        /* \"#utility.yul\":407:416   */\n      dup4\n        /* \"#utility.yul\":403:420   */\n      add\n        /* \"#utility.yul\":394:400   */\n      dup5\n        /* \"#utility.yul\":356:421   */\n      tag_70\n      jump\t// in\n    tag_98:\n        /* \"#utility.yul\":218:428   */\n      swap3\n      swap2\n      pop\n      pop\n      jump\t// out\n        /* \"#utility.yul\":434:560   */\n    tag_71:\n        /* \"#utility.yul\":471:478   */\n      0x00\n        /* \"#utility.yul\":511:553   */\n      0xffffffffffffffffffffffffffffffffffffffff\n        /* \"#utility.yul\":504:509   */\n      dup3\n        /* \"#utility.yul\":500:554   */\n      and\n        /* \"#utility.yul\":489:554   */\n      swap1\n      pop\n        /* \"#utility.yul\":434:560   */\n      swap2\n      swap1\n      pop\n      jump\t// out\n        /* \"#utility.yul\":566:662   */\n    tag_72:\n        /* \"#utility.yul\":603:610   */\n      0x00\n        /* \"#utility.yul\":632:656   */\n      tag_101\n        /* \"#utility.yul\":650:655   */\n      dup3\n        /* \"#utility.yul\":632:656   */\n      tag_71\n      jump\t// in\n    tag_101:\n        /* \"#utility.yul\":621:656   */\n      swap1\n      pop\n        /* \"#utility.yul\":566:662   */\n      swap2\n      swap1\n      pop\n      jump\t// out\n        /* \"#utility.yul\":668:786   */\n    tag_73:\n        /* \"#utility.yul\":755:779   */\n      tag_103\n        /* \"#utility.yul\":773:778   */\n      dup2\n        /* \"#utility.yul\":755:779   */\n      tag_72\n      jump\t// in\n    tag_103:\n        /* \"#utility.yul\":750:753   */\n      dup3\n        /* \"#utility.yul\":743:780   */\n      mstore\n        /* \"#utility.yul\":668:786   */\n      pop\n      pop\n      jump\t// out\n        /* \"#utility.yul\":792:1014   */\n    tag_25:\n        /* \"#utility.yul\":885:889   */\n      0x00\n        /* \"#utility.yul\":923:925   */\n      0x20\n        /* \"#utility.yul\":912:921   */\n      dup3\n        /* \"#utility.yul\":908:926   */\n      add\n        /* \"#utility.yul\":900:926   */\n      swap1\n      pop\n        /* \"#utility.yul\":936:1007   */\n      tag_105\n        /* \"#utility.yul\":1004:1005   */\n      0x00\n        /* \"#utility.yul\":993:1002   */\n      dup4\n        /* \"#utility.yul\":989:1006   */\n      add\n        /* \"#utility.yul\":980:986   */\n      dup5\n        /* \"#utility.yul\":936:1007   */\n      tag_73\n      jump\t// in\n    tag_105:\n        /* \"#utility.yul\":792:1014   */\n      swap3\n      swap2\n      pop\n      pop\n      jump\t// out\n        /* \"#utility.yul\":1101:1218   */\n    tag_75:\n        /* \"#utility.yul\":1210:1211   */\n      0x00\n        /* \"#utility.yul\":1207:1208   */\n      dup1\n        /* \"#utility.yul\":1200:1212   */\n      revert\n        /* \"#utility.yul\":1347:1469   */\n    tag_77:\n        /* \"#utility.yul\":1420:1444   */\n      tag_110\n        /* \"#utility.yul\":1438:1443   */\n      dup2\n        /* \"#utility.yul\":1420:1444   */\n      tag_72\n      jump\t// in\n    tag_110:\n        /* \"#utility.yul\":1413:1418   */\n      dup2\n        /* \"#utility.yul\":1410:1445   */\n      eq\n        /* \"#utility.yul\":1400:1463   */\n      tag_111\n      jumpi\n        /* \"#utility.yul\":1459:1460   */\n      0x00\n        /* \"#utility.yul\":1456:1457   */\n      dup1\n        /* \"#utility.yul\":1449:1461   */\n      revert\n        /* \"#utility.yul\":1400:1463   */\n    tag_111:\n        /* \"#utility.yul\":1347:1469   */\n      pop\n      jump\t// out\n        /* \"#utility.yul\":1475:1614   */\n    tag_78:\n        /* \"#utility.yul\":1521:1526   */\n      0x00\n        /* \"#utility.yul\":1559:1565   */\n      dup2\n        /* \"#utility.yul\":1546:1566   */\n      calldataload\n        /* \"#utility.yul\":1537:1566   */\n      swap1\n      pop\n        /* \"#utility.yul\":1575:1608   */\n      tag_113\n        /* \"#utility.yul\":1602:1607   */\n      dup2\n        /* \"#utility.yul\":1575:1608   */\n      tag_77\n      jump\t// in\n    tag_113:\n        /* \"#utility.yul\":1475:1614   */\n      swap3\n      swap2\n      pop\n      pop\n      jump\t// out\n        /* \"#utility.yul\":1620:1949   */\n    tag_33:\n        /* \"#utility.yul\":1679:1685   */\n      0x00\n        /* \"#utility.yul\":1728:1730   */\n      0x20\n        /* \"#utility.yul\":1716:1725   */\n      dup3\n        /* \"#utility.yul\":1707:1714   */\n      dup5\n        /* \"#utility.yul\":1703:1726   */\n      sub\n        /* \"#utility.yul\":1699:1731   */\n      slt\n        /* \"#utility.yul\":1696:1815   */\n      iszero\n      tag_115\n      jumpi\n        /* \"#utility.yul\":1734:1813   */\n      tag_116\n      tag_75\n      jump\t// in\n    tag_116:\n        /* \"#utility.yul\":1696:1815   */\n    tag_115:\n        /* \"#utility.yul\":1854:1855   */\n      0x00\n        /* \"#utility.yul\":1879:1932   */\n      tag_117\n        /* \"#utility.yul\":1924:1931   */\n      dup5\n        /* \"#utility.yul\":1915:1921   */\n      dup3\n        /* \"#utility.yul\":1904:1913   */\n      dup6\n        /* \"#utility.yul\":1900:1922   */\n      add\n        /* \"#utility.yul\":1879:1932   */\n      tag_78\n      jump\t// in\n    tag_117:\n        /* \"#utility.yul\":1869:1932   */\n      swap2\n      pop\n        /* \"#utility.yul\":1825:1942   */\n      pop\n        /* \"#utility.yul\":1620:1949   */\n      swap3\n      swap2\n      pop\n      pop\n      jump\t// out\n        /* \"#utility.yul\":1955:2032   */\n    tag_79:\n        /* \"#utility.yul\":1992:1999   */\n      0x00\n        /* \"#utility.yul\":2021:2026   */\n      dup2\n        /* \"#utility.yul\":2010:2026   */\n      swap1\n      pop\n        /* \"#utility.yul\":1955:2032   */\n      swap2\n      swap1\n      pop\n      jump\t// out\n        /* \"#utility.yul\":2038:2156   */\n    tag_80:\n        /* \"#utility.yul\":2125:2149   */\n      tag_120\n        /* \"#utility.yul\":2143:2148   */\n      dup2\n        /* \"#utility.yul\":2125:2149   */\n      tag_79\n      jump\t// in\n    tag_120:\n        /* \"#utility.yul\":2120:2123   */\n      dup3\n        /* \"#utility.yul\":2113:2150   */\n      mstore\n        /* \"#utility.yul\":2038:2156   */\n      pop\n      pop\n      jump\t// out\n        /* \"#utility.yul\":2162:2384   */\n    tag_36:\n        /* \"#utility.yul\":2255:2259   */\n      0x00\n        /* \"#utility.yul\":2293:2295   */\n      0x20\n        /* \"#utility.yul\":2282:2291   */\n      dup3\n        /* \"#utility.yul\":2278:2296   */\n      add\n        /* \"#utility.yul\":2270:2296   */\n      swap1\n      pop\n        /* \"#utility.yul\":2306:2377   */\n      tag_122\n        /* \"#utility.yul\":2374:2375   */\n      0x00\n        /* \"#utility.yul\":2363:2372   */\n      dup4\n        /* \"#utility.yul\":2359:2376   */\n      add\n        /* \"#utility.yul\":2350:2356   */\n      dup5\n        /* \"#utility.yul\":2306:2377   */\n      tag_80\n      jump\t// in\n    tag_122:\n        /* \"#utility.yul\":2162:2384   */\n      swap3\n      swap2\n      pop\n      pop\n      jump\t// out\n        /* \"#utility.yul\":2390:2559   */\n    tag_81:\n        /* \"#utility.yul\":2474:2485   */\n      0x00\n        /* \"#utility.yul\":2508:2514   */\n      dup3\n        /* \"#utility.yul\":2503:2506   */\n      dup3\n        /* \"#utility.yul\":2496:2515   */\n      mstore\n        /* \"#utility.yul\":2548:2552   */\n      0x20\n        /* \"#utility.yul\":2543:2546   */\n      dup3\n        /* \"#utility.yul\":2539:2553   */\n      add\n        /* \"#utility.yul\":2524:2553   */\n      swap1\n      pop\n        /* \"#utility.yul\":2390:2559   */\n      swap3\n      swap2\n      pop\n      pop\n      jump\t// out\n        /* \"#utility.yul\":2565:2734   */\n    tag_82:\n        /* \"#utility.yul\":2705:2726   */\n      0x4e6f7468696e6720746f20776974686472617700000000000000000000000000\n        /* \"#utility.yul\":2701:2702   */\n      0x00\n        /* \"#utility.yul\":2693:2699   */\n      dup3\n        /* \"#utility.yul\":2689:2703   */\n      add\n        /* \"#utility.yul\":2682:2727   */\n      mstore\n        /* \"#utility.yul\":2565:2734   */\n      pop\n      jump\t// out\n        /* \"#utility.yul\":2740:3106   */\n    tag_83:\n        /* \"#utility.yul\":2882:2885   */\n      0x00\n        /* \"#utility.yul\":2903:2970   */\n      tag_126\n        /* \"#utility.yul\":2967:2969   */\n      0x13\n        /* \"#utility.yul\":2962:2965   */\n      dup4\n        /* \"#utility.yul\":2903:2970   */\n      tag_81\n      jump\t// in\n    tag_126:\n        /* \"#utility.yul\":2896:2970   */\n      swap2\n      pop\n        /* \"#utility.yul\":2979:3072   */\n      tag_127\n        /* \"#utility.yul\":3068:3071   */\n      dup3\n        /* \"#utility.yul\":2979:3072   */\n      tag_82\n      jump\t// in\n    tag_127:\n        /* \"#utility.yul\":3097:3099   */\n      0x20\n        /* \"#utility.yul\":3092:3095   */\n      dup3\n        /* \"#utility.yul\":3088:3100   */\n      add\n        /* \"#utility.yul\":3081:3100   */\n      swap1\n      pop\n        /* \"#utility.yul\":2740:3106   */\n      swap2\n      swap1\n      pop\n      jump\t// out\n        /* \"#utility.yul\":3112:3531   */\n    tag_47:\n        /* \"#utility.yul\":3278:3282   */\n      0x00\n        /* \"#utility.yul\":3316:3318   */\n      0x20\n        /* \"#utility.yul\":3305:3314   */\n      dup3\n        /* \"#utility.yul\":3301:3319   */\n      add\n        /* \"#utility.yul\":3293:3319   */\n      swap1\n      pop\n        /* \"#utility.yul\":3365:3374   */\n      dup2\n        /* \"#utility.yul\":3359:3363   */\n      dup2\n        /* \"#utility.yul\":3355:3375   */\n      sub\n        /* \"#utility.yul\":3351:3352   */\n      0x00\n        /* \"#utility.yul\":3340:3349   */\n      dup4\n        /* \"#utility.yul\":3336:3353   */\n      add\n        /* \"#utility.yul\":3329:3376   */\n      mstore\n        /* \"#utility.yul\":3393:3524   */\n      tag_129\n        /* \"#utility.yul\":3519:3523   */\n      dup2\n        /* \"#utility.yul\":3393:3524   */\n      tag_83\n      jump\t// in\n    tag_129:\n        /* \"#utility.yul\":3385:3524   */\n      swap1\n      pop\n        /* \"#utility.yul\":3112:3531   */\n      swap2\n      swap1\n      pop\n      jump\t// out\n        /* \"#utility.yul\":3537:3700   */\n    tag_84:\n        /* \"#utility.yul\":3677:3692   */\n      0x41756374696f6e20656e64656400000000000000000000000000000000000000\n        /* \"#utility.yul\":3673:3674   */\n      0x00\n        /* \"#utility.yul\":3665:3671   */\n      dup3\n        /* \"#utility.yul\":3661:3675   */\n      add\n        /* \"#utility.yul\":3654:3693   */\n      mstore\n        /* \"#utility.yul\":3537:3700   */\n      pop\n      jump\t// out\n        /* \"#utility.yul\":3706:4072   */\n    tag_85:\n        /* \"#utility.yul\":3848:3851   */\n      0x00\n        /* \"#utility.yul\":3869:3936   */\n      tag_132\n        /* \"#utility.yul\":3933:3935   */\n      0x0d\n        /* \"#utility.yul\":3928:3931   */\n      dup4\n        /* \"#utility.yul\":3869:3936   */\n      tag_81\n      jump\t// in\n    tag_132:\n        /* \"#utility.yul\":3862:3936   */\n      swap2\n      pop\n        /* \"#utility.yul\":3945:4038   */\n      tag_133\n        /* \"#utility.yul\":4034:4037   */\n      dup3\n        /* \"#utility.yul\":3945:4038   */\n      tag_84\n      jump\t// in\n    tag_133:\n        /* \"#utility.yul\":4063:4065   */\n      0x20\n        /* \"#utility.yul\":4058:4061   */\n      dup3\n        /* \"#utility.yul\":4054:4066   */\n      add\n        /* \"#utility.yul\":4047:4066   */\n      swap1\n      pop\n        /* \"#utility.yul\":3706:4072   */\n      swap2\n      swap1\n      pop\n      jump\t// out\n        /* \"#utility.yul\":4078:4497   */\n    tag_53:\n        /* \"#utility.yul\":4244:4248   */\n      0x00\n        /* \"#utility.yul\":4282:4284   */\n      0x20\n        /* \"#utility.yul\":4271:4280   */\n      dup3\n        /* \"#utility.yul\":4267:4285   */\n      add\n        /* \"#utility.yul\":4259:4285   */\n      swap1\n      pop\n        /* \"#utility.yul\":4331:4340   */\n      dup2\n        /* \"#utility.yul\":4325:4329   */\n      dup2\n        /* \"#utility.yul\":4321:4341   */\n      sub\n        /* \"#utility.yul\":4317:4318   */\n      0x00\n        /* \"#utility.yul\":4306:4315   */\n      dup4\n        /* \"#utility.yul\":4302:4319   */\n      add\n        /* \"#utility.yul\":4295:4342   */\n      mstore\n        /* \"#utility.yul\":4359:4490   */\n      tag_135\n        /* \"#utility.yul\":4485:4489   */\n      dup2\n        /* \"#utility.yul\":4359:4490   */\n      tag_85\n      jump\t// in\n    tag_135:\n        /* \"#utility.yul\":4351:4490   */\n      swap1\n      pop\n        /* \"#utility.yul\":4078:4497   */\n      swap2\n      swap1\n      pop\n      jump\t// out\n        /* \"#utility.yul\":4503:4664   */\n    tag_86:\n        /* \"#utility.yul\":4643:4656   */\n      0x42696420746f6f206c6f77000000000000000000000000000000000000000000\n        /* \"#utility.yul\":4639:4640   */\n      0x00\n        /* \"#utility.yul\":4631:4637   */\n      dup3\n        /* \"#utility.yul\":4627:4641   */\n      add\n        /* \"#utility.yul\":4620:4657   */\n      mstore\n        /* \"#utility.yul\":4503:4664   */\n      pop\n      jump\t// out\n        /* \"#utility.yul\":4670:5036   */\n    tag_87:\n        /* \"#utility.yul\":4812:4815   */\n      0x00\n        /* \"#utility.yul\":4833:4900   */\n      tag_138\n        /* \"#utility.yul\":4897:4899   */\n      0x0b\n        /* \"#utility.yul\":4892:4895   */\n      dup4\n        /* \"#utility.yul\":4833:4900   */\n      tag_81\n      jump\t// in\n    tag_138:\n        /* \"#utility.yul\":4826:4900   */\n      swap2\n      pop\n        /* \"#utility.yul\":4909:5002   */\n      tag_139\n        /* \"#utility.yul\":4998:5001   */\n      dup3\n        /* \"#utility.yul\":4909:5002   */\n      tag_86\n      jump\t// in\n    tag_139:\n        /* \"#utility.yul\":5027:5029   */\n      0x20\n        /* \"#utility.yul\":5022:5025   */\n      dup3\n        /* \"#utility.yul\":5018:5030   */\n      add\n        /* \"#utility.yul\":5011:5030   */\n      swap1\n      pop\n        /* \"#utility.yul\":4670:5036   */\n      swap2\n      swap1\n      pop\n      jump\t// out\n        /* \"#utility.yul\":5042:5461   */\n    tag_56:\n        /* \"#utility.yul\":5208:5212   */\n      0x00\n        /* \"#utility.yul\":5246:5248   */\n      0x20\n        /* \"#utility.yul\":5235:5244   */\n      dup3\n        /* \"#utility.yul\":5231:5249   */\n      add\n        /* \"#utility.yul\":5223:5249   */\n      swap1\n      pop\n        /* \"#utility.yul\":5295:5304   */\n      dup2\n        /* \"#utility.yul\":5289:5293   */\n      dup2\n        /* \"#utility.yul\":5285:5305   */\n      sub\n        /* \"#utility.yul\":5281:5282   */\n      0x00\n        /* \"#utility.yul\":5270:5279   */\n      dup4\n        /* \"#utility.yul\":5266:5283   */\n      add\n        /* \"#utility.yul\":5259:5306   */\n      mstore\n        /* \"#utility.yul\":5323:5454   */\n      tag_141\n        /* \"#utility.yul\":5449:5453   */\n      dup2\n        /* \"#utility.yul\":5323:5454   */\n      tag_87\n      jump\t// in\n    tag_141:\n        /* \"#utility.yul\":5315:5454   */\n      swap1\n      pop\n        /* \"#utility.yul\":5042:5461   */\n      swap2\n      swap1\n      pop\n      jump\t// out\n        /* \"#utility.yul\":5467:5647   */\n    tag_88:\n        /* \"#utility.yul\":5515:5592   */\n      0x4e487b7100000000000000000000000000000000000000000000000000000000\n        /* \"#utility.yul\":5512:5513   */\n      0x00\n        /* \"#utility.yul\":5505:5593   */\n      mstore\n        /* \"#utility.yul\":5612:5616   */\n      0x11\n        /* \"#utility.yul\":5609:5610   */\n      0x04\n        /* \"#utility.yul\":5602:5617   */\n      mstore\n        /* \"#utility.yul\":5636:5640   */\n      0x24\n        /* \"#utility.yul\":5633:5634   */\n      0x00\n        /* \"#utility.yul\":5626:5641   */\n      revert\n        /* \"#utility.yul\":5653:5844   */\n    tag_59:\n        /* \"#utility.yul\":5693:5696   */\n      0x00\n        /* \"#utility.yul\":5712:5732   */\n      tag_144\n        /* \"#utility.yul\":5730:5731   */\n      dup3\n        /* \"#utility.yul\":5712:5732   */\n      tag_79\n      jump\t// in\n    tag_144:\n        /* \"#utility.yul\":5707:5732   */\n      swap2\n      pop\n        /* \"#utility.yul\":5746:5766   */\n      tag_145\n        /* \"#utility.yul\":5764:5765   */\n      dup4\n        /* \"#utility.yul\":5746:5766   */\n      tag_79\n      jump\t// in\n    tag_145:\n        /* \"#utility.yul\":5741:5766   */\n      swap3\n      pop\n        /* \"#utility.yul\":5789:5790   */\n      dup3\n        /* \"#utility.yul\":5786:5787   */\n      dup3\n        /* \"#utility.yul\":5782:5791   */\n      add\n        /* \"#utility.yul\":5775:5791   */\n      swap1\n      pop\n        /* \"#utility.yul\":5810:5813   */\n      dup1\n        /* \"#utility.yul\":5807:5808   */\n      dup3\n        /* \"#utility.yul\":5804:5814   */\n      gt\n        /* \"#utility.yul\":5801:5837   */\n      iszero\n      tag_146\n      jumpi\n        /* \"#utility.yul\":5817:5835   */\n      tag_147\n      tag_88\n      jump\t// in\n    tag_147:\n        /* \"#utility.yul\":5801:5837   */\n    tag_146:\n        /* \"#utility.yul\":5653:5844   */\n      swap3\n      swap2\n      pop\n      pop\n      jump\t// out\n        /* \"#utility.yul\":5850:6009   */\n    tag_89:\n        /* \"#utility.yul\":5990:6001   */\n      0x4e6f74206f776e65720000000000000000000000000000000000000000000000\n        /* \"#utility.yul\":5986:5987   */\n      0x00\n        /* \"#utility.yul\":5978:5984   */\n      dup3\n        /* \"#utility.yul\":5974:5988   */\n      add\n        /* \"#utility.yul\":5967:6002   */\n      mstore\n        /* \"#utility.yul\":5850:6009   */\n      pop\n      jump\t// out\n        /* \"#utility.yul\":6015:6380   */\n    tag_90:\n        /* \"#utility.yul\":6157:6160   */\n      0x00\n        /* \"#utility.yul\":6178:6244   */\n      tag_150\n        /* \"#utility.yul\":6242:6243   */\n      0x09\n        /* \"#utility.yul\":6237:6240   */\n      dup4\n        /* \"#utility.yul\":6178:6244   */\n      tag_81\n      jump\t// in\n    tag_150:\n        /* \"#utility.yul\":6171:6244   */\n      swap2\n      pop\n        /* \"#utility.yul\":6253:6346   */\n      tag_151\n        /* \"#utility.yul\":6342:6345   */\n      dup3\n        /* \"#utility.yul\":6253:6346   */\n      tag_89\n      jump\t// in\n    tag_151:\n        /* \"#utility.yul\":6371:6373   */\n      0x20\n        /* \"#utility.yul\":6366:6369   */\n      dup3\n        /* \"#utility.yul\":6362:6374   */\n      add\n        /* \"#utility.yul\":6355:6374   */\n      swap1\n      pop\n        /* \"#utility.yul\":6015:6380   */\n      swap2\n      swap1\n      pop\n      jump\t// out\n        /* \"#utility.yul\":6386:6805   */\n    tag_63:\n        /* \"#utility.yul\":6552:6556   */\n      0x00\n        /* \"#utility.yul\":6590:6592   */\n      0x20\n        /* \"#utility.yul\":6579:6588   */\n      dup3\n        /* \"#utility.yul\":6575:6593   */\n      add\n        /* \"#utility.yul\":6567:6593   */\n      swap1\n      pop\n        /* \"#utility.yul\":6639:6648   */\n      dup2\n        /* \"#utility.yul\":6633:6637   */\n      dup2\n        /* \"#utility.yul\":6629:6649   */\n      sub\n        /* \"#utility.yul\":6625:6626   */\n      0x00\n        /* \"#utility.yul\":6614:6623   */\n      dup4\n        /* \"#utility.yul\":6610:6627   */\n      add\n        /* \"#utility.yul\":6603:6650   */\n      mstore\n        /* \"#utility.yul\":6667:6798   */\n      tag_153\n        /* \"#utility.yul\":6793:6797   */\n      dup2\n        /* \"#utility.yul\":6667:6798   */\n      tag_90\n      jump\t// in\n    tag_153:\n        /* \"#utility.yul\":6659:6798   */\n      swap1\n      pop\n        /* \"#utility.yul\":6386:6805   */\n      swap2\n      swap1\n      pop\n      jump\t// out\n        /* \"#utility.yul\":6811:6974   */\n    tag_91:\n        /* \"#utility.yul\":6951:6966   */\n      0x416c726561647920656e64656400000000000000000000000000000000000000\n        /* \"#utility.yul\":6947:6948   */\n      0x00\n        /* \"#utility.yul\":6939:6945   */\n      dup3\n        /* \"#utility.yul\":6935:6949   */\n      add\n        /* \"#utility.yul\":6928:6967   */\n      mstore\n        /* \"#utility.yul\":6811:6974   */\n      pop\n      jump\t// out\n        /* \"#utility.yul\":6980:7346   */\n    tag_92:\n        /* \"#utility.yul\":7122:7125   */\n      0x00\n        /* \"#utility.yul\":7143:7210   */\n      tag_156\n        /* \"#utility.yul\":7207:7209   */\n      0x0d\n        /* \"#utility.yul\":7202:7205   */\n      dup4\n        /* \"#utility.yul\":7143:7210   */\n      tag_81\n      jump\t// in\n    tag_156:\n        /* \"#utility.yul\":7136:7210   */\n      swap2\n      pop\n        /* \"#utility.yul\":7219:7312   */\n      tag_157\n        /* \"#utility.yul\":7308:7311   */\n      dup3\n        /* \"#utility.yul\":7219:7312   */\n      tag_91\n      jump\t// in\n    tag_157:\n        /* \"#utility.yul\":7337:7339   */\n      0x20\n        /* \"#utility.yul\":7332:7335   */\n      dup3\n        /* \"#utility.yul\":7328:7340   */\n      add\n        /* \"#utility.yul\":7321:7340   */\n      swap1\n      pop\n        /* \"#utility.yul\":6980:7346   */\n      swap2\n      swap1\n      pop\n      jump\t// out\n        /* \"#utility.yul\":7352:7771   */\n    tag_66:\n        /* \"#utility.yul\":7518:7522   */\n      0x00\n        /* \"#utility.yul\":7556:7558   */\n      0x20\n        /* \"#utility.yul\":7545:7554   */\n      dup3\n        /* \"#utility.yul\":7541:7559   */\n      add\n        /* \"#utility.yul\":7533:7559   */\n      swap1\n      pop\n        /* \"#utility.yul\":7605:7614   */\n      dup2\n        /* \"#utility.yul\":7599:7603   */\n      dup2\n        /* \"#utility.yul\":7595:7615   */\n      sub\n        /* \"#utility.yul\":7591:7592   */\n      0x00\n        /* \"#utility.yul\":7580:7589   */\n      dup4\n        /* \"#utility.yul\":7576:7593   */\n      add\n        /* \"#utility.yul\":7569:7616   */\n      mstore\n        /* \"#utility.yul\":7633:7764   */\n      tag_159\n        /* \"#utility.yul\":7759:7763   */\n      dup2\n        /* \"#utility.yul\":7633:7764   */\n      tag_92\n      jump\t// in\n    tag_159:\n        /* \"#utility.yul\":7625:7764   */\n      swap1\n      pop\n        /* \"#utility.yul\":7352:7771   */\n      swap2\n      swap1\n      pop\n      jump\t// out\n\n    auxdata: 0xa26469706673582212201c316c218e61714f4eaf4d84e5d02cef0472bbef18ca59458d8f33ef63275e7664736f6c63430008180033\n}\n",
				"bytecode": {
					"linkReferences": {},
					"object": "608060405234801561000f575f80fd5b503360025f6101000a81548173ffffffffffffffffffffffffffffffffffffffff021916908373ffffffffffffffffffffffffffffffffffffffff16021790555061099c8061005d5f395ff3fe60806040526004361061007a575f3560e01c806391f901571161004d57806391f90157146100f2578063bc3da5351461011c578063d57bde7914610158578063fe67a54b146101825761007a565b8063110f88741461007e57806312fa6feb146100945780631998aeef146100be5780638da5cb5b146100c8575b5f80fd5b348015610089575f80fd5b50610092610198565b005b34801561009f575f80fd5b506100a86102a4565b6040516100b591906105f3565b60405180910390f35b6100c66102b7565b005b3480156100d3575f80fd5b506100dc610413565b6040516100e9919061064b565b60405180910390f35b3480156100fd575f80fd5b50610106610438565b604051610113919061064b565b60405180910390f35b348015610127575f80fd5b50610142600480360381019061013d9190610692565b61045b565b60405161014f91906106d5565b60405180910390f35b348015610163575f80fd5b5061016c610470565b60405161017991906106d5565b60405180910390f35b34801561018d575f80fd5b50610196610476565b005b5f60035f3373ffffffffffffffffffffffffffffffffffffffff1673ffffffffffffffffffffffffffffffffffffffff1681526020019081526020015f205490505f811161021b576040517f08c379a000000000000000000000000000000000000000000000000000000000815260040161021290610748565b60405180910390fd5b5f60035f3373ffffffffffffffffffffffffffffffffffffffff1673ffffffffffffffffffffffffffffffffffffffff1681526020019081526020015f20819055503373ffffffffffffffffffffffffffffffffffffffff166108fc8290811502906040515f60405180830381858888f193505050501580156102a0573d5f803e3d5ffd5b5050565b600260149054906101000a900460ff1681565b600260149054906101000a900460ff1615610307576040517f08c379a00000000000000000000000000000000000000000000000000000000081526004016102fe906107b0565b60405180910390fd5b600154341161034b576040517f08c379a000000000000000000000000000000000000000000000000000000000815260040161034290610818565b60405180910390fd5b5f60015411156103cb5760015460035f805f9054906101000a900473ffffffffffffffffffffffffffffffffffffffff1673ffffffffffffffffffffffffffffffffffffffff1673ffffffffffffffffffffffffffffffffffffffff1681526020019081526020015f205f8282546103c39190610863565b925050819055505b335f806101000a81548173ffffffffffffffffffffffffffffffffffffffff021916908373ffffffffffffffffffffffffffffffffffffffff16021790555034600181905550565b60025f9054906101000a900473ffffffffffffffffffffffffffffffffffffffff1681565b5f8054906101000a900473ffffffffffffffffffffffffffffffffffffffff1681565b6003602052805f5260405f205f915090505481565b60015481565b60025f9054906101000a900473ffffffffffffffffffffffffffffffffffffffff1673ffffffffffffffffffffffffffffffffffffffff163373ffffffffffffffffffffffffffffffffffffffff1614610505576040517f08c379a00000000000000000000000000000000000000000000000000000000081526004016104fc906108e0565b60405180910390fd5b600260149054906101000a900460ff1615610555576040517f08c379a000000000000000000000000000000000000000000000000000000000815260040161054c90610948565b60405180910390fd5b6001600260146101000a81548160ff02191690831515021790555060025f9054906101000a900473ffffffffffffffffffffffffffffffffffffffff1673ffffffffffffffffffffffffffffffffffffffff166108fc60015490811502906040515f60405180830381858888f193505050501580156105d6573d5f803e3d5ffd5b50565b5f8115159050919050565b6105ed816105d9565b82525050565b5f6020820190506106065f8301846105e4565b92915050565b5f73ffffffffffffffffffffffffffffffffffffffff82169050919050565b5f6106358261060c565b9050919050565b6106458161062b565b82525050565b5f60208201905061065e5f83018461063c565b92915050565b5f80fd5b6106718161062b565b811461067b575f80fd5b50565b5f8135905061068c81610668565b92915050565b5f602082840312156106a7576106a6610664565b5b5f6106b48482850161067e565b91505092915050565b5f819050919050565b6106cf816106bd565b82525050565b5f6020820190506106e85f8301846106c6565b92915050565b5f82825260208201905092915050565b7f4e6f7468696e6720746f207769746864726177000000000000000000000000005f82015250565b5f6107326013836106ee565b915061073d826106fe565b602082019050919050565b5f6020820190508181035f83015261075f81610726565b9050919050565b7f41756374696f6e20656e646564000000000000000000000000000000000000005f82015250565b5f61079a600d836106ee565b91506107a582610766565b602082019050919050565b5f6020820190508181035f8301526107c78161078e565b9050919050565b7f42696420746f6f206c6f770000000000000000000000000000000000000000005f82015250565b5f610802600b836106ee565b915061080d826107ce565b602082019050919050565b5f6020820190508181035f83015261082f816107f6565b9050919050565b7f4e487b71000000000000000000000000000000000000000000000000000000005f52601160045260245ffd5b5f61086d826106bd565b9150610878836106bd565b92508282019050808211156108905761088f610836565b5b92915050565b7f4e6f74206f776e657200000000000000000000000000000000000000000000005f82015250565b5f6108ca6009836106ee565b91506108d582610896565b602082019050919050565b5f6020820190508181035f8301526108f7816108be565b9050919050565b7f416c726561647920656e646564000000000000000000000000000000000000005f82015250565b5f610932600d836106ee565b915061093d826108fe565b602082019050919050565b5f6020820190508181035f83015261095f81610926565b905091905056fea26469706673582212201c316c218e61714f4eaf4d84e5d02cef0472bbef18ca59458d8f33ef63275e7664736f6c63430008180033",
					"opcodes": "PUSH1 0x80 PUSH1 0x40 MSTORE CALLVALUE DUP1 ISZERO PUSH2 0xF JUMPI PUSH0 DUP1 REVERT JUMPDEST POP CALLER PUSH1 0x2 PUSH0 PUSH2 0x100 EXP DUP2 SLOAD DUP2 PUSH20 0xFFFFFFFFFFFFFFFFFFFFFFFFFFFFFFFFFFFFFFFF MUL NOT AND SWAP1 DUP4 PUSH20 0xFFFFFFFFFFFFFFFFFFFFFFFFFFFFFFFFFFFFFFFF AND MUL OR SWAP1 SSTORE POP PUSH2 0x99C DUP1 PUSH2 0x5D PUSH0 CODECOPY PUSH0 RETURN INVALID PUSH1 0x80 PUSH1 0x40 MSTORE PUSH1 0x4 CALLDATASIZE LT PUSH2 0x7A JUMPI PUSH0 CALLDATALOAD PUSH1 0xE0 SHR DUP1 PUSH4 0x91F90157 GT PUSH2 0x4D JUMPI DUP1 PUSH4 0x91F90157 EQ PUSH2 0xF2 JUMPI DUP1 PUSH4 0xBC3DA535 EQ PUSH2 0x11C JUMPI DUP1 PUSH4 0xD57BDE79 EQ PUSH2 0x158 JUMPI DUP1 PUSH4 0xFE67A54B EQ PUSH2 0x182 JUMPI PUSH2 0x7A JUMP JUMPDEST DUP1 PUSH4 0x110F8874 EQ PUSH2 0x7E JUMPI DUP1 PUSH4 0x12FA6FEB EQ PUSH2 0x94 JUMPI DUP1 PUSH4 0x1998AEEF EQ PUSH2 0xBE JUMPI DUP1 PUSH4 0x8DA5CB5B EQ PUSH2 0xC8 JUMPI JUMPDEST PUSH0 DUP1 REVERT JUMPDEST CALLVALUE DUP1 ISZERO PUSH2 0x89 JUMPI PUSH0 DUP1 REVERT JUMPDEST POP PUSH2 0x92 PUSH2 0x198 JUMP JUMPDEST STOP JUMPDEST CALLVALUE DUP1 ISZERO PUSH2 0x9F JUMPI PUSH0 DUP1 REVERT JUMPDEST POP PUSH2 0xA8 PUSH2 0x2A4 JUMP JUMPDEST PUSH1 0x40 MLOAD PUSH2 0xB5 SWAP2 SWAP1 PUSH2 0x5F3 JUMP JUMPDEST PUSH1 0x40 MLOAD DUP1 SWAP2 SUB SWAP1 RETURN JUMPDEST PUSH2 0xC6 PUSH2 0x2B7 JUMP JUMPDEST STOP JUMPDEST CALLVALUE DUP1 ISZERO PUSH2 0xD3 JUMPI PUSH0 DUP1 REVERT JUMPDEST POP PUSH2 0xDC PUSH2 0x413 JUMP JUMPDEST PUSH1 0x40 MLOAD PUSH2 0xE9 SWAP2 SWAP1 PUSH2 0x64B JUMP JUMPDEST PUSH1 0x40 MLOAD DUP1 SWAP2 SUB SWAP1 RETURN JUMPDEST CALLVALUE DUP1 ISZERO PUSH2 0xFD JUMPI PUSH0 DUP1 REVERT JUMPDEST POP PUSH2 0x106 PUSH2 0x438 JUMP JUMPDEST PUSH1 0x40 MLOAD PUSH2 0x113 SWAP2 SWAP1 PUSH2 0x64B JUMP JUMPDEST PUSH1 0x40 MLOAD DUP1 SWAP2 SUB SWAP1 RETURN JUMPDEST CALLVALUE DUP1 ISZERO PUSH2 0x127 JUMPI PUSH0 DUP1 REVERT JUMPDEST POP PUSH2 0x142 PUSH1 0x4 DUP1 CALLDATASIZE SUB DUP2 ADD SWAP1 PUSH2 0x13D SWAP2 SWAP1 PUSH2 0x692 JUMP JUMPDEST PUSH2 0x45B JUMP JUMPDEST PUSH1 0x40 MLOAD PUSH2 0x14F SWAP2 SWAP1 PUSH2 0x6D5 JUMP JUMPDEST PUSH1 0x40 MLOAD DUP1 SWAP2 SUB SWAP1 RETURN JUMPDEST CALLVALUE DUP1 ISZERO PUSH2 0x163 JUMPI PUSH0 DUP1 REVERT JUMPDEST POP PUSH2 0x16C PUSH2 0x470 JUMP JUMPDEST PUSH1 0x40 MLOAD PUSH2 0x179 SWAP2 SWAP1 PUSH2 0x6D5 JUMP JUMPDEST PUSH1 0x40 MLOAD DUP1 SWAP2 SUB SWAP1 RETURN JUMPDEST CALLVALUE DUP1 ISZERO PUSH2 0x18D JUMPI PUSH0 DUP1 REVERT JUMPDEST POP PUSH2 0x196 PUSH2 0x476 JUMP JUMPDEST STOP JUMPDEST PUSH0 PUSH1 0x3 PUSH0 CALLER PUSH20 0xFFFFFFFFFFFFFFFFFFFFFFFFFFFFFFFFFFFFFFFF AND PUSH20 0xFFFFFFFFFFFFFFFFFFFFFFFFFFFFFFFFFFFFFFFF AND DUP2 MSTORE PUSH1 0x20 ADD SWAP1 DUP2 MSTORE PUSH1 0x20 ADD PUSH0 KECCAK256 SLOAD SWAP1 POP PUSH0 DUP2 GT PUSH2 0x21B JUMPI PUSH1 0x40 MLOAD PUSH32 0x8C379A000000000000000000000000000000000000000000000000000000000 DUP2 MSTORE PUSH1 0x4 ADD PUSH2 0x212 SWAP1 PUSH2 0x748 JUMP JUMPDEST PUSH1 0x40 MLOAD DUP1 SWAP2 SUB SWAP1 REVERT JUMPDEST PUSH0 PUSH1 0x3 PUSH0 CALLER PUSH20 0xFFFFFFFFFFFFFFFFFFFFFFFFFFFFFFFFFFFFFFFF AND PUSH20 0xFFFFFFFFFFFFFFFFFFFFFFFFFFFFFFFFFFFFFFFF AND DUP2 MSTORE PUSH1 0x20 ADD SWAP1 DUP2 MSTORE PUSH1 0x20 ADD PUSH0 KECCAK256 DUP2 SWAP1 SSTORE POP CALLER PUSH20 0xFFFFFFFFFFFFFFFFFFFFFFFFFFFFFFFFFFFFFFFF AND PUSH2 0x8FC DUP3 SWAP1 DUP2 ISZERO MUL SWAP1 PUSH1 0x40 MLOAD PUSH0 PUSH1 0x40 MLOAD DUP1 DUP4 SUB DUP2 DUP6 DUP9 DUP9 CALL SWAP4 POP POP POP POP ISZERO DUP1 ISZERO PUSH2 0x2A0 JUMPI RETURNDATASIZE PUSH0 DUP1 RETURNDATACOPY RETURNDATASIZE PUSH0 REVERT JUMPDEST POP POP JUMP JUMPDEST PUSH1 0x2 PUSH1 0x14 SWAP1 SLOAD SWAP1 PUSH2 0x100 EXP SWAP1 DIV PUSH1 0xFF AND DUP2 JUMP JUMPDEST PUSH1 0x2 PUSH1 0x14 SWAP1 SLOAD SWAP1 PUSH2 0x100 EXP SWAP1 DIV PUSH1 0xFF AND ISZERO PUSH2 0x307 JUMPI PUSH1 0x40 MLOAD PUSH32 0x8C379A000000000000000000000000000000000000000000000000000000000 DUP2 MSTORE PUSH1 0x4 ADD PUSH2 0x2FE SWAP1 PUSH2 0x7B0 JUMP JUMPDEST PUSH1 0x40 MLOAD DUP1 SWAP2 SUB SWAP1 REVERT JUMPDEST PUSH1 0x1 SLOAD CALLVALUE GT PUSH2 0x34B JUMPI PUSH1 0x40 MLOAD PUSH32 0x8C379A000000000000000000000000000000000000000000000000000000000 DUP2 MSTORE PUSH1 0x4 ADD PUSH2 0x342 SWAP1 PUSH2 0x818 JUMP JUMPDEST PUSH1 0x40 MLOAD DUP1 SWAP2 SUB SWAP1 REVERT JUMPDEST PUSH0 PUSH1 0x1 SLOAD GT ISZERO PUSH2 0x3CB JUMPI PUSH1 0x1 SLOAD PUSH1 0x3 PUSH0 DUP1 PUSH0 SWAP1 SLOAD SWAP1 PUSH2 0x100 EXP SWAP1 DIV PUSH20 0xFFFFFFFFFFFFFFFFFFFFFFFFFFFFFFFFFFFFFFFF AND PUSH20 0xFFFFFFFFFFFFFFFFFFFFFFFFFFFFFFFFFFFFFFFF AND PUSH20 0xFFFFFFFFFFFFFFFFFFFFFFFFFFFFFFFFFFFFFFFF AND DUP2 MSTORE PUSH1 0x20 ADD SWAP1 DUP2 MSTORE PUSH1 0x20 ADD PUSH0 KECCAK256 PUSH0 DUP3 DUP3 SLOAD PUSH2 0x3C3 SWAP2 SWAP1 PUSH2 0x863 JUMP JUMPDEST SWAP3 POP POP DUP2 SWAP1 SSTORE POP JUMPDEST CALLER PUSH0 DUP1 PUSH2 0x100 EXP DUP2 SLOAD DUP2 PUSH20 0xFFFFFFFFFFFFFFFFFFFFFFFFFFFFFFFFFFFFFFFF MUL NOT AND SWAP1 DUP4 PUSH20 0xFFFFFFFFFFFFFFFFFFFFFFFFFFFFFFFFFFFFFFFF AND MUL OR SWAP1 SSTORE POP CALLVALUE PUSH1 0x1 DUP2 SWAP1 SSTORE POP JUMP JUMPDEST PUSH1 0x2 PUSH0 SWAP1 SLOAD SWAP1 PUSH2 0x100 EXP SWAP1 DIV PUSH20 0xFFFFFFFFFFFFFFFFFFFFFFFFFFFFFFFFFFFFFFFF AND DUP2 JUMP JUMPDEST PUSH0 DUP1 SLOAD SWAP1 PUSH2 0x100 EXP SWAP1 DIV PUSH20 0xFFFFFFFFFFFFFFFFFFFFFFFFFFFFFFFFFFFFFFFF AND DUP2 JUMP JUMPDEST PUSH1 0x3 PUSH1 0x20 MSTORE DUP1 PUSH0 MSTORE PUSH1 0x40 PUSH0 KECCAK256 PUSH0 SWAP2 POP SWAP1 POP SLOAD DUP2 JUMP JUMPDEST PUSH1 0x1 SLOAD DUP2 JUMP JUMPDEST PUSH1 0x2 PUSH0 SWAP1 SLOAD SWAP1 PUSH2 0x100 EXP SWAP1 DIV PUSH20 0xFFFFFFFFFFFFFFFFFFFFFFFFFFFFFFFFFFFFFFFF AND PUSH20 0xFFFFFFFFFFFFFFFFFFFFFFFFFFFFFFFFFFFFFFFF AND CALLER PUSH20 0xFFFFFFFFFFFFFFFFFFFFFFFFFFFFFFFFFFFFFFFF AND EQ PUSH2 0x505 JUMPI PUSH1 0x40 MLOAD PUSH32 0x8C379A000000000000000000000000000000000000000000000000000000000 DUP2 MSTORE PUSH1 0x4 ADD PUSH2 0x4FC SWAP1 PUSH2 0x8E0 JUMP JUMPDEST PUSH1 0x40 MLOAD DUP1 SWAP2 SUB SWAP1 REVERT JUMPDEST PUSH1 0x2 PUSH1 0x14 SWAP1 SLOAD SWAP1 PUSH2 0x100 EXP SWAP1 DIV PUSH1 0xFF AND ISZERO PUSH2 0x555 JUMPI PUSH1 0x40 MLOAD PUSH32 0x8C379A000000000000000000000000000000000000000000000000000000000 DUP2 MSTORE PUSH1 0x4 ADD PUSH2 0x54C SWAP1 PUSH2 0x948 JUMP JUMPDEST PUSH1 0x40 MLOAD DUP1 SWAP2 SUB SWAP1 REVERT JUMPDEST PUSH1 0x1 PUSH1 0x2 PUSH1 0x14 PUSH2 0x100 EXP DUP2 SLOAD DUP2 PUSH1 0xFF MUL NOT AND SWAP1 DUP4 ISZERO ISZERO MUL OR SWAP1 SSTORE POP PUSH1 0x2 PUSH0 SWAP1 SLOAD SWAP1 PUSH2 0x100 EXP SWAP1 DIV PUSH20 0xFFFFFFFFFFFFFFFFFFFFFFFFFFFFFFFFFFFFFFFF AND PUSH20 0xFFFFFFFFFFFFFFFFFFFFFFFFFFFFFFFFFFFFFFFF AND PUSH2 0x8FC PUSH1 0x1 SLOAD SWAP1 DUP2 ISZERO MUL SWAP1 PUSH1 0x40 MLOAD PUSH0 PUSH1 0x40 MLOAD DUP1 DUP4 SUB DUP2 DUP6 DUP9 DUP9 CALL SWAP4 POP POP POP POP ISZERO DUP1 ISZERO PUSH2 0x5D6 JUMPI RETURNDATASIZE PUSH0 DUP1 RETURNDATACOPY RETURNDATASIZE PUSH0 REVERT JUMPDEST POP JUMP JUMPDEST PUSH0 DUP2 ISZERO ISZERO SWAP1 POP SWAP2 SWAP1 POP JUMP JUMPDEST PUSH2 0x5ED DUP2 PUSH2 0x5D9 JUMP JUMPDEST DUP3 MSTORE POP POP JUMP JUMPDEST PUSH0 PUSH1 0x20 DUP3 ADD SWAP1 POP PUSH2 0x606 PUSH0 DUP4 ADD DUP5 PUSH2 0x5E4 JUMP JUMPDEST SWAP3 SWAP2 POP POP JUMP JUMPDEST PUSH0 PUSH20 0xFFFFFFFFFFFFFFFFFFFFFFFFFFFFFFFFFFFFFFFF DUP3 AND SWAP1 POP SWAP2 SWAP1 POP JUMP JUMPDEST PUSH0 PUSH2 0x635 DUP3 PUSH2 0x60C JUMP JUMPDEST SWAP1 POP SWAP2 SWAP1 POP JUMP JUMPDEST PUSH2 0x645 DUP2 PUSH2 0x62B JUMP JUMPDEST DUP3 MSTORE POP POP JUMP JUMPDEST PUSH0 PUSH1 0x20 DUP3 ADD SWAP1 POP PUSH2 0x65E PUSH0 DUP4 ADD DUP5 PUSH2 0x63C JUMP JUMPDEST SWAP3 SWAP2 POP POP JUMP JUMPDEST PUSH0 DUP1 REVERT JUMPDEST PUSH2 0x671 DUP2 PUSH2 0x62B JUMP JUMPDEST DUP2 EQ PUSH2 0x67B JUMPI PUSH0 DUP1 REVERT JUMPDEST POP JUMP JUMPDEST PUSH0 DUP2 CALLDATALOAD SWAP1 POP PUSH2 0x68C DUP2 PUSH2 0x668 JUMP JUMPDEST SWAP3 SWAP2 POP POP JUMP JUMPDEST PUSH0 PUSH1 0x20 DUP3 DUP5 SUB SLT ISZERO PUSH2 0x6A7 JUMPI PUSH2 0x6A6 PUSH2 0x664 JUMP JUMPDEST JUMPDEST PUSH0 PUSH2 0x6B4 DUP5 DUP3 DUP6 ADD PUSH2 0x67E JUMP JUMPDEST SWAP2 POP POP SWAP3 SWAP2 POP POP JUMP JUMPDEST PUSH0 DUP2 SWAP1 POP SWAP2 SWAP1 POP JUMP JUMPDEST PUSH2 0x6CF DUP2 PUSH2 0x6BD JUMP JUMPDEST DUP3 MSTORE POP POP JUMP JUMPDEST PUSH0 PUSH1 0x20 DUP3 ADD SWAP1 POP PUSH2 0x6E8 PUSH0 DUP4 ADD DUP5 PUSH2 0x6C6 JUMP JUMPDEST SWAP3 SWAP2 POP POP JUMP JUMPDEST PUSH0 DUP3 DUP3 MSTORE PUSH1 0x20 DUP3 ADD SWAP1 POP SWAP3 SWAP2 POP POP JUMP JUMPDEST PUSH32 0x4E6F7468696E6720746F20776974686472617700000000000000000000000000 PUSH0 DUP3 ADD MSTORE POP JUMP JUMPDEST PUSH0 PUSH2 0x732 PUSH1 0x13 DUP4 PUSH2 0x6EE JUMP JUMPDEST SWAP2 POP PUSH2 0x73D DUP3 PUSH2 0x6FE JUMP JUMPDEST PUSH1 0x20 DUP3 ADD SWAP1 POP SWAP2 SWAP1 POP JUMP JUMPDEST PUSH0 PUSH1 0x20 DUP3 ADD SWAP1 POP DUP2 DUP2 SUB PUSH0 DUP4 ADD MSTORE PUSH2 0x75F DUP2 PUSH2 0x726 JUMP JUMPDEST SWAP1 POP SWAP2 SWAP1 POP JUMP JUMPDEST PUSH32 0x41756374696F6E20656E64656400000000000000000000000000000000000000 PUSH0 DUP3 ADD MSTORE POP JUMP JUMPDEST PUSH0 PUSH2 0x79A PUSH1 0xD DUP4 PUSH2 0x6EE JUMP JUMPDEST SWAP2 POP PUSH2 0x7A5 DUP3 PUSH2 0x766 JUMP JUMPDEST PUSH1 0x20 DUP3 ADD SWAP1 POP SWAP2 SWAP1 POP JUMP JUMPDEST PUSH0 PUSH1 0x20 DUP3 ADD SWAP1 POP DUP2 DUP2 SUB PUSH0 DUP4 ADD MSTORE PUSH2 0x7C7 DUP2 PUSH2 0x78E JUMP JUMPDEST SWAP1 POP SWAP2 SWAP1 POP JUMP JUMPDEST PUSH32 0x42696420746F6F206C6F77000000000000000000000000000000000000000000 PUSH0 DUP3 ADD MSTORE POP JUMP JUMPDEST PUSH0 PUSH2 0x802 PUSH1 0xB DUP4 PUSH2 0x6EE JUMP JUMPDEST SWAP2 POP PUSH2 0x80D DUP3 PUSH2 0x7CE JUMP JUMPDEST PUSH1 0x20 DUP3 ADD SWAP1 POP SWAP2 SWAP1 POP JUMP JUMPDEST PUSH0 PUSH1 0x20 DUP3 ADD SWAP1 POP DUP2 DUP2 SUB PUSH0 DUP4 ADD MSTORE PUSH2 0x82F DUP2 PUSH2 0x7F6 JUMP JUMPDEST SWAP1 POP SWAP2 SWAP1 POP JUMP JUMPDEST PUSH32 0x4E487B7100000000000000000000000000000000000000000000000000000000 PUSH0 MSTORE PUSH1 0x11 PUSH1 0x4 MSTORE PUSH1 0x24 PUSH0 REVERT JUMPDEST PUSH0 PUSH2 0x86D DUP3 PUSH2 0x6BD JUMP JUMPDEST SWAP2 POP PUSH2 0x878 DUP4 PUSH2 0x6BD JUMP JUMPDEST SWAP3 POP DUP3 DUP3 ADD SWAP1 POP DUP1 DUP3 GT ISZERO PUSH2 0x890 JUMPI PUSH2 0x88F PUSH2 0x836 JUMP JUMPDEST JUMPDEST SWAP3 SWAP2 POP POP JUMP JUMPDEST PUSH32 0x4E6F74206F776E65720000000000000000000000000000000000000000000000 PUSH0 DUP3 ADD MSTORE POP JUMP JUMPDEST PUSH0 PUSH2 0x8CA PUSH1 0x9 DUP4 PUSH2 0x6EE JUMP JUMPDEST SWAP2 POP PUSH2 0x8D5 DUP3 PUSH2 0x896 JUMP JUMPDEST PUSH1 0x20 DUP3 ADD SWAP1 POP SWAP2 SWAP1 POP JUMP JUMPDEST PUSH0 PUSH1 0x20 DUP3 ADD SWAP1 POP DUP2 DUP2 SUB PUSH0 DUP4 ADD MSTORE PUSH2 0x8F7 DUP2 PUSH2 0x8BE JUMP JUMPDEST SWAP1 POP SWAP2 SWAP1 POP JUMP JUMPDEST PUSH32 0x416C726561647920656E64656400000000000000000000000000000000000000 PUSH0 DUP3 ADD MSTORE POP JUMP JUMPDEST PUSH0 PUSH2 0x932 PUSH1 0xD DUP4 PUSH2 0x6EE JUMP JUMPDEST SWAP2 POP PUSH2 0x93D DUP3 PUSH2 0x8FE JUMP JUMPDEST PUSH1 0x20 DUP3 ADD SWAP1 POP SWAP2 SWAP1 POP JUMP JUMPDEST PUSH0 PUSH1 0x20 DUP3 ADD SWAP1 POP DUP2 DUP2 SUB PUSH0 DUP4 ADD MSTORE PUSH2 0x95F DUP2 PUSH2 0x926 JUMP JUMPDEST SWAP1 POP SWAP2 SWAP1 POP JUMP INVALID LOG2 PUSH5 0x6970667358 0x22 SLT KECCAK256 SHR BALANCE PUSH13 0x218E61714F4EAF4D84E5D02CEF DIV PUSH19 0xBBEF18CA59458D8F33EF63275E7664736F6C63 NUMBER STOP ADDMOD XOR STOP CALLER "
				},
				"gasEstimates": {
					"creation": {
						"codeDepositCost": "492000",
						"executionCost": "24787",
						"totalCost": "516787"
					},
					"external": {
						"bid()": "infinite",
						"endAuction()": "infinite",
						"ended()": "2540",
						"highestBid()": "2469",
						"highestBidder()": "2505",
						"owner()": "2575",
						"refunds(address)": "2824",
						"withdrawRefund()": "infinite"
					}
				},
				"methodIdentifiers": {
					"bid()": "1998aeef",
					"endAuction()": "fe67a54b",
					"ended()": "12fa6feb",
					"highestBid()": "d57bde79",
					"highestBidder()": "91f90157",
					"owner()": "8da5cb5b",
					"refunds(address)": "bc3da535",
					"withdrawRefund()": "110f8874"
				}
			},
			"storageLayout": {
				"storage": [
					{
						"astId": 3,
						"contract": "monad dashboard/SimpleAuction.sol:SimpleAuction",
						"label": "highestBidder",
						"offset": 0,
						"slot": "0",
						"type": "t_address"
					},
					{
						"astId": 5,
						"contract": "monad dashboard/SimpleAuction.sol:SimpleAuction",
						"label": "highestBid",
						"offset": 0,
						"slot": "1",
						"type": "t_uint256"
					},
					{
						"astId": 7,
						"contract": "monad dashboard/SimpleAuction.sol:SimpleAuction",
						"label": "owner",
						"offset": 0,
						"slot": "2",
						"type": "t_address"
					},
					{
						"astId": 9,
						"contract": "monad dashboard/SimpleAuction.sol:SimpleAuction",
						"label": "ended",
						"offset": 20,
						"slot": "2",
						"type": "t_bool"
					},
					{
						"astId": 22,
						"contract": "monad dashboard/SimpleAuction.sol:SimpleAuction",
						"label": "refunds",
						"offset": 0,
						"slot": "3",
						"type": "t_mapping(t_address,t_uint256)"
					}
				],
				"types": {
					"t_address": {
						"encoding": "inplace",
						"label": "address",
						"numberOfBytes": "20"
					},
					"t_bool": {
						"encoding": "inplace",
						"label": "bool",
						"numberOfBytes": "1"
					},
					"t_mapping(t_address,t_uint256)": {
						"encoding": "mapping",
						"key": "t_address",
						"label": "mapping(address => uint256)",
						"numberOfBytes": "32",
						"value": "t_uint256"
					},
					"t_uint256": {
						"encoding": "inplace",
						"label": "uint256",
						"numberOfBytes": "32"
					}
				}
			},
			"userdoc": {
				"kind": "user",
				"methods": {},
				"version": 1
			}
		}
	}
}