{
	"monad dashboard/Staking.sol": {
		"Staking": {
			"abi": [
				{
					"inputs": [
						{
							"internalType": "address",
							"name": "",
							"type": "address"
						}
					],
					"name": "balances",
					"outputs": [
						{
							"internalType": "uint256",
							"name": "",
							"type": "uint256"
						}
					],
					"stateMutability": "view",
					"type": "function"
				},
				{
					"inputs": [],
					"name": "stake",
					"outputs": [],
					"stateMutability": "payable",
					"type": "function"
				},
				{
					"inputs": [
						{
							"internalType": "address",
							"name": "",
							"type": "address"
						}
					],
					"name": "startTime",
					"outputs": [
						{
							"internalType": "uint256",
							"name": "",
							"type": "uint256"
						}
					],
					"stateMutability": "view",
					"type": "function"
				},
				{
					"inputs": [],
					"name": "unstake",
					"outputs": [],
					"stateMutability": "nonpayable",
					"type": "function"
				}
			],
			"devdoc": {
				"kind": "dev",
				"methods": {},
				"version": 1
			},
			"evm": {
				"assembly": "    /* \"monad dashboard/Staking.sol\":61:744  contract Staking {... */\n  mstore(0x40, 0x80)\n  callvalue\n  dup1\n  iszero\n  tag_1\n  jumpi\n  0x00\n  dup1\n  revert\ntag_1:\n  pop\n  dataSize(sub_0)\n  dup1\n  dataOffset(sub_0)\n  0x00\n  codecopy\n  0x00\n  return\nstop\n\nsub_0: assembly {\n        /* \"monad dashboard/Staking.sol\":61:744  contract Staking {... */\n      mstore(0x40, 0x80)\n      jumpi(tag_1, lt(calldatasize, 0x04))\n      shr(0xe0, calldataload(0x00))\n      dup1\n      0x27e235e3\n      eq\n      tag_2\n      jumpi\n      dup1\n      0x2def6620\n      eq\n      tag_3\n      jumpi\n      dup1\n      0x3a4b66f1\n      eq\n      tag_4\n      jumpi\n      dup1\n      0x6e1dc66e\n      eq\n      tag_5\n      jumpi\n    tag_1:\n      0x00\n      dup1\n      revert\n        /* \"monad dashboard/Staking.sol\":85:125  mapping(address => uint) public balances */\n    tag_2:\n      callvalue\n      dup1\n      iszero\n      tag_6\n      jumpi\n      0x00\n      dup1\n      revert\n    tag_6:\n      pop\n      tag_7\n      0x04\n      dup1\n      calldatasize\n      sub\n      dup2\n      add\n      swap1\n      tag_8\n      swap2\n      swap1\n      tag_9\n      jump\t// in\n    tag_8:\n      tag_10\n      jump\t// in\n    tag_7:\n      mload(0x40)\n      tag_11\n      swap2\n      swap1\n      tag_12\n      jump\t// in\n    tag_11:\n      mload(0x40)\n      dup1\n      swap2\n      sub\n      swap1\n      return\n        /* \"monad dashboard/Staking.sol\":377:741  function unstake() public {... */\n    tag_3:\n      callvalue\n      dup1\n      iszero\n      tag_13\n      jumpi\n      0x00\n      dup1\n      revert\n    tag_13:\n      pop\n      tag_14\n      tag_15\n      jump\t// in\n    tag_14:\n      stop\n        /* \"monad dashboard/Staking.sol\":182:369  function stake() public payable {... */\n    tag_4:\n      tag_16\n      tag_17\n      jump\t// in\n    tag_16:\n      stop\n        /* \"monad dashboard/Staking.sol\":132:173  mapping(address => uint) public startTime */\n    tag_5:\n      callvalue\n      dup1\n      iszero\n      tag_18\n      jumpi\n      0x00\n      dup1\n      revert\n    tag_18:\n      pop\n      tag_19\n      0x04\n      dup1\n      calldatasize\n      sub\n      dup2\n      add\n      swap1\n      tag_20\n      swap2\n      swap1\n      tag_9\n      jump\t// in\n    tag_20:\n      tag_21\n      jump\t// in\n    tag_19:\n      mload(0x40)\n      tag_22\n      swap2\n      swap1\n      tag_12\n      jump\t// in\n    tag_22:\n      mload(0x40)\n      dup1\n      swap2\n      sub\n      swap1\n      return\n        /* \"monad dashboard/Staking.sol\":85:125  mapping(address => uint) public balances */\n    tag_10:\n      mstore(0x20, 0x00)\n      dup1\n      0x00\n      mstore\n      keccak256(0x00, 0x40)\n      0x00\n      swap2\n      pop\n      swap1\n      pop\n      sload\n      dup2\n      jump\t// out\n        /* \"monad dashboard/Staking.sol\":377:741  function unstake() public {... */\n    tag_15:\n        /* \"monad dashboard/Staking.sol\":445:446  0 */\n      0x00\n        /* \"monad dashboard/Staking.sol\":422:430  balances */\n      dup1\n        /* \"monad dashboard/Staking.sol\":422:442  balances[msg.sender] */\n      0x00\n        /* \"monad dashboard/Staking.sol\":431:441  msg.sender */\n      caller\n        /* \"monad dashboard/Staking.sol\":422:442  balances[msg.sender] */\n      0xffffffffffffffffffffffffffffffffffffffff\n      and\n      0xffffffffffffffffffffffffffffffffffffffff\n      and\n      dup2\n      mstore\n      0x20\n      add\n      swap1\n      dup2\n      mstore\n      0x20\n      add\n      0x00\n      keccak256\n      sload\n        /* \"monad dashboard/Staking.sol\":422:446  balances[msg.sender] > 0 */\n      gt\n        /* \"monad dashboard/Staking.sol\":414:459  require(balances[msg.sender] > 0, \"No stake\") */\n      tag_24\n      jumpi\n      mload(0x40)\n      0x08c379a000000000000000000000000000000000000000000000000000000000\n      dup2\n      mstore\n      0x04\n      add\n      tag_25\n      swap1\n      tag_26\n      jump\t// in\n    tag_25:\n      mload(0x40)\n      dup1\n      swap2\n      sub\n      swap1\n      revert\n    tag_24:\n        /* \"monad dashboard/Staking.sol\":470:485  uint timeStaked */\n      0x00\n        /* \"monad dashboard/Staking.sol\":506:515  startTime */\n      0x01\n        /* \"monad dashboard/Staking.sol\":506:527  startTime[msg.sender] */\n      0x00\n        /* \"monad dashboard/Staking.sol\":516:526  msg.sender */\n      caller\n        /* \"monad dashboard/Staking.sol\":506:527  startTime[msg.sender] */\n      0xffffffffffffffffffffffffffffffffffffffff\n      and\n      0xffffffffffffffffffffffffffffffffffffffff\n      and\n      dup2\n      mstore\n      0x20\n      add\n      swap1\n      dup2\n      mstore\n      0x20\n      add\n      0x00\n      keccak256\n      sload\n        /* \"monad dashboard/Staking.sol\":488:503  block.timestamp */\n      timestamp\n        /* \"monad dashboard/Staking.sol\":488:527  block.timestamp - startTime[msg.sender] */\n      tag_27\n      swap2\n      swap1\n      tag_28\n      jump\t// in\n    tag_27:\n        /* \"monad dashboard/Staking.sol\":470:527  uint timeStaked = block.timestamp - startTime[msg.sender] */\n      swap1\n      pop\n        /* \"monad dashboard/Staking.sol\":538:549  uint reward */\n      0x00\n        /* \"monad dashboard/Staking.sol\":590:597  1 weeks */\n      0x093a80\n        /* \"monad dashboard/Staking.sol\":576:586  timeStaked */\n      dup3\n        /* \"monad dashboard/Staking.sol\":553:561  balances */\n      0x00\n        /* \"monad dashboard/Staking.sol\":553:573  balances[msg.sender] */\n      dup1\n        /* \"monad dashboard/Staking.sol\":562:572  msg.sender */\n      caller\n        /* \"monad dashboard/Staking.sol\":553:573  balances[msg.sender] */\n      0xffffffffffffffffffffffffffffffffffffffff\n      and\n      0xffffffffffffffffffffffffffffffffffffffff\n      and\n      dup2\n      mstore\n      0x20\n      add\n      swap1\n      dup2\n      mstore\n      0x20\n      add\n      0x00\n      keccak256\n      sload\n        /* \"monad dashboard/Staking.sol\":553:586  balances[msg.sender] * timeStaked */\n      tag_29\n      swap2\n      swap1\n      tag_30\n      jump\t// in\n    tag_29:\n        /* \"monad dashboard/Staking.sol\":552:597  (balances[msg.sender] * timeStaked) / 1 weeks */\n      tag_31\n      swap2\n      swap1\n      tag_32\n      jump\t// in\n    tag_31:\n        /* \"monad dashboard/Staking.sol\":538:597  uint reward = (balances[msg.sender] * timeStaked) / 1 weeks */\n      swap1\n      pop\n        /* \"monad dashboard/Staking.sol\":608:619  uint amount */\n      0x00\n        /* \"monad dashboard/Staking.sol\":645:651  reward */\n      dup2\n        /* \"monad dashboard/Staking.sol\":622:630  balances */\n      0x00\n        /* \"monad dashboard/Staking.sol\":622:642  balances[msg.sender] */\n      dup1\n        /* \"monad dashboard/Staking.sol\":631:641  msg.sender */\n      caller\n        /* \"monad dashboard/Staking.sol\":622:642  balances[msg.sender] */\n      0xffffffffffffffffffffffffffffffffffffffff\n      and\n      0xffffffffffffffffffffffffffffffffffffffff\n      and\n      dup2\n      mstore\n      0x20\n      add\n      swap1\n      dup2\n      mstore\n      0x20\n      add\n      0x00\n      keccak256\n      sload\n        /* \"monad dashboard/Staking.sol\":622:651  balances[msg.sender] + reward */\n      tag_33\n      swap2\n      swap1\n      tag_34\n      jump\t// in\n    tag_33:\n        /* \"monad dashboard/Staking.sol\":608:651  uint amount = balances[msg.sender] + reward */\n      swap1\n      pop\n        /* \"monad dashboard/Staking.sol\":685:686  0 */\n      0x00\n        /* \"monad dashboard/Staking.sol\":662:670  balances */\n      dup1\n        /* \"monad dashboard/Staking.sol\":662:682  balances[msg.sender] */\n      0x00\n        /* \"monad dashboard/Staking.sol\":671:681  msg.sender */\n      caller\n        /* \"monad dashboard/Staking.sol\":662:682  balances[msg.sender] */\n      0xffffffffffffffffffffffffffffffffffffffff\n      and\n      0xffffffffffffffffffffffffffffffffffffffff\n      and\n      dup2\n      mstore\n      0x20\n      add\n      swap1\n      dup2\n      mstore\n      0x20\n      add\n      0x00\n      keccak256\n        /* \"monad dashboard/Staking.sol\":662:686  balances[msg.sender] = 0 */\n      dup2\n      swap1\n      sstore\n      pop\n        /* \"monad dashboard/Staking.sol\":705:715  msg.sender */\n      caller\n        /* \"monad dashboard/Staking.sol\":697:725  payable(msg.sender).transfer */\n      0xffffffffffffffffffffffffffffffffffffffff\n      and\n        /* \"monad dashboard/Staking.sol\":697:733  payable(msg.sender).transfer(amount) */\n      0x08fc\n        /* \"monad dashboard/Staking.sol\":726:732  amount */\n      dup3\n        /* \"monad dashboard/Staking.sol\":697:733  payable(msg.sender).transfer(amount) */\n      swap1\n      dup2\n      iszero\n      mul\n      swap1\n      mload(0x40)\n      0x00\n      mload(0x40)\n      dup1\n      dup4\n      sub\n      dup2\n      dup6\n      dup9\n      dup9\n      call\n      swap4\n      pop\n      pop\n      pop\n      pop\n      iszero\n      dup1\n      iszero\n      tag_36\n      jumpi\n      returndatasize\n      0x00\n      dup1\n      returndatacopy\n      revert(0x00, returndatasize)\n    tag_36:\n      pop\n        /* \"monad dashboard/Staking.sol\":403:741  {... */\n      pop\n      pop\n      pop\n        /* \"monad dashboard/Staking.sol\":377:741  function unstake() public {... */\n      jump\t// out\n        /* \"monad dashboard/Staking.sol\":182:369  function stake() public payable {... */\n    tag_17:\n        /* \"monad dashboard/Staking.sol\":245:246  0 */\n      0x00\n        /* \"monad dashboard/Staking.sol\":233:242  msg.value */\n      callvalue\n        /* \"monad dashboard/Staking.sol\":233:246  msg.value > 0 */\n      gt\n        /* \"monad dashboard/Staking.sol\":225:267  require(msg.value > 0, \"Nothing to stake\") */\n      tag_38\n      jumpi\n      mload(0x40)\n      0x08c379a000000000000000000000000000000000000000000000000000000000\n      dup2\n      mstore\n      0x04\n      add\n      tag_39\n      swap1\n      tag_40\n      jump\t// in\n    tag_39:\n      mload(0x40)\n      dup1\n      swap2\n      sub\n      swap1\n      revert\n    tag_38:\n        /* \"monad dashboard/Staking.sol\":302:311  msg.value */\n      callvalue\n        /* \"monad dashboard/Staking.sol\":278:286  balances */\n      0x00\n        /* \"monad dashboard/Staking.sol\":278:298  balances[msg.sender] */\n      dup1\n        /* \"monad dashboard/Staking.sol\":287:297  msg.sender */\n      caller\n        /* \"monad dashboard/Staking.sol\":278:298  balances[msg.sender] */\n      0xffffffffffffffffffffffffffffffffffffffff\n      and\n      0xffffffffffffffffffffffffffffffffffffffff\n      and\n      dup2\n      mstore\n      0x20\n      add\n      swap1\n      dup2\n      mstore\n      0x20\n      add\n      0x00\n      keccak256\n      0x00\n        /* \"monad dashboard/Staking.sol\":278:311  balances[msg.sender] += msg.value */\n      dup3\n      dup3\n      sload\n      tag_41\n      swap2\n      swap1\n      tag_34\n      jump\t// in\n    tag_41:\n      swap3\n      pop\n      pop\n      dup2\n      swap1\n      sstore\n      pop\n        /* \"monad dashboard/Staking.sol\":346:361  block.timestamp */\n      timestamp\n        /* \"monad dashboard/Staking.sol\":322:331  startTime */\n      0x01\n        /* \"monad dashboard/Staking.sol\":322:343  startTime[msg.sender] */\n      0x00\n        /* \"monad dashboard/Staking.sol\":332:342  msg.sender */\n      caller\n        /* \"monad dashboard/Staking.sol\":322:343  startTime[msg.sender] */\n      0xffffffffffffffffffffffffffffffffffffffff\n      and\n      0xffffffffffffffffffffffffffffffffffffffff\n      and\n      dup2\n      mstore\n      0x20\n      add\n      swap1\n      dup2\n      mstore\n      0x20\n      add\n      0x00\n      keccak256\n        /* \"monad dashboard/Staking.sol\":322:361  startTime[msg.sender] = block.timestamp */\n      dup2\n      swap1\n      sstore\n      pop\n        /* \"monad dashboard/Staking.sol\":182:369  function stake() public payable {... */\n      jump\t// out\n        /* \"monad dashboard/Staking.sol\":132:173  mapping(address => uint) public startTime */\n    tag_21:\n      mstore(0x20, 0x01)\n      dup1\n      0x00\n      mstore\n      keccak256(0x00, 0x40)\n      0x00\n      swap2\n      pop\n      swap1\n      pop\n      sload\n      dup2\n      jump\t// out\n        /* \"#utility.yul\":88:205   */\n    tag_43:\n        /* \"#utility.yul\":197:198   */\n      0x00\n        /* \"#utility.yul\":194:195   */\n      dup1\n        /* \"#utility.yul\":187:199   */\n      revert\n        /* \"#utility.yul\":334:460   */\n    tag_45:\n        /* \"#utility.yul\":371:378   */\n      0x00\n        /* \"#utility.yul\":411:453   */\n      0xffffffffffffffffffffffffffffffffffffffff\n        /* \"#utility.yul\":404:409   */\n      dup3\n        /* \"#utility.yul\":400:454   */\n      and\n        /* \"#utility.yul\":389:454   */\n      swap1\n      pop\n        /* \"#utility.yul\":334:460   */\n      swap2\n      swap1\n      pop\n      jump\t// out\n        /* \"#utility.yul\":466:562   */\n    tag_46:\n        /* \"#utility.yul\":503:510   */\n      0x00\n        /* \"#utility.yul\":532:556   */\n      tag_64\n        /* \"#utility.yul\":550:555   */\n      dup3\n        /* \"#utility.yul\":532:556   */\n      tag_45\n      jump\t// in\n    tag_64:\n        /* \"#utility.yul\":521:556   */\n      swap1\n      pop\n        /* \"#utility.yul\":466:562   */\n      swap2\n      swap1\n      pop\n      jump\t// out\n        /* \"#utility.yul\":568:690   */\n    tag_47:\n        /* \"#utility.yul\":641:665   */\n      tag_66\n        /* \"#utility.yul\":659:664   */\n      dup2\n        /* \"#utility.yul\":641:665   */\n      tag_46\n      jump\t// in\n    tag_66:\n        /* \"#utility.yul\":634:639   */\n      dup2\n        /* \"#utility.yul\":631:666   */\n      eq\n        /* \"#utility.yul\":621:684   */\n      tag_67\n      jumpi\n        /* \"#utility.yul\":680:681   */\n      0x00\n        /* \"#utility.yul\":677:678   */\n      dup1\n        /* \"#utility.yul\":670:682   */\n      revert\n        /* \"#utility.yul\":621:684   */\n    tag_67:\n        /* \"#utility.yul\":568:690   */\n      pop\n      jump\t// out\n        /* \"#utility.yul\":696:835   */\n    tag_48:\n        /* \"#utility.yul\":742:747   */\n      0x00\n        /* \"#utility.yul\":780:786   */\n      dup2\n        /* \"#utility.yul\":767:787   */\n      calldataload\n        /* \"#utility.yul\":758:787   */\n      swap1\n      pop\n        /* \"#utility.yul\":796:829   */\n      tag_69\n        /* \"#utility.yul\":823:828   */\n      dup2\n        /* \"#utility.yul\":796:829   */\n      tag_47\n      jump\t// in\n    tag_69:\n        /* \"#utility.yul\":696:835   */\n      swap3\n      swap2\n      pop\n      pop\n      jump\t// out\n        /* \"#utility.yul\":841:1170   */\n    tag_9:\n        /* \"#utility.yul\":900:906   */\n      0x00\n        /* \"#utility.yul\":949:951   */\n      0x20\n        /* \"#utility.yul\":937:946   */\n      dup3\n        /* \"#utility.yul\":928:935   */\n      dup5\n        /* \"#utility.yul\":924:947   */\n      sub\n        /* \"#utility.yul\":920:952   */\n      slt\n        /* \"#utility.yul\":917:1036   */\n      iszero\n      tag_71\n      jumpi\n        /* \"#utility.yul\":955:1034   */\n      tag_72\n      tag_43\n      jump\t// in\n    tag_72:\n        /* \"#utility.yul\":917:1036   */\n    tag_71:\n        /* \"#utility.yul\":1075:1076   */\n      0x00\n        /* \"#utility.yul\":1100:1153   */\n      tag_73\n        /* \"#utility.yul\":1145:1152   */\n      dup5\n        /* \"#utility.yul\":1136:1142   */\n      dup3\n        /* \"#utility.yul\":1125:1134   */\n      dup6\n        /* \"#utility.yul\":1121:1143   */\n      add\n        /* \"#utility.yul\":1100:1153   */\n      tag_48\n      jump\t// in\n    tag_73:\n        /* \"#utility.yul\":1090:1153   */\n      swap2\n      pop\n        /* \"#utility.yul\":1046:1163   */\n      pop\n        /* \"#utility.yul\":841:1170   */\n      swap3\n      swap2\n      pop\n      pop\n      jump\t// out\n        /* \"#utility.yul\":1176:1253   */\n    tag_49:\n        /* \"#utility.yul\":1213:1220   */\n      0x00\n        /* \"#utility.yul\":1242:1247   */\n      dup2\n        /* \"#utility.yul\":1231:1247   */\n      swap1\n      pop\n        /* \"#utility.yul\":1176:1253   */\n      swap2\n      swap1\n      pop\n      jump\t// out\n        /* \"#utility.yul\":1259:1377   */\n    tag_50:\n        /* \"#utility.yul\":1346:1370   */\n      tag_76\n        /* \"#utility.yul\":1364:1369   */\n      dup2\n        /* \"#utility.yul\":1346:1370   */\n      tag_49\n      jump\t// in\n    tag_76:\n        /* \"#utility.yul\":1341:1344   */\n      dup3\n        /* \"#utility.yul\":1334:1371   */\n      mstore\n        /* \"#utility.yul\":1259:1377   */\n      pop\n      pop\n      jump\t// out\n        /* \"#utility.yul\":1383:1605   */\n    tag_12:\n        /* \"#utility.yul\":1476:1480   */\n      0x00\n        /* \"#utility.yul\":1514:1516   */\n      0x20\n        /* \"#utility.yul\":1503:1512   */\n      dup3\n        /* \"#utility.yul\":1499:1517   */\n      add\n        /* \"#utility.yul\":1491:1517   */\n      swap1\n      pop\n        /* \"#utility.yul\":1527:1598   */\n      tag_78\n        /* \"#utility.yul\":1595:1596   */\n      0x00\n        /* \"#utility.yul\":1584:1593   */\n      dup4\n        /* \"#utility.yul\":1580:1597   */\n      add\n        /* \"#utility.yul\":1571:1577   */\n      dup5\n        /* \"#utility.yul\":1527:1598   */\n      tag_50\n      jump\t// in\n    tag_78:\n        /* \"#utility.yul\":1383:1605   */\n      swap3\n      swap2\n      pop\n      pop\n      jump\t// out\n        /* \"#utility.yul\":1611:1780   */\n    tag_51:\n        /* \"#utility.yul\":1695:1706   */\n      0x00\n        /* \"#utility.yul\":1729:1735   */\n      dup3\n        /* \"#utility.yul\":1724:1727   */\n      dup3\n        /* \"#utility.yul\":1717:1736   */\n      mstore\n        /* \"#utility.yul\":1769:1773   */\n      0x20\n        /* \"#utility.yul\":1764:1767   */\n      dup3\n        /* \"#utility.yul\":1760:1774   */\n      add\n        /* \"#utility.yul\":1745:1774   */\n      swap1\n      pop\n        /* \"#utility.yul\":1611:1780   */\n      swap3\n      swap2\n      pop\n      pop\n      jump\t// out\n        /* \"#utility.yul\":1786:1944   */\n    tag_52:\n        /* \"#utility.yul\":1926:1936   */\n      0x4e6f207374616b65000000000000000000000000000000000000000000000000\n        /* \"#utility.yul\":1922:1923   */\n      0x00\n        /* \"#utility.yul\":1914:1920   */\n      dup3\n        /* \"#utility.yul\":1910:1924   */\n      add\n        /* \"#utility.yul\":1903:1937   */\n      mstore\n        /* \"#utility.yul\":1786:1944   */\n      pop\n      jump\t// out\n        /* \"#utility.yul\":1950:2315   */\n    tag_53:\n        /* \"#utility.yul\":2092:2095   */\n      0x00\n        /* \"#utility.yul\":2113:2179   */\n      tag_82\n        /* \"#utility.yul\":2177:2178   */\n      0x08\n        /* \"#utility.yul\":2172:2175   */\n      dup4\n        /* \"#utility.yul\":2113:2179   */\n      tag_51\n      jump\t// in\n    tag_82:\n        /* \"#utility.yul\":2106:2179   */\n      swap2\n      pop\n        /* \"#utility.yul\":2188:2281   */\n      tag_83\n        /* \"#utility.yul\":2277:2280   */\n      dup3\n        /* \"#utility.yul\":2188:2281   */\n      tag_52\n      jump\t// in\n    tag_83:\n        /* \"#utility.yul\":2306:2308   */\n      0x20\n        /* \"#utility.yul\":2301:2304   */\n      dup3\n        /* \"#utility.yul\":2297:2309   */\n      add\n        /* \"#utility.yul\":2290:2309   */\n      swap1\n      pop\n        /* \"#utility.yul\":1950:2315   */\n      swap2\n      swap1\n      pop\n      jump\t// out\n        /* \"#utility.yul\":2321:2740   */\n    tag_26:\n        /* \"#utility.yul\":2487:2491   */\n      0x00\n        /* \"#utility.yul\":2525:2527   */\n      0x20\n        /* \"#utility.yul\":2514:2523   */\n      dup3\n        /* \"#utility.yul\":2510:2528   */\n      add\n        /* \"#utility.yul\":2502:2528   */\n      swap1\n      pop\n        /* \"#utility.yul\":2574:2583   */\n      dup2\n        /* \"#utility.yul\":2568:2572   */\n      dup2\n        /* \"#utility.yul\":2564:2584   */\n      sub\n        /* \"#utility.yul\":2560:2561   */\n      0x00\n        /* \"#utility.yul\":2549:2558   */\n      dup4\n        /* \"#utility.yul\":2545:2562   */\n      add\n        /* \"#utility.yul\":2538:2585   */\n      mstore\n        /* \"#utility.yul\":2602:2733   */\n      tag_85\n        /* \"#utility.yul\":2728:2732   */\n      dup2\n        /* \"#utility.yul\":2602:2733   */\n      tag_53\n      jump\t// in\n    tag_85:\n        /* \"#utility.yul\":2594:2733   */\n      swap1\n      pop\n        /* \"#utility.yul\":2321:2740   */\n      swap2\n      swap1\n      pop\n      jump\t// out\n        /* \"#utility.yul\":2746:2926   */\n    tag_54:\n        /* \"#utility.yul\":2794:2871   */\n      0x4e487b7100000000000000000000000000000000000000000000000000000000\n        /* \"#utility.yul\":2791:2792   */\n      0x00\n        /* \"#utility.yul\":2784:2872   */\n      mstore\n        /* \"#utility.yul\":2891:2895   */\n      0x11\n        /* \"#utility.yul\":2888:2889   */\n      0x04\n        /* \"#utility.yul\":2881:2896   */\n      mstore\n        /* \"#utility.yul\":2915:2919   */\n      0x24\n        /* \"#utility.yul\":2912:2913   */\n      0x00\n        /* \"#utility.yul\":2905:2920   */\n      revert\n        /* \"#utility.yul\":2932:3126   */\n    tag_28:\n        /* \"#utility.yul\":2972:2976   */\n      0x00\n        /* \"#utility.yul\":2992:3012   */\n      tag_88\n        /* \"#utility.yul\":3010:3011   */\n      dup3\n        /* \"#utility.yul\":2992:3012   */\n      tag_49\n      jump\t// in\n    tag_88:\n        /* \"#utility.yul\":2987:3012   */\n      swap2\n      pop\n        /* \"#utility.yul\":3026:3046   */\n      tag_89\n        /* \"#utility.yul\":3044:3045   */\n      dup4\n        /* \"#utility.yul\":3026:3046   */\n      tag_49\n      jump\t// in\n    tag_89:\n        /* \"#utility.yul\":3021:3046   */\n      swap3\n      pop\n        /* \"#utility.yul\":3070:3071   */\n      dup3\n        /* \"#utility.yul\":3067:3068   */\n      dup3\n        /* \"#utility.yul\":3063:3072   */\n      sub\n        /* \"#utility.yul\":3055:3072   */\n      swap1\n      pop\n        /* \"#utility.yul\":3094:3095   */\n      dup2\n        /* \"#utility.yul\":3088:3092   */\n      dup2\n        /* \"#utility.yul\":3085:3096   */\n      gt\n        /* \"#utility.yul\":3082:3119   */\n      iszero\n      tag_90\n      jumpi\n        /* \"#utility.yul\":3099:3117   */\n      tag_91\n      tag_54\n      jump\t// in\n    tag_91:\n        /* \"#utility.yul\":3082:3119   */\n    tag_90:\n        /* \"#utility.yul\":2932:3126   */\n      swap3\n      swap2\n      pop\n      pop\n      jump\t// out\n        /* \"#utility.yul\":3132:3542   */\n    tag_30:\n        /* \"#utility.yul\":3172:3179   */\n      0x00\n        /* \"#utility.yul\":3195:3215   */\n      tag_93\n        /* \"#utility.yul\":3213:3214   */\n      dup3\n        /* \"#utility.yul\":3195:3215   */\n      tag_49\n      jump\t// in\n    tag_93:\n        /* \"#utility.yul\":3190:3215   */\n      swap2\n      pop\n        /* \"#utility.yul\":3229:3249   */\n      tag_94\n        /* \"#utility.yul\":3247:3248   */\n      dup4\n        /* \"#utility.yul\":3229:3249   */\n      tag_49\n      jump\t// in\n    tag_94:\n        /* \"#utility.yul\":3224:3249   */\n      swap3\n      pop\n        /* \"#utility.yul\":3284:3285   */\n      dup3\n        /* \"#utility.yul\":3281:3282   */\n      dup3\n        /* \"#utility.yul\":3277:3286   */\n      mul\n        /* \"#utility.yul\":3306:3336   */\n      tag_95\n        /* \"#utility.yul\":3324:3335   */\n      dup2\n        /* \"#utility.yul\":3306:3336   */\n      tag_49\n      jump\t// in\n    tag_95:\n        /* \"#utility.yul\":3295:3336   */\n      swap2\n      pop\n        /* \"#utility.yul\":3485:3486   */\n      dup3\n        /* \"#utility.yul\":3476:3483   */\n      dup3\n        /* \"#utility.yul\":3472:3487   */\n      div\n        /* \"#utility.yul\":3469:3470   */\n      dup5\n        /* \"#utility.yul\":3466:3488   */\n      eq\n        /* \"#utility.yul\":3446:3447   */\n      dup4\n        /* \"#utility.yul\":3439:3448   */\n      iszero\n        /* \"#utility.yul\":3419:3502   */\n      or\n        /* \"#utility.yul\":3396:3535   */\n      tag_96\n      jumpi\n        /* \"#utility.yul\":3515:3533   */\n      tag_97\n      tag_54\n      jump\t// in\n    tag_97:\n        /* \"#utility.yul\":3396:3535   */\n    tag_96:\n        /* \"#utility.yul\":3180:3542   */\n      pop\n        /* \"#utility.yul\":3132:3542   */\n      swap3\n      swap2\n      pop\n      pop\n      jump\t// out\n        /* \"#utility.yul\":3548:3728   */\n    tag_55:\n        /* \"#utility.yul\":3596:3673   */\n      0x4e487b7100000000000000000000000000000000000000000000000000000000\n        /* \"#utility.yul\":3593:3594   */\n      0x00\n        /* \"#utility.yul\":3586:3674   */\n      mstore\n        /* \"#utility.yul\":3693:3697   */\n      0x12\n        /* \"#utility.yul\":3690:3691   */\n      0x04\n        /* \"#utility.yul\":3683:3698   */\n      mstore\n        /* \"#utility.yul\":3717:3721   */\n      0x24\n        /* \"#utility.yul\":3714:3715   */\n      0x00\n        /* \"#utility.yul\":3707:3722   */\n      revert\n        /* \"#utility.yul\":3734:3919   */\n    tag_32:\n        /* \"#utility.yul\":3774:3775   */\n      0x00\n        /* \"#utility.yul\":3791:3811   */\n      tag_100\n        /* \"#utility.yul\":3809:3810   */\n      dup3\n        /* \"#utility.yul\":3791:3811   */\n      tag_49\n      jump\t// in\n    tag_100:\n        /* \"#utility.yul\":3786:3811   */\n      swap2\n      pop\n        /* \"#utility.yul\":3825:3845   */\n      tag_101\n        /* \"#utility.yul\":3843:3844   */\n      dup4\n        /* \"#utility.yul\":3825:3845   */\n      tag_49\n      jump\t// in\n    tag_101:\n        /* \"#utility.yul\":3820:3845   */\n      swap3\n      pop\n        /* \"#utility.yul\":3864:3865   */\n      dup3\n        /* \"#utility.yul\":3854:3889   */\n      tag_102\n      jumpi\n        /* \"#utility.yul\":3869:3887   */\n      tag_103\n      tag_55\n      jump\t// in\n    tag_103:\n        /* \"#utility.yul\":3854:3889   */\n    tag_102:\n        /* \"#utility.yul\":3911:3912   */\n      dup3\n        /* \"#utility.yul\":3908:3909   */\n      dup3\n        /* \"#utility.yul\":3904:3913   */\n      div\n        /* \"#utility.yul\":3899:3913   */\n      swap1\n      pop\n        /* \"#utility.yul\":3734:3919   */\n      swap3\n      swap2\n      pop\n      pop\n      jump\t// out\n        /* \"#utility.yul\":3925:4116   */\n    tag_34:\n        /* \"#utility.yul\":3965:3968   */\n      0x00\n        /* \"#utility.yul\":3984:4004   */\n      tag_105\n        /* \"#utility.yul\":4002:4003   */\n      dup3\n        /* \"#utility.yul\":3984:4004   */\n      tag_49\n      jump\t// in\n    tag_105:\n        /* \"#utility.yul\":3979:4004   */\n      swap2\n      pop\n        /* \"#utility.yul\":4018:4038   */\n      tag_106\n        /* \"#utility.yul\":4036:4037   */\n      dup4\n        /* \"#utility.yul\":4018:4038   */\n      tag_49\n      jump\t// in\n    tag_106:\n        /* \"#utility.yul\":4013:4038   */\n      swap3\n      pop\n        /* \"#utility.yul\":4061:4062   */\n      dup3\n        /* \"#utility.yul\":4058:4059   */\n      dup3\n        /* \"#utility.yul\":4054:4063   */\n      add\n        /* \"#utility.yul\":4047:4063   */\n      swap1\n      pop\n        /* \"#utility.yul\":4082:4085   */\n      dup1\n        /* \"#utility.yul\":4079:4080   */\n      dup3\n        /* \"#utility.yul\":4076:4086   */\n      gt\n        /* \"#utility.yul\":4073:4109   */\n      iszero\n      tag_107\n      jumpi\n        /* \"#utility.yul\":4089:4107   */\n      tag_108\n      tag_54\n      jump\t// in\n    tag_108:\n        /* \"#utility.yul\":4073:4109   */\n    tag_107:\n        /* \"#utility.yul\":3925:4116   */\n      swap3\n      swap2\n      pop\n      pop\n      jump\t// out\n        /* \"#utility.yul\":4122:4288   */\n    tag_56:\n        /* \"#utility.yul\":4262:4280   */\n      0x4e6f7468696e6720746f207374616b6500000000000000000000000000000000\n        /* \"#utility.yul\":4258:4259   */\n      0x00\n        /* \"#utility.yul\":4250:4256   */\n      dup3\n        /* \"#utility.yul\":4246:4260   */\n      add\n        /* \"#utility.yul\":4239:4281   */\n      mstore\n        /* \"#utility.yul\":4122:4288   */\n      pop\n      jump\t// out\n        /* \"#utility.yul\":4294:4660   */\n    tag_57:\n        /* \"#utility.yul\":4436:4439   */\n      0x00\n        /* \"#utility.yul\":4457:4524   */\n      tag_111\n        /* \"#utility.yul\":4521:4523   */\n      0x10\n        /* \"#utility.yul\":4516:4519   */\n      dup4\n        /* \"#utility.yul\":4457:4524   */\n      tag_51\n      jump\t// in\n    tag_111:\n        /* \"#utility.yul\":4450:4524   */\n      swap2\n      pop\n        /* \"#utility.yul\":4533:4626   */\n      tag_112\n        /* \"#utility.yul\":4622:4625   */\n      dup3\n        /* \"#utility.yul\":4533:4626   */\n      tag_56\n      jump\t// in\n    tag_112:\n        /* \"#utility.yul\":4651:4653   */\n      0x20\n        /* \"#utility.yul\":4646:4649   */\n      dup3\n        /* \"#utility.yul\":4642:4654   */\n      add\n        /* \"#utility.yul\":4635:4654   */\n      swap1\n      pop\n        /* \"#utility.yul\":4294:4660   */\n      swap2\n      swap1\n      pop\n      jump\t// out\n        /* \"#utility.yul\":4666:5085   */\n    tag_40:\n        /* \"#utility.yul\":4832:4836   */\n      0x00\n        /* \"#utility.yul\":4870:4872   */\n      0x20\n        /* \"#utility.yul\":4859:4868   */\n      dup3\n        /* \"#utility.yul\":4855:4873   */\n      add\n        /* \"#utility.yul\":4847:4873   */\n      swap1\n      pop\n        /* \"#utility.yul\":4919:4928   */\n      dup2\n        /* \"#utility.yul\":4913:4917   */\n      dup2\n        /* \"#utility.yul\":4909:4929   */\n      sub\n        /* \"#utility.yul\":4905:4906   */\n      0x00\n        /* \"#utility.yul\":4894:4903   */\n      dup4\n        /* \"#utility.yul\":4890:4907   */\n      add\n        /* \"#utility.yul\":4883:4930   */\n      mstore\n        /* \"#utility.yul\":4947:5078   */\n      tag_114\n        /* \"#utility.yul\":5073:5077   */\n      dup2\n        /* \"#utility.yul\":4947:5078   */\n      tag_57\n      jump\t// in\n    tag_114:\n        /* \"#utility.yul\":4939:5078   */\n      swap1\n      pop\n        /* \"#utility.yul\":4666:5085   */\n      swap2\n      swap1\n      pop\n      jump\t// out\n\n    auxdata: 0xa264697066735822122021cf0bcb9d3dc17d8cf86bb6d45e0a7cf8ccc13c388b947cac1380565df22d1464736f6c63430008170033\n}\n",
				"bytecode": {
					"linkReferences": {},
					"object": "608060405234801561000f575f80fd5b506106d48061001d5f395ff3fe60806040526004361061003e575f3560e01c806327e235e3146100425780632def66201461007e5780633a4b66f1146100945780636e1dc66e1461009e575b5f80fd5b34801561004d575f80fd5b5061006860048036038101906100639190610431565b6100da565b6040516100759190610474565b60405180910390f35b348015610089575f80fd5b506100926100ee565b005b61009c6102e6565b005b3480156100a9575f80fd5b506100c460048036038101906100bf9190610431565b6103be565b6040516100d19190610474565b60405180910390f35b5f602052805f5260405f205f915090505481565b5f805f3373ffffffffffffffffffffffffffffffffffffffff1673ffffffffffffffffffffffffffffffffffffffff1681526020019081526020015f20541161016c576040517f08c379a0000000000000000000000000000000000000000000000000000000008152600401610163906104e7565b60405180910390fd5b5f60015f3373ffffffffffffffffffffffffffffffffffffffff1673ffffffffffffffffffffffffffffffffffffffff1681526020019081526020015f2054426101b69190610532565b90505f62093a80825f803373ffffffffffffffffffffffffffffffffffffffff1673ffffffffffffffffffffffffffffffffffffffff1681526020019081526020015f20546102059190610565565b61020f91906105d3565b90505f815f803373ffffffffffffffffffffffffffffffffffffffff1673ffffffffffffffffffffffffffffffffffffffff1681526020019081526020015f205461025a9190610603565b90505f805f3373ffffffffffffffffffffffffffffffffffffffff1673ffffffffffffffffffffffffffffffffffffffff1681526020019081526020015f20819055503373ffffffffffffffffffffffffffffffffffffffff166108fc8290811502906040515f60405180830381858888f193505050501580156102e0573d5f803e3d5ffd5b50505050565b5f3411610328576040517f08c379a000000000000000000000000000000000000000000000000000000000815260040161031f90610680565b60405180910390fd5b345f803373ffffffffffffffffffffffffffffffffffffffff1673ffffffffffffffffffffffffffffffffffffffff1681526020019081526020015f205f8282546103739190610603565b925050819055504260015f3373ffffffffffffffffffffffffffffffffffffffff1673ffffffffffffffffffffffffffffffffffffffff1681526020019081526020015f2081905550565b6001602052805f5260405f205f915090505481565b5f80fd5b5f73ffffffffffffffffffffffffffffffffffffffff82169050919050565b5f610400826103d7565b9050919050565b610410816103f6565b811461041a575f80fd5b50565b5f8135905061042b81610407565b92915050565b5f60208284031215610446576104456103d3565b5b5f6104538482850161041d565b91505092915050565b5f819050919050565b61046e8161045c565b82525050565b5f6020820190506104875f830184610465565b92915050565b5f82825260208201905092915050565b7f4e6f207374616b650000000000000000000000000000000000000000000000005f82015250565b5f6104d160088361048d565b91506104dc8261049d565b602082019050919050565b5f6020820190508181035f8301526104fe816104c5565b9050919050565b7f4e487b71000000000000000000000000000000000000000000000000000000005f52601160045260245ffd5b5f61053c8261045c565b91506105478361045c565b925082820390508181111561055f5761055e610505565b5b92915050565b5f61056f8261045c565b915061057a8361045c565b92508282026105888161045c565b9150828204841483151761059f5761059e610505565b5b5092915050565b7f4e487b71000000000000000000000000000000000000000000000000000000005f52601260045260245ffd5b5f6105dd8261045c565b91506105e88361045c565b9250826105f8576105f76105a6565b5b828204905092915050565b5f61060d8261045c565b91506106188361045c565b92508282019050808211156106305761062f610505565b5b92915050565b7f4e6f7468696e6720746f207374616b65000000000000000000000000000000005f82015250565b5f61066a60108361048d565b915061067582610636565b602082019050919050565b5f6020820190508181035f8301526106978161065e565b905091905056fea264697066735822122021cf0bcb9d3dc17d8cf86bb6d45e0a7cf8ccc13c388b947cac1380565df22d1464736f6c63430008170033",
					"opcodes": "PUSH1 0x80 PUSH1 0x40 MSTORE CALLVALUE DUP1 ISZERO PUSH2 0xF JUMPI PUSH0 DUP1 REVERT JUMPDEST POP PUSH2 0x6D4 DUP1 PUSH2 0x1D PUSH0 CODECOPY PUSH0 RETURN INVALID PUSH1 0x80 PUSH1 0x40 MSTORE PUSH1 0x4 CALLDATASIZE LT PUSH2 0x3E JUMPI PUSH0 CALLDATALOAD PUSH1 0xE0 SHR DUP1 PUSH4 0x27E235E3 EQ PUSH2 0x42 JUMPI DUP1 PUSH4 0x2DEF6620 EQ PUSH2 0x7E JUMPI DUP1 PUSH4 0x3A4B66F1 EQ PUSH2 0x94 JUMPI DUP1 PUSH4 0x6E1DC66E EQ PUSH2 0x9E JUMPI JUMPDEST PUSH0 DUP1 REVERT JUMPDEST CALLVALUE DUP1 ISZERO PUSH2 0x4D JUMPI PUSH0 DUP1 REVERT JUMPDEST POP PUSH2 0x68 PUSH1 0x4 DUP1 CALLDATASIZE SUB DUP2 ADD SWAP1 PUSH2 0x63 SWAP2 SWAP1 PUSH2 0x431 JUMP JUMPDEST PUSH2 0xDA JUMP JUMPDEST PUSH1 0x40 MLOAD PUSH2 0x75 SWAP2 SWAP1 PUSH2 0x474 JUMP JUMPDEST PUSH1 0x40 MLOAD DUP1 SWAP2 SUB SWAP1 RETURN JUMPDEST CALLVALUE DUP1 ISZERO PUSH2 0x89 JUMPI PUSH0 DUP1 REVERT JUMPDEST POP PUSH2 0x92 PUSH2 0xEE JUMP JUMPDEST STOP JUMPDEST PUSH2 0x9C PUSH2 0x2E6 JUMP JUMPDEST STOP JUMPDEST CALLVALUE DUP1 ISZERO PUSH2 0xA9 JUMPI PUSH0 DUP1 REVERT JUMPDEST POP PUSH2 0xC4 PUSH1 0x4 DUP1 CALLDATASIZE SUB DUP2 ADD SWAP1 PUSH2 0xBF SWAP2 SWAP1 PUSH2 0x431 JUMP JUMPDEST PUSH2 0x3BE JUMP JUMPDEST PUSH1 0x40 MLOAD PUSH2 0xD1 SWAP2 SWAP1 PUSH2 0x474 JUMP JUMPDEST PUSH1 0x40 MLOAD DUP1 SWAP2 SUB SWAP1 RETURN JUMPDEST PUSH0 PUSH1 0x20 MSTORE DUP1 PUSH0 MSTORE PUSH1 0x40 PUSH0 KECCAK256 PUSH0 SWAP2 POP SWAP1 POP SLOAD DUP2 JUMP JUMPDEST PUSH0 DUP1 PUSH0 CALLER PUSH20 0xFFFFFFFFFFFFFFFFFFFFFFFFFFFFFFFFFFFFFFFF AND PUSH20 0xFFFFFFFFFFFFFFFFFFFFFFFFFFFFFFFFFFFFFFFF AND DUP2 MSTORE PUSH1 0x20 ADD SWAP1 DUP2 MSTORE PUSH1 0x20 ADD PUSH0 KECCAK256 SLOAD GT PUSH2 0x16C JUMPI PUSH1 0x40 MLOAD PUSH32 0x8C379A000000000000000000000000000000000000000000000000000000000 DUP2 MSTORE PUSH1 0x4 ADD PUSH2 0x163 SWAP1 PUSH2 0x4E7 JUMP JUMPDEST PUSH1 0x40 MLOAD DUP1 SWAP2 SUB SWAP1 REVERT JUMPDEST PUSH0 PUSH1 0x1 PUSH0 CALLER PUSH20 0xFFFFFFFFFFFFFFFFFFFFFFFFFFFFFFFFFFFFFFFF AND PUSH20 0xFFFFFFFFFFFFFFFFFFFFFFFFFFFFFFFFFFFFFFFF AND DUP2 MSTORE PUSH1 0x20 ADD SWAP1 DUP2 MSTORE PUSH1 0x20 ADD PUSH0 KECCAK256 SLOAD TIMESTAMP PUSH2 0x1B6 SWAP2 SWAP1 PUSH2 0x532 JUMP JUMPDEST SWAP1 POP PUSH0 PUSH3 0x93A80 DUP3 PUSH0 DUP1 CALLER PUSH20 0xFFFFFFFFFFFFFFFFFFFFFFFFFFFFFFFFFFFFFFFF AND PUSH20 0xFFFFFFFFFFFFFFFFFFFFFFFFFFFFFFFFFFFFFFFF AND DUP2 MSTORE PUSH1 0x20 ADD SWAP1 DUP2 MSTORE PUSH1 0x20 ADD PUSH0 KECCAK256 SLOAD PUSH2 0x205 SWAP2 SWAP1 PUSH2 0x565 JUMP JUMPDEST PUSH2 0x20F SWAP2 SWAP1 PUSH2 0x5D3 JUMP JUMPDEST SWAP1 POP PUSH0 DUP2 PUSH0 DUP1 CALLER PUSH20 0xFFFFFFFFFFFFFFFFFFFFFFFFFFFFFFFFFFFFFFFF AND PUSH20 0xFFFFFFFFFFFFFFFFFFFFFFFFFFFFFFFFFFFFFFFF AND DUP2 MSTORE PUSH1 0x20 ADD SWAP1 DUP2 MSTORE PUSH1 0x20 ADD PUSH0 KECCAK256 SLOAD PUSH2 0x25A SWAP2 SWAP1 PUSH2 0x603 JUMP JUMPDEST SWAP1 POP PUSH0 DUP1 PUSH0 CALLER PUSH20 0xFFFFFFFFFFFFFFFFFFFFFFFFFFFFFFFFFFFFFFFF AND PUSH20 0xFFFFFFFFFFFFFFFFFFFFFFFFFFFFFFFFFFFFFFFF AND DUP2 MSTORE PUSH1 0x20 ADD SWAP1 DUP2 MSTORE PUSH1 0x20 ADD PUSH0 KECCAK256 DUP2 SWAP1 SSTORE POP CALLER PUSH20 0xFFFFFFFFFFFFFFFFFFFFFFFFFFFFFFFFFFFFFFFF AND PUSH2 0x8FC DUP3 SWAP1 DUP2 ISZERO MUL SWAP1 PUSH1 0x40 MLOAD PUSH0 PUSH1 0x40 MLOAD DUP1 DUP4 SUB DUP2 DUP6 DUP9 DUP9 CALL SWAP4 POP POP POP POP ISZERO DUP1 ISZERO PUSH2 0x2E0 JUMPI RETURNDATASIZE PUSH0 DUP1 RETURNDATACOPY RETURNDATASIZE PUSH0 REVERT JUMPDEST POP POP POP POP JUMP JUMPDEST PUSH0 CALLVALUE GT PUSH2 0x328 JUMPI PUSH1 0x40 MLOAD PUSH32 0x8C379A000000000000000000000000000000000000000000000000000000000 DUP2 MSTORE PUSH1 0x4 ADD PUSH2 0x31F SWAP1 PUSH2 0x680 JUMP JUMPDEST PUSH1 0x40 MLOAD DUP1 SWAP2 SUB SWAP1 REVERT JUMPDEST CALLVALUE PUSH0 DUP1 CALLER PUSH20 0xFFFFFFFFFFFFFFFFFFFFFFFFFFFFFFFFFFFFFFFF AND PUSH20 0xFFFFFFFFFFFFFFFFFFFFFFFFFFFFFFFFFFFFFFFF AND DUP2 MSTORE PUSH1 0x20 ADD SWAP1 DUP2 MSTORE PUSH1 0x20 ADD PUSH0 KECCAK256 PUSH0 DUP3 DUP3 SLOAD PUSH2 0x373 SWAP2 SWAP1 PUSH2 0x603 JUMP JUMPDEST SWAP3 POP POP DUP2 SWAP1 SSTORE POP TIMESTAMP PUSH1 0x1 PUSH0 CALLER PUSH20 0xFFFFFFFFFFFFFFFFFFFFFFFFFFFFFFFFFFFFFFFF AND PUSH20 0xFFFFFFFFFFFFFFFFFFFFFFFFFFFFFFFFFFFFFFFF AND DUP2 MSTORE PUSH1 0x20 ADD SWAP1 DUP2 MSTORE PUSH1 0x20 ADD PUSH0 KECCAK256 DUP2 SWAP1 SSTORE POP JUMP JUMPDEST PUSH1 0x1 PUSH1 0x20 MSTORE DUP1 PUSH0 MSTORE PUSH1 0x40 PUSH0 KECCAK256 PUSH0 SWAP2 POP SWAP1 POP SLOAD DUP2 JUMP JUMPDEST PUSH0 DUP1 REVERT JUMPDEST PUSH0 PUSH20 0xFFFFFFFFFFFFFFFFFFFFFFFFFFFFFFFFFFFFFFFF DUP3 AND SWAP1 POP SWAP2 SWAP1 POP JUMP JUMPDEST PUSH0 PUSH2 0x400 DUP3 PUSH2 0x3D7 JUMP JUMPDEST SWAP1 POP SWAP2 SWAP1 POP JUMP JUMPDEST PUSH2 0x410 DUP2 PUSH2 0x3F6 JUMP JUMPDEST DUP2 EQ PUSH2 0x41A JUMPI PUSH0 DUP1 REVERT JUMPDEST POP JUMP JUMPDEST PUSH0 DUP2 CALLDATALOAD SWAP1 POP PUSH2 0x42B DUP2 PUSH2 0x407 JUMP JUMPDEST SWAP3 SWAP2 POP POP JUMP JUMPDEST PUSH0 PUSH1 0x20 DUP3 DUP5 SUB SLT ISZERO PUSH2 0x446 JUMPI PUSH2 0x445 PUSH2 0x3D3 JUMP JUMPDEST JUMPDEST PUSH0 PUSH2 0x453 DUP5 DUP3 DUP6 ADD PUSH2 0x41D JUMP JUMPDEST SWAP2 POP POP SWAP3 SWAP2 POP POP JUMP JUMPDEST PUSH0 DUP2 SWAP1 POP SWAP2 SWAP1 POP JUMP JUMPDEST PUSH2 0x46E DUP2 PUSH2 0x45C JUMP JUMPDEST DUP3 MSTORE POP POP JUMP JUMPDEST PUSH0 PUSH1 0x20 DUP3 ADD SWAP1 POP PUSH2 0x487 PUSH0 DUP4 ADD DUP5 PUSH2 0x465 JUMP JUMPDEST SWAP3 SWAP2 POP POP JUMP JUMPDEST PUSH0 DUP3 DUP3 MSTORE PUSH1 0x20 DUP3 ADD SWAP1 POP SWAP3 SWAP2 POP POP JUMP JUMPDEST PUSH32 0x4E6F207374616B65000000000000000000000000000000000000000000000000 PUSH0 DUP3 ADD MSTORE POP JUMP JUMPDEST PUSH0 PUSH2 0x4D1 PUSH1 0x8 DUP4 PUSH2 0x48D JUMP JUMPDEST SWAP2 POP PUSH2 0x4DC DUP3 PUSH2 0x49D JUMP JUMPDEST PUSH1 0x20 DUP3 ADD SWAP1 POP SWAP2 SWAP1 POP JUMP JUMPDEST PUSH0 PUSH1 0x20 DUP3 ADD SWAP1 POP DUP2 DUP2 SUB PUSH0 DUP4 ADD MSTORE PUSH2 0x4FE DUP2 PUSH2 0x4C5 JUMP JUMPDEST SWAP1 POP SWAP2 SWAP1 POP JUMP JUMPDEST PUSH32 0x4E487B7100000000000000000000000000000000000000000000000000000000 PUSH0 MSTORE PUSH1 0x11 PUSH1 0x4 MSTORE PUSH1 0x24 PUSH0 REVERT JUMPDEST PUSH0 PUSH2 0x53C DUP3 PUSH2 0x45C JUMP JUMPDEST SWAP2 POP PUSH2 0x547 DUP4 PUSH2 0x45C JUMP JUMPDEST SWAP3 POP DUP3 DUP3 SUB SWAP1 POP DUP2 DUP2 GT ISZERO PUSH2 0x55F JUMPI PUSH2 0x55E PUSH2 0x505 JUMP JUMPDEST JUMPDEST SWAP3 SWAP2 POP POP JUMP JUMPDEST PUSH0 PUSH2 0x56F DUP3 PUSH2 0x45C JUMP JUMPDEST SWAP2 POP PUSH2 0x57A DUP4 PUSH2 0x45C JUMP JUMPDEST SWAP3 POP DUP3 DUP3 MUL PUSH2 0x588 DUP2 PUSH2 0x45C JUMP JUMPDEST SWAP2 POP DUP3 DUP3 DIV DUP5 EQ DUP4 ISZERO OR PUSH2 0x59F JUMPI PUSH2 0x59E PUSH2 0x505 JUMP JUMPDEST JUMPDEST POP SWAP3 SWAP2 POP POP JUMP JUMPDEST PUSH32 0x4E487B7100000000000000000000000000000000000000000000000000000000 PUSH0 MSTORE PUSH1 0x12 PUSH1 0x4 MSTORE PUSH1 0x24 PUSH0 REVERT JUMPDEST PUSH0 PUSH2 0x5DD DUP3 PUSH2 0x45C JUMP JUMPDEST SWAP2 POP PUSH2 0x5E8 DUP4 PUSH2 0x45C JUMP JUMPDEST SWAP3 POP DUP3 PUSH2 0x5F8 JUMPI PUSH2 0x5F7 PUSH2 0x5A6 JUMP JUMPDEST JUMPDEST DUP3 DUP3 DIV SWAP1 POP SWAP3 SWAP2 POP POP JUMP JUMPDEST PUSH0 PUSH2 0x60D DUP3 PUSH2 0x45C JUMP JUMPDEST SWAP2 POP PUSH2 0x618 DUP4 PUSH2 0x45C JUMP JUMPDEST SWAP3 POP DUP3 DUP3 ADD SWAP1 POP DUP1 DUP3 GT ISZERO PUSH2 0x630 JUMPI PUSH2 0x62F PUSH2 0x505 JUMP JUMPDEST JUMPDEST SWAP3 SWAP2 POP POP JUMP JUMPDEST PUSH32 0x4E6F7468696E6720746F207374616B6500000000000000000000000000000000 PUSH0 DUP3 ADD MSTORE POP JUMP JUMPDEST PUSH0 PUSH2 0x66A PUSH1 0x10 DUP4 PUSH2 0x48D JUMP JUMPDEST SWAP2 POP PUSH2 0x675 DUP3 PUSH2 0x636 JUMP JUMPDEST PUSH1 0x20 DUP3 ADD SWAP1 POP SWAP2 SWAP1 POP JUMP JUMPDEST PUSH0 PUSH1 0x20 DUP3 ADD SWAP1 POP DUP2 DUP2 SUB PUSH0 DUP4 ADD MSTORE PUSH2 0x697 DUP2 PUSH2 0x65E JUMP JUMPDEST SWAP1 POP SWAP2 SWAP1 POP JUMP INVALID LOG2 PUSH5 0x6970667358 0x22 SLT KECCAK256 0x21 0xCF SIGNEXTEND 0xCB SWAP14 RETURNDATASIZE 0xC1 PUSH30 0x8CF86BB6D45E0A7CF8CCC13C388B947CAC1380565DF22D1464736F6C6343 STOP ADDMOD OR STOP CALLER "
				},
				"gasEstimates": {
					"creation": {
						"codeDepositCost": "349600",
						"executionCost": "384",
						"totalCost": "349984"
					},
					"external": {
						"balances(address)": "2779",
						"stake()": "infinite",
						"startTime(address)": "2846",
						"unstake()": "infinite"
					}
				},
				"methodIdentifiers": {
					"balances(address)": "27e235e3",
					"stake()": "3a4b66f1",
					"startTime(address)": "6e1dc66e",
					"unstake()": "2def6620"
				}
			},
			"storageLayout": {
				"storage": [
					{
						"astId": 5,
						"contract": "monad dashboard/Staking.sol:Staking",
						"label": "balances",
						"offset": 0,
						"slot": "0",
						"type": "t_mapping(t_address,t_uint256)"
					},
					{
						"astId": 9,
						"contract": "monad dashboard/Staking.sol:Staking",
						"label": "startTime",
						"offset": 0,
						"slot": "1",
						"type": "t_mapping(t_address,t_uint256)"
					}
				],
				"types": {
					"t_address": {
						"encoding": "inplace",
						"label": "address",
						"numberOfBytes": "20"
					},
					"t_mapping(t_address,t_uint256)": {
						"encoding": "mapping",
						"key": "t_address",
						"label": "mapping(address => uint256)",
						"numberOfBytes": "32",
						"value": "t_uint256"
					},
					"t_uint256": {
						"encoding": "inplace",
						"label": "uint256",
						"numberOfBytes": "32"
					}
				}
			},
			"userdoc": {
				"kind": "user",
				"methods": {},
				"version": 1
			}
		}
	}
}