{
	"monad dashboard/TipJar.sol": {
		"TipJar": {
			"abi": [
				{
					"anonymous": false,
					"inputs": [
						{
							"indexed": true,
							"internalType": "address",
							"name": "sender",
							"type": "address"
						},
						{
							"indexed": false,
							"internalType": "uint256",
							"name": "amount",
							"type": "uint256"
						},
						{
							"indexed": false,
							"internalType": "string",
							"name": "message",
							"type": "string"
						}
					],
					"name": "Tipped",
					"type": "event"
				},
				{
					"inputs": [
						{
							"internalType": "string",
							"name": "message",
							"type": "string"
						}
					],
					"name": "tip",
					"outputs": [],
					"stateMutability": "payable",
					"type": "function"
				}
			],
			"devdoc": {
				"kind": "dev",
				"methods": {},
				"version": 1
			},
			"evm": {
				"assembly": "    /* \"monad dashboard/TipJar.sol\":105:366  contract TipJar {... */\n  mstore(0x40, 0x80)\n  callvalue\n  dup1\n  iszero\n  tag_1\n  jumpi\n  0x00\n  dup1\n  revert\ntag_1:\n  pop\n  dataSize(sub_0)\n  dup1\n  dataOffset(sub_0)\n  0x00\n  codecopy\n  0x00\n  return\nstop\n\nsub_0: assembly {\n        /* \"monad dashboard/TipJar.sol\":105:366  contract TipJar {... */\n      mstore(0x40, 0x80)\n      jumpi(tag_1, lt(calldatasize, 0x04))\n      shr(0xe0, calldataload(0x00))\n      dup1\n      0xcb56393c\n      eq\n      tag_2\n      jumpi\n    tag_1:\n      0x00\n      dup1\n      revert\n        /* \"monad dashboard/TipJar.sol\":203:363  function tip(string calldata message) external payable {... */\n    tag_2:\n      tag_3\n      0x04\n      dup1\n      calldatasize\n      sub\n      dup2\n      add\n      swap1\n      tag_4\n      swap2\n      swap1\n      tag_5\n      jump\t// in\n    tag_4:\n      tag_6\n      jump\t// in\n    tag_3:\n      stop\n    tag_6:\n        /* \"monad dashboard/TipJar.sol\":289:290  0 */\n      0x00\n        /* \"monad dashboard/TipJar.sol\":277:286  msg.value */\n      callvalue\n        /* \"monad dashboard/TipJar.sol\":277:290  msg.value > 0 */\n      gt\n        /* \"monad dashboard/TipJar.sol\":269:301  require(msg.value > 0, \"No tip\") */\n      tag_8\n      jumpi\n      mload(0x40)\n      0x08c379a000000000000000000000000000000000000000000000000000000000\n      dup2\n      mstore\n      0x04\n      add\n      tag_9\n      swap1\n      tag_10\n      jump\t// in\n    tag_9:\n      mload(0x40)\n      dup1\n      swap2\n      sub\n      swap1\n      revert\n    tag_8:\n        /* \"monad dashboard/TipJar.sol\":324:334  msg.sender */\n      caller\n        /* \"monad dashboard/TipJar.sol\":317:355  Tipped(msg.sender, msg.value, message) */\n      0xffffffffffffffffffffffffffffffffffffffff\n      and\n      0x4f629a5f1c8e7fc616770a8d34896b447f3457037c40a23347478746309d73c2\n        /* \"monad dashboard/TipJar.sol\":336:345  msg.value */\n      callvalue\n        /* \"monad dashboard/TipJar.sol\":347:354  message */\n      dup5\n      dup5\n        /* \"monad dashboard/TipJar.sol\":317:355  Tipped(msg.sender, msg.value, message) */\n      mload(0x40)\n      tag_11\n      swap4\n      swap3\n      swap2\n      swap1\n      tag_12\n      jump\t// in\n    tag_11:\n      mload(0x40)\n      dup1\n      swap2\n      sub\n      swap1\n      log2\n        /* \"monad dashboard/TipJar.sol\":203:363  function tip(string calldata message) external payable {... */\n      pop\n      pop\n      jump\t// out\n        /* \"#utility.yul\":88:205   */\n    tag_14:\n        /* \"#utility.yul\":197:198   */\n      0x00\n        /* \"#utility.yul\":194:195   */\n      dup1\n        /* \"#utility.yul\":187:199   */\n      revert\n        /* \"#utility.yul\":211:328   */\n    tag_15:\n        /* \"#utility.yul\":320:321   */\n      0x00\n        /* \"#utility.yul\":317:318   */\n      dup1\n        /* \"#utility.yul\":310:322   */\n      revert\n        /* \"#utility.yul\":334:451   */\n    tag_16:\n        /* \"#utility.yul\":443:444   */\n      0x00\n        /* \"#utility.yul\":440:441   */\n      dup1\n        /* \"#utility.yul\":433:445   */\n      revert\n        /* \"#utility.yul\":457:574   */\n    tag_17:\n        /* \"#utility.yul\":566:567   */\n      0x00\n        /* \"#utility.yul\":563:564   */\n      dup1\n        /* \"#utility.yul\":556:568   */\n      revert\n        /* \"#utility.yul\":580:697   */\n    tag_18:\n        /* \"#utility.yul\":689:690   */\n      0x00\n        /* \"#utility.yul\":686:687   */\n      dup1\n        /* \"#utility.yul\":679:691   */\n      revert\n        /* \"#utility.yul\":717:1270   */\n    tag_19:\n        /* \"#utility.yul\":775:783   */\n      0x00\n        /* \"#utility.yul\":785:791   */\n      dup1\n        /* \"#utility.yul\":835:838   */\n      dup4\n        /* \"#utility.yul\":828:832   */\n      0x1f\n        /* \"#utility.yul\":820:826   */\n      dup5\n        /* \"#utility.yul\":816:833   */\n      add\n        /* \"#utility.yul\":812:839   */\n      slt\n        /* \"#utility.yul\":802:924   */\n      tag_36\n      jumpi\n        /* \"#utility.yul\":843:922   */\n      tag_37\n      tag_16\n      jump\t// in\n    tag_37:\n        /* \"#utility.yul\":802:924   */\n    tag_36:\n        /* \"#utility.yul\":956:962   */\n      dup3\n        /* \"#utility.yul\":943:963   */\n      calldataload\n        /* \"#utility.yul\":933:963   */\n      swap1\n      pop\n        /* \"#utility.yul\":986:1004   */\n      0xffffffffffffffff\n        /* \"#utility.yul\":978:984   */\n      dup2\n        /* \"#utility.yul\":975:1005   */\n      gt\n        /* \"#utility.yul\":972:1089   */\n      iszero\n      tag_38\n      jumpi\n        /* \"#utility.yul\":1008:1087   */\n      tag_39\n      tag_17\n      jump\t// in\n    tag_39:\n        /* \"#utility.yul\":972:1089   */\n    tag_38:\n        /* \"#utility.yul\":1122:1126   */\n      0x20\n        /* \"#utility.yul\":1114:1120   */\n      dup4\n        /* \"#utility.yul\":1110:1127   */\n      add\n        /* \"#utility.yul\":1098:1127   */\n      swap2\n      pop\n        /* \"#utility.yul\":1176:1179   */\n      dup4\n        /* \"#utility.yul\":1168:1172   */\n      0x01\n        /* \"#utility.yul\":1160:1166   */\n      dup3\n        /* \"#utility.yul\":1156:1173   */\n      mul\n        /* \"#utility.yul\":1146:1154   */\n      dup4\n        /* \"#utility.yul\":1142:1174   */\n      add\n        /* \"#utility.yul\":1139:1180   */\n      gt\n        /* \"#utility.yul\":1136:1264   */\n      iszero\n      tag_40\n      jumpi\n        /* \"#utility.yul\":1183:1262   */\n      tag_41\n      tag_18\n      jump\t// in\n    tag_41:\n        /* \"#utility.yul\":1136:1264   */\n    tag_40:\n        /* \"#utility.yul\":717:1270   */\n      swap3\n      pop\n      swap3\n      swap1\n      pop\n      jump\t// out\n        /* \"#utility.yul\":1276:1805   */\n    tag_5:\n        /* \"#utility.yul\":1347:1353   */\n      0x00\n        /* \"#utility.yul\":1355:1361   */\n      dup1\n        /* \"#utility.yul\":1404:1406   */\n      0x20\n        /* \"#utility.yul\":1392:1401   */\n      dup4\n        /* \"#utility.yul\":1383:1390   */\n      dup6\n        /* \"#utility.yul\":1379:1402   */\n      sub\n        /* \"#utility.yul\":1375:1407   */\n      slt\n        /* \"#utility.yul\":1372:1491   */\n      iszero\n      tag_43\n      jumpi\n        /* \"#utility.yul\":1410:1489   */\n      tag_44\n      tag_14\n      jump\t// in\n    tag_44:\n        /* \"#utility.yul\":1372:1491   */\n    tag_43:\n        /* \"#utility.yul\":1558:1559   */\n      0x00\n        /* \"#utility.yul\":1547:1556   */\n      dup4\n        /* \"#utility.yul\":1543:1560   */\n      add\n        /* \"#utility.yul\":1530:1561   */\n      calldataload\n        /* \"#utility.yul\":1588:1606   */\n      0xffffffffffffffff\n        /* \"#utility.yul\":1580:1586   */\n      dup2\n        /* \"#utility.yul\":1577:1607   */\n      gt\n        /* \"#utility.yul\":1574:1691   */\n      iszero\n      tag_45\n      jumpi\n        /* \"#utility.yul\":1610:1689   */\n      tag_46\n      tag_15\n      jump\t// in\n    tag_46:\n        /* \"#utility.yul\":1574:1691   */\n    tag_45:\n        /* \"#utility.yul\":1723:1788   */\n      tag_47\n        /* \"#utility.yul\":1780:1787   */\n      dup6\n        /* \"#utility.yul\":1771:1777   */\n      dup3\n        /* \"#utility.yul\":1760:1769   */\n      dup7\n        /* \"#utility.yul\":1756:1778   */\n      add\n        /* \"#utility.yul\":1723:1788   */\n      tag_19\n      jump\t// in\n    tag_47:\n        /* \"#utility.yul\":1705:1788   */\n      swap3\n      pop\n      swap3\n      pop\n        /* \"#utility.yul\":1501:1798   */\n      pop\n        /* \"#utility.yul\":1276:1805   */\n      swap3\n      pop\n      swap3\n      swap1\n      pop\n      jump\t// out\n        /* \"#utility.yul\":1811:1980   */\n    tag_20:\n        /* \"#utility.yul\":1895:1906   */\n      0x00\n        /* \"#utility.yul\":1929:1935   */\n      dup3\n        /* \"#utility.yul\":1924:1927   */\n      dup3\n        /* \"#utility.yul\":1917:1936   */\n      mstore\n        /* \"#utility.yul\":1969:1973   */\n      0x20\n        /* \"#utility.yul\":1964:1967   */\n      dup3\n        /* \"#utility.yul\":1960:1974   */\n      add\n        /* \"#utility.yul\":1945:1974   */\n      swap1\n      pop\n        /* \"#utility.yul\":1811:1980   */\n      swap3\n      swap2\n      pop\n      pop\n      jump\t// out\n        /* \"#utility.yul\":1986:2142   */\n    tag_21:\n        /* \"#utility.yul\":2126:2134   */\n      0x4e6f207469700000000000000000000000000000000000000000000000000000\n        /* \"#utility.yul\":2122:2123   */\n      0x00\n        /* \"#utility.yul\":2114:2120   */\n      dup3\n        /* \"#utility.yul\":2110:2124   */\n      add\n        /* \"#utility.yul\":2103:2135   */\n      mstore\n        /* \"#utility.yul\":1986:2142   */\n      pop\n      jump\t// out\n        /* \"#utility.yul\":2148:2513   */\n    tag_22:\n        /* \"#utility.yul\":2290:2293   */\n      0x00\n        /* \"#utility.yul\":2311:2377   */\n      tag_51\n        /* \"#utility.yul\":2375:2376   */\n      0x06\n        /* \"#utility.yul\":2370:2373   */\n      dup4\n        /* \"#utility.yul\":2311:2377   */\n      tag_20\n      jump\t// in\n    tag_51:\n        /* \"#utility.yul\":2304:2377   */\n      swap2\n      pop\n        /* \"#utility.yul\":2386:2479   */\n      tag_52\n        /* \"#utility.yul\":2475:2478   */\n      dup3\n        /* \"#utility.yul\":2386:2479   */\n      tag_21\n      jump\t// in\n    tag_52:\n        /* \"#utility.yul\":2504:2506   */\n      0x20\n        /* \"#utility.yul\":2499:2502   */\n      dup3\n        /* \"#utility.yul\":2495:2507   */\n      add\n        /* \"#utility.yul\":2488:2507   */\n      swap1\n      pop\n        /* \"#utility.yul\":2148:2513   */\n      swap2\n      swap1\n      pop\n      jump\t// out\n        /* \"#utility.yul\":2519:2938   */\n    tag_10:\n        /* \"#utility.yul\":2685:2689   */\n      0x00\n        /* \"#utility.yul\":2723:2725   */\n      0x20\n        /* \"#utility.yul\":2712:2721   */\n      dup3\n        /* \"#utility.yul\":2708:2726   */\n      add\n        /* \"#utility.yul\":2700:2726   */\n      swap1\n      pop\n        /* \"#utility.yul\":2772:2781   */\n      dup2\n        /* \"#utility.yul\":2766:2770   */\n      dup2\n        /* \"#utility.yul\":2762:2782   */\n      sub\n        /* \"#utility.yul\":2758:2759   */\n      0x00\n        /* \"#utility.yul\":2747:2756   */\n      dup4\n        /* \"#utility.yul\":2743:2760   */\n      add\n        /* \"#utility.yul\":2736:2783   */\n      mstore\n        /* \"#utility.yul\":2800:2931   */\n      tag_54\n        /* \"#utility.yul\":2926:2930   */\n      dup2\n        /* \"#utility.yul\":2800:2931   */\n      tag_22\n      jump\t// in\n    tag_54:\n        /* \"#utility.yul\":2792:2931   */\n      swap1\n      pop\n        /* \"#utility.yul\":2519:2938   */\n      swap2\n      swap1\n      pop\n      jump\t// out\n        /* \"#utility.yul\":2944:3021   */\n    tag_23:\n        /* \"#utility.yul\":2981:2988   */\n      0x00\n        /* \"#utility.yul\":3010:3015   */\n      dup2\n        /* \"#utility.yul\":2999:3015   */\n      swap1\n      pop\n        /* \"#utility.yul\":2944:3021   */\n      swap2\n      swap1\n      pop\n      jump\t// out\n        /* \"#utility.yul\":3027:3145   */\n    tag_24:\n        /* \"#utility.yul\":3114:3138   */\n      tag_57\n        /* \"#utility.yul\":3132:3137   */\n      dup2\n        /* \"#utility.yul\":3114:3138   */\n      tag_23\n      jump\t// in\n    tag_57:\n        /* \"#utility.yul\":3109:3112   */\n      dup3\n        /* \"#utility.yul\":3102:3139   */\n      mstore\n        /* \"#utility.yul\":3027:3145   */\n      pop\n      pop\n      jump\t// out\n        /* \"#utility.yul\":3151:3297   */\n    tag_25:\n        /* \"#utility.yul\":3248:3254   */\n      dup3\n        /* \"#utility.yul\":3243:3246   */\n      dup2\n        /* \"#utility.yul\":3238:3241   */\n      dup4\n        /* \"#utility.yul\":3225:3255   */\n      calldatacopy\n        /* \"#utility.yul\":3289:3290   */\n      0x00\n        /* \"#utility.yul\":3280:3286   */\n      dup4\n        /* \"#utility.yul\":3275:3278   */\n      dup4\n        /* \"#utility.yul\":3271:3287   */\n      add\n        /* \"#utility.yul\":3264:3291   */\n      mstore\n        /* \"#utility.yul\":3151:3297   */\n      pop\n      pop\n      pop\n      jump\t// out\n        /* \"#utility.yul\":3303:3405   */\n    tag_26:\n        /* \"#utility.yul\":3344:3350   */\n      0x00\n        /* \"#utility.yul\":3395:3397   */\n      0x1f\n        /* \"#utility.yul\":3391:3398   */\n      not\n        /* \"#utility.yul\":3386:3388   */\n      0x1f\n        /* \"#utility.yul\":3379:3384   */\n      dup4\n        /* \"#utility.yul\":3375:3389   */\n      add\n        /* \"#utility.yul\":3371:3399   */\n      and\n        /* \"#utility.yul\":3361:3399   */\n      swap1\n      pop\n        /* \"#utility.yul\":3303:3405   */\n      swap2\n      swap1\n      pop\n      jump\t// out\n        /* \"#utility.yul\":3435:3752   */\n    tag_27:\n        /* \"#utility.yul\":3533:3536   */\n      0x00\n        /* \"#utility.yul\":3554:3625   */\n      tag_61\n        /* \"#utility.yul\":3618:3624   */\n      dup4\n        /* \"#utility.yul\":3613:3616   */\n      dup6\n        /* \"#utility.yul\":3554:3625   */\n      tag_20\n      jump\t// in\n    tag_61:\n        /* \"#utility.yul\":3547:3625   */\n      swap4\n      pop\n        /* \"#utility.yul\":3635:3691   */\n      tag_62\n        /* \"#utility.yul\":3684:3690   */\n      dup4\n        /* \"#utility.yul\":3679:3682   */\n      dup6\n        /* \"#utility.yul\":3672:3677   */\n      dup5\n        /* \"#utility.yul\":3635:3691   */\n      tag_25\n      jump\t// in\n    tag_62:\n        /* \"#utility.yul\":3716:3745   */\n      tag_63\n        /* \"#utility.yul\":3738:3744   */\n      dup4\n        /* \"#utility.yul\":3716:3745   */\n      tag_26\n      jump\t// in\n    tag_63:\n        /* \"#utility.yul\":3711:3714   */\n      dup5\n        /* \"#utility.yul\":3707:3746   */\n      add\n        /* \"#utility.yul\":3700:3746   */\n      swap1\n      pop\n        /* \"#utility.yul\":3435:3752   */\n      swap4\n      swap3\n      pop\n      pop\n      pop\n      jump\t// out\n        /* \"#utility.yul\":3758:4201   */\n    tag_12:\n        /* \"#utility.yul\":3909:3913   */\n      0x00\n        /* \"#utility.yul\":3947:3949   */\n      0x40\n        /* \"#utility.yul\":3936:3945   */\n      dup3\n        /* \"#utility.yul\":3932:3950   */\n      add\n        /* \"#utility.yul\":3924:3950   */\n      swap1\n      pop\n        /* \"#utility.yul\":3960:4031   */\n      tag_65\n        /* \"#utility.yul\":4028:4029   */\n      0x00\n        /* \"#utility.yul\":4017:4026   */\n      dup4\n        /* \"#utility.yul\":4013:4030   */\n      add\n        /* \"#utility.yul\":4004:4010   */\n      dup7\n        /* \"#utility.yul\":3960:4031   */\n      tag_24\n      jump\t// in\n    tag_65:\n        /* \"#utility.yul\":4078:4087   */\n      dup2\n        /* \"#utility.yul\":4072:4076   */\n      dup2\n        /* \"#utility.yul\":4068:4088   */\n      sub\n        /* \"#utility.yul\":4063:4065   */\n      0x20\n        /* \"#utility.yul\":4052:4061   */\n      dup4\n        /* \"#utility.yul\":4048:4066   */\n      add\n        /* \"#utility.yul\":4041:4089   */\n      mstore\n        /* \"#utility.yul\":4106:4194   */\n      tag_66\n        /* \"#utility.yul\":4189:4193   */\n      dup2\n        /* \"#utility.yul\":4180:4186   */\n      dup5\n        /* \"#utility.yul\":4172:4178   */\n      dup7\n        /* \"#utility.yul\":4106:4194   */\n      tag_27\n      jump\t// in\n    tag_66:\n        /* \"#utility.yul\":4098:4194   */\n      swap1\n      pop\n        /* \"#utility.yul\":3758:4201   */\n      swap5\n      swap4\n      pop\n      pop\n      pop\n      pop\n      jump\t// out\n\n    auxdata: 0xa26469706673582212208a89e67af3d15abd737e15367552a17b8fdb0f9ed04a452da42e70ef94947d8e64736f6c63430008170033\n}\n",
				"bytecode": {
					"linkReferences": {},
					"object": "608060405234801561000f575f80fd5b506102c98061001d5f395ff3fe60806040526004361061001d575f3560e01c8063cb56393c14610021575b5f80fd5b61003b6004803603810190610036919061013e565b61003d565b005b5f341161007f576040517f08c379a0000000000000000000000000000000000000000000000000000000008152600401610076906101e3565b60405180910390fd5b3373ffffffffffffffffffffffffffffffffffffffff167f4f629a5f1c8e7fc616770a8d34896b447f3457037c40a23347478746309d73c23484846040516100c993929190610263565b60405180910390a25050565b5f80fd5b5f80fd5b5f80fd5b5f80fd5b5f80fd5b5f8083601f8401126100fe576100fd6100dd565b5b8235905067ffffffffffffffff81111561011b5761011a6100e1565b5b602083019150836001820283011115610137576101366100e5565b5b9250929050565b5f8060208385031215610154576101536100d5565b5b5f83013567ffffffffffffffff811115610171576101706100d9565b5b61017d858286016100e9565b92509250509250929050565b5f82825260208201905092915050565b7f4e6f2074697000000000000000000000000000000000000000000000000000005f82015250565b5f6101cd600683610189565b91506101d882610199565b602082019050919050565b5f6020820190508181035f8301526101fa816101c1565b9050919050565b5f819050919050565b61021381610201565b82525050565b828183375f83830152505050565b5f601f19601f8301169050919050565b5f6102428385610189565b935061024f838584610219565b61025883610227565b840190509392505050565b5f6040820190506102765f83018661020a565b8181036020830152610289818486610237565b905094935050505056fea26469706673582212208a89e67af3d15abd737e15367552a17b8fdb0f9ed04a452da42e70ef94947d8e64736f6c63430008170033",
					"opcodes": "PUSH1 0x80 PUSH1 0x40 MSTORE CALLVALUE DUP1 ISZERO PUSH2 0xF JUMPI PUSH0 DUP1 REVERT JUMPDEST POP PUSH2 0x2C9 DUP1 PUSH2 0x1D PUSH0 CODECOPY PUSH0 RETURN INVALID PUSH1 0x80 PUSH1 0x40 MSTORE PUSH1 0x4 CALLDATASIZE LT PUSH2 0x1D JUMPI PUSH0 CALLDATALOAD PUSH1 0xE0 SHR DUP1 PUSH4 0xCB56393C EQ PUSH2 0x21 JUMPI JUMPDEST PUSH0 DUP1 REVERT JUMPDEST PUSH2 0x3B PUSH1 0x4 DUP1 CALLDATASIZE SUB DUP2 ADD SWAP1 PUSH2 0x36 SWAP2 SWAP1 PUSH2 0x13E JUMP JUMPDEST PUSH2 0x3D JUMP JUMPDEST STOP JUMPDEST PUSH0 CALLVALUE GT PUSH2 0x7F JUMPI PUSH1 0x40 MLOAD PUSH32 0x8C379A000000000000000000000000000000000000000000000000000000000 DUP2 MSTORE PUSH1 0x4 ADD PUSH2 0x76 SWAP1 PUSH2 0x1E3 JUMP JUMPDEST PUSH1 0x40 MLOAD DUP1 SWAP2 SUB SWAP1 REVERT JUMPDEST CALLER PUSH20 0xFFFFFFFFFFFFFFFFFFFFFFFFFFFFFFFFFFFFFFFF AND PUSH32 0x4F629A5F1C8E7FC616770A8D34896B447F3457037C40A23347478746309D73C2 CALLVALUE DUP5 DUP5 PUSH1 0x40 MLOAD PUSH2 0xC9 SWAP4 SWAP3 SWAP2 SWAP1 PUSH2 0x263 JUMP JUMPDEST PUSH1 0x40 MLOAD DUP1 SWAP2 SUB SWAP1 LOG2 POP POP JUMP JUMPDEST PUSH0 DUP1 REVERT JUMPDEST PUSH0 DUP1 REVERT JUMPDEST PUSH0 DUP1 REVERT JUMPDEST PUSH0 DUP1 REVERT JUMPDEST PUSH0 DUP1 REVERT JUMPDEST PUSH0 DUP1 DUP4 PUSH1 0x1F DUP5 ADD SLT PUSH2 0xFE JUMPI PUSH2 0xFD PUSH2 0xDD JUMP JUMPDEST JUMPDEST DUP3 CALLDATALOAD SWAP1 POP PUSH8 0xFFFFFFFFFFFFFFFF DUP2 GT ISZERO PUSH2 0x11B JUMPI PUSH2 0x11A PUSH2 0xE1 JUMP JUMPDEST JUMPDEST PUSH1 0x20 DUP4 ADD SWAP2 POP DUP4 PUSH1 0x1 DUP3 MUL DUP4 ADD GT ISZERO PUSH2 0x137 JUMPI PUSH2 0x136 PUSH2 0xE5 JUMP JUMPDEST JUMPDEST SWAP3 POP SWAP3 SWAP1 POP JUMP JUMPDEST PUSH0 DUP1 PUSH1 0x20 DUP4 DUP6 SUB SLT ISZERO PUSH2 0x154 JUMPI PUSH2 0x153 PUSH2 0xD5 JUMP JUMPDEST JUMPDEST PUSH0 DUP4 ADD CALLDATALOAD PUSH8 0xFFFFFFFFFFFFFFFF DUP2 GT ISZERO PUSH2 0x171 JUMPI PUSH2 0x170 PUSH2 0xD9 JUMP JUMPDEST JUMPDEST PUSH2 0x17D DUP6 DUP3 DUP7 ADD PUSH2 0xE9 JUMP JUMPDEST SWAP3 POP SWAP3 POP POP SWAP3 POP SWAP3 SWAP1 POP JUMP JUMPDEST PUSH0 DUP3 DUP3 MSTORE PUSH1 0x20 DUP3 ADD SWAP1 POP SWAP3 SWAP2 POP POP JUMP JUMPDEST PUSH32 0x4E6F207469700000000000000000000000000000000000000000000000000000 PUSH0 DUP3 ADD MSTORE POP JUMP JUMPDEST PUSH0 PUSH2 0x1CD PUSH1 0x6 DUP4 PUSH2 0x189 JUMP JUMPDEST SWAP2 POP PUSH2 0x1D8 DUP3 PUSH2 0x199 JUMP JUMPDEST PUSH1 0x20 DUP3 ADD SWAP1 POP SWAP2 SWAP1 POP JUMP JUMPDEST PUSH0 PUSH1 0x20 DUP3 ADD SWAP1 POP DUP2 DUP2 SUB PUSH0 DUP4 ADD MSTORE PUSH2 0x1FA DUP2 PUSH2 0x1C1 JUMP JUMPDEST SWAP1 POP SWAP2 SWAP1 POP JUMP JUMPDEST PUSH0 DUP2 SWAP1 POP SWAP2 SWAP1 POP JUMP JUMPDEST PUSH2 0x213 DUP2 PUSH2 0x201 JUMP JUMPDEST DUP3 MSTORE POP POP JUMP JUMPDEST DUP3 DUP2 DUP4 CALLDATACOPY PUSH0 DUP4 DUP4 ADD MSTORE POP POP POP JUMP JUMPDEST PUSH0 PUSH1 0x1F NOT PUSH1 0x1F DUP4 ADD AND SWAP1 POP SWAP2 SWAP1 POP JUMP JUMPDEST PUSH0 PUSH2 0x242 DUP4 DUP6 PUSH2 0x189 JUMP JUMPDEST SWAP4 POP PUSH2 0x24F DUP4 DUP6 DUP5 PUSH2 0x219 JUMP JUMPDEST PUSH2 0x258 DUP4 PUSH2 0x227 JUMP JUMPDEST DUP5 ADD SWAP1 POP SWAP4 SWAP3 POP POP POP JUMP JUMPDEST PUSH0 PUSH1 0x40 DUP3 ADD SWAP1 POP PUSH2 0x276 PUSH0 DUP4 ADD DUP7 PUSH2 0x20A JUMP JUMPDEST DUP2 DUP2 SUB PUSH1 0x20 DUP4 ADD MSTORE PUSH2 0x289 DUP2 DUP5 DUP7 PUSH2 0x237 JUMP JUMPDEST SWAP1 POP SWAP5 SWAP4 POP POP POP POP JUMP INVALID LOG2 PUSH5 0x6970667358 0x22 SLT KECCAK256 DUP11 DUP10 0xE6 PUSH27 0xF3D15ABD737E15367552A17B8FDB0F9ED04A452DA42E70EF94947D DUP15 PUSH5 0x736F6C6343 STOP ADDMOD OR STOP CALLER "
				},
				"gasEstimates": {
					"creation": {
						"codeDepositCost": "142600",
						"executionCost": "188",
						"totalCost": "142788"
					},
					"external": {
						"tip(string)": "infinite"
					}
				},
				"methodIdentifiers": {
					"tip(string)": "cb56393c"
				}
			},
			"storageLayout": {
				"storage": [],
				"types": null
			},
			"userdoc": {
				"kind": "user",
				"methods": {},
				"version": 1
			}
		}
	}
}