{
	"monad dashboard/MessageBoard.sol": {
		"MessageBoard": {
			"abi": [
				{
					"anonymous": false,
					"inputs": [
						{
							"indexed": true,
							"internalType": "address",
							"name": "author",
							"type": "address"
						},
						{
							"indexed": false,
							"internalType": "string",
							"name": "text",
							"type": "string"
						},
						{
							"indexed": false,
							"internalType": "uint256",
							"name": "timestamp",
							"type": "uint256"
						}
					],
					"name": "NewMessage",
					"type": "event"
				},
				{
					"inputs": [],
					"name": "getMessages",
					"outputs": [
						{
							"components": [
								{
									"internalType": "address",
									"name": "author",
									"type": "address"
								},
								{
									"internalType": "string",
									"name": "text",
									"type": "string"
								},
								{
									"internalType": "uint256",
									"name": "timestamp",
									"type": "uint256"
								}
							],
							"internalType": "struct MessageBoard.Message[]",
							"name": "",
							"type": "tuple[]"
						}
					],
					"stateMutability": "view",
					"type": "function"
				},
				{
					"inputs": [
						{
							"internalType": "uint256",
							"name": "",
							"type": "uint256"
						}
					],
					"name": "messages",
					"outputs": [
						{
							"internalType": "address",
							"name": "author",
							"type": "address"
						},
						{
							"internalType": "string",
							"name": "text",
							"type": "string"
						},
						{
							"internalType": "uint256",
							"name": "timestamp",
							"type": "uint256"
						}
					],
					"stateMutability": "view",
					"type": "function"
				},
				{
					"inputs": [
						{
							"internalType": "string",
							"name": "text",
							"type": "string"
						}
					],
					"name": "post",
					"outputs": [],
					"stateMutability": "nonpayable",
					"type": "function"
				}
			],
			"devdoc": {
				"kind": "dev",
				"methods": {},
				"version": 1
			},
			"evm": {
				"assembly": "    /* \"monad dashboard/MessageBoard.sol\":61:691  contract MessageBoard {... */\n  mstore(0x40, 0x80)\n  callvalue\n  dup1\n  iszero\n  tag_1\n  jumpi\n  0x00\n  dup1\n  revert\ntag_1:\n  pop\n  dataSize(sub_0)\n  dup1\n  dataOffset(sub_0)\n  0x00\n  codecopy\n  0x00\n  return\nstop\n\nsub_0: assembly {\n        /* \"monad dashboard/MessageBoard.sol\":61:691  contract MessageBoard {... */\n      mstore(0x40, 0x80)\n      callvalue\n      dup1\n      iszero\n      tag_1\n      jumpi\n      0x00\n      dup1\n      revert\n    tag_1:\n      pop\n      jumpi(tag_2, lt(calldatasize, 0x04))\n      shr(0xe0, calldataload(0x00))\n      dup1\n      0x0d80fefd\n      eq\n      tag_3\n      jumpi\n      dup1\n      0x5ff6cbf3\n      eq\n      tag_4\n      jumpi\n      dup1\n      0x8ee93cf3\n      eq\n      tag_5\n      jumpi\n    tag_2:\n      0x00\n      dup1\n      revert\n        /* \"monad dashboard/MessageBoard.sol\":196:221  Message[] public messages */\n    tag_3:\n      tag_6\n      0x04\n      dup1\n      calldatasize\n      sub\n      dup2\n      add\n      swap1\n      tag_7\n      swap2\n      swap1\n      tag_8\n      jump\t// in\n    tag_7:\n      tag_9\n      jump\t// in\n    tag_6:\n      mload(0x40)\n      tag_10\n      swap4\n      swap3\n      swap2\n      swap1\n      tag_11\n      jump\t// in\n    tag_10:\n      mload(0x40)\n      dup1\n      swap2\n      sub\n      swap1\n      return\n        /* \"monad dashboard/MessageBoard.sol\":590:688  function getMessages() external view returns (Message[] memory) {... */\n    tag_4:\n      tag_12\n      tag_13\n      jump\t// in\n    tag_12:\n      mload(0x40)\n      tag_14\n      swap2\n      swap1\n      tag_15\n      jump\t// in\n    tag_14:\n      mload(0x40)\n      dup1\n      swap2\n      sub\n      swap1\n      return\n        /* \"monad dashboard/MessageBoard.sol\":311:582  function post(string calldata text) external {... */\n    tag_5:\n      tag_16\n      0x04\n      dup1\n      calldatasize\n      sub\n      dup2\n      add\n      swap1\n      tag_17\n      swap2\n      swap1\n      tag_18\n      jump\t// in\n    tag_17:\n      tag_19\n      jump\t// in\n    tag_16:\n      stop\n        /* \"monad dashboard/MessageBoard.sol\":196:221  Message[] public messages */\n    tag_9:\n      0x00\n      dup2\n      dup2\n      sload\n      dup2\n      lt\n      tag_20\n      jumpi\n      0x00\n      dup1\n      revert\n    tag_20:\n      swap1\n      0x00\n      mstore\n      keccak256(0x00, 0x20)\n      swap1\n      0x03\n      mul\n      add\n      0x00\n      swap2\n      pop\n      swap1\n      pop\n      dup1\n      0x00\n      add\n      0x00\n      swap1\n      sload\n      swap1\n      0x0100\n      exp\n      swap1\n      div\n      0xffffffffffffffffffffffffffffffffffffffff\n      and\n      swap1\n      dup1\n      0x01\n      add\n      dup1\n      sload\n      tag_22\n      swap1\n      tag_23\n      jump\t// in\n    tag_22:\n      dup1\n      0x1f\n      add\n      0x20\n      dup1\n      swap2\n      div\n      mul\n      0x20\n      add\n      mload(0x40)\n      swap1\n      dup2\n      add\n      0x40\n      mstore\n      dup1\n      swap3\n      swap2\n      swap1\n      dup2\n      dup2\n      mstore\n      0x20\n      add\n      dup3\n      dup1\n      sload\n      tag_24\n      swap1\n      tag_23\n      jump\t// in\n    tag_24:\n      dup1\n      iszero\n      tag_25\n      jumpi\n      dup1\n      0x1f\n      lt\n      tag_26\n      jumpi\n      0x0100\n      dup1\n      dup4\n      sload\n      div\n      mul\n      dup4\n      mstore\n      swap2\n      0x20\n      add\n      swap2\n      jump(tag_25)\n    tag_26:\n      dup3\n      add\n      swap2\n      swap1\n      0x00\n      mstore\n      keccak256(0x00, 0x20)\n      swap1\n    tag_27:\n      dup2\n      sload\n      dup2\n      mstore\n      swap1\n      0x01\n      add\n      swap1\n      0x20\n      add\n      dup1\n      dup4\n      gt\n      tag_27\n      jumpi\n      dup3\n      swap1\n      sub\n      0x1f\n      and\n      dup3\n      add\n      swap2\n    tag_25:\n      pop\n      pop\n      pop\n      pop\n      pop\n      swap1\n      dup1\n      0x02\n      add\n      sload\n      swap1\n      pop\n      dup4\n      jump\t// out\n        /* \"monad dashboard/MessageBoard.sol\":590:688  function getMessages() external view returns (Message[] memory) {... */\n    tag_13:\n        /* \"monad dashboard/MessageBoard.sol\":636:652  Message[] memory */\n      0x60\n        /* \"monad dashboard/MessageBoard.sol\":672:680  messages */\n      0x00\n        /* \"monad dashboard/MessageBoard.sol\":665:680  return messages */\n      dup1\n      sload\n      dup1\n      0x20\n      mul\n      0x20\n      add\n      mload(0x40)\n      swap1\n      dup2\n      add\n      0x40\n      mstore\n      dup1\n      swap3\n      swap2\n      swap1\n      dup2\n      dup2\n      mstore\n      0x20\n      add\n      0x00\n      swap1\n    tag_29:\n      dup3\n      dup3\n      lt\n      iszero\n      tag_30\n      jumpi\n      dup4\n      dup3\n      swap1\n      0x00\n      mstore\n      keccak256(0x00, 0x20)\n      swap1\n      0x03\n      mul\n      add\n      mload(0x40)\n      dup1\n      0x60\n      add\n      0x40\n      mstore\n      swap1\n      dup2\n      0x00\n      dup3\n      add\n      0x00\n      swap1\n      sload\n      swap1\n      0x0100\n      exp\n      swap1\n      div\n      0xffffffffffffffffffffffffffffffffffffffff\n      and\n      0xffffffffffffffffffffffffffffffffffffffff\n      and\n      0xffffffffffffffffffffffffffffffffffffffff\n      and\n      dup2\n      mstore\n      0x20\n      add\n      0x01\n      dup3\n      add\n      dup1\n      sload\n      tag_32\n      swap1\n      tag_23\n      jump\t// in\n    tag_32:\n      dup1\n      0x1f\n      add\n      0x20\n      dup1\n      swap2\n      div\n      mul\n      0x20\n      add\n      mload(0x40)\n      swap1\n      dup2\n      add\n      0x40\n      mstore\n      dup1\n      swap3\n      swap2\n      swap1\n      dup2\n      dup2\n      mstore\n      0x20\n      add\n      dup3\n      dup1\n      sload\n      tag_33\n      swap1\n      tag_23\n      jump\t// in\n    tag_33:\n      dup1\n      iszero\n      tag_34\n      jumpi\n      dup1\n      0x1f\n      lt\n      tag_35\n      jumpi\n      0x0100\n      dup1\n      dup4\n      sload\n      div\n      mul\n      dup4\n      mstore\n      swap2\n      0x20\n      add\n      swap2\n      jump(tag_34)\n    tag_35:\n      dup3\n      add\n      swap2\n      swap1\n      0x00\n      mstore\n      keccak256(0x00, 0x20)\n      swap1\n    tag_36:\n      dup2\n      sload\n      dup2\n      mstore\n      swap1\n      0x01\n      add\n      swap1\n      0x20\n      add\n      dup1\n      dup4\n      gt\n      tag_36\n      jumpi\n      dup3\n      swap1\n      sub\n      0x1f\n      and\n      dup3\n      add\n      swap2\n    tag_34:\n      pop\n      pop\n      pop\n      pop\n      pop\n      dup2\n      mstore\n      0x20\n      add\n      0x02\n      dup3\n      add\n      sload\n      dup2\n      mstore\n      pop\n      pop\n      dup2\n      mstore\n      0x20\n      add\n      swap1\n      0x01\n      add\n      swap1\n      jump(tag_29)\n    tag_30:\n      pop\n      pop\n      pop\n      pop\n      swap1\n      pop\n        /* \"monad dashboard/MessageBoard.sol\":590:688  function getMessages() external view returns (Message[] memory) {... */\n      swap1\n      jump\t// out\n        /* \"monad dashboard/MessageBoard.sol\":311:582  function post(string calldata text) external {... */\n    tag_19:\n        /* \"monad dashboard/MessageBoard.sol\":396:397  0 */\n      0x00\n        /* \"monad dashboard/MessageBoard.sol\":381:385  text */\n      dup3\n      dup3\n        /* \"monad dashboard/MessageBoard.sol\":375:393  bytes(text).length */\n      swap1\n      pop\n        /* \"monad dashboard/MessageBoard.sol\":375:397  bytes(text).length > 0 */\n      gt\n        /* \"monad dashboard/MessageBoard.sol\":375:426  bytes(text).length > 0 && bytes(text).length <= 280 */\n      dup1\n      iszero\n      tag_38\n      jumpi\n      pop\n        /* \"monad dashboard/MessageBoard.sol\":423:426  280 */\n      0x0118\n        /* \"monad dashboard/MessageBoard.sol\":407:411  text */\n      dup3\n      dup3\n        /* \"monad dashboard/MessageBoard.sol\":401:419  bytes(text).length */\n      swap1\n      pop\n        /* \"monad dashboard/MessageBoard.sol\":401:426  bytes(text).length <= 280 */\n      gt\n      iszero\n        /* \"monad dashboard/MessageBoard.sol\":375:426  bytes(text).length > 0 && bytes(text).length <= 280 */\n    tag_38:\n        /* \"monad dashboard/MessageBoard.sol\":367:445  require(bytes(text).length > 0 && bytes(text).length <= 280, \"Invalid length\") */\n      tag_39\n      jumpi\n      mload(0x40)\n      0x08c379a000000000000000000000000000000000000000000000000000000000\n      dup2\n      mstore\n      0x04\n      add\n      tag_40\n      swap1\n      tag_41\n      jump\t// in\n    tag_40:\n      mload(0x40)\n      dup1\n      swap2\n      sub\n      swap1\n      revert\n    tag_39:\n        /* \"monad dashboard/MessageBoard.sol\":456:464  messages */\n      0x00\n        /* \"monad dashboard/MessageBoard.sol\":470:512  Message(msg.sender, text, block.timestamp) */\n      mload(0x40)\n      dup1\n      0x60\n      add\n      0x40\n      mstore\n      dup1\n        /* \"monad dashboard/MessageBoard.sol\":478:488  msg.sender */\n      caller\n        /* \"monad dashboard/MessageBoard.sol\":470:512  Message(msg.sender, text, block.timestamp) */\n      0xffffffffffffffffffffffffffffffffffffffff\n      and\n      dup2\n      mstore\n      0x20\n      add\n        /* \"monad dashboard/MessageBoard.sol\":490:494  text */\n      dup5\n      dup5\n        /* \"monad dashboard/MessageBoard.sol\":470:512  Message(msg.sender, text, block.timestamp) */\n      dup1\n      dup1\n      0x1f\n      add\n      0x20\n      dup1\n      swap2\n      div\n      mul\n      0x20\n      add\n      mload(0x40)\n      swap1\n      dup2\n      add\n      0x40\n      mstore\n      dup1\n      swap4\n      swap3\n      swap2\n      swap1\n      dup2\n      dup2\n      mstore\n      0x20\n      add\n      dup4\n      dup4\n      dup1\n      dup3\n      dup5\n      calldatacopy\n      0x00\n      dup2\n      dup5\n      add\n      mstore\n      not(0x1f)\n      0x1f\n      dup3\n      add\n      and\n      swap1\n      pop\n      dup1\n      dup4\n      add\n      swap3\n      pop\n      pop\n      pop\n      pop\n      pop\n      pop\n      pop\n      dup2\n      mstore\n      0x20\n      add\n        /* \"monad dashboard/MessageBoard.sol\":496:511  block.timestamp */\n      timestamp\n        /* \"monad dashboard/MessageBoard.sol\":470:512  Message(msg.sender, text, block.timestamp) */\n      dup2\n      mstore\n      pop\n        /* \"monad dashboard/MessageBoard.sol\":456:513  messages.push(Message(msg.sender, text, block.timestamp)) */\n      swap1\n      dup1\n      0x01\n      dup2\n      sload\n      add\n      dup1\n      dup3\n      sstore\n      dup1\n      swap2\n      pop\n      pop\n      0x01\n      swap1\n      sub\n      swap1\n      0x00\n      mstore\n      keccak256(0x00, 0x20)\n      swap1\n      0x03\n      mul\n      add\n      0x00\n      swap1\n      swap2\n      swap1\n      swap2\n      swap1\n      swap2\n      pop\n      0x00\n      dup3\n      add\n      mload\n      dup2\n      0x00\n      add\n      exp(0x0100, 0x00)\n      dup2\n      sload\n      dup2\n      0xffffffffffffffffffffffffffffffffffffffff\n      mul\n      not\n      and\n      swap1\n      dup4\n      0xffffffffffffffffffffffffffffffffffffffff\n      and\n      mul\n      or\n      swap1\n      sstore\n      pop\n      0x20\n      dup3\n      add\n      mload\n      dup2\n      0x01\n      add\n      swap1\n      dup2\n      tag_43\n      swap2\n      swap1\n      tag_44\n      jump\t// in\n    tag_43:\n      pop\n      0x40\n      dup3\n      add\n      mload\n      dup2\n      0x02\n      add\n      sstore\n      pop\n      pop\n        /* \"monad dashboard/MessageBoard.sol\":540:550  msg.sender */\n      caller\n        /* \"monad dashboard/MessageBoard.sol\":529:574  NewMessage(msg.sender, text, block.timestamp) */\n      0xffffffffffffffffffffffffffffffffffffffff\n      and\n      0x4bba44446aea2a9f27db36c95346239fd392bf3a497349684a3890d0d764077d\n        /* \"monad dashboard/MessageBoard.sol\":552:556  text */\n      dup4\n      dup4\n        /* \"monad dashboard/MessageBoard.sol\":558:573  block.timestamp */\n      timestamp\n        /* \"monad dashboard/MessageBoard.sol\":529:574  NewMessage(msg.sender, text, block.timestamp) */\n      mload(0x40)\n      tag_45\n      swap4\n      swap3\n      swap2\n      swap1\n      tag_46\n      jump\t// in\n    tag_45:\n      mload(0x40)\n      dup1\n      swap2\n      sub\n      swap1\n      log2\n        /* \"monad dashboard/MessageBoard.sol\":311:582  function post(string calldata text) external {... */\n      pop\n      pop\n      jump\t// out\n        /* \"#utility.yul\":88:205   */\n    tag_48:\n        /* \"#utility.yul\":197:198   */\n      0x00\n        /* \"#utility.yul\":194:195   */\n      dup1\n        /* \"#utility.yul\":187:199   */\n      revert\n        /* \"#utility.yul\":211:328   */\n    tag_49:\n        /* \"#utility.yul\":320:321   */\n      0x00\n        /* \"#utility.yul\":317:318   */\n      dup1\n        /* \"#utility.yul\":310:322   */\n      revert\n        /* \"#utility.yul\":334:411   */\n    tag_50:\n        /* \"#utility.yul\":371:378   */\n      0x00\n        /* \"#utility.yul\":400:405   */\n      dup2\n        /* \"#utility.yul\":389:405   */\n      swap1\n      pop\n        /* \"#utility.yul\":334:411   */\n      swap2\n      swap1\n      pop\n      jump\t// out\n        /* \"#utility.yul\":417:539   */\n    tag_51:\n        /* \"#utility.yul\":490:514   */\n      tag_104\n        /* \"#utility.yul\":508:513   */\n      dup2\n        /* \"#utility.yul\":490:514   */\n      tag_50\n      jump\t// in\n    tag_104:\n        /* \"#utility.yul\":483:488   */\n      dup2\n        /* \"#utility.yul\":480:515   */\n      eq\n        /* \"#utility.yul\":470:533   */\n      tag_105\n      jumpi\n        /* \"#utility.yul\":529:530   */\n      0x00\n        /* \"#utility.yul\":526:527   */\n      dup1\n        /* \"#utility.yul\":519:531   */\n      revert\n        /* \"#utility.yul\":470:533   */\n    tag_105:\n        /* \"#utility.yul\":417:539   */\n      pop\n      jump\t// out\n        /* \"#utility.yul\":545:684   */\n    tag_52:\n        /* \"#utility.yul\":591:596   */\n      0x00\n        /* \"#utility.yul\":629:635   */\n      dup2\n        /* \"#utility.yul\":616:636   */\n      calldataload\n        /* \"#utility.yul\":607:636   */\n      swap1\n      pop\n        /* \"#utility.yul\":645:678   */\n      tag_107\n        /* \"#utility.yul\":672:677   */\n      dup2\n        /* \"#utility.yul\":645:678   */\n      tag_51\n      jump\t// in\n    tag_107:\n        /* \"#utility.yul\":545:684   */\n      swap3\n      swap2\n      pop\n      pop\n      jump\t// out\n        /* \"#utility.yul\":690:1019   */\n    tag_8:\n        /* \"#utility.yul\":749:755   */\n      0x00\n        /* \"#utility.yul\":798:800   */\n      0x20\n        /* \"#utility.yul\":786:795   */\n      dup3\n        /* \"#utility.yul\":777:784   */\n      dup5\n        /* \"#utility.yul\":773:796   */\n      sub\n        /* \"#utility.yul\":769:801   */\n      slt\n        /* \"#utility.yul\":766:885   */\n      iszero\n      tag_109\n      jumpi\n        /* \"#utility.yul\":804:883   */\n      tag_110\n      tag_48\n      jump\t// in\n    tag_110:\n        /* \"#utility.yul\":766:885   */\n    tag_109:\n        /* \"#utility.yul\":924:925   */\n      0x00\n        /* \"#utility.yul\":949:1002   */\n      tag_111\n        /* \"#utility.yul\":994:1001   */\n      dup5\n        /* \"#utility.yul\":985:991   */\n      dup3\n        /* \"#utility.yul\":974:983   */\n      dup6\n        /* \"#utility.yul\":970:992   */\n      add\n        /* \"#utility.yul\":949:1002   */\n      tag_52\n      jump\t// in\n    tag_111:\n        /* \"#utility.yul\":939:1002   */\n      swap2\n      pop\n        /* \"#utility.yul\":895:1012   */\n      pop\n        /* \"#utility.yul\":690:1019   */\n      swap3\n      swap2\n      pop\n      pop\n      jump\t// out\n        /* \"#utility.yul\":1025:1151   */\n    tag_53:\n        /* \"#utility.yul\":1062:1069   */\n      0x00\n        /* \"#utility.yul\":1102:1144   */\n      0xffffffffffffffffffffffffffffffffffffffff\n        /* \"#utility.yul\":1095:1100   */\n      dup3\n        /* \"#utility.yul\":1091:1145   */\n      and\n        /* \"#utility.yul\":1080:1145   */\n      swap1\n      pop\n        /* \"#utility.yul\":1025:1151   */\n      swap2\n      swap1\n      pop\n      jump\t// out\n        /* \"#utility.yul\":1157:1253   */\n    tag_54:\n        /* \"#utility.yul\":1194:1201   */\n      0x00\n        /* \"#utility.yul\":1223:1247   */\n      tag_114\n        /* \"#utility.yul\":1241:1246   */\n      dup3\n        /* \"#utility.yul\":1223:1247   */\n      tag_53\n      jump\t// in\n    tag_114:\n        /* \"#utility.yul\":1212:1247   */\n      swap1\n      pop\n        /* \"#utility.yul\":1157:1253   */\n      swap2\n      swap1\n      pop\n      jump\t// out\n        /* \"#utility.yul\":1259:1377   */\n    tag_55:\n        /* \"#utility.yul\":1346:1370   */\n      tag_116\n        /* \"#utility.yul\":1364:1369   */\n      dup2\n        /* \"#utility.yul\":1346:1370   */\n      tag_54\n      jump\t// in\n    tag_116:\n        /* \"#utility.yul\":1341:1344   */\n      dup3\n        /* \"#utility.yul\":1334:1371   */\n      mstore\n        /* \"#utility.yul\":1259:1377   */\n      pop\n      pop\n      jump\t// out\n        /* \"#utility.yul\":1383:1482   */\n    tag_56:\n        /* \"#utility.yul\":1435:1441   */\n      0x00\n        /* \"#utility.yul\":1469:1474   */\n      dup2\n        /* \"#utility.yul\":1463:1475   */\n      mload\n        /* \"#utility.yul\":1453:1475   */\n      swap1\n      pop\n        /* \"#utility.yul\":1383:1482   */\n      swap2\n      swap1\n      pop\n      jump\t// out\n        /* \"#utility.yul\":1488:1657   */\n    tag_57:\n        /* \"#utility.yul\":1572:1583   */\n      0x00\n        /* \"#utility.yul\":1606:1612   */\n      dup3\n        /* \"#utility.yul\":1601:1604   */\n      dup3\n        /* \"#utility.yul\":1594:1613   */\n      mstore\n        /* \"#utility.yul\":1646:1650   */\n      0x20\n        /* \"#utility.yul\":1641:1644   */\n      dup3\n        /* \"#utility.yul\":1637:1651   */\n      add\n        /* \"#utility.yul\":1622:1651   */\n      swap1\n      pop\n        /* \"#utility.yul\":1488:1657   */\n      swap3\n      swap2\n      pop\n      pop\n      jump\t// out\n        /* \"#utility.yul\":1663:1909   */\n    tag_58:\n        /* \"#utility.yul\":1744:1745   */\n      0x00\n        /* \"#utility.yul\":1754:1867   */\n    tag_120:\n        /* \"#utility.yul\":1768:1774   */\n      dup4\n        /* \"#utility.yul\":1765:1766   */\n      dup2\n        /* \"#utility.yul\":1762:1775   */\n      lt\n        /* \"#utility.yul\":1754:1867   */\n      iszero\n      tag_122\n      jumpi\n        /* \"#utility.yul\":1853:1854   */\n      dup1\n        /* \"#utility.yul\":1848:1851   */\n      dup3\n        /* \"#utility.yul\":1844:1855   */\n      add\n        /* \"#utility.yul\":1838:1856   */\n      mload\n        /* \"#utility.yul\":1834:1835   */\n      dup2\n        /* \"#utility.yul\":1829:1832   */\n      dup5\n        /* \"#utility.yul\":1825:1836   */\n      add\n        /* \"#utility.yul\":1818:1857   */\n      mstore\n        /* \"#utility.yul\":1790:1792   */\n      0x20\n        /* \"#utility.yul\":1787:1788   */\n      dup2\n        /* \"#utility.yul\":1783:1793   */\n      add\n        /* \"#utility.yul\":1778:1793   */\n      swap1\n      pop\n        /* \"#utility.yul\":1754:1867   */\n      jump(tag_120)\n    tag_122:\n        /* \"#utility.yul\":1901:1902   */\n      0x00\n        /* \"#utility.yul\":1892:1898   */\n      dup5\n        /* \"#utility.yul\":1887:1890   */\n      dup5\n        /* \"#utility.yul\":1883:1899   */\n      add\n        /* \"#utility.yul\":1876:1903   */\n      mstore\n        /* \"#utility.yul\":1725:1909   */\n      pop\n        /* \"#utility.yul\":1663:1909   */\n      pop\n      pop\n      pop\n      jump\t// out\n        /* \"#utility.yul\":1915:2017   */\n    tag_59:\n        /* \"#utility.yul\":1956:1962   */\n      0x00\n        /* \"#utility.yul\":2007:2009   */\n      0x1f\n        /* \"#utility.yul\":2003:2010   */\n      not\n        /* \"#utility.yul\":1998:2000   */\n      0x1f\n        /* \"#utility.yul\":1991:1996   */\n      dup4\n        /* \"#utility.yul\":1987:2001   */\n      add\n        /* \"#utility.yul\":1983:2011   */\n      and\n        /* \"#utility.yul\":1973:2011   */\n      swap1\n      pop\n        /* \"#utility.yul\":1915:2017   */\n      swap2\n      swap1\n      pop\n      jump\t// out\n        /* \"#utility.yul\":2023:2400   */\n    tag_60:\n        /* \"#utility.yul\":2111:2114   */\n      0x00\n        /* \"#utility.yul\":2139:2178   */\n      tag_125\n        /* \"#utility.yul\":2172:2177   */\n      dup3\n        /* \"#utility.yul\":2139:2178   */\n      tag_56\n      jump\t// in\n    tag_125:\n        /* \"#utility.yul\":2194:2265   */\n      tag_126\n        /* \"#utility.yul\":2258:2264   */\n      dup2\n        /* \"#utility.yul\":2253:2256   */\n      dup6\n        /* \"#utility.yul\":2194:2265   */\n      tag_57\n      jump\t// in\n    tag_126:\n        /* \"#utility.yul\":2187:2265   */\n      swap4\n      pop\n        /* \"#utility.yul\":2274:2339   */\n      tag_127\n        /* \"#utility.yul\":2332:2338   */\n      dup2\n        /* \"#utility.yul\":2327:2330   */\n      dup6\n        /* \"#utility.yul\":2320:2324   */\n      0x20\n        /* \"#utility.yul\":2313:2318   */\n      dup7\n        /* \"#utility.yul\":2309:2325   */\n      add\n        /* \"#utility.yul\":2274:2339   */\n      tag_58\n      jump\t// in\n    tag_127:\n        /* \"#utility.yul\":2364:2393   */\n      tag_128\n        /* \"#utility.yul\":2386:2392   */\n      dup2\n        /* \"#utility.yul\":2364:2393   */\n      tag_59\n      jump\t// in\n    tag_128:\n        /* \"#utility.yul\":2359:2362   */\n      dup5\n        /* \"#utility.yul\":2355:2394   */\n      add\n        /* \"#utility.yul\":2348:2394   */\n      swap2\n      pop\n        /* \"#utility.yul\":2115:2400   */\n      pop\n        /* \"#utility.yul\":2023:2400   */\n      swap3\n      swap2\n      pop\n      pop\n      jump\t// out\n        /* \"#utility.yul\":2406:2524   */\n    tag_61:\n        /* \"#utility.yul\":2493:2517   */\n      tag_130\n        /* \"#utility.yul\":2511:2516   */\n      dup2\n        /* \"#utility.yul\":2493:2517   */\n      tag_50\n      jump\t// in\n    tag_130:\n        /* \"#utility.yul\":2488:2491   */\n      dup3\n        /* \"#utility.yul\":2481:2518   */\n      mstore\n        /* \"#utility.yul\":2406:2524   */\n      pop\n      pop\n      jump\t// out\n        /* \"#utility.yul\":2530:3063   */\n    tag_11:\n        /* \"#utility.yul\":2699:2703   */\n      0x00\n        /* \"#utility.yul\":2737:2739   */\n      0x60\n        /* \"#utility.yul\":2726:2735   */\n      dup3\n        /* \"#utility.yul\":2722:2740   */\n      add\n        /* \"#utility.yul\":2714:2740   */\n      swap1\n      pop\n        /* \"#utility.yul\":2750:2821   */\n      tag_132\n        /* \"#utility.yul\":2818:2819   */\n      0x00\n        /* \"#utility.yul\":2807:2816   */\n      dup4\n        /* \"#utility.yul\":2803:2820   */\n      add\n        /* \"#utility.yul\":2794:2800   */\n      dup7\n        /* \"#utility.yul\":2750:2821   */\n      tag_55\n      jump\t// in\n    tag_132:\n        /* \"#utility.yul\":2868:2877   */\n      dup2\n        /* \"#utility.yul\":2862:2866   */\n      dup2\n        /* \"#utility.yul\":2858:2878   */\n      sub\n        /* \"#utility.yul\":2853:2855   */\n      0x20\n        /* \"#utility.yul\":2842:2851   */\n      dup4\n        /* \"#utility.yul\":2838:2856   */\n      add\n        /* \"#utility.yul\":2831:2879   */\n      mstore\n        /* \"#utility.yul\":2896:2974   */\n      tag_133\n        /* \"#utility.yul\":2969:2973   */\n      dup2\n        /* \"#utility.yul\":2960:2966   */\n      dup6\n        /* \"#utility.yul\":2896:2974   */\n      tag_60\n      jump\t// in\n    tag_133:\n        /* \"#utility.yul\":2888:2974   */\n      swap1\n      pop\n        /* \"#utility.yul\":2984:3056   */\n      tag_134\n        /* \"#utility.yul\":3052:3054   */\n      0x40\n        /* \"#utility.yul\":3041:3050   */\n      dup4\n        /* \"#utility.yul\":3037:3055   */\n      add\n        /* \"#utility.yul\":3028:3034   */\n      dup5\n        /* \"#utility.yul\":2984:3056   */\n      tag_61\n      jump\t// in\n    tag_134:\n        /* \"#utility.yul\":2530:3063   */\n      swap5\n      swap4\n      pop\n      pop\n      pop\n      pop\n      jump\t// out\n        /* \"#utility.yul\":3069:3205   */\n    tag_62:\n        /* \"#utility.yul\":3158:3164   */\n      0x00\n        /* \"#utility.yul\":3192:3197   */\n      dup2\n        /* \"#utility.yul\":3186:3198   */\n      mload\n        /* \"#utility.yul\":3176:3198   */\n      swap1\n      pop\n        /* \"#utility.yul\":3069:3205   */\n      swap2\n      swap1\n      pop\n      jump\t// out\n        /* \"#utility.yul\":3211:3417   */\n    tag_63:\n        /* \"#utility.yul\":3332:3343   */\n      0x00\n        /* \"#utility.yul\":3366:3372   */\n      dup3\n        /* \"#utility.yul\":3361:3364   */\n      dup3\n        /* \"#utility.yul\":3354:3373   */\n      mstore\n        /* \"#utility.yul\":3406:3410   */\n      0x20\n        /* \"#utility.yul\":3401:3404   */\n      dup3\n        /* \"#utility.yul\":3397:3411   */\n      add\n        /* \"#utility.yul\":3382:3411   */\n      swap1\n      pop\n        /* \"#utility.yul\":3211:3417   */\n      swap3\n      swap2\n      pop\n      pop\n      jump\t// out\n        /* \"#utility.yul\":3423:3577   */\n    tag_64:\n        /* \"#utility.yul\":3512:3516   */\n      0x00\n        /* \"#utility.yul\":3535:3538   */\n      dup2\n        /* \"#utility.yul\":3527:3538   */\n      swap1\n      pop\n        /* \"#utility.yul\":3565:3569   */\n      0x20\n        /* \"#utility.yul\":3560:3563   */\n      dup3\n        /* \"#utility.yul\":3556:3570   */\n      add\n        /* \"#utility.yul\":3548:3570   */\n      swap1\n      pop\n        /* \"#utility.yul\":3423:3577   */\n      swap2\n      swap1\n      pop\n      jump\t// out\n        /* \"#utility.yul\":3583:3691   */\n    tag_65:\n        /* \"#utility.yul\":3660:3684   */\n      tag_139\n        /* \"#utility.yul\":3678:3683   */\n      dup2\n        /* \"#utility.yul\":3660:3684   */\n      tag_54\n      jump\t// in\n    tag_139:\n        /* \"#utility.yul\":3655:3658   */\n      dup3\n        /* \"#utility.yul\":3648:3685   */\n      mstore\n        /* \"#utility.yul\":3583:3691   */\n      pop\n      pop\n      jump\t// out\n        /* \"#utility.yul\":3697:3856   */\n    tag_66:\n        /* \"#utility.yul\":3771:3782   */\n      0x00\n        /* \"#utility.yul\":3805:3811   */\n      dup3\n        /* \"#utility.yul\":3800:3803   */\n      dup3\n        /* \"#utility.yul\":3793:3812   */\n      mstore\n        /* \"#utility.yul\":3845:3849   */\n      0x20\n        /* \"#utility.yul\":3840:3843   */\n      dup3\n        /* \"#utility.yul\":3836:3850   */\n      add\n        /* \"#utility.yul\":3821:3850   */\n      swap1\n      pop\n        /* \"#utility.yul\":3697:3856   */\n      swap3\n      swap2\n      pop\n      pop\n      jump\t// out\n        /* \"#utility.yul\":3862:4219   */\n    tag_67:\n        /* \"#utility.yul\":3940:3943   */\n      0x00\n        /* \"#utility.yul\":3968:4007   */\n      tag_142\n        /* \"#utility.yul\":4001:4006   */\n      dup3\n        /* \"#utility.yul\":3968:4007   */\n      tag_56\n      jump\t// in\n    tag_142:\n        /* \"#utility.yul\":4023:4084   */\n      tag_143\n        /* \"#utility.yul\":4077:4083   */\n      dup2\n        /* \"#utility.yul\":4072:4075   */\n      dup6\n        /* \"#utility.yul\":4023:4084   */\n      tag_66\n      jump\t// in\n    tag_143:\n        /* \"#utility.yul\":4016:4084   */\n      swap4\n      pop\n        /* \"#utility.yul\":4093:4158   */\n      tag_144\n        /* \"#utility.yul\":4151:4157   */\n      dup2\n        /* \"#utility.yul\":4146:4149   */\n      dup6\n        /* \"#utility.yul\":4139:4143   */\n      0x20\n        /* \"#utility.yul\":4132:4137   */\n      dup7\n        /* \"#utility.yul\":4128:4144   */\n      add\n        /* \"#utility.yul\":4093:4158   */\n      tag_58\n      jump\t// in\n    tag_144:\n        /* \"#utility.yul\":4183:4212   */\n      tag_145\n        /* \"#utility.yul\":4205:4211   */\n      dup2\n        /* \"#utility.yul\":4183:4212   */\n      tag_59\n      jump\t// in\n    tag_145:\n        /* \"#utility.yul\":4178:4181   */\n      dup5\n        /* \"#utility.yul\":4174:4213   */\n      add\n        /* \"#utility.yul\":4167:4213   */\n      swap2\n      pop\n        /* \"#utility.yul\":3944:4219   */\n      pop\n        /* \"#utility.yul\":3862:4219   */\n      swap3\n      swap2\n      pop\n      pop\n      jump\t// out\n        /* \"#utility.yul\":4225:4333   */\n    tag_68:\n        /* \"#utility.yul\":4302:4326   */\n      tag_147\n        /* \"#utility.yul\":4320:4325   */\n      dup2\n        /* \"#utility.yul\":4302:4326   */\n      tag_50\n      jump\t// in\n    tag_147:\n        /* \"#utility.yul\":4297:4300   */\n      dup3\n        /* \"#utility.yul\":4290:4327   */\n      mstore\n        /* \"#utility.yul\":4225:4333   */\n      pop\n      pop\n      jump\t// out\n        /* \"#utility.yul\":4405:5176   */\n    tag_69:\n        /* \"#utility.yul\":4508:4511   */\n      0x00\n        /* \"#utility.yul\":4544:4548   */\n      0x60\n        /* \"#utility.yul\":4539:4542   */\n      dup4\n        /* \"#utility.yul\":4535:4549   */\n      add\n        /* \"#utility.yul\":4633:4637   */\n      0x00\n        /* \"#utility.yul\":4626:4631   */\n      dup4\n        /* \"#utility.yul\":4622:4638   */\n      add\n        /* \"#utility.yul\":4616:4639   */\n      mload\n        /* \"#utility.yul\":4652:4715   */\n      tag_149\n        /* \"#utility.yul\":4709:4713   */\n      0x00\n        /* \"#utility.yul\":4704:4707   */\n      dup7\n        /* \"#utility.yul\":4700:4714   */\n      add\n        /* \"#utility.yul\":4686:4698   */\n      dup3\n        /* \"#utility.yul\":4652:4715   */\n      tag_65\n      jump\t// in\n    tag_149:\n        /* \"#utility.yul\":4559:4725   */\n      pop\n        /* \"#utility.yul\":4807:4811   */\n      0x20\n        /* \"#utility.yul\":4800:4805   */\n      dup4\n        /* \"#utility.yul\":4796:4812   */\n      add\n        /* \"#utility.yul\":4790:4813   */\n      mload\n        /* \"#utility.yul\":4860:4863   */\n      dup5\n        /* \"#utility.yul\":4854:4858   */\n      dup3\n        /* \"#utility.yul\":4850:4864   */\n      sub\n        /* \"#utility.yul\":4843:4847   */\n      0x20\n        /* \"#utility.yul\":4838:4841   */\n      dup7\n        /* \"#utility.yul\":4834:4848   */\n      add\n        /* \"#utility.yul\":4827:4865   */\n      mstore\n        /* \"#utility.yul\":4886:4959   */\n      tag_150\n        /* \"#utility.yul\":4954:4958   */\n      dup3\n        /* \"#utility.yul\":4940:4952   */\n      dup3\n        /* \"#utility.yul\":4886:4959   */\n      tag_67\n      jump\t// in\n    tag_150:\n        /* \"#utility.yul\":4878:4959   */\n      swap2\n      pop\n        /* \"#utility.yul\":4735:4970   */\n      pop\n        /* \"#utility.yul\":5057:5061   */\n      0x40\n        /* \"#utility.yul\":5050:5055   */\n      dup4\n        /* \"#utility.yul\":5046:5062   */\n      add\n        /* \"#utility.yul\":5040:5063   */\n      mload\n        /* \"#utility.yul\":5076:5139   */\n      tag_151\n        /* \"#utility.yul\":5133:5137   */\n      0x40\n        /* \"#utility.yul\":5128:5131   */\n      dup7\n        /* \"#utility.yul\":5124:5138   */\n      add\n        /* \"#utility.yul\":5110:5122   */\n      dup3\n        /* \"#utility.yul\":5076:5139   */\n      tag_68\n      jump\t// in\n    tag_151:\n        /* \"#utility.yul\":4980:5149   */\n      pop\n        /* \"#utility.yul\":5166:5170   */\n      dup1\n        /* \"#utility.yul\":5159:5170   */\n      swap2\n      pop\n        /* \"#utility.yul\":4513:5176   */\n      pop\n        /* \"#utility.yul\":4405:5176   */\n      swap3\n      swap2\n      pop\n      pop\n      jump\t// out\n        /* \"#utility.yul\":5182:5426   */\n    tag_70:\n        /* \"#utility.yul\":5295:5305   */\n      0x00\n        /* \"#utility.yul\":5330:5420   */\n      tag_153\n        /* \"#utility.yul\":5416:5419   */\n      dup4\n        /* \"#utility.yul\":5408:5414   */\n      dup4\n        /* \"#utility.yul\":5330:5420   */\n      tag_69\n      jump\t// in\n    tag_153:\n        /* \"#utility.yul\":5316:5420   */\n      swap1\n      pop\n        /* \"#utility.yul\":5182:5426   */\n      swap3\n      swap2\n      pop\n      pop\n      jump\t// out\n        /* \"#utility.yul\":5432:5567   */\n    tag_71:\n        /* \"#utility.yul\":5524:5528   */\n      0x00\n        /* \"#utility.yul\":5556:5560   */\n      0x20\n        /* \"#utility.yul\":5551:5554   */\n      dup3\n        /* \"#utility.yul\":5547:5561   */\n      add\n        /* \"#utility.yul\":5539:5561   */\n      swap1\n      pop\n        /* \"#utility.yul\":5432:5567   */\n      swap2\n      swap1\n      pop\n      jump\t// out\n        /* \"#utility.yul\":5643:6730   */\n    tag_72:\n        /* \"#utility.yul\":5806:5809   */\n      0x00\n        /* \"#utility.yul\":5835:5911   */\n      tag_156\n        /* \"#utility.yul\":5905:5910   */\n      dup3\n        /* \"#utility.yul\":5835:5911   */\n      tag_62\n      jump\t// in\n    tag_156:\n        /* \"#utility.yul\":5927:6035   */\n      tag_157\n        /* \"#utility.yul\":6028:6034   */\n      dup2\n        /* \"#utility.yul\":6023:6026   */\n      dup6\n        /* \"#utility.yul\":5927:6035   */\n      tag_63\n      jump\t// in\n    tag_157:\n        /* \"#utility.yul\":5920:6035   */\n      swap4\n      pop\n        /* \"#utility.yul\":6061:6064   */\n      dup4\n        /* \"#utility.yul\":6106:6110   */\n      0x20\n        /* \"#utility.yul\":6098:6104   */\n      dup3\n        /* \"#utility.yul\":6094:6111   */\n      mul\n        /* \"#utility.yul\":6089:6092   */\n      dup6\n        /* \"#utility.yul\":6085:6112   */\n      add\n        /* \"#utility.yul\":6136:6214   */\n      tag_158\n        /* \"#utility.yul\":6208:6213   */\n      dup6\n        /* \"#utility.yul\":6136:6214   */\n      tag_64\n      jump\t// in\n    tag_158:\n        /* \"#utility.yul\":6237:6244   */\n      dup1\n        /* \"#utility.yul\":6268:6269   */\n      0x00\n        /* \"#utility.yul\":6253:6685   */\n    tag_159:\n        /* \"#utility.yul\":6278:6284   */\n      dup6\n        /* \"#utility.yul\":6275:6276   */\n      dup2\n        /* \"#utility.yul\":6272:6285   */\n      lt\n        /* \"#utility.yul\":6253:6685   */\n      iszero\n      tag_161\n      jumpi\n        /* \"#utility.yul\":6349:6358   */\n      dup5\n        /* \"#utility.yul\":6343:6347   */\n      dup5\n        /* \"#utility.yul\":6339:6359   */\n      sub\n        /* \"#utility.yul\":6334:6337   */\n      dup10\n        /* \"#utility.yul\":6327:6360   */\n      mstore\n        /* \"#utility.yul\":6400:6406   */\n      dup2\n        /* \"#utility.yul\":6394:6407   */\n      mload\n        /* \"#utility.yul\":6428:6536   */\n      tag_162\n        /* \"#utility.yul\":6531:6535   */\n      dup6\n        /* \"#utility.yul\":6516:6529   */\n      dup3\n        /* \"#utility.yul\":6428:6536   */\n      tag_70\n      jump\t// in\n    tag_162:\n        /* \"#utility.yul\":6420:6536   */\n      swap5\n      pop\n        /* \"#utility.yul\":6559:6641   */\n      tag_163\n        /* \"#utility.yul\":6634:6640   */\n      dup4\n        /* \"#utility.yul\":6559:6641   */\n      tag_71\n      jump\t// in\n    tag_163:\n        /* \"#utility.yul\":6549:6641   */\n      swap3\n      pop\n        /* \"#utility.yul\":6670:6674   */\n      0x20\n        /* \"#utility.yul\":6665:6668   */\n      dup11\n        /* \"#utility.yul\":6661:6675   */\n      add\n        /* \"#utility.yul\":6654:6675   */\n      swap10\n      pop\n        /* \"#utility.yul\":6313:6685   */\n      pop\n        /* \"#utility.yul\":6300:6301   */\n      0x01\n        /* \"#utility.yul\":6297:6298   */\n      dup2\n        /* \"#utility.yul\":6293:6302   */\n      add\n        /* \"#utility.yul\":6288:6302   */\n      swap1\n      pop\n        /* \"#utility.yul\":6253:6685   */\n      jump(tag_159)\n    tag_161:\n        /* \"#utility.yul\":6257:6271   */\n      pop\n        /* \"#utility.yul\":6701:6705   */\n      dup3\n        /* \"#utility.yul\":6694:6705   */\n      swap8\n      pop\n        /* \"#utility.yul\":6721:6724   */\n      dup8\n        /* \"#utility.yul\":6714:6724   */\n      swap6\n      pop\n        /* \"#utility.yul\":5811:6730   */\n      pop\n      pop\n      pop\n      pop\n      pop\n        /* \"#utility.yul\":5643:6730   */\n      swap3\n      swap2\n      pop\n      pop\n      jump\t// out\n        /* \"#utility.yul\":6736:7197   */\n    tag_15:\n        /* \"#utility.yul\":6923:6927   */\n      0x00\n        /* \"#utility.yul\":6961:6963   */\n      0x20\n        /* \"#utility.yul\":6950:6959   */\n      dup3\n        /* \"#utility.yul\":6946:6964   */\n      add\n        /* \"#utility.yul\":6938:6964   */\n      swap1\n      pop\n        /* \"#utility.yul\":7010:7019   */\n      dup2\n        /* \"#utility.yul\":7004:7008   */\n      dup2\n        /* \"#utility.yul\":7000:7020   */\n      sub\n        /* \"#utility.yul\":6996:6997   */\n      0x00\n        /* \"#utility.yul\":6985:6994   */\n      dup4\n        /* \"#utility.yul\":6981:6998   */\n      add\n        /* \"#utility.yul\":6974:7021   */\n      mstore\n        /* \"#utility.yul\":7038:7190   */\n      tag_165\n        /* \"#utility.yul\":7185:7189   */\n      dup2\n        /* \"#utility.yul\":7176:7182   */\n      dup5\n        /* \"#utility.yul\":7038:7190   */\n      tag_72\n      jump\t// in\n    tag_165:\n        /* \"#utility.yul\":7030:7190   */\n      swap1\n      pop\n        /* \"#utility.yul\":6736:7197   */\n      swap3\n      swap2\n      pop\n      pop\n      jump\t// out\n        /* \"#utility.yul\":7203:7320   */\n    tag_73:\n        /* \"#utility.yul\":7312:7313   */\n      0x00\n        /* \"#utility.yul\":7309:7310   */\n      dup1\n        /* \"#utility.yul\":7302:7314   */\n      revert\n        /* \"#utility.yul\":7326:7443   */\n    tag_74:\n        /* \"#utility.yul\":7435:7436   */\n      0x00\n        /* \"#utility.yul\":7432:7433   */\n      dup1\n        /* \"#utility.yul\":7425:7437   */\n      revert\n        /* \"#utility.yul\":7449:7566   */\n    tag_75:\n        /* \"#utility.yul\":7558:7559   */\n      0x00\n        /* \"#utility.yul\":7555:7556   */\n      dup1\n        /* \"#utility.yul\":7548:7560   */\n      revert\n        /* \"#utility.yul\":7586:8139   */\n    tag_76:\n        /* \"#utility.yul\":7644:7652   */\n      0x00\n        /* \"#utility.yul\":7654:7660   */\n      dup1\n        /* \"#utility.yul\":7704:7707   */\n      dup4\n        /* \"#utility.yul\":7697:7701   */\n      0x1f\n        /* \"#utility.yul\":7689:7695   */\n      dup5\n        /* \"#utility.yul\":7685:7702   */\n      add\n        /* \"#utility.yul\":7681:7708   */\n      slt\n        /* \"#utility.yul\":7671:7793   */\n      tag_170\n      jumpi\n        /* \"#utility.yul\":7712:7791   */\n      tag_171\n      tag_73\n      jump\t// in\n    tag_171:\n        /* \"#utility.yul\":7671:7793   */\n    tag_170:\n        /* \"#utility.yul\":7825:7831   */\n      dup3\n        /* \"#utility.yul\":7812:7832   */\n      calldataload\n        /* \"#utility.yul\":7802:7832   */\n      swap1\n      pop\n        /* \"#utility.yul\":7855:7873   */\n      0xffffffffffffffff\n        /* \"#utility.yul\":7847:7853   */\n      dup2\n        /* \"#utility.yul\":7844:7874   */\n      gt\n        /* \"#utility.yul\":7841:7958   */\n      iszero\n      tag_172\n      jumpi\n        /* \"#utility.yul\":7877:7956   */\n      tag_173\n      tag_74\n      jump\t// in\n    tag_173:\n        /* \"#utility.yul\":7841:7958   */\n    tag_172:\n        /* \"#utility.yul\":7991:7995   */\n      0x20\n        /* \"#utility.yul\":7983:7989   */\n      dup4\n        /* \"#utility.yul\":7979:7996   */\n      add\n        /* \"#utility.yul\":7967:7996   */\n      swap2\n      pop\n        /* \"#utility.yul\":8045:8048   */\n      dup4\n        /* \"#utility.yul\":8037:8041   */\n      0x01\n        /* \"#utility.yul\":8029:8035   */\n      dup3\n        /* \"#utility.yul\":8025:8042   */\n      mul\n        /* \"#utility.yul\":8015:8023   */\n      dup4\n        /* \"#utility.yul\":8011:8043   */\n      add\n        /* \"#utility.yul\":8008:8049   */\n      gt\n        /* \"#utility.yul\":8005:8133   */\n      iszero\n      tag_174\n      jumpi\n        /* \"#utility.yul\":8052:8131   */\n      tag_175\n      tag_75\n      jump\t// in\n    tag_175:\n        /* \"#utility.yul\":8005:8133   */\n    tag_174:\n        /* \"#utility.yul\":7586:8139   */\n      swap3\n      pop\n      swap3\n      swap1\n      pop\n      jump\t// out\n        /* \"#utility.yul\":8145:8674   */\n    tag_18:\n        /* \"#utility.yul\":8216:8222   */\n      0x00\n        /* \"#utility.yul\":8224:8230   */\n      dup1\n        /* \"#utility.yul\":8273:8275   */\n      0x20\n        /* \"#utility.yul\":8261:8270   */\n      dup4\n        /* \"#utility.yul\":8252:8259   */\n      dup6\n        /* \"#utility.yul\":8248:8271   */\n      sub\n        /* \"#utility.yul\":8244:8276   */\n      slt\n        /* \"#utility.yul\":8241:8360   */\n      iszero\n      tag_177\n      jumpi\n        /* \"#utility.yul\":8279:8358   */\n      tag_178\n      tag_48\n      jump\t// in\n    tag_178:\n        /* \"#utility.yul\":8241:8360   */\n    tag_177:\n        /* \"#utility.yul\":8427:8428   */\n      0x00\n        /* \"#utility.yul\":8416:8425   */\n      dup4\n        /* \"#utility.yul\":8412:8429   */\n      add\n        /* \"#utility.yul\":8399:8430   */\n      calldataload\n        /* \"#utility.yul\":8457:8475   */\n      0xffffffffffffffff\n        /* \"#utility.yul\":8449:8455   */\n      dup2\n        /* \"#utility.yul\":8446:8476   */\n      gt\n        /* \"#utility.yul\":8443:8560   */\n      iszero\n      tag_179\n      jumpi\n        /* \"#utility.yul\":8479:8558   */\n      tag_180\n      tag_49\n      jump\t// in\n    tag_180:\n        /* \"#utility.yul\":8443:8560   */\n    tag_179:\n        /* \"#utility.yul\":8592:8657   */\n      tag_181\n        /* \"#utility.yul\":8649:8656   */\n      dup6\n        /* \"#utility.yul\":8640:8646   */\n      dup3\n        /* \"#utility.yul\":8629:8638   */\n      dup7\n        /* \"#utility.yul\":8625:8647   */\n      add\n        /* \"#utility.yul\":8592:8657   */\n      tag_76\n      jump\t// in\n    tag_181:\n        /* \"#utility.yul\":8574:8657   */\n      swap3\n      pop\n      swap3\n      pop\n        /* \"#utility.yul\":8370:8667   */\n      pop\n        /* \"#utility.yul\":8145:8674   */\n      swap3\n      pop\n      swap3\n      swap1\n      pop\n      jump\t// out\n        /* \"#utility.yul\":8680:8860   */\n    tag_77:\n        /* \"#utility.yul\":8728:8805   */\n      0x4e487b7100000000000000000000000000000000000000000000000000000000\n        /* \"#utility.yul\":8725:8726   */\n      0x00\n        /* \"#utility.yul\":8718:8806   */\n      mstore\n        /* \"#utility.yul\":8825:8829   */\n      0x22\n        /* \"#utility.yul\":8822:8823   */\n      0x04\n        /* \"#utility.yul\":8815:8830   */\n      mstore\n        /* \"#utility.yul\":8849:8853   */\n      0x24\n        /* \"#utility.yul\":8846:8847   */\n      0x00\n        /* \"#utility.yul\":8839:8854   */\n      revert\n        /* \"#utility.yul\":8866:9186   */\n    tag_23:\n        /* \"#utility.yul\":8910:8916   */\n      0x00\n        /* \"#utility.yul\":8947:8948   */\n      0x02\n        /* \"#utility.yul\":8941:8945   */\n      dup3\n        /* \"#utility.yul\":8937:8949   */\n      div\n        /* \"#utility.yul\":8927:8949   */\n      swap1\n      pop\n        /* \"#utility.yul\":8994:8995   */\n      0x01\n        /* \"#utility.yul\":8988:8992   */\n      dup3\n        /* \"#utility.yul\":8984:8996   */\n      and\n        /* \"#utility.yul\":9015:9033   */\n      dup1\n        /* \"#utility.yul\":9005:9086   */\n      tag_184\n      jumpi\n        /* \"#utility.yul\":9071:9075   */\n      0x7f\n        /* \"#utility.yul\":9063:9069   */\n      dup3\n        /* \"#utility.yul\":9059:9076   */\n      and\n        /* \"#utility.yul\":9049:9076   */\n      swap2\n      pop\n        /* \"#utility.yul\":9005:9086   */\n    tag_184:\n        /* \"#utility.yul\":9133:9135   */\n      0x20\n        /* \"#utility.yul\":9125:9131   */\n      dup3\n        /* \"#utility.yul\":9122:9136   */\n      lt\n        /* \"#utility.yul\":9102:9120   */\n      dup2\n        /* \"#utility.yul\":9099:9137   */\n      sub\n        /* \"#utility.yul\":9096:9180   */\n      tag_185\n      jumpi\n        /* \"#utility.yul\":9152:9170   */\n      tag_186\n      tag_77\n      jump\t// in\n    tag_186:\n        /* \"#utility.yul\":9096:9180   */\n    tag_185:\n        /* \"#utility.yul\":8917:9186   */\n      pop\n        /* \"#utility.yul\":8866:9186   */\n      swap2\n      swap1\n      pop\n      jump\t// out\n        /* \"#utility.yul\":9192:9356   */\n    tag_78:\n        /* \"#utility.yul\":9332:9348   */\n      0x496e76616c6964206c656e677468000000000000000000000000000000000000\n        /* \"#utility.yul\":9328:9329   */\n      0x00\n        /* \"#utility.yul\":9320:9326   */\n      dup3\n        /* \"#utility.yul\":9316:9330   */\n      add\n        /* \"#utility.yul\":9309:9349   */\n      mstore\n        /* \"#utility.yul\":9192:9356   */\n      pop\n      jump\t// out\n        /* \"#utility.yul\":9362:9728   */\n    tag_79:\n        /* \"#utility.yul\":9504:9507   */\n      0x00\n        /* \"#utility.yul\":9525:9592   */\n      tag_189\n        /* \"#utility.yul\":9589:9591   */\n      0x0e\n        /* \"#utility.yul\":9584:9587   */\n      dup4\n        /* \"#utility.yul\":9525:9592   */\n      tag_57\n      jump\t// in\n    tag_189:\n        /* \"#utility.yul\":9518:9592   */\n      swap2\n      pop\n        /* \"#utility.yul\":9601:9694   */\n      tag_190\n        /* \"#utility.yul\":9690:9693   */\n      dup3\n        /* \"#utility.yul\":9601:9694   */\n      tag_78\n      jump\t// in\n    tag_190:\n        /* \"#utility.yul\":9719:9721   */\n      0x20\n        /* \"#utility.yul\":9714:9717   */\n      dup3\n        /* \"#utility.yul\":9710:9722   */\n      add\n        /* \"#utility.yul\":9703:9722   */\n      swap1\n      pop\n        /* \"#utility.yul\":9362:9728   */\n      swap2\n      swap1\n      pop\n      jump\t// out\n        /* \"#utility.yul\":9734:10153   */\n    tag_41:\n        /* \"#utility.yul\":9900:9904   */\n      0x00\n        /* \"#utility.yul\":9938:9940   */\n      0x20\n        /* \"#utility.yul\":9927:9936   */\n      dup3\n        /* \"#utility.yul\":9923:9941   */\n      add\n        /* \"#utility.yul\":9915:9941   */\n      swap1\n      pop\n        /* \"#utility.yul\":9987:9996   */\n      dup2\n        /* \"#utility.yul\":9981:9985   */\n      dup2\n        /* \"#utility.yul\":9977:9997   */\n      sub\n        /* \"#utility.yul\":9973:9974   */\n      0x00\n        /* \"#utility.yul\":9962:9971   */\n      dup4\n        /* \"#utility.yul\":9958:9975   */\n      add\n        /* \"#utility.yul\":9951:9998   */\n      mstore\n        /* \"#utility.yul\":10015:10146   */\n      tag_192\n        /* \"#utility.yul\":10141:10145   */\n      dup2\n        /* \"#utility.yul\":10015:10146   */\n      tag_79\n      jump\t// in\n    tag_192:\n        /* \"#utility.yul\":10007:10146   */\n      swap1\n      pop\n        /* \"#utility.yul\":9734:10153   */\n      swap2\n      swap1\n      pop\n      jump\t// out\n        /* \"#utility.yul\":10159:10339   */\n    tag_80:\n        /* \"#utility.yul\":10207:10284   */\n      0x4e487b7100000000000000000000000000000000000000000000000000000000\n        /* \"#utility.yul\":10204:10205   */\n      0x00\n        /* \"#utility.yul\":10197:10285   */\n      mstore\n        /* \"#utility.yul\":10304:10308   */\n      0x41\n        /* \"#utility.yul\":10301:10302   */\n      0x04\n        /* \"#utility.yul\":10294:10309   */\n      mstore\n        /* \"#utility.yul\":10328:10332   */\n      0x24\n        /* \"#utility.yul\":10325:10326   */\n      0x00\n        /* \"#utility.yul\":10318:10333   */\n      revert\n        /* \"#utility.yul\":10345:10486   */\n    tag_81:\n        /* \"#utility.yul\":10394:10398   */\n      0x00\n        /* \"#utility.yul\":10417:10420   */\n      dup2\n        /* \"#utility.yul\":10409:10420   */\n      swap1\n      pop\n        /* \"#utility.yul\":10440:10443   */\n      dup2\n        /* \"#utility.yul\":10437:10438   */\n      0x00\n        /* \"#utility.yul\":10430:10444   */\n      mstore\n        /* \"#utility.yul\":10474:10478   */\n      0x20\n        /* \"#utility.yul\":10471:10472   */\n      0x00\n        /* \"#utility.yul\":10461:10479   */\n      keccak256\n        /* \"#utility.yul\":10453:10479   */\n      swap1\n      pop\n        /* \"#utility.yul\":10345:10486   */\n      swap2\n      swap1\n      pop\n      jump\t// out\n        /* \"#utility.yul\":10492:10585   */\n    tag_82:\n        /* \"#utility.yul\":10529:10535   */\n      0x00\n        /* \"#utility.yul\":10576:10578   */\n      0x20\n        /* \"#utility.yul\":10571:10573   */\n      0x1f\n        /* \"#utility.yul\":10564:10569   */\n      dup4\n        /* \"#utility.yul\":10560:10574   */\n      add\n        /* \"#utility.yul\":10556:10579   */\n      div\n        /* \"#utility.yul\":10546:10579   */\n      swap1\n      pop\n        /* \"#utility.yul\":10492:10585   */\n      swap2\n      swap1\n      pop\n      jump\t// out\n        /* \"#utility.yul\":10591:10698   */\n    tag_83:\n        /* \"#utility.yul\":10635:10643   */\n      0x00\n        /* \"#utility.yul\":10685:10690   */\n      dup3\n        /* \"#utility.yul\":10679:10683   */\n      dup3\n        /* \"#utility.yul\":10675:10691   */\n      shl\n        /* \"#utility.yul\":10654:10691   */\n      swap1\n      pop\n        /* \"#utility.yul\":10591:10698   */\n      swap3\n      swap2\n      pop\n      pop\n      jump\t// out\n        /* \"#utility.yul\":10704:11097   */\n    tag_84:\n        /* \"#utility.yul\":10773:10779   */\n      0x00\n        /* \"#utility.yul\":10823:10824   */\n      0x08\n        /* \"#utility.yul\":10811:10821   */\n      dup4\n        /* \"#utility.yul\":10807:10825   */\n      mul\n        /* \"#utility.yul\":10846:10943   */\n      tag_198\n        /* \"#utility.yul\":10876:10942   */\n      0xffffffffffffffffffffffffffffffffffffffffffffffffffffffffffffffff\n        /* \"#utility.yul\":10865:10874   */\n      dup3\n        /* \"#utility.yul\":10846:10943   */\n      tag_83\n      jump\t// in\n    tag_198:\n        /* \"#utility.yul\":10964:11003   */\n      tag_199\n        /* \"#utility.yul\":10994:11002   */\n      dup7\n        /* \"#utility.yul\":10983:10992   */\n      dup4\n        /* \"#utility.yul\":10964:11003   */\n      tag_83\n      jump\t// in\n    tag_199:\n        /* \"#utility.yul\":10952:11003   */\n      swap6\n      pop\n        /* \"#utility.yul\":11036:11040   */\n      dup1\n        /* \"#utility.yul\":11032:11041   */\n      not\n        /* \"#utility.yul\":11025:11030   */\n      dup5\n        /* \"#utility.yul\":11021:11042   */\n      and\n        /* \"#utility.yul\":11012:11042   */\n      swap4\n      pop\n        /* \"#utility.yul\":11085:11089   */\n      dup1\n        /* \"#utility.yul\":11075:11083   */\n      dup7\n        /* \"#utility.yul\":11071:11090   */\n      and\n        /* \"#utility.yul\":11064:11069   */\n      dup5\n        /* \"#utility.yul\":11061:11091   */\n      or\n        /* \"#utility.yul\":11051:11091   */\n      swap3\n      pop\n        /* \"#utility.yul\":10780:11097   */\n      pop\n      pop\n        /* \"#utility.yul\":10704:11097   */\n      swap4\n      swap3\n      pop\n      pop\n      pop\n      jump\t// out\n        /* \"#utility.yul\":11103:11163   */\n    tag_85:\n        /* \"#utility.yul\":11131:11134   */\n      0x00\n        /* \"#utility.yul\":11152:11157   */\n      dup2\n        /* \"#utility.yul\":11145:11157   */\n      swap1\n      pop\n        /* \"#utility.yul\":11103:11163   */\n      swap2\n      swap1\n      pop\n      jump\t// out\n        /* \"#utility.yul\":11169:11311   */\n    tag_86:\n        /* \"#utility.yul\":11219:11228   */\n      0x00\n        /* \"#utility.yul\":11252:11305   */\n      tag_202\n        /* \"#utility.yul\":11270:11304   */\n      tag_203\n        /* \"#utility.yul\":11279:11303   */\n      tag_204\n        /* \"#utility.yul\":11297:11302   */\n      dup5\n        /* \"#utility.yul\":11279:11303   */\n      tag_50\n      jump\t// in\n    tag_204:\n        /* \"#utility.yul\":11270:11304   */\n      tag_85\n      jump\t// in\n    tag_203:\n        /* \"#utility.yul\":11252:11305   */\n      tag_50\n      jump\t// in\n    tag_202:\n        /* \"#utility.yul\":11239:11305   */\n      swap1\n      pop\n        /* \"#utility.yul\":11169:11311   */\n      swap2\n      swap1\n      pop\n      jump\t// out\n        /* \"#utility.yul\":11317:11392   */\n    tag_87:\n        /* \"#utility.yul\":11360:11363   */\n      0x00\n        /* \"#utility.yul\":11381:11386   */\n      dup2\n        /* \"#utility.yul\":11374:11386   */\n      swap1\n      pop\n        /* \"#utility.yul\":11317:11392   */\n      swap2\n      swap1\n      pop\n      jump\t// out\n        /* \"#utility.yul\":11398:11667   */\n    tag_88:\n        /* \"#utility.yul\":11508:11547   */\n      tag_207\n        /* \"#utility.yul\":11539:11546   */\n      dup4\n        /* \"#utility.yul\":11508:11547   */\n      tag_86\n      jump\t// in\n    tag_207:\n        /* \"#utility.yul\":11569:11660   */\n      tag_208\n        /* \"#utility.yul\":11618:11659   */\n      tag_209\n        /* \"#utility.yul\":11642:11658   */\n      dup3\n        /* \"#utility.yul\":11618:11659   */\n      tag_87\n      jump\t// in\n    tag_209:\n        /* \"#utility.yul\":11610:11616   */\n      dup5\n        /* \"#utility.yul\":11603:11607   */\n      dup5\n        /* \"#utility.yul\":11597:11608   */\n      sload\n        /* \"#utility.yul\":11569:11660   */\n      tag_84\n      jump\t// in\n    tag_208:\n        /* \"#utility.yul\":11563:11567   */\n      dup3\n        /* \"#utility.yul\":11556:11661   */\n      sstore\n        /* \"#utility.yul\":11474:11667   */\n      pop\n        /* \"#utility.yul\":11398:11667   */\n      pop\n      pop\n      pop\n      jump\t// out\n        /* \"#utility.yul\":11673:11746   */\n    tag_89:\n        /* \"#utility.yul\":11718:11721   */\n      0x00\n        /* \"#utility.yul\":11673:11746   */\n      swap1\n      jump\t// out\n        /* \"#utility.yul\":11752:11941   */\n    tag_90:\n        /* \"#utility.yul\":11829:11861   */\n      tag_212\n      tag_89\n      jump\t// in\n    tag_212:\n        /* \"#utility.yul\":11870:11935   */\n      tag_213\n        /* \"#utility.yul\":11928:11934   */\n      dup2\n        /* \"#utility.yul\":11920:11926   */\n      dup5\n        /* \"#utility.yul\":11914:11918   */\n      dup5\n        /* \"#utility.yul\":11870:11935   */\n      tag_88\n      jump\t// in\n    tag_213:\n        /* \"#utility.yul\":11805:11941   */\n      pop\n        /* \"#utility.yul\":11752:11941   */\n      pop\n      pop\n      jump\t// out\n        /* \"#utility.yul\":11947:12133   */\n    tag_91:\n        /* \"#utility.yul\":12007:12127   */\n    tag_215:\n        /* \"#utility.yul\":12024:12027   */\n      dup2\n        /* \"#utility.yul\":12017:12022   */\n      dup2\n        /* \"#utility.yul\":12014:12028   */\n      lt\n        /* \"#utility.yul\":12007:12127   */\n      iszero\n      tag_217\n      jumpi\n        /* \"#utility.yul\":12078:12117   */\n      tag_218\n        /* \"#utility.yul\":12115:12116   */\n      0x00\n        /* \"#utility.yul\":12108:12113   */\n      dup3\n        /* \"#utility.yul\":12078:12117   */\n      tag_90\n      jump\t// in\n    tag_218:\n        /* \"#utility.yul\":12051:12052   */\n      0x01\n        /* \"#utility.yul\":12044:12049   */\n      dup2\n        /* \"#utility.yul\":12040:12053   */\n      add\n        /* \"#utility.yul\":12031:12053   */\n      swap1\n      pop\n        /* \"#utility.yul\":12007:12127   */\n      jump(tag_215)\n    tag_217:\n        /* \"#utility.yul\":11947:12133   */\n      pop\n      pop\n      jump\t// out\n        /* \"#utility.yul\":12139:12682   */\n    tag_92:\n        /* \"#utility.yul\":12240:12242   */\n      0x1f\n        /* \"#utility.yul\":12235:12238   */\n      dup3\n        /* \"#utility.yul\":12232:12243   */\n      gt\n        /* \"#utility.yul\":12229:12675   */\n      iszero\n      tag_220\n      jumpi\n        /* \"#utility.yul\":12274:12312   */\n      tag_221\n        /* \"#utility.yul\":12306:12311   */\n      dup2\n        /* \"#utility.yul\":12274:12312   */\n      tag_81\n      jump\t// in\n    tag_221:\n        /* \"#utility.yul\":12358:12387   */\n      tag_222\n        /* \"#utility.yul\":12376:12386   */\n      dup5\n        /* \"#utility.yul\":12358:12387   */\n      tag_82\n      jump\t// in\n    tag_222:\n        /* \"#utility.yul\":12348:12356   */\n      dup2\n        /* \"#utility.yul\":12344:12388   */\n      add\n        /* \"#utility.yul\":12541:12543   */\n      0x20\n        /* \"#utility.yul\":12529:12539   */\n      dup6\n        /* \"#utility.yul\":12526:12544   */\n      lt\n        /* \"#utility.yul\":12523:12572   */\n      iszero\n      tag_223\n      jumpi\n        /* \"#utility.yul\":12562:12570   */\n      dup2\n        /* \"#utility.yul\":12547:12570   */\n      swap1\n      pop\n        /* \"#utility.yul\":12523:12572   */\n    tag_223:\n        /* \"#utility.yul\":12585:12665   */\n      tag_224\n        /* \"#utility.yul\":12641:12663   */\n      tag_225\n        /* \"#utility.yul\":12659:12662   */\n      dup6\n        /* \"#utility.yul\":12641:12663   */\n      tag_82\n      jump\t// in\n    tag_225:\n        /* \"#utility.yul\":12631:12639   */\n      dup4\n        /* \"#utility.yul\":12627:12664   */\n      add\n        /* \"#utility.yul\":12614:12625   */\n      dup3\n        /* \"#utility.yul\":12585:12665   */\n      tag_91\n      jump\t// in\n    tag_224:\n        /* \"#utility.yul\":12244:12675   */\n      pop\n      pop\n        /* \"#utility.yul\":12229:12675   */\n    tag_220:\n        /* \"#utility.yul\":12139:12682   */\n      pop\n      pop\n      pop\n      jump\t// out\n        /* \"#utility.yul\":12688:12805   */\n    tag_93:\n        /* \"#utility.yul\":12742:12750   */\n      0x00\n        /* \"#utility.yul\":12792:12797   */\n      dup3\n        /* \"#utility.yul\":12786:12790   */\n      dup3\n        /* \"#utility.yul\":12782:12798   */\n      shr\n        /* \"#utility.yul\":12761:12798   */\n      swap1\n      pop\n        /* \"#utility.yul\":12688:12805   */\n      swap3\n      swap2\n      pop\n      pop\n      jump\t// out\n        /* \"#utility.yul\":12811:12980   */\n    tag_94:\n        /* \"#utility.yul\":12855:12861   */\n      0x00\n        /* \"#utility.yul\":12888:12939   */\n      tag_228\n        /* \"#utility.yul\":12936:12937   */\n      0x00\n        /* \"#utility.yul\":12932:12938   */\n      not\n        /* \"#utility.yul\":12924:12929   */\n      dup5\n        /* \"#utility.yul\":12921:12922   */\n      0x08\n        /* \"#utility.yul\":12917:12930   */\n      mul\n        /* \"#utility.yul\":12888:12939   */\n      tag_93\n      jump\t// in\n    tag_228:\n        /* \"#utility.yul\":12884:12940   */\n      not\n        /* \"#utility.yul\":12969:12973   */\n      dup1\n        /* \"#utility.yul\":12963:12967   */\n      dup4\n        /* \"#utility.yul\":12959:12974   */\n      and\n        /* \"#utility.yul\":12949:12974   */\n      swap2\n      pop\n        /* \"#utility.yul\":12862:12980   */\n      pop\n        /* \"#utility.yul\":12811:12980   */\n      swap3\n      swap2\n      pop\n      pop\n      jump\t// out\n        /* \"#utility.yul\":12985:13280   */\n    tag_95:\n        /* \"#utility.yul\":13061:13065   */\n      0x00\n        /* \"#utility.yul\":13207:13236   */\n      tag_230\n        /* \"#utility.yul\":13232:13235   */\n      dup4\n        /* \"#utility.yul\":13226:13230   */\n      dup4\n        /* \"#utility.yul\":13207:13236   */\n      tag_94\n      jump\t// in\n    tag_230:\n        /* \"#utility.yul\":13199:13236   */\n      swap2\n      pop\n        /* \"#utility.yul\":13269:13272   */\n      dup3\n        /* \"#utility.yul\":13266:13267   */\n      0x02\n        /* \"#utility.yul\":13262:13273   */\n      mul\n        /* \"#utility.yul\":13256:13260   */\n      dup3\n        /* \"#utility.yul\":13253:13274   */\n      or\n        /* \"#utility.yul\":13245:13274   */\n      swap1\n      pop\n        /* \"#utility.yul\":12985:13280   */\n      swap3\n      swap2\n      pop\n      pop\n      jump\t// out\n        /* \"#utility.yul\":13285:14680   */\n    tag_44:\n        /* \"#utility.yul\":13402:13439   */\n      tag_232\n        /* \"#utility.yul\":13435:13438   */\n      dup3\n        /* \"#utility.yul\":13402:13439   */\n      tag_56\n      jump\t// in\n    tag_232:\n        /* \"#utility.yul\":13504:13522   */\n      0xffffffffffffffff\n        /* \"#utility.yul\":13496:13502   */\n      dup2\n        /* \"#utility.yul\":13493:13523   */\n      gt\n        /* \"#utility.yul\":13490:13546   */\n      iszero\n      tag_233\n      jumpi\n        /* \"#utility.yul\":13526:13544   */\n      tag_234\n      tag_80\n      jump\t// in\n    tag_234:\n        /* \"#utility.yul\":13490:13546   */\n    tag_233:\n        /* \"#utility.yul\":13570:13608   */\n      tag_235\n        /* \"#utility.yul\":13602:13606   */\n      dup3\n        /* \"#utility.yul\":13596:13607   */\n      sload\n        /* \"#utility.yul\":13570:13608   */\n      tag_23\n      jump\t// in\n    tag_235:\n        /* \"#utility.yul\":13655:13722   */\n      tag_236\n        /* \"#utility.yul\":13715:13721   */\n      dup3\n        /* \"#utility.yul\":13707:13713   */\n      dup3\n        /* \"#utility.yul\":13701:13705   */\n      dup6\n        /* \"#utility.yul\":13655:13722   */\n      tag_92\n      jump\t// in\n    tag_236:\n        /* \"#utility.yul\":13749:13750   */\n      0x00\n        /* \"#utility.yul\":13773:13777   */\n      0x20\n        /* \"#utility.yul\":13760:13777   */\n      swap1\n      pop\n        /* \"#utility.yul\":13805:13807   */\n      0x1f\n        /* \"#utility.yul\":13797:13803   */\n      dup4\n        /* \"#utility.yul\":13794:13808   */\n      gt\n        /* \"#utility.yul\":13822:13823   */\n      0x01\n        /* \"#utility.yul\":13817:14435   */\n      dup2\n      eq\n      tag_238\n      jumpi\n        /* \"#utility.yul\":14479:14480   */\n      0x00\n        /* \"#utility.yul\":14496:14502   */\n      dup5\n        /* \"#utility.yul\":14493:14570   */\n      iszero\n      tag_239\n      jumpi\n        /* \"#utility.yul\":14545:14554   */\n      dup3\n        /* \"#utility.yul\":14540:14543   */\n      dup8\n        /* \"#utility.yul\":14536:14555   */\n      add\n        /* \"#utility.yul\":14530:14556   */\n      mload\n        /* \"#utility.yul\":14521:14556   */\n      swap1\n      pop\n        /* \"#utility.yul\":14493:14570   */\n    tag_239:\n        /* \"#utility.yul\":14596:14663   */\n      tag_240\n        /* \"#utility.yul\":14656:14662   */\n      dup6\n        /* \"#utility.yul\":14649:14654   */\n      dup3\n        /* \"#utility.yul\":14596:14663   */\n      tag_95\n      jump\t// in\n    tag_240:\n        /* \"#utility.yul\":14590:14594   */\n      dup7\n        /* \"#utility.yul\":14583:14664   */\n      sstore\n        /* \"#utility.yul\":14452:14674   */\n      pop\n        /* \"#utility.yul\":13787:14674   */\n      jump(tag_237)\n        /* \"#utility.yul\":13817:14435   */\n    tag_238:\n        /* \"#utility.yul\":13869:13873   */\n      0x1f\n        /* \"#utility.yul\":13865:13874   */\n      not\n        /* \"#utility.yul\":13857:13863   */\n      dup5\n        /* \"#utility.yul\":13853:13875   */\n      and\n        /* \"#utility.yul\":13903:13940   */\n      tag_241\n        /* \"#utility.yul\":13935:13939   */\n      dup7\n        /* \"#utility.yul\":13903:13940   */\n      tag_81\n      jump\t// in\n    tag_241:\n        /* \"#utility.yul\":13962:13963   */\n      0x00\n        /* \"#utility.yul\":13976:14184   */\n    tag_242:\n        /* \"#utility.yul\":13990:13997   */\n      dup3\n        /* \"#utility.yul\":13987:13988   */\n      dup2\n        /* \"#utility.yul\":13984:13998   */\n      lt\n        /* \"#utility.yul\":13976:14184   */\n      iszero\n      tag_244\n      jumpi\n        /* \"#utility.yul\":14069:14078   */\n      dup5\n        /* \"#utility.yul\":14064:14067   */\n      dup10\n        /* \"#utility.yul\":14060:14079   */\n      add\n        /* \"#utility.yul\":14054:14080   */\n      mload\n        /* \"#utility.yul\":14046:14052   */\n      dup3\n        /* \"#utility.yul\":14039:14081   */\n      sstore\n        /* \"#utility.yul\":14120:14121   */\n      0x01\n        /* \"#utility.yul\":14112:14118   */\n      dup3\n        /* \"#utility.yul\":14108:14122   */\n      add\n        /* \"#utility.yul\":14098:14122   */\n      swap2\n      pop\n        /* \"#utility.yul\":14167:14169   */\n      0x20\n        /* \"#utility.yul\":14156:14165   */\n      dup6\n        /* \"#utility.yul\":14152:14170   */\n      add\n        /* \"#utility.yul\":14139:14170   */\n      swap5\n      pop\n        /* \"#utility.yul\":14013:14017   */\n      0x20\n        /* \"#utility.yul\":14010:14011   */\n      dup2\n        /* \"#utility.yul\":14006:14018   */\n      add\n        /* \"#utility.yul\":14001:14018   */\n      swap1\n      pop\n        /* \"#utility.yul\":13976:14184   */\n      jump(tag_242)\n    tag_244:\n        /* \"#utility.yul\":14212:14218   */\n      dup7\n        /* \"#utility.yul\":14203:14210   */\n      dup4\n        /* \"#utility.yul\":14200:14219   */\n      lt\n        /* \"#utility.yul\":14197:14376   */\n      iszero\n      tag_245\n      jumpi\n        /* \"#utility.yul\":14270:14279   */\n      dup5\n        /* \"#utility.yul\":14265:14268   */\n      dup10\n        /* \"#utility.yul\":14261:14280   */\n      add\n        /* \"#utility.yul\":14255:14281   */\n      mload\n        /* \"#utility.yul\":14313:14361   */\n      tag_246\n        /* \"#utility.yul\":14355:14359   */\n      0x1f\n        /* \"#utility.yul\":14347:14353   */\n      dup10\n        /* \"#utility.yul\":14343:14360   */\n      and\n        /* \"#utility.yul\":14332:14341   */\n      dup3\n        /* \"#utility.yul\":14313:14361   */\n      tag_94\n      jump\t// in\n    tag_246:\n        /* \"#utility.yul\":14305:14311   */\n      dup4\n        /* \"#utility.yul\":14298:14362   */\n      sstore\n        /* \"#utility.yul\":14220:14376   */\n      pop\n        /* \"#utility.yul\":14197:14376   */\n    tag_245:\n        /* \"#utility.yul\":14422:14423   */\n      0x01\n        /* \"#utility.yul\":14418:14419   */\n      0x02\n        /* \"#utility.yul\":14410:14416   */\n      dup9\n        /* \"#utility.yul\":14406:14420   */\n      mul\n        /* \"#utility.yul\":14402:14424   */\n      add\n        /* \"#utility.yul\":14396:14400   */\n      dup9\n        /* \"#utility.yul\":14389:14425   */\n      sstore\n        /* \"#utility.yul\":13824:14435   */\n      pop\n      pop\n      pop\n        /* \"#utility.yul\":13787:14674   */\n    tag_237:\n      pop\n        /* \"#utility.yul\":13377:14680   */\n      pop\n      pop\n      pop\n        /* \"#utility.yul\":13285:14680   */\n      pop\n      pop\n      jump\t// out\n        /* \"#utility.yul\":14686:14832   */\n    tag_96:\n        /* \"#utility.yul\":14783:14789   */\n      dup3\n        /* \"#utility.yul\":14778:14781   */\n      dup2\n        /* \"#utility.yul\":14773:14776   */\n      dup4\n        /* \"#utility.yul\":14760:14790   */\n      calldatacopy\n        /* \"#utility.yul\":14824:14825   */\n      0x00\n        /* \"#utility.yul\":14815:14821   */\n      dup4\n        /* \"#utility.yul\":14810:14813   */\n      dup4\n        /* \"#utility.yul\":14806:14822   */\n      add\n        /* \"#utility.yul\":14799:14826   */\n      mstore\n        /* \"#utility.yul\":14686:14832   */\n      pop\n      pop\n      pop\n      jump\t// out\n        /* \"#utility.yul\":14862:15179   */\n    tag_97:\n        /* \"#utility.yul\":14960:14963   */\n      0x00\n        /* \"#utility.yul\":14981:15052   */\n      tag_249\n        /* \"#utility.yul\":15045:15051   */\n      dup4\n        /* \"#utility.yul\":15040:15043   */\n      dup6\n        /* \"#utility.yul\":14981:15052   */\n      tag_57\n      jump\t// in\n    tag_249:\n        /* \"#utility.yul\":14974:15052   */\n      swap4\n      pop\n        /* \"#utility.yul\":15062:15118   */\n      tag_250\n        /* \"#utility.yul\":15111:15117   */\n      dup4\n        /* \"#utility.yul\":15106:15109   */\n      dup6\n        /* \"#utility.yul\":15099:15104   */\n      dup5\n        /* \"#utility.yul\":15062:15118   */\n      tag_96\n      jump\t// in\n    tag_250:\n        /* \"#utility.yul\":15143:15172   */\n      tag_251\n        /* \"#utility.yul\":15165:15171   */\n      dup4\n        /* \"#utility.yul\":15143:15172   */\n      tag_59\n      jump\t// in\n    tag_251:\n        /* \"#utility.yul\":15138:15141   */\n      dup5\n        /* \"#utility.yul\":15134:15173   */\n      add\n        /* \"#utility.yul\":15127:15173   */\n      swap1\n      pop\n        /* \"#utility.yul\":14862:15179   */\n      swap4\n      swap3\n      pop\n      pop\n      pop\n      jump\t// out\n        /* \"#utility.yul\":15185:15628   */\n    tag_46:\n        /* \"#utility.yul\":15336:15340   */\n      0x00\n        /* \"#utility.yul\":15374:15376   */\n      0x40\n        /* \"#utility.yul\":15363:15372   */\n      dup3\n        /* \"#utility.yul\":15359:15377   */\n      add\n        /* \"#utility.yul\":15351:15377   */\n      swap1\n      pop\n        /* \"#utility.yul\":15423:15432   */\n      dup2\n        /* \"#utility.yul\":15417:15421   */\n      dup2\n        /* \"#utility.yul\":15413:15433   */\n      sub\n        /* \"#utility.yul\":15409:15410   */\n      0x00\n        /* \"#utility.yul\":15398:15407   */\n      dup4\n        /* \"#utility.yul\":15394:15411   */\n      add\n        /* \"#utility.yul\":15387:15434   */\n      mstore\n        /* \"#utility.yul\":15451:15539   */\n      tag_253\n        /* \"#utility.yul\":15534:15538   */\n      dup2\n        /* \"#utility.yul\":15525:15531   */\n      dup6\n        /* \"#utility.yul\":15517:15523   */\n      dup8\n        /* \"#utility.yul\":15451:15539   */\n      tag_97\n      jump\t// in\n    tag_253:\n        /* \"#utility.yul\":15443:15539   */\n      swap1\n      pop\n        /* \"#utility.yul\":15549:15621   */\n      tag_254\n        /* \"#utility.yul\":15617:15619   */\n      0x20\n        /* \"#utility.yul\":15606:15615   */\n      dup4\n        /* \"#utility.yul\":15602:15620   */\n      add\n        /* \"#utility.yul\":15593:15599   */\n      dup5\n        /* \"#utility.yul\":15549:15621   */\n      tag_61\n      jump\t// in\n    tag_254:\n        /* \"#utility.yul\":15185:15628   */\n      swap5\n      swap4\n      pop\n      pop\n      pop\n      pop\n      jump\t// out\n\n    auxdata: 0xa26469706673582212204a3772374e01c29cdd208e0eadd79de7e277f3264e0fa8c7b66fcbda41539eee64736f6c63430008170033\n}\n",
				"bytecode": {
					"linkReferences": {},
					"object": "608060405234801561000f575f80fd5b50610c308061001d5f395ff3fe608060405234801561000f575f80fd5b506004361061003f575f3560e01c80630d80fefd146100435780635ff6cbf3146100755780638ee93cf314610093575b5f80fd5b61005d600480360381019061005891906104b9565b6100af565b60405161006c939291906105bc565b60405180910390f35b61007d610188565b60405161008a9190610766565b60405180910390f35b6100ad60048036038101906100a891906107e7565b6102d1565b005b5f81815481106100bd575f80fd5b905f5260205f2090600302015f91509050805f015f9054906101000a900473ffffffffffffffffffffffffffffffffffffffff16908060010180546101019061085f565b80601f016020809104026020016040519081016040528092919081815260200182805461012d9061085f565b80156101785780601f1061014f57610100808354040283529160200191610178565b820191905f5260205f20905b81548152906001019060200180831161015b57829003601f168201915b5050505050908060020154905083565b60605f805480602002602001604051908101604052809291908181526020015f905b828210156102c8578382905f5260205f2090600302016040518060600160405290815f82015f9054906101000a900473ffffffffffffffffffffffffffffffffffffffff1673ffffffffffffffffffffffffffffffffffffffff1673ffffffffffffffffffffffffffffffffffffffff16815260200160018201805461022f9061085f565b80601f016020809104026020016040519081016040528092919081815260200182805461025b9061085f565b80156102a65780601f1061027d576101008083540402835291602001916102a6565b820191905f5260205f20905b81548152906001019060200180831161028957829003601f168201915b50505050508152602001600282015481525050815260200190600101906101aa565b50505050905090565b5f828290501180156102e857506101188282905011155b610327576040517f08c379a000000000000000000000000000000000000000000000000000000000815260040161031e906108d9565b60405180910390fd5b5f60405180606001604052803373ffffffffffffffffffffffffffffffffffffffff16815260200184848080601f0160208091040260200160405190810160405280939291908181526020018383808284375f81840152601f19601f82011690508083019250505050505050815260200142815250908060018154018082558091505060019003905f5260205f2090600302015f909190919091505f820151815f015f6101000a81548173ffffffffffffffffffffffffffffffffffffffff021916908373ffffffffffffffffffffffffffffffffffffffff160217905550602082015181600101908161041b9190610ac1565b506040820151816002015550503373ffffffffffffffffffffffffffffffffffffffff167f4bba44446aea2a9f27db36c95346239fd392bf3a497349684a3890d0d764077d83834260405161047293929190610bca565b60405180910390a25050565b5f80fd5b5f80fd5b5f819050919050565b61049881610486565b81146104a2575f80fd5b50565b5f813590506104b38161048f565b92915050565b5f602082840312156104ce576104cd61047e565b5b5f6104db848285016104a5565b91505092915050565b5f73ffffffffffffffffffffffffffffffffffffffff82169050919050565b5f61050d826104e4565b9050919050565b61051d81610503565b82525050565b5f81519050919050565b5f82825260208201905092915050565b5f5b8381101561055a57808201518184015260208101905061053f565b5f8484015250505050565b5f601f19601f8301169050919050565b5f61057f82610523565b610589818561052d565b935061059981856020860161053d565b6105a281610565565b840191505092915050565b6105b681610486565b82525050565b5f6060820190506105cf5f830186610514565b81810360208301526105e18185610575565b90506105f060408301846105ad565b949350505050565b5f81519050919050565b5f82825260208201905092915050565b5f819050602082019050919050565b61062a81610503565b82525050565b5f82825260208201905092915050565b5f61064a82610523565b6106548185610630565b935061066481856020860161053d565b61066d81610565565b840191505092915050565b61068181610486565b82525050565b5f606083015f83015161069c5f860182610621565b50602083015184820360208601526106b48282610640565b91505060408301516106c96040860182610678565b508091505092915050565b5f6106df8383610687565b905092915050565b5f602082019050919050565b5f6106fd826105f8565b6107078185610602565b93508360208202850161071985610612565b805f5b85811015610754578484038952815161073585826106d4565b9450610740836106e7565b925060208a0199505060018101905061071c565b50829750879550505050505092915050565b5f6020820190508181035f83015261077e81846106f3565b905092915050565b5f80fd5b5f80fd5b5f80fd5b5f8083601f8401126107a7576107a6610786565b5b8235905067ffffffffffffffff8111156107c4576107c361078a565b5b6020830191508360018202830111156107e0576107df61078e565b5b9250929050565b5f80602083850312156107fd576107fc61047e565b5b5f83013567ffffffffffffffff81111561081a57610819610482565b5b61082685828601610792565b92509250509250929050565b7f4e487b71000000000000000000000000000000000000000000000000000000005f52602260045260245ffd5b5f600282049050600182168061087657607f821691505b60208210810361088957610888610832565b5b50919050565b7f496e76616c6964206c656e6774680000000000000000000000000000000000005f82015250565b5f6108c3600e8361052d565b91506108ce8261088f565b602082019050919050565b5f6020820190508181035f8301526108f0816108b7565b9050919050565b7f4e487b71000000000000000000000000000000000000000000000000000000005f52604160045260245ffd5b5f819050815f5260205f209050919050565b5f6020601f8301049050919050565b5f82821b905092915050565b5f600883026109807fffffffffffffffffffffffffffffffffffffffffffffffffffffffffffffffff82610945565b61098a8683610945565b95508019841693508086168417925050509392505050565b5f819050919050565b5f6109c56109c06109bb84610486565b6109a2565b610486565b9050919050565b5f819050919050565b6109de836109ab565b6109f26109ea826109cc565b848454610951565b825550505050565b5f90565b610a066109fa565b610a118184846109d5565b505050565b5b81811015610a3457610a295f826109fe565b600181019050610a17565b5050565b601f821115610a7957610a4a81610924565b610a5384610936565b81016020851015610a62578190505b610a76610a6e85610936565b830182610a16565b50505b505050565b5f82821c905092915050565b5f610a995f1984600802610a7e565b1980831691505092915050565b5f610ab18383610a8a565b9150826002028217905092915050565b610aca82610523565b67ffffffffffffffff811115610ae357610ae26108f7565b5b610aed825461085f565b610af8828285610a38565b5f60209050601f831160018114610b29575f8415610b17578287015190505b610b218582610aa6565b865550610b88565b601f198416610b3786610924565b5f5b82811015610b5e57848901518255600182019150602085019450602081019050610b39565b86831015610b7b5784890151610b77601f891682610a8a565b8355505b6001600288020188555050505b505050505050565b828183375f83830152505050565b5f610ba9838561052d565b9350610bb6838584610b90565b610bbf83610565565b840190509392505050565b5f6040820190508181035f830152610be3818587610b9e565b9050610bf260208301846105ad565b94935050505056fea26469706673582212204a3772374e01c29cdd208e0eadd79de7e277f3264e0fa8c7b66fcbda41539eee64736f6c63430008170033",
					"opcodes": "PUSH1 0x80 PUSH1 0x40 MSTORE CALLVALUE DUP1 ISZERO PUSH2 0xF JUMPI PUSH0 DUP1 REVERT JUMPDEST POP PUSH2 0xC30 DUP1 PUSH2 0x1D PUSH0 CODECOPY PUSH0 RETURN INVALID PUSH1 0x80 PUSH1 0x40 MSTORE CALLVALUE DUP1 ISZERO PUSH2 0xF JUMPI PUSH0 DUP1 REVERT JUMPDEST POP PUSH1 0x4 CALLDATASIZE LT PUSH2 0x3F JUMPI PUSH0 CALLDATALOAD PUSH1 0xE0 SHR DUP1 PUSH4 0xD80FEFD EQ PUSH2 0x43 JUMPI DUP1 PUSH4 0x5FF6CBF3 EQ PUSH2 0x75 JUMPI DUP1 PUSH4 0x8EE93CF3 EQ PUSH2 0x93 JUMPI JUMPDEST PUSH0 DUP1 REVERT JUMPDEST PUSH2 0x5D PUSH1 0x4 DUP1 CALLDATASIZE SUB DUP2 ADD SWAP1 PUSH2 0x58 SWAP2 SWAP1 PUSH2 0x4B9 JUMP JUMPDEST PUSH2 0xAF JUMP JUMPDEST PUSH1 0x40 MLOAD PUSH2 0x6C SWAP4 SWAP3 SWAP2 SWAP1 PUSH2 0x5BC JUMP JUMPDEST PUSH1 0x40 MLOAD DUP1 SWAP2 SUB SWAP1 RETURN JUMPDEST PUSH2 0x7D PUSH2 0x188 JUMP JUMPDEST PUSH1 0x40 MLOAD PUSH2 0x8A SWAP2 SWAP1 PUSH2 0x766 JUMP JUMPDEST PUSH1 0x40 MLOAD DUP1 SWAP2 SUB SWAP1 RETURN JUMPDEST PUSH2 0xAD PUSH1 0x4 DUP1 CALLDATASIZE SUB DUP2 ADD SWAP1 PUSH2 0xA8 SWAP2 SWAP1 PUSH2 0x7E7 JUMP JUMPDEST PUSH2 0x2D1 JUMP JUMPDEST STOP JUMPDEST PUSH0 DUP2 DUP2 SLOAD DUP2 LT PUSH2 0xBD JUMPI PUSH0 DUP1 REVERT JUMPDEST SWAP1 PUSH0 MSTORE PUSH1 0x20 PUSH0 KECCAK256 SWAP1 PUSH1 0x3 MUL ADD PUSH0 SWAP2 POP SWAP1 POP DUP1 PUSH0 ADD PUSH0 SWAP1 SLOAD SWAP1 PUSH2 0x100 EXP SWAP1 DIV PUSH20 0xFFFFFFFFFFFFFFFFFFFFFFFFFFFFFFFFFFFFFFFF AND SWAP1 DUP1 PUSH1 0x1 ADD DUP1 SLOAD PUSH2 0x101 SWAP1 PUSH2 0x85F JUMP JUMPDEST DUP1 PUSH1 0x1F ADD PUSH1 0x20 DUP1 SWAP2 DIV MUL PUSH1 0x20 ADD PUSH1 0x40 MLOAD SWAP1 DUP2 ADD PUSH1 0x40 MSTORE DUP1 SWAP3 SWAP2 SWAP1 DUP2 DUP2 MSTORE PUSH1 0x20 ADD DUP3 DUP1 SLOAD PUSH2 0x12D SWAP1 PUSH2 0x85F JUMP JUMPDEST DUP1 ISZERO PUSH2 0x178 JUMPI DUP1 PUSH1 0x1F LT PUSH2 0x14F JUMPI PUSH2 0x100 DUP1 DUP4 SLOAD DIV MUL DUP4 MSTORE SWAP2 PUSH1 0x20 ADD SWAP2 PUSH2 0x178 JUMP JUMPDEST DUP3 ADD SWAP2 SWAP1 PUSH0 MSTORE PUSH1 0x20 PUSH0 KECCAK256 SWAP1 JUMPDEST DUP2 SLOAD DUP2 MSTORE SWAP1 PUSH1 0x1 ADD SWAP1 PUSH1 0x20 ADD DUP1 DUP4 GT PUSH2 0x15B JUMPI DUP3 SWAP1 SUB PUSH1 0x1F AND DUP3 ADD SWAP2 JUMPDEST POP POP POP POP POP SWAP1 DUP1 PUSH1 0x2 ADD SLOAD SWAP1 POP DUP4 JUMP JUMPDEST PUSH1 0x60 PUSH0 DUP1 SLOAD DUP1 PUSH1 0x20 MUL PUSH1 0x20 ADD PUSH1 0x40 MLOAD SWAP1 DUP2 ADD PUSH1 0x40 MSTORE DUP1 SWAP3 SWAP2 SWAP1 DUP2 DUP2 MSTORE PUSH1 0x20 ADD PUSH0 SWAP1 JUMPDEST DUP3 DUP3 LT ISZERO PUSH2 0x2C8 JUMPI DUP4 DUP3 SWAP1 PUSH0 MSTORE PUSH1 0x20 PUSH0 KECCAK256 SWAP1 PUSH1 0x3 MUL ADD PUSH1 0x40 MLOAD DUP1 PUSH1 0x60 ADD PUSH1 0x40 MSTORE SWAP1 DUP2 PUSH0 DUP3 ADD PUSH0 SWAP1 SLOAD SWAP1 PUSH2 0x100 EXP SWAP1 DIV PUSH20 0xFFFFFFFFFFFFFFFFFFFFFFFFFFFFFFFFFFFFFFFF AND PUSH20 0xFFFFFFFFFFFFFFFFFFFFFFFFFFFFFFFFFFFFFFFF AND PUSH20 0xFFFFFFFFFFFFFFFFFFFFFFFFFFFFFFFFFFFFFFFF AND DUP2 MSTORE PUSH1 0x20 ADD PUSH1 0x1 DUP3 ADD DUP1 SLOAD PUSH2 0x22F SWAP1 PUSH2 0x85F JUMP JUMPDEST DUP1 PUSH1 0x1F ADD PUSH1 0x20 DUP1 SWAP2 DIV MUL PUSH1 0x20 ADD PUSH1 0x40 MLOAD SWAP1 DUP2 ADD PUSH1 0x40 MSTORE DUP1 SWAP3 SWAP2 SWAP1 DUP2 DUP2 MSTORE PUSH1 0x20 ADD DUP3 DUP1 SLOAD PUSH2 0x25B SWAP1 PUSH2 0x85F JUMP JUMPDEST DUP1 ISZERO PUSH2 0x2A6 JUMPI DUP1 PUSH1 0x1F LT PUSH2 0x27D JUMPI PUSH2 0x100 DUP1 DUP4 SLOAD DIV MUL DUP4 MSTORE SWAP2 PUSH1 0x20 ADD SWAP2 PUSH2 0x2A6 JUMP JUMPDEST DUP3 ADD SWAP2 SWAP1 PUSH0 MSTORE PUSH1 0x20 PUSH0 KECCAK256 SWAP1 JUMPDEST DUP2 SLOAD DUP2 MSTORE SWAP1 PUSH1 0x1 ADD SWAP1 PUSH1 0x20 ADD DUP1 DUP4 GT PUSH2 0x289 JUMPI DUP3 SWAP1 SUB PUSH1 0x1F AND DUP3 ADD SWAP2 JUMPDEST POP POP POP POP POP DUP2 MSTORE PUSH1 0x20 ADD PUSH1 0x2 DUP3 ADD SLOAD DUP2 MSTORE POP POP DUP2 MSTORE PUSH1 0x20 ADD SWAP1 PUSH1 0x1 ADD SWAP1 PUSH2 0x1AA JUMP JUMPDEST POP POP POP POP SWAP1 POP SWAP1 JUMP JUMPDEST PUSH0 DUP3 DUP3 SWAP1 POP GT DUP1 ISZERO PUSH2 0x2E8 JUMPI POP PUSH2 0x118 DUP3 DUP3 SWAP1 POP GT ISZERO JUMPDEST PUSH2 0x327 JUMPI PUSH1 0x40 MLOAD PUSH32 0x8C379A000000000000000000000000000000000000000000000000000000000 DUP2 MSTORE PUSH1 0x4 ADD PUSH2 0x31E SWAP1 PUSH2 0x8D9 JUMP JUMPDEST PUSH1 0x40 MLOAD DUP1 SWAP2 SUB SWAP1 REVERT JUMPDEST PUSH0 PUSH1 0x40 MLOAD DUP1 PUSH1 0x60 ADD PUSH1 0x40 MSTORE DUP1 CALLER PUSH20 0xFFFFFFFFFFFFFFFFFFFFFFFFFFFFFFFFFFFFFFFF AND DUP2 MSTORE PUSH1 0x20 ADD DUP5 DUP5 DUP1 DUP1 PUSH1 0x1F ADD PUSH1 0x20 DUP1 SWAP2 DIV MUL PUSH1 0x20 ADD PUSH1 0x40 MLOAD SWAP1 DUP2 ADD PUSH1 0x40 MSTORE DUP1 SWAP4 SWAP3 SWAP2 SWAP1 DUP2 DUP2 MSTORE PUSH1 0x20 ADD DUP4 DUP4 DUP1 DUP3 DUP5 CALLDATACOPY PUSH0 DUP2 DUP5 ADD MSTORE PUSH1 0x1F NOT PUSH1 0x1F DUP3 ADD AND SWAP1 POP DUP1 DUP4 ADD SWAP3 POP POP POP POP POP POP POP DUP2 MSTORE PUSH1 0x20 ADD TIMESTAMP DUP2 MSTORE POP SWAP1 DUP1 PUSH1 0x1 DUP2 SLOAD ADD DUP1 DUP3 SSTORE DUP1 SWAP2 POP POP PUSH1 0x1 SWAP1 SUB SWAP1 PUSH0 MSTORE PUSH1 0x20 PUSH0 KECCAK256 SWAP1 PUSH1 0x3 MUL ADD PUSH0 SWAP1 SWAP2 SWAP1 SWAP2 SWAP1 SWAP2 POP PUSH0 DUP3 ADD MLOAD DUP2 PUSH0 ADD PUSH0 PUSH2 0x100 EXP DUP2 SLOAD DUP2 PUSH20 0xFFFFFFFFFFFFFFFFFFFFFFFFFFFFFFFFFFFFFFFF MUL NOT AND SWAP1 DUP4 PUSH20 0xFFFFFFFFFFFFFFFFFFFFFFFFFFFFFFFFFFFFFFFF AND MUL OR SWAP1 SSTORE POP PUSH1 0x20 DUP3 ADD MLOAD DUP2 PUSH1 0x1 ADD SWAP1 DUP2 PUSH2 0x41B SWAP2 SWAP1 PUSH2 0xAC1 JUMP JUMPDEST POP PUSH1 0x40 DUP3 ADD MLOAD DUP2 PUSH1 0x2 ADD SSTORE POP POP CALLER PUSH20 0xFFFFFFFFFFFFFFFFFFFFFFFFFFFFFFFFFFFFFFFF AND PUSH32 0x4BBA44446AEA2A9F27DB36C95346239FD392BF3A497349684A3890D0D764077D DUP4 DUP4 TIMESTAMP PUSH1 0x40 MLOAD PUSH2 0x472 SWAP4 SWAP3 SWAP2 SWAP1 PUSH2 0xBCA JUMP JUMPDEST PUSH1 0x40 MLOAD DUP1 SWAP2 SUB SWAP1 LOG2 POP POP JUMP JUMPDEST PUSH0 DUP1 REVERT JUMPDEST PUSH0 DUP1 REVERT JUMPDEST PUSH0 DUP2 SWAP1 POP SWAP2 SWAP1 POP JUMP JUMPDEST PUSH2 0x498 DUP2 PUSH2 0x486 JUMP JUMPDEST DUP2 EQ PUSH2 0x4A2 JUMPI PUSH0 DUP1 REVERT JUMPDEST POP JUMP JUMPDEST PUSH0 DUP2 CALLDATALOAD SWAP1 POP PUSH2 0x4B3 DUP2 PUSH2 0x48F JUMP JUMPDEST SWAP3 SWAP2 POP POP JUMP JUMPDEST PUSH0 PUSH1 0x20 DUP3 DUP5 SUB SLT ISZERO PUSH2 0x4CE JUMPI PUSH2 0x4CD PUSH2 0x47E JUMP JUMPDEST JUMPDEST PUSH0 PUSH2 0x4DB DUP5 DUP3 DUP6 ADD PUSH2 0x4A5 JUMP JUMPDEST SWAP2 POP POP SWAP3 SWAP2 POP POP JUMP JUMPDEST PUSH0 PUSH20 0xFFFFFFFFFFFFFFFFFFFFFFFFFFFFFFFFFFFFFFFF DUP3 AND SWAP1 POP SWAP2 SWAP1 POP JUMP JUMPDEST PUSH0 PUSH2 0x50D DUP3 PUSH2 0x4E4 JUMP JUMPDEST SWAP1 POP SWAP2 SWAP1 POP JUMP JUMPDEST PUSH2 0x51D DUP2 PUSH2 0x503 JUMP JUMPDEST DUP3 MSTORE POP POP JUMP JUMPDEST PUSH0 DUP2 MLOAD SWAP1 POP SWAP2 SWAP1 POP JUMP JUMPDEST PUSH0 DUP3 DUP3 MSTORE PUSH1 0x20 DUP3 ADD SWAP1 POP SWAP3 SWAP2 POP POP JUMP JUMPDEST PUSH0 JUMPDEST DUP4 DUP2 LT ISZERO PUSH2 0x55A JUMPI DUP1 DUP3 ADD MLOAD DUP2 DUP5 ADD MSTORE PUSH1 0x20 DUP2 ADD SWAP1 POP PUSH2 0x53F JUMP JUMPDEST PUSH0 DUP5 DUP5 ADD MSTORE POP POP POP POP JUMP JUMPDEST PUSH0 PUSH1 0x1F NOT PUSH1 0x1F DUP4 ADD AND SWAP1 POP SWAP2 SWAP1 POP JUMP JUMPDEST PUSH0 PUSH2 0x57F DUP3 PUSH2 0x523 JUMP JUMPDEST PUSH2 0x589 DUP2 DUP6 PUSH2 0x52D JUMP JUMPDEST SWAP4 POP PUSH2 0x599 DUP2 DUP6 PUSH1 0x20 DUP7 ADD PUSH2 0x53D JUMP JUMPDEST PUSH2 0x5A2 DUP2 PUSH2 0x565 JUMP JUMPDEST DUP5 ADD SWAP2 POP POP SWAP3 SWAP2 POP POP JUMP JUMPDEST PUSH2 0x5B6 DUP2 PUSH2 0x486 JUMP JUMPDEST DUP3 MSTORE POP POP JUMP JUMPDEST PUSH0 PUSH1 0x60 DUP3 ADD SWAP1 POP PUSH2 0x5CF PUSH0 DUP4 ADD DUP7 PUSH2 0x514 JUMP JUMPDEST DUP2 DUP2 SUB PUSH1 0x20 DUP4 ADD MSTORE PUSH2 0x5E1 DUP2 DUP6 PUSH2 0x575 JUMP JUMPDEST SWAP1 POP PUSH2 0x5F0 PUSH1 0x40 DUP4 ADD DUP5 PUSH2 0x5AD JUMP JUMPDEST SWAP5 SWAP4 POP POP POP POP JUMP JUMPDEST PUSH0 DUP2 MLOAD SWAP1 POP SWAP2 SWAP1 POP JUMP JUMPDEST PUSH0 DUP3 DUP3 MSTORE PUSH1 0x20 DUP3 ADD SWAP1 POP SWAP3 SWAP2 POP POP JUMP JUMPDEST PUSH0 DUP2 SWAP1 POP PUSH1 0x20 DUP3 ADD SWAP1 POP SWAP2 SWAP1 POP JUMP JUMPDEST PUSH2 0x62A DUP2 PUSH2 0x503 JUMP JUMPDEST DUP3 MSTORE POP POP JUMP JUMPDEST PUSH0 DUP3 DUP3 MSTORE PUSH1 0x20 DUP3 ADD SWAP1 POP SWAP3 SWAP2 POP POP JUMP JUMPDEST PUSH0 PUSH2 0x64A DUP3 PUSH2 0x523 JUMP JUMPDEST PUSH2 0x654 DUP2 DUP6 PUSH2 0x630 JUMP JUMPDEST SWAP4 POP PUSH2 0x664 DUP2 DUP6 PUSH1 0x20 DUP7 ADD PUSH2 0x53D JUMP JUMPDEST PUSH2 0x66D DUP2 PUSH2 0x565 JUMP JUMPDEST DUP5 ADD SWAP2 POP POP SWAP3 SWAP2 POP POP JUMP JUMPDEST PUSH2 0x681 DUP2 PUSH2 0x486 JUMP JUMPDEST DUP3 MSTORE POP POP JUMP JUMPDEST PUSH0 PUSH1 0x60 DUP4 ADD PUSH0 DUP4 ADD MLOAD PUSH2 0x69C PUSH0 DUP7 ADD DUP3 PUSH2 0x621 JUMP JUMPDEST POP PUSH1 0x20 DUP4 ADD MLOAD DUP5 DUP3 SUB PUSH1 0x20 DUP7 ADD MSTORE PUSH2 0x6B4 DUP3 DUP3 PUSH2 0x640 JUMP JUMPDEST SWAP2 POP POP PUSH1 0x40 DUP4 ADD MLOAD PUSH2 0x6C9 PUSH1 0x40 DUP7 ADD DUP3 PUSH2 0x678 JUMP JUMPDEST POP DUP1 SWAP2 POP POP SWAP3 SWAP2 POP POP JUMP JUMPDEST PUSH0 PUSH2 0x6DF DUP4 DUP4 PUSH2 0x687 JUMP JUMPDEST SWAP1 POP SWAP3 SWAP2 POP POP JUMP JUMPDEST PUSH0 PUSH1 0x20 DUP3 ADD SWAP1 POP SWAP2 SWAP1 POP JUMP JUMPDEST PUSH0 PUSH2 0x6FD DUP3 PUSH2 0x5F8 JUMP JUMPDEST PUSH2 0x707 DUP2 DUP6 PUSH2 0x602 JUMP JUMPDEST SWAP4 POP DUP4 PUSH1 0x20 DUP3 MUL DUP6 ADD PUSH2 0x719 DUP6 PUSH2 0x612 JUMP JUMPDEST DUP1 PUSH0 JUMPDEST DUP6 DUP2 LT ISZERO PUSH2 0x754 JUMPI DUP5 DUP5 SUB DUP10 MSTORE DUP2 MLOAD PUSH2 0x735 DUP6 DUP3 PUSH2 0x6D4 JUMP JUMPDEST SWAP5 POP PUSH2 0x740 DUP4 PUSH2 0x6E7 JUMP JUMPDEST SWAP3 POP PUSH1 0x20 DUP11 ADD SWAP10 POP POP PUSH1 0x1 DUP2 ADD SWAP1 POP PUSH2 0x71C JUMP JUMPDEST POP DUP3 SWAP8 POP DUP8 SWAP6 POP POP POP POP POP POP SWAP3 SWAP2 POP POP JUMP JUMPDEST PUSH0 PUSH1 0x20 DUP3 ADD SWAP1 POP DUP2 DUP2 SUB PUSH0 DUP4 ADD MSTORE PUSH2 0x77E DUP2 DUP5 PUSH2 0x6F3 JUMP JUMPDEST SWAP1 POP SWAP3 SWAP2 POP POP JUMP JUMPDEST PUSH0 DUP1 REVERT JUMPDEST PUSH0 DUP1 REVERT JUMPDEST PUSH0 DUP1 REVERT JUMPDEST PUSH0 DUP1 DUP4 PUSH1 0x1F DUP5 ADD SLT PUSH2 0x7A7 JUMPI PUSH2 0x7A6 PUSH2 0x786 JUMP JUMPDEST JUMPDEST DUP3 CALLDATALOAD SWAP1 POP PUSH8 0xFFFFFFFFFFFFFFFF DUP2 GT ISZERO PUSH2 0x7C4 JUMPI PUSH2 0x7C3 PUSH2 0x78A JUMP JUMPDEST JUMPDEST PUSH1 0x20 DUP4 ADD SWAP2 POP DUP4 PUSH1 0x1 DUP3 MUL DUP4 ADD GT ISZERO PUSH2 0x7E0 JUMPI PUSH2 0x7DF PUSH2 0x78E JUMP JUMPDEST JUMPDEST SWAP3 POP SWAP3 SWAP1 POP JUMP JUMPDEST PUSH0 DUP1 PUSH1 0x20 DUP4 DUP6 SUB SLT ISZERO PUSH2 0x7FD JUMPI PUSH2 0x7FC PUSH2 0x47E JUMP JUMPDEST JUMPDEST PUSH0 DUP4 ADD CALLDATALOAD PUSH8 0xFFFFFFFFFFFFFFFF DUP2 GT ISZERO PUSH2 0x81A JUMPI PUSH2 0x819 PUSH2 0x482 JUMP JUMPDEST JUMPDEST PUSH2 0x826 DUP6 DUP3 DUP7 ADD PUSH2 0x792 JUMP JUMPDEST SWAP3 POP SWAP3 POP POP SWAP3 POP SWAP3 SWAP1 POP JUMP JUMPDEST PUSH32 0x4E487B7100000000000000000000000000000000000000000000000000000000 PUSH0 MSTORE PUSH1 0x22 PUSH1 0x4 MSTORE PUSH1 0x24 PUSH0 REVERT JUMPDEST PUSH0 PUSH1 0x2 DUP3 DIV SWAP1 POP PUSH1 0x1 DUP3 AND DUP1 PUSH2 0x876 JUMPI PUSH1 0x7F DUP3 AND SWAP2 POP JUMPDEST PUSH1 0x20 DUP3 LT DUP2 SUB PUSH2 0x889 JUMPI PUSH2 0x888 PUSH2 0x832 JUMP JUMPDEST JUMPDEST POP SWAP2 SWAP1 POP JUMP JUMPDEST PUSH32 0x496E76616C6964206C656E677468000000000000000000000000000000000000 PUSH0 DUP3 ADD MSTORE POP JUMP JUMPDEST PUSH0 PUSH2 0x8C3 PUSH1 0xE DUP4 PUSH2 0x52D JUMP JUMPDEST SWAP2 POP PUSH2 0x8CE DUP3 PUSH2 0x88F JUMP JUMPDEST PUSH1 0x20 DUP3 ADD SWAP1 POP SWAP2 SWAP1 POP JUMP JUMPDEST PUSH0 PUSH1 0x20 DUP3 ADD SWAP1 POP DUP2 DUP2 SUB PUSH0 DUP4 ADD MSTORE PUSH2 0x8F0 DUP2 PUSH2 0x8B7 JUMP JUMPDEST SWAP1 POP SWAP2 SWAP1 POP JUMP JUMPDEST PUSH32 0x4E487B7100000000000000000000000000000000000000000000000000000000 PUSH0 MSTORE PUSH1 0x41 PUSH1 0x4 MSTORE PUSH1 0x24 PUSH0 REVERT JUMPDEST PUSH0 DUP2 SWAP1 POP DUP2 PUSH0 MSTORE PUSH1 0x20 PUSH0 KECCAK256 SWAP1 POP SWAP2 SWAP1 POP JUMP JUMPDEST PUSH0 PUSH1 0x20 PUSH1 0x1F DUP4 ADD DIV SWAP1 POP SWAP2 SWAP1 POP JUMP JUMPDEST PUSH0 DUP3 DUP3 SHL SWAP1 POP SWAP3 SWAP2 POP POP JUMP JUMPDEST PUSH0 PUSH1 0x8 DUP4 MUL PUSH2 0x980 PUSH32 0xFFFFFFFFFFFFFFFFFFFFFFFFFFFFFFFFFFFFFFFFFFFFFFFFFFFFFFFFFFFFFFFF DUP3 PUSH2 0x945 JUMP JUMPDEST PUSH2 0x98A DUP7 DUP4 PUSH2 0x945 JUMP JUMPDEST SWAP6 POP DUP1 NOT DUP5 AND SWAP4 POP DUP1 DUP7 AND DUP5 OR SWAP3 POP POP POP SWAP4 SWAP3 POP POP POP JUMP JUMPDEST PUSH0 DUP2 SWAP1 POP SWAP2 SWAP1 POP JUMP JUMPDEST PUSH0 PUSH2 0x9C5 PUSH2 0x9C0 PUSH2 0x9BB DUP5 PUSH2 0x486 JUMP JUMPDEST PUSH2 0x9A2 JUMP JUMPDEST PUSH2 0x486 JUMP JUMPDEST SWAP1 POP SWAP2 SWAP1 POP JUMP JUMPDEST PUSH0 DUP2 SWAP1 POP SWAP2 SWAP1 POP JUMP JUMPDEST PUSH2 0x9DE DUP4 PUSH2 0x9AB JUMP JUMPDEST PUSH2 0x9F2 PUSH2 0x9EA DUP3 PUSH2 0x9CC JUMP JUMPDEST DUP5 DUP5 SLOAD PUSH2 0x951 JUMP JUMPDEST DUP3 SSTORE POP POP POP POP JUMP JUMPDEST PUSH0 SWAP1 JUMP JUMPDEST PUSH2 0xA06 PUSH2 0x9FA JUMP JUMPDEST PUSH2 0xA11 DUP2 DUP5 DUP5 PUSH2 0x9D5 JUMP JUMPDEST POP POP POP JUMP JUMPDEST JUMPDEST DUP2 DUP2 LT ISZERO PUSH2 0xA34 JUMPI PUSH2 0xA29 PUSH0 DUP3 PUSH2 0x9FE JUMP JUMPDEST PUSH1 0x1 DUP2 ADD SWAP1 POP PUSH2 0xA17 JUMP JUMPDEST POP POP JUMP JUMPDEST PUSH1 0x1F DUP3 GT ISZERO PUSH2 0xA79 JUMPI PUSH2 0xA4A DUP2 PUSH2 0x924 JUMP JUMPDEST PUSH2 0xA53 DUP5 PUSH2 0x936 JUMP JUMPDEST DUP2 ADD PUSH1 0x20 DUP6 LT ISZERO PUSH2 0xA62 JUMPI DUP2 SWAP1 POP JUMPDEST PUSH2 0xA76 PUSH2 0xA6E DUP6 PUSH2 0x936 JUMP JUMPDEST DUP4 ADD DUP3 PUSH2 0xA16 JUMP JUMPDEST POP POP JUMPDEST POP POP POP JUMP JUMPDEST PUSH0 DUP3 DUP3 SHR SWAP1 POP SWAP3 SWAP2 POP POP JUMP JUMPDEST PUSH0 PUSH2 0xA99 PUSH0 NOT DUP5 PUSH1 0x8 MUL PUSH2 0xA7E JUMP JUMPDEST NOT DUP1 DUP4 AND SWAP2 POP POP SWAP3 SWAP2 POP POP JUMP JUMPDEST PUSH0 PUSH2 0xAB1 DUP4 DUP4 PUSH2 0xA8A JUMP JUMPDEST SWAP2 POP DUP3 PUSH1 0x2 MUL DUP3 OR SWAP1 POP SWAP3 SWAP2 POP POP JUMP JUMPDEST PUSH2 0xACA DUP3 PUSH2 0x523 JUMP JUMPDEST PUSH8 0xFFFFFFFFFFFFFFFF DUP2 GT ISZERO PUSH2 0xAE3 JUMPI PUSH2 0xAE2 PUSH2 0x8F7 JUMP JUMPDEST JUMPDEST PUSH2 0xAED DUP3 SLOAD PUSH2 0x85F JUMP JUMPDEST PUSH2 0xAF8 DUP3 DUP3 DUP6 PUSH2 0xA38 JUMP JUMPDEST PUSH0 PUSH1 0x20 SWAP1 POP PUSH1 0x1F DUP4 GT PUSH1 0x1 DUP2 EQ PUSH2 0xB29 JUMPI PUSH0 DUP5 ISZERO PUSH2 0xB17 JUMPI DUP3 DUP8 ADD MLOAD SWAP1 POP JUMPDEST PUSH2 0xB21 DUP6 DUP3 PUSH2 0xAA6 JUMP JUMPDEST DUP7 SSTORE POP PUSH2 0xB88 JUMP JUMPDEST PUSH1 0x1F NOT DUP5 AND PUSH2 0xB37 DUP7 PUSH2 0x924 JUMP JUMPDEST PUSH0 JUMPDEST DUP3 DUP2 LT ISZERO PUSH2 0xB5E JUMPI DUP5 DUP10 ADD MLOAD DUP3 SSTORE PUSH1 0x1 DUP3 ADD SWAP2 POP PUSH1 0x20 DUP6 ADD SWAP5 POP PUSH1 0x20 DUP2 ADD SWAP1 POP PUSH2 0xB39 JUMP JUMPDEST DUP7 DUP4 LT ISZERO PUSH2 0xB7B JUMPI DUP5 DUP10 ADD MLOAD PUSH2 0xB77 PUSH1 0x1F DUP10 AND DUP3 PUSH2 0xA8A JUMP JUMPDEST DUP4 SSTORE POP JUMPDEST PUSH1 0x1 PUSH1 0x2 DUP9 MUL ADD DUP9 SSTORE POP POP POP JUMPDEST POP POP POP POP POP POP JUMP JUMPDEST DUP3 DUP2 DUP4 CALLDATACOPY PUSH0 DUP4 DUP4 ADD MSTORE POP POP POP JUMP JUMPDEST PUSH0 PUSH2 0xBA9 DUP4 DUP6 PUSH2 0x52D JUMP JUMPDEST SWAP4 POP PUSH2 0xBB6 DUP4 DUP6 DUP5 PUSH2 0xB90 JUMP JUMPDEST PUSH2 0xBBF DUP4 PUSH2 0x565 JUMP JUMPDEST DUP5 ADD SWAP1 POP SWAP4 SWAP3 POP POP POP JUMP JUMPDEST PUSH0 PUSH1 0x40 DUP3 ADD SWAP1 POP DUP2 DUP2 SUB PUSH0 DUP4 ADD MSTORE PUSH2 0xBE3 DUP2 DUP6 DUP8 PUSH2 0xB9E JUMP JUMPDEST SWAP1 POP PUSH2 0xBF2 PUSH1 0x20 DUP4 ADD DUP5 PUSH2 0x5AD JUMP JUMPDEST SWAP5 SWAP4 POP POP POP POP JUMP INVALID LOG2 PUSH5 0x6970667358 0x22 SLT KECCAK256 0x4A CALLDATACOPY PUSH19 0x374E01C29CDD208E0EADD79DE7E277F3264E0F 0xA8 0xC7 0xB6 PUSH16 0xCBDA41539EEE64736F6C634300081700 CALLER "
				},
				"gasEstimates": {
					"creation": {
						"codeDepositCost": "624000",
						"executionCost": "655",
						"totalCost": "624655"
					},
					"external": {
						"getMessages()": "infinite",
						"messages(uint256)": "infinite",
						"post(string)": "infinite"
					}
				},
				"methodIdentifiers": {
					"getMessages()": "5ff6cbf3",
					"messages(uint256)": "0d80fefd",
					"post(string)": "8ee93cf3"
				}
			},
			"storageLayout": {
				"storage": [
					{
						"astId": 12,
						"contract": "monad dashboard/MessageBoard.sol:MessageBoard",
						"label": "messages",
						"offset": 0,
						"slot": "0",
						"type": "t_array(t_struct(Message)8_storage)dyn_storage"
					}
				],
				"types": {
					"t_address": {
						"encoding": "inplace",
						"label": "address",
						"numberOfBytes": "20"
					},
					"t_array(t_struct(Message)8_storage)dyn_storage": {
						"base": "t_struct(Message)8_storage",
						"encoding": "dynamic_array",
						"label": "struct MessageBoard.Message[]",
						"numberOfBytes": "32"
					},
					"t_string_storage": {
						"encoding": "bytes",
						"label": "string",
						"numberOfBytes": "32"
					},
					"t_struct(Message)8_storage": {
						"encoding": "inplace",
						"label": "struct MessageBoard.Message",
						"members": [
							{
								"astId": 3,
								"contract": "monad dashboard/MessageBoard.sol:MessageBoard",
								"label": "author",
								"offset": 0,
								"slot": "0",
								"type": "t_address"
							},
							{
								"astId": 5,
								"contract": "monad dashboard/MessageBoard.sol:MessageBoard",
								"label": "text",
								"offset": 0,
								"slot": "1",
								"type": "t_string_storage"
							},
							{
								"astId": 7,
								"contract": "monad dashboard/MessageBoard.sol:MessageBoard",
								"label": "timestamp",
								"offset": 0,
								"slot": "2",
								"type": "t_uint256"
							}
						],
						"numberOfBytes": "96"
					},
					"t_uint256": {
						"encoding": "inplace",
						"label": "uint256",
						"numberOfBytes": "32"
					}
				}
			},
			"userdoc": {
				"kind": "user",
				"methods": {},
				"version": 1
			}
		}
	}
}