{
	"monad dashboard/GMContract1.sol": {
		"GMContract": {
			"abi": [
				{
					"anonymous": false,
					"inputs": [
						{
							"indexed": true,
							"internalType": "address",
							"name": "user",
							"type": "address"
						},
						{
							"indexed": false,
							"internalType": "string",
							"name": "message",
							"type": "string"
						}
					],
					"name": "GM",
					"type": "event"
				},
				{
					"inputs": [],
					"name": "getGMCount",
					"outputs": [
						{
							"internalType": "uint256",
							"name": "",
							"type": "uint256"
						}
					],
					"stateMutability": "view",
					"type": "function"
				},
				{
					"inputs": [
						{
							"internalType": "uint256",
							"name": "count",
							"type": "uint256"
						}
					],
					"name": "getLastGMs",
					"outputs": [
						{
							"components": [
								{
									"internalType": "address",
									"name": "user",
									"type": "address"
								},
								{
									"internalType": "string",
									"name": "text",
									"type": "string"
								}
							],
							"internalType": "struct GMContract.Message[]",
							"name": "",
							"type": "tuple[]"
						}
					],
					"stateMutability": "view",
					"type": "function"
				},
				{
					"inputs": [
						{
							"internalType": "uint256",
							"name": "",
							"type": "uint256"
						}
					],
					"name": "gms",
					"outputs": [
						{
							"internalType": "address",
							"name": "user",
							"type": "address"
						},
						{
							"internalType": "string",
							"name": "text",
							"type": "string"
						}
					],
					"stateMutability": "view",
					"type": "function"
				},
				{
					"inputs": [],
					"name": "lastGM",
					"outputs": [
						{
							"internalType": "string",
							"name": "",
							"type": "string"
						}
					],
					"stateMutability": "view",
					"type": "function"
				},
				{
					"inputs": [
						{
							"internalType": "string",
							"name": "_msg",
							"type": "string"
						}
					],
					"name": "sayGM",
					"outputs": [],
					"stateMutability": "nonpayable",
					"type": "function"
				}
			],
			"devdoc": {
				"kind": "dev",
				"methods": {},
				"version": 1
			},
			"evm": {
				"assembly": "    /* \"monad dashboard/GMContract1.sol\":61:1048  contract GMContract {... */\n  mstore(0x40, 0x80)\n  callvalue\n  dup1\n  iszero\n  tag_1\n  jumpi\n  0x00\n  dup1\n  revert\ntag_1:\n  pop\n  dataSize(sub_0)\n  dup1\n  dataOffset(sub_0)\n  0x00\n  codecopy\n  0x00\n  return\nstop\n\nsub_0: assembly {\n        /* \"monad dashboard/GMContract1.sol\":61:1048  contract GMContract {... */\n      mstore(0x40, 0x80)\n      callvalue\n      dup1\n      iszero\n      tag_1\n      jumpi\n      0x00\n      dup1\n      revert\n    tag_1:\n      pop\n      jumpi(tag_2, lt(calldatasize, 0x04))\n      shr(0xe0, calldataload(0x00))\n      dup1\n      0x556cfc07\n      eq\n      tag_3\n      jumpi\n      dup1\n      0x574617f9\n      eq\n      tag_4\n      jumpi\n      dup1\n      0x5ad35c84\n      eq\n      tag_5\n      jumpi\n      dup1\n      0x8cb09282\n      eq\n      tag_6\n      jumpi\n      dup1\n      0xb8bbcc2b\n      eq\n      tag_7\n      jumpi\n    tag_2:\n      0x00\n      dup1\n      revert\n        /* \"monad dashboard/GMContract1.sol\":392:539  function lastGM() external view returns (string memory) {... */\n    tag_3:\n      tag_8\n      tag_9\n      jump\t// in\n    tag_8:\n      mload(0x40)\n      tag_10\n      swap2\n      swap1\n      tag_11\n      jump\t// in\n    tag_10:\n      mload(0x40)\n      dup1\n      swap2\n      sub\n      swap1\n      return\n        /* \"monad dashboard/GMContract1.sol\":547:637  function getGMCount() external view returns (uint256) {... */\n    tag_4:\n      tag_12\n      tag_13\n      jump\t// in\n    tag_12:\n      mload(0x40)\n      tag_14\n      swap2\n      swap1\n      tag_15\n      jump\t// in\n    tag_14:\n      mload(0x40)\n      dup1\n      swap2\n      sub\n      swap1\n      return\n        /* \"monad dashboard/GMContract1.sol\":219:239  Message[] public gms */\n    tag_5:\n      tag_16\n      0x04\n      dup1\n      calldatasize\n      sub\n      dup2\n      add\n      swap1\n      tag_17\n      swap2\n      swap1\n      tag_18\n      jump\t// in\n    tag_17:\n      tag_19\n      jump\t// in\n    tag_16:\n      mload(0x40)\n      tag_20\n      swap3\n      swap2\n      swap1\n      tag_21\n      jump\t// in\n    tag_20:\n      mload(0x40)\n      dup1\n      swap2\n      sub\n      swap1\n      return\n        /* \"monad dashboard/GMContract1.sol\":248:384  function sayGM(string calldata _msg) external {... */\n    tag_6:\n      tag_22\n      0x04\n      dup1\n      calldatasize\n      sub\n      dup2\n      add\n      swap1\n      tag_23\n      swap2\n      swap1\n      tag_24\n      jump\t// in\n    tag_23:\n      tag_25\n      jump\t// in\n    tag_22:\n      stop\n        /* \"monad dashboard/GMContract1.sol\":645:1045  function getLastGMs(uint256 count) external view returns (Message[] memory) {... */\n    tag_7:\n      tag_26\n      0x04\n      dup1\n      calldatasize\n      sub\n      dup2\n      add\n      swap1\n      tag_27\n      swap2\n      swap1\n      tag_18\n      jump\t// in\n    tag_27:\n      tag_28\n      jump\t// in\n    tag_26:\n      mload(0x40)\n      tag_29\n      swap2\n      swap1\n      tag_30\n      jump\t// in\n    tag_29:\n      mload(0x40)\n      dup1\n      swap2\n      sub\n      swap1\n      return\n        /* \"monad dashboard/GMContract1.sol\":392:539  function lastGM() external view returns (string memory) {... */\n    tag_9:\n        /* \"monad dashboard/GMContract1.sol\":433:446  string memory */\n      0x60\n        /* \"monad dashboard/GMContract1.sol\":477:478  0 */\n      0x00\n        /* \"monad dashboard/GMContract1.sol\":463:466  gms */\n      dup1\n        /* \"monad dashboard/GMContract1.sol\":463:473  gms.length */\n      dup1\n      sload\n      swap1\n      pop\n        /* \"monad dashboard/GMContract1.sol\":463:478  gms.length == 0 */\n      sub\n        /* \"monad dashboard/GMContract1.sol\":459:489  if (gms.length == 0) return \"\" */\n      tag_32\n      jumpi\n        /* \"monad dashboard/GMContract1.sol\":480:489  return \"\" */\n      mload(0x40)\n      dup1\n      0x20\n      add\n      0x40\n      mstore\n      dup1\n      0x00\n      dup2\n      mstore\n      pop\n      swap1\n      pop\n      jump(tag_31)\n        /* \"monad dashboard/GMContract1.sol\":459:489  if (gms.length == 0) return \"\" */\n    tag_32:\n        /* \"monad dashboard/GMContract1.sol\":507:510  gms */\n      0x00\n        /* \"monad dashboard/GMContract1.sol\":524:525  1 */\n      0x01\n        /* \"monad dashboard/GMContract1.sol\":511:514  gms */\n      0x00\n        /* \"monad dashboard/GMContract1.sol\":511:521  gms.length */\n      dup1\n      sload\n      swap1\n      pop\n        /* \"monad dashboard/GMContract1.sol\":511:525  gms.length - 1 */\n      tag_33\n      swap2\n      swap1\n      tag_34\n      jump\t// in\n    tag_33:\n        /* \"monad dashboard/GMContract1.sol\":507:526  gms[gms.length - 1] */\n      dup2\n      sload\n      dup2\n      lt\n      tag_35\n      jumpi\n      tag_36\n      tag_37\n      jump\t// in\n    tag_36:\n    tag_35:\n      swap1\n      0x00\n      mstore\n      keccak256(0x00, 0x20)\n      swap1\n      0x02\n      mul\n      add\n        /* \"monad dashboard/GMContract1.sol\":507:531  gms[gms.length - 1].text */\n      0x01\n      add\n        /* \"monad dashboard/GMContract1.sol\":500:531  return gms[gms.length - 1].text */\n      dup1\n      sload\n      tag_39\n      swap1\n      tag_40\n      jump\t// in\n    tag_39:\n      dup1\n      0x1f\n      add\n      0x20\n      dup1\n      swap2\n      div\n      mul\n      0x20\n      add\n      mload(0x40)\n      swap1\n      dup2\n      add\n      0x40\n      mstore\n      dup1\n      swap3\n      swap2\n      swap1\n      dup2\n      dup2\n      mstore\n      0x20\n      add\n      dup3\n      dup1\n      sload\n      tag_41\n      swap1\n      tag_40\n      jump\t// in\n    tag_41:\n      dup1\n      iszero\n      tag_42\n      jumpi\n      dup1\n      0x1f\n      lt\n      tag_43\n      jumpi\n      0x0100\n      dup1\n      dup4\n      sload\n      div\n      mul\n      dup4\n      mstore\n      swap2\n      0x20\n      add\n      swap2\n      jump(tag_42)\n    tag_43:\n      dup3\n      add\n      swap2\n      swap1\n      0x00\n      mstore\n      keccak256(0x00, 0x20)\n      swap1\n    tag_44:\n      dup2\n      sload\n      dup2\n      mstore\n      swap1\n      0x01\n      add\n      swap1\n      0x20\n      add\n      dup1\n      dup4\n      gt\n      tag_44\n      jumpi\n      dup3\n      swap1\n      sub\n      0x1f\n      and\n      dup3\n      add\n      swap2\n    tag_42:\n      pop\n      pop\n      pop\n      pop\n      pop\n      swap1\n      pop\n        /* \"monad dashboard/GMContract1.sol\":392:539  function lastGM() external view returns (string memory) {... */\n    tag_31:\n      swap1\n      jump\t// out\n        /* \"monad dashboard/GMContract1.sol\":547:637  function getGMCount() external view returns (uint256) {... */\n    tag_13:\n        /* \"monad dashboard/GMContract1.sol\":592:599  uint256 */\n      0x00\n        /* \"monad dashboard/GMContract1.sol\":619:622  gms */\n      dup1\n        /* \"monad dashboard/GMContract1.sol\":619:629  gms.length */\n      dup1\n      sload\n      swap1\n      pop\n        /* \"monad dashboard/GMContract1.sol\":612:629  return gms.length */\n      swap1\n      pop\n        /* \"monad dashboard/GMContract1.sol\":547:637  function getGMCount() external view returns (uint256) {... */\n      swap1\n      jump\t// out\n        /* \"monad dashboard/GMContract1.sol\":219:239  Message[] public gms */\n    tag_19:\n      0x00\n      dup2\n      dup2\n      sload\n      dup2\n      lt\n      tag_46\n      jumpi\n      0x00\n      dup1\n      revert\n    tag_46:\n      swap1\n      0x00\n      mstore\n      keccak256(0x00, 0x20)\n      swap1\n      0x02\n      mul\n      add\n      0x00\n      swap2\n      pop\n      swap1\n      pop\n      dup1\n      0x00\n      add\n      0x00\n      swap1\n      sload\n      swap1\n      0x0100\n      exp\n      swap1\n      div\n      0xffffffffffffffffffffffffffffffffffffffff\n      and\n      swap1\n      dup1\n      0x01\n      add\n      dup1\n      sload\n      tag_48\n      swap1\n      tag_40\n      jump\t// in\n    tag_48:\n      dup1\n      0x1f\n      add\n      0x20\n      dup1\n      swap2\n      div\n      mul\n      0x20\n      add\n      mload(0x40)\n      swap1\n      dup2\n      add\n      0x40\n      mstore\n      dup1\n      swap3\n      swap2\n      swap1\n      dup2\n      dup2\n      mstore\n      0x20\n      add\n      dup3\n      dup1\n      sload\n      tag_49\n      swap1\n      tag_40\n      jump\t// in\n    tag_49:\n      dup1\n      iszero\n      tag_50\n      jumpi\n      dup1\n      0x1f\n      lt\n      tag_51\n      jumpi\n      0x0100\n      dup1\n      dup4\n      sload\n      div\n      mul\n      dup4\n      mstore\n      swap2\n      0x20\n      add\n      swap2\n      jump(tag_50)\n    tag_51:\n      dup3\n      add\n      swap2\n      swap1\n      0x00\n      mstore\n      keccak256(0x00, 0x20)\n      swap1\n    tag_52:\n      dup2\n      sload\n      dup2\n      mstore\n      swap1\n      0x01\n      add\n      swap1\n      0x20\n      add\n      dup1\n      dup4\n      gt\n      tag_52\n      jumpi\n      dup3\n      swap1\n      sub\n      0x1f\n      and\n      dup3\n      add\n      swap2\n    tag_50:\n      pop\n      pop\n      pop\n      pop\n      pop\n      swap1\n      pop\n      dup3\n      jump\t// out\n        /* \"monad dashboard/GMContract1.sol\":248:384  function sayGM(string calldata _msg) external {... */\n    tag_25:\n        /* \"monad dashboard/GMContract1.sol\":305:308  gms */\n      0x00\n        /* \"monad dashboard/GMContract1.sol\":314:339  Message(msg.sender, _msg) */\n      mload(0x40)\n      dup1\n      0x40\n      add\n      0x40\n      mstore\n      dup1\n        /* \"monad dashboard/GMContract1.sol\":322:332  msg.sender */\n      caller\n        /* \"monad dashboard/GMContract1.sol\":314:339  Message(msg.sender, _msg) */\n      0xffffffffffffffffffffffffffffffffffffffff\n      and\n      dup2\n      mstore\n      0x20\n      add\n        /* \"monad dashboard/GMContract1.sol\":334:338  _msg */\n      dup5\n      dup5\n        /* \"monad dashboard/GMContract1.sol\":314:339  Message(msg.sender, _msg) */\n      dup1\n      dup1\n      0x1f\n      add\n      0x20\n      dup1\n      swap2\n      div\n      mul\n      0x20\n      add\n      mload(0x40)\n      swap1\n      dup2\n      add\n      0x40\n      mstore\n      dup1\n      swap4\n      swap3\n      swap2\n      swap1\n      dup2\n      dup2\n      mstore\n      0x20\n      add\n      dup4\n      dup4\n      dup1\n      dup3\n      dup5\n      calldatacopy\n      0x00\n      dup2\n      dup5\n      add\n      mstore\n      not(0x1f)\n      0x1f\n      dup3\n      add\n      and\n      swap1\n      pop\n      dup1\n      dup4\n      add\n      swap3\n      pop\n      pop\n      pop\n      pop\n      pop\n      pop\n      pop\n      dup2\n      mstore\n      pop\n        /* \"monad dashboard/GMContract1.sol\":305:340  gms.push(Message(msg.sender, _msg)) */\n      swap1\n      dup1\n      0x01\n      dup2\n      sload\n      add\n      dup1\n      dup3\n      sstore\n      dup1\n      swap2\n      pop\n      pop\n      0x01\n      swap1\n      sub\n      swap1\n      0x00\n      mstore\n      keccak256(0x00, 0x20)\n      swap1\n      0x02\n      mul\n      add\n      0x00\n      swap1\n      swap2\n      swap1\n      swap2\n      swap1\n      swap2\n      pop\n      0x00\n      dup3\n      add\n      mload\n      dup2\n      0x00\n      add\n      exp(0x0100, 0x00)\n      dup2\n      sload\n      dup2\n      0xffffffffffffffffffffffffffffffffffffffff\n      mul\n      not\n      and\n      swap1\n      dup4\n      0xffffffffffffffffffffffffffffffffffffffff\n      and\n      mul\n      or\n      swap1\n      sstore\n      pop\n      0x20\n      dup3\n      add\n      mload\n      dup2\n      0x01\n      add\n      swap1\n      dup2\n      tag_55\n      swap2\n      swap1\n      tag_56\n      jump\t// in\n    tag_55:\n      pop\n      pop\n      pop\n        /* \"monad dashboard/GMContract1.sol\":359:369  msg.sender */\n      caller\n        /* \"monad dashboard/GMContract1.sol\":356:376  GM(msg.sender, _msg) */\n      0xffffffffffffffffffffffffffffffffffffffff\n      and\n      0xe4f379dbef96e13a86b972e7d3f1f1ed03de48a868e25fa132b18e202dbf2e\n        /* \"monad dashboard/GMContract1.sol\":371:375  _msg */\n      dup4\n      dup4\n        /* \"monad dashboard/GMContract1.sol\":356:376  GM(msg.sender, _msg) */\n      mload(0x40)\n      tag_57\n      swap3\n      swap2\n      swap1\n      tag_58\n      jump\t// in\n    tag_57:\n      mload(0x40)\n      dup1\n      swap2\n      sub\n      swap1\n      log2\n        /* \"monad dashboard/GMContract1.sol\":248:384  function sayGM(string calldata _msg) external {... */\n      pop\n      pop\n      jump\t// out\n        /* \"monad dashboard/GMContract1.sol\":645:1045  function getLastGMs(uint256 count) external view returns (Message[] memory) {... */\n    tag_28:\n        /* \"monad dashboard/GMContract1.sol\":703:719  Message[] memory */\n      0x60\n        /* \"monad dashboard/GMContract1.sol\":732:745  uint256 total */\n      0x00\n        /* \"monad dashboard/GMContract1.sol\":748:751  gms */\n      dup1\n        /* \"monad dashboard/GMContract1.sol\":748:758  gms.length */\n      dup1\n      sload\n      swap1\n      pop\n        /* \"monad dashboard/GMContract1.sol\":732:758  uint256 total = gms.length */\n      swap1\n      pop\n        /* \"monad dashboard/GMContract1.sol\":769:782  uint256 start */\n      0x00\n        /* \"monad dashboard/GMContract1.sol\":793:798  count */\n      dup4\n        /* \"monad dashboard/GMContract1.sol\":785:790  total */\n      dup3\n        /* \"monad dashboard/GMContract1.sol\":785:798  total > count */\n      gt\n        /* \"monad dashboard/GMContract1.sol\":785:818  total > count ? total - count : 0 */\n      tag_60\n      jumpi\n        /* \"monad dashboard/GMContract1.sol\":817:818  0 */\n      0x00\n        /* \"monad dashboard/GMContract1.sol\":785:818  total > count ? total - count : 0 */\n      jump(tag_61)\n    tag_60:\n        /* \"monad dashboard/GMContract1.sol\":809:814  count */\n      dup4\n        /* \"monad dashboard/GMContract1.sol\":801:806  total */\n      dup3\n        /* \"monad dashboard/GMContract1.sol\":801:814  total - count */\n      tag_62\n      swap2\n      swap1\n      tag_34\n      jump\t// in\n    tag_62:\n        /* \"monad dashboard/GMContract1.sol\":785:818  total > count ? total - count : 0 */\n    tag_61:\n        /* \"monad dashboard/GMContract1.sol\":769:818  uint256 start = total > count ? total - count : 0 */\n      swap1\n      pop\n        /* \"monad dashboard/GMContract1.sol\":829:841  uint256 size */\n      0x00\n        /* \"monad dashboard/GMContract1.sol\":852:857  start */\n      dup2\n        /* \"monad dashboard/GMContract1.sol\":844:849  total */\n      dup4\n        /* \"monad dashboard/GMContract1.sol\":844:857  total - start */\n      tag_63\n      swap2\n      swap1\n      tag_34\n      jump\t// in\n    tag_63:\n        /* \"monad dashboard/GMContract1.sol\":829:857  uint256 size = total - start */\n      swap1\n      pop\n        /* \"monad dashboard/GMContract1.sol\":870:893  Message[] memory recent */\n      0x00\n        /* \"monad dashboard/GMContract1.sol\":910:914  size */\n      dup2\n        /* \"monad dashboard/GMContract1.sol\":896:915  new Message[](size) */\n      0xffffffffffffffff\n      dup2\n      gt\n      iszero\n      tag_64\n      jumpi\n      tag_65\n      tag_66\n      jump\t// in\n    tag_65:\n    tag_64:\n      mload(0x40)\n      swap1\n      dup1\n      dup3\n      mstore\n      dup1\n      0x20\n      mul\n      0x20\n      add\n      dup3\n      add\n      0x40\n      mstore\n      dup1\n      iszero\n      tag_67\n      jumpi\n      dup2\n      0x20\n      add\n    tag_68:\n      tag_69\n      tag_70\n      jump\t// in\n    tag_69:\n      dup2\n      mstore\n      0x20\n      add\n      swap1\n      0x01\n      swap1\n      sub\n      swap1\n      dup2\n      tag_68\n      jumpi\n      swap1\n      pop\n    tag_67:\n      pop\n        /* \"monad dashboard/GMContract1.sol\":870:915  Message[] memory recent = new Message[](size) */\n      swap1\n      pop\n        /* \"monad dashboard/GMContract1.sol\":931:940  uint256 i */\n      0x00\n        /* \"monad dashboard/GMContract1.sol\":926:1014  for (uint256 i = 0; i < size; i++) {... */\n    tag_71:\n        /* \"monad dashboard/GMContract1.sol\":950:954  size */\n      dup3\n        /* \"monad dashboard/GMContract1.sol\":946:947  i */\n      dup2\n        /* \"monad dashboard/GMContract1.sol\":946:954  i < size */\n      lt\n        /* \"monad dashboard/GMContract1.sol\":926:1014  for (uint256 i = 0; i < size; i++) {... */\n      iszero\n      tag_72\n      jumpi\n        /* \"monad dashboard/GMContract1.sol\":988:991  gms */\n      0x00\n        /* \"monad dashboard/GMContract1.sol\":1000:1001  i */\n      dup2\n        /* \"monad dashboard/GMContract1.sol\":992:997  start */\n      dup6\n        /* \"monad dashboard/GMContract1.sol\":992:1001  start + i */\n      tag_74\n      swap2\n      swap1\n      tag_75\n      jump\t// in\n    tag_74:\n        /* \"monad dashboard/GMContract1.sol\":988:1002  gms[start + i] */\n      dup2\n      sload\n      dup2\n      lt\n      tag_76\n      jumpi\n      tag_77\n      tag_37\n      jump\t// in\n    tag_77:\n    tag_76:\n      swap1\n      0x00\n      mstore\n      keccak256(0x00, 0x20)\n      swap1\n      0x02\n      mul\n      add\n        /* \"monad dashboard/GMContract1.sol\":976:1002  recent[i] = gms[start + i] */\n      mload(0x40)\n      dup1\n      0x40\n      add\n      0x40\n      mstore\n      swap1\n      dup2\n      0x00\n      dup3\n      add\n      0x00\n      swap1\n      sload\n      swap1\n      0x0100\n      exp\n      swap1\n      div\n      0xffffffffffffffffffffffffffffffffffffffff\n      and\n      0xffffffffffffffffffffffffffffffffffffffff\n      and\n      0xffffffffffffffffffffffffffffffffffffffff\n      and\n      dup2\n      mstore\n      0x20\n      add\n      0x01\n      dup3\n      add\n      dup1\n      sload\n      tag_79\n      swap1\n      tag_40\n      jump\t// in\n    tag_79:\n      dup1\n      0x1f\n      add\n      0x20\n      dup1\n      swap2\n      div\n      mul\n      0x20\n      add\n      mload(0x40)\n      swap1\n      dup2\n      add\n      0x40\n      mstore\n      dup1\n      swap3\n      swap2\n      swap1\n      dup2\n      dup2\n      mstore\n      0x20\n      add\n      dup3\n      dup1\n      sload\n      tag_80\n      swap1\n      tag_40\n      jump\t// in\n    tag_80:\n      dup1\n      iszero\n      tag_81\n      jumpi\n      dup1\n      0x1f\n      lt\n      tag_82\n      jumpi\n      0x0100\n      dup1\n      dup4\n      sload\n      div\n      mul\n      dup4\n      mstore\n      swap2\n      0x20\n      add\n      swap2\n      jump(tag_81)\n    tag_82:\n      dup3\n      add\n      swap2\n      swap1\n      0x00\n      mstore\n      keccak256(0x00, 0x20)\n      swap1\n    tag_83:\n      dup2\n      sload\n      dup2\n      mstore\n      swap1\n      0x01\n      add\n      swap1\n      0x20\n      add\n      dup1\n      dup4\n      gt\n      tag_83\n      jumpi\n      dup3\n      swap1\n      sub\n      0x1f\n      and\n      dup3\n      add\n      swap2\n    tag_81:\n      pop\n      pop\n      pop\n      pop\n      pop\n      dup2\n      mstore\n      pop\n      pop\n        /* \"monad dashboard/GMContract1.sol\":976:982  recent */\n      dup3\n        /* \"monad dashboard/GMContract1.sol\":983:984  i */\n      dup3\n        /* \"monad dashboard/GMContract1.sol\":976:985  recent[i] */\n      dup2\n      mload\n      dup2\n      lt\n      tag_84\n      jumpi\n      tag_85\n      tag_37\n      jump\t// in\n    tag_85:\n    tag_84:\n      0x20\n      mul\n      0x20\n      add\n      add\n        /* \"monad dashboard/GMContract1.sol\":976:1002  recent[i] = gms[start + i] */\n      dup2\n      swap1\n      mstore\n      pop\n        /* \"monad dashboard/GMContract1.sol\":956:959  i++ */\n      dup1\n      dup1\n      0x01\n      add\n      swap2\n      pop\n      pop\n        /* \"monad dashboard/GMContract1.sol\":926:1014  for (uint256 i = 0; i < size; i++) {... */\n      jump(tag_71)\n    tag_72:\n      pop\n        /* \"monad dashboard/GMContract1.sol\":1031:1037  recent */\n      dup1\n        /* \"monad dashboard/GMContract1.sol\":1024:1037  return recent */\n      swap5\n      pop\n      pop\n      pop\n      pop\n      pop\n        /* \"monad dashboard/GMContract1.sol\":645:1045  function getLastGMs(uint256 count) external view returns (Message[] memory) {... */\n      swap2\n      swap1\n      pop\n      jump\t// out\n    tag_70:\n      mload(0x40)\n      dup1\n      0x40\n      add\n      0x40\n      mstore\n      dup1\n      and(0xffffffffffffffffffffffffffffffffffffffff, 0x00)\n      dup2\n      mstore\n      0x20\n      add\n      0x60\n      dup2\n      mstore\n      pop\n      swap1\n      jump\t// out\n        /* \"#utility.yul\":7:106   */\n    tag_86:\n        /* \"#utility.yul\":59:65   */\n      0x00\n        /* \"#utility.yul\":93:98   */\n      dup2\n        /* \"#utility.yul\":87:99   */\n      mload\n        /* \"#utility.yul\":77:99   */\n      swap1\n      pop\n        /* \"#utility.yul\":7:106   */\n      swap2\n      swap1\n      pop\n      jump\t// out\n        /* \"#utility.yul\":112:281   */\n    tag_87:\n        /* \"#utility.yul\":196:207   */\n      0x00\n        /* \"#utility.yul\":230:236   */\n      dup3\n        /* \"#utility.yul\":225:228   */\n      dup3\n        /* \"#utility.yul\":218:237   */\n      mstore\n        /* \"#utility.yul\":270:274   */\n      0x20\n        /* \"#utility.yul\":265:268   */\n      dup3\n        /* \"#utility.yul\":261:275   */\n      add\n        /* \"#utility.yul\":246:275   */\n      swap1\n      pop\n        /* \"#utility.yul\":112:281   */\n      swap3\n      swap2\n      pop\n      pop\n      jump\t// out\n        /* \"#utility.yul\":287:533   */\n    tag_88:\n        /* \"#utility.yul\":368:369   */\n      0x00\n        /* \"#utility.yul\":378:491   */\n    tag_138:\n        /* \"#utility.yul\":392:398   */\n      dup4\n        /* \"#utility.yul\":389:390   */\n      dup2\n        /* \"#utility.yul\":386:399   */\n      lt\n        /* \"#utility.yul\":378:491   */\n      iszero\n      tag_140\n      jumpi\n        /* \"#utility.yul\":477:478   */\n      dup1\n        /* \"#utility.yul\":472:475   */\n      dup3\n        /* \"#utility.yul\":468:479   */\n      add\n        /* \"#utility.yul\":462:480   */\n      mload\n        /* \"#utility.yul\":458:459   */\n      dup2\n        /* \"#utility.yul\":453:456   */\n      dup5\n        /* \"#utility.yul\":449:460   */\n      add\n        /* \"#utility.yul\":442:481   */\n      mstore\n        /* \"#utility.yul\":414:416   */\n      0x20\n        /* \"#utility.yul\":411:412   */\n      dup2\n        /* \"#utility.yul\":407:417   */\n      add\n        /* \"#utility.yul\":402:417   */\n      swap1\n      pop\n        /* \"#utility.yul\":378:491   */\n      jump(tag_138)\n    tag_140:\n        /* \"#utility.yul\":525:526   */\n      0x00\n        /* \"#utility.yul\":516:522   */\n      dup5\n        /* \"#utility.yul\":511:514   */\n      dup5\n        /* \"#utility.yul\":507:523   */\n      add\n        /* \"#utility.yul\":500:527   */\n      mstore\n        /* \"#utility.yul\":349:533   */\n      pop\n        /* \"#utility.yul\":287:533   */\n      pop\n      pop\n      pop\n      jump\t// out\n        /* \"#utility.yul\":539:641   */\n    tag_89:\n        /* \"#utility.yul\":580:586   */\n      0x00\n        /* \"#utility.yul\":631:633   */\n      0x1f\n        /* \"#utility.yul\":627:634   */\n      not\n        /* \"#utility.yul\":622:624   */\n      0x1f\n        /* \"#utility.yul\":615:620   */\n      dup4\n        /* \"#utility.yul\":611:625   */\n      add\n        /* \"#utility.yul\":607:635   */\n      and\n        /* \"#utility.yul\":597:635   */\n      swap1\n      pop\n        /* \"#utility.yul\":539:641   */\n      swap2\n      swap1\n      pop\n      jump\t// out\n        /* \"#utility.yul\":647:1024   */\n    tag_90:\n        /* \"#utility.yul\":735:738   */\n      0x00\n        /* \"#utility.yul\":763:802   */\n      tag_143\n        /* \"#utility.yul\":796:801   */\n      dup3\n        /* \"#utility.yul\":763:802   */\n      tag_86\n      jump\t// in\n    tag_143:\n        /* \"#utility.yul\":818:889   */\n      tag_144\n        /* \"#utility.yul\":882:888   */\n      dup2\n        /* \"#utility.yul\":877:880   */\n      dup6\n        /* \"#utility.yul\":818:889   */\n      tag_87\n      jump\t// in\n    tag_144:\n        /* \"#utility.yul\":811:889   */\n      swap4\n      pop\n        /* \"#utility.yul\":898:963   */\n      tag_145\n        /* \"#utility.yul\":956:962   */\n      dup2\n        /* \"#utility.yul\":951:954   */\n      dup6\n        /* \"#utility.yul\":944:948   */\n      0x20\n        /* \"#utility.yul\":937:942   */\n      dup7\n        /* \"#utility.yul\":933:949   */\n      add\n        /* \"#utility.yul\":898:963   */\n      tag_88\n      jump\t// in\n    tag_145:\n        /* \"#utility.yul\":988:1017   */\n      tag_146\n        /* \"#utility.yul\":1010:1016   */\n      dup2\n        /* \"#utility.yul\":988:1017   */\n      tag_89\n      jump\t// in\n    tag_146:\n        /* \"#utility.yul\":983:986   */\n      dup5\n        /* \"#utility.yul\":979:1018   */\n      add\n        /* \"#utility.yul\":972:1018   */\n      swap2\n      pop\n        /* \"#utility.yul\":739:1024   */\n      pop\n        /* \"#utility.yul\":647:1024   */\n      swap3\n      swap2\n      pop\n      pop\n      jump\t// out\n        /* \"#utility.yul\":1030:1343   */\n    tag_11:\n        /* \"#utility.yul\":1143:1147   */\n      0x00\n        /* \"#utility.yul\":1181:1183   */\n      0x20\n        /* \"#utility.yul\":1170:1179   */\n      dup3\n        /* \"#utility.yul\":1166:1184   */\n      add\n        /* \"#utility.yul\":1158:1184   */\n      swap1\n      pop\n        /* \"#utility.yul\":1230:1239   */\n      dup2\n        /* \"#utility.yul\":1224:1228   */\n      dup2\n        /* \"#utility.yul\":1220:1240   */\n      sub\n        /* \"#utility.yul\":1216:1217   */\n      0x00\n        /* \"#utility.yul\":1205:1214   */\n      dup4\n        /* \"#utility.yul\":1201:1218   */\n      add\n        /* \"#utility.yul\":1194:1241   */\n      mstore\n        /* \"#utility.yul\":1258:1336   */\n      tag_148\n        /* \"#utility.yul\":1331:1335   */\n      dup2\n        /* \"#utility.yul\":1322:1328   */\n      dup5\n        /* \"#utility.yul\":1258:1336   */\n      tag_90\n      jump\t// in\n    tag_148:\n        /* \"#utility.yul\":1250:1336   */\n      swap1\n      pop\n        /* \"#utility.yul\":1030:1343   */\n      swap3\n      swap2\n      pop\n      pop\n      jump\t// out\n        /* \"#utility.yul\":1349:1426   */\n    tag_91:\n        /* \"#utility.yul\":1386:1393   */\n      0x00\n        /* \"#utility.yul\":1415:1420   */\n      dup2\n        /* \"#utility.yul\":1404:1420   */\n      swap1\n      pop\n        /* \"#utility.yul\":1349:1426   */\n      swap2\n      swap1\n      pop\n      jump\t// out\n        /* \"#utility.yul\":1432:1550   */\n    tag_92:\n        /* \"#utility.yul\":1519:1543   */\n      tag_151\n        /* \"#utility.yul\":1537:1542   */\n      dup2\n        /* \"#utility.yul\":1519:1543   */\n      tag_91\n      jump\t// in\n    tag_151:\n        /* \"#utility.yul\":1514:1517   */\n      dup3\n        /* \"#utility.yul\":1507:1544   */\n      mstore\n        /* \"#utility.yul\":1432:1550   */\n      pop\n      pop\n      jump\t// out\n        /* \"#utility.yul\":1556:1778   */\n    tag_15:\n        /* \"#utility.yul\":1649:1653   */\n      0x00\n        /* \"#utility.yul\":1687:1689   */\n      0x20\n        /* \"#utility.yul\":1676:1685   */\n      dup3\n        /* \"#utility.yul\":1672:1690   */\n      add\n        /* \"#utility.yul\":1664:1690   */\n      swap1\n      pop\n        /* \"#utility.yul\":1700:1771   */\n      tag_153\n        /* \"#utility.yul\":1768:1769   */\n      0x00\n        /* \"#utility.yul\":1757:1766   */\n      dup4\n        /* \"#utility.yul\":1753:1770   */\n      add\n        /* \"#utility.yul\":1744:1750   */\n      dup5\n        /* \"#utility.yul\":1700:1771   */\n      tag_92\n      jump\t// in\n    tag_153:\n        /* \"#utility.yul\":1556:1778   */\n      swap3\n      swap2\n      pop\n      pop\n      jump\t// out\n        /* \"#utility.yul\":1865:1982   */\n    tag_94:\n        /* \"#utility.yul\":1974:1975   */\n      0x00\n        /* \"#utility.yul\":1971:1972   */\n      dup1\n        /* \"#utility.yul\":1964:1976   */\n      revert\n        /* \"#utility.yul\":1988:2105   */\n    tag_95:\n        /* \"#utility.yul\":2097:2098   */\n      0x00\n        /* \"#utility.yul\":2094:2095   */\n      dup1\n        /* \"#utility.yul\":2087:2099   */\n      revert\n        /* \"#utility.yul\":2111:2233   */\n    tag_96:\n        /* \"#utility.yul\":2184:2208   */\n      tag_158\n        /* \"#utility.yul\":2202:2207   */\n      dup2\n        /* \"#utility.yul\":2184:2208   */\n      tag_91\n      jump\t// in\n    tag_158:\n        /* \"#utility.yul\":2177:2182   */\n      dup2\n        /* \"#utility.yul\":2174:2209   */\n      eq\n        /* \"#utility.yul\":2164:2227   */\n      tag_159\n      jumpi\n        /* \"#utility.yul\":2223:2224   */\n      0x00\n        /* \"#utility.yul\":2220:2221   */\n      dup1\n        /* \"#utility.yul\":2213:2225   */\n      revert\n        /* \"#utility.yul\":2164:2227   */\n    tag_159:\n        /* \"#utility.yul\":2111:2233   */\n      pop\n      jump\t// out\n        /* \"#utility.yul\":2239:2378   */\n    tag_97:\n        /* \"#utility.yul\":2285:2290   */\n      0x00\n        /* \"#utility.yul\":2323:2329   */\n      dup2\n        /* \"#utility.yul\":2310:2330   */\n      calldataload\n        /* \"#utility.yul\":2301:2330   */\n      swap1\n      pop\n        /* \"#utility.yul\":2339:2372   */\n      tag_161\n        /* \"#utility.yul\":2366:2371   */\n      dup2\n        /* \"#utility.yul\":2339:2372   */\n      tag_96\n      jump\t// in\n    tag_161:\n        /* \"#utility.yul\":2239:2378   */\n      swap3\n      swap2\n      pop\n      pop\n      jump\t// out\n        /* \"#utility.yul\":2384:2713   */\n    tag_18:\n        /* \"#utility.yul\":2443:2449   */\n      0x00\n        /* \"#utility.yul\":2492:2494   */\n      0x20\n        /* \"#utility.yul\":2480:2489   */\n      dup3\n        /* \"#utility.yul\":2471:2478   */\n      dup5\n        /* \"#utility.yul\":2467:2490   */\n      sub\n        /* \"#utility.yul\":2463:2495   */\n      slt\n        /* \"#utility.yul\":2460:2579   */\n      iszero\n      tag_163\n      jumpi\n        /* \"#utility.yul\":2498:2577   */\n      tag_164\n      tag_94\n      jump\t// in\n    tag_164:\n        /* \"#utility.yul\":2460:2579   */\n    tag_163:\n        /* \"#utility.yul\":2618:2619   */\n      0x00\n        /* \"#utility.yul\":2643:2696   */\n      tag_165\n        /* \"#utility.yul\":2688:2695   */\n      dup5\n        /* \"#utility.yul\":2679:2685   */\n      dup3\n        /* \"#utility.yul\":2668:2677   */\n      dup6\n        /* \"#utility.yul\":2664:2686   */\n      add\n        /* \"#utility.yul\":2643:2696   */\n      tag_97\n      jump\t// in\n    tag_165:\n        /* \"#utility.yul\":2633:2696   */\n      swap2\n      pop\n        /* \"#utility.yul\":2589:2706   */\n      pop\n        /* \"#utility.yul\":2384:2713   */\n      swap3\n      swap2\n      pop\n      pop\n      jump\t// out\n        /* \"#utility.yul\":2719:2845   */\n    tag_98:\n        /* \"#utility.yul\":2756:2763   */\n      0x00\n        /* \"#utility.yul\":2796:2838   */\n      0xffffffffffffffffffffffffffffffffffffffff\n        /* \"#utility.yul\":2789:2794   */\n      dup3\n        /* \"#utility.yul\":2785:2839   */\n      and\n        /* \"#utility.yul\":2774:2839   */\n      swap1\n      pop\n        /* \"#utility.yul\":2719:2845   */\n      swap2\n      swap1\n      pop\n      jump\t// out\n        /* \"#utility.yul\":2851:2947   */\n    tag_99:\n        /* \"#utility.yul\":2888:2895   */\n      0x00\n        /* \"#utility.yul\":2917:2941   */\n      tag_168\n        /* \"#utility.yul\":2935:2940   */\n      dup3\n        /* \"#utility.yul\":2917:2941   */\n      tag_98\n      jump\t// in\n    tag_168:\n        /* \"#utility.yul\":2906:2941   */\n      swap1\n      pop\n        /* \"#utility.yul\":2851:2947   */\n      swap2\n      swap1\n      pop\n      jump\t// out\n        /* \"#utility.yul\":2953:3071   */\n    tag_100:\n        /* \"#utility.yul\":3040:3064   */\n      tag_170\n        /* \"#utility.yul\":3058:3063   */\n      dup2\n        /* \"#utility.yul\":3040:3064   */\n      tag_99\n      jump\t// in\n    tag_170:\n        /* \"#utility.yul\":3035:3038   */\n      dup3\n        /* \"#utility.yul\":3028:3065   */\n      mstore\n        /* \"#utility.yul\":2953:3071   */\n      pop\n      pop\n      jump\t// out\n        /* \"#utility.yul\":3077:3500   */\n    tag_21:\n        /* \"#utility.yul\":3218:3222   */\n      0x00\n        /* \"#utility.yul\":3256:3258   */\n      0x40\n        /* \"#utility.yul\":3245:3254   */\n      dup3\n        /* \"#utility.yul\":3241:3259   */\n      add\n        /* \"#utility.yul\":3233:3259   */\n      swap1\n      pop\n        /* \"#utility.yul\":3269:3340   */\n      tag_172\n        /* \"#utility.yul\":3337:3338   */\n      0x00\n        /* \"#utility.yul\":3326:3335   */\n      dup4\n        /* \"#utility.yul\":3322:3339   */\n      add\n        /* \"#utility.yul\":3313:3319   */\n      dup6\n        /* \"#utility.yul\":3269:3340   */\n      tag_100\n      jump\t// in\n    tag_172:\n        /* \"#utility.yul\":3387:3396   */\n      dup2\n        /* \"#utility.yul\":3381:3385   */\n      dup2\n        /* \"#utility.yul\":3377:3397   */\n      sub\n        /* \"#utility.yul\":3372:3374   */\n      0x20\n        /* \"#utility.yul\":3361:3370   */\n      dup4\n        /* \"#utility.yul\":3357:3375   */\n      add\n        /* \"#utility.yul\":3350:3398   */\n      mstore\n        /* \"#utility.yul\":3415:3493   */\n      tag_173\n        /* \"#utility.yul\":3488:3492   */\n      dup2\n        /* \"#utility.yul\":3479:3485   */\n      dup5\n        /* \"#utility.yul\":3415:3493   */\n      tag_90\n      jump\t// in\n    tag_173:\n        /* \"#utility.yul\":3407:3493   */\n      swap1\n      pop\n        /* \"#utility.yul\":3077:3500   */\n      swap4\n      swap3\n      pop\n      pop\n      pop\n      jump\t// out\n        /* \"#utility.yul\":3506:3623   */\n    tag_101:\n        /* \"#utility.yul\":3615:3616   */\n      0x00\n        /* \"#utility.yul\":3612:3613   */\n      dup1\n        /* \"#utility.yul\":3605:3617   */\n      revert\n        /* \"#utility.yul\":3629:3746   */\n    tag_102:\n        /* \"#utility.yul\":3738:3739   */\n      0x00\n        /* \"#utility.yul\":3735:3736   */\n      dup1\n        /* \"#utility.yul\":3728:3740   */\n      revert\n        /* \"#utility.yul\":3752:3869   */\n    tag_103:\n        /* \"#utility.yul\":3861:3862   */\n      0x00\n        /* \"#utility.yul\":3858:3859   */\n      dup1\n        /* \"#utility.yul\":3851:3863   */\n      revert\n        /* \"#utility.yul\":3889:4442   */\n    tag_104:\n        /* \"#utility.yul\":3947:3955   */\n      0x00\n        /* \"#utility.yul\":3957:3963   */\n      dup1\n        /* \"#utility.yul\":4007:4010   */\n      dup4\n        /* \"#utility.yul\":4000:4004   */\n      0x1f\n        /* \"#utility.yul\":3992:3998   */\n      dup5\n        /* \"#utility.yul\":3988:4005   */\n      add\n        /* \"#utility.yul\":3984:4011   */\n      slt\n        /* \"#utility.yul\":3974:4096   */\n      tag_178\n      jumpi\n        /* \"#utility.yul\":4015:4094   */\n      tag_179\n      tag_101\n      jump\t// in\n    tag_179:\n        /* \"#utility.yul\":3974:4096   */\n    tag_178:\n        /* \"#utility.yul\":4128:4134   */\n      dup3\n        /* \"#utility.yul\":4115:4135   */\n      calldataload\n        /* \"#utility.yul\":4105:4135   */\n      swap1\n      pop\n        /* \"#utility.yul\":4158:4176   */\n      0xffffffffffffffff\n        /* \"#utility.yul\":4150:4156   */\n      dup2\n        /* \"#utility.yul\":4147:4177   */\n      gt\n        /* \"#utility.yul\":4144:4261   */\n      iszero\n      tag_180\n      jumpi\n        /* \"#utility.yul\":4180:4259   */\n      tag_181\n      tag_102\n      jump\t// in\n    tag_181:\n        /* \"#utility.yul\":4144:4261   */\n    tag_180:\n        /* \"#utility.yul\":4294:4298   */\n      0x20\n        /* \"#utility.yul\":4286:4292   */\n      dup4\n        /* \"#utility.yul\":4282:4299   */\n      add\n        /* \"#utility.yul\":4270:4299   */\n      swap2\n      pop\n        /* \"#utility.yul\":4348:4351   */\n      dup4\n        /* \"#utility.yul\":4340:4344   */\n      0x01\n        /* \"#utility.yul\":4332:4338   */\n      dup3\n        /* \"#utility.yul\":4328:4345   */\n      mul\n        /* \"#utility.yul\":4318:4326   */\n      dup4\n        /* \"#utility.yul\":4314:4346   */\n      add\n        /* \"#utility.yul\":4311:4352   */\n      gt\n        /* \"#utility.yul\":4308:4436   */\n      iszero\n      tag_182\n      jumpi\n        /* \"#utility.yul\":4355:4434   */\n      tag_183\n      tag_103\n      jump\t// in\n    tag_183:\n        /* \"#utility.yul\":4308:4436   */\n    tag_182:\n        /* \"#utility.yul\":3889:4442   */\n      swap3\n      pop\n      swap3\n      swap1\n      pop\n      jump\t// out\n        /* \"#utility.yul\":4448:4977   */\n    tag_24:\n        /* \"#utility.yul\":4519:4525   */\n      0x00\n        /* \"#utility.yul\":4527:4533   */\n      dup1\n        /* \"#utility.yul\":4576:4578   */\n      0x20\n        /* \"#utility.yul\":4564:4573   */\n      dup4\n        /* \"#utility.yul\":4555:4562   */\n      dup6\n        /* \"#utility.yul\":4551:4574   */\n      sub\n        /* \"#utility.yul\":4547:4579   */\n      slt\n        /* \"#utility.yul\":4544:4663   */\n      iszero\n      tag_185\n      jumpi\n        /* \"#utility.yul\":4582:4661   */\n      tag_186\n      tag_94\n      jump\t// in\n    tag_186:\n        /* \"#utility.yul\":4544:4663   */\n    tag_185:\n        /* \"#utility.yul\":4730:4731   */\n      0x00\n        /* \"#utility.yul\":4719:4728   */\n      dup4\n        /* \"#utility.yul\":4715:4732   */\n      add\n        /* \"#utility.yul\":4702:4733   */\n      calldataload\n        /* \"#utility.yul\":4760:4778   */\n      0xffffffffffffffff\n        /* \"#utility.yul\":4752:4758   */\n      dup2\n        /* \"#utility.yul\":4749:4779   */\n      gt\n        /* \"#utility.yul\":4746:4863   */\n      iszero\n      tag_187\n      jumpi\n        /* \"#utility.yul\":4782:4861   */\n      tag_188\n      tag_95\n      jump\t// in\n    tag_188:\n        /* \"#utility.yul\":4746:4863   */\n    tag_187:\n        /* \"#utility.yul\":4895:4960   */\n      tag_189\n        /* \"#utility.yul\":4952:4959   */\n      dup6\n        /* \"#utility.yul\":4943:4949   */\n      dup3\n        /* \"#utility.yul\":4932:4941   */\n      dup7\n        /* \"#utility.yul\":4928:4950   */\n      add\n        /* \"#utility.yul\":4895:4960   */\n      tag_104\n      jump\t// in\n    tag_189:\n        /* \"#utility.yul\":4877:4960   */\n      swap3\n      pop\n      swap3\n      pop\n        /* \"#utility.yul\":4673:4970   */\n      pop\n        /* \"#utility.yul\":4448:4977   */\n      swap3\n      pop\n      swap3\n      swap1\n      pop\n      jump\t// out\n        /* \"#utility.yul\":4983:5120   */\n    tag_105:\n        /* \"#utility.yul\":5073:5079   */\n      0x00\n        /* \"#utility.yul\":5107:5112   */\n      dup2\n        /* \"#utility.yul\":5101:5113   */\n      mload\n        /* \"#utility.yul\":5091:5113   */\n      swap1\n      pop\n        /* \"#utility.yul\":4983:5120   */\n      swap2\n      swap1\n      pop\n      jump\t// out\n        /* \"#utility.yul\":5126:5333   */\n    tag_106:\n        /* \"#utility.yul\":5248:5259   */\n      0x00\n        /* \"#utility.yul\":5282:5288   */\n      dup3\n        /* \"#utility.yul\":5277:5280   */\n      dup3\n        /* \"#utility.yul\":5270:5289   */\n      mstore\n        /* \"#utility.yul\":5322:5326   */\n      0x20\n        /* \"#utility.yul\":5317:5320   */\n      dup3\n        /* \"#utility.yul\":5313:5327   */\n      add\n        /* \"#utility.yul\":5298:5327   */\n      swap1\n      pop\n        /* \"#utility.yul\":5126:5333   */\n      swap3\n      swap2\n      pop\n      pop\n      jump\t// out\n        /* \"#utility.yul\":5339:5494   */\n    tag_107:\n        /* \"#utility.yul\":5429:5433   */\n      0x00\n        /* \"#utility.yul\":5452:5455   */\n      dup2\n        /* \"#utility.yul\":5444:5455   */\n      swap1\n      pop\n        /* \"#utility.yul\":5482:5486   */\n      0x20\n        /* \"#utility.yul\":5477:5480   */\n      dup3\n        /* \"#utility.yul\":5473:5487   */\n      add\n        /* \"#utility.yul\":5465:5487   */\n      swap1\n      pop\n        /* \"#utility.yul\":5339:5494   */\n      swap2\n      swap1\n      pop\n      jump\t// out\n        /* \"#utility.yul\":5500:5608   */\n    tag_108:\n        /* \"#utility.yul\":5577:5601   */\n      tag_194\n        /* \"#utility.yul\":5595:5600   */\n      dup2\n        /* \"#utility.yul\":5577:5601   */\n      tag_99\n      jump\t// in\n    tag_194:\n        /* \"#utility.yul\":5572:5575   */\n      dup3\n        /* \"#utility.yul\":5565:5602   */\n      mstore\n        /* \"#utility.yul\":5500:5608   */\n      pop\n      pop\n      jump\t// out\n        /* \"#utility.yul\":5614:5773   */\n    tag_109:\n        /* \"#utility.yul\":5688:5699   */\n      0x00\n        /* \"#utility.yul\":5722:5728   */\n      dup3\n        /* \"#utility.yul\":5717:5720   */\n      dup3\n        /* \"#utility.yul\":5710:5729   */\n      mstore\n        /* \"#utility.yul\":5762:5766   */\n      0x20\n        /* \"#utility.yul\":5757:5760   */\n      dup3\n        /* \"#utility.yul\":5753:5767   */\n      add\n        /* \"#utility.yul\":5738:5767   */\n      swap1\n      pop\n        /* \"#utility.yul\":5614:5773   */\n      swap3\n      swap2\n      pop\n      pop\n      jump\t// out\n        /* \"#utility.yul\":5779:6136   */\n    tag_110:\n        /* \"#utility.yul\":5857:5860   */\n      0x00\n        /* \"#utility.yul\":5885:5924   */\n      tag_197\n        /* \"#utility.yul\":5918:5923   */\n      dup3\n        /* \"#utility.yul\":5885:5924   */\n      tag_86\n      jump\t// in\n    tag_197:\n        /* \"#utility.yul\":5940:6001   */\n      tag_198\n        /* \"#utility.yul\":5994:6000   */\n      dup2\n        /* \"#utility.yul\":5989:5992   */\n      dup6\n        /* \"#utility.yul\":5940:6001   */\n      tag_109\n      jump\t// in\n    tag_198:\n        /* \"#utility.yul\":5933:6001   */\n      swap4\n      pop\n        /* \"#utility.yul\":6010:6075   */\n      tag_199\n        /* \"#utility.yul\":6068:6074   */\n      dup2\n        /* \"#utility.yul\":6063:6066   */\n      dup6\n        /* \"#utility.yul\":6056:6060   */\n      0x20\n        /* \"#utility.yul\":6049:6054   */\n      dup7\n        /* \"#utility.yul\":6045:6061   */\n      add\n        /* \"#utility.yul\":6010:6075   */\n      tag_88\n      jump\t// in\n    tag_199:\n        /* \"#utility.yul\":6100:6129   */\n      tag_200\n        /* \"#utility.yul\":6122:6128   */\n      dup2\n        /* \"#utility.yul\":6100:6129   */\n      tag_89\n      jump\t// in\n    tag_200:\n        /* \"#utility.yul\":6095:6098   */\n      dup5\n        /* \"#utility.yul\":6091:6130   */\n      add\n        /* \"#utility.yul\":6084:6130   */\n      swap2\n      pop\n        /* \"#utility.yul\":5861:6136   */\n      pop\n        /* \"#utility.yul\":5779:6136   */\n      swap3\n      swap2\n      pop\n      pop\n      jump\t// out\n        /* \"#utility.yul\":6204:6796   */\n    tag_111:\n        /* \"#utility.yul\":6309:6312   */\n      0x00\n        /* \"#utility.yul\":6345:6349   */\n      0x40\n        /* \"#utility.yul\":6340:6343   */\n      dup4\n        /* \"#utility.yul\":6336:6350   */\n      add\n        /* \"#utility.yul\":6432:6436   */\n      0x00\n        /* \"#utility.yul\":6425:6430   */\n      dup4\n        /* \"#utility.yul\":6421:6437   */\n      add\n        /* \"#utility.yul\":6415:6438   */\n      mload\n        /* \"#utility.yul\":6451:6514   */\n      tag_202\n        /* \"#utility.yul\":6508:6512   */\n      0x00\n        /* \"#utility.yul\":6503:6506   */\n      dup7\n        /* \"#utility.yul\":6499:6513   */\n      add\n        /* \"#utility.yul\":6485:6497   */\n      dup3\n        /* \"#utility.yul\":6451:6514   */\n      tag_108\n      jump\t// in\n    tag_202:\n        /* \"#utility.yul\":6360:6524   */\n      pop\n        /* \"#utility.yul\":6606:6610   */\n      0x20\n        /* \"#utility.yul\":6599:6604   */\n      dup4\n        /* \"#utility.yul\":6595:6611   */\n      add\n        /* \"#utility.yul\":6589:6612   */\n      mload\n        /* \"#utility.yul\":6659:6662   */\n      dup5\n        /* \"#utility.yul\":6653:6657   */\n      dup3\n        /* \"#utility.yul\":6649:6663   */\n      sub\n        /* \"#utility.yul\":6642:6646   */\n      0x20\n        /* \"#utility.yul\":6637:6640   */\n      dup7\n        /* \"#utility.yul\":6633:6647   */\n      add\n        /* \"#utility.yul\":6626:6664   */\n      mstore\n        /* \"#utility.yul\":6685:6758   */\n      tag_203\n        /* \"#utility.yul\":6753:6757   */\n      dup3\n        /* \"#utility.yul\":6739:6751   */\n      dup3\n        /* \"#utility.yul\":6685:6758   */\n      tag_110\n      jump\t// in\n    tag_203:\n        /* \"#utility.yul\":6677:6758   */\n      swap2\n      pop\n        /* \"#utility.yul\":6534:6769   */\n      pop\n        /* \"#utility.yul\":6786:6790   */\n      dup1\n        /* \"#utility.yul\":6779:6790   */\n      swap2\n      pop\n        /* \"#utility.yul\":6314:6796   */\n      pop\n        /* \"#utility.yul\":6204:6796   */\n      swap3\n      swap2\n      pop\n      pop\n      jump\t// out\n        /* \"#utility.yul\":6802:7050   */\n    tag_112:\n        /* \"#utility.yul\":6917:6927   */\n      0x00\n        /* \"#utility.yul\":6952:7044   */\n      tag_205\n        /* \"#utility.yul\":7040:7043   */\n      dup4\n        /* \"#utility.yul\":7032:7038   */\n      dup4\n        /* \"#utility.yul\":6952:7044   */\n      tag_111\n      jump\t// in\n    tag_205:\n        /* \"#utility.yul\":6938:7044   */\n      swap1\n      pop\n        /* \"#utility.yul\":6802:7050   */\n      swap3\n      swap2\n      pop\n      pop\n      jump\t// out\n        /* \"#utility.yul\":7056:7192   */\n    tag_113:\n        /* \"#utility.yul\":7149:7153   */\n      0x00\n        /* \"#utility.yul\":7181:7185   */\n      0x20\n        /* \"#utility.yul\":7176:7179   */\n      dup3\n        /* \"#utility.yul\":7172:7186   */\n      add\n        /* \"#utility.yul\":7164:7186   */\n      swap1\n      pop\n        /* \"#utility.yul\":7056:7192   */\n      swap2\n      swap1\n      pop\n      jump\t// out\n        /* \"#utility.yul\":7264:8359   */\n    tag_114:\n        /* \"#utility.yul\":7429:7432   */\n      0x00\n        /* \"#utility.yul\":7458:7535   */\n      tag_208\n        /* \"#utility.yul\":7529:7534   */\n      dup3\n        /* \"#utility.yul\":7458:7535   */\n      tag_105\n      jump\t// in\n    tag_208:\n        /* \"#utility.yul\":7551:7660   */\n      tag_209\n        /* \"#utility.yul\":7653:7659   */\n      dup2\n        /* \"#utility.yul\":7648:7651   */\n      dup6\n        /* \"#utility.yul\":7551:7660   */\n      tag_106\n      jump\t// in\n    tag_209:\n        /* \"#utility.yul\":7544:7660   */\n      swap4\n      pop\n        /* \"#utility.yul\":7686:7689   */\n      dup4\n        /* \"#utility.yul\":7731:7735   */\n      0x20\n        /* \"#utility.yul\":7723:7729   */\n      dup3\n        /* \"#utility.yul\":7719:7736   */\n      mul\n        /* \"#utility.yul\":7714:7717   */\n      dup6\n        /* \"#utility.yul\":7710:7737   */\n      add\n        /* \"#utility.yul\":7761:7840   */\n      tag_210\n        /* \"#utility.yul\":7834:7839   */\n      dup6\n        /* \"#utility.yul\":7761:7840   */\n      tag_107\n      jump\t// in\n    tag_210:\n        /* \"#utility.yul\":7863:7870   */\n      dup1\n        /* \"#utility.yul\":7894:7895   */\n      0x00\n        /* \"#utility.yul\":7879:8314   */\n    tag_211:\n        /* \"#utility.yul\":7904:7910   */\n      dup6\n        /* \"#utility.yul\":7901:7902   */\n      dup2\n        /* \"#utility.yul\":7898:7911   */\n      lt\n        /* \"#utility.yul\":7879:8314   */\n      iszero\n      tag_213\n      jumpi\n        /* \"#utility.yul\":7975:7984   */\n      dup5\n        /* \"#utility.yul\":7969:7973   */\n      dup5\n        /* \"#utility.yul\":7965:7985   */\n      sub\n        /* \"#utility.yul\":7960:7963   */\n      dup10\n        /* \"#utility.yul\":7953:7986   */\n      mstore\n        /* \"#utility.yul\":8026:8032   */\n      dup2\n        /* \"#utility.yul\":8020:8033   */\n      mload\n        /* \"#utility.yul\":8054:8164   */\n      tag_214\n        /* \"#utility.yul\":8159:8163   */\n      dup6\n        /* \"#utility.yul\":8144:8157   */\n      dup3\n        /* \"#utility.yul\":8054:8164   */\n      tag_112\n      jump\t// in\n    tag_214:\n        /* \"#utility.yul\":8046:8164   */\n      swap5\n      pop\n        /* \"#utility.yul\":8187:8270   */\n      tag_215\n        /* \"#utility.yul\":8263:8269   */\n      dup4\n        /* \"#utility.yul\":8187:8270   */\n      tag_113\n      jump\t// in\n    tag_215:\n        /* \"#utility.yul\":8177:8270   */\n      swap3\n      pop\n        /* \"#utility.yul\":8299:8303   */\n      0x20\n        /* \"#utility.yul\":8294:8297   */\n      dup11\n        /* \"#utility.yul\":8290:8304   */\n      add\n        /* \"#utility.yul\":8283:8304   */\n      swap10\n      pop\n        /* \"#utility.yul\":7939:8314   */\n      pop\n        /* \"#utility.yul\":7926:7927   */\n      0x01\n        /* \"#utility.yul\":7923:7924   */\n      dup2\n        /* \"#utility.yul\":7919:7928   */\n      add\n        /* \"#utility.yul\":7914:7928   */\n      swap1\n      pop\n        /* \"#utility.yul\":7879:8314   */\n      jump(tag_211)\n    tag_213:\n        /* \"#utility.yul\":7883:7897   */\n      pop\n        /* \"#utility.yul\":8330:8334   */\n      dup3\n        /* \"#utility.yul\":8323:8334   */\n      swap8\n      pop\n        /* \"#utility.yul\":8350:8353   */\n      dup8\n        /* \"#utility.yul\":8343:8353   */\n      swap6\n      pop\n        /* \"#utility.yul\":7434:8359   */\n      pop\n      pop\n      pop\n      pop\n      pop\n        /* \"#utility.yul\":7264:8359   */\n      swap3\n      swap2\n      pop\n      pop\n      jump\t// out\n        /* \"#utility.yul\":8365:8830   */\n    tag_30:\n        /* \"#utility.yul\":8554:8558   */\n      0x00\n        /* \"#utility.yul\":8592:8594   */\n      0x20\n        /* \"#utility.yul\":8581:8590   */\n      dup3\n        /* \"#utility.yul\":8577:8595   */\n      add\n        /* \"#utility.yul\":8569:8595   */\n      swap1\n      pop\n        /* \"#utility.yul\":8641:8650   */\n      dup2\n        /* \"#utility.yul\":8635:8639   */\n      dup2\n        /* \"#utility.yul\":8631:8651   */\n      sub\n        /* \"#utility.yul\":8627:8628   */\n      0x00\n        /* \"#utility.yul\":8616:8625   */\n      dup4\n        /* \"#utility.yul\":8612:8629   */\n      add\n        /* \"#utility.yul\":8605:8652   */\n      mstore\n        /* \"#utility.yul\":8669:8823   */\n      tag_217\n        /* \"#utility.yul\":8818:8822   */\n      dup2\n        /* \"#utility.yul\":8809:8815   */\n      dup5\n        /* \"#utility.yul\":8669:8823   */\n      tag_114\n      jump\t// in\n    tag_217:\n        /* \"#utility.yul\":8661:8823   */\n      swap1\n      pop\n        /* \"#utility.yul\":8365:8830   */\n      swap3\n      swap2\n      pop\n      pop\n      jump\t// out\n        /* \"#utility.yul\":8836:9016   */\n    tag_115:\n        /* \"#utility.yul\":8884:8961   */\n      0x4e487b7100000000000000000000000000000000000000000000000000000000\n        /* \"#utility.yul\":8881:8882   */\n      0x00\n        /* \"#utility.yul\":8874:8962   */\n      mstore\n        /* \"#utility.yul\":8981:8985   */\n      0x11\n        /* \"#utility.yul\":8978:8979   */\n      0x04\n        /* \"#utility.yul\":8971:8986   */\n      mstore\n        /* \"#utility.yul\":9005:9009   */\n      0x24\n        /* \"#utility.yul\":9002:9003   */\n      0x00\n        /* \"#utility.yul\":8995:9010   */\n      revert\n        /* \"#utility.yul\":9022:9216   */\n    tag_34:\n        /* \"#utility.yul\":9062:9066   */\n      0x00\n        /* \"#utility.yul\":9082:9102   */\n      tag_220\n        /* \"#utility.yul\":9100:9101   */\n      dup3\n        /* \"#utility.yul\":9082:9102   */\n      tag_91\n      jump\t// in\n    tag_220:\n        /* \"#utility.yul\":9077:9102   */\n      swap2\n      pop\n        /* \"#utility.yul\":9116:9136   */\n      tag_221\n        /* \"#utility.yul\":9134:9135   */\n      dup4\n        /* \"#utility.yul\":9116:9136   */\n      tag_91\n      jump\t// in\n    tag_221:\n        /* \"#utility.yul\":9111:9136   */\n      swap3\n      pop\n        /* \"#utility.yul\":9160:9161   */\n      dup3\n        /* \"#utility.yul\":9157:9158   */\n      dup3\n        /* \"#utility.yul\":9153:9162   */\n      sub\n        /* \"#utility.yul\":9145:9162   */\n      swap1\n      pop\n        /* \"#utility.yul\":9184:9185   */\n      dup2\n        /* \"#utility.yul\":9178:9182   */\n      dup2\n        /* \"#utility.yul\":9175:9186   */\n      gt\n        /* \"#utility.yul\":9172:9209   */\n      iszero\n      tag_222\n      jumpi\n        /* \"#utility.yul\":9189:9207   */\n      tag_223\n      tag_115\n      jump\t// in\n    tag_223:\n        /* \"#utility.yul\":9172:9209   */\n    tag_222:\n        /* \"#utility.yul\":9022:9216   */\n      swap3\n      swap2\n      pop\n      pop\n      jump\t// out\n        /* \"#utility.yul\":9222:9402   */\n    tag_37:\n        /* \"#utility.yul\":9270:9347   */\n      0x4e487b7100000000000000000000000000000000000000000000000000000000\n        /* \"#utility.yul\":9267:9268   */\n      0x00\n        /* \"#utility.yul\":9260:9348   */\n      mstore\n        /* \"#utility.yul\":9367:9371   */\n      0x32\n        /* \"#utility.yul\":9364:9365   */\n      0x04\n        /* \"#utility.yul\":9357:9372   */\n      mstore\n        /* \"#utility.yul\":9391:9395   */\n      0x24\n        /* \"#utility.yul\":9388:9389   */\n      0x00\n        /* \"#utility.yul\":9381:9396   */\n      revert\n        /* \"#utility.yul\":9408:9588   */\n    tag_116:\n        /* \"#utility.yul\":9456:9533   */\n      0x4e487b7100000000000000000000000000000000000000000000000000000000\n        /* \"#utility.yul\":9453:9454   */\n      0x00\n        /* \"#utility.yul\":9446:9534   */\n      mstore\n        /* \"#utility.yul\":9553:9557   */\n      0x22\n        /* \"#utility.yul\":9550:9551   */\n      0x04\n        /* \"#utility.yul\":9543:9558   */\n      mstore\n        /* \"#utility.yul\":9577:9581   */\n      0x24\n        /* \"#utility.yul\":9574:9575   */\n      0x00\n        /* \"#utility.yul\":9567:9582   */\n      revert\n        /* \"#utility.yul\":9594:9914   */\n    tag_40:\n        /* \"#utility.yul\":9638:9644   */\n      0x00\n        /* \"#utility.yul\":9675:9676   */\n      0x02\n        /* \"#utility.yul\":9669:9673   */\n      dup3\n        /* \"#utility.yul\":9665:9677   */\n      div\n        /* \"#utility.yul\":9655:9677   */\n      swap1\n      pop\n        /* \"#utility.yul\":9722:9723   */\n      0x01\n        /* \"#utility.yul\":9716:9720   */\n      dup3\n        /* \"#utility.yul\":9712:9724   */\n      and\n        /* \"#utility.yul\":9743:9761   */\n      dup1\n        /* \"#utility.yul\":9733:9814   */\n      tag_227\n      jumpi\n        /* \"#utility.yul\":9799:9803   */\n      0x7f\n        /* \"#utility.yul\":9791:9797   */\n      dup3\n        /* \"#utility.yul\":9787:9804   */\n      and\n        /* \"#utility.yul\":9777:9804   */\n      swap2\n      pop\n        /* \"#utility.yul\":9733:9814   */\n    tag_227:\n        /* \"#utility.yul\":9861:9863   */\n      0x20\n        /* \"#utility.yul\":9853:9859   */\n      dup3\n        /* \"#utility.yul\":9850:9864   */\n      lt\n        /* \"#utility.yul\":9830:9848   */\n      dup2\n        /* \"#utility.yul\":9827:9865   */\n      sub\n        /* \"#utility.yul\":9824:9908   */\n      tag_228\n      jumpi\n        /* \"#utility.yul\":9880:9898   */\n      tag_229\n      tag_116\n      jump\t// in\n    tag_229:\n        /* \"#utility.yul\":9824:9908   */\n    tag_228:\n        /* \"#utility.yul\":9645:9914   */\n      pop\n        /* \"#utility.yul\":9594:9914   */\n      swap2\n      swap1\n      pop\n      jump\t// out\n        /* \"#utility.yul\":9920:10100   */\n    tag_66:\n        /* \"#utility.yul\":9968:10045   */\n      0x4e487b7100000000000000000000000000000000000000000000000000000000\n        /* \"#utility.yul\":9965:9966   */\n      0x00\n        /* \"#utility.yul\":9958:10046   */\n      mstore\n        /* \"#utility.yul\":10065:10069   */\n      0x41\n        /* \"#utility.yul\":10062:10063   */\n      0x04\n        /* \"#utility.yul\":10055:10070   */\n      mstore\n        /* \"#utility.yul\":10089:10093   */\n      0x24\n        /* \"#utility.yul\":10086:10087   */\n      0x00\n        /* \"#utility.yul\":10079:10094   */\n      revert\n        /* \"#utility.yul\":10106:10247   */\n    tag_117:\n        /* \"#utility.yul\":10155:10159   */\n      0x00\n        /* \"#utility.yul\":10178:10181   */\n      dup2\n        /* \"#utility.yul\":10170:10181   */\n      swap1\n      pop\n        /* \"#utility.yul\":10201:10204   */\n      dup2\n        /* \"#utility.yul\":10198:10199   */\n      0x00\n        /* \"#utility.yul\":10191:10205   */\n      mstore\n        /* \"#utility.yul\":10235:10239   */\n      0x20\n        /* \"#utility.yul\":10232:10233   */\n      0x00\n        /* \"#utility.yul\":10222:10240   */\n      keccak256\n        /* \"#utility.yul\":10214:10240   */\n      swap1\n      pop\n        /* \"#utility.yul\":10106:10247   */\n      swap2\n      swap1\n      pop\n      jump\t// out\n        /* \"#utility.yul\":10253:10346   */\n    tag_118:\n        /* \"#utility.yul\":10290:10296   */\n      0x00\n        /* \"#utility.yul\":10337:10339   */\n      0x20\n        /* \"#utility.yul\":10332:10334   */\n      0x1f\n        /* \"#utility.yul\":10325:10330   */\n      dup4\n        /* \"#utility.yul\":10321:10335   */\n      add\n        /* \"#utility.yul\":10317:10340   */\n      div\n        /* \"#utility.yul\":10307:10340   */\n      swap1\n      pop\n        /* \"#utility.yul\":10253:10346   */\n      swap2\n      swap1\n      pop\n      jump\t// out\n        /* \"#utility.yul\":10352:10459   */\n    tag_119:\n        /* \"#utility.yul\":10396:10404   */\n      0x00\n        /* \"#utility.yul\":10446:10451   */\n      dup3\n        /* \"#utility.yul\":10440:10444   */\n      dup3\n        /* \"#utility.yul\":10436:10452   */\n      shl\n        /* \"#utility.yul\":10415:10452   */\n      swap1\n      pop\n        /* \"#utility.yul\":10352:10459   */\n      swap3\n      swap2\n      pop\n      pop\n      jump\t// out\n        /* \"#utility.yul\":10465:10858   */\n    tag_120:\n        /* \"#utility.yul\":10534:10540   */\n      0x00\n        /* \"#utility.yul\":10584:10585   */\n      0x08\n        /* \"#utility.yul\":10572:10582   */\n      dup4\n        /* \"#utility.yul\":10568:10586   */\n      mul\n        /* \"#utility.yul\":10607:10704   */\n      tag_235\n        /* \"#utility.yul\":10637:10703   */\n      0xffffffffffffffffffffffffffffffffffffffffffffffffffffffffffffffff\n        /* \"#utility.yul\":10626:10635   */\n      dup3\n        /* \"#utility.yul\":10607:10704   */\n      tag_119\n      jump\t// in\n    tag_235:\n        /* \"#utility.yul\":10725:10764   */\n      tag_236\n        /* \"#utility.yul\":10755:10763   */\n      dup7\n        /* \"#utility.yul\":10744:10753   */\n      dup4\n        /* \"#utility.yul\":10725:10764   */\n      tag_119\n      jump\t// in\n    tag_236:\n        /* \"#utility.yul\":10713:10764   */\n      swap6\n      pop\n        /* \"#utility.yul\":10797:10801   */\n      dup1\n        /* \"#utility.yul\":10793:10802   */\n      not\n        /* \"#utility.yul\":10786:10791   */\n      dup5\n        /* \"#utility.yul\":10782:10803   */\n      and\n        /* \"#utility.yul\":10773:10803   */\n      swap4\n      pop\n        /* \"#utility.yul\":10846:10850   */\n      dup1\n        /* \"#utility.yul\":10836:10844   */\n      dup7\n        /* \"#utility.yul\":10832:10851   */\n      and\n        /* \"#utility.yul\":10825:10830   */\n      dup5\n        /* \"#utility.yul\":10822:10852   */\n      or\n        /* \"#utility.yul\":10812:10852   */\n      swap3\n      pop\n        /* \"#utility.yul\":10541:10858   */\n      pop\n      pop\n        /* \"#utility.yul\":10465:10858   */\n      swap4\n      swap3\n      pop\n      pop\n      pop\n      jump\t// out\n        /* \"#utility.yul\":10864:10924   */\n    tag_121:\n        /* \"#utility.yul\":10892:10895   */\n      0x00\n        /* \"#utility.yul\":10913:10918   */\n      dup2\n        /* \"#utility.yul\":10906:10918   */\n      swap1\n      pop\n        /* \"#utility.yul\":10864:10924   */\n      swap2\n      swap1\n      pop\n      jump\t// out\n        /* \"#utility.yul\":10930:11072   */\n    tag_122:\n        /* \"#utility.yul\":10980:10989   */\n      0x00\n        /* \"#utility.yul\":11013:11066   */\n      tag_239\n        /* \"#utility.yul\":11031:11065   */\n      tag_240\n        /* \"#utility.yul\":11040:11064   */\n      tag_241\n        /* \"#utility.yul\":11058:11063   */\n      dup5\n        /* \"#utility.yul\":11040:11064   */\n      tag_91\n      jump\t// in\n    tag_241:\n        /* \"#utility.yul\":11031:11065   */\n      tag_121\n      jump\t// in\n    tag_240:\n        /* \"#utility.yul\":11013:11066   */\n      tag_91\n      jump\t// in\n    tag_239:\n        /* \"#utility.yul\":11000:11066   */\n      swap1\n      pop\n        /* \"#utility.yul\":10930:11072   */\n      swap2\n      swap1\n      pop\n      jump\t// out\n        /* \"#utility.yul\":11078:11153   */\n    tag_123:\n        /* \"#utility.yul\":11121:11124   */\n      0x00\n        /* \"#utility.yul\":11142:11147   */\n      dup2\n        /* \"#utility.yul\":11135:11147   */\n      swap1\n      pop\n        /* \"#utility.yul\":11078:11153   */\n      swap2\n      swap1\n      pop\n      jump\t// out\n        /* \"#utility.yul\":11159:11428   */\n    tag_124:\n        /* \"#utility.yul\":11269:11308   */\n      tag_244\n        /* \"#utility.yul\":11300:11307   */\n      dup4\n        /* \"#utility.yul\":11269:11308   */\n      tag_122\n      jump\t// in\n    tag_244:\n        /* \"#utility.yul\":11330:11421   */\n      tag_245\n        /* \"#utility.yul\":11379:11420   */\n      tag_246\n        /* \"#utility.yul\":11403:11419   */\n      dup3\n        /* \"#utility.yul\":11379:11420   */\n      tag_123\n      jump\t// in\n    tag_246:\n        /* \"#utility.yul\":11371:11377   */\n      dup5\n        /* \"#utility.yul\":11364:11368   */\n      dup5\n        /* \"#utility.yul\":11358:11369   */\n      sload\n        /* \"#utility.yul\":11330:11421   */\n      tag_120\n      jump\t// in\n    tag_245:\n        /* \"#utility.yul\":11324:11328   */\n      dup3\n        /* \"#utility.yul\":11317:11422   */\n      sstore\n        /* \"#utility.yul\":11235:11428   */\n      pop\n        /* \"#utility.yul\":11159:11428   */\n      pop\n      pop\n      pop\n      jump\t// out\n        /* \"#utility.yul\":11434:11507   */\n    tag_125:\n        /* \"#utility.yul\":11479:11482   */\n      0x00\n        /* \"#utility.yul\":11434:11507   */\n      swap1\n      jump\t// out\n        /* \"#utility.yul\":11513:11702   */\n    tag_126:\n        /* \"#utility.yul\":11590:11622   */\n      tag_249\n      tag_125\n      jump\t// in\n    tag_249:\n        /* \"#utility.yul\":11631:11696   */\n      tag_250\n        /* \"#utility.yul\":11689:11695   */\n      dup2\n        /* \"#utility.yul\":11681:11687   */\n      dup5\n        /* \"#utility.yul\":11675:11679   */\n      dup5\n        /* \"#utility.yul\":11631:11696   */\n      tag_124\n      jump\t// in\n    tag_250:\n        /* \"#utility.yul\":11566:11702   */\n      pop\n        /* \"#utility.yul\":11513:11702   */\n      pop\n      pop\n      jump\t// out\n        /* \"#utility.yul\":11708:11894   */\n    tag_127:\n        /* \"#utility.yul\":11768:11888   */\n    tag_252:\n        /* \"#utility.yul\":11785:11788   */\n      dup2\n        /* \"#utility.yul\":11778:11783   */\n      dup2\n        /* \"#utility.yul\":11775:11789   */\n      lt\n        /* \"#utility.yul\":11768:11888   */\n      iszero\n      tag_254\n      jumpi\n        /* \"#utility.yul\":11839:11878   */\n      tag_255\n        /* \"#utility.yul\":11876:11877   */\n      0x00\n        /* \"#utility.yul\":11869:11874   */\n      dup3\n        /* \"#utility.yul\":11839:11878   */\n      tag_126\n      jump\t// in\n    tag_255:\n        /* \"#utility.yul\":11812:11813   */\n      0x01\n        /* \"#utility.yul\":11805:11810   */\n      dup2\n        /* \"#utility.yul\":11801:11814   */\n      add\n        /* \"#utility.yul\":11792:11814   */\n      swap1\n      pop\n        /* \"#utility.yul\":11768:11888   */\n      jump(tag_252)\n    tag_254:\n        /* \"#utility.yul\":11708:11894   */\n      pop\n      pop\n      jump\t// out\n        /* \"#utility.yul\":11900:12443   */\n    tag_128:\n        /* \"#utility.yul\":12001:12003   */\n      0x1f\n        /* \"#utility.yul\":11996:11999   */\n      dup3\n        /* \"#utility.yul\":11993:12004   */\n      gt\n        /* \"#utility.yul\":11990:12436   */\n      iszero\n      tag_257\n      jumpi\n        /* \"#utility.yul\":12035:12073   */\n      tag_258\n        /* \"#utility.yul\":12067:12072   */\n      dup2\n        /* \"#utility.yul\":12035:12073   */\n      tag_117\n      jump\t// in\n    tag_258:\n        /* \"#utility.yul\":12119:12148   */\n      tag_259\n        /* \"#utility.yul\":12137:12147   */\n      dup5\n        /* \"#utility.yul\":12119:12148   */\n      tag_118\n      jump\t// in\n    tag_259:\n        /* \"#utility.yul\":12109:12117   */\n      dup2\n        /* \"#utility.yul\":12105:12149   */\n      add\n        /* \"#utility.yul\":12302:12304   */\n      0x20\n        /* \"#utility.yul\":12290:12300   */\n      dup6\n        /* \"#utility.yul\":12287:12305   */\n      lt\n        /* \"#utility.yul\":12284:12333   */\n      iszero\n      tag_260\n      jumpi\n        /* \"#utility.yul\":12323:12331   */\n      dup2\n        /* \"#utility.yul\":12308:12331   */\n      swap1\n      pop\n        /* \"#utility.yul\":12284:12333   */\n    tag_260:\n        /* \"#utility.yul\":12346:12426   */\n      tag_261\n        /* \"#utility.yul\":12402:12424   */\n      tag_262\n        /* \"#utility.yul\":12420:12423   */\n      dup6\n        /* \"#utility.yul\":12402:12424   */\n      tag_118\n      jump\t// in\n    tag_262:\n        /* \"#utility.yul\":12392:12400   */\n      dup4\n        /* \"#utility.yul\":12388:12425   */\n      add\n        /* \"#utility.yul\":12375:12386   */\n      dup3\n        /* \"#utility.yul\":12346:12426   */\n      tag_127\n      jump\t// in\n    tag_261:\n        /* \"#utility.yul\":12005:12436   */\n      pop\n      pop\n        /* \"#utility.yul\":11990:12436   */\n    tag_257:\n        /* \"#utility.yul\":11900:12443   */\n      pop\n      pop\n      pop\n      jump\t// out\n        /* \"#utility.yul\":12449:12566   */\n    tag_129:\n        /* \"#utility.yul\":12503:12511   */\n      0x00\n        /* \"#utility.yul\":12553:12558   */\n      dup3\n        /* \"#utility.yul\":12547:12551   */\n      dup3\n        /* \"#utility.yul\":12543:12559   */\n      shr\n        /* \"#utility.yul\":12522:12559   */\n      swap1\n      pop\n        /* \"#utility.yul\":12449:12566   */\n      swap3\n      swap2\n      pop\n      pop\n      jump\t// out\n        /* \"#utility.yul\":12572:12741   */\n    tag_130:\n        /* \"#utility.yul\":12616:12622   */\n      0x00\n        /* \"#utility.yul\":12649:12700   */\n      tag_265\n        /* \"#utility.yul\":12697:12698   */\n      0x00\n        /* \"#utility.yul\":12693:12699   */\n      not\n        /* \"#utility.yul\":12685:12690   */\n      dup5\n        /* \"#utility.yul\":12682:12683   */\n      0x08\n        /* \"#utility.yul\":12678:12691   */\n      mul\n        /* \"#utility.yul\":12649:12700   */\n      tag_129\n      jump\t// in\n    tag_265:\n        /* \"#utility.yul\":12645:12701   */\n      not\n        /* \"#utility.yul\":12730:12734   */\n      dup1\n        /* \"#utility.yul\":12724:12728   */\n      dup4\n        /* \"#utility.yul\":12720:12735   */\n      and\n        /* \"#utility.yul\":12710:12735   */\n      swap2\n      pop\n        /* \"#utility.yul\":12623:12741   */\n      pop\n        /* \"#utility.yul\":12572:12741   */\n      swap3\n      swap2\n      pop\n      pop\n      jump\t// out\n        /* \"#utility.yul\":12746:13041   */\n    tag_131:\n        /* \"#utility.yul\":12822:12826   */\n      0x00\n        /* \"#utility.yul\":12968:12997   */\n      tag_267\n        /* \"#utility.yul\":12993:12996   */\n      dup4\n        /* \"#utility.yul\":12987:12991   */\n      dup4\n        /* \"#utility.yul\":12968:12997   */\n      tag_130\n      jump\t// in\n    tag_267:\n        /* \"#utility.yul\":12960:12997   */\n      swap2\n      pop\n        /* \"#utility.yul\":13030:13033   */\n      dup3\n        /* \"#utility.yul\":13027:13028   */\n      0x02\n        /* \"#utility.yul\":13023:13034   */\n      mul\n        /* \"#utility.yul\":13017:13021   */\n      dup3\n        /* \"#utility.yul\":13014:13035   */\n      or\n        /* \"#utility.yul\":13006:13035   */\n      swap1\n      pop\n        /* \"#utility.yul\":12746:13041   */\n      swap3\n      swap2\n      pop\n      pop\n      jump\t// out\n        /* \"#utility.yul\":13046:14441   */\n    tag_56:\n        /* \"#utility.yul\":13163:13200   */\n      tag_269\n        /* \"#utility.yul\":13196:13199   */\n      dup3\n        /* \"#utility.yul\":13163:13200   */\n      tag_86\n      jump\t// in\n    tag_269:\n        /* \"#utility.yul\":13265:13283   */\n      0xffffffffffffffff\n        /* \"#utility.yul\":13257:13263   */\n      dup2\n        /* \"#utility.yul\":13254:13284   */\n      gt\n        /* \"#utility.yul\":13251:13307   */\n      iszero\n      tag_270\n      jumpi\n        /* \"#utility.yul\":13287:13305   */\n      tag_271\n      tag_66\n      jump\t// in\n    tag_271:\n        /* \"#utility.yul\":13251:13307   */\n    tag_270:\n        /* \"#utility.yul\":13331:13369   */\n      tag_272\n        /* \"#utility.yul\":13363:13367   */\n      dup3\n        /* \"#utility.yul\":13357:13368   */\n      sload\n        /* \"#utility.yul\":13331:13369   */\n      tag_40\n      jump\t// in\n    tag_272:\n        /* \"#utility.yul\":13416:13483   */\n      tag_273\n        /* \"#utility.yul\":13476:13482   */\n      dup3\n        /* \"#utility.yul\":13468:13474   */\n      dup3\n        /* \"#utility.yul\":13462:13466   */\n      dup6\n        /* \"#utility.yul\":13416:13483   */\n      tag_128\n      jump\t// in\n    tag_273:\n        /* \"#utility.yul\":13510:13511   */\n      0x00\n        /* \"#utility.yul\":13534:13538   */\n      0x20\n        /* \"#utility.yul\":13521:13538   */\n      swap1\n      pop\n        /* \"#utility.yul\":13566:13568   */\n      0x1f\n        /* \"#utility.yul\":13558:13564   */\n      dup4\n        /* \"#utility.yul\":13555:13569   */\n      gt\n        /* \"#utility.yul\":13583:13584   */\n      0x01\n        /* \"#utility.yul\":13578:14196   */\n      dup2\n      eq\n      tag_275\n      jumpi\n        /* \"#utility.yul\":14240:14241   */\n      0x00\n        /* \"#utility.yul\":14257:14263   */\n      dup5\n        /* \"#utility.yul\":14254:14331   */\n      iszero\n      tag_276\n      jumpi\n        /* \"#utility.yul\":14306:14315   */\n      dup3\n        /* \"#utility.yul\":14301:14304   */\n      dup8\n        /* \"#utility.yul\":14297:14316   */\n      add\n        /* \"#utility.yul\":14291:14317   */\n      mload\n        /* \"#utility.yul\":14282:14317   */\n      swap1\n      pop\n        /* \"#utility.yul\":14254:14331   */\n    tag_276:\n        /* \"#utility.yul\":14357:14424   */\n      tag_277\n        /* \"#utility.yul\":14417:14423   */\n      dup6\n        /* \"#utility.yul\":14410:14415   */\n      dup3\n        /* \"#utility.yul\":14357:14424   */\n      tag_131\n      jump\t// in\n    tag_277:\n        /* \"#utility.yul\":14351:14355   */\n      dup7\n        /* \"#utility.yul\":14344:14425   */\n      sstore\n        /* \"#utility.yul\":14213:14435   */\n      pop\n        /* \"#utility.yul\":13548:14435   */\n      jump(tag_274)\n        /* \"#utility.yul\":13578:14196   */\n    tag_275:\n        /* \"#utility.yul\":13630:13634   */\n      0x1f\n        /* \"#utility.yul\":13626:13635   */\n      not\n        /* \"#utility.yul\":13618:13624   */\n      dup5\n        /* \"#utility.yul\":13614:13636   */\n      and\n        /* \"#utility.yul\":13664:13701   */\n      tag_278\n        /* \"#utility.yul\":13696:13700   */\n      dup7\n        /* \"#utility.yul\":13664:13701   */\n      tag_117\n      jump\t// in\n    tag_278:\n        /* \"#utility.yul\":13723:13724   */\n      0x00\n        /* \"#utility.yul\":13737:13945   */\n    tag_279:\n        /* \"#utility.yul\":13751:13758   */\n      dup3\n        /* \"#utility.yul\":13748:13749   */\n      dup2\n        /* \"#utility.yul\":13745:13759   */\n      lt\n        /* \"#utility.yul\":13737:13945   */\n      iszero\n      tag_281\n      jumpi\n        /* \"#utility.yul\":13830:13839   */\n      dup5\n        /* \"#utility.yul\":13825:13828   */\n      dup10\n        /* \"#utility.yul\":13821:13840   */\n      add\n        /* \"#utility.yul\":13815:13841   */\n      mload\n        /* \"#utility.yul\":13807:13813   */\n      dup3\n        /* \"#utility.yul\":13800:13842   */\n      sstore\n        /* \"#utility.yul\":13881:13882   */\n      0x01\n        /* \"#utility.yul\":13873:13879   */\n      dup3\n        /* \"#utility.yul\":13869:13883   */\n      add\n        /* \"#utility.yul\":13859:13883   */\n      swap2\n      pop\n        /* \"#utility.yul\":13928:13930   */\n      0x20\n        /* \"#utility.yul\":13917:13926   */\n      dup6\n        /* \"#utility.yul\":13913:13931   */\n      add\n        /* \"#utility.yul\":13900:13931   */\n      swap5\n      pop\n        /* \"#utility.yul\":13774:13778   */\n      0x20\n        /* \"#utility.yul\":13771:13772   */\n      dup2\n        /* \"#utility.yul\":13767:13779   */\n      add\n        /* \"#utility.yul\":13762:13779   */\n      swap1\n      pop\n        /* \"#utility.yul\":13737:13945   */\n      jump(tag_279)\n    tag_281:\n        /* \"#utility.yul\":13973:13979   */\n      dup7\n        /* \"#utility.yul\":13964:13971   */\n      dup4\n        /* \"#utility.yul\":13961:13980   */\n      lt\n        /* \"#utility.yul\":13958:14137   */\n      iszero\n      tag_282\n      jumpi\n        /* \"#utility.yul\":14031:14040   */\n      dup5\n        /* \"#utility.yul\":14026:14029   */\n      dup10\n        /* \"#utility.yul\":14022:14041   */\n      add\n        /* \"#utility.yul\":14016:14042   */\n      mload\n        /* \"#utility.yul\":14074:14122   */\n      tag_283\n        /* \"#utility.yul\":14116:14120   */\n      0x1f\n        /* \"#utility.yul\":14108:14114   */\n      dup10\n        /* \"#utility.yul\":14104:14121   */\n      and\n        /* \"#utility.yul\":14093:14102   */\n      dup3\n        /* \"#utility.yul\":14074:14122   */\n      tag_130\n      jump\t// in\n    tag_283:\n        /* \"#utility.yul\":14066:14072   */\n      dup4\n        /* \"#utility.yul\":14059:14123   */\n      sstore\n        /* \"#utility.yul\":13981:14137   */\n      pop\n        /* \"#utility.yul\":13958:14137   */\n    tag_282:\n        /* \"#utility.yul\":14183:14184   */\n      0x01\n        /* \"#utility.yul\":14179:14180   */\n      0x02\n        /* \"#utility.yul\":14171:14177   */\n      dup9\n        /* \"#utility.yul\":14167:14181   */\n      mul\n        /* \"#utility.yul\":14163:14185   */\n      add\n        /* \"#utility.yul\":14157:14161   */\n      dup9\n        /* \"#utility.yul\":14150:14186   */\n      sstore\n        /* \"#utility.yul\":13585:14196   */\n      pop\n      pop\n      pop\n        /* \"#utility.yul\":13548:14435   */\n    tag_274:\n      pop\n        /* \"#utility.yul\":13138:14441   */\n      pop\n      pop\n      pop\n        /* \"#utility.yul\":13046:14441   */\n      pop\n      pop\n      jump\t// out\n        /* \"#utility.yul\":14447:14593   */\n    tag_132:\n        /* \"#utility.yul\":14544:14550   */\n      dup3\n        /* \"#utility.yul\":14539:14542   */\n      dup2\n        /* \"#utility.yul\":14534:14537   */\n      dup4\n        /* \"#utility.yul\":14521:14551   */\n      calldatacopy\n        /* \"#utility.yul\":14585:14586   */\n      0x00\n        /* \"#utility.yul\":14576:14582   */\n      dup4\n        /* \"#utility.yul\":14571:14574   */\n      dup4\n        /* \"#utility.yul\":14567:14583   */\n      add\n        /* \"#utility.yul\":14560:14587   */\n      mstore\n        /* \"#utility.yul\":14447:14593   */\n      pop\n      pop\n      pop\n      jump\t// out\n        /* \"#utility.yul\":14623:14940   */\n    tag_133:\n        /* \"#utility.yul\":14721:14724   */\n      0x00\n        /* \"#utility.yul\":14742:14813   */\n      tag_286\n        /* \"#utility.yul\":14806:14812   */\n      dup4\n        /* \"#utility.yul\":14801:14804   */\n      dup6\n        /* \"#utility.yul\":14742:14813   */\n      tag_87\n      jump\t// in\n    tag_286:\n        /* \"#utility.yul\":14735:14813   */\n      swap4\n      pop\n        /* \"#utility.yul\":14823:14879   */\n      tag_287\n        /* \"#utility.yul\":14872:14878   */\n      dup4\n        /* \"#utility.yul\":14867:14870   */\n      dup6\n        /* \"#utility.yul\":14860:14865   */\n      dup5\n        /* \"#utility.yul\":14823:14879   */\n      tag_132\n      jump\t// in\n    tag_287:\n        /* \"#utility.yul\":14904:14933   */\n      tag_288\n        /* \"#utility.yul\":14926:14932   */\n      dup4\n        /* \"#utility.yul\":14904:14933   */\n      tag_89\n      jump\t// in\n    tag_288:\n        /* \"#utility.yul\":14899:14902   */\n      dup5\n        /* \"#utility.yul\":14895:14934   */\n      add\n        /* \"#utility.yul\":14888:14934   */\n      swap1\n      pop\n        /* \"#utility.yul\":14623:14940   */\n      swap4\n      swap3\n      pop\n      pop\n      pop\n      jump\t// out\n        /* \"#utility.yul\":14946:15279   */\n    tag_58:\n        /* \"#utility.yul\":15069:15073   */\n      0x00\n        /* \"#utility.yul\":15107:15109   */\n      0x20\n        /* \"#utility.yul\":15096:15105   */\n      dup3\n        /* \"#utility.yul\":15092:15110   */\n      add\n        /* \"#utility.yul\":15084:15110   */\n      swap1\n      pop\n        /* \"#utility.yul\":15156:15165   */\n      dup2\n        /* \"#utility.yul\":15150:15154   */\n      dup2\n        /* \"#utility.yul\":15146:15166   */\n      sub\n        /* \"#utility.yul\":15142:15143   */\n      0x00\n        /* \"#utility.yul\":15131:15140   */\n      dup4\n        /* \"#utility.yul\":15127:15144   */\n      add\n        /* \"#utility.yul\":15120:15167   */\n      mstore\n        /* \"#utility.yul\":15184:15272   */\n      tag_290\n        /* \"#utility.yul\":15267:15271   */\n      dup2\n        /* \"#utility.yul\":15258:15264   */\n      dup5\n        /* \"#utility.yul\":15250:15256   */\n      dup7\n        /* \"#utility.yul\":15184:15272   */\n      tag_133\n      jump\t// in\n    tag_290:\n        /* \"#utility.yul\":15176:15272   */\n      swap1\n      pop\n        /* \"#utility.yul\":14946:15279   */\n      swap4\n      swap3\n      pop\n      pop\n      pop\n      jump\t// out\n        /* \"#utility.yul\":15285:15476   */\n    tag_75:\n        /* \"#utility.yul\":15325:15328   */\n      0x00\n        /* \"#utility.yul\":15344:15364   */\n      tag_292\n        /* \"#utility.yul\":15362:15363   */\n      dup3\n        /* \"#utility.yul\":15344:15364   */\n      tag_91\n      jump\t// in\n    tag_292:\n        /* \"#utility.yul\":15339:15364   */\n      swap2\n      pop\n        /* \"#utility.yul\":15378:15398   */\n      tag_293\n        /* \"#utility.yul\":15396:15397   */\n      dup4\n        /* \"#utility.yul\":15378:15398   */\n      tag_91\n      jump\t// in\n    tag_293:\n        /* \"#utility.yul\":15373:15398   */\n      swap3\n      pop\n        /* \"#utility.yul\":15421:15422   */\n      dup3\n        /* \"#utility.yul\":15418:15419   */\n      dup3\n        /* \"#utility.yul\":15414:15423   */\n      add\n        /* \"#utility.yul\":15407:15423   */\n      swap1\n      pop\n        /* \"#utility.yul\":15442:15445   */\n      dup1\n        /* \"#utility.yul\":15439:15440   */\n      dup3\n        /* \"#utility.yul\":15436:15446   */\n      gt\n        /* \"#utility.yul\":15433:15469   */\n      iszero\n      tag_294\n      jumpi\n        /* \"#utility.yul\":15449:15467   */\n      tag_295\n      tag_115\n      jump\t// in\n    tag_295:\n        /* \"#utility.yul\":15433:15469   */\n    tag_294:\n        /* \"#utility.yul\":15285:15476   */\n      swap3\n      swap2\n      pop\n      pop\n      jump\t// out\n\n    auxdata: 0xa2646970667358221220826814660cd67f7c32790626fd6756f1ec7e14c971b0ef28596f8a5b41a52db064736f6c63430008170033\n}\n",
				"bytecode": {
					"linkReferences": {},
					"object": "608060405234801561000f575f80fd5b50610e328061001d5f395ff3fe608060405234801561000f575f80fd5b5060043610610055575f3560e01c8063556cfc0714610059578063574617f9146100775780635ad35c84146100955780638cb09282146100c6578063b8bbcc2b146100e2575b5f80fd5b610061610112565b60405161006e91906106b7565b60405180910390f35b61007f6101f4565b60405161008c91906106ef565b60405180910390f35b6100af60048036038101906100aa919061073a565b6101ff565b6040516100bd9291906107a4565b60405180910390f35b6100e060048036038101906100db9190610833565b6102d2565b005b6100fc60048036038101906100f7919061073a565b610416565b60405161010991906109ca565b60405180910390f35b60605f8080549050036101355760405180602001604052805f81525090506101f1565b5f60015f805490506101479190610a17565b8154811061015857610157610a4a565b5b905f5260205f209060020201600101805461017290610aa4565b80601f016020809104026020016040519081016040528092919081815260200182805461019e90610aa4565b80156101e95780601f106101c0576101008083540402835291602001916101e9565b820191905f5260205f20905b8154815290600101906020018083116101cc57829003601f168201915b505050505090505b90565b5f8080549050905090565b5f818154811061020d575f80fd5b905f5260205f2090600202015f91509050805f015f9054906101000a900473ffffffffffffffffffffffffffffffffffffffff169080600101805461025190610aa4565b80601f016020809104026020016040519081016040528092919081815260200182805461027d90610aa4565b80156102c85780601f1061029f576101008083540402835291602001916102c8565b820191905f5260205f20905b8154815290600101906020018083116102ab57829003601f168201915b5050505050905082565b5f60405180604001604052803373ffffffffffffffffffffffffffffffffffffffff16815260200184848080601f0160208091040260200160405190810160405280939291908181526020018383808284375f81840152601f19601f82011690508083019250505050505050815250908060018154018082558091505060019003905f5260205f2090600202015f909190919091505f820151815f015f6101000a81548173ffffffffffffffffffffffffffffffffffffffff021916908373ffffffffffffffffffffffffffffffffffffffff16021790555060208201518160010190816103c09190610c9e565b5050503373ffffffffffffffffffffffffffffffffffffffff167ee4f379dbef96e13a86b972e7d3f1f1ed03de48a868e25fa132b18e202dbf2e838360405161040a929190610da7565b60405180910390a25050565b60605f808054905090505f83821161042e575f61043b565b838261043a9190610a17565b5b90505f818361044a9190610a17565b90505f8167ffffffffffffffff81111561046757610466610ad4565b5b6040519080825280602002602001820160405280156104a057816020015b61048d6105fe565b8152602001906001900390816104855790505b5090505f5b828110156105f1575f81856104ba9190610dc9565b815481106104cb576104ca610a4a565b5b905f5260205f2090600202016040518060400160405290815f82015f9054906101000a900473ffffffffffffffffffffffffffffffffffffffff1673ffffffffffffffffffffffffffffffffffffffff1673ffffffffffffffffffffffffffffffffffffffff16815260200160018201805461054690610aa4565b80601f016020809104026020016040519081016040528092919081815260200182805461057290610aa4565b80156105bd5780601f10610594576101008083540402835291602001916105bd565b820191905f5260205f20905b8154815290600101906020018083116105a057829003601f168201915b5050505050815250508282815181106105d9576105d8610a4a565b5b602002602001018190525080806001019150506104a5565b5080945050505050919050565b60405180604001604052805f73ffffffffffffffffffffffffffffffffffffffff168152602001606081525090565b5f81519050919050565b5f82825260208201905092915050565b5f5b83811015610664578082015181840152602081019050610649565b5f8484015250505050565b5f601f19601f8301169050919050565b5f6106898261062d565b6106938185610637565b93506106a3818560208601610647565b6106ac8161066f565b840191505092915050565b5f6020820190508181035f8301526106cf818461067f565b905092915050565b5f819050919050565b6106e9816106d7565b82525050565b5f6020820190506107025f8301846106e0565b92915050565b5f80fd5b5f80fd5b610719816106d7565b8114610723575f80fd5b50565b5f8135905061073481610710565b92915050565b5f6020828403121561074f5761074e610708565b5b5f61075c84828501610726565b91505092915050565b5f73ffffffffffffffffffffffffffffffffffffffff82169050919050565b5f61078e82610765565b9050919050565b61079e81610784565b82525050565b5f6040820190506107b75f830185610795565b81810360208301526107c9818461067f565b90509392505050565b5f80fd5b5f80fd5b5f80fd5b5f8083601f8401126107f3576107f26107d2565b5b8235905067ffffffffffffffff8111156108105761080f6107d6565b5b60208301915083600182028301111561082c5761082b6107da565b5b9250929050565b5f806020838503121561084957610848610708565b5b5f83013567ffffffffffffffff8111156108665761086561070c565b5b610872858286016107de565b92509250509250929050565b5f81519050919050565b5f82825260208201905092915050565b5f819050602082019050919050565b6108b081610784565b82525050565b5f82825260208201905092915050565b5f6108d08261062d565b6108da81856108b6565b93506108ea818560208601610647565b6108f38161066f565b840191505092915050565b5f604083015f8301516109135f8601826108a7565b506020830151848203602086015261092b82826108c6565b9150508091505092915050565b5f61094383836108fe565b905092915050565b5f602082019050919050565b5f6109618261087e565b61096b8185610888565b93508360208202850161097d85610898565b805f5b858110156109b857848403895281516109998582610938565b94506109a48361094b565b925060208a01995050600181019050610980565b50829750879550505050505092915050565b5f6020820190508181035f8301526109e28184610957565b905092915050565b7f4e487b71000000000000000000000000000000000000000000000000000000005f52601160045260245ffd5b5f610a21826106d7565b9150610a2c836106d7565b9250828203905081811115610a4457610a436109ea565b5b92915050565b7f4e487b71000000000000000000000000000000000000000000000000000000005f52603260045260245ffd5b7f4e487b71000000000000000000000000000000000000000000000000000000005f52602260045260245ffd5b5f6002820490506001821680610abb57607f821691505b602082108103610ace57610acd610a77565b5b50919050565b7f4e487b71000000000000000000000000000000000000000000000000000000005f52604160045260245ffd5b5f819050815f5260205f209050919050565b5f6020601f8301049050919050565b5f82821b905092915050565b5f60088302610b5d7fffffffffffffffffffffffffffffffffffffffffffffffffffffffffffffffff82610b22565b610b678683610b22565b95508019841693508086168417925050509392505050565b5f819050919050565b5f610ba2610b9d610b98846106d7565b610b7f565b6106d7565b9050919050565b5f819050919050565b610bbb83610b88565b610bcf610bc782610ba9565b848454610b2e565b825550505050565b5f90565b610be3610bd7565b610bee818484610bb2565b505050565b5b81811015610c1157610c065f82610bdb565b600181019050610bf4565b5050565b601f821115610c5657610c2781610b01565b610c3084610b13565b81016020851015610c3f578190505b610c53610c4b85610b13565b830182610bf3565b50505b505050565b5f82821c905092915050565b5f610c765f1984600802610c5b565b1980831691505092915050565b5f610c8e8383610c67565b9150826002028217905092915050565b610ca78261062d565b67ffffffffffffffff811115610cc057610cbf610ad4565b5b610cca8254610aa4565b610cd5828285610c15565b5f60209050601f831160018114610d06575f8415610cf4578287015190505b610cfe8582610c83565b865550610d65565b601f198416610d1486610b01565b5f5b82811015610d3b57848901518255600182019150602085019450602081019050610d16565b86831015610d585784890151610d54601f891682610c67565b8355505b6001600288020188555050505b505050505050565b828183375f83830152505050565b5f610d868385610637565b9350610d93838584610d6d565b610d9c8361066f565b840190509392505050565b5f6020820190508181035f830152610dc0818486610d7b565b90509392505050565b5f610dd3826106d7565b9150610dde836106d7565b9250828201905080821115610df657610df56109ea565b5b9291505056fea2646970667358221220826814660cd67f7c32790626fd6756f1ec7e14c971b0ef28596f8a5b41a52db064736f6c63430008170033",
					"opcodes": "PUSH1 0x80 PUSH1 0x40 MSTORE CALLVALUE DUP1 ISZERO PUSH2 0xF JUMPI PUSH0 DUP1 REVERT JUMPDEST POP PUSH2 0xE32 DUP1 PUSH2 0x1D PUSH0 CODECOPY PUSH0 RETURN INVALID PUSH1 0x80 PUSH1 0x40 MSTORE CALLVALUE DUP1 ISZERO PUSH2 0xF JUMPI PUSH0 DUP1 REVERT JUMPDEST POP PUSH1 0x4 CALLDATASIZE LT PUSH2 0x55 JUMPI PUSH0 CALLDATALOAD PUSH1 0xE0 SHR DUP1 PUSH4 0x556CFC07 EQ PUSH2 0x59 JUMPI DUP1 PUSH4 0x574617F9 EQ PUSH2 0x77 JUMPI DUP1 PUSH4 0x5AD35C84 EQ PUSH2 0x95 JUMPI DUP1 PUSH4 0x8CB09282 EQ PUSH2 0xC6 JUMPI DUP1 PUSH4 0xB8BBCC2B EQ PUSH2 0xE2 JUMPI JUMPDEST PUSH0 DUP1 REVERT JUMPDEST PUSH2 0x61 PUSH2 0x112 JUMP JUMPDEST PUSH1 0x40 MLOAD PUSH2 0x6E SWAP2 SWAP1 PUSH2 0x6B7 JUMP JUMPDEST PUSH1 0x40 MLOAD DUP1 SWAP2 SUB SWAP1 RETURN JUMPDEST PUSH2 0x7F PUSH2 0x1F4 JUMP JUMPDEST PUSH1 0x40 MLOAD PUSH2 0x8C SWAP2 SWAP1 PUSH2 0x6EF JUMP JUMPDEST PUSH1 0x40 MLOAD DUP1 SWAP2 SUB SWAP1 RETURN JUMPDEST PUSH2 0xAF PUSH1 0x4 DUP1 CALLDATASIZE SUB DUP2 ADD SWAP1 PUSH2 0xAA SWAP2 SWAP1 PUSH2 0x73A JUMP JUMPDEST PUSH2 0x1FF JUMP JUMPDEST PUSH1 0x40 MLOAD PUSH2 0xBD SWAP3 SWAP2 SWAP1 PUSH2 0x7A4 JUMP JUMPDEST PUSH1 0x40 MLOAD DUP1 SWAP2 SUB SWAP1 RETURN JUMPDEST PUSH2 0xE0 PUSH1 0x4 DUP1 CALLDATASIZE SUB DUP2 ADD SWAP1 PUSH2 0xDB SWAP2 SWAP1 PUSH2 0x833 JUMP JUMPDEST PUSH2 0x2D2 JUMP JUMPDEST STOP JUMPDEST PUSH2 0xFC PUSH1 0x4 DUP1 CALLDATASIZE SUB DUP2 ADD SWAP1 PUSH2 0xF7 SWAP2 SWAP1 PUSH2 0x73A JUMP JUMPDEST PUSH2 0x416 JUMP JUMPDEST PUSH1 0x40 MLOAD PUSH2 0x109 SWAP2 SWAP1 PUSH2 0x9CA JUMP JUMPDEST PUSH1 0x40 MLOAD DUP1 SWAP2 SUB SWAP1 RETURN JUMPDEST PUSH1 0x60 PUSH0 DUP1 DUP1 SLOAD SWAP1 POP SUB PUSH2 0x135 JUMPI PUSH1 0x40 MLOAD DUP1 PUSH1 0x20 ADD PUSH1 0x40 MSTORE DUP1 PUSH0 DUP2 MSTORE POP SWAP1 POP PUSH2 0x1F1 JUMP JUMPDEST PUSH0 PUSH1 0x1 PUSH0 DUP1 SLOAD SWAP1 POP PUSH2 0x147 SWAP2 SWAP1 PUSH2 0xA17 JUMP JUMPDEST DUP2 SLOAD DUP2 LT PUSH2 0x158 JUMPI PUSH2 0x157 PUSH2 0xA4A JUMP JUMPDEST JUMPDEST SWAP1 PUSH0 MSTORE PUSH1 0x20 PUSH0 KECCAK256 SWAP1 PUSH1 0x2 MUL ADD PUSH1 0x1 ADD DUP1 SLOAD PUSH2 0x172 SWAP1 PUSH2 0xAA4 JUMP JUMPDEST DUP1 PUSH1 0x1F ADD PUSH1 0x20 DUP1 SWAP2 DIV MUL PUSH1 0x20 ADD PUSH1 0x40 MLOAD SWAP1 DUP2 ADD PUSH1 0x40 MSTORE DUP1 SWAP3 SWAP2 SWAP1 DUP2 DUP2 MSTORE PUSH1 0x20 ADD DUP3 DUP1 SLOAD PUSH2 0x19E SWAP1 PUSH2 0xAA4 JUMP JUMPDEST DUP1 ISZERO PUSH2 0x1E9 JUMPI DUP1 PUSH1 0x1F LT PUSH2 0x1C0 JUMPI PUSH2 0x100 DUP1 DUP4 SLOAD DIV MUL DUP4 MSTORE SWAP2 PUSH1 0x20 ADD SWAP2 PUSH2 0x1E9 JUMP JUMPDEST DUP3 ADD SWAP2 SWAP1 PUSH0 MSTORE PUSH1 0x20 PUSH0 KECCAK256 SWAP1 JUMPDEST DUP2 SLOAD DUP2 MSTORE SWAP1 PUSH1 0x1 ADD SWAP1 PUSH1 0x20 ADD DUP1 DUP4 GT PUSH2 0x1CC JUMPI DUP3 SWAP1 SUB PUSH1 0x1F AND DUP3 ADD SWAP2 JUMPDEST POP POP POP POP POP SWAP1 POP JUMPDEST SWAP1 JUMP JUMPDEST PUSH0 DUP1 DUP1 SLOAD SWAP1 POP SWAP1 POP SWAP1 JUMP JUMPDEST PUSH0 DUP2 DUP2 SLOAD DUP2 LT PUSH2 0x20D JUMPI PUSH0 DUP1 REVERT JUMPDEST SWAP1 PUSH0 MSTORE PUSH1 0x20 PUSH0 KECCAK256 SWAP1 PUSH1 0x2 MUL ADD PUSH0 SWAP2 POP SWAP1 POP DUP1 PUSH0 ADD PUSH0 SWAP1 SLOAD SWAP1 PUSH2 0x100 EXP SWAP1 DIV PUSH20 0xFFFFFFFFFFFFFFFFFFFFFFFFFFFFFFFFFFFFFFFF AND SWAP1 DUP1 PUSH1 0x1 ADD DUP1 SLOAD PUSH2 0x251 SWAP1 PUSH2 0xAA4 JUMP JUMPDEST DUP1 PUSH1 0x1F ADD PUSH1 0x20 DUP1 SWAP2 DIV MUL PUSH1 0x20 ADD PUSH1 0x40 MLOAD SWAP1 DUP2 ADD PUSH1 0x40 MSTORE DUP1 SWAP3 SWAP2 SWAP1 DUP2 DUP2 MSTORE PUSH1 0x20 ADD DUP3 DUP1 SLOAD PUSH2 0x27D SWAP1 PUSH2 0xAA4 JUMP JUMPDEST DUP1 ISZERO PUSH2 0x2C8 JUMPI DUP1 PUSH1 0x1F LT PUSH2 0x29F JUMPI PUSH2 0x100 DUP1 DUP4 SLOAD DIV MUL DUP4 MSTORE SWAP2 PUSH1 0x20 ADD SWAP2 PUSH2 0x2C8 JUMP JUMPDEST DUP3 ADD SWAP2 SWAP1 PUSH0 MSTORE PUSH1 0x20 PUSH0 KECCAK256 SWAP1 JUMPDEST DUP2 SLOAD DUP2 MSTORE SWAP1 PUSH1 0x1 ADD SWAP1 PUSH1 0x20 ADD DUP1 DUP4 GT PUSH2 0x2AB JUMPI DUP3 SWAP1 SUB PUSH1 0x1F AND DUP3 ADD SWAP2 JUMPDEST POP POP POP POP POP SWAP1 POP DUP3 JUMP JUMPDEST PUSH0 PUSH1 0x40 MLOAD DUP1 PUSH1 0x40 ADD PUSH1 0x40 MSTORE DUP1 CALLER PUSH20 0xFFFFFFFFFFFFFFFFFFFFFFFFFFFFFFFFFFFFFFFF AND DUP2 MSTORE PUSH1 0x20 ADD DUP5 DUP5 DUP1 DUP1 PUSH1 0x1F ADD PUSH1 0x20 DUP1 SWAP2 DIV MUL PUSH1 0x20 ADD PUSH1 0x40 MLOAD SWAP1 DUP2 ADD PUSH1 0x40 MSTORE DUP1 SWAP4 SWAP3 SWAP2 SWAP1 DUP2 DUP2 MSTORE PUSH1 0x20 ADD DUP4 DUP4 DUP1 DUP3 DUP5 CALLDATACOPY PUSH0 DUP2 DUP5 ADD MSTORE PUSH1 0x1F NOT PUSH1 0x1F DUP3 ADD AND SWAP1 POP DUP1 DUP4 ADD SWAP3 POP POP POP POP POP POP POP DUP2 MSTORE POP SWAP1 DUP1 PUSH1 0x1 DUP2 SLOAD ADD DUP1 DUP3 SSTORE DUP1 SWAP2 POP POP PUSH1 0x1 SWAP1 SUB SWAP1 PUSH0 MSTORE PUSH1 0x20 PUSH0 KECCAK256 SWAP1 PUSH1 0x2 MUL ADD PUSH0 SWAP1 SWAP2 SWAP1 SWAP2 SWAP1 SWAP2 POP PUSH0 DUP3 ADD MLOAD DUP2 PUSH0 ADD PUSH0 PUSH2 0x100 EXP DUP2 SLOAD DUP2 PUSH20 0xFFFFFFFFFFFFFFFFFFFFFFFFFFFFFFFFFFFFFFFF MUL NOT AND SWAP1 DUP4 PUSH20 0xFFFFFFFFFFFFFFFFFFFFFFFFFFFFFFFFFFFFFFFF AND MUL OR SWAP1 SSTORE POP PUSH1 0x20 DUP3 ADD MLOAD DUP2 PUSH1 0x1 ADD SWAP1 DUP2 PUSH2 0x3C0 SWAP2 SWAP1 PUSH2 0xC9E JUMP JUMPDEST POP POP POP CALLER PUSH20 0xFFFFFFFFFFFFFFFFFFFFFFFFFFFFFFFFFFFFFFFF AND PUSH31 0xE4F379DBEF96E13A86B972E7D3F1F1ED03DE48A868E25FA132B18E202DBF2E DUP4 DUP4 PUSH1 0x40 MLOAD PUSH2 0x40A SWAP3 SWAP2 SWAP1 PUSH2 0xDA7 JUMP JUMPDEST PUSH1 0x40 MLOAD DUP1 SWAP2 SUB SWAP1 LOG2 POP POP JUMP JUMPDEST PUSH1 0x60 PUSH0 DUP1 DUP1 SLOAD SWAP1 POP SWAP1 POP PUSH0 DUP4 DUP3 GT PUSH2 0x42E JUMPI PUSH0 PUSH2 0x43B JUMP JUMPDEST DUP4 DUP3 PUSH2 0x43A SWAP2 SWAP1 PUSH2 0xA17 JUMP JUMPDEST JUMPDEST SWAP1 POP PUSH0 DUP2 DUP4 PUSH2 0x44A SWAP2 SWAP1 PUSH2 0xA17 JUMP JUMPDEST SWAP1 POP PUSH0 DUP2 PUSH8 0xFFFFFFFFFFFFFFFF DUP2 GT ISZERO PUSH2 0x467 JUMPI PUSH2 0x466 PUSH2 0xAD4 JUMP JUMPDEST JUMPDEST PUSH1 0x40 MLOAD SWAP1 DUP1 DUP3 MSTORE DUP1 PUSH1 0x20 MUL PUSH1 0x20 ADD DUP3 ADD PUSH1 0x40 MSTORE DUP1 ISZERO PUSH2 0x4A0 JUMPI DUP2 PUSH1 0x20 ADD JUMPDEST PUSH2 0x48D PUSH2 0x5FE JUMP JUMPDEST DUP2 MSTORE PUSH1 0x20 ADD SWAP1 PUSH1 0x1 SWAP1 SUB SWAP1 DUP2 PUSH2 0x485 JUMPI SWAP1 POP JUMPDEST POP SWAP1 POP PUSH0 JUMPDEST DUP3 DUP2 LT ISZERO PUSH2 0x5F1 JUMPI PUSH0 DUP2 DUP6 PUSH2 0x4BA SWAP2 SWAP1 PUSH2 0xDC9 JUMP JUMPDEST DUP2 SLOAD DUP2 LT PUSH2 0x4CB JUMPI PUSH2 0x4CA PUSH2 0xA4A JUMP JUMPDEST JUMPDEST SWAP1 PUSH0 MSTORE PUSH1 0x20 PUSH0 KECCAK256 SWAP1 PUSH1 0x2 MUL ADD PUSH1 0x40 MLOAD DUP1 PUSH1 0x40 ADD PUSH1 0x40 MSTORE SWAP1 DUP2 PUSH0 DUP3 ADD PUSH0 SWAP1 SLOAD SWAP1 PUSH2 0x100 EXP SWAP1 DIV PUSH20 0xFFFFFFFFFFFFFFFFFFFFFFFFFFFFFFFFFFFFFFFF AND PUSH20 0xFFFFFFFFFFFFFFFFFFFFFFFFFFFFFFFFFFFFFFFF AND PUSH20 0xFFFFFFFFFFFFFFFFFFFFFFFFFFFFFFFFFFFFFFFF AND DUP2 MSTORE PUSH1 0x20 ADD PUSH1 0x1 DUP3 ADD DUP1 SLOAD PUSH2 0x546 SWAP1 PUSH2 0xAA4 JUMP JUMPDEST DUP1 PUSH1 0x1F ADD PUSH1 0x20 DUP1 SWAP2 DIV MUL PUSH1 0x20 ADD PUSH1 0x40 MLOAD SWAP1 DUP2 ADD PUSH1 0x40 MSTORE DUP1 SWAP3 SWAP2 SWAP1 DUP2 DUP2 MSTORE PUSH1 0x20 ADD DUP3 DUP1 SLOAD PUSH2 0x572 SWAP1 PUSH2 0xAA4 JUMP JUMPDEST DUP1 ISZERO PUSH2 0x5BD JUMPI DUP1 PUSH1 0x1F LT PUSH2 0x594 JUMPI PUSH2 0x100 DUP1 DUP4 SLOAD DIV MUL DUP4 MSTORE SWAP2 PUSH1 0x20 ADD SWAP2 PUSH2 0x5BD JUMP JUMPDEST DUP3 ADD SWAP2 SWAP1 PUSH0 MSTORE PUSH1 0x20 PUSH0 KECCAK256 SWAP1 JUMPDEST DUP2 SLOAD DUP2 MSTORE SWAP1 PUSH1 0x1 ADD SWAP1 PUSH1 0x20 ADD DUP1 DUP4 GT PUSH2 0x5A0 JUMPI DUP3 SWAP1 SUB PUSH1 0x1F AND DUP3 ADD SWAP2 JUMPDEST POP POP POP POP POP DUP2 MSTORE POP POP DUP3 DUP3 DUP2 MLOAD DUP2 LT PUSH2 0x5D9 JUMPI PUSH2 0x5D8 PUSH2 0xA4A JUMP JUMPDEST JUMPDEST PUSH1 0x20 MUL PUSH1 0x20 ADD ADD DUP2 SWAP1 MSTORE POP DUP1 DUP1 PUSH1 0x1 ADD SWAP2 POP POP PUSH2 0x4A5 JUMP JUMPDEST POP DUP1 SWAP5 POP POP POP POP POP SWAP2 SWAP1 POP JUMP JUMPDEST PUSH1 0x40 MLOAD DUP1 PUSH1 0x40 ADD PUSH1 0x40 MSTORE DUP1 PUSH0 PUSH20 0xFFFFFFFFFFFFFFFFFFFFFFFFFFFFFFFFFFFFFFFF AND DUP2 MSTORE PUSH1 0x20 ADD PUSH1 0x60 DUP2 MSTORE POP SWAP1 JUMP JUMPDEST PUSH0 DUP2 MLOAD SWAP1 POP SWAP2 SWAP1 POP JUMP JUMPDEST PUSH0 DUP3 DUP3 MSTORE PUSH1 0x20 DUP3 ADD SWAP1 POP SWAP3 SWAP2 POP POP JUMP JUMPDEST PUSH0 JUMPDEST DUP4 DUP2 LT ISZERO PUSH2 0x664 JUMPI DUP1 DUP3 ADD MLOAD DUP2 DUP5 ADD MSTORE PUSH1 0x20 DUP2 ADD SWAP1 POP PUSH2 0x649 JUMP JUMPDEST PUSH0 DUP5 DUP5 ADD MSTORE POP POP POP POP JUMP JUMPDEST PUSH0 PUSH1 0x1F NOT PUSH1 0x1F DUP4 ADD AND SWAP1 POP SWAP2 SWAP1 POP JUMP JUMPDEST PUSH0 PUSH2 0x689 DUP3 PUSH2 0x62D JUMP JUMPDEST PUSH2 0x693 DUP2 DUP6 PUSH2 0x637 JUMP JUMPDEST SWAP4 POP PUSH2 0x6A3 DUP2 DUP6 PUSH1 0x20 DUP7 ADD PUSH2 0x647 JUMP JUMPDEST PUSH2 0x6AC DUP2 PUSH2 0x66F JUMP JUMPDEST DUP5 ADD SWAP2 POP POP SWAP3 SWAP2 POP POP JUMP JUMPDEST PUSH0 PUSH1 0x20 DUP3 ADD SWAP1 POP DUP2 DUP2 SUB PUSH0 DUP4 ADD MSTORE PUSH2 0x6CF DUP2 DUP5 PUSH2 0x67F JUMP JUMPDEST SWAP1 POP SWAP3 SWAP2 POP POP JUMP JUMPDEST PUSH0 DUP2 SWAP1 POP SWAP2 SWAP1 POP JUMP JUMPDEST PUSH2 0x6E9 DUP2 PUSH2 0x6D7 JUMP JUMPDEST DUP3 MSTORE POP POP JUMP JUMPDEST PUSH0 PUSH1 0x20 DUP3 ADD SWAP1 POP PUSH2 0x702 PUSH0 DUP4 ADD DUP5 PUSH2 0x6E0 JUMP JUMPDEST SWAP3 SWAP2 POP POP JUMP JUMPDEST PUSH0 DUP1 REVERT JUMPDEST PUSH0 DUP1 REVERT JUMPDEST PUSH2 0x719 DUP2 PUSH2 0x6D7 JUMP JUMPDEST DUP2 EQ PUSH2 0x723 JUMPI PUSH0 DUP1 REVERT JUMPDEST POP JUMP JUMPDEST PUSH0 DUP2 CALLDATALOAD SWAP1 POP PUSH2 0x734 DUP2 PUSH2 0x710 JUMP JUMPDEST SWAP3 SWAP2 POP POP JUMP JUMPDEST PUSH0 PUSH1 0x20 DUP3 DUP5 SUB SLT ISZERO PUSH2 0x74F JUMPI PUSH2 0x74E PUSH2 0x708 JUMP JUMPDEST JUMPDEST PUSH0 PUSH2 0x75C DUP5 DUP3 DUP6 ADD PUSH2 0x726 JUMP JUMPDEST SWAP2 POP POP SWAP3 SWAP2 POP POP JUMP JUMPDEST PUSH0 PUSH20 0xFFFFFFFFFFFFFFFFFFFFFFFFFFFFFFFFFFFFFFFF DUP3 AND SWAP1 POP SWAP2 SWAP1 POP JUMP JUMPDEST PUSH0 PUSH2 0x78E DUP3 PUSH2 0x765 JUMP JUMPDEST SWAP1 POP SWAP2 SWAP1 POP JUMP JUMPDEST PUSH2 0x79E DUP2 PUSH2 0x784 JUMP JUMPDEST DUP3 MSTORE POP POP JUMP JUMPDEST PUSH0 PUSH1 0x40 DUP3 ADD SWAP1 POP PUSH2 0x7B7 PUSH0 DUP4 ADD DUP6 PUSH2 0x795 JUMP JUMPDEST DUP2 DUP2 SUB PUSH1 0x20 DUP4 ADD MSTORE PUSH2 0x7C9 DUP2 DUP5 PUSH2 0x67F JUMP JUMPDEST SWAP1 POP SWAP4 SWAP3 POP POP POP JUMP JUMPDEST PUSH0 DUP1 REVERT JUMPDEST PUSH0 DUP1 REVERT JUMPDEST PUSH0 DUP1 REVERT JUMPDEST PUSH0 DUP1 DUP4 PUSH1 0x1F DUP5 ADD SLT PUSH2 0x7F3 JUMPI PUSH2 0x7F2 PUSH2 0x7D2 JUMP JUMPDEST JUMPDEST DUP3 CALLDATALOAD SWAP1 POP PUSH8 0xFFFFFFFFFFFFFFFF DUP2 GT ISZERO PUSH2 0x810 JUMPI PUSH2 0x80F PUSH2 0x7D6 JUMP JUMPDEST JUMPDEST PUSH1 0x20 DUP4 ADD SWAP2 POP DUP4 PUSH1 0x1 DUP3 MUL DUP4 ADD GT ISZERO PUSH2 0x82C JUMPI PUSH2 0x82B PUSH2 0x7DA JUMP JUMPDEST JUMPDEST SWAP3 POP SWAP3 SWAP1 POP JUMP JUMPDEST PUSH0 DUP1 PUSH1 0x20 DUP4 DUP6 SUB SLT ISZERO PUSH2 0x849 JUMPI PUSH2 0x848 PUSH2 0x708 JUMP JUMPDEST JUMPDEST PUSH0 DUP4 ADD CALLDATALOAD PUSH8 0xFFFFFFFFFFFFFFFF DUP2 GT ISZERO PUSH2 0x866 JUMPI PUSH2 0x865 PUSH2 0x70C JUMP JUMPDEST JUMPDEST PUSH2 0x872 DUP6 DUP3 DUP7 ADD PUSH2 0x7DE JUMP JUMPDEST SWAP3 POP SWAP3 POP POP SWAP3 POP SWAP3 SWAP1 POP JUMP JUMPDEST PUSH0 DUP2 MLOAD SWAP1 POP SWAP2 SWAP1 POP JUMP JUMPDEST PUSH0 DUP3 DUP3 MSTORE PUSH1 0x20 DUP3 ADD SWAP1 POP SWAP3 SWAP2 POP POP JUMP JUMPDEST PUSH0 DUP2 SWAP1 POP PUSH1 0x20 DUP3 ADD SWAP1 POP SWAP2 SWAP1 POP JUMP JUMPDEST PUSH2 0x8B0 DUP2 PUSH2 0x784 JUMP JUMPDEST DUP3 MSTORE POP POP JUMP JUMPDEST PUSH0 DUP3 DUP3 MSTORE PUSH1 0x20 DUP3 ADD SWAP1 POP SWAP3 SWAP2 POP POP JUMP JUMPDEST PUSH0 PUSH2 0x8D0 DUP3 PUSH2 0x62D JUMP JUMPDEST PUSH2 0x8DA DUP2 DUP6 PUSH2 0x8B6 JUMP JUMPDEST SWAP4 POP PUSH2 0x8EA DUP2 DUP6 PUSH1 0x20 DUP7 ADD PUSH2 0x647 JUMP JUMPDEST PUSH2 0x8F3 DUP2 PUSH2 0x66F JUMP JUMPDEST DUP5 ADD SWAP2 POP POP SWAP3 SWAP2 POP POP JUMP JUMPDEST PUSH0 PUSH1 0x40 DUP4 ADD PUSH0 DUP4 ADD MLOAD PUSH2 0x913 PUSH0 DUP7 ADD DUP3 PUSH2 0x8A7 JUMP JUMPDEST POP PUSH1 0x20 DUP4 ADD MLOAD DUP5 DUP3 SUB PUSH1 0x20 DUP7 ADD MSTORE PUSH2 0x92B DUP3 DUP3 PUSH2 0x8C6 JUMP JUMPDEST SWAP2 POP POP DUP1 SWAP2 POP POP SWAP3 SWAP2 POP POP JUMP JUMPDEST PUSH0 PUSH2 0x943 DUP4 DUP4 PUSH2 0x8FE JUMP JUMPDEST SWAP1 POP SWAP3 SWAP2 POP POP JUMP JUMPDEST PUSH0 PUSH1 0x20 DUP3 ADD SWAP1 POP SWAP2 SWAP1 POP JUMP JUMPDEST PUSH0 PUSH2 0x961 DUP3 PUSH2 0x87E JUMP JUMPDEST PUSH2 0x96B DUP2 DUP6 PUSH2 0x888 JUMP JUMPDEST SWAP4 POP DUP4 PUSH1 0x20 DUP3 MUL DUP6 ADD PUSH2 0x97D DUP6 PUSH2 0x898 JUMP JUMPDEST DUP1 PUSH0 JUMPDEST DUP6 DUP2 LT ISZERO PUSH2 0x9B8 JUMPI DUP5 DUP5 SUB DUP10 MSTORE DUP2 MLOAD PUSH2 0x999 DUP6 DUP3 PUSH2 0x938 JUMP JUMPDEST SWAP5 POP PUSH2 0x9A4 DUP4 PUSH2 0x94B JUMP JUMPDEST SWAP3 POP PUSH1 0x20 DUP11 ADD SWAP10 POP POP PUSH1 0x1 DUP2 ADD SWAP1 POP PUSH2 0x980 JUMP JUMPDEST POP DUP3 SWAP8 POP DUP8 SWAP6 POP POP POP POP POP POP SWAP3 SWAP2 POP POP JUMP JUMPDEST PUSH0 PUSH1 0x20 DUP3 ADD SWAP1 POP DUP2 DUP2 SUB PUSH0 DUP4 ADD MSTORE PUSH2 0x9E2 DUP2 DUP5 PUSH2 0x957 JUMP JUMPDEST SWAP1 POP SWAP3 SWAP2 POP POP JUMP JUMPDEST PUSH32 0x4E487B7100000000000000000000000000000000000000000000000000000000 PUSH0 MSTORE PUSH1 0x11 PUSH1 0x4 MSTORE PUSH1 0x24 PUSH0 REVERT JUMPDEST PUSH0 PUSH2 0xA21 DUP3 PUSH2 0x6D7 JUMP JUMPDEST SWAP2 POP PUSH2 0xA2C DUP4 PUSH2 0x6D7 JUMP JUMPDEST SWAP3 POP DUP3 DUP3 SUB SWAP1 POP DUP2 DUP2 GT ISZERO PUSH2 0xA44 JUMPI PUSH2 0xA43 PUSH2 0x9EA JUMP JUMPDEST JUMPDEST SWAP3 SWAP2 POP POP JUMP JUMPDEST PUSH32 0x4E487B7100000000000000000000000000000000000000000000000000000000 PUSH0 MSTORE PUSH1 0x32 PUSH1 0x4 MSTORE PUSH1 0x24 PUSH0 REVERT JUMPDEST PUSH32 0x4E487B7100000000000000000000000000000000000000000000000000000000 PUSH0 MSTORE PUSH1 0x22 PUSH1 0x4 MSTORE PUSH1 0x24 PUSH0 REVERT JUMPDEST PUSH0 PUSH1 0x2 DUP3 DIV SWAP1 POP PUSH1 0x1 DUP3 AND DUP1 PUSH2 0xABB JUMPI PUSH1 0x7F DUP3 AND SWAP2 POP JUMPDEST PUSH1 0x20 DUP3 LT DUP2 SUB PUSH2 0xACE JUMPI PUSH2 0xACD PUSH2 0xA77 JUMP JUMPDEST JUMPDEST POP SWAP2 SWAP1 POP JUMP JUMPDEST PUSH32 0x4E487B7100000000000000000000000000000000000000000000000000000000 PUSH0 MSTORE PUSH1 0x41 PUSH1 0x4 MSTORE PUSH1 0x24 PUSH0 REVERT JUMPDEST PUSH0 DUP2 SWAP1 POP DUP2 PUSH0 MSTORE PUSH1 0x20 PUSH0 KECCAK256 SWAP1 POP SWAP2 SWAP1 POP JUMP JUMPDEST PUSH0 PUSH1 0x20 PUSH1 0x1F DUP4 ADD DIV SWAP1 POP SWAP2 SWAP1 POP JUMP JUMPDEST PUSH0 DUP3 DUP3 SHL SWAP1 POP SWAP3 SWAP2 POP POP JUMP JUMPDEST PUSH0 PUSH1 0x8 DUP4 MUL PUSH2 0xB5D PUSH32 0xFFFFFFFFFFFFFFFFFFFFFFFFFFFFFFFFFFFFFFFFFFFFFFFFFFFFFFFFFFFFFFFF DUP3 PUSH2 0xB22 JUMP JUMPDEST PUSH2 0xB67 DUP7 DUP4 PUSH2 0xB22 JUMP JUMPDEST SWAP6 POP DUP1 NOT DUP5 AND SWAP4 POP DUP1 DUP7 AND DUP5 OR SWAP3 POP POP POP SWAP4 SWAP3 POP POP POP JUMP JUMPDEST PUSH0 DUP2 SWAP1 POP SWAP2 SWAP1 POP JUMP JUMPDEST PUSH0 PUSH2 0xBA2 PUSH2 0xB9D PUSH2 0xB98 DUP5 PUSH2 0x6D7 JUMP JUMPDEST PUSH2 0xB7F JUMP JUMPDEST PUSH2 0x6D7 JUMP JUMPDEST SWAP1 POP SWAP2 SWAP1 POP JUMP JUMPDEST PUSH0 DUP2 SWAP1 POP SWAP2 SWAP1 POP JUMP JUMPDEST PUSH2 0xBBB DUP4 PUSH2 0xB88 JUMP JUMPDEST PUSH2 0xBCF PUSH2 0xBC7 DUP3 PUSH2 0xBA9 JUMP JUMPDEST DUP5 DUP5 SLOAD PUSH2 0xB2E JUMP JUMPDEST DUP3 SSTORE POP POP POP POP JUMP JUMPDEST PUSH0 SWAP1 JUMP JUMPDEST PUSH2 0xBE3 PUSH2 0xBD7 JUMP JUMPDEST PUSH2 0xBEE DUP2 DUP5 DUP5 PUSH2 0xBB2 JUMP JUMPDEST POP POP POP JUMP JUMPDEST JUMPDEST DUP2 DUP2 LT ISZERO PUSH2 0xC11 JUMPI PUSH2 0xC06 PUSH0 DUP3 PUSH2 0xBDB JUMP JUMPDEST PUSH1 0x1 DUP2 ADD SWAP1 POP PUSH2 0xBF4 JUMP JUMPDEST POP POP JUMP JUMPDEST PUSH1 0x1F DUP3 GT ISZERO PUSH2 0xC56 JUMPI PUSH2 0xC27 DUP2 PUSH2 0xB01 JUMP JUMPDEST PUSH2 0xC30 DUP5 PUSH2 0xB13 JUMP JUMPDEST DUP2 ADD PUSH1 0x20 DUP6 LT ISZERO PUSH2 0xC3F JUMPI DUP2 SWAP1 POP JUMPDEST PUSH2 0xC53 PUSH2 0xC4B DUP6 PUSH2 0xB13 JUMP JUMPDEST DUP4 ADD DUP3 PUSH2 0xBF3 JUMP JUMPDEST POP POP JUMPDEST POP POP POP JUMP JUMPDEST PUSH0 DUP3 DUP3 SHR SWAP1 POP SWAP3 SWAP2 POP POP JUMP JUMPDEST PUSH0 PUSH2 0xC76 PUSH0 NOT DUP5 PUSH1 0x8 MUL PUSH2 0xC5B JUMP JUMPDEST NOT DUP1 DUP4 AND SWAP2 POP POP SWAP3 SWAP2 POP POP JUMP JUMPDEST PUSH0 PUSH2 0xC8E DUP4 DUP4 PUSH2 0xC67 JUMP JUMPDEST SWAP2 POP DUP3 PUSH1 0x2 MUL DUP3 OR SWAP1 POP SWAP3 SWAP2 POP POP JUMP JUMPDEST PUSH2 0xCA7 DUP3 PUSH2 0x62D JUMP JUMPDEST PUSH8 0xFFFFFFFFFFFFFFFF DUP2 GT ISZERO PUSH2 0xCC0 JUMPI PUSH2 0xCBF PUSH2 0xAD4 JUMP JUMPDEST JUMPDEST PUSH2 0xCCA DUP3 SLOAD PUSH2 0xAA4 JUMP JUMPDEST PUSH2 0xCD5 DUP3 DUP3 DUP6 PUSH2 0xC15 JUMP JUMPDEST PUSH0 PUSH1 0x20 SWAP1 POP PUSH1 0x1F DUP4 GT PUSH1 0x1 DUP2 EQ PUSH2 0xD06 JUMPI PUSH0 DUP5 ISZERO PUSH2 0xCF4 JUMPI DUP3 DUP8 ADD MLOAD SWAP1 POP JUMPDEST PUSH2 0xCFE DUP6 DUP3 PUSH2 0xC83 JUMP JUMPDEST DUP7 SSTORE POP PUSH2 0xD65 JUMP JUMPDEST PUSH1 0x1F NOT DUP5 AND PUSH2 0xD14 DUP7 PUSH2 0xB01 JUMP JUMPDEST PUSH0 JUMPDEST DUP3 DUP2 LT ISZERO PUSH2 0xD3B JUMPI DUP5 DUP10 ADD MLOAD DUP3 SSTORE PUSH1 0x1 DUP3 ADD SWAP2 POP PUSH1 0x20 DUP6 ADD SWAP5 POP PUSH1 0x20 DUP2 ADD SWAP1 POP PUSH2 0xD16 JUMP JUMPDEST DUP7 DUP4 LT ISZERO PUSH2 0xD58 JUMPI DUP5 DUP10 ADD MLOAD PUSH2 0xD54 PUSH1 0x1F DUP10 AND DUP3 PUSH2 0xC67 JUMP JUMPDEST DUP4 SSTORE POP JUMPDEST PUSH1 0x1 PUSH1 0x2 DUP9 MUL ADD DUP9 SSTORE POP POP POP JUMPDEST POP POP POP POP POP POP JUMP JUMPDEST DUP3 DUP2 DUP4 CALLDATACOPY PUSH0 DUP4 DUP4 ADD MSTORE POP POP POP JUMP JUMPDEST PUSH0 PUSH2 0xD86 DUP4 DUP6 PUSH2 0x637 JUMP JUMPDEST SWAP4 POP PUSH2 0xD93 DUP4 DUP6 DUP5 PUSH2 0xD6D JUMP JUMPDEST PUSH2 0xD9C DUP4 PUSH2 0x66F JUMP JUMPDEST DUP5 ADD SWAP1 POP SWAP4 SWAP3 POP POP POP JUMP JUMPDEST PUSH0 PUSH1 0x20 DUP3 ADD SWAP1 POP DUP2 DUP2 SUB PUSH0 DUP4 ADD MSTORE PUSH2 0xDC0 DUP2 DUP5 DUP7 PUSH2 0xD7B JUMP JUMPDEST SWAP1 POP SWAP4 SWAP3 POP POP POP JUMP JUMPDEST PUSH0 PUSH2 0xDD3 DUP3 PUSH2 0x6D7 JUMP JUMPDEST SWAP2 POP PUSH2 0xDDE DUP4 PUSH2 0x6D7 JUMP JUMPDEST SWAP3 POP DUP3 DUP3 ADD SWAP1 POP DUP1 DUP3 GT ISZERO PUSH2 0xDF6 JUMPI PUSH2 0xDF5 PUSH2 0x9EA JUMP JUMPDEST JUMPDEST SWAP3 SWAP2 POP POP JUMP INVALID LOG2 PUSH5 0x6970667358 0x22 SLT KECCAK256 DUP3 PUSH9 0x14660CD67F7C327906 0x26 REVERT PUSH8 0x56F1EC7E14C971B0 0xEF 0x28 MSIZE PUSH16 0x8A5B41A52DB064736F6C634300081700 CALLER "
				},
				"gasEstimates": {
					"creation": {
						"codeDepositCost": "726800",
						"executionCost": "758",
						"totalCost": "727558"
					},
					"external": {
						"getGMCount()": "2440",
						"getLastGMs(uint256)": "infinite",
						"gms(uint256)": "infinite",
						"lastGM()": "infinite",
						"sayGM(string)": "infinite"
					}
				},
				"methodIdentifiers": {
					"getGMCount()": "574617f9",
					"getLastGMs(uint256)": "b8bbcc2b",
					"gms(uint256)": "5ad35c84",
					"lastGM()": "556cfc07",
					"sayGM(string)": "8cb09282"
				}
			},
			"storageLayout": {
				"storage": [
					{
						"astId": 16,
						"contract": "monad dashboard/GMContract1.sol:GMContract",
						"label": "gms",
						"offset": 0,
						"slot": "0",
						"type": "t_array(t_struct(Message)12_storage)dyn_storage"
					}
				],
				"types": {
					"t_address": {
						"encoding": "inplace",
						"label": "address",
						"numberOfBytes": "20"
					},
					"t_array(t_struct(Message)12_storage)dyn_storage": {
						"base": "t_struct(Message)12_storage",
						"encoding": "dynamic_array",
						"label": "struct GMContract.Message[]",
						"numberOfBytes": "32"
					},
					"t_string_storage": {
						"encoding": "bytes",
						"label": "string",
						"numberOfBytes": "32"
					},
					"t_struct(Message)12_storage": {
						"encoding": "inplace",
						"label": "struct GMContract.Message",
						"members": [
							{
								"astId": 9,
								"contract": "monad dashboard/GMContract1.sol:GMContract",
								"label": "user",
								"offset": 0,
								"slot": "0",
								"type": "t_address"
							},
							{
								"astId": 11,
								"contract": "monad dashboard/GMContract1.sol:GMContract",
								"label": "text",
								"offset": 0,
								"slot": "1",
								"type": "t_string_storage"
							}
						],
						"numberOfBytes": "64"
					}
				}
			},
			"userdoc": {
				"kind": "user",
				"methods": {},
				"version": 1
			}
		}
	}
}