{
	"monad dashboard/InfluenceArena.sol": {
		"InfluenceArena": {
			"abi": [
				{
					"inputs": [],
					"stateMutability": "nonpayable",
					"type": "constructor"
				},
				{
					"anonymous": false,
					"inputs": [
						{
							"indexed": true,
							"internalType": "uint256",
							"name": "id",
							"type": "uint256"
						},
						{
							"indexed": false,
							"internalType": "address",
							"name": "challenger",
							"type": "address"
						},
						{
							"indexed": false,
							"internalType": "address",
							"name": "opponent",
							"type": "address"
						},
						{
							"indexed": false,
							"internalType": "uint256",
							"name": "stake",
							"type": "uint256"
						}
					],
					"name": "ChallengeCreated",
					"type": "event"
				},
				{
					"anonymous": false,
					"inputs": [
						{
							"indexed": true,
							"internalType": "uint256",
							"name": "id",
							"type": "uint256"
						},
						{
							"indexed": false,
							"internalType": "address",
							"name": "winner",
							"type": "address"
						},
						{
							"indexed": false,
							"internalType": "address",
							"name": "loser",
							"type": "address"
						}
					],
					"name": "ChallengeResolved",
					"type": "event"
				},
				{
					"inputs": [
						{
							"internalType": "uint256",
							"name": "",
							"type": "uint256"
						}
					],
					"name": "challenges",
					"outputs": [
						{
							"internalType": "address",
							"name": "challenger",
							"type": "address"
						},
						{
							"internalType": "address",
							"name": "opponent",
							"type": "address"
						},
						{
							"internalType": "uint256",
							"name": "stake",
							"type": "uint256"
						},
						{
							"internalType": "uint256",
							"name": "createdAt",
							"type": "uint256"
						},
						{
							"internalType": "bool",
							"name": "resolved",
							"type": "bool"
						}
					],
					"stateMutability": "view",
					"type": "function"
				},
				{
					"inputs": [
						{
							"internalType": "address",
							"name": "_opponent",
							"type": "address"
						},
						{
							"internalType": "uint256",
							"name": "_stake",
							"type": "uint256"
						}
					],
					"name": "createChallenge",
					"outputs": [],
					"stateMutability": "nonpayable",
					"type": "function"
				},
				{
					"inputs": [
						{
							"internalType": "uint256",
							"name": "id",
							"type": "uint256"
						}
					],
					"name": "getChallenge",
					"outputs": [
						{
							"components": [
								{
									"internalType": "address",
									"name": "challenger",
									"type": "address"
								},
								{
									"internalType": "address",
									"name": "opponent",
									"type": "address"
								},
								{
									"internalType": "uint256",
									"name": "stake",
									"type": "uint256"
								},
								{
									"internalType": "uint256",
									"name": "createdAt",
									"type": "uint256"
								},
								{
									"internalType": "bool",
									"name": "resolved",
									"type": "bool"
								}
							],
							"internalType": "struct InfluenceArena.Challenge",
							"name": "",
							"type": "tuple"
						}
					],
					"stateMutability": "view",
					"type": "function"
				},
				{
					"inputs": [
						{
							"internalType": "address",
							"name": "user",
							"type": "address"
						}
					],
					"name": "getPlayer",
					"outputs": [
						{
							"components": [
								{
									"internalType": "uint256",
									"name": "influence",
									"type": "uint256"
								},
								{
									"internalType": "uint256",
									"name": "reputation",
									"type": "uint256"
								},
								{
									"internalType": "uint256",
									"name": "lockedUntil",
									"type": "uint256"
								}
							],
							"internalType": "struct InfluenceArena.Player",
							"name": "",
							"type": "tuple"
						}
					],
					"stateMutability": "view",
					"type": "function"
				},
				{
					"inputs": [],
					"name": "joinArena",
					"outputs": [],
					"stateMutability": "nonpayable",
					"type": "function"
				},
				{
					"inputs": [
						{
							"internalType": "address",
							"name": "",
							"type": "address"
						}
					],
					"name": "players",
					"outputs": [
						{
							"internalType": "uint256",
							"name": "influence",
							"type": "uint256"
						},
						{
							"internalType": "uint256",
							"name": "reputation",
							"type": "uint256"
						},
						{
							"internalType": "uint256",
							"name": "lockedUntil",
							"type": "uint256"
						}
					],
					"stateMutability": "view",
					"type": "function"
				},
				{
					"inputs": [
						{
							"internalType": "uint256",
							"name": "_id",
							"type": "uint256"
						}
					],
					"name": "resolveChallenge",
					"outputs": [],
					"stateMutability": "nonpayable",
					"type": "function"
				}
			],
			"devdoc": {
				"kind": "dev",
				"methods": {},
				"version": 1
			},
			"evm": {
				"assembly": "    /* \"monad dashboard/InfluenceArena.sol\":338:3086  contract InfluenceArena {... */\n  mstore(0x40, 0x80)\n    /* \"monad dashboard/InfluenceArena.sol\":920:1033  constructor() {... */\n  callvalue\n  dup1\n  iszero\n  tag_1\n  jumpi\n  0x00\n  dup1\n  revert\ntag_1:\n  pop\n    /* \"monad dashboard/InfluenceArena.sol\":967:1025  Player({influence: 100, reputation: 1000, lockedUntil: 0}) */\n  mload(0x40)\n  dup1\n  0x60\n  add\n  0x40\n  mstore\n  dup1\n    /* \"monad dashboard/InfluenceArena.sol\":986:989  100 */\n  0x64\n    /* \"monad dashboard/InfluenceArena.sol\":967:1025  Player({influence: 100, reputation: 1000, lockedUntil: 0}) */\n  dup2\n  mstore\n  0x20\n  add\n    /* \"monad dashboard/InfluenceArena.sol\":1003:1007  1000 */\n  0x03e8\n    /* \"monad dashboard/InfluenceArena.sol\":967:1025  Player({influence: 100, reputation: 1000, lockedUntil: 0}) */\n  dup2\n  mstore\n  0x20\n  add\n    /* \"monad dashboard/InfluenceArena.sol\":1022:1023  0 */\n  0x00\n    /* \"monad dashboard/InfluenceArena.sol\":967:1025  Player({influence: 100, reputation: 1000, lockedUntil: 0}) */\n  dup2\n  mstore\n  pop\n    /* \"monad dashboard/InfluenceArena.sol\":945:952  players */\n  0x00\n    /* \"monad dashboard/InfluenceArena.sol\":945:964  players[msg.sender] */\n  dup1\n    /* \"monad dashboard/InfluenceArena.sol\":953:963  msg.sender */\n  caller\n    /* \"monad dashboard/InfluenceArena.sol\":945:964  players[msg.sender] */\n  0xffffffffffffffffffffffffffffffffffffffff\n  and\n  0xffffffffffffffffffffffffffffffffffffffff\n  and\n  dup2\n  mstore\n  0x20\n  add\n  swap1\n  dup2\n  mstore\n  0x20\n  add\n  0x00\n  keccak256\n    /* \"monad dashboard/InfluenceArena.sol\":945:1025  players[msg.sender] = Player({influence: 100, reputation: 1000, lockedUntil: 0}) */\n  0x00\n  dup3\n  add\n  mload\n  dup2\n  0x00\n  add\n  sstore\n  0x20\n  dup3\n  add\n  mload\n  dup2\n  0x01\n  add\n  sstore\n  0x40\n  dup3\n  add\n  mload\n  dup2\n  0x02\n  add\n  sstore\n  swap1\n  pop\n  pop\n    /* \"monad dashboard/InfluenceArena.sol\":338:3086  contract InfluenceArena {... */\n  dataSize(sub_0)\n  dup1\n  dataOffset(sub_0)\n  0x00\n  codecopy\n  0x00\n  return\nstop\n\nsub_0: assembly {\n        /* \"monad dashboard/InfluenceArena.sol\":338:3086  contract InfluenceArena {... */\n      mstore(0x40, 0x80)\n      callvalue\n      dup1\n      iszero\n      tag_1\n      jumpi\n      0x00\n      dup1\n      revert\n    tag_1:\n      pop\n      jumpi(tag_2, lt(calldatasize, 0x04))\n      shr(0xe0, calldataload(0x00))\n      dup1\n      0x761c7cfe\n      gt\n      tag_10\n      jumpi\n      dup1\n      0x761c7cfe\n      eq\n      tag_6\n      jumpi\n      dup1\n      0x8f1d3776\n      eq\n      tag_7\n      jumpi\n      dup1\n      0x9bf08a06\n      eq\n      tag_8\n      jumpi\n      dup1\n      0xe2eb41ff\n      eq\n      tag_9\n      jumpi\n      jump(tag_2)\n    tag_10:\n      dup1\n      0x18021c62\n      eq\n      tag_3\n      jumpi\n      dup1\n      0x1bdd4b74\n      eq\n      tag_4\n      jumpi\n      dup1\n      0x5c12cd4b\n      eq\n      tag_5\n      jumpi\n    tag_2:\n      0x00\n      dup1\n      revert\n        /* \"monad dashboard/InfluenceArena.sol\":1249:2107  function createChallenge(address _opponent, uint256 _stake) external {... */\n    tag_3:\n      tag_11\n      0x04\n      dup1\n      calldatasize\n      sub\n      dup2\n      add\n      swap1\n      tag_12\n      swap2\n      swap1\n      tag_13\n      jump\t// in\n    tag_12:\n      tag_14\n      jump\t// in\n    tag_11:\n      stop\n        /* \"monad dashboard/InfluenceArena.sol\":2968:3083  function getChallenge(uint256 id) external view returns (Challenge memory) {... */\n    tag_4:\n      tag_15\n      0x04\n      dup1\n      calldatasize\n      sub\n      dup2\n      add\n      swap1\n      tag_16\n      swap2\n      swap1\n      tag_17\n      jump\t// in\n    tag_16:\n      tag_18\n      jump\t// in\n    tag_15:\n      mload(0x40)\n      tag_19\n      swap2\n      swap1\n      tag_20\n      jump\t// in\n    tag_19:\n      mload(0x40)\n      dup1\n      swap2\n      sub\n      swap1\n      return\n        /* \"monad dashboard/InfluenceArena.sol\":2850:2960  function getPlayer(address user) external view returns (Player memory) {... */\n    tag_5:\n      tag_21\n      0x04\n      dup1\n      calldatasize\n      sub\n      dup2\n      add\n      swap1\n      tag_22\n      swap2\n      swap1\n      tag_23\n      jump\t// in\n    tag_22:\n      tag_24\n      jump\t// in\n    tag_21:\n      mload(0x40)\n      tag_25\n      swap2\n      swap1\n      tag_26\n      jump\t// in\n    tag_25:\n      mload(0x40)\n      dup1\n      swap2\n      sub\n      swap1\n      return\n        /* \"monad dashboard/InfluenceArena.sol\":2115:2842  function resolveChallenge(uint256 _id) external {... */\n    tag_6:\n      tag_27\n      0x04\n      dup1\n      calldatasize\n      sub\n      dup2\n      add\n      swap1\n      tag_28\n      swap2\n      swap1\n      tag_17\n      jump\t// in\n    tag_28:\n      tag_29\n      jump\t// in\n    tag_27:\n      stop\n        /* \"monad dashboard/InfluenceArena.sol\":699:728  Challenge[] public challenges */\n    tag_7:\n      tag_30\n      0x04\n      dup1\n      calldatasize\n      sub\n      dup2\n      add\n      swap1\n      tag_31\n      swap2\n      swap1\n      tag_17\n      jump\t// in\n    tag_31:\n      tag_32\n      jump\t// in\n    tag_30:\n      mload(0x40)\n      tag_33\n      swap6\n      swap5\n      swap4\n      swap3\n      swap2\n      swap1\n      tag_34\n      jump\t// in\n    tag_33:\n      mload(0x40)\n      dup1\n      swap2\n      sub\n      swap1\n      return\n        /* \"monad dashboard/InfluenceArena.sol\":1041:1241  function joinArena() external {... */\n    tag_8:\n      tag_35\n      tag_36\n      jump\t// in\n    tag_35:\n      stop\n        /* \"monad dashboard/InfluenceArena.sol\":651:692  mapping(address => Player) public players */\n    tag_9:\n      tag_37\n      0x04\n      dup1\n      calldatasize\n      sub\n      dup2\n      add\n      swap1\n      tag_38\n      swap2\n      swap1\n      tag_23\n      jump\t// in\n    tag_38:\n      tag_39\n      jump\t// in\n    tag_37:\n      mload(0x40)\n      tag_40\n      swap4\n      swap3\n      swap2\n      swap1\n      tag_41\n      jump\t// in\n    tag_40:\n      mload(0x40)\n      dup1\n      swap2\n      sub\n      swap1\n      return\n        /* \"monad dashboard/InfluenceArena.sol\":1249:2107  function createChallenge(address _opponent, uint256 _stake) external {... */\n    tag_14:\n        /* \"monad dashboard/InfluenceArena.sol\":1371:1377  _stake */\n      dup1\n        /* \"monad dashboard/InfluenceArena.sol\":1337:1344  players */\n      0x00\n        /* \"monad dashboard/InfluenceArena.sol\":1337:1356  players[msg.sender] */\n      dup1\n        /* \"monad dashboard/InfluenceArena.sol\":1345:1355  msg.sender */\n      caller\n        /* \"monad dashboard/InfluenceArena.sol\":1337:1356  players[msg.sender] */\n      0xffffffffffffffffffffffffffffffffffffffff\n      and\n      0xffffffffffffffffffffffffffffffffffffffff\n      and\n      dup2\n      mstore\n      0x20\n      add\n      swap1\n      dup2\n      mstore\n      0x20\n      add\n      0x00\n      keccak256\n        /* \"monad dashboard/InfluenceArena.sol\":1337:1367  players[msg.sender].reputation */\n      0x01\n      add\n      sload\n        /* \"monad dashboard/InfluenceArena.sol\":1337:1377  players[msg.sender].reputation >= _stake */\n      lt\n      iszero\n        /* \"monad dashboard/InfluenceArena.sol\":1329:1405  require(players[msg.sender].reputation >= _stake, \"Insufficient reputation\") */\n      tag_43\n      jumpi\n      mload(0x40)\n      0x08c379a000000000000000000000000000000000000000000000000000000000\n      dup2\n      mstore\n      0x04\n      add\n      tag_44\n      swap1\n      tag_45\n      jump\t// in\n    tag_44:\n      mload(0x40)\n      dup1\n      swap2\n      sub\n      swap1\n      revert\n    tag_43:\n        /* \"monad dashboard/InfluenceArena.sol\":1458:1473  block.timestamp */\n      timestamp\n        /* \"monad dashboard/InfluenceArena.sol\":1424:1431  players */\n      0x00\n        /* \"monad dashboard/InfluenceArena.sol\":1424:1443  players[msg.sender] */\n      dup1\n        /* \"monad dashboard/InfluenceArena.sol\":1432:1442  msg.sender */\n      caller\n        /* \"monad dashboard/InfluenceArena.sol\":1424:1443  players[msg.sender] */\n      0xffffffffffffffffffffffffffffffffffffffff\n      and\n      0xffffffffffffffffffffffffffffffffffffffff\n      and\n      dup2\n      mstore\n      0x20\n      add\n      swap1\n      dup2\n      mstore\n      0x20\n      add\n      0x00\n      keccak256\n        /* \"monad dashboard/InfluenceArena.sol\":1424:1455  players[msg.sender].lockedUntil */\n      0x02\n      add\n      sload\n        /* \"monad dashboard/InfluenceArena.sol\":1424:1473  players[msg.sender].lockedUntil < block.timestamp */\n      lt\n        /* \"monad dashboard/InfluenceArena.sol\":1416:1495  require(players[msg.sender].lockedUntil < block.timestamp, \"Challenger locked\") */\n      tag_46\n      jumpi\n      mload(0x40)\n      0x08c379a000000000000000000000000000000000000000000000000000000000\n      dup2\n      mstore\n      0x04\n      add\n      tag_47\n      swap1\n      tag_48\n      jump\t// in\n    tag_47:\n      mload(0x40)\n      dup1\n      swap2\n      sub\n      swap1\n      revert\n    tag_46:\n        /* \"monad dashboard/InfluenceArena.sol\":1547:1562  block.timestamp */\n      timestamp\n        /* \"monad dashboard/InfluenceArena.sol\":1514:1521  players */\n      0x00\n        /* \"monad dashboard/InfluenceArena.sol\":1514:1532  players[_opponent] */\n      dup1\n        /* \"monad dashboard/InfluenceArena.sol\":1522:1531  _opponent */\n      dup5\n        /* \"monad dashboard/InfluenceArena.sol\":1514:1532  players[_opponent] */\n      0xffffffffffffffffffffffffffffffffffffffff\n      and\n      0xffffffffffffffffffffffffffffffffffffffff\n      and\n      dup2\n      mstore\n      0x20\n      add\n      swap1\n      dup2\n      mstore\n      0x20\n      add\n      0x00\n      keccak256\n        /* \"monad dashboard/InfluenceArena.sol\":1514:1544  players[_opponent].lockedUntil */\n      0x02\n      add\n      sload\n        /* \"monad dashboard/InfluenceArena.sol\":1514:1562  players[_opponent].lockedUntil < block.timestamp */\n      lt\n        /* \"monad dashboard/InfluenceArena.sol\":1506:1582  require(players[_opponent].lockedUntil < block.timestamp, \"Opponent locked\") */\n      tag_49\n      jumpi\n      mload(0x40)\n      0x08c379a000000000000000000000000000000000000000000000000000000000\n      dup2\n      mstore\n      0x04\n      add\n      tag_50\n      swap1\n      tag_51\n      jump\t// in\n    tag_50:\n      mload(0x40)\n      dup1\n      swap2\n      sub\n      swap1\n      revert\n    tag_49:\n        /* \"monad dashboard/InfluenceArena.sol\":1614:1624  msg.sender */\n      caller\n        /* \"monad dashboard/InfluenceArena.sol\":1601:1624  _opponent != msg.sender */\n      0xffffffffffffffffffffffffffffffffffffffff\n      and\n        /* \"monad dashboard/InfluenceArena.sol\":1601:1610  _opponent */\n      dup3\n        /* \"monad dashboard/InfluenceArena.sol\":1601:1624  _opponent != msg.sender */\n      0xffffffffffffffffffffffffffffffffffffffff\n      and\n      sub\n        /* \"monad dashboard/InfluenceArena.sol\":1593:1650  require(_opponent != msg.sender, \"Cannot challenge self\") */\n      tag_52\n      jumpi\n      mload(0x40)\n      0x08c379a000000000000000000000000000000000000000000000000000000000\n      dup2\n      mstore\n      0x04\n      add\n      tag_53\n      swap1\n      tag_54\n      jump\t// in\n    tag_53:\n      mload(0x40)\n      dup1\n      swap2\n      sub\n      swap1\n      revert\n    tag_52:\n        /* \"monad dashboard/InfluenceArena.sol\":1715:1721  1 days */\n      0x015180\n        /* \"monad dashboard/InfluenceArena.sol\":1697:1712  block.timestamp */\n      timestamp\n        /* \"monad dashboard/InfluenceArena.sol\":1697:1721  block.timestamp + 1 days */\n      tag_55\n      swap2\n      swap1\n      tag_56\n      jump\t// in\n    tag_55:\n        /* \"monad dashboard/InfluenceArena.sol\":1663:1670  players */\n      0x00\n        /* \"monad dashboard/InfluenceArena.sol\":1663:1682  players[msg.sender] */\n      dup1\n        /* \"monad dashboard/InfluenceArena.sol\":1671:1681  msg.sender */\n      caller\n        /* \"monad dashboard/InfluenceArena.sol\":1663:1682  players[msg.sender] */\n      0xffffffffffffffffffffffffffffffffffffffff\n      and\n      0xffffffffffffffffffffffffffffffffffffffff\n      and\n      dup2\n      mstore\n      0x20\n      add\n      swap1\n      dup2\n      mstore\n      0x20\n      add\n      0x00\n      keccak256\n        /* \"monad dashboard/InfluenceArena.sol\":1663:1694  players[msg.sender].lockedUntil */\n      0x02\n      add\n        /* \"monad dashboard/InfluenceArena.sol\":1663:1721  players[msg.sender].lockedUntil = block.timestamp + 1 days */\n      dup2\n      swap1\n      sstore\n      pop\n        /* \"monad dashboard/InfluenceArena.sol\":1783:1789  1 days */\n      0x015180\n        /* \"monad dashboard/InfluenceArena.sol\":1765:1780  block.timestamp */\n      timestamp\n        /* \"monad dashboard/InfluenceArena.sol\":1765:1789  block.timestamp + 1 days */\n      tag_57\n      swap2\n      swap1\n      tag_56\n      jump\t// in\n    tag_57:\n        /* \"monad dashboard/InfluenceArena.sol\":1732:1739  players */\n      0x00\n        /* \"monad dashboard/InfluenceArena.sol\":1732:1750  players[_opponent] */\n      dup1\n        /* \"monad dashboard/InfluenceArena.sol\":1740:1749  _opponent */\n      dup5\n        /* \"monad dashboard/InfluenceArena.sol\":1732:1750  players[_opponent] */\n      0xffffffffffffffffffffffffffffffffffffffff\n      and\n      0xffffffffffffffffffffffffffffffffffffffff\n      and\n      dup2\n      mstore\n      0x20\n      add\n      swap1\n      dup2\n      mstore\n      0x20\n      add\n      0x00\n      keccak256\n        /* \"monad dashboard/InfluenceArena.sol\":1732:1762  players[_opponent].lockedUntil */\n      0x02\n      add\n        /* \"monad dashboard/InfluenceArena.sol\":1732:1789  players[_opponent].lockedUntil = block.timestamp + 1 days */\n      dup2\n      swap1\n      sstore\n      pop\n        /* \"monad dashboard/InfluenceArena.sol\":1802:1812  challenges */\n      0x01\n        /* \"monad dashboard/InfluenceArena.sol\":1818:2010  Challenge({... */\n      mload(0x40)\n      dup1\n      0xa0\n      add\n      0x40\n      mstore\n      dup1\n        /* \"monad dashboard/InfluenceArena.sol\":1855:1865  msg.sender */\n      caller\n        /* \"monad dashboard/InfluenceArena.sol\":1818:2010  Challenge({... */\n      0xffffffffffffffffffffffffffffffffffffffff\n      and\n      dup2\n      mstore\n      0x20\n      add\n        /* \"monad dashboard/InfluenceArena.sol\":1890:1899  _opponent */\n      dup5\n        /* \"monad dashboard/InfluenceArena.sol\":1818:2010  Challenge({... */\n      0xffffffffffffffffffffffffffffffffffffffff\n      and\n      dup2\n      mstore\n      0x20\n      add\n        /* \"monad dashboard/InfluenceArena.sol\":1921:1927  _stake */\n      dup4\n        /* \"monad dashboard/InfluenceArena.sol\":1818:2010  Challenge({... */\n      dup2\n      mstore\n      0x20\n      add\n        /* \"monad dashboard/InfluenceArena.sol\":1953:1968  block.timestamp */\n      timestamp\n        /* \"monad dashboard/InfluenceArena.sol\":1818:2010  Challenge({... */\n      dup2\n      mstore\n      0x20\n      add\n        /* \"monad dashboard/InfluenceArena.sol\":1993:1998  false */\n      0x00\n        /* \"monad dashboard/InfluenceArena.sol\":1818:2010  Challenge({... */\n      iszero\n      iszero\n      dup2\n      mstore\n      pop\n        /* \"monad dashboard/InfluenceArena.sol\":1802:2011  challenges.push(Challenge({... */\n      swap1\n      dup1\n      0x01\n      dup2\n      sload\n      add\n      dup1\n      dup3\n      sstore\n      dup1\n      swap2\n      pop\n      pop\n      0x01\n      swap1\n      sub\n      swap1\n      0x00\n      mstore\n      keccak256(0x00, 0x20)\n      swap1\n      0x05\n      mul\n      add\n      0x00\n      swap1\n      swap2\n      swap1\n      swap2\n      swap1\n      swap2\n      pop\n      0x00\n      dup3\n      add\n      mload\n      dup2\n      0x00\n      add\n      exp(0x0100, 0x00)\n      dup2\n      sload\n      dup2\n      0xffffffffffffffffffffffffffffffffffffffff\n      mul\n      not\n      and\n      swap1\n      dup4\n      0xffffffffffffffffffffffffffffffffffffffff\n      and\n      mul\n      or\n      swap1\n      sstore\n      pop\n      0x20\n      dup3\n      add\n      mload\n      dup2\n      0x01\n      add\n      exp(0x0100, 0x00)\n      dup2\n      sload\n      dup2\n      0xffffffffffffffffffffffffffffffffffffffff\n      mul\n      not\n      and\n      swap1\n      dup4\n      0xffffffffffffffffffffffffffffffffffffffff\n      and\n      mul\n      or\n      swap1\n      sstore\n      pop\n      0x40\n      dup3\n      add\n      mload\n      dup2\n      0x02\n      add\n      sstore\n      0x60\n      dup3\n      add\n      mload\n      dup2\n      0x03\n      add\n      sstore\n      0x80\n      dup3\n      add\n      mload\n      dup2\n      0x04\n      add\n      exp(0x0100, 0x00)\n      dup2\n      sload\n      dup2\n      0xff\n      mul\n      not\n      and\n      swap1\n      dup4\n      iszero\n      iszero\n      mul\n      or\n      swap1\n      sstore\n      pop\n      pop\n      pop\n        /* \"monad dashboard/InfluenceArena.sol\":2066:2067  1 */\n      0x01\n        /* \"monad dashboard/InfluenceArena.sol\":2046:2056  challenges */\n      dup1\n        /* \"monad dashboard/InfluenceArena.sol\":2046:2063  challenges.length */\n      dup1\n      sload\n      swap1\n      pop\n        /* \"monad dashboard/InfluenceArena.sol\":2046:2067  challenges.length - 1 */\n      tag_59\n      swap2\n      swap1\n      tag_60\n      jump\t// in\n    tag_59:\n        /* \"monad dashboard/InfluenceArena.sol\":2029:2099  ChallengeCreated(challenges.length - 1, msg.sender, _opponent, _stake) */\n      0xd2f7931a802085b3d0234d4c320ce7ee0041da96678ce2bf5c93e8d3d7e65f52\n        /* \"monad dashboard/InfluenceArena.sol\":2069:2079  msg.sender */\n      caller\n        /* \"monad dashboard/InfluenceArena.sol\":2081:2090  _opponent */\n      dup5\n        /* \"monad dashboard/InfluenceArena.sol\":2092:2098  _stake */\n      dup5\n        /* \"monad dashboard/InfluenceArena.sol\":2029:2099  ChallengeCreated(challenges.length - 1, msg.sender, _opponent, _stake) */\n      mload(0x40)\n      tag_61\n      swap4\n      swap3\n      swap2\n      swap1\n      tag_62\n      jump\t// in\n    tag_61:\n      mload(0x40)\n      dup1\n      swap2\n      sub\n      swap1\n      log2\n        /* \"monad dashboard/InfluenceArena.sol\":1249:2107  function createChallenge(address _opponent, uint256 _stake) external {... */\n      pop\n      pop\n      jump\t// out\n        /* \"monad dashboard/InfluenceArena.sol\":2968:3083  function getChallenge(uint256 id) external view returns (Challenge memory) {... */\n    tag_18:\n        /* \"monad dashboard/InfluenceArena.sol\":3025:3041  Challenge memory */\n      tag_63\n      tag_64\n      jump\t// in\n    tag_63:\n        /* \"monad dashboard/InfluenceArena.sol\":3061:3071  challenges */\n      0x01\n        /* \"monad dashboard/InfluenceArena.sol\":3072:3074  id */\n      dup3\n        /* \"monad dashboard/InfluenceArena.sol\":3061:3075  challenges[id] */\n      dup2\n      sload\n      dup2\n      lt\n      tag_66\n      jumpi\n      tag_67\n      tag_68\n      jump\t// in\n    tag_67:\n    tag_66:\n      swap1\n      0x00\n      mstore\n      keccak256(0x00, 0x20)\n      swap1\n      0x05\n      mul\n      add\n        /* \"monad dashboard/InfluenceArena.sol\":3054:3075  return challenges[id] */\n      mload(0x40)\n      dup1\n      0xa0\n      add\n      0x40\n      mstore\n      swap1\n      dup2\n      0x00\n      dup3\n      add\n      0x00\n      swap1\n      sload\n      swap1\n      0x0100\n      exp\n      swap1\n      div\n      0xffffffffffffffffffffffffffffffffffffffff\n      and\n      0xffffffffffffffffffffffffffffffffffffffff\n      and\n      0xffffffffffffffffffffffffffffffffffffffff\n      and\n      dup2\n      mstore\n      0x20\n      add\n      0x01\n      dup3\n      add\n      0x00\n      swap1\n      sload\n      swap1\n      0x0100\n      exp\n      swap1\n      div\n      0xffffffffffffffffffffffffffffffffffffffff\n      and\n      0xffffffffffffffffffffffffffffffffffffffff\n      and\n      0xffffffffffffffffffffffffffffffffffffffff\n      and\n      dup2\n      mstore\n      0x20\n      add\n      0x02\n      dup3\n      add\n      sload\n      dup2\n      mstore\n      0x20\n      add\n      0x03\n      dup3\n      add\n      sload\n      dup2\n      mstore\n      0x20\n      add\n      0x04\n      dup3\n      add\n      0x00\n      swap1\n      sload\n      swap1\n      0x0100\n      exp\n      swap1\n      div\n      0xff\n      and\n      iszero\n      iszero\n      iszero\n      iszero\n      dup2\n      mstore\n      pop\n      pop\n      swap1\n      pop\n        /* \"monad dashboard/InfluenceArena.sol\":2968:3083  function getChallenge(uint256 id) external view returns (Challenge memory) {... */\n      swap2\n      swap1\n      pop\n      jump\t// out\n        /* \"monad dashboard/InfluenceArena.sol\":2850:2960  function getPlayer(address user) external view returns (Player memory) {... */\n    tag_24:\n        /* \"monad dashboard/InfluenceArena.sol\":2906:2919  Player memory */\n      tag_70\n      tag_71\n      jump\t// in\n    tag_70:\n        /* \"monad dashboard/InfluenceArena.sol\":2939:2946  players */\n      0x00\n        /* \"monad dashboard/InfluenceArena.sol\":2939:2952  players[user] */\n      dup1\n        /* \"monad dashboard/InfluenceArena.sol\":2947:2951  user */\n      dup4\n        /* \"monad dashboard/InfluenceArena.sol\":2939:2952  players[user] */\n      0xffffffffffffffffffffffffffffffffffffffff\n      and\n      0xffffffffffffffffffffffffffffffffffffffff\n      and\n      dup2\n      mstore\n      0x20\n      add\n      swap1\n      dup2\n      mstore\n      0x20\n      add\n      0x00\n      keccak256\n        /* \"monad dashboard/InfluenceArena.sol\":2932:2952  return players[user] */\n      mload(0x40)\n      dup1\n      0x60\n      add\n      0x40\n      mstore\n      swap1\n      dup2\n      0x00\n      dup3\n      add\n      sload\n      dup2\n      mstore\n      0x20\n      add\n      0x01\n      dup3\n      add\n      sload\n      dup2\n      mstore\n      0x20\n      add\n      0x02\n      dup3\n      add\n      sload\n      dup2\n      mstore\n      pop\n      pop\n      swap1\n      pop\n        /* \"monad dashboard/InfluenceArena.sol\":2850:2960  function getPlayer(address user) external view returns (Player memory) {... */\n      swap2\n      swap1\n      pop\n      jump\t// out\n        /* \"monad dashboard/InfluenceArena.sol\":2115:2842  function resolveChallenge(uint256 _id) external {... */\n    tag_29:\n        /* \"monad dashboard/InfluenceArena.sol\":2174:2193  Challenge storage c */\n      0x00\n        /* \"monad dashboard/InfluenceArena.sol\":2196:2206  challenges */\n      0x01\n        /* \"monad dashboard/InfluenceArena.sol\":2207:2210  _id */\n      dup3\n        /* \"monad dashboard/InfluenceArena.sol\":2196:2211  challenges[_id] */\n      dup2\n      sload\n      dup2\n      lt\n      tag_74\n      jumpi\n      tag_75\n      tag_68\n      jump\t// in\n    tag_75:\n    tag_74:\n      swap1\n      0x00\n      mstore\n      keccak256(0x00, 0x20)\n      swap1\n      0x05\n      mul\n      add\n        /* \"monad dashboard/InfluenceArena.sol\":2174:2211  Challenge storage c = challenges[_id] */\n      swap1\n      pop\n        /* \"monad dashboard/InfluenceArena.sol\":2231:2232  c */\n      dup1\n        /* \"monad dashboard/InfluenceArena.sol\":2231:2241  c.resolved */\n      0x04\n      add\n      0x00\n      swap1\n      sload\n      swap1\n      0x0100\n      exp\n      swap1\n      div\n      0xff\n      and\n        /* \"monad dashboard/InfluenceArena.sol\":2230:2241  !c.resolved */\n      iszero\n        /* \"monad dashboard/InfluenceArena.sol\":2222:2262  require(!c.resolved, \"Already resolved\") */\n      tag_77\n      jumpi\n      mload(0x40)\n      0x08c379a000000000000000000000000000000000000000000000000000000000\n      dup2\n      mstore\n      0x04\n      add\n      tag_78\n      swap1\n      tag_79\n      jump\t// in\n    tag_78:\n      mload(0x40)\n      dup1\n      swap2\n      sub\n      swap1\n      revert\n    tag_77:\n        /* \"monad dashboard/InfluenceArena.sol\":2314:2320  1 days */\n      0x015180\n        /* \"monad dashboard/InfluenceArena.sol\":2300:2301  c */\n      dup2\n        /* \"monad dashboard/InfluenceArena.sol\":2300:2311  c.createdAt */\n      0x03\n      add\n      sload\n        /* \"monad dashboard/InfluenceArena.sol\":2300:2320  c.createdAt + 1 days */\n      tag_80\n      swap2\n      swap1\n      tag_56\n      jump\t// in\n    tag_80:\n        /* \"monad dashboard/InfluenceArena.sol\":2281:2296  block.timestamp */\n      timestamp\n        /* \"monad dashboard/InfluenceArena.sol\":2281:2320  block.timestamp >= c.createdAt + 1 days */\n      lt\n      iszero\n        /* \"monad dashboard/InfluenceArena.sol\":2273:2345  require(block.timestamp >= c.createdAt + 1 days, \"Too early to resolve\") */\n      tag_81\n      jumpi\n      mload(0x40)\n      0x08c379a000000000000000000000000000000000000000000000000000000000\n      dup2\n      mstore\n      0x04\n      add\n      tag_82\n      swap1\n      tag_83\n      jump\t// in\n    tag_82:\n      mload(0x40)\n      dup1\n      swap2\n      sub\n      swap1\n      revert\n    tag_81:\n        /* \"monad dashboard/InfluenceArena.sol\":2371:2375  true */\n      0x01\n        /* \"monad dashboard/InfluenceArena.sol\":2358:2359  c */\n      dup2\n        /* \"monad dashboard/InfluenceArena.sol\":2358:2368  c.resolved */\n      0x04\n      add\n      0x00\n        /* \"monad dashboard/InfluenceArena.sol\":2358:2375  c.resolved = true */\n      0x0100\n      exp\n      dup2\n      sload\n      dup2\n      0xff\n      mul\n      not\n      and\n      swap1\n      dup4\n      iszero\n      iszero\n      mul\n      or\n      swap1\n      sstore\n      pop\n        /* \"monad dashboard/InfluenceArena.sol\":2386:2405  bool challengerWins */\n      0x00\n        /* \"monad dashboard/InfluenceArena.sol\":2495:2496  0 */\n      dup1\n        /* \"monad dashboard/InfluenceArena.sol\":2490:2491  2 */\n      0x02\n        /* \"monad dashboard/InfluenceArena.sol\":2443:2458  block.timestamp */\n      timestamp\n        /* \"monad dashboard/InfluenceArena.sol\":2460:2461  c */\n      dup5\n        /* \"monad dashboard/InfluenceArena.sol\":2460:2472  c.challenger */\n      0x00\n      add\n      0x00\n      swap1\n      sload\n      swap1\n      0x0100\n      exp\n      swap1\n      div\n      0xffffffffffffffffffffffffffffffffffffffff\n      and\n        /* \"monad dashboard/InfluenceArena.sol\":2474:2475  c */\n      dup6\n        /* \"monad dashboard/InfluenceArena.sol\":2474:2484  c.opponent */\n      0x01\n      add\n      0x00\n      swap1\n      sload\n      swap1\n      0x0100\n      exp\n      swap1\n      div\n      0xffffffffffffffffffffffffffffffffffffffff\n      and\n        /* \"monad dashboard/InfluenceArena.sol\":2426:2485  abi.encodePacked(block.timestamp, c.challenger, c.opponent) */\n      add(0x20, mload(0x40))\n      tag_84\n      swap4\n      swap3\n      swap2\n      swap1\n      tag_85\n      jump\t// in\n    tag_84:\n      mload(0x40)\n      0x20\n      dup2\n      dup4\n      sub\n      sub\n      dup2\n      mstore\n      swap1\n      0x40\n      mstore\n        /* \"monad dashboard/InfluenceArena.sol\":2416:2486  keccak256(abi.encodePacked(block.timestamp, c.challenger, c.opponent)) */\n      dup1\n      mload\n      swap1\n      0x20\n      add\n      keccak256\n        /* \"monad dashboard/InfluenceArena.sol\":2408:2487  uint256(keccak256(abi.encodePacked(block.timestamp, c.challenger, c.opponent))) */\n      0x00\n      shr\n        /* \"monad dashboard/InfluenceArena.sol\":2408:2491  uint256(keccak256(abi.encodePacked(block.timestamp, c.challenger, c.opponent))) % 2 */\n      tag_86\n      swap2\n      swap1\n      tag_87\n      jump\t// in\n    tag_86:\n        /* \"monad dashboard/InfluenceArena.sol\":2408:2496  uint256(keccak256(abi.encodePacked(block.timestamp, c.challenger, c.opponent))) % 2 == 0 */\n      eq\n        /* \"monad dashboard/InfluenceArena.sol\":2386:2496  bool challengerWins = uint256(keccak256(abi.encodePacked(block.timestamp, c.challenger, c.opponent))) % 2 == 0 */\n      swap1\n      pop\n        /* \"monad dashboard/InfluenceArena.sol\":2507:2521  address winner */\n      0x00\n        /* \"monad dashboard/InfluenceArena.sol\":2524:2538  challengerWins */\n      dup2\n        /* \"monad dashboard/InfluenceArena.sol\":2524:2566  challengerWins ? c.challenger : c.opponent */\n      tag_88\n      jumpi\n        /* \"monad dashboard/InfluenceArena.sol\":2556:2557  c */\n      dup3\n        /* \"monad dashboard/InfluenceArena.sol\":2556:2566  c.opponent */\n      0x01\n      add\n      0x00\n      swap1\n      sload\n      swap1\n      0x0100\n      exp\n      swap1\n      div\n      0xffffffffffffffffffffffffffffffffffffffff\n      and\n        /* \"monad dashboard/InfluenceArena.sol\":2524:2566  challengerWins ? c.challenger : c.opponent */\n      jump(tag_89)\n    tag_88:\n        /* \"monad dashboard/InfluenceArena.sol\":2541:2542  c */\n      dup3\n        /* \"monad dashboard/InfluenceArena.sol\":2541:2553  c.challenger */\n      0x00\n      add\n      0x00\n      swap1\n      sload\n      swap1\n      0x0100\n      exp\n      swap1\n      div\n      0xffffffffffffffffffffffffffffffffffffffff\n      and\n        /* \"monad dashboard/InfluenceArena.sol\":2524:2566  challengerWins ? c.challenger : c.opponent */\n    tag_89:\n        /* \"monad dashboard/InfluenceArena.sol\":2507:2566  address winner = challengerWins ? c.challenger : c.opponent */\n      swap1\n      pop\n        /* \"monad dashboard/InfluenceArena.sol\":2577:2590  address loser */\n      0x00\n        /* \"monad dashboard/InfluenceArena.sol\":2593:2607  challengerWins */\n      dup3\n        /* \"monad dashboard/InfluenceArena.sol\":2593:2635  challengerWins ? c.opponent : c.challenger */\n      tag_90\n      jumpi\n        /* \"monad dashboard/InfluenceArena.sol\":2623:2624  c */\n      dup4\n        /* \"monad dashboard/InfluenceArena.sol\":2623:2635  c.challenger */\n      0x00\n      add\n      0x00\n      swap1\n      sload\n      swap1\n      0x0100\n      exp\n      swap1\n      div\n      0xffffffffffffffffffffffffffffffffffffffff\n      and\n        /* \"monad dashboard/InfluenceArena.sol\":2593:2635  challengerWins ? c.opponent : c.challenger */\n      jump(tag_91)\n    tag_90:\n        /* \"monad dashboard/InfluenceArena.sol\":2610:2611  c */\n      dup4\n        /* \"monad dashboard/InfluenceArena.sol\":2610:2620  c.opponent */\n      0x01\n      add\n      0x00\n      swap1\n      sload\n      swap1\n      0x0100\n      exp\n      swap1\n      div\n      0xffffffffffffffffffffffffffffffffffffffff\n      and\n        /* \"monad dashboard/InfluenceArena.sol\":2593:2635  challengerWins ? c.opponent : c.challenger */\n    tag_91:\n        /* \"monad dashboard/InfluenceArena.sol\":2577:2635  address loser = challengerWins ? c.opponent : c.challenger */\n      swap1\n      pop\n        /* \"monad dashboard/InfluenceArena.sol\":2677:2678  c */\n      dup4\n        /* \"monad dashboard/InfluenceArena.sol\":2677:2684  c.stake */\n      0x02\n      add\n      sload\n        /* \"monad dashboard/InfluenceArena.sol\":2648:2655  players */\n      0x00\n        /* \"monad dashboard/InfluenceArena.sol\":2648:2663  players[winner] */\n      dup1\n        /* \"monad dashboard/InfluenceArena.sol\":2656:2662  winner */\n      dup5\n        /* \"monad dashboard/InfluenceArena.sol\":2648:2663  players[winner] */\n      0xffffffffffffffffffffffffffffffffffffffff\n      and\n      0xffffffffffffffffffffffffffffffffffffffff\n      and\n      dup2\n      mstore\n      0x20\n      add\n      swap1\n      dup2\n      mstore\n      0x20\n      add\n      0x00\n      keccak256\n        /* \"monad dashboard/InfluenceArena.sol\":2648:2673  players[winner].influence */\n      0x00\n      add\n      0x00\n        /* \"monad dashboard/InfluenceArena.sol\":2648:2684  players[winner].influence += c.stake */\n      dup3\n      dup3\n      sload\n      tag_92\n      swap2\n      swap1\n      tag_56\n      jump\t// in\n    tag_92:\n      swap3\n      pop\n      pop\n      dup2\n      swap1\n      sstore\n      pop\n        /* \"monad dashboard/InfluenceArena.sol\":2725:2726  c */\n      dup4\n        /* \"monad dashboard/InfluenceArena.sol\":2725:2732  c.stake */\n      0x02\n      add\n      sload\n        /* \"monad dashboard/InfluenceArena.sol\":2695:2702  players */\n      0x00\n        /* \"monad dashboard/InfluenceArena.sol\":2695:2710  players[winner] */\n      dup1\n        /* \"monad dashboard/InfluenceArena.sol\":2703:2709  winner */\n      dup5\n        /* \"monad dashboard/InfluenceArena.sol\":2695:2710  players[winner] */\n      0xffffffffffffffffffffffffffffffffffffffff\n      and\n      0xffffffffffffffffffffffffffffffffffffffff\n      and\n      dup2\n      mstore\n      0x20\n      add\n      swap1\n      dup2\n      mstore\n      0x20\n      add\n      0x00\n      keccak256\n        /* \"monad dashboard/InfluenceArena.sol\":2695:2721  players[winner].reputation */\n      0x01\n      add\n      0x00\n        /* \"monad dashboard/InfluenceArena.sol\":2695:2732  players[winner].reputation += c.stake */\n      dup3\n      dup3\n      sload\n      tag_93\n      swap2\n      swap1\n      tag_56\n      jump\t// in\n    tag_93:\n      swap3\n      pop\n      pop\n      dup2\n      swap1\n      sstore\n      pop\n        /* \"monad dashboard/InfluenceArena.sol\":2772:2773  c */\n      dup4\n        /* \"monad dashboard/InfluenceArena.sol\":2772:2779  c.stake */\n      0x02\n      add\n      sload\n        /* \"monad dashboard/InfluenceArena.sol\":2743:2750  players */\n      0x00\n        /* \"monad dashboard/InfluenceArena.sol\":2743:2757  players[loser] */\n      dup1\n        /* \"monad dashboard/InfluenceArena.sol\":2751:2756  loser */\n      dup4\n        /* \"monad dashboard/InfluenceArena.sol\":2743:2757  players[loser] */\n      0xffffffffffffffffffffffffffffffffffffffff\n      and\n      0xffffffffffffffffffffffffffffffffffffffff\n      and\n      dup2\n      mstore\n      0x20\n      add\n      swap1\n      dup2\n      mstore\n      0x20\n      add\n      0x00\n      keccak256\n        /* \"monad dashboard/InfluenceArena.sol\":2743:2768  players[loser].reputation */\n      0x01\n      add\n      0x00\n        /* \"monad dashboard/InfluenceArena.sol\":2743:2779  players[loser].reputation -= c.stake */\n      dup3\n      dup3\n      sload\n      tag_94\n      swap2\n      swap1\n      tag_60\n      jump\t// in\n    tag_94:\n      swap3\n      pop\n      pop\n      dup2\n      swap1\n      sstore\n      pop\n        /* \"monad dashboard/InfluenceArena.sol\":2815:2818  _id */\n      dup5\n        /* \"monad dashboard/InfluenceArena.sol\":2797:2834  ChallengeResolved(_id, winner, loser) */\n      0xe11c3f7679c53b0ce89bfa093950841f4d153303a63e52914ce24b88f993f72d\n        /* \"monad dashboard/InfluenceArena.sol\":2820:2826  winner */\n      dup4\n        /* \"monad dashboard/InfluenceArena.sol\":2828:2833  loser */\n      dup4\n        /* \"monad dashboard/InfluenceArena.sol\":2797:2834  ChallengeResolved(_id, winner, loser) */\n      mload(0x40)\n      tag_95\n      swap3\n      swap2\n      swap1\n      tag_96\n      jump\t// in\n    tag_95:\n      mload(0x40)\n      dup1\n      swap2\n      sub\n      swap1\n      log2\n        /* \"monad dashboard/InfluenceArena.sol\":2163:2842  {... */\n      pop\n      pop\n      pop\n      pop\n        /* \"monad dashboard/InfluenceArena.sol\":2115:2842  function resolveChallenge(uint256 _id) external {... */\n      pop\n      jump\t// out\n        /* \"monad dashboard/InfluenceArena.sol\":699:728  Challenge[] public challenges */\n    tag_32:\n      0x01\n      dup2\n      dup2\n      sload\n      dup2\n      lt\n      tag_97\n      jumpi\n      0x00\n      dup1\n      revert\n    tag_97:\n      swap1\n      0x00\n      mstore\n      keccak256(0x00, 0x20)\n      swap1\n      0x05\n      mul\n      add\n      0x00\n      swap2\n      pop\n      swap1\n      pop\n      dup1\n      0x00\n      add\n      0x00\n      swap1\n      sload\n      swap1\n      0x0100\n      exp\n      swap1\n      div\n      0xffffffffffffffffffffffffffffffffffffffff\n      and\n      swap1\n      dup1\n      0x01\n      add\n      0x00\n      swap1\n      sload\n      swap1\n      0x0100\n      exp\n      swap1\n      div\n      0xffffffffffffffffffffffffffffffffffffffff\n      and\n      swap1\n      dup1\n      0x02\n      add\n      sload\n      swap1\n      dup1\n      0x03\n      add\n      sload\n      swap1\n      dup1\n      0x04\n      add\n      0x00\n      swap1\n      sload\n      swap1\n      0x0100\n      exp\n      swap1\n      div\n      0xff\n      and\n      swap1\n      pop\n      dup6\n      jump\t// out\n        /* \"monad dashboard/InfluenceArena.sol\":1041:1241  function joinArena() external {... */\n    tag_36:\n        /* \"monad dashboard/InfluenceArena.sol\":1124:1125  0 */\n      0x00\n        /* \"monad dashboard/InfluenceArena.sol\":1090:1097  players */\n      dup1\n        /* \"monad dashboard/InfluenceArena.sol\":1090:1109  players[msg.sender] */\n      0x00\n        /* \"monad dashboard/InfluenceArena.sol\":1098:1108  msg.sender */\n      caller\n        /* \"monad dashboard/InfluenceArena.sol\":1090:1109  players[msg.sender] */\n      0xffffffffffffffffffffffffffffffffffffffff\n      and\n      0xffffffffffffffffffffffffffffffffffffffff\n      and\n      dup2\n      mstore\n      0x20\n      add\n      swap1\n      dup2\n      mstore\n      0x20\n      add\n      0x00\n      keccak256\n        /* \"monad dashboard/InfluenceArena.sol\":1090:1120  players[msg.sender].reputation */\n      0x01\n      add\n      sload\n        /* \"monad dashboard/InfluenceArena.sol\":1090:1125  players[msg.sender].reputation == 0 */\n      eq\n        /* \"monad dashboard/InfluenceArena.sol\":1082:1144  require(players[msg.sender].reputation == 0, \"Already joined\") */\n      tag_100\n      jumpi\n      mload(0x40)\n      0x08c379a000000000000000000000000000000000000000000000000000000000\n      dup2\n      mstore\n      0x04\n      add\n      tag_101\n      swap1\n      tag_102\n      jump\t// in\n    tag_101:\n      mload(0x40)\n      dup1\n      swap2\n      sub\n      swap1\n      revert\n    tag_100:\n        /* \"monad dashboard/InfluenceArena.sol\":1177:1233  Player({influence: 10, reputation: 100, lockedUntil: 0}) */\n      mload(0x40)\n      dup1\n      0x60\n      add\n      0x40\n      mstore\n      dup1\n        /* \"monad dashboard/InfluenceArena.sol\":1196:1198  10 */\n      0x0a\n        /* \"monad dashboard/InfluenceArena.sol\":1177:1233  Player({influence: 10, reputation: 100, lockedUntil: 0}) */\n      dup2\n      mstore\n      0x20\n      add\n        /* \"monad dashboard/InfluenceArena.sol\":1212:1215  100 */\n      0x64\n        /* \"monad dashboard/InfluenceArena.sol\":1177:1233  Player({influence: 10, reputation: 100, lockedUntil: 0}) */\n      dup2\n      mstore\n      0x20\n      add\n        /* \"monad dashboard/InfluenceArena.sol\":1230:1231  0 */\n      0x00\n        /* \"monad dashboard/InfluenceArena.sol\":1177:1233  Player({influence: 10, reputation: 100, lockedUntil: 0}) */\n      dup2\n      mstore\n      pop\n        /* \"monad dashboard/InfluenceArena.sol\":1155:1162  players */\n      0x00\n        /* \"monad dashboard/InfluenceArena.sol\":1155:1174  players[msg.sender] */\n      dup1\n        /* \"monad dashboard/InfluenceArena.sol\":1163:1173  msg.sender */\n      caller\n        /* \"monad dashboard/InfluenceArena.sol\":1155:1174  players[msg.sender] */\n      0xffffffffffffffffffffffffffffffffffffffff\n      and\n      0xffffffffffffffffffffffffffffffffffffffff\n      and\n      dup2\n      mstore\n      0x20\n      add\n      swap1\n      dup2\n      mstore\n      0x20\n      add\n      0x00\n      keccak256\n        /* \"monad dashboard/InfluenceArena.sol\":1155:1233  players[msg.sender] = Player({influence: 10, reputation: 100, lockedUntil: 0}) */\n      0x00\n      dup3\n      add\n      mload\n      dup2\n      0x00\n      add\n      sstore\n      0x20\n      dup3\n      add\n      mload\n      dup2\n      0x01\n      add\n      sstore\n      0x40\n      dup3\n      add\n      mload\n      dup2\n      0x02\n      add\n      sstore\n      swap1\n      pop\n      pop\n        /* \"monad dashboard/InfluenceArena.sol\":1041:1241  function joinArena() external {... */\n      jump\t// out\n        /* \"monad dashboard/InfluenceArena.sol\":651:692  mapping(address => Player) public players */\n    tag_39:\n      mstore(0x20, 0x00)\n      dup1\n      0x00\n      mstore\n      keccak256(0x00, 0x40)\n      0x00\n      swap2\n      pop\n      swap1\n      pop\n      dup1\n      0x00\n      add\n      sload\n      swap1\n      dup1\n      0x01\n      add\n      sload\n      swap1\n      dup1\n      0x02\n      add\n      sload\n      swap1\n      pop\n      dup4\n      jump\t// out\n    tag_64:\n      mload(0x40)\n      dup1\n      0xa0\n      add\n      0x40\n      mstore\n      dup1\n      and(0xffffffffffffffffffffffffffffffffffffffff, 0x00)\n      dup2\n      mstore\n      0x20\n      add\n      and(0xffffffffffffffffffffffffffffffffffffffff, 0x00)\n      dup2\n      mstore\n      0x20\n      add\n      0x00\n      dup2\n      mstore\n      0x20\n      add\n      0x00\n      dup2\n      mstore\n      0x20\n      add\n      iszero(iszero(0x00))\n      dup2\n      mstore\n      pop\n      swap1\n      jump\t// out\n    tag_71:\n      mload(0x40)\n      dup1\n      0x60\n      add\n      0x40\n      mstore\n      dup1\n      0x00\n      dup2\n      mstore\n      0x20\n      add\n      0x00\n      dup2\n      mstore\n      0x20\n      add\n      0x00\n      dup2\n      mstore\n      pop\n      swap1\n      jump\t// out\n        /* \"#utility.yul\":88:205   */\n    tag_104:\n        /* \"#utility.yul\":197:198   */\n      0x00\n        /* \"#utility.yul\":194:195   */\n      dup1\n        /* \"#utility.yul\":187:199   */\n      revert\n        /* \"#utility.yul\":334:460   */\n    tag_106:\n        /* \"#utility.yul\":371:378   */\n      0x00\n        /* \"#utility.yul\":411:453   */\n      0xffffffffffffffffffffffffffffffffffffffff\n        /* \"#utility.yul\":404:409   */\n      dup3\n        /* \"#utility.yul\":400:454   */\n      and\n        /* \"#utility.yul\":389:454   */\n      swap1\n      pop\n        /* \"#utility.yul\":334:460   */\n      swap2\n      swap1\n      pop\n      jump\t// out\n        /* \"#utility.yul\":466:562   */\n    tag_107:\n        /* \"#utility.yul\":503:510   */\n      0x00\n        /* \"#utility.yul\":532:556   */\n      tag_151\n        /* \"#utility.yul\":550:555   */\n      dup3\n        /* \"#utility.yul\":532:556   */\n      tag_106\n      jump\t// in\n    tag_151:\n        /* \"#utility.yul\":521:556   */\n      swap1\n      pop\n        /* \"#utility.yul\":466:562   */\n      swap2\n      swap1\n      pop\n      jump\t// out\n        /* \"#utility.yul\":568:690   */\n    tag_108:\n        /* \"#utility.yul\":641:665   */\n      tag_153\n        /* \"#utility.yul\":659:664   */\n      dup2\n        /* \"#utility.yul\":641:665   */\n      tag_107\n      jump\t// in\n    tag_153:\n        /* \"#utility.yul\":634:639   */\n      dup2\n        /* \"#utility.yul\":631:666   */\n      eq\n        /* \"#utility.yul\":621:684   */\n      tag_154\n      jumpi\n        /* \"#utility.yul\":680:681   */\n      0x00\n        /* \"#utility.yul\":677:678   */\n      dup1\n        /* \"#utility.yul\":670:682   */\n      revert\n        /* \"#utility.yul\":621:684   */\n    tag_154:\n        /* \"#utility.yul\":568:690   */\n      pop\n      jump\t// out\n        /* \"#utility.yul\":696:835   */\n    tag_109:\n        /* \"#utility.yul\":742:747   */\n      0x00\n        /* \"#utility.yul\":780:786   */\n      dup2\n        /* \"#utility.yul\":767:787   */\n      calldataload\n        /* \"#utility.yul\":758:787   */\n      swap1\n      pop\n        /* \"#utility.yul\":796:829   */\n      tag_156\n        /* \"#utility.yul\":823:828   */\n      dup2\n        /* \"#utility.yul\":796:829   */\n      tag_108\n      jump\t// in\n    tag_156:\n        /* \"#utility.yul\":696:835   */\n      swap3\n      swap2\n      pop\n      pop\n      jump\t// out\n        /* \"#utility.yul\":841:918   */\n    tag_110:\n        /* \"#utility.yul\":878:885   */\n      0x00\n        /* \"#utility.yul\":907:912   */\n      dup2\n        /* \"#utility.yul\":896:912   */\n      swap1\n      pop\n        /* \"#utility.yul\":841:918   */\n      swap2\n      swap1\n      pop\n      jump\t// out\n        /* \"#utility.yul\":924:1046   */\n    tag_111:\n        /* \"#utility.yul\":997:1021   */\n      tag_159\n        /* \"#utility.yul\":1015:1020   */\n      dup2\n        /* \"#utility.yul\":997:1021   */\n      tag_110\n      jump\t// in\n    tag_159:\n        /* \"#utility.yul\":990:995   */\n      dup2\n        /* \"#utility.yul\":987:1022   */\n      eq\n        /* \"#utility.yul\":977:1040   */\n      tag_160\n      jumpi\n        /* \"#utility.yul\":1036:1037   */\n      0x00\n        /* \"#utility.yul\":1033:1034   */\n      dup1\n        /* \"#utility.yul\":1026:1038   */\n      revert\n        /* \"#utility.yul\":977:1040   */\n    tag_160:\n        /* \"#utility.yul\":924:1046   */\n      pop\n      jump\t// out\n        /* \"#utility.yul\":1052:1191   */\n    tag_112:\n        /* \"#utility.yul\":1098:1103   */\n      0x00\n        /* \"#utility.yul\":1136:1142   */\n      dup2\n        /* \"#utility.yul\":1123:1143   */\n      calldataload\n        /* \"#utility.yul\":1114:1143   */\n      swap1\n      pop\n        /* \"#utility.yul\":1152:1185   */\n      tag_162\n        /* \"#utility.yul\":1179:1184   */\n      dup2\n        /* \"#utility.yul\":1152:1185   */\n      tag_111\n      jump\t// in\n    tag_162:\n        /* \"#utility.yul\":1052:1191   */\n      swap3\n      swap2\n      pop\n      pop\n      jump\t// out\n        /* \"#utility.yul\":1197:1671   */\n    tag_13:\n        /* \"#utility.yul\":1265:1271   */\n      0x00\n        /* \"#utility.yul\":1273:1279   */\n      dup1\n        /* \"#utility.yul\":1322:1324   */\n      0x40\n        /* \"#utility.yul\":1310:1319   */\n      dup4\n        /* \"#utility.yul\":1301:1308   */\n      dup6\n        /* \"#utility.yul\":1297:1320   */\n      sub\n        /* \"#utility.yul\":1293:1325   */\n      slt\n        /* \"#utility.yul\":1290:1409   */\n      iszero\n      tag_164\n      jumpi\n        /* \"#utility.yul\":1328:1407   */\n      tag_165\n      tag_104\n      jump\t// in\n    tag_165:\n        /* \"#utility.yul\":1290:1409   */\n    tag_164:\n        /* \"#utility.yul\":1448:1449   */\n      0x00\n        /* \"#utility.yul\":1473:1526   */\n      tag_166\n        /* \"#utility.yul\":1518:1525   */\n      dup6\n        /* \"#utility.yul\":1509:1515   */\n      dup3\n        /* \"#utility.yul\":1498:1507   */\n      dup7\n        /* \"#utility.yul\":1494:1516   */\n      add\n        /* \"#utility.yul\":1473:1526   */\n      tag_109\n      jump\t// in\n    tag_166:\n        /* \"#utility.yul\":1463:1526   */\n      swap3\n      pop\n        /* \"#utility.yul\":1419:1536   */\n      pop\n        /* \"#utility.yul\":1575:1577   */\n      0x20\n        /* \"#utility.yul\":1601:1654   */\n      tag_167\n        /* \"#utility.yul\":1646:1653   */\n      dup6\n        /* \"#utility.yul\":1637:1643   */\n      dup3\n        /* \"#utility.yul\":1626:1635   */\n      dup7\n        /* \"#utility.yul\":1622:1644   */\n      add\n        /* \"#utility.yul\":1601:1654   */\n      tag_112\n      jump\t// in\n    tag_167:\n        /* \"#utility.yul\":1591:1654   */\n      swap2\n      pop\n        /* \"#utility.yul\":1546:1664   */\n      pop\n        /* \"#utility.yul\":1197:1671   */\n      swap3\n      pop\n      swap3\n      swap1\n      pop\n      jump\t// out\n        /* \"#utility.yul\":1677:2006   */\n    tag_17:\n        /* \"#utility.yul\":1736:1742   */\n      0x00\n        /* \"#utility.yul\":1785:1787   */\n      0x20\n        /* \"#utility.yul\":1773:1782   */\n      dup3\n        /* \"#utility.yul\":1764:1771   */\n      dup5\n        /* \"#utility.yul\":1760:1783   */\n      sub\n        /* \"#utility.yul\":1756:1788   */\n      slt\n        /* \"#utility.yul\":1753:1872   */\n      iszero\n      tag_169\n      jumpi\n        /* \"#utility.yul\":1791:1870   */\n      tag_170\n      tag_104\n      jump\t// in\n    tag_170:\n        /* \"#utility.yul\":1753:1872   */\n    tag_169:\n        /* \"#utility.yul\":1911:1912   */\n      0x00\n        /* \"#utility.yul\":1936:1989   */\n      tag_171\n        /* \"#utility.yul\":1981:1988   */\n      dup5\n        /* \"#utility.yul\":1972:1978   */\n      dup3\n        /* \"#utility.yul\":1961:1970   */\n      dup6\n        /* \"#utility.yul\":1957:1979   */\n      add\n        /* \"#utility.yul\":1936:1989   */\n      tag_112\n      jump\t// in\n    tag_171:\n        /* \"#utility.yul\":1926:1989   */\n      swap2\n      pop\n        /* \"#utility.yul\":1882:1999   */\n      pop\n        /* \"#utility.yul\":1677:2006   */\n      swap3\n      swap2\n      pop\n      pop\n      jump\t// out\n        /* \"#utility.yul\":2012:2120   */\n    tag_113:\n        /* \"#utility.yul\":2089:2113   */\n      tag_173\n        /* \"#utility.yul\":2107:2112   */\n      dup2\n        /* \"#utility.yul\":2089:2113   */\n      tag_107\n      jump\t// in\n    tag_173:\n        /* \"#utility.yul\":2084:2087   */\n      dup3\n        /* \"#utility.yul\":2077:2114   */\n      mstore\n        /* \"#utility.yul\":2012:2120   */\n      pop\n      pop\n      jump\t// out\n        /* \"#utility.yul\":2126:2234   */\n    tag_114:\n        /* \"#utility.yul\":2203:2227   */\n      tag_175\n        /* \"#utility.yul\":2221:2226   */\n      dup2\n        /* \"#utility.yul\":2203:2227   */\n      tag_110\n      jump\t// in\n    tag_175:\n        /* \"#utility.yul\":2198:2201   */\n      dup3\n        /* \"#utility.yul\":2191:2228   */\n      mstore\n        /* \"#utility.yul\":2126:2234   */\n      pop\n      pop\n      jump\t// out\n        /* \"#utility.yul\":2240:2330   */\n    tag_115:\n        /* \"#utility.yul\":2274:2281   */\n      0x00\n        /* \"#utility.yul\":2317:2322   */\n      dup2\n        /* \"#utility.yul\":2310:2323   */\n      iszero\n        /* \"#utility.yul\":2303:2324   */\n      iszero\n        /* \"#utility.yul\":2292:2324   */\n      swap1\n      pop\n        /* \"#utility.yul\":2240:2330   */\n      swap2\n      swap1\n      pop\n      jump\t// out\n        /* \"#utility.yul\":2336:2435   */\n    tag_116:\n        /* \"#utility.yul\":2407:2428   */\n      tag_178\n        /* \"#utility.yul\":2422:2427   */\n      dup2\n        /* \"#utility.yul\":2407:2428   */\n      tag_115\n      jump\t// in\n    tag_178:\n        /* \"#utility.yul\":2402:2405   */\n      dup3\n        /* \"#utility.yul\":2395:2429   */\n      mstore\n        /* \"#utility.yul\":2336:2435   */\n      pop\n      pop\n      jump\t// out\n        /* \"#utility.yul\":2515:3558   */\n    tag_117:\n        /* \"#utility.yul\":2662:2666   */\n      0xa0\n        /* \"#utility.yul\":2657:2660   */\n      dup3\n        /* \"#utility.yul\":2653:2667   */\n      add\n        /* \"#utility.yul\":2755:2759   */\n      0x00\n        /* \"#utility.yul\":2748:2753   */\n      dup3\n        /* \"#utility.yul\":2744:2760   */\n      add\n        /* \"#utility.yul\":2738:2761   */\n      mload\n        /* \"#utility.yul\":2774:2837   */\n      tag_180\n        /* \"#utility.yul\":2831:2835   */\n      0x00\n        /* \"#utility.yul\":2826:2829   */\n      dup6\n        /* \"#utility.yul\":2822:2836   */\n      add\n        /* \"#utility.yul\":2808:2820   */\n      dup3\n        /* \"#utility.yul\":2774:2837   */\n      tag_113\n      jump\t// in\n    tag_180:\n        /* \"#utility.yul\":2677:2847   */\n      pop\n        /* \"#utility.yul\":2933:2937   */\n      0x20\n        /* \"#utility.yul\":2926:2931   */\n      dup3\n        /* \"#utility.yul\":2922:2938   */\n      add\n        /* \"#utility.yul\":2916:2939   */\n      mload\n        /* \"#utility.yul\":2952:3015   */\n      tag_181\n        /* \"#utility.yul\":3009:3013   */\n      0x20\n        /* \"#utility.yul\":3004:3007   */\n      dup6\n        /* \"#utility.yul\":3000:3014   */\n      add\n        /* \"#utility.yul\":2986:2998   */\n      dup3\n        /* \"#utility.yul\":2952:3015   */\n      tag_113\n      jump\t// in\n    tag_181:\n        /* \"#utility.yul\":2857:3025   */\n      pop\n        /* \"#utility.yul\":3108:3112   */\n      0x40\n        /* \"#utility.yul\":3101:3106   */\n      dup3\n        /* \"#utility.yul\":3097:3113   */\n      add\n        /* \"#utility.yul\":3091:3114   */\n      mload\n        /* \"#utility.yul\":3127:3190   */\n      tag_182\n        /* \"#utility.yul\":3184:3188   */\n      0x40\n        /* \"#utility.yul\":3179:3182   */\n      dup6\n        /* \"#utility.yul\":3175:3189   */\n      add\n        /* \"#utility.yul\":3161:3173   */\n      dup3\n        /* \"#utility.yul\":3127:3190   */\n      tag_114\n      jump\t// in\n    tag_182:\n        /* \"#utility.yul\":3035:3200   */\n      pop\n        /* \"#utility.yul\":3287:3291   */\n      0x60\n        /* \"#utility.yul\":3280:3285   */\n      dup3\n        /* \"#utility.yul\":3276:3292   */\n      add\n        /* \"#utility.yul\":3270:3293   */\n      mload\n        /* \"#utility.yul\":3306:3369   */\n      tag_183\n        /* \"#utility.yul\":3363:3367   */\n      0x60\n        /* \"#utility.yul\":3358:3361   */\n      dup6\n        /* \"#utility.yul\":3354:3368   */\n      add\n        /* \"#utility.yul\":3340:3352   */\n      dup3\n        /* \"#utility.yul\":3306:3369   */\n      tag_114\n      jump\t// in\n    tag_183:\n        /* \"#utility.yul\":3210:3379   */\n      pop\n        /* \"#utility.yul\":3465:3469   */\n      0x80\n        /* \"#utility.yul\":3458:3463   */\n      dup3\n        /* \"#utility.yul\":3454:3470   */\n      add\n        /* \"#utility.yul\":3448:3471   */\n      mload\n        /* \"#utility.yul\":3484:3541   */\n      tag_184\n        /* \"#utility.yul\":3535:3539   */\n      0x80\n        /* \"#utility.yul\":3530:3533   */\n      dup6\n        /* \"#utility.yul\":3526:3540   */\n      add\n        /* \"#utility.yul\":3512:3524   */\n      dup3\n        /* \"#utility.yul\":3484:3541   */\n      tag_116\n      jump\t// in\n    tag_184:\n        /* \"#utility.yul\":3389:3551   */\n      pop\n        /* \"#utility.yul\":2631:3558   */\n      pop\n        /* \"#utility.yul\":2515:3558   */\n      pop\n      pop\n      jump\t// out\n        /* \"#utility.yul\":3564:3887   */\n    tag_20:\n        /* \"#utility.yul\":3707:3711   */\n      0x00\n        /* \"#utility.yul\":3745:3748   */\n      0xa0\n        /* \"#utility.yul\":3734:3743   */\n      dup3\n        /* \"#utility.yul\":3730:3749   */\n      add\n        /* \"#utility.yul\":3722:3749   */\n      swap1\n      pop\n        /* \"#utility.yul\":3759:3880   */\n      tag_186\n        /* \"#utility.yul\":3877:3878   */\n      0x00\n        /* \"#utility.yul\":3866:3875   */\n      dup4\n        /* \"#utility.yul\":3862:3879   */\n      add\n        /* \"#utility.yul\":3853:3859   */\n      dup5\n        /* \"#utility.yul\":3759:3880   */\n      tag_117\n      jump\t// in\n    tag_186:\n        /* \"#utility.yul\":3564:3887   */\n      swap3\n      swap2\n      pop\n      pop\n      jump\t// out\n        /* \"#utility.yul\":3893:4222   */\n    tag_23:\n        /* \"#utility.yul\":3952:3958   */\n      0x00\n        /* \"#utility.yul\":4001:4003   */\n      0x20\n        /* \"#utility.yul\":3989:3998   */\n      dup3\n        /* \"#utility.yul\":3980:3987   */\n      dup5\n        /* \"#utility.yul\":3976:3999   */\n      sub\n        /* \"#utility.yul\":3972:4004   */\n      slt\n        /* \"#utility.yul\":3969:4088   */\n      iszero\n      tag_188\n      jumpi\n        /* \"#utility.yul\":4007:4086   */\n      tag_189\n      tag_104\n      jump\t// in\n    tag_189:\n        /* \"#utility.yul\":3969:4088   */\n    tag_188:\n        /* \"#utility.yul\":4127:4128   */\n      0x00\n        /* \"#utility.yul\":4152:4205   */\n      tag_190\n        /* \"#utility.yul\":4197:4204   */\n      dup5\n        /* \"#utility.yul\":4188:4194   */\n      dup3\n        /* \"#utility.yul\":4177:4186   */\n      dup6\n        /* \"#utility.yul\":4173:4195   */\n      add\n        /* \"#utility.yul\":4152:4205   */\n      tag_109\n      jump\t// in\n    tag_190:\n        /* \"#utility.yul\":4142:4205   */\n      swap2\n      pop\n        /* \"#utility.yul\":4098:4215   */\n      pop\n        /* \"#utility.yul\":3893:4222   */\n      swap3\n      swap2\n      pop\n      pop\n      jump\t// out\n        /* \"#utility.yul\":4296:4987   */\n    tag_118:\n        /* \"#utility.yul\":4435:4439   */\n      0x60\n        /* \"#utility.yul\":4430:4433   */\n      dup3\n        /* \"#utility.yul\":4426:4440   */\n      add\n        /* \"#utility.yul\":4527:4531   */\n      0x00\n        /* \"#utility.yul\":4520:4525   */\n      dup3\n        /* \"#utility.yul\":4516:4532   */\n      add\n        /* \"#utility.yul\":4510:4533   */\n      mload\n        /* \"#utility.yul\":4546:4609   */\n      tag_192\n        /* \"#utility.yul\":4603:4607   */\n      0x00\n        /* \"#utility.yul\":4598:4601   */\n      dup6\n        /* \"#utility.yul\":4594:4608   */\n      add\n        /* \"#utility.yul\":4580:4592   */\n      dup3\n        /* \"#utility.yul\":4546:4609   */\n      tag_114\n      jump\t// in\n    tag_192:\n        /* \"#utility.yul\":4450:4619   */\n      pop\n        /* \"#utility.yul\":4707:4711   */\n      0x20\n        /* \"#utility.yul\":4700:4705   */\n      dup3\n        /* \"#utility.yul\":4696:4712   */\n      add\n        /* \"#utility.yul\":4690:4713   */\n      mload\n        /* \"#utility.yul\":4726:4789   */\n      tag_193\n        /* \"#utility.yul\":4783:4787   */\n      0x20\n        /* \"#utility.yul\":4778:4781   */\n      dup6\n        /* \"#utility.yul\":4774:4788   */\n      add\n        /* \"#utility.yul\":4760:4772   */\n      dup3\n        /* \"#utility.yul\":4726:4789   */\n      tag_114\n      jump\t// in\n    tag_193:\n        /* \"#utility.yul\":4629:4799   */\n      pop\n        /* \"#utility.yul\":4888:4892   */\n      0x40\n        /* \"#utility.yul\":4881:4886   */\n      dup3\n        /* \"#utility.yul\":4877:4893   */\n      add\n        /* \"#utility.yul\":4871:4894   */\n      mload\n        /* \"#utility.yul\":4907:4970   */\n      tag_194\n        /* \"#utility.yul\":4964:4968   */\n      0x40\n        /* \"#utility.yul\":4959:4962   */\n      dup6\n        /* \"#utility.yul\":4955:4969   */\n      add\n        /* \"#utility.yul\":4941:4953   */\n      dup3\n        /* \"#utility.yul\":4907:4970   */\n      tag_114\n      jump\t// in\n    tag_194:\n        /* \"#utility.yul\":4809:4980   */\n      pop\n        /* \"#utility.yul\":4404:4987   */\n      pop\n        /* \"#utility.yul\":4296:4987   */\n      pop\n      pop\n      jump\t// out\n        /* \"#utility.yul\":4993:5299   */\n    tag_26:\n        /* \"#utility.yul\":5128:5132   */\n      0x00\n        /* \"#utility.yul\":5166:5168   */\n      0x60\n        /* \"#utility.yul\":5155:5164   */\n      dup3\n        /* \"#utility.yul\":5151:5169   */\n      add\n        /* \"#utility.yul\":5143:5169   */\n      swap1\n      pop\n        /* \"#utility.yul\":5179:5292   */\n      tag_196\n        /* \"#utility.yul\":5289:5290   */\n      0x00\n        /* \"#utility.yul\":5278:5287   */\n      dup4\n        /* \"#utility.yul\":5274:5291   */\n      add\n        /* \"#utility.yul\":5265:5271   */\n      dup5\n        /* \"#utility.yul\":5179:5292   */\n      tag_118\n      jump\t// in\n    tag_196:\n        /* \"#utility.yul\":4993:5299   */\n      swap3\n      swap2\n      pop\n      pop\n      jump\t// out\n        /* \"#utility.yul\":5305:5423   */\n    tag_119:\n        /* \"#utility.yul\":5392:5416   */\n      tag_198\n        /* \"#utility.yul\":5410:5415   */\n      dup2\n        /* \"#utility.yul\":5392:5416   */\n      tag_107\n      jump\t// in\n    tag_198:\n        /* \"#utility.yul\":5387:5390   */\n      dup3\n        /* \"#utility.yul\":5380:5417   */\n      mstore\n        /* \"#utility.yul\":5305:5423   */\n      pop\n      pop\n      jump\t// out\n        /* \"#utility.yul\":5429:5547   */\n    tag_120:\n        /* \"#utility.yul\":5516:5540   */\n      tag_200\n        /* \"#utility.yul\":5534:5539   */\n      dup2\n        /* \"#utility.yul\":5516:5540   */\n      tag_110\n      jump\t// in\n    tag_200:\n        /* \"#utility.yul\":5511:5514   */\n      dup3\n        /* \"#utility.yul\":5504:5541   */\n      mstore\n        /* \"#utility.yul\":5429:5547   */\n      pop\n      pop\n      jump\t// out\n        /* \"#utility.yul\":5553:5662   */\n    tag_121:\n        /* \"#utility.yul\":5634:5655   */\n      tag_202\n        /* \"#utility.yul\":5649:5654   */\n      dup2\n        /* \"#utility.yul\":5634:5655   */\n      tag_115\n      jump\t// in\n    tag_202:\n        /* \"#utility.yul\":5629:5632   */\n      dup3\n        /* \"#utility.yul\":5622:5656   */\n      mstore\n        /* \"#utility.yul\":5553:5662   */\n      pop\n      pop\n      jump\t// out\n        /* \"#utility.yul\":5668:6320   */\n    tag_34:\n        /* \"#utility.yul\":5867:5871   */\n      0x00\n        /* \"#utility.yul\":5905:5908   */\n      0xa0\n        /* \"#utility.yul\":5894:5903   */\n      dup3\n        /* \"#utility.yul\":5890:5909   */\n      add\n        /* \"#utility.yul\":5882:5909   */\n      swap1\n      pop\n        /* \"#utility.yul\":5919:5990   */\n      tag_204\n        /* \"#utility.yul\":5987:5988   */\n      0x00\n        /* \"#utility.yul\":5976:5985   */\n      dup4\n        /* \"#utility.yul\":5972:5989   */\n      add\n        /* \"#utility.yul\":5963:5969   */\n      dup9\n        /* \"#utility.yul\":5919:5990   */\n      tag_119\n      jump\t// in\n    tag_204:\n        /* \"#utility.yul\":6000:6072   */\n      tag_205\n        /* \"#utility.yul\":6068:6070   */\n      0x20\n        /* \"#utility.yul\":6057:6066   */\n      dup4\n        /* \"#utility.yul\":6053:6071   */\n      add\n        /* \"#utility.yul\":6044:6050   */\n      dup8\n        /* \"#utility.yul\":6000:6072   */\n      tag_119\n      jump\t// in\n    tag_205:\n        /* \"#utility.yul\":6082:6154   */\n      tag_206\n        /* \"#utility.yul\":6150:6152   */\n      0x40\n        /* \"#utility.yul\":6139:6148   */\n      dup4\n        /* \"#utility.yul\":6135:6153   */\n      add\n        /* \"#utility.yul\":6126:6132   */\n      dup7\n        /* \"#utility.yul\":6082:6154   */\n      tag_120\n      jump\t// in\n    tag_206:\n        /* \"#utility.yul\":6164:6236   */\n      tag_207\n        /* \"#utility.yul\":6232:6234   */\n      0x60\n        /* \"#utility.yul\":6221:6230   */\n      dup4\n        /* \"#utility.yul\":6217:6235   */\n      add\n        /* \"#utility.yul\":6208:6214   */\n      dup6\n        /* \"#utility.yul\":6164:6236   */\n      tag_120\n      jump\t// in\n    tag_207:\n        /* \"#utility.yul\":6246:6313   */\n      tag_208\n        /* \"#utility.yul\":6308:6311   */\n      0x80\n        /* \"#utility.yul\":6297:6306   */\n      dup4\n        /* \"#utility.yul\":6293:6312   */\n      add\n        /* \"#utility.yul\":6284:6290   */\n      dup5\n        /* \"#utility.yul\":6246:6313   */\n      tag_121\n      jump\t// in\n    tag_208:\n        /* \"#utility.yul\":5668:6320   */\n      swap7\n      swap6\n      pop\n      pop\n      pop\n      pop\n      pop\n      pop\n      jump\t// out\n        /* \"#utility.yul\":6326:6768   */\n    tag_41:\n        /* \"#utility.yul\":6475:6479   */\n      0x00\n        /* \"#utility.yul\":6513:6515   */\n      0x60\n        /* \"#utility.yul\":6502:6511   */\n      dup3\n        /* \"#utility.yul\":6498:6516   */\n      add\n        /* \"#utility.yul\":6490:6516   */\n      swap1\n      pop\n        /* \"#utility.yul\":6526:6597   */\n      tag_210\n        /* \"#utility.yul\":6594:6595   */\n      0x00\n        /* \"#utility.yul\":6583:6592   */\n      dup4\n        /* \"#utility.yul\":6579:6596   */\n      add\n        /* \"#utility.yul\":6570:6576   */\n      dup7\n        /* \"#utility.yul\":6526:6597   */\n      tag_120\n      jump\t// in\n    tag_210:\n        /* \"#utility.yul\":6607:6679   */\n      tag_211\n        /* \"#utility.yul\":6675:6677   */\n      0x20\n        /* \"#utility.yul\":6664:6673   */\n      dup4\n        /* \"#utility.yul\":6660:6678   */\n      add\n        /* \"#utility.yul\":6651:6657   */\n      dup6\n        /* \"#utility.yul\":6607:6679   */\n      tag_120\n      jump\t// in\n    tag_211:\n        /* \"#utility.yul\":6689:6761   */\n      tag_212\n        /* \"#utility.yul\":6757:6759   */\n      0x40\n        /* \"#utility.yul\":6746:6755   */\n      dup4\n        /* \"#utility.yul\":6742:6760   */\n      add\n        /* \"#utility.yul\":6733:6739   */\n      dup5\n        /* \"#utility.yul\":6689:6761   */\n      tag_120\n      jump\t// in\n    tag_212:\n        /* \"#utility.yul\":6326:6768   */\n      swap5\n      swap4\n      pop\n      pop\n      pop\n      pop\n      jump\t// out\n        /* \"#utility.yul\":6774:6943   */\n    tag_122:\n        /* \"#utility.yul\":6858:6869   */\n      0x00\n        /* \"#utility.yul\":6892:6898   */\n      dup3\n        /* \"#utility.yul\":6887:6890   */\n      dup3\n        /* \"#utility.yul\":6880:6899   */\n      mstore\n        /* \"#utility.yul\":6932:6936   */\n      0x20\n        /* \"#utility.yul\":6927:6930   */\n      dup3\n        /* \"#utility.yul\":6923:6937   */\n      add\n        /* \"#utility.yul\":6908:6937   */\n      swap1\n      pop\n        /* \"#utility.yul\":6774:6943   */\n      swap3\n      swap2\n      pop\n      pop\n      jump\t// out\n        /* \"#utility.yul\":6949:7122   */\n    tag_123:\n        /* \"#utility.yul\":7089:7114   */\n      0x496e73756666696369656e742072657075746174696f6e000000000000000000\n        /* \"#utility.yul\":7085:7086   */\n      0x00\n        /* \"#utility.yul\":7077:7083   */\n      dup3\n        /* \"#utility.yul\":7073:7087   */\n      add\n        /* \"#utility.yul\":7066:7115   */\n      mstore\n        /* \"#utility.yul\":6949:7122   */\n      pop\n      jump\t// out\n        /* \"#utility.yul\":7128:7494   */\n    tag_124:\n        /* \"#utility.yul\":7270:7273   */\n      0x00\n        /* \"#utility.yul\":7291:7358   */\n      tag_216\n        /* \"#utility.yul\":7355:7357   */\n      0x17\n        /* \"#utility.yul\":7350:7353   */\n      dup4\n        /* \"#utility.yul\":7291:7358   */\n      tag_122\n      jump\t// in\n    tag_216:\n        /* \"#utility.yul\":7284:7358   */\n      swap2\n      pop\n        /* \"#utility.yul\":7367:7460   */\n      tag_217\n        /* \"#utility.yul\":7456:7459   */\n      dup3\n        /* \"#utility.yul\":7367:7460   */\n      tag_123\n      jump\t// in\n    tag_217:\n        /* \"#utility.yul\":7485:7487   */\n      0x20\n        /* \"#utility.yul\":7480:7483   */\n      dup3\n        /* \"#utility.yul\":7476:7488   */\n      add\n        /* \"#utility.yul\":7469:7488   */\n      swap1\n      pop\n        /* \"#utility.yul\":7128:7494   */\n      swap2\n      swap1\n      pop\n      jump\t// out\n        /* \"#utility.yul\":7500:7919   */\n    tag_45:\n        /* \"#utility.yul\":7666:7670   */\n      0x00\n        /* \"#utility.yul\":7704:7706   */\n      0x20\n        /* \"#utility.yul\":7693:7702   */\n      dup3\n        /* \"#utility.yul\":7689:7707   */\n      add\n        /* \"#utility.yul\":7681:7707   */\n      swap1\n      pop\n        /* \"#utility.yul\":7753:7762   */\n      dup2\n        /* \"#utility.yul\":7747:7751   */\n      dup2\n        /* \"#utility.yul\":7743:7763   */\n      sub\n        /* \"#utility.yul\":7739:7740   */\n      0x00\n        /* \"#utility.yul\":7728:7737   */\n      dup4\n        /* \"#utility.yul\":7724:7741   */\n      add\n        /* \"#utility.yul\":7717:7764   */\n      mstore\n        /* \"#utility.yul\":7781:7912   */\n      tag_219\n        /* \"#utility.yul\":7907:7911   */\n      dup2\n        /* \"#utility.yul\":7781:7912   */\n      tag_124\n      jump\t// in\n    tag_219:\n        /* \"#utility.yul\":7773:7912   */\n      swap1\n      pop\n        /* \"#utility.yul\":7500:7919   */\n      swap2\n      swap1\n      pop\n      jump\t// out\n        /* \"#utility.yul\":7925:8092   */\n    tag_125:\n        /* \"#utility.yul\":8065:8084   */\n      0x4368616c6c656e676572206c6f636b6564000000000000000000000000000000\n        /* \"#utility.yul\":8061:8062   */\n      0x00\n        /* \"#utility.yul\":8053:8059   */\n      dup3\n        /* \"#utility.yul\":8049:8063   */\n      add\n        /* \"#utility.yul\":8042:8085   */\n      mstore\n        /* \"#utility.yul\":7925:8092   */\n      pop\n      jump\t// out\n        /* \"#utility.yul\":8098:8464   */\n    tag_126:\n        /* \"#utility.yul\":8240:8243   */\n      0x00\n        /* \"#utility.yul\":8261:8328   */\n      tag_222\n        /* \"#utility.yul\":8325:8327   */\n      0x11\n        /* \"#utility.yul\":8320:8323   */\n      dup4\n        /* \"#utility.yul\":8261:8328   */\n      tag_122\n      jump\t// in\n    tag_222:\n        /* \"#utility.yul\":8254:8328   */\n      swap2\n      pop\n        /* \"#utility.yul\":8337:8430   */\n      tag_223\n        /* \"#utility.yul\":8426:8429   */\n      dup3\n        /* \"#utility.yul\":8337:8430   */\n      tag_125\n      jump\t// in\n    tag_223:\n        /* \"#utility.yul\":8455:8457   */\n      0x20\n        /* \"#utility.yul\":8450:8453   */\n      dup3\n        /* \"#utility.yul\":8446:8458   */\n      add\n        /* \"#utility.yul\":8439:8458   */\n      swap1\n      pop\n        /* \"#utility.yul\":8098:8464   */\n      swap2\n      swap1\n      pop\n      jump\t// out\n        /* \"#utility.yul\":8470:8889   */\n    tag_48:\n        /* \"#utility.yul\":8636:8640   */\n      0x00\n        /* \"#utility.yul\":8674:8676   */\n      0x20\n        /* \"#utility.yul\":8663:8672   */\n      dup3\n        /* \"#utility.yul\":8659:8677   */\n      add\n        /* \"#utility.yul\":8651:8677   */\n      swap1\n      pop\n        /* \"#utility.yul\":8723:8732   */\n      dup2\n        /* \"#utility.yul\":8717:8721   */\n      dup2\n        /* \"#utility.yul\":8713:8733   */\n      sub\n        /* \"#utility.yul\":8709:8710   */\n      0x00\n        /* \"#utility.yul\":8698:8707   */\n      dup4\n        /* \"#utility.yul\":8694:8711   */\n      add\n        /* \"#utility.yul\":8687:8734   */\n      mstore\n        /* \"#utility.yul\":8751:8882   */\n      tag_225\n        /* \"#utility.yul\":8877:8881   */\n      dup2\n        /* \"#utility.yul\":8751:8882   */\n      tag_126\n      jump\t// in\n    tag_225:\n        /* \"#utility.yul\":8743:8882   */\n      swap1\n      pop\n        /* \"#utility.yul\":8470:8889   */\n      swap2\n      swap1\n      pop\n      jump\t// out\n        /* \"#utility.yul\":8895:9060   */\n    tag_127:\n        /* \"#utility.yul\":9035:9052   */\n      0x4f70706f6e656e74206c6f636b65640000000000000000000000000000000000\n        /* \"#utility.yul\":9031:9032   */\n      0x00\n        /* \"#utility.yul\":9023:9029   */\n      dup3\n        /* \"#utility.yul\":9019:9033   */\n      add\n        /* \"#utility.yul\":9012:9053   */\n      mstore\n        /* \"#utility.yul\":8895:9060   */\n      pop\n      jump\t// out\n        /* \"#utility.yul\":9066:9432   */\n    tag_128:\n        /* \"#utility.yul\":9208:9211   */\n      0x00\n        /* \"#utility.yul\":9229:9296   */\n      tag_228\n        /* \"#utility.yul\":9293:9295   */\n      0x0f\n        /* \"#utility.yul\":9288:9291   */\n      dup4\n        /* \"#utility.yul\":9229:9296   */\n      tag_122\n      jump\t// in\n    tag_228:\n        /* \"#utility.yul\":9222:9296   */\n      swap2\n      pop\n        /* \"#utility.yul\":9305:9398   */\n      tag_229\n        /* \"#utility.yul\":9394:9397   */\n      dup3\n        /* \"#utility.yul\":9305:9398   */\n      tag_127\n      jump\t// in\n    tag_229:\n        /* \"#utility.yul\":9423:9425   */\n      0x20\n        /* \"#utility.yul\":9418:9421   */\n      dup3\n        /* \"#utility.yul\":9414:9426   */\n      add\n        /* \"#utility.yul\":9407:9426   */\n      swap1\n      pop\n        /* \"#utility.yul\":9066:9432   */\n      swap2\n      swap1\n      pop\n      jump\t// out\n        /* \"#utility.yul\":9438:9857   */\n    tag_51:\n        /* \"#utility.yul\":9604:9608   */\n      0x00\n        /* \"#utility.yul\":9642:9644   */\n      0x20\n        /* \"#utility.yul\":9631:9640   */\n      dup3\n        /* \"#utility.yul\":9627:9645   */\n      add\n        /* \"#utility.yul\":9619:9645   */\n      swap1\n      pop\n        /* \"#utility.yul\":9691:9700   */\n      dup2\n        /* \"#utility.yul\":9685:9689   */\n      dup2\n        /* \"#utility.yul\":9681:9701   */\n      sub\n        /* \"#utility.yul\":9677:9678   */\n      0x00\n        /* \"#utility.yul\":9666:9675   */\n      dup4\n        /* \"#utility.yul\":9662:9679   */\n      add\n        /* \"#utility.yul\":9655:9702   */\n      mstore\n        /* \"#utility.yul\":9719:9850   */\n      tag_231\n        /* \"#utility.yul\":9845:9849   */\n      dup2\n        /* \"#utility.yul\":9719:9850   */\n      tag_128\n      jump\t// in\n    tag_231:\n        /* \"#utility.yul\":9711:9850   */\n      swap1\n      pop\n        /* \"#utility.yul\":9438:9857   */\n      swap2\n      swap1\n      pop\n      jump\t// out\n        /* \"#utility.yul\":9863:10034   */\n    tag_129:\n        /* \"#utility.yul\":10003:10026   */\n      0x43616e6e6f74206368616c6c656e67652073656c660000000000000000000000\n        /* \"#utility.yul\":9999:10000   */\n      0x00\n        /* \"#utility.yul\":9991:9997   */\n      dup3\n        /* \"#utility.yul\":9987:10001   */\n      add\n        /* \"#utility.yul\":9980:10027   */\n      mstore\n        /* \"#utility.yul\":9863:10034   */\n      pop\n      jump\t// out\n        /* \"#utility.yul\":10040:10406   */\n    tag_130:\n        /* \"#utility.yul\":10182:10185   */\n      0x00\n        /* \"#utility.yul\":10203:10270   */\n      tag_234\n        /* \"#utility.yul\":10267:10269   */\n      0x15\n        /* \"#utility.yul\":10262:10265   */\n      dup4\n        /* \"#utility.yul\":10203:10270   */\n      tag_122\n      jump\t// in\n    tag_234:\n        /* \"#utility.yul\":10196:10270   */\n      swap2\n      pop\n        /* \"#utility.yul\":10279:10372   */\n      tag_235\n        /* \"#utility.yul\":10368:10371   */\n      dup3\n        /* \"#utility.yul\":10279:10372   */\n      tag_129\n      jump\t// in\n    tag_235:\n        /* \"#utility.yul\":10397:10399   */\n      0x20\n        /* \"#utility.yul\":10392:10395   */\n      dup3\n        /* \"#utility.yul\":10388:10400   */\n      add\n        /* \"#utility.yul\":10381:10400   */\n      swap1\n      pop\n        /* \"#utility.yul\":10040:10406   */\n      swap2\n      swap1\n      pop\n      jump\t// out\n        /* \"#utility.yul\":10412:10831   */\n    tag_54:\n        /* \"#utility.yul\":10578:10582   */\n      0x00\n        /* \"#utility.yul\":10616:10618   */\n      0x20\n        /* \"#utility.yul\":10605:10614   */\n      dup3\n        /* \"#utility.yul\":10601:10619   */\n      add\n        /* \"#utility.yul\":10593:10619   */\n      swap1\n      pop\n        /* \"#utility.yul\":10665:10674   */\n      dup2\n        /* \"#utility.yul\":10659:10663   */\n      dup2\n        /* \"#utility.yul\":10655:10675   */\n      sub\n        /* \"#utility.yul\":10651:10652   */\n      0x00\n        /* \"#utility.yul\":10640:10649   */\n      dup4\n        /* \"#utility.yul\":10636:10653   */\n      add\n        /* \"#utility.yul\":10629:10676   */\n      mstore\n        /* \"#utility.yul\":10693:10824   */\n      tag_237\n        /* \"#utility.yul\":10819:10823   */\n      dup2\n        /* \"#utility.yul\":10693:10824   */\n      tag_130\n      jump\t// in\n    tag_237:\n        /* \"#utility.yul\":10685:10824   */\n      swap1\n      pop\n        /* \"#utility.yul\":10412:10831   */\n      swap2\n      swap1\n      pop\n      jump\t// out\n        /* \"#utility.yul\":10837:11017   */\n    tag_131:\n        /* \"#utility.yul\":10885:10962   */\n      0x4e487b7100000000000000000000000000000000000000000000000000000000\n        /* \"#utility.yul\":10882:10883   */\n      0x00\n        /* \"#utility.yul\":10875:10963   */\n      mstore\n        /* \"#utility.yul\":10982:10986   */\n      0x11\n        /* \"#utility.yul\":10979:10980   */\n      0x04\n        /* \"#utility.yul\":10972:10987   */\n      mstore\n        /* \"#utility.yul\":11006:11010   */\n      0x24\n        /* \"#utility.yul\":11003:11004   */\n      0x00\n        /* \"#utility.yul\":10996:11011   */\n      revert\n        /* \"#utility.yul\":11023:11214   */\n    tag_56:\n        /* \"#utility.yul\":11063:11066   */\n      0x00\n        /* \"#utility.yul\":11082:11102   */\n      tag_240\n        /* \"#utility.yul\":11100:11101   */\n      dup3\n        /* \"#utility.yul\":11082:11102   */\n      tag_110\n      jump\t// in\n    tag_240:\n        /* \"#utility.yul\":11077:11102   */\n      swap2\n      pop\n        /* \"#utility.yul\":11116:11136   */\n      tag_241\n        /* \"#utility.yul\":11134:11135   */\n      dup4\n        /* \"#utility.yul\":11116:11136   */\n      tag_110\n      jump\t// in\n    tag_241:\n        /* \"#utility.yul\":11111:11136   */\n      swap3\n      pop\n        /* \"#utility.yul\":11159:11160   */\n      dup3\n        /* \"#utility.yul\":11156:11157   */\n      dup3\n        /* \"#utility.yul\":11152:11161   */\n      add\n        /* \"#utility.yul\":11145:11161   */\n      swap1\n      pop\n        /* \"#utility.yul\":11180:11183   */\n      dup1\n        /* \"#utility.yul\":11177:11178   */\n      dup3\n        /* \"#utility.yul\":11174:11184   */\n      gt\n        /* \"#utility.yul\":11171:11207   */\n      iszero\n      tag_242\n      jumpi\n        /* \"#utility.yul\":11187:11205   */\n      tag_243\n      tag_131\n      jump\t// in\n    tag_243:\n        /* \"#utility.yul\":11171:11207   */\n    tag_242:\n        /* \"#utility.yul\":11023:11214   */\n      swap3\n      swap2\n      pop\n      pop\n      jump\t// out\n        /* \"#utility.yul\":11220:11414   */\n    tag_60:\n        /* \"#utility.yul\":11260:11264   */\n      0x00\n        /* \"#utility.yul\":11280:11300   */\n      tag_245\n        /* \"#utility.yul\":11298:11299   */\n      dup3\n        /* \"#utility.yul\":11280:11300   */\n      tag_110\n      jump\t// in\n    tag_245:\n        /* \"#utility.yul\":11275:11300   */\n      swap2\n      pop\n        /* \"#utility.yul\":11314:11334   */\n      tag_246\n        /* \"#utility.yul\":11332:11333   */\n      dup4\n        /* \"#utility.yul\":11314:11334   */\n      tag_110\n      jump\t// in\n    tag_246:\n        /* \"#utility.yul\":11309:11334   */\n      swap3\n      pop\n        /* \"#utility.yul\":11358:11359   */\n      dup3\n        /* \"#utility.yul\":11355:11356   */\n      dup3\n        /* \"#utility.yul\":11351:11360   */\n      sub\n        /* \"#utility.yul\":11343:11360   */\n      swap1\n      pop\n        /* \"#utility.yul\":11382:11383   */\n      dup2\n        /* \"#utility.yul\":11376:11380   */\n      dup2\n        /* \"#utility.yul\":11373:11384   */\n      gt\n        /* \"#utility.yul\":11370:11407   */\n      iszero\n      tag_247\n      jumpi\n        /* \"#utility.yul\":11387:11405   */\n      tag_248\n      tag_131\n      jump\t// in\n    tag_248:\n        /* \"#utility.yul\":11370:11407   */\n    tag_247:\n        /* \"#utility.yul\":11220:11414   */\n      swap3\n      swap2\n      pop\n      pop\n      jump\t// out\n        /* \"#utility.yul\":11420:11862   */\n    tag_62:\n        /* \"#utility.yul\":11569:11573   */\n      0x00\n        /* \"#utility.yul\":11607:11609   */\n      0x60\n        /* \"#utility.yul\":11596:11605   */\n      dup3\n        /* \"#utility.yul\":11592:11610   */\n      add\n        /* \"#utility.yul\":11584:11610   */\n      swap1\n      pop\n        /* \"#utility.yul\":11620:11691   */\n      tag_250\n        /* \"#utility.yul\":11688:11689   */\n      0x00\n        /* \"#utility.yul\":11677:11686   */\n      dup4\n        /* \"#utility.yul\":11673:11690   */\n      add\n        /* \"#utility.yul\":11664:11670   */\n      dup7\n        /* \"#utility.yul\":11620:11691   */\n      tag_119\n      jump\t// in\n    tag_250:\n        /* \"#utility.yul\":11701:11773   */\n      tag_251\n        /* \"#utility.yul\":11769:11771   */\n      0x20\n        /* \"#utility.yul\":11758:11767   */\n      dup4\n        /* \"#utility.yul\":11754:11772   */\n      add\n        /* \"#utility.yul\":11745:11751   */\n      dup6\n        /* \"#utility.yul\":11701:11773   */\n      tag_119\n      jump\t// in\n    tag_251:\n        /* \"#utility.yul\":11783:11855   */\n      tag_252\n        /* \"#utility.yul\":11851:11853   */\n      0x40\n        /* \"#utility.yul\":11840:11849   */\n      dup4\n        /* \"#utility.yul\":11836:11854   */\n      add\n        /* \"#utility.yul\":11827:11833   */\n      dup5\n        /* \"#utility.yul\":11783:11855   */\n      tag_120\n      jump\t// in\n    tag_252:\n        /* \"#utility.yul\":11420:11862   */\n      swap5\n      swap4\n      pop\n      pop\n      pop\n      pop\n      jump\t// out\n        /* \"#utility.yul\":11868:12048   */\n    tag_68:\n        /* \"#utility.yul\":11916:11993   */\n      0x4e487b7100000000000000000000000000000000000000000000000000000000\n        /* \"#utility.yul\":11913:11914   */\n      0x00\n        /* \"#utility.yul\":11906:11994   */\n      mstore\n        /* \"#utility.yul\":12013:12017   */\n      0x32\n        /* \"#utility.yul\":12010:12011   */\n      0x04\n        /* \"#utility.yul\":12003:12018   */\n      mstore\n        /* \"#utility.yul\":12037:12041   */\n      0x24\n        /* \"#utility.yul\":12034:12035   */\n      0x00\n        /* \"#utility.yul\":12027:12042   */\n      revert\n        /* \"#utility.yul\":12054:12220   */\n    tag_132:\n        /* \"#utility.yul\":12194:12212   */\n      0x416c7265616479207265736f6c76656400000000000000000000000000000000\n        /* \"#utility.yul\":12190:12191   */\n      0x00\n        /* \"#utility.yul\":12182:12188   */\n      dup3\n        /* \"#utility.yul\":12178:12192   */\n      add\n        /* \"#utility.yul\":12171:12213   */\n      mstore\n        /* \"#utility.yul\":12054:12220   */\n      pop\n      jump\t// out\n        /* \"#utility.yul\":12226:12592   */\n    tag_133:\n        /* \"#utility.yul\":12368:12371   */\n      0x00\n        /* \"#utility.yul\":12389:12456   */\n      tag_256\n        /* \"#utility.yul\":12453:12455   */\n      0x10\n        /* \"#utility.yul\":12448:12451   */\n      dup4\n        /* \"#utility.yul\":12389:12456   */\n      tag_122\n      jump\t// in\n    tag_256:\n        /* \"#utility.yul\":12382:12456   */\n      swap2\n      pop\n        /* \"#utility.yul\":12465:12558   */\n      tag_257\n        /* \"#utility.yul\":12554:12557   */\n      dup3\n        /* \"#utility.yul\":12465:12558   */\n      tag_132\n      jump\t// in\n    tag_257:\n        /* \"#utility.yul\":12583:12585   */\n      0x20\n        /* \"#utility.yul\":12578:12581   */\n      dup3\n        /* \"#utility.yul\":12574:12586   */\n      add\n        /* \"#utility.yul\":12567:12586   */\n      swap1\n      pop\n        /* \"#utility.yul\":12226:12592   */\n      swap2\n      swap1\n      pop\n      jump\t// out\n        /* \"#utility.yul\":12598:13017   */\n    tag_79:\n        /* \"#utility.yul\":12764:12768   */\n      0x00\n        /* \"#utility.yul\":12802:12804   */\n      0x20\n        /* \"#utility.yul\":12791:12800   */\n      dup3\n        /* \"#utility.yul\":12787:12805   */\n      add\n        /* \"#utility.yul\":12779:12805   */\n      swap1\n      pop\n        /* \"#utility.yul\":12851:12860   */\n      dup2\n        /* \"#utility.yul\":12845:12849   */\n      dup2\n        /* \"#utility.yul\":12841:12861   */\n      sub\n        /* \"#utility.yul\":12837:12838   */\n      0x00\n        /* \"#utility.yul\":12826:12835   */\n      dup4\n        /* \"#utility.yul\":12822:12839   */\n      add\n        /* \"#utility.yul\":12815:12862   */\n      mstore\n        /* \"#utility.yul\":12879:13010   */\n      tag_259\n        /* \"#utility.yul\":13005:13009   */\n      dup2\n        /* \"#utility.yul\":12879:13010   */\n      tag_133\n      jump\t// in\n    tag_259:\n        /* \"#utility.yul\":12871:13010   */\n      swap1\n      pop\n        /* \"#utility.yul\":12598:13017   */\n      swap2\n      swap1\n      pop\n      jump\t// out\n        /* \"#utility.yul\":13023:13193   */\n    tag_134:\n        /* \"#utility.yul\":13163:13185   */\n      0x546f6f206561726c7920746f207265736f6c7665000000000000000000000000\n        /* \"#utility.yul\":13159:13160   */\n      0x00\n        /* \"#utility.yul\":13151:13157   */\n      dup3\n        /* \"#utility.yul\":13147:13161   */\n      add\n        /* \"#utility.yul\":13140:13186   */\n      mstore\n        /* \"#utility.yul\":13023:13193   */\n      pop\n      jump\t// out\n        /* \"#utility.yul\":13199:13565   */\n    tag_135:\n        /* \"#utility.yul\":13341:13344   */\n      0x00\n        /* \"#utility.yul\":13362:13429   */\n      tag_262\n        /* \"#utility.yul\":13426:13428   */\n      0x14\n        /* \"#utility.yul\":13421:13424   */\n      dup4\n        /* \"#utility.yul\":13362:13429   */\n      tag_122\n      jump\t// in\n    tag_262:\n        /* \"#utility.yul\":13355:13429   */\n      swap2\n      pop\n        /* \"#utility.yul\":13438:13531   */\n      tag_263\n        /* \"#utility.yul\":13527:13530   */\n      dup3\n        /* \"#utility.yul\":13438:13531   */\n      tag_134\n      jump\t// in\n    tag_263:\n        /* \"#utility.yul\":13556:13558   */\n      0x20\n        /* \"#utility.yul\":13551:13554   */\n      dup3\n        /* \"#utility.yul\":13547:13559   */\n      add\n        /* \"#utility.yul\":13540:13559   */\n      swap1\n      pop\n        /* \"#utility.yul\":13199:13565   */\n      swap2\n      swap1\n      pop\n      jump\t// out\n        /* \"#utility.yul\":13571:13990   */\n    tag_83:\n        /* \"#utility.yul\":13737:13741   */\n      0x00\n        /* \"#utility.yul\":13775:13777   */\n      0x20\n        /* \"#utility.yul\":13764:13773   */\n      dup3\n        /* \"#utility.yul\":13760:13778   */\n      add\n        /* \"#utility.yul\":13752:13778   */\n      swap1\n      pop\n        /* \"#utility.yul\":13824:13833   */\n      dup2\n        /* \"#utility.yul\":13818:13822   */\n      dup2\n        /* \"#utility.yul\":13814:13834   */\n      sub\n        /* \"#utility.yul\":13810:13811   */\n      0x00\n        /* \"#utility.yul\":13799:13808   */\n      dup4\n        /* \"#utility.yul\":13795:13812   */\n      add\n        /* \"#utility.yul\":13788:13835   */\n      mstore\n        /* \"#utility.yul\":13852:13983   */\n      tag_265\n        /* \"#utility.yul\":13978:13982   */\n      dup2\n        /* \"#utility.yul\":13852:13983   */\n      tag_135\n      jump\t// in\n    tag_265:\n        /* \"#utility.yul\":13844:13983   */\n      swap1\n      pop\n        /* \"#utility.yul\":13571:13990   */\n      swap2\n      swap1\n      pop\n      jump\t// out\n        /* \"#utility.yul\":13996:14075   */\n    tag_136:\n        /* \"#utility.yul\":14035:14042   */\n      0x00\n        /* \"#utility.yul\":14064:14069   */\n      dup2\n        /* \"#utility.yul\":14053:14069   */\n      swap1\n      pop\n        /* \"#utility.yul\":13996:14075   */\n      swap2\n      swap1\n      pop\n      jump\t// out\n        /* \"#utility.yul\":14081:14238   */\n    tag_137:\n        /* \"#utility.yul\":14186:14231   */\n      tag_268\n        /* \"#utility.yul\":14206:14230   */\n      tag_269\n        /* \"#utility.yul\":14224:14229   */\n      dup3\n        /* \"#utility.yul\":14206:14230   */\n      tag_110\n      jump\t// in\n    tag_269:\n        /* \"#utility.yul\":14186:14231   */\n      tag_136\n      jump\t// in\n    tag_268:\n        /* \"#utility.yul\":14181:14184   */\n      dup3\n        /* \"#utility.yul\":14174:14232   */\n      mstore\n        /* \"#utility.yul\":14081:14238   */\n      pop\n      pop\n      jump\t// out\n        /* \"#utility.yul\":14244:14338   */\n    tag_138:\n        /* \"#utility.yul\":14277:14285   */\n      0x00\n        /* \"#utility.yul\":14325:14330   */\n      dup2\n        /* \"#utility.yul\":14321:14323   */\n      0x60\n        /* \"#utility.yul\":14317:14331   */\n      shl\n        /* \"#utility.yul\":14296:14331   */\n      swap1\n      pop\n        /* \"#utility.yul\":14244:14338   */\n      swap2\n      swap1\n      pop\n      jump\t// out\n        /* \"#utility.yul\":14344:14438   */\n    tag_139:\n        /* \"#utility.yul\":14383:14390   */\n      0x00\n        /* \"#utility.yul\":14412:14432   */\n      tag_272\n        /* \"#utility.yul\":14426:14431   */\n      dup3\n        /* \"#utility.yul\":14412:14432   */\n      tag_138\n      jump\t// in\n    tag_272:\n        /* \"#utility.yul\":14401:14432   */\n      swap1\n      pop\n        /* \"#utility.yul\":14344:14438   */\n      swap2\n      swap1\n      pop\n      jump\t// out\n        /* \"#utility.yul\":14444:14544   */\n    tag_140:\n        /* \"#utility.yul\":14483:14490   */\n      0x00\n        /* \"#utility.yul\":14512:14538   */\n      tag_274\n        /* \"#utility.yul\":14532:14537   */\n      dup3\n        /* \"#utility.yul\":14512:14538   */\n      tag_139\n      jump\t// in\n    tag_274:\n        /* \"#utility.yul\":14501:14538   */\n      swap1\n      pop\n        /* \"#utility.yul\":14444:14544   */\n      swap2\n      swap1\n      pop\n      jump\t// out\n        /* \"#utility.yul\":14550:14707   */\n    tag_141:\n        /* \"#utility.yul\":14655:14700   */\n      tag_276\n        /* \"#utility.yul\":14675:14699   */\n      tag_277\n        /* \"#utility.yul\":14693:14698   */\n      dup3\n        /* \"#utility.yul\":14675:14699   */\n      tag_107\n      jump\t// in\n    tag_277:\n        /* \"#utility.yul\":14655:14700   */\n      tag_140\n      jump\t// in\n    tag_276:\n        /* \"#utility.yul\":14650:14653   */\n      dup3\n        /* \"#utility.yul\":14643:14701   */\n      mstore\n        /* \"#utility.yul\":14550:14707   */\n      pop\n      pop\n      jump\t// out\n        /* \"#utility.yul\":14713:15251   */\n    tag_85:\n        /* \"#utility.yul\":14881:14884   */\n      0x00\n        /* \"#utility.yul\":14896:14971   */\n      tag_279\n        /* \"#utility.yul\":14967:14970   */\n      dup3\n        /* \"#utility.yul\":14958:14964   */\n      dup7\n        /* \"#utility.yul\":14896:14971   */\n      tag_137\n      jump\t// in\n    tag_279:\n        /* \"#utility.yul\":14996:14998   */\n      0x20\n        /* \"#utility.yul\":14991:14994   */\n      dup3\n        /* \"#utility.yul\":14987:14999   */\n      add\n        /* \"#utility.yul\":14980:14999   */\n      swap2\n      pop\n        /* \"#utility.yul\":15009:15084   */\n      tag_280\n        /* \"#utility.yul\":15080:15083   */\n      dup3\n        /* \"#utility.yul\":15071:15077   */\n      dup6\n        /* \"#utility.yul\":15009:15084   */\n      tag_141\n      jump\t// in\n    tag_280:\n        /* \"#utility.yul\":15109:15111   */\n      0x14\n        /* \"#utility.yul\":15104:15107   */\n      dup3\n        /* \"#utility.yul\":15100:15112   */\n      add\n        /* \"#utility.yul\":15093:15112   */\n      swap2\n      pop\n        /* \"#utility.yul\":15122:15197   */\n      tag_281\n        /* \"#utility.yul\":15193:15196   */\n      dup3\n        /* \"#utility.yul\":15184:15190   */\n      dup5\n        /* \"#utility.yul\":15122:15197   */\n      tag_141\n      jump\t// in\n    tag_281:\n        /* \"#utility.yul\":15222:15224   */\n      0x14\n        /* \"#utility.yul\":15217:15220   */\n      dup3\n        /* \"#utility.yul\":15213:15225   */\n      add\n        /* \"#utility.yul\":15206:15225   */\n      swap2\n      pop\n        /* \"#utility.yul\":15242:15245   */\n      dup2\n        /* \"#utility.yul\":15235:15245   */\n      swap1\n      pop\n        /* \"#utility.yul\":14713:15251   */\n      swap5\n      swap4\n      pop\n      pop\n      pop\n      pop\n      jump\t// out\n        /* \"#utility.yul\":15257:15437   */\n    tag_142:\n        /* \"#utility.yul\":15305:15382   */\n      0x4e487b7100000000000000000000000000000000000000000000000000000000\n        /* \"#utility.yul\":15302:15303   */\n      0x00\n        /* \"#utility.yul\":15295:15383   */\n      mstore\n        /* \"#utility.yul\":15402:15406   */\n      0x12\n        /* \"#utility.yul\":15399:15400   */\n      0x04\n        /* \"#utility.yul\":15392:15407   */\n      mstore\n        /* \"#utility.yul\":15426:15430   */\n      0x24\n        /* \"#utility.yul\":15423:15424   */\n      0x00\n        /* \"#utility.yul\":15416:15431   */\n      revert\n        /* \"#utility.yul\":15443:15619   */\n    tag_87:\n        /* \"#utility.yul\":15475:15476   */\n      0x00\n        /* \"#utility.yul\":15492:15512   */\n      tag_284\n        /* \"#utility.yul\":15510:15511   */\n      dup3\n        /* \"#utility.yul\":15492:15512   */\n      tag_110\n      jump\t// in\n    tag_284:\n        /* \"#utility.yul\":15487:15512   */\n      swap2\n      pop\n        /* \"#utility.yul\":15526:15546   */\n      tag_285\n        /* \"#utility.yul\":15544:15545   */\n      dup4\n        /* \"#utility.yul\":15526:15546   */\n      tag_110\n      jump\t// in\n    tag_285:\n        /* \"#utility.yul\":15521:15546   */\n      swap3\n      pop\n        /* \"#utility.yul\":15565:15566   */\n      dup3\n        /* \"#utility.yul\":15555:15590   */\n      tag_286\n      jumpi\n        /* \"#utility.yul\":15570:15588   */\n      tag_287\n      tag_142\n      jump\t// in\n    tag_287:\n        /* \"#utility.yul\":15555:15590   */\n    tag_286:\n        /* \"#utility.yul\":15611:15612   */\n      dup3\n        /* \"#utility.yul\":15608:15609   */\n      dup3\n        /* \"#utility.yul\":15604:15613   */\n      mod\n        /* \"#utility.yul\":15599:15613   */\n      swap1\n      pop\n        /* \"#utility.yul\":15443:15619   */\n      swap3\n      swap2\n      pop\n      pop\n      jump\t// out\n        /* \"#utility.yul\":15625:15957   */\n    tag_96:\n        /* \"#utility.yul\":15746:15750   */\n      0x00\n        /* \"#utility.yul\":15784:15786   */\n      0x40\n        /* \"#utility.yul\":15773:15782   */\n      dup3\n        /* \"#utility.yul\":15769:15787   */\n      add\n        /* \"#utility.yul\":15761:15787   */\n      swap1\n      pop\n        /* \"#utility.yul\":15797:15868   */\n      tag_289\n        /* \"#utility.yul\":15865:15866   */\n      0x00\n        /* \"#utility.yul\":15854:15863   */\n      dup4\n        /* \"#utility.yul\":15850:15867   */\n      add\n        /* \"#utility.yul\":15841:15847   */\n      dup6\n        /* \"#utility.yul\":15797:15868   */\n      tag_119\n      jump\t// in\n    tag_289:\n        /* \"#utility.yul\":15878:15950   */\n      tag_290\n        /* \"#utility.yul\":15946:15948   */\n      0x20\n        /* \"#utility.yul\":15935:15944   */\n      dup4\n        /* \"#utility.yul\":15931:15949   */\n      add\n        /* \"#utility.yul\":15922:15928   */\n      dup5\n        /* \"#utility.yul\":15878:15950   */\n      tag_119\n      jump\t// in\n    tag_290:\n        /* \"#utility.yul\":15625:15957   */\n      swap4\n      swap3\n      pop\n      pop\n      pop\n      jump\t// out\n        /* \"#utility.yul\":15963:16127   */\n    tag_143:\n        /* \"#utility.yul\":16103:16119   */\n      0x416c7265616479206a6f696e6564000000000000000000000000000000000000\n        /* \"#utility.yul\":16099:16100   */\n      0x00\n        /* \"#utility.yul\":16091:16097   */\n      dup3\n        /* \"#utility.yul\":16087:16101   */\n      add\n        /* \"#utility.yul\":16080:16120   */\n      mstore\n        /* \"#utility.yul\":15963:16127   */\n      pop\n      jump\t// out\n        /* \"#utility.yul\":16133:16499   */\n    tag_144:\n        /* \"#utility.yul\":16275:16278   */\n      0x00\n        /* \"#utility.yul\":16296:16363   */\n      tag_293\n        /* \"#utility.yul\":16360:16362   */\n      0x0e\n        /* \"#utility.yul\":16355:16358   */\n      dup4\n        /* \"#utility.yul\":16296:16363   */\n      tag_122\n      jump\t// in\n    tag_293:\n        /* \"#utility.yul\":16289:16363   */\n      swap2\n      pop\n        /* \"#utility.yul\":16372:16465   */\n      tag_294\n        /* \"#utility.yul\":16461:16464   */\n      dup3\n        /* \"#utility.yul\":16372:16465   */\n      tag_143\n      jump\t// in\n    tag_294:\n        /* \"#utility.yul\":16490:16492   */\n      0x20\n        /* \"#utility.yul\":16485:16488   */\n      dup3\n        /* \"#utility.yul\":16481:16493   */\n      add\n        /* \"#utility.yul\":16474:16493   */\n      swap1\n      pop\n        /* \"#utility.yul\":16133:16499   */\n      swap2\n      swap1\n      pop\n      jump\t// out\n        /* \"#utility.yul\":16505:16924   */\n    tag_102:\n        /* \"#utility.yul\":16671:16675   */\n      0x00\n        /* \"#utility.yul\":16709:16711   */\n      0x20\n        /* \"#utility.yul\":16698:16707   */\n      dup3\n        /* \"#utility.yul\":16694:16712   */\n      add\n        /* \"#utility.yul\":16686:16712   */\n      swap1\n      pop\n        /* \"#utility.yul\":16758:16767   */\n      dup2\n        /* \"#utility.yul\":16752:16756   */\n      dup2\n        /* \"#utility.yul\":16748:16768   */\n      sub\n        /* \"#utility.yul\":16744:16745   */\n      0x00\n        /* \"#utility.yul\":16733:16742   */\n      dup4\n        /* \"#utility.yul\":16729:16746   */\n      add\n        /* \"#utility.yul\":16722:16769   */\n      mstore\n        /* \"#utility.yul\":16786:16917   */\n      tag_296\n        /* \"#utility.yul\":16912:16916   */\n      dup2\n        /* \"#utility.yul\":16786:16917   */\n      tag_144\n      jump\t// in\n    tag_296:\n        /* \"#utility.yul\":16778:16917   */\n      swap1\n      pop\n        /* \"#utility.yul\":16505:16924   */\n      swap2\n      swap1\n      pop\n      jump\t// out\n\n    auxdata: 0xa26469706673582212207e06b050c20381d376e5b41b8a53b2cf3f1be4c4a3a1bffd412ef2e5cc90137164736f6c63430008170033\n}\n",
				"bytecode": {
					"linkReferences": {},
					"object": "608060405234801561000f575f80fd5b506040518060600160405280606481526020016103e881526020015f8152505f803373ffffffffffffffffffffffffffffffffffffffff1673ffffffffffffffffffffffffffffffffffffffff1681526020019081526020015f205f820151815f015560208201518160010155604082015181600201559050506114cb806100965f395ff3fe608060405234801561000f575f80fd5b506004361061007b575f3560e01c8063761c7cfe11610059578063761c7cfe146100fb5780638f1d3776146101175780639bf08a061461014b578063e2eb41ff146101555761007b565b806318021c621461007f5780631bdd4b741461009b5780635c12cd4b146100cb575b5f80fd5b61009960048036038101906100949190610d3c565b610187565b005b6100b560048036038101906100b09190610d7a565b6105a9565b6040516100c29190610e43565b60405180910390f35b6100e560048036038101906100e09190610e5c565b6106ba565b6040516100f29190610ec7565b60405180910390f35b61011560048036038101906101109190610d7a565b61072d565b005b610131600480360381019061012c9190610d7a565b610a8a565b604051610142959493929190610f0d565b60405180910390f35b610153610b15565b005b61016f600480360381019061016a9190610e5c565b610c10565b60405161017e93929190610f5e565b60405180910390f35b805f803373ffffffffffffffffffffffffffffffffffffffff1673ffffffffffffffffffffffffffffffffffffffff1681526020019081526020015f20600101541015610209576040517f08c379a000000000000000000000000000000000000000000000000000000000815260040161020090610fed565b60405180910390fd5b425f803373ffffffffffffffffffffffffffffffffffffffff1673ffffffffffffffffffffffffffffffffffffffff1681526020019081526020015f20600201541061028a576040517f08c379a000000000000000000000000000000000000000000000000000000000815260040161028190611055565b60405180910390fd5b425f808473ffffffffffffffffffffffffffffffffffffffff1673ffffffffffffffffffffffffffffffffffffffff1681526020019081526020015f20600201541061030b576040517f08c379a0000000000000000000000000000000000000000000000000000000008152600401610302906110bd565b60405180910390fd5b3373ffffffffffffffffffffffffffffffffffffffff168273ffffffffffffffffffffffffffffffffffffffff1603610379576040517f08c379a000000000000000000000000000000000000000000000000000000000815260040161037090611125565b60405180910390fd5b62015180426103889190611170565b5f803373ffffffffffffffffffffffffffffffffffffffff1673ffffffffffffffffffffffffffffffffffffffff1681526020019081526020015f206002018190555062015180426103da9190611170565b5f808473ffffffffffffffffffffffffffffffffffffffff1673ffffffffffffffffffffffffffffffffffffffff1681526020019081526020015f206002018190555060016040518060a001604052803373ffffffffffffffffffffffffffffffffffffffff1681526020018473ffffffffffffffffffffffffffffffffffffffff1681526020018381526020014281526020015f1515815250908060018154018082558091505060019003905f5260205f2090600502015f909190919091505f820151815f015f6101000a81548173ffffffffffffffffffffffffffffffffffffffff021916908373ffffffffffffffffffffffffffffffffffffffff1602179055506020820151816001015f6101000a81548173ffffffffffffffffffffffffffffffffffffffff021916908373ffffffffffffffffffffffffffffffffffffffff16021790555060408201518160020155606082015181600301556080820151816004015f6101000a81548160ff02191690831515021790555050506001808054905061056a91906111a3565b7fd2f7931a802085b3d0234d4c320ce7ee0041da96678ce2bf5c93e8d3d7e65f5233848460405161059d939291906111d6565b60405180910390a25050565b6105b1610c35565b600182815481106105c5576105c461120b565b5b905f5260205f2090600502016040518060a00160405290815f82015f9054906101000a900473ffffffffffffffffffffffffffffffffffffffff1673ffffffffffffffffffffffffffffffffffffffff1673ffffffffffffffffffffffffffffffffffffffff168152602001600182015f9054906101000a900473ffffffffffffffffffffffffffffffffffffffff1673ffffffffffffffffffffffffffffffffffffffff1673ffffffffffffffffffffffffffffffffffffffff1681526020016002820154815260200160038201548152602001600482015f9054906101000a900460ff1615151515815250509050919050565b6106c2610c8d565b5f808373ffffffffffffffffffffffffffffffffffffffff1673ffffffffffffffffffffffffffffffffffffffff1681526020019081526020015f206040518060600160405290815f8201548152602001600182015481526020016002820154815250509050919050565b5f600182815481106107425761074161120b565b5b905f5260205f2090600502019050806004015f9054906101000a900460ff16156107a1576040517f08c379a000000000000000000000000000000000000000000000000000000000815260040161079890611282565b60405180910390fd5b6201518081600301546107b49190611170565b4210156107f6576040517f08c379a00000000000000000000000000000000000000000000000000000000081526004016107ed906112ea565b60405180910390fd5b6001816004015f6101000a81548160ff0219169083151502179055505f80600242845f015f9054906101000a900473ffffffffffffffffffffffffffffffffffffffff16856001015f9054906101000a900473ffffffffffffffffffffffffffffffffffffffff166040516020016108709392919061136d565b604051602081830303815290604052805190602001205f1c61089291906113d6565b1490505f816108c457826001015f9054906101000a900473ffffffffffffffffffffffffffffffffffffffff166108e8565b825f015f9054906101000a900473ffffffffffffffffffffffffffffffffffffffff165b90505f8261091857835f015f9054906101000a900473ffffffffffffffffffffffffffffffffffffffff1661093d565b836001015f9054906101000a900473ffffffffffffffffffffffffffffffffffffffff165b905083600201545f808473ffffffffffffffffffffffffffffffffffffffff1673ffffffffffffffffffffffffffffffffffffffff1681526020019081526020015f205f015f8282546109909190611170565b9250508190555083600201545f808473ffffffffffffffffffffffffffffffffffffffff1673ffffffffffffffffffffffffffffffffffffffff1681526020019081526020015f206001015f8282546109e99190611170565b9250508190555083600201545f808373ffffffffffffffffffffffffffffffffffffffff1673ffffffffffffffffffffffffffffffffffffffff1681526020019081526020015f206001015f828254610a4291906111a3565b92505081905550847fe11c3f7679c53b0ce89bfa093950841f4d153303a63e52914ce24b88f993f72d8383604051610a7b929190611406565b60405180910390a25050505050565b60018181548110610a99575f80fd5b905f5260205f2090600502015f91509050805f015f9054906101000a900473ffffffffffffffffffffffffffffffffffffffff1690806001015f9054906101000a900473ffffffffffffffffffffffffffffffffffffffff1690806002015490806003015490806004015f9054906101000a900460ff16905085565b5f805f3373ffffffffffffffffffffffffffffffffffffffff1673ffffffffffffffffffffffffffffffffffffffff1681526020019081526020015f206001015414610b96576040517f08c379a0000000000000000000000000000000000000000000000000000000008152600401610b8d90611477565b60405180910390fd5b6040518060600160405280600a8152602001606481526020015f8152505f803373ffffffffffffffffffffffffffffffffffffffff1673ffffffffffffffffffffffffffffffffffffffff1681526020019081526020015f205f820151815f01556020820151816001015560408201518160020155905050565b5f602052805f5260405f205f91509050805f0154908060010154908060020154905083565b6040518060a001604052805f73ffffffffffffffffffffffffffffffffffffffff1681526020015f73ffffffffffffffffffffffffffffffffffffffff1681526020015f81526020015f81526020015f151581525090565b60405180606001604052805f81526020015f81526020015f81525090565b5f80fd5b5f73ffffffffffffffffffffffffffffffffffffffff82169050919050565b5f610cd882610caf565b9050919050565b610ce881610cce565b8114610cf2575f80fd5b50565b5f81359050610d0381610cdf565b92915050565b5f819050919050565b610d1b81610d09565b8114610d25575f80fd5b50565b5f81359050610d3681610d12565b92915050565b5f8060408385031215610d5257610d51610cab565b5b5f610d5f85828601610cf5565b9250506020610d7085828601610d28565b9150509250929050565b5f60208284031215610d8f57610d8e610cab565b5b5f610d9c84828501610d28565b91505092915050565b610dae81610cce565b82525050565b610dbd81610d09565b82525050565b5f8115159050919050565b610dd781610dc3565b82525050565b60a082015f820151610df15f850182610da5565b506020820151610e046020850182610da5565b506040820151610e176040850182610db4565b506060820151610e2a6060850182610db4565b506080820151610e3d6080850182610dce565b50505050565b5f60a082019050610e565f830184610ddd565b92915050565b5f60208284031215610e7157610e70610cab565b5b5f610e7e84828501610cf5565b91505092915050565b606082015f820151610e9b5f850182610db4565b506020820151610eae6020850182610db4565b506040820151610ec16040850182610db4565b50505050565b5f606082019050610eda5f830184610e87565b92915050565b610ee981610cce565b82525050565b610ef881610d09565b82525050565b610f0781610dc3565b82525050565b5f60a082019050610f205f830188610ee0565b610f2d6020830187610ee0565b610f3a6040830186610eef565b610f476060830185610eef565b610f546080830184610efe565b9695505050505050565b5f606082019050610f715f830186610eef565b610f7e6020830185610eef565b610f8b6040830184610eef565b949350505050565b5f82825260208201905092915050565b7f496e73756666696369656e742072657075746174696f6e0000000000000000005f82015250565b5f610fd7601783610f93565b9150610fe282610fa3565b602082019050919050565b5f6020820190508181035f83015261100481610fcb565b9050919050565b7f4368616c6c656e676572206c6f636b65640000000000000000000000000000005f82015250565b5f61103f601183610f93565b915061104a8261100b565b602082019050919050565b5f6020820190508181035f83015261106c81611033565b9050919050565b7f4f70706f6e656e74206c6f636b656400000000000000000000000000000000005f82015250565b5f6110a7600f83610f93565b91506110b282611073565b602082019050919050565b5f6020820190508181035f8301526110d48161109b565b9050919050565b7f43616e6e6f74206368616c6c656e67652073656c6600000000000000000000005f82015250565b5f61110f601583610f93565b915061111a826110db565b602082019050919050565b5f6020820190508181035f83015261113c81611103565b9050919050565b7f4e487b71000000000000000000000000000000000000000000000000000000005f52601160045260245ffd5b5f61117a82610d09565b915061118583610d09565b925082820190508082111561119d5761119c611143565b5b92915050565b5f6111ad82610d09565b91506111b883610d09565b92508282039050818111156111d0576111cf611143565b5b92915050565b5f6060820190506111e95f830186610ee0565b6111f66020830185610ee0565b6112036040830184610eef565b949350505050565b7f4e487b71000000000000000000000000000000000000000000000000000000005f52603260045260245ffd5b7f416c7265616479207265736f6c766564000000000000000000000000000000005f82015250565b5f61126c601083610f93565b915061127782611238565b602082019050919050565b5f6020820190508181035f83015261129981611260565b9050919050565b7f546f6f206561726c7920746f207265736f6c76650000000000000000000000005f82015250565b5f6112d4601483610f93565b91506112df826112a0565b602082019050919050565b5f6020820190508181035f830152611301816112c8565b9050919050565b5f819050919050565b61132261131d82610d09565b611308565b82525050565b5f8160601b9050919050565b5f61133e82611328565b9050919050565b5f61134f82611334565b9050919050565b61136761136282610cce565b611345565b82525050565b5f6113788286611311565b6020820191506113888285611356565b6014820191506113988284611356565b601482019150819050949350505050565b7f4e487b71000000000000000000000000000000000000000000000000000000005f52601260045260245ffd5b5f6113e082610d09565b91506113eb83610d09565b9250826113fb576113fa6113a9565b5b828206905092915050565b5f6040820190506114195f830185610ee0565b6114266020830184610ee0565b9392505050565b7f416c7265616479206a6f696e65640000000000000000000000000000000000005f82015250565b5f611461600e83610f93565b915061146c8261142d565b602082019050919050565b5f6020820190508181035f83015261148e81611455565b905091905056fea26469706673582212207e06b050c20381d376e5b41b8a53b2cf3f1be4c4a3a1bffd412ef2e5cc90137164736f6c63430008170033",
					"opcodes": "PUSH1 0x80 PUSH1 0x40 MSTORE CALLVALUE DUP1 ISZERO PUSH2 0xF JUMPI PUSH0 DUP1 REVERT JUMPDEST POP PUSH1 0x40 MLOAD DUP1 PUSH1 0x60 ADD PUSH1 0x40 MSTORE DUP1 PUSH1 0x64 DUP2 MSTORE PUSH1 0x20 ADD PUSH2 0x3E8 DUP2 MSTORE PUSH1 0x20 ADD PUSH0 DUP2 MSTORE POP PUSH0 DUP1 CALLER PUSH20 0xFFFFFFFFFFFFFFFFFFFFFFFFFFFFFFFFFFFFFFFF AND PUSH20 0xFFFFFFFFFFFFFFFFFFFFFFFFFFFFFFFFFFFFFFFF AND DUP2 MSTORE PUSH1 0x20 ADD SWAP1 DUP2 MSTORE PUSH1 0x20 ADD PUSH0 KECCAK256 PUSH0 DUP3 ADD MLOAD DUP2 PUSH0 ADD SSTORE PUSH1 0x20 DUP3 ADD MLOAD DUP2 PUSH1 0x1 ADD SSTORE PUSH1 0x40 DUP3 ADD MLOAD DUP2 PUSH1 0x2 ADD SSTORE SWAP1 POP POP PUSH2 0x14CB DUP1 PUSH2 0x96 PUSH0 CODECOPY PUSH0 RETURN INVALID PUSH1 0x80 PUSH1 0x40 MSTORE CALLVALUE DUP1 ISZERO PUSH2 0xF JUMPI PUSH0 DUP1 REVERT JUMPDEST POP PUSH1 0x4 CALLDATASIZE LT PUSH2 0x7B JUMPI PUSH0 CALLDATALOAD PUSH1 0xE0 SHR DUP1 PUSH4 0x761C7CFE GT PUSH2 0x59 JUMPI DUP1 PUSH4 0x761C7CFE EQ PUSH2 0xFB JUMPI DUP1 PUSH4 0x8F1D3776 EQ PUSH2 0x117 JUMPI DUP1 PUSH4 0x9BF08A06 EQ PUSH2 0x14B JUMPI DUP1 PUSH4 0xE2EB41FF EQ PUSH2 0x155 JUMPI PUSH2 0x7B JUMP JUMPDEST DUP1 PUSH4 0x18021C62 EQ PUSH2 0x7F JUMPI DUP1 PUSH4 0x1BDD4B74 EQ PUSH2 0x9B JUMPI DUP1 PUSH4 0x5C12CD4B EQ PUSH2 0xCB JUMPI JUMPDEST PUSH0 DUP1 REVERT JUMPDEST PUSH2 0x99 PUSH1 0x4 DUP1 CALLDATASIZE SUB DUP2 ADD SWAP1 PUSH2 0x94 SWAP2 SWAP1 PUSH2 0xD3C JUMP JUMPDEST PUSH2 0x187 JUMP JUMPDEST STOP JUMPDEST PUSH2 0xB5 PUSH1 0x4 DUP1 CALLDATASIZE SUB DUP2 ADD SWAP1 PUSH2 0xB0 SWAP2 SWAP1 PUSH2 0xD7A JUMP JUMPDEST PUSH2 0x5A9 JUMP JUMPDEST PUSH1 0x40 MLOAD PUSH2 0xC2 SWAP2 SWAP1 PUSH2 0xE43 JUMP JUMPDEST PUSH1 0x40 MLOAD DUP1 SWAP2 SUB SWAP1 RETURN JUMPDEST PUSH2 0xE5 PUSH1 0x4 DUP1 CALLDATASIZE SUB DUP2 ADD SWAP1 PUSH2 0xE0 SWAP2 SWAP1 PUSH2 0xE5C JUMP JUMPDEST PUSH2 0x6BA JUMP JUMPDEST PUSH1 0x40 MLOAD PUSH2 0xF2 SWAP2 SWAP1 PUSH2 0xEC7 JUMP JUMPDEST PUSH1 0x40 MLOAD DUP1 SWAP2 SUB SWAP1 RETURN JUMPDEST PUSH2 0x115 PUSH1 0x4 DUP1 CALLDATASIZE SUB DUP2 ADD SWAP1 PUSH2 0x110 SWAP2 SWAP1 PUSH2 0xD7A JUMP JUMPDEST PUSH2 0x72D JUMP JUMPDEST STOP JUMPDEST PUSH2 0x131 PUSH1 0x4 DUP1 CALLDATASIZE SUB DUP2 ADD SWAP1 PUSH2 0x12C SWAP2 SWAP1 PUSH2 0xD7A JUMP JUMPDEST PUSH2 0xA8A JUMP JUMPDEST PUSH1 0x40 MLOAD PUSH2 0x142 SWAP6 SWAP5 SWAP4 SWAP3 SWAP2 SWAP1 PUSH2 0xF0D JUMP JUMPDEST PUSH1 0x40 MLOAD DUP1 SWAP2 SUB SWAP1 RETURN JUMPDEST PUSH2 0x153 PUSH2 0xB15 JUMP JUMPDEST STOP JUMPDEST PUSH2 0x16F PUSH1 0x4 DUP1 CALLDATASIZE SUB DUP2 ADD SWAP1 PUSH2 0x16A SWAP2 SWAP1 PUSH2 0xE5C JUMP JUMPDEST PUSH2 0xC10 JUMP JUMPDEST PUSH1 0x40 MLOAD PUSH2 0x17E SWAP4 SWAP3 SWAP2 SWAP1 PUSH2 0xF5E JUMP JUMPDEST PUSH1 0x40 MLOAD DUP1 SWAP2 SUB SWAP1 RETURN JUMPDEST DUP1 PUSH0 DUP1 CALLER PUSH20 0xFFFFFFFFFFFFFFFFFFFFFFFFFFFFFFFFFFFFFFFF AND PUSH20 0xFFFFFFFFFFFFFFFFFFFFFFFFFFFFFFFFFFFFFFFF AND DUP2 MSTORE PUSH1 0x20 ADD SWAP1 DUP2 MSTORE PUSH1 0x20 ADD PUSH0 KECCAK256 PUSH1 0x1 ADD SLOAD LT ISZERO PUSH2 0x209 JUMPI PUSH1 0x40 MLOAD PUSH32 0x8C379A000000000000000000000000000000000000000000000000000000000 DUP2 MSTORE PUSH1 0x4 ADD PUSH2 0x200 SWAP1 PUSH2 0xFED JUMP JUMPDEST PUSH1 0x40 MLOAD DUP1 SWAP2 SUB SWAP1 REVERT JUMPDEST TIMESTAMP PUSH0 DUP1 CALLER PUSH20 0xFFFFFFFFFFFFFFFFFFFFFFFFFFFFFFFFFFFFFFFF AND PUSH20 0xFFFFFFFFFFFFFFFFFFFFFFFFFFFFFFFFFFFFFFFF AND DUP2 MSTORE PUSH1 0x20 ADD SWAP1 DUP2 MSTORE PUSH1 0x20 ADD PUSH0 KECCAK256 PUSH1 0x2 ADD SLOAD LT PUSH2 0x28A JUMPI PUSH1 0x40 MLOAD PUSH32 0x8C379A000000000000000000000000000000000000000000000000000000000 DUP2 MSTORE PUSH1 0x4 ADD PUSH2 0x281 SWAP1 PUSH2 0x1055 JUMP JUMPDEST PUSH1 0x40 MLOAD DUP1 SWAP2 SUB SWAP1 REVERT JUMPDEST TIMESTAMP PUSH0 DUP1 DUP5 PUSH20 0xFFFFFFFFFFFFFFFFFFFFFFFFFFFFFFFFFFFFFFFF AND PUSH20 0xFFFFFFFFFFFFFFFFFFFFFFFFFFFFFFFFFFFFFFFF AND DUP2 MSTORE PUSH1 0x20 ADD SWAP1 DUP2 MSTORE PUSH1 0x20 ADD PUSH0 KECCAK256 PUSH1 0x2 ADD SLOAD LT PUSH2 0x30B JUMPI PUSH1 0x40 MLOAD PUSH32 0x8C379A000000000000000000000000000000000000000000000000000000000 DUP2 MSTORE PUSH1 0x4 ADD PUSH2 0x302 SWAP1 PUSH2 0x10BD JUMP JUMPDEST PUSH1 0x40 MLOAD DUP1 SWAP2 SUB SWAP1 REVERT JUMPDEST CALLER PUSH20 0xFFFFFFFFFFFFFFFFFFFFFFFFFFFFFFFFFFFFFFFF AND DUP3 PUSH20 0xFFFFFFFFFFFFFFFFFFFFFFFFFFFFFFFFFFFFFFFF AND SUB PUSH2 0x379 JUMPI PUSH1 0x40 MLOAD PUSH32 0x8C379A000000000000000000000000000000000000000000000000000000000 DUP2 MSTORE PUSH1 0x4 ADD PUSH2 0x370 SWAP1 PUSH2 0x1125 JUMP JUMPDEST PUSH1 0x40 MLOAD DUP1 SWAP2 SUB SWAP1 REVERT JUMPDEST PUSH3 0x15180 TIMESTAMP PUSH2 0x388 SWAP2 SWAP1 PUSH2 0x1170 JUMP JUMPDEST PUSH0 DUP1 CALLER PUSH20 0xFFFFFFFFFFFFFFFFFFFFFFFFFFFFFFFFFFFFFFFF AND PUSH20 0xFFFFFFFFFFFFFFFFFFFFFFFFFFFFFFFFFFFFFFFF AND DUP2 MSTORE PUSH1 0x20 ADD SWAP1 DUP2 MSTORE PUSH1 0x20 ADD PUSH0 KECCAK256 PUSH1 0x2 ADD DUP2 SWAP1 SSTORE POP PUSH3 0x15180 TIMESTAMP PUSH2 0x3DA SWAP2 SWAP1 PUSH2 0x1170 JUMP JUMPDEST PUSH0 DUP1 DUP5 PUSH20 0xFFFFFFFFFFFFFFFFFFFFFFFFFFFFFFFFFFFFFFFF AND PUSH20 0xFFFFFFFFFFFFFFFFFFFFFFFFFFFFFFFFFFFFFFFF AND DUP2 MSTORE PUSH1 0x20 ADD SWAP1 DUP2 MSTORE PUSH1 0x20 ADD PUSH0 KECCAK256 PUSH1 0x2 ADD DUP2 SWAP1 SSTORE POP PUSH1 0x1 PUSH1 0x40 MLOAD DUP1 PUSH1 0xA0 ADD PUSH1 0x40 MSTORE DUP1 CALLER PUSH20 0xFFFFFFFFFFFFFFFFFFFFFFFFFFFFFFFFFFFFFFFF AND DUP2 MSTORE PUSH1 0x20 ADD DUP5 PUSH20 0xFFFFFFFFFFFFFFFFFFFFFFFFFFFFFFFFFFFFFFFF AND DUP2 MSTORE PUSH1 0x20 ADD DUP4 DUP2 MSTORE PUSH1 0x20 ADD TIMESTAMP DUP2 MSTORE PUSH1 0x20 ADD PUSH0 ISZERO ISZERO DUP2 MSTORE POP SWAP1 DUP1 PUSH1 0x1 DUP2 SLOAD ADD DUP1 DUP3 SSTORE DUP1 SWAP2 POP POP PUSH1 0x1 SWAP1 SUB SWAP1 PUSH0 MSTORE PUSH1 0x20 PUSH0 KECCAK256 SWAP1 PUSH1 0x5 MUL ADD PUSH0 SWAP1 SWAP2 SWAP1 SWAP2 SWAP1 SWAP2 POP PUSH0 DUP3 ADD MLOAD DUP2 PUSH0 ADD PUSH0 PUSH2 0x100 EXP DUP2 SLOAD DUP2 PUSH20 0xFFFFFFFFFFFFFFFFFFFFFFFFFFFFFFFFFFFFFFFF MUL NOT AND SWAP1 DUP4 PUSH20 0xFFFFFFFFFFFFFFFFFFFFFFFFFFFFFFFFFFFFFFFF AND MUL OR SWAP1 SSTORE POP PUSH1 0x20 DUP3 ADD MLOAD DUP2 PUSH1 0x1 ADD PUSH0 PUSH2 0x100 EXP DUP2 SLOAD DUP2 PUSH20 0xFFFFFFFFFFFFFFFFFFFFFFFFFFFFFFFFFFFFFFFF MUL NOT AND SWAP1 DUP4 PUSH20 0xFFFFFFFFFFFFFFFFFFFFFFFFFFFFFFFFFFFFFFFF AND MUL OR SWAP1 SSTORE POP PUSH1 0x40 DUP3 ADD MLOAD DUP2 PUSH1 0x2 ADD SSTORE PUSH1 0x60 DUP3 ADD MLOAD DUP2 PUSH1 0x3 ADD SSTORE PUSH1 0x80 DUP3 ADD MLOAD DUP2 PUSH1 0x4 ADD PUSH0 PUSH2 0x100 EXP DUP2 SLOAD DUP2 PUSH1 0xFF MUL NOT AND SWAP1 DUP4 ISZERO ISZERO MUL OR SWAP1 SSTORE POP POP POP PUSH1 0x1 DUP1 DUP1 SLOAD SWAP1 POP PUSH2 0x56A SWAP2 SWAP1 PUSH2 0x11A3 JUMP JUMPDEST PUSH32 0xD2F7931A802085B3D0234D4C320CE7EE0041DA96678CE2BF5C93E8D3D7E65F52 CALLER DUP5 DUP5 PUSH1 0x40 MLOAD PUSH2 0x59D SWAP4 SWAP3 SWAP2 SWAP1 PUSH2 0x11D6 JUMP JUMPDEST PUSH1 0x40 MLOAD DUP1 SWAP2 SUB SWAP1 LOG2 POP POP JUMP JUMPDEST PUSH2 0x5B1 PUSH2 0xC35 JUMP JUMPDEST PUSH1 0x1 DUP3 DUP2 SLOAD DUP2 LT PUSH2 0x5C5 JUMPI PUSH2 0x5C4 PUSH2 0x120B JUMP JUMPDEST JUMPDEST SWAP1 PUSH0 MSTORE PUSH1 0x20 PUSH0 KECCAK256 SWAP1 PUSH1 0x5 MUL ADD PUSH1 0x40 MLOAD DUP1 PUSH1 0xA0 ADD PUSH1 0x40 MSTORE SWAP1 DUP2 PUSH0 DUP3 ADD PUSH0 SWAP1 SLOAD SWAP1 PUSH2 0x100 EXP SWAP1 DIV PUSH20 0xFFFFFFFFFFFFFFFFFFFFFFFFFFFFFFFFFFFFFFFF AND PUSH20 0xFFFFFFFFFFFFFFFFFFFFFFFFFFFFFFFFFFFFFFFF AND PUSH20 0xFFFFFFFFFFFFFFFFFFFFFFFFFFFFFFFFFFFFFFFF AND DUP2 MSTORE PUSH1 0x20 ADD PUSH1 0x1 DUP3 ADD PUSH0 SWAP1 SLOAD SWAP1 PUSH2 0x100 EXP SWAP1 DIV PUSH20 0xFFFFFFFFFFFFFFFFFFFFFFFFFFFFFFFFFFFFFFFF AND PUSH20 0xFFFFFFFFFFFFFFFFFFFFFFFFFFFFFFFFFFFFFFFF AND PUSH20 0xFFFFFFFFFFFFFFFFFFFFFFFFFFFFFFFFFFFFFFFF AND DUP2 MSTORE PUSH1 0x20 ADD PUSH1 0x2 DUP3 ADD SLOAD DUP2 MSTORE PUSH1 0x20 ADD PUSH1 0x3 DUP3 ADD SLOAD DUP2 MSTORE PUSH1 0x20 ADD PUSH1 0x4 DUP3 ADD PUSH0 SWAP1 SLOAD SWAP1 PUSH2 0x100 EXP SWAP1 DIV PUSH1 0xFF AND ISZERO ISZERO ISZERO ISZERO DUP2 MSTORE POP POP SWAP1 POP SWAP2 SWAP1 POP JUMP JUMPDEST PUSH2 0x6C2 PUSH2 0xC8D JUMP JUMPDEST PUSH0 DUP1 DUP4 PUSH20 0xFFFFFFFFFFFFFFFFFFFFFFFFFFFFFFFFFFFFFFFF AND PUSH20 0xFFFFFFFFFFFFFFFFFFFFFFFFFFFFFFFFFFFFFFFF AND DUP2 MSTORE PUSH1 0x20 ADD SWAP1 DUP2 MSTORE PUSH1 0x20 ADD PUSH0 KECCAK256 PUSH1 0x40 MLOAD DUP1 PUSH1 0x60 ADD PUSH1 0x40 MSTORE SWAP1 DUP2 PUSH0 DUP3 ADD SLOAD DUP2 MSTORE PUSH1 0x20 ADD PUSH1 0x1 DUP3 ADD SLOAD DUP2 MSTORE PUSH1 0x20 ADD PUSH1 0x2 DUP3 ADD SLOAD DUP2 MSTORE POP POP SWAP1 POP SWAP2 SWAP1 POP JUMP JUMPDEST PUSH0 PUSH1 0x1 DUP3 DUP2 SLOAD DUP2 LT PUSH2 0x742 JUMPI PUSH2 0x741 PUSH2 0x120B JUMP JUMPDEST JUMPDEST SWAP1 PUSH0 MSTORE PUSH1 0x20 PUSH0 KECCAK256 SWAP1 PUSH1 0x5 MUL ADD SWAP1 POP DUP1 PUSH1 0x4 ADD PUSH0 SWAP1 SLOAD SWAP1 PUSH2 0x100 EXP SWAP1 DIV PUSH1 0xFF AND ISZERO PUSH2 0x7A1 JUMPI PUSH1 0x40 MLOAD PUSH32 0x8C379A000000000000000000000000000000000000000000000000000000000 DUP2 MSTORE PUSH1 0x4 ADD PUSH2 0x798 SWAP1 PUSH2 0x1282 JUMP JUMPDEST PUSH1 0x40 MLOAD DUP1 SWAP2 SUB SWAP1 REVERT JUMPDEST PUSH3 0x15180 DUP2 PUSH1 0x3 ADD SLOAD PUSH2 0x7B4 SWAP2 SWAP1 PUSH2 0x1170 JUMP JUMPDEST TIMESTAMP LT ISZERO PUSH2 0x7F6 JUMPI PUSH1 0x40 MLOAD PUSH32 0x8C379A000000000000000000000000000000000000000000000000000000000 DUP2 MSTORE PUSH1 0x4 ADD PUSH2 0x7ED SWAP1 PUSH2 0x12EA JUMP JUMPDEST PUSH1 0x40 MLOAD DUP1 SWAP2 SUB SWAP1 REVERT JUMPDEST PUSH1 0x1 DUP2 PUSH1 0x4 ADD PUSH0 PUSH2 0x100 EXP DUP2 SLOAD DUP2 PUSH1 0xFF MUL NOT AND SWAP1 DUP4 ISZERO ISZERO MUL OR SWAP1 SSTORE POP PUSH0 DUP1 PUSH1 0x2 TIMESTAMP DUP5 PUSH0 ADD PUSH0 SWAP1 SLOAD SWAP1 PUSH2 0x100 EXP SWAP1 DIV PUSH20 0xFFFFFFFFFFFFFFFFFFFFFFFFFFFFFFFFFFFFFFFF AND DUP6 PUSH1 0x1 ADD PUSH0 SWAP1 SLOAD SWAP1 PUSH2 0x100 EXP SWAP1 DIV PUSH20 0xFFFFFFFFFFFFFFFFFFFFFFFFFFFFFFFFFFFFFFFF AND PUSH1 0x40 MLOAD PUSH1 0x20 ADD PUSH2 0x870 SWAP4 SWAP3 SWAP2 SWAP1 PUSH2 0x136D JUMP JUMPDEST PUSH1 0x40 MLOAD PUSH1 0x20 DUP2 DUP4 SUB SUB DUP2 MSTORE SWAP1 PUSH1 0x40 MSTORE DUP1 MLOAD SWAP1 PUSH1 0x20 ADD KECCAK256 PUSH0 SHR PUSH2 0x892 SWAP2 SWAP1 PUSH2 0x13D6 JUMP JUMPDEST EQ SWAP1 POP PUSH0 DUP2 PUSH2 0x8C4 JUMPI DUP3 PUSH1 0x1 ADD PUSH0 SWAP1 SLOAD SWAP1 PUSH2 0x100 EXP SWAP1 DIV PUSH20 0xFFFFFFFFFFFFFFFFFFFFFFFFFFFFFFFFFFFFFFFF AND PUSH2 0x8E8 JUMP JUMPDEST DUP3 PUSH0 ADD PUSH0 SWAP1 SLOAD SWAP1 PUSH2 0x100 EXP SWAP1 DIV PUSH20 0xFFFFFFFFFFFFFFFFFFFFFFFFFFFFFFFFFFFFFFFF AND JUMPDEST SWAP1 POP PUSH0 DUP3 PUSH2 0x918 JUMPI DUP4 PUSH0 ADD PUSH0 SWAP1 SLOAD SWAP1 PUSH2 0x100 EXP SWAP1 DIV PUSH20 0xFFFFFFFFFFFFFFFFFFFFFFFFFFFFFFFFFFFFFFFF AND PUSH2 0x93D JUMP JUMPDEST DUP4 PUSH1 0x1 ADD PUSH0 SWAP1 SLOAD SWAP1 PUSH2 0x100 EXP SWAP1 DIV PUSH20 0xFFFFFFFFFFFFFFFFFFFFFFFFFFFFFFFFFFFFFFFF AND JUMPDEST SWAP1 POP DUP4 PUSH1 0x2 ADD SLOAD PUSH0 DUP1 DUP5 PUSH20 0xFFFFFFFFFFFFFFFFFFFFFFFFFFFFFFFFFFFFFFFF AND PUSH20 0xFFFFFFFFFFFFFFFFFFFFFFFFFFFFFFFFFFFFFFFF AND DUP2 MSTORE PUSH1 0x20 ADD SWAP1 DUP2 MSTORE PUSH1 0x20 ADD PUSH0 KECCAK256 PUSH0 ADD PUSH0 DUP3 DUP3 SLOAD PUSH2 0x990 SWAP2 SWAP1 PUSH2 0x1170 JUMP JUMPDEST SWAP3 POP POP DUP2 SWAP1 SSTORE POP DUP4 PUSH1 0x2 ADD SLOAD PUSH0 DUP1 DUP5 PUSH20 0xFFFFFFFFFFFFFFFFFFFFFFFFFFFFFFFFFFFFFFFF AND PUSH20 0xFFFFFFFFFFFFFFFFFFFFFFFFFFFFFFFFFFFFFFFF AND DUP2 MSTORE PUSH1 0x20 ADD SWAP1 DUP2 MSTORE PUSH1 0x20 ADD PUSH0 KECCAK256 PUSH1 0x1 ADD PUSH0 DUP3 DUP3 SLOAD PUSH2 0x9E9 SWAP2 SWAP1 PUSH2 0x1170 JUMP JUMPDEST SWAP3 POP POP DUP2 SWAP1 SSTORE POP DUP4 PUSH1 0x2 ADD SLOAD PUSH0 DUP1 DUP4 PUSH20 0xFFFFFFFFFFFFFFFFFFFFFFFFFFFFFFFFFFFFFFFF AND PUSH20 0xFFFFFFFFFFFFFFFFFFFFFFFFFFFFFFFFFFFFFFFF AND DUP2 MSTORE PUSH1 0x20 ADD SWAP1 DUP2 MSTORE PUSH1 0x20 ADD PUSH0 KECCAK256 PUSH1 0x1 ADD PUSH0 DUP3 DUP3 SLOAD PUSH2 0xA42 SWAP2 SWAP1 PUSH2 0x11A3 JUMP JUMPDEST SWAP3 POP POP DUP2 SWAP1 SSTORE POP DUP5 PUSH32 0xE11C3F7679C53B0CE89BFA093950841F4D153303A63E52914CE24B88F993F72D DUP4 DUP4 PUSH1 0x40 MLOAD PUSH2 0xA7B SWAP3 SWAP2 SWAP1 PUSH2 0x1406 JUMP JUMPDEST PUSH1 0x40 MLOAD DUP1 SWAP2 SUB SWAP1 LOG2 POP POP POP POP POP JUMP JUMPDEST PUSH1 0x1 DUP2 DUP2 SLOAD DUP2 LT PUSH2 0xA99 JUMPI PUSH0 DUP1 REVERT JUMPDEST SWAP1 PUSH0 MSTORE PUSH1 0x20 PUSH0 KECCAK256 SWAP1 PUSH1 0x5 MUL ADD PUSH0 SWAP2 POP SWAP1 POP DUP1 PUSH0 ADD PUSH0 SWAP1 SLOAD SWAP1 PUSH2 0x100 EXP SWAP1 DIV PUSH20 0xFFFFFFFFFFFFFFFFFFFFFFFFFFFFFFFFFFFFFFFF AND SWAP1 DUP1 PUSH1 0x1 ADD PUSH0 SWAP1 SLOAD SWAP1 PUSH2 0x100 EXP SWAP1 DIV PUSH20 0xFFFFFFFFFFFFFFFFFFFFFFFFFFFFFFFFFFFFFFFF AND SWAP1 DUP1 PUSH1 0x2 ADD SLOAD SWAP1 DUP1 PUSH1 0x3 ADD SLOAD SWAP1 DUP1 PUSH1 0x4 ADD PUSH0 SWAP1 SLOAD SWAP1 PUSH2 0x100 EXP SWAP1 DIV PUSH1 0xFF AND SWAP1 POP DUP6 JUMP JUMPDEST PUSH0 DUP1 PUSH0 CALLER PUSH20 0xFFFFFFFFFFFFFFFFFFFFFFFFFFFFFFFFFFFFFFFF AND PUSH20 0xFFFFFFFFFFFFFFFFFFFFFFFFFFFFFFFFFFFFFFFF AND DUP2 MSTORE PUSH1 0x20 ADD SWAP1 DUP2 MSTORE PUSH1 0x20 ADD PUSH0 KECCAK256 PUSH1 0x1 ADD SLOAD EQ PUSH2 0xB96 JUMPI PUSH1 0x40 MLOAD PUSH32 0x8C379A000000000000000000000000000000000000000000000000000000000 DUP2 MSTORE PUSH1 0x4 ADD PUSH2 0xB8D SWAP1 PUSH2 0x1477 JUMP JUMPDEST PUSH1 0x40 MLOAD DUP1 SWAP2 SUB SWAP1 REVERT JUMPDEST PUSH1 0x40 MLOAD DUP1 PUSH1 0x60 ADD PUSH1 0x40 MSTORE DUP1 PUSH1 0xA DUP2 MSTORE PUSH1 0x20 ADD PUSH1 0x64 DUP2 MSTORE PUSH1 0x20 ADD PUSH0 DUP2 MSTORE POP PUSH0 DUP1 CALLER PUSH20 0xFFFFFFFFFFFFFFFFFFFFFFFFFFFFFFFFFFFFFFFF AND PUSH20 0xFFFFFFFFFFFFFFFFFFFFFFFFFFFFFFFFFFFFFFFF AND DUP2 MSTORE PUSH1 0x20 ADD SWAP1 DUP2 MSTORE PUSH1 0x20 ADD PUSH0 KECCAK256 PUSH0 DUP3 ADD MLOAD DUP2 PUSH0 ADD SSTORE PUSH1 0x20 DUP3 ADD MLOAD DUP2 PUSH1 0x1 ADD SSTORE PUSH1 0x40 DUP3 ADD MLOAD DUP2 PUSH1 0x2 ADD SSTORE SWAP1 POP POP JUMP JUMPDEST PUSH0 PUSH1 0x20 MSTORE DUP1 PUSH0 MSTORE PUSH1 0x40 PUSH0 KECCAK256 PUSH0 SWAP2 POP SWAP1 POP DUP1 PUSH0 ADD SLOAD SWAP1 DUP1 PUSH1 0x1 ADD SLOAD SWAP1 DUP1 PUSH1 0x2 ADD SLOAD SWAP1 POP DUP4 JUMP JUMPDEST PUSH1 0x40 MLOAD DUP1 PUSH1 0xA0 ADD PUSH1 0x40 MSTORE DUP1 PUSH0 PUSH20 0xFFFFFFFFFFFFFFFFFFFFFFFFFFFFFFFFFFFFFFFF AND DUP2 MSTORE PUSH1 0x20 ADD PUSH0 PUSH20 0xFFFFFFFFFFFFFFFFFFFFFFFFFFFFFFFFFFFFFFFF AND DUP2 MSTORE PUSH1 0x20 ADD PUSH0 DUP2 MSTORE PUSH1 0x20 ADD PUSH0 DUP2 MSTORE PUSH1 0x20 ADD PUSH0 ISZERO ISZERO DUP2 MSTORE POP SWAP1 JUMP JUMPDEST PUSH1 0x40 MLOAD DUP1 PUSH1 0x60 ADD PUSH1 0x40 MSTORE DUP1 PUSH0 DUP2 MSTORE PUSH1 0x20 ADD PUSH0 DUP2 MSTORE PUSH1 0x20 ADD PUSH0 DUP2 MSTORE POP SWAP1 JUMP JUMPDEST PUSH0 DUP1 REVERT JUMPDEST PUSH0 PUSH20 0xFFFFFFFFFFFFFFFFFFFFFFFFFFFFFFFFFFFFFFFF DUP3 AND SWAP1 POP SWAP2 SWAP1 POP JUMP JUMPDEST PUSH0 PUSH2 0xCD8 DUP3 PUSH2 0xCAF JUMP JUMPDEST SWAP1 POP SWAP2 SWAP1 POP JUMP JUMPDEST PUSH2 0xCE8 DUP2 PUSH2 0xCCE JUMP JUMPDEST DUP2 EQ PUSH2 0xCF2 JUMPI PUSH0 DUP1 REVERT JUMPDEST POP JUMP JUMPDEST PUSH0 DUP2 CALLDATALOAD SWAP1 POP PUSH2 0xD03 DUP2 PUSH2 0xCDF JUMP JUMPDEST SWAP3 SWAP2 POP POP JUMP JUMPDEST PUSH0 DUP2 SWAP1 POP SWAP2 SWAP1 POP JUMP JUMPDEST PUSH2 0xD1B DUP2 PUSH2 0xD09 JUMP JUMPDEST DUP2 EQ PUSH2 0xD25 JUMPI PUSH0 DUP1 REVERT JUMPDEST POP JUMP JUMPDEST PUSH0 DUP2 CALLDATALOAD SWAP1 POP PUSH2 0xD36 DUP2 PUSH2 0xD12 JUMP JUMPDEST SWAP3 SWAP2 POP POP JUMP JUMPDEST PUSH0 DUP1 PUSH1 0x40 DUP4 DUP6 SUB SLT ISZERO PUSH2 0xD52 JUMPI PUSH2 0xD51 PUSH2 0xCAB JUMP JUMPDEST JUMPDEST PUSH0 PUSH2 0xD5F DUP6 DUP3 DUP7 ADD PUSH2 0xCF5 JUMP JUMPDEST SWAP3 POP POP PUSH1 0x20 PUSH2 0xD70 DUP6 DUP3 DUP7 ADD PUSH2 0xD28 JUMP JUMPDEST SWAP2 POP POP SWAP3 POP SWAP3 SWAP1 POP JUMP JUMPDEST PUSH0 PUSH1 0x20 DUP3 DUP5 SUB SLT ISZERO PUSH2 0xD8F JUMPI PUSH2 0xD8E PUSH2 0xCAB JUMP JUMPDEST JUMPDEST PUSH0 PUSH2 0xD9C DUP5 DUP3 DUP6 ADD PUSH2 0xD28 JUMP JUMPDEST SWAP2 POP POP SWAP3 SWAP2 POP POP JUMP JUMPDEST PUSH2 0xDAE DUP2 PUSH2 0xCCE JUMP JUMPDEST DUP3 MSTORE POP POP JUMP JUMPDEST PUSH2 0xDBD DUP2 PUSH2 0xD09 JUMP JUMPDEST DUP3 MSTORE POP POP JUMP JUMPDEST PUSH0 DUP2 ISZERO ISZERO SWAP1 POP SWAP2 SWAP1 POP JUMP JUMPDEST PUSH2 0xDD7 DUP2 PUSH2 0xDC3 JUMP JUMPDEST DUP3 MSTORE POP POP JUMP JUMPDEST PUSH1 0xA0 DUP3 ADD PUSH0 DUP3 ADD MLOAD PUSH2 0xDF1 PUSH0 DUP6 ADD DUP3 PUSH2 0xDA5 JUMP JUMPDEST POP PUSH1 0x20 DUP3 ADD MLOAD PUSH2 0xE04 PUSH1 0x20 DUP6 ADD DUP3 PUSH2 0xDA5 JUMP JUMPDEST POP PUSH1 0x40 DUP3 ADD MLOAD PUSH2 0xE17 PUSH1 0x40 DUP6 ADD DUP3 PUSH2 0xDB4 JUMP JUMPDEST POP PUSH1 0x60 DUP3 ADD MLOAD PUSH2 0xE2A PUSH1 0x60 DUP6 ADD DUP3 PUSH2 0xDB4 JUMP JUMPDEST POP PUSH1 0x80 DUP3 ADD MLOAD PUSH2 0xE3D PUSH1 0x80 DUP6 ADD DUP3 PUSH2 0xDCE JUMP JUMPDEST POP POP POP POP JUMP JUMPDEST PUSH0 PUSH1 0xA0 DUP3 ADD SWAP1 POP PUSH2 0xE56 PUSH0 DUP4 ADD DUP5 PUSH2 0xDDD JUMP JUMPDEST SWAP3 SWAP2 POP POP JUMP JUMPDEST PUSH0 PUSH1 0x20 DUP3 DUP5 SUB SLT ISZERO PUSH2 0xE71 JUMPI PUSH2 0xE70 PUSH2 0xCAB JUMP JUMPDEST JUMPDEST PUSH0 PUSH2 0xE7E DUP5 DUP3 DUP6 ADD PUSH2 0xCF5 JUMP JUMPDEST SWAP2 POP POP SWAP3 SWAP2 POP POP JUMP JUMPDEST PUSH1 0x60 DUP3 ADD PUSH0 DUP3 ADD MLOAD PUSH2 0xE9B PUSH0 DUP6 ADD DUP3 PUSH2 0xDB4 JUMP JUMPDEST POP PUSH1 0x20 DUP3 ADD MLOAD PUSH2 0xEAE PUSH1 0x20 DUP6 ADD DUP3 PUSH2 0xDB4 JUMP JUMPDEST POP PUSH1 0x40 DUP3 ADD MLOAD PUSH2 0xEC1 PUSH1 0x40 DUP6 ADD DUP3 PUSH2 0xDB4 JUMP JUMPDEST POP POP POP POP JUMP JUMPDEST PUSH0 PUSH1 0x60 DUP3 ADD SWAP1 POP PUSH2 0xEDA PUSH0 DUP4 ADD DUP5 PUSH2 0xE87 JUMP JUMPDEST SWAP3 SWAP2 POP POP JUMP JUMPDEST PUSH2 0xEE9 DUP2 PUSH2 0xCCE JUMP JUMPDEST DUP3 MSTORE POP POP JUMP JUMPDEST PUSH2 0xEF8 DUP2 PUSH2 0xD09 JUMP JUMPDEST DUP3 MSTORE POP POP JUMP JUMPDEST PUSH2 0xF07 DUP2 PUSH2 0xDC3 JUMP JUMPDEST DUP3 MSTORE POP POP JUMP JUMPDEST PUSH0 PUSH1 0xA0 DUP3 ADD SWAP1 POP PUSH2 0xF20 PUSH0 DUP4 ADD DUP9 PUSH2 0xEE0 JUMP JUMPDEST PUSH2 0xF2D PUSH1 0x20 DUP4 ADD DUP8 PUSH2 0xEE0 JUMP JUMPDEST PUSH2 0xF3A PUSH1 0x40 DUP4 ADD DUP7 PUSH2 0xEEF JUMP JUMPDEST PUSH2 0xF47 PUSH1 0x60 DUP4 ADD DUP6 PUSH2 0xEEF JUMP JUMPDEST PUSH2 0xF54 PUSH1 0x80 DUP4 ADD DUP5 PUSH2 0xEFE JUMP JUMPDEST SWAP7 SWAP6 POP POP POP POP POP POP JUMP JUMPDEST PUSH0 PUSH1 0x60 DUP3 ADD SWAP1 POP PUSH2 0xF71 PUSH0 DUP4 ADD DUP7 PUSH2 0xEEF JUMP JUMPDEST PUSH2 0xF7E PUSH1 0x20 DUP4 ADD DUP6 PUSH2 0xEEF JUMP JUMPDEST PUSH2 0xF8B PUSH1 0x40 DUP4 ADD DUP5 PUSH2 0xEEF JUMP JUMPDEST SWAP5 SWAP4 POP POP POP POP JUMP JUMPDEST PUSH0 DUP3 DUP3 MSTORE PUSH1 0x20 DUP3 ADD SWAP1 POP SWAP3 SWAP2 POP POP JUMP JUMPDEST PUSH32 0x496E73756666696369656E742072657075746174696F6E000000000000000000 PUSH0 DUP3 ADD MSTORE POP JUMP JUMPDEST PUSH0 PUSH2 0xFD7 PUSH1 0x17 DUP4 PUSH2 0xF93 JUMP JUMPDEST SWAP2 POP PUSH2 0xFE2 DUP3 PUSH2 0xFA3 JUMP JUMPDEST PUSH1 0x20 DUP3 ADD SWAP1 POP SWAP2 SWAP1 POP JUMP JUMPDEST PUSH0 PUSH1 0x20 DUP3 ADD SWAP1 POP DUP2 DUP2 SUB PUSH0 DUP4 ADD MSTORE PUSH2 0x1004 DUP2 PUSH2 0xFCB JUMP JUMPDEST SWAP1 POP SWAP2 SWAP1 POP JUMP JUMPDEST PUSH32 0x4368616C6C656E676572206C6F636B6564000000000000000000000000000000 PUSH0 DUP3 ADD MSTORE POP JUMP JUMPDEST PUSH0 PUSH2 0x103F PUSH1 0x11 DUP4 PUSH2 0xF93 JUMP JUMPDEST SWAP2 POP PUSH2 0x104A DUP3 PUSH2 0x100B JUMP JUMPDEST PUSH1 0x20 DUP3 ADD SWAP1 POP SWAP2 SWAP1 POP JUMP JUMPDEST PUSH0 PUSH1 0x20 DUP3 ADD SWAP1 POP DUP2 DUP2 SUB PUSH0 DUP4 ADD MSTORE PUSH2 0x106C DUP2 PUSH2 0x1033 JUMP JUMPDEST SWAP1 POP SWAP2 SWAP1 POP JUMP JUMPDEST PUSH32 0x4F70706F6E656E74206C6F636B65640000000000000000000000000000000000 PUSH0 DUP3 ADD MSTORE POP JUMP JUMPDEST PUSH0 PUSH2 0x10A7 PUSH1 0xF DUP4 PUSH2 0xF93 JUMP JUMPDEST SWAP2 POP PUSH2 0x10B2 DUP3 PUSH2 0x1073 JUMP JUMPDEST PUSH1 0x20 DUP3 ADD SWAP1 POP SWAP2 SWAP1 POP JUMP JUMPDEST PUSH0 PUSH1 0x20 DUP3 ADD SWAP1 POP DUP2 DUP2 SUB PUSH0 DUP4 ADD MSTORE PUSH2 0x10D4 DUP2 PUSH2 0x109B JUMP JUMPDEST SWAP1 POP SWAP2 SWAP1 POP JUMP JUMPDEST PUSH32 0x43616E6E6F74206368616C6C656E67652073656C660000000000000000000000 PUSH0 DUP3 ADD MSTORE POP JUMP JUMPDEST PUSH0 PUSH2 0x110F PUSH1 0x15 DUP4 PUSH2 0xF93 JUMP JUMPDEST SWAP2 POP PUSH2 0x111A DUP3 PUSH2 0x10DB JUMP JUMPDEST PUSH1 0x20 DUP3 ADD SWAP1 POP SWAP2 SWAP1 POP JUMP JUMPDEST PUSH0 PUSH1 0x20 DUP3 ADD SWAP1 POP DUP2 DUP2 SUB PUSH0 DUP4 ADD MSTORE PUSH2 0x113C DUP2 PUSH2 0x1103 JUMP JUMPDEST SWAP1 POP SWAP2 SWAP1 POP JUMP JUMPDEST PUSH32 0x4E487B7100000000000000000000000000000000000000000000000000000000 PUSH0 MSTORE PUSH1 0x11 PUSH1 0x4 MSTORE PUSH1 0x24 PUSH0 REVERT JUMPDEST PUSH0 PUSH2 0x117A DUP3 PUSH2 0xD09 JUMP JUMPDEST SWAP2 POP PUSH2 0x1185 DUP4 PUSH2 0xD09 JUMP JUMPDEST SWAP3 POP DUP3 DUP3 ADD SWAP1 POP DUP1 DUP3 GT ISZERO PUSH2 0x119D JUMPI PUSH2 0x119C PUSH2 0x1143 JUMP JUMPDEST JUMPDEST SWAP3 SWAP2 POP POP JUMP JUMPDEST PUSH0 PUSH2 0x11AD DUP3 PUSH2 0xD09 JUMP JUMPDEST SWAP2 POP PUSH2 0x11B8 DUP4 PUSH2 0xD09 JUMP JUMPDEST SWAP3 POP DUP3 DUP3 SUB SWAP1 POP DUP2 DUP2 GT ISZERO PUSH2 0x11D0 JUMPI PUSH2 0x11CF PUSH2 0x1143 JUMP JUMPDEST JUMPDEST SWAP3 SWAP2 POP POP JUMP JUMPDEST PUSH0 PUSH1 0x60 DUP3 ADD SWAP1 POP PUSH2 0x11E9 PUSH0 DUP4 ADD DUP7 PUSH2 0xEE0 JUMP JUMPDEST PUSH2 0x11F6 PUSH1 0x20 DUP4 ADD DUP6 PUSH2 0xEE0 JUMP JUMPDEST PUSH2 0x1203 PUSH1 0x40 DUP4 ADD DUP5 PUSH2 0xEEF JUMP JUMPDEST SWAP5 SWAP4 POP POP POP POP JUMP JUMPDEST PUSH32 0x4E487B7100000000000000000000000000000000000000000000000000000000 PUSH0 MSTORE PUSH1 0x32 PUSH1 0x4 MSTORE PUSH1 0x24 PUSH0 REVERT JUMPDEST PUSH32 0x416C7265616479207265736F6C76656400000000000000000000000000000000 PUSH0 DUP3 ADD MSTORE POP JUMP JUMPDEST PUSH0 PUSH2 0x126C PUSH1 0x10 DUP4 PUSH2 0xF93 JUMP JUMPDEST SWAP2 POP PUSH2 0x1277 DUP3 PUSH2 0x1238 JUMP JUMPDEST PUSH1 0x20 DUP3 ADD SWAP1 POP SWAP2 SWAP1 POP JUMP JUMPDEST PUSH0 PUSH1 0x20 DUP3 ADD SWAP1 POP DUP2 DUP2 SUB PUSH0 DUP4 ADD MSTORE PUSH2 0x1299 DUP2 PUSH2 0x1260 JUMP JUMPDEST SWAP1 POP SWAP2 SWAP1 POP JUMP JUMPDEST PUSH32 0x546F6F206561726C7920746F207265736F6C7665000000000000000000000000 PUSH0 DUP3 ADD MSTORE POP JUMP JUMPDEST PUSH0 PUSH2 0x12D4 PUSH1 0x14 DUP4 PUSH2 0xF93 JUMP JUMPDEST SWAP2 POP PUSH2 0x12DF DUP3 PUSH2 0x12A0 JUMP JUMPDEST PUSH1 0x20 DUP3 ADD SWAP1 POP SWAP2 SWAP1 POP JUMP JUMPDEST PUSH0 PUSH1 0x20 DUP3 ADD SWAP1 POP DUP2 DUP2 SUB PUSH0 DUP4 ADD MSTORE PUSH2 0x1301 DUP2 PUSH2 0x12C8 JUMP JUMPDEST SWAP1 POP SWAP2 SWAP1 POP JUMP JUMPDEST PUSH0 DUP2 SWAP1 POP SWAP2 SWAP1 POP JUMP JUMPDEST PUSH2 0x1322 PUSH2 0x131D DUP3 PUSH2 0xD09 JUMP JUMPDEST PUSH2 0x1308 JUMP JUMPDEST DUP3 MSTORE POP POP JUMP JUMPDEST PUSH0 DUP2 PUSH1 0x60 SHL SWAP1 POP SWAP2 SWAP1 POP JUMP JUMPDEST PUSH0 PUSH2 0x133E DUP3 PUSH2 0x1328 JUMP JUMPDEST SWAP1 POP SWAP2 SWAP1 POP JUMP JUMPDEST PUSH0 PUSH2 0x134F DUP3 PUSH2 0x1334 JUMP JUMPDEST SWAP1 POP SWAP2 SWAP1 POP JUMP JUMPDEST PUSH2 0x1367 PUSH2 0x1362 DUP3 PUSH2 0xCCE JUMP JUMPDEST PUSH2 0x1345 JUMP JUMPDEST DUP3 MSTORE POP POP JUMP JUMPDEST PUSH0 PUSH2 0x1378 DUP3 DUP7 PUSH2 0x1311 JUMP JUMPDEST PUSH1 0x20 DUP3 ADD SWAP2 POP PUSH2 0x1388 DUP3 DUP6 PUSH2 0x1356 JUMP JUMPDEST PUSH1 0x14 DUP3 ADD SWAP2 POP PUSH2 0x1398 DUP3 DUP5 PUSH2 0x1356 JUMP JUMPDEST PUSH1 0x14 DUP3 ADD SWAP2 POP DUP2 SWAP1 POP SWAP5 SWAP4 POP POP POP POP JUMP JUMPDEST PUSH32 0x4E487B7100000000000000000000000000000000000000000000000000000000 PUSH0 MSTORE PUSH1 0x12 PUSH1 0x4 MSTORE PUSH1 0x24 PUSH0 REVERT JUMPDEST PUSH0 PUSH2 0x13E0 DUP3 PUSH2 0xD09 JUMP JUMPDEST SWAP2 POP PUSH2 0x13EB DUP4 PUSH2 0xD09 JUMP JUMPDEST SWAP3 POP DUP3 PUSH2 0x13FB JUMPI PUSH2 0x13FA PUSH2 0x13A9 JUMP JUMPDEST JUMPDEST DUP3 DUP3 MOD SWAP1 POP SWAP3 SWAP2 POP POP JUMP JUMPDEST PUSH0 PUSH1 0x40 DUP3 ADD SWAP1 POP PUSH2 0x1419 PUSH0 DUP4 ADD DUP6 PUSH2 0xEE0 JUMP JUMPDEST PUSH2 0x1426 PUSH1 0x20 DUP4 ADD DUP5 PUSH2 0xEE0 JUMP JUMPDEST SWAP4 SWAP3 POP POP POP JUMP JUMPDEST PUSH32 0x416C7265616479206A6F696E6564000000000000000000000000000000000000 PUSH0 DUP3 ADD MSTORE POP JUMP JUMPDEST PUSH0 PUSH2 0x1461 PUSH1 0xE DUP4 PUSH2 0xF93 JUMP JUMPDEST SWAP2 POP PUSH2 0x146C DUP3 PUSH2 0x142D JUMP JUMPDEST PUSH1 0x20 DUP3 ADD SWAP1 POP SWAP2 SWAP1 POP JUMP JUMPDEST PUSH0 PUSH1 0x20 DUP3 ADD SWAP1 POP DUP2 DUP2 SUB PUSH0 DUP4 ADD MSTORE PUSH2 0x148E DUP2 PUSH2 0x1455 JUMP JUMPDEST SWAP1 POP SWAP2 SWAP1 POP JUMP INVALID LOG2 PUSH5 0x6970667358 0x22 SLT KECCAK256 PUSH31 0x6B050C20381D376E5B41B8A53B2CF3F1BE4C4A3A1BFFD412EF2E5CC901371 PUSH5 0x736F6C6343 STOP ADDMOD OR STOP CALLER "
				},
				"gasEstimates": {
					"creation": {
						"codeDepositCost": "1064600",
						"executionCost": "50527",
						"totalCost": "1115127"
					},
					"external": {
						"challenges(uint256)": "infinite",
						"createChallenge(address,uint256)": "infinite",
						"getChallenge(uint256)": "infinite",
						"getPlayer(address)": "infinite",
						"joinArena()": "51836",
						"players(address)": "infinite",
						"resolveChallenge(uint256)": "infinite"
					}
				},
				"methodIdentifiers": {
					"challenges(uint256)": "8f1d3776",
					"createChallenge(address,uint256)": "18021c62",
					"getChallenge(uint256)": "1bdd4b74",
					"getPlayer(address)": "5c12cd4b",
					"joinArena()": "9bf08a06",
					"players(address)": "e2eb41ff",
					"resolveChallenge(uint256)": "761c7cfe"
				}
			},
			"storageLayout": {
				"storage": [
					{
						"astId": 25,
						"contract": "monad dashboard/InfluenceArena.sol:InfluenceArena",
						"label": "players",
						"offset": 0,
						"slot": "0",
						"type": "t_mapping(t_address,t_struct(Player)9_storage)"
					},
					{
						"astId": 29,
						"contract": "monad dashboard/InfluenceArena.sol:InfluenceArena",
						"label": "challenges",
						"offset": 0,
						"slot": "1",
						"type": "t_array(t_struct(Challenge)20_storage)dyn_storage"
					}
				],
				"types": {
					"t_address": {
						"encoding": "inplace",
						"label": "address",
						"numberOfBytes": "20"
					},
					"t_array(t_struct(Challenge)20_storage)dyn_storage": {
						"base": "t_struct(Challenge)20_storage",
						"encoding": "dynamic_array",
						"label": "struct InfluenceArena.Challenge[]",
						"numberOfBytes": "32"
					},
					"t_bool": {
						"encoding": "inplace",
						"label": "bool",
						"numberOfBytes": "1"
					},
					"t_mapping(t_address,t_struct(Player)9_storage)": {
						"encoding": "mapping",
						"key": "t_address",
						"label": "mapping(address => struct InfluenceArena.Player)",
						"numberOfBytes": "32",
						"value": "t_struct(Player)9_storage"
					},
					"t_struct(Challenge)20_storage": {
						"encoding": "inplace",
						"label": "struct InfluenceArena.Challenge",
						"members": [
							{
								"astId": 11,
								"contract": "monad dashboard/InfluenceArena.sol:InfluenceArena",
								"label": "challenger",
								"offset": 0,
								"slot": "0",
								"type": "t_address"
							},
							{
								"astId": 13,
								"contract": "monad dashboard/InfluenceArena.sol:InfluenceArena",
								"label": "opponent",
								"offset": 0,
								"slot": "1",
								"type": "t_address"
							},
							{
								"astId": 15,
								"contract": "monad dashboard/InfluenceArena.sol:InfluenceArena",
								"label": "stake",
								"offset": 0,
								"slot": "2",
								"type": "t_uint256"
							},
							{
								"astId": 17,
								"contract": "monad dashboard/InfluenceArena.sol:InfluenceArena",
								"label": "createdAt",
								"offset": 0,
								"slot": "3",
								"type": "t_uint256"
							},
							{
								"astId": 19,
								"contract": "monad dashboard/InfluenceArena.sol:InfluenceArena",
								"label": "resolved",
								"offset": 0,
								"slot": "4",
								"type": "t_bool"
							}
						],
						"numberOfBytes": "160"
					},
					"t_struct(Player)9_storage": {
						"encoding": "inplace",
						"label": "struct InfluenceArena.Player",
						"members": [
							{
								"astId": 4,
								"contract": "monad dashboard/InfluenceArena.sol:InfluenceArena",
								"label": "influence",
								"offset": 0,
								"slot": "0",
								"type": "t_uint256"
							},
							{
								"astId": 6,
								"contract": "monad dashboard/InfluenceArena.sol:InfluenceArena",
								"label": "reputation",
								"offset": 0,
								"slot": "1",
								"type": "t_uint256"
							},
							{
								"astId": 8,
								"contract": "monad dashboard/InfluenceArena.sol:InfluenceArena",
								"label": "lockedUntil",
								"offset": 0,
								"slot": "2",
								"type": "t_uint256"
							}
						],
						"numberOfBytes": "96"
					},
					"t_uint256": {
						"encoding": "inplace",
						"label": "uint256",
						"numberOfBytes": "32"
					}
				}
			},
			"userdoc": {
				"kind": "user",
				"methods": {},
				"notice": "Contract: InfluenceArena A decentralized social arena where users stake reputation to challenge others. Winners gain influence, losers lose reputation. Stakes are locked for 1 day per challenge.",
				"version": 1
			}
		}
	}
}