{
	"data": {
		"bytecode": {
			"linkReferences": {},
			"object": "6080604052610e106002556298968060035534801561001c575f80fd5b506040516108ab3803806108ab833981810160405281019061003e91906100e1565b805f806101000a81548173ffffffffffffffffffffffffffffffffffffffff021916908373ffffffffffffffffffffffffffffffffffffffff1602179055505061010c565b5f80fd5b5f73ffffffffffffffffffffffffffffffffffffffff82169050919050565b5f6100b082610087565b9050919050565b6100c0816100a6565b81146100ca575f80fd5b50565b5f815190506100db816100b7565b92915050565b5f602082840312156100f6576100f5610083565b5b5f610103848285016100cd565b91505092915050565b610792806101195f395ff3fe608060405234801561000f575f80fd5b5060043610610060575f3560e01c8063013eba92146100645780634117bbe8146100945780634e71d92d146100b2578063830953ab146100bc578063b1c7ef0c146100da578063fdea3657146100f6575b5f80fd5b61007e60048036038101906100799190610409565b610114565b60405161008b919061044c565b60405180910390f35b61009c610129565b6040516100a991906104c0565b60405180910390f35b6100ba61014c565b005b6100c4610395565b6040516100d1919061044c565b60405180910390f35b6100f460048036038101906100ef9190610503565b61039b565b005b6100fe6103a5565b60405161010b919061044c565b60405180910390f35b6001602052805f5260405f205f915090505481565b5f8054906101000a900473ffffffffffffffffffffffffffffffffffffffff1681565b60025460015f3373ffffffffffffffffffffffffffffffffffffffff1673ffffffffffffffffffffffffffffffffffffffff1681526020019081526020015f205442610198919061055b565b10156101d9576040517f08c379a00000000000000000000000000000000000000000000000000000000081526004016101d0906105e8565b60405180910390fd5b6003545f8054906101000a900473ffffffffffffffffffffffffffffffffffffffff1673ffffffffffffffffffffffffffffffffffffffff166370a08231306040518263ffffffff1660e01b81526004016102349190610615565b602060405180830381865afa15801561024f573d5f803e3d5ffd5b505050506040513d601f19601f820116820180604052508101906102739190610642565b10156102b4576040517f08c379a00000000000000000000000000000000000000000000000000000000081526004016102ab906106b7565b60405180910390fd5b4260015f3373ffffffffffffffffffffffffffffffffffffffff1673ffffffffffffffffffffffffffffffffffffffff1681526020019081526020015f20819055505f8054906101000a900473ffffffffffffffffffffffffffffffffffffffff1673ffffffffffffffffffffffffffffffffffffffff1663a9059cbb336003546040518363ffffffff1660e01b81526004016103529291906106d5565b6020604051808303815f875af115801561036e573d5f803e3d5ffd5b505050506040513d601f19601f820116820180604052508101906103929190610731565b50565b60035481565b8060038190555050565b60025481565b5f80fd5b5f73ffffffffffffffffffffffffffffffffffffffff82169050919050565b5f6103d8826103af565b9050919050565b6103e8816103ce565b81146103f2575f80fd5b50565b5f81359050610403816103df565b92915050565b5f6020828403121561041e5761041d6103ab565b5b5f61042b848285016103f5565b91505092915050565b5f819050919050565b61044681610434565b82525050565b5f60208201905061045f5f83018461043d565b92915050565b5f819050919050565b5f61048861048361047e846103af565b610465565b6103af565b9050919050565b5f6104998261046e565b9050919050565b5f6104aa8261048f565b9050919050565b6104ba816104a0565b82525050565b5f6020820190506104d35f8301846104b1565b92915050565b6104e281610434565b81146104ec575f80fd5b50565b5f813590506104fd816104d9565b92915050565b5f60208284031215610518576105176103ab565b5b5f610525848285016104ef565b91505092915050565b7f4e487b71000000000000000000000000000000000000000000000000000000005f52601160045260245ffd5b5f61056582610434565b915061057083610434565b92508282039050818111156105885761058761052e565b5b92915050565b5f82825260208201905092915050565b7f436f6f6c646f776e206e6f742066696e697368656400000000000000000000005f82015250565b5f6105d260158361058e565b91506105dd8261059e565b602082019050919050565b5f6020820190508181035f8301526105ff816105c6565b9050919050565b61060f816103ce565b82525050565b5f6020820190506106285f830184610606565b92915050565b5f8151905061063c816104d9565b92915050565b5f60208284031215610657576106566103ab565b5b5f6106648482850161062e565b91505092915050565b7f46617563657420656d70747900000000000000000000000000000000000000005f82015250565b5f6106a1600c8361058e565b91506106ac8261066d565b602082019050919050565b5f6020820190508181035f8301526106ce81610695565b9050919050565b5f6040820190506106e85f830185610606565b6106f5602083018461043d565b9392505050565b5f8115159050919050565b610710816106fc565b811461071a575f80fd5b50565b5f8151905061072b81610707565b92915050565b5f60208284031215610746576107456103ab565b5b5f6107538482850161071d565b9150509291505056fea2646970667358221220001986f2ee7260daca809fa6d8c0c579bd5d5a58ba42b4652a3988cf5452ed6564736f6c63430008180033",
			"opcodes": "PUSH1 0x80 PUSH1 0x40 MSTORE PUSH2 0xE10 PUSH1 0x2 SSTORE PUSH3 0x989680 PUSH1 0x3 SSTORE CALLVALUE DUP1 ISZERO PUSH2 0x1C JUMPI PUSH0 DUP1 REVERT JUMPDEST POP PUSH1 0x40 MLOAD PUSH2 0x8AB CODESIZE SUB DUP1 PUSH2 0x8AB DUP4 CODECOPY DUP2 DUP2 ADD PUSH1 0x40 MSTORE DUP2 ADD SWAP1 PUSH2 0x3E SWAP2 SWAP1 PUSH2 0xE1 JUMP JUMPDEST DUP1 PUSH0 DUP1 PUSH2 0x100 EXP DUP2 SLOAD DUP2 PUSH20 0xFFFFFFFFFFFFFFFFFFFFFFFFFFFFFFFFFFFFFFFF MUL NOT AND SWAP1 DUP4 PUSH20 0xFFFFFFFFFFFFFFFFFFFFFFFFFFFFFFFFFFFFFFFF AND MUL OR SWAP1 SSTORE POP POP PUSH2 0x10C JUMP JUMPDEST PUSH0 DUP1 REVERT JUMPDEST PUSH0 PUSH20 0xFFFFFFFFFFFFFFFFFFFFFFFFFFFFFFFFFFFFFFFF DUP3 AND SWAP1 POP SWAP2 SWAP1 POP JUMP JUMPDEST PUSH0 PUSH2 0xB0 DUP3 PUSH2 0x87 JUMP JUMPDEST SWAP1 POP SWAP2 SWAP1 POP JUMP JUMPDEST PUSH2 0xC0 DUP2 PUSH2 0xA6 JUMP JUMPDEST DUP2 EQ PUSH2 0xCA JUMPI PUSH0 DUP1 REVERT JUMPDEST POP JUMP JUMPDEST PUSH0 DUP2 MLOAD SWAP1 POP PUSH2 0xDB DUP2 PUSH2 0xB7 JUMP JUMPDEST SWAP3 SWAP2 POP POP JUMP JUMPDEST PUSH0 PUSH1 0x20 DUP3 DUP5 SUB SLT ISZERO PUSH2 0xF6 JUMPI PUSH2 0xF5 PUSH2 0x83 JUMP JUMPDEST JUMPDEST PUSH0 PUSH2 0x103 DUP5 DUP3 DUP6 ADD PUSH2 0xCD JUMP JUMPDEST SWAP2 POP POP SWAP3 SWAP2 POP POP JUMP JUMPDEST PUSH2 0x792 DUP1 PUSH2 0x119 PUSH0 CODECOPY PUSH0 RETURN INVALID PUSH1 0x80 PUSH1 0x40 MSTORE CALLVALUE DUP1 ISZERO PUSH2 0xF JUMPI PUSH0 DUP1 REVERT JUMPDEST POP PUSH1 0x4 CALLDATASIZE LT PUSH2 0x60 JUMPI PUSH0 CALLDATALOAD PUSH1 0xE0 SHR DUP1 PUSH4 0x13EBA92 EQ PUSH2 0x64 JUMPI DUP1 PUSH4 0x4117BBE8 EQ PUSH2 0x94 JUMPI DUP1 PUSH4 0x4E71D92D EQ PUSH2 0xB2 JUMPI DUP1 PUSH4 0x830953AB EQ PUSH2 0xBC JUMPI DUP1 PUSH4 0xB1C7EF0C EQ PUSH2 0xDA JUMPI DUP1 PUSH4 0xFDEA3657 EQ PUSH2 0xF6 JUMPI JUMPDEST PUSH0 DUP1 REVERT JUMPDEST PUSH2 0x7E PUSH1 0x4 DUP1 CALLDATASIZE SUB DUP2 ADD SWAP1 PUSH2 0x79 SWAP2 SWAP1 PUSH2 0x409 JUMP JUMPDEST PUSH2 0x114 JUMP JUMPDEST PUSH1 0x40 MLOAD PUSH2 0x8B SWAP2 SWAP1 PUSH2 0x44C JUMP JUMPDEST PUSH1 0x40 MLOAD DUP1 SWAP2 SUB SWAP1 RETURN JUMPDEST PUSH2 0x9C PUSH2 0x129 JUMP JUMPDEST PUSH1 0x40 MLOAD PUSH2 0xA9 SWAP2 SWAP1 PUSH2 0x4C0 JUMP JUMPDEST PUSH1 0x40 MLOAD DUP1 SWAP2 SUB SWAP1 RETURN JUMPDEST PUSH2 0xBA PUSH2 0x14C JUMP JUMPDEST STOP JUMPDEST PUSH2 0xC4 PUSH2 0x395 JUMP JUMPDEST PUSH1 0x40 MLOAD PUSH2 0xD1 SWAP2 SWAP1 PUSH2 0x44C JUMP JUMPDEST PUSH1 0x40 MLOAD DUP1 SWAP2 SUB SWAP1 RETURN JUMPDEST PUSH2 0xF4 PUSH1 0x4 DUP1 CALLDATASIZE SUB DUP2 ADD SWAP1 PUSH2 0xEF SWAP2 SWAP1 PUSH2 0x503 JUMP JUMPDEST PUSH2 0x39B JUMP JUMPDEST STOP JUMPDEST PUSH2 0xFE PUSH2 0x3A5 JUMP JUMPDEST PUSH1 0x40 MLOAD PUSH2 0x10B SWAP2 SWAP1 PUSH2 0x44C JUMP JUMPDEST PUSH1 0x40 MLOAD DUP1 SWAP2 SUB SWAP1 RETURN JUMPDEST PUSH1 0x1 PUSH1 0x20 MSTORE DUP1 PUSH0 MSTORE PUSH1 0x40 PUSH0 KECCAK256 PUSH0 SWAP2 POP SWAP1 POP SLOAD DUP2 JUMP JUMPDEST PUSH0 DUP1 SLOAD SWAP1 PUSH2 0x100 EXP SWAP1 DIV PUSH20 0xFFFFFFFFFFFFFFFFFFFFFFFFFFFFFFFFFFFFFFFF AND DUP2 JUMP JUMPDEST PUSH1 0x2 SLOAD PUSH1 0x1 PUSH0 CALLER PUSH20 0xFFFFFFFFFFFFFFFFFFFFFFFFFFFFFFFFFFFFFFFF AND PUSH20 0xFFFFFFFFFFFFFFFFFFFFFFFFFFFFFFFFFFFFFFFF AND DUP2 MSTORE PUSH1 0x20 ADD SWAP1 DUP2 MSTORE PUSH1 0x20 ADD PUSH0 KECCAK256 SLOAD TIMESTAMP PUSH2 0x198 SWAP2 SWAP1 PUSH2 0x55B JUMP JUMPDEST LT ISZERO PUSH2 0x1D9 JUMPI PUSH1 0x40 MLOAD PUSH32 0x8C379A000000000000000000000000000000000000000000000000000000000 DUP2 MSTORE PUSH1 0x4 ADD PUSH2 0x1D0 SWAP1 PUSH2 0x5E8 JUMP JUMPDEST PUSH1 0x40 MLOAD DUP1 SWAP2 SUB SWAP1 REVERT JUMPDEST PUSH1 0x3 SLOAD PUSH0 DUP1 SLOAD SWAP1 PUSH2 0x100 EXP SWAP1 DIV PUSH20 0xFFFFFFFFFFFFFFFFFFFFFFFFFFFFFFFFFFFFFFFF AND PUSH20 0xFFFFFFFFFFFFFFFFFFFFFFFFFFFFFFFFFFFFFFFF AND PUSH4 0x70A08231 ADDRESS PUSH1 0x40 MLOAD DUP3 PUSH4 0xFFFFFFFF AND PUSH1 0xE0 SHL DUP2 MSTORE PUSH1 0x4 ADD PUSH2 0x234 SWAP2 SWAP1 PUSH2 0x615 JUMP JUMPDEST PUSH1 0x20 PUSH1 0x40 MLOAD DUP1 DUP4 SUB DUP2 DUP7 GAS STATICCALL ISZERO DUP1 ISZERO PUSH2 0x24F JUMPI RETURNDATASIZE PUSH0 DUP1 RETURNDATACOPY RETURNDATASIZE PUSH0 REVERT JUMPDEST POP POP POP POP PUSH1 0x40 MLOAD RETURNDATASIZE PUSH1 0x1F NOT PUSH1 0x1F DUP3 ADD AND DUP3 ADD DUP1 PUSH1 0x40 MSTORE POP DUP2 ADD SWAP1 PUSH2 0x273 SWAP2 SWAP1 PUSH2 0x642 JUMP JUMPDEST LT ISZERO PUSH2 0x2B4 JUMPI PUSH1 0x40 MLOAD PUSH32 0x8C379A000000000000000000000000000000000000000000000000000000000 DUP2 MSTORE PUSH1 0x4 ADD PUSH2 0x2AB SWAP1 PUSH2 0x6B7 JUMP JUMPDEST PUSH1 0x40 MLOAD DUP1 SWAP2 SUB SWAP1 REVERT JUMPDEST TIMESTAMP PUSH1 0x1 PUSH0 CALLER PUSH20 0xFFFFFFFFFFFFFFFFFFFFFFFFFFFFFFFFFFFFFFFF AND PUSH20 0xFFFFFFFFFFFFFFFFFFFFFFFFFFFFFFFFFFFFFFFF AND DUP2 MSTORE PUSH1 0x20 ADD SWAP1 DUP2 MSTORE PUSH1 0x20 ADD PUSH0 KECCAK256 DUP2 SWAP1 SSTORE POP PUSH0 DUP1 SLOAD SWAP1 PUSH2 0x100 EXP SWAP1 DIV PUSH20 0xFFFFFFFFFFFFFFFFFFFFFFFFFFFFFFFFFFFFFFFF AND PUSH20 0xFFFFFFFFFFFFFFFFFFFFFFFFFFFFFFFFFFFFFFFF AND PUSH4 0xA9059CBB CALLER PUSH1 0x3 SLOAD PUSH1 0x40 MLOAD DUP4 PUSH4 0xFFFFFFFF AND PUSH1 0xE0 SHL DUP2 MSTORE PUSH1 0x4 ADD PUSH2 0x352 SWAP3 SWAP2 SWAP1 PUSH2 0x6D5 JUMP JUMPDEST PUSH1 0x20 PUSH1 0x40 MLOAD DUP1 DUP4 SUB DUP2 PUSH0 DUP8 GAS CALL ISZERO DUP1 ISZERO PUSH2 0x36E JUMPI RETURNDATASIZE PUSH0 DUP1 RETURNDATACOPY RETURNDATASIZE PUSH0 REVERT JUMPDEST POP POP POP POP PUSH1 0x40 MLOAD RETURNDATASIZE PUSH1 0x1F NOT PUSH1 0x1F DUP3 ADD AND DUP3 ADD DUP1 PUSH1 0x40 MSTORE POP DUP2 ADD SWAP1 PUSH2 0x392 SWAP2 SWAP1 PUSH2 0x731 JUMP JUMPDEST POP JUMP JUMPDEST PUSH1 0x3 SLOAD DUP2 JUMP JUMPDEST DUP1 PUSH1 0x3 DUP2 SWAP1 SSTORE POP POP JUMP JUMPDEST PUSH1 0x2 SLOAD DUP2 JUMP JUMPDEST PUSH0 DUP1 REVERT JUMPDEST PUSH0 PUSH20 0xFFFFFFFFFFFFFFFFFFFFFFFFFFFFFFFFFFFFFFFF DUP3 AND SWAP1 POP SWAP2 SWAP1 POP JUMP JUMPDEST PUSH0 PUSH2 0x3D8 DUP3 PUSH2 0x3AF JUMP JUMPDEST SWAP1 POP SWAP2 SWAP1 POP JUMP JUMPDEST PUSH2 0x3E8 DUP2 PUSH2 0x3CE JUMP JUMPDEST DUP2 EQ PUSH2 0x3F2 JUMPI PUSH0 DUP1 REVERT JUMPDEST POP JUMP JUMPDEST PUSH0 DUP2 CALLDATALOAD SWAP1 POP PUSH2 0x403 DUP2 PUSH2 0x3DF JUMP JUMPDEST SWAP3 SWAP2 POP POP JUMP JUMPDEST PUSH0 PUSH1 0x20 DUP3 DUP5 SUB SLT ISZERO PUSH2 0x41E JUMPI PUSH2 0x41D PUSH2 0x3AB JUMP JUMPDEST JUMPDEST PUSH0 PUSH2 0x42B DUP5 DUP3 DUP6 ADD PUSH2 0x3F5 JUMP JUMPDEST SWAP2 POP POP SWAP3 SWAP2 POP POP JUMP JUMPDEST PUSH0 DUP2 SWAP1 POP SWAP2 SWAP1 POP JUMP JUMPDEST PUSH2 0x446 DUP2 PUSH2 0x434 JUMP JUMPDEST DUP3 MSTORE POP POP JUMP JUMPDEST PUSH0 PUSH1 0x20 DUP3 ADD SWAP1 POP PUSH2 0x45F PUSH0 DUP4 ADD DUP5 PUSH2 0x43D JUMP JUMPDEST SWAP3 SWAP2 POP POP JUMP JUMPDEST PUSH0 DUP2 SWAP1 POP SWAP2 SWAP1 POP JUMP JUMPDEST PUSH0 PUSH2 0x488 PUSH2 0x483 PUSH2 0x47E DUP5 PUSH2 0x3AF JUMP JUMPDEST PUSH2 0x465 JUMP JUMPDEST PUSH2 0x3AF JUMP JUMPDEST SWAP1 POP SWAP2 SWAP1 POP JUMP JUMPDEST PUSH0 PUSH2 0x499 DUP3 PUSH2 0x46E JUMP JUMPDEST SWAP1 POP SWAP2 SWAP1 POP JUMP JUMPDEST PUSH0 PUSH2 0x4AA DUP3 PUSH2 0x48F JUMP JUMPDEST SWAP1 POP SWAP2 SWAP1 POP JUMP JUMPDEST PUSH2 0x4BA DUP2 PUSH2 0x4A0 JUMP JUMPDEST DUP3 MSTORE POP POP JUMP JUMPDEST PUSH0 PUSH1 0x20 DUP3 ADD SWAP1 POP PUSH2 0x4D3 PUSH0 DUP4 ADD DUP5 PUSH2 0x4B1 JUMP JUMPDEST SWAP3 SWAP2 POP POP JUMP JUMPDEST PUSH2 0x4E2 DUP2 PUSH2 0x434 JUMP JUMPDEST DUP2 EQ PUSH2 0x4EC JUMPI PUSH0 DUP1 REVERT JUMPDEST POP JUMP JUMPDEST PUSH0 DUP2 CALLDATALOAD SWAP1 POP PUSH2 0x4FD DUP2 PUSH2 0x4D9 JUMP JUMPDEST SWAP3 SWAP2 POP POP JUMP JUMPDEST PUSH0 PUSH1 0x20 DUP3 DUP5 SUB SLT ISZERO PUSH2 0x518 JUMPI PUSH2 0x517 PUSH2 0x3AB JUMP JUMPDEST JUMPDEST PUSH0 PUSH2 0x525 DUP5 DUP3 DUP6 ADD PUSH2 0x4EF JUMP JUMPDEST SWAP2 POP POP SWAP3 SWAP2 POP POP JUMP JUMPDEST PUSH32 0x4E487B7100000000000000000000000000000000000000000000000000000000 PUSH0 MSTORE PUSH1 0x11 PUSH1 0x4 MSTORE PUSH1 0x24 PUSH0 REVERT JUMPDEST PUSH0 PUSH2 0x565 DUP3 PUSH2 0x434 JUMP JUMPDEST SWAP2 POP PUSH2 0x570 DUP4 PUSH2 0x434 JUMP JUMPDEST SWAP3 POP DUP3 DUP3 SUB SWAP1 POP DUP2 DUP2 GT ISZERO PUSH2 0x588 JUMPI PUSH2 0x587 PUSH2 0x52E JUMP JUMPDEST JUMPDEST SWAP3 SWAP2 POP POP JUMP JUMPDEST PUSH0 DUP3 DUP3 MSTORE PUSH1 0x20 DUP3 ADD SWAP1 POP SWAP3 SWAP2 POP POP JUMP JUMPDEST PUSH32 0x436F6F6C646F776E206E6F742066696E69736865640000000000000000000000 PUSH0 DUP3 ADD MSTORE POP JUMP JUMPDEST PUSH0 PUSH2 0x5D2 PUSH1 0x15 DUP4 PUSH2 0x58E JUMP JUMPDEST SWAP2 POP PUSH2 0x5DD DUP3 PUSH2 0x59E JUMP JUMPDEST PUSH1 0x20 DUP3 ADD SWAP1 POP SWAP2 SWAP1 POP JUMP JUMPDEST PUSH0 PUSH1 0x20 DUP3 ADD SWAP1 POP DUP2 DUP2 SUB PUSH0 DUP4 ADD MSTORE PUSH2 0x5FF DUP2 PUSH2 0x5C6 JUMP JUMPDEST SWAP1 POP SWAP2 SWAP1 POP JUMP JUMPDEST PUSH2 0x60F DUP2 PUSH2 0x3CE JUMP JUMPDEST DUP3 MSTORE POP POP JUMP JUMPDEST PUSH0 PUSH1 0x20 DUP3 ADD SWAP1 POP PUSH2 0x628 PUSH0 DUP4 ADD DUP5 PUSH2 0x606 JUMP JUMPDEST SWAP3 SWAP2 POP POP JUMP JUMPDEST PUSH0 DUP2 MLOAD SWAP1 POP PUSH2 0x63C DUP2 PUSH2 0x4D9 JUMP JUMPDEST SWAP3 SWAP2 POP POP JUMP JUMPDEST PUSH0 PUSH1 0x20 DUP3 DUP5 SUB SLT ISZERO PUSH2 0x657 JUMPI PUSH2 0x656 PUSH2 0x3AB JUMP JUMPDEST JUMPDEST PUSH0 PUSH2 0x664 DUP5 DUP3 DUP6 ADD PUSH2 0x62E JUMP JUMPDEST SWAP2 POP POP SWAP3 SWAP2 POP POP JUMP JUMPDEST PUSH32 0x46617563657420656D7074790000000000000000000000000000000000000000 PUSH0 DUP3 ADD MSTORE POP JUMP JUMPDEST PUSH0 PUSH2 0x6A1 PUSH1 0xC DUP4 PUSH2 0x58E JUMP JUMPDEST SWAP2 POP PUSH2 0x6AC DUP3 PUSH2 0x66D JUMP JUMPDEST PUSH1 0x20 DUP3 ADD SWAP1 POP SWAP2 SWAP1 POP JUMP JUMPDEST PUSH0 PUSH1 0x20 DUP3 ADD SWAP1 POP DUP2 DUP2 SUB PUSH0 DUP4 ADD MSTORE PUSH2 0x6CE DUP2 PUSH2 0x695 JUMP JUMPDEST SWAP1 POP SWAP2 SWAP1 POP JUMP JUMPDEST PUSH0 PUSH1 0x40 DUP3 ADD SWAP1 POP PUSH2 0x6E8 PUSH0 DUP4 ADD DUP6 PUSH2 0x606 JUMP JUMPDEST PUSH2 0x6F5 PUSH1 0x20 DUP4 ADD DUP5 PUSH2 0x43D JUMP JUMPDEST SWAP4 SWAP3 POP POP POP JUMP JUMPDEST PUSH0 DUP2 ISZERO ISZERO SWAP1 POP SWAP2 SWAP1 POP JUMP JUMPDEST PUSH2 0x710 DUP2 PUSH2 0x6FC JUMP JUMPDEST DUP2 EQ PUSH2 0x71A JUMPI PUSH0 DUP1 REVERT JUMPDEST POP JUMP JUMPDEST PUSH0 DUP2 MLOAD SWAP1 POP PUSH2 0x72B DUP2 PUSH2 0x707 JUMP JUMPDEST SWAP3 SWAP2 POP POP JUMP JUMPDEST PUSH0 PUSH1 0x20 DUP3 DUP5 SUB SLT ISZERO PUSH2 0x746 JUMPI PUSH2 0x745 PUSH2 0x3AB JUMP JUMPDEST JUMPDEST PUSH0 PUSH2 0x753 DUP5 DUP3 DUP6 ADD PUSH2 0x71D JUMP JUMPDEST SWAP2 POP POP SWAP3 SWAP2 POP POP JUMP INVALID LOG2 PUSH5 0x6970667358 0x22 SLT KECCAK256 STOP NOT DUP7 CALLCODE 0xEE PUSH19 0x60DACA809FA6D8C0C579BD5D5A58BA42B4652A CODECOPY DUP9 0xCF SLOAD MSTORE 0xED PUSH6 0x64736F6C6343 STOP ADDMOD XOR STOP CALLER "
		},
		"gasEstimates": {
			"creation": {
				"codeDepositCost": "387600",
				"executionCost": "infinite",
				"totalCost": "infinite"
			},
			"external": {
				"claim()": "infinite",
				"claimAmount()": "2469",
				"claimCooldown()": "2513",
				"dUsdc()": "infinite",
				"lastClaimed(address)": "2780",
				"setClaimAmount(uint256)": "22581"
			}
		},
		"methodIdentifiers": {
			"claim()": "4e71d92d",
			"claimAmount()": "830953ab",
			"claimCooldown()": "fdea3657",
			"dUsdc()": "4117bbe8",
			"lastClaimed(address)": "013eba92",
			"setClaimAmount(uint256)": "b1c7ef0c"
		}
	},
	"abi": [
		{
			"inputs": [
				{
					"internalType": "address",
					"name": "_dUsdcAddress",
					"type": "address"
				}
			],
			"stateMutability": "nonpayable",
			"type": "constructor"
		},
		{
			"inputs": [],
			"name": "claim",
			"outputs": [],
			"stateMutability": "nonpayable",
			"type": "function"
		},
		{
			"inputs": [],
			"name": "claimAmount",
			"outputs": [
				{
					"internalType": "uint256",
					"name": "",
					"type": "uint256"
				}
			],
			"stateMutability": "view",
			"type": "function"
		},
		{
			"inputs": [],
			"name": "claimCooldown",
			"outputs": [
				{
					"internalType": "uint256",
					"name": "",
					"type": "uint256"
				}
			],
			"stateMutability": "view",
			"type": "function"
		},
		{
			"inputs": [],
			"name": "dUsdc",
			"outputs": [
				{
					"internalType": "contract IERC20",
					"name": "",
					"type": "address"
				}
			],
			"stateMutability": "view",
			"type": "function"
		},
		{
			"inputs": [
				{
					"internalType": "address",
					"name": "",
					"type": "address"
				}
			],
			"name": "lastClaimed",
			"outputs": [
				{
					"internalType": "uint256",
					"name": "",
					"type": "uint256"
				}
			],
			"stateMutability": "view",
			"type": "function"
		},
		{
			"inputs": [
				{
					"internalType": "uint256",
					"name": "_amount",
					"type": "uint256"
				}
			],
			"name": "setClaimAmount",
			"outputs": [],
			"stateMutability": "nonpayable",
			"type": "function"
		}
	]
}