{
	"data": {
		"bytecode": {
			"linkReferences": {},
			"object": "60806040526040518060a001604052806040518060400160405280600681526020017fe29da4efb88f000000000000000000000000000000000000000000000000000081525081526020016040518060400160405280600481526020017ff09f98820000000000000000000000000000000000000000000000000000000081525081526020016040518060400160405280600481526020017ff09f98ae0000000000000000000000000000000000000000000000000000000081525081526020016040518060400160405280600481526020017ff09f98a20000000000000000000000000000000000000000000000000000000081525081526020016040518060400160405280600481526020017ff09f918e000000000000000000000000000000000000000000000000000000008152508152505f9060056200014592919062000159565b5034801562000152575f80fd5b5062000586565b828054828255905f5260205f20908101928215620001a4579160200282015b82811115620001a3578251829081620001929190620004a2565b509160200191906001019062000178565b5b509050620001b39190620001b7565b5090565b5b80821115620001da575f8181620001d09190620001de565b50600101620001b8565b5090565b508054620001ec90620002a2565b5f825580601f10620001ff57506200021e565b601f0160209004905f5260205f20908101906200021d919062000221565b5b50565b5b808211156200023a575f815f90555060010162000222565b5090565b5f81519050919050565b7f4e487b71000000000000000000000000000000000000000000000000000000005f52604160045260245ffd5b7f4e487b71000000000000000000000000000000000000000000000000000000005f52602260045260245ffd5b5f6002820490506001821680620002ba57607f821691505b602082108103620002d057620002cf62000275565b5b50919050565b5f819050815f5260205f209050919050565b5f6020601f8301049050919050565b5f82821b905092915050565b5f60088302620003347fffffffffffffffffffffffffffffffffffffffffffffffffffffffffffffffff82620002f7565b620003408683620002f7565b95508019841693508086168417925050509392505050565b5f819050919050565b5f819050919050565b5f6200038a620003846200037e8462000358565b62000361565b62000358565b9050919050565b5f819050919050565b620003a5836200036a565b620003bd620003b48262000391565b84845462000303565b825550505050565b5f90565b620003d3620003c5565b620003e08184846200039a565b505050565b5b818110156200040757620003fb5f82620003c9565b600181019050620003e6565b5050565b601f82111562000456576200042081620002d6565b6200042b84620002e8565b810160208510156200043b578190505b620004536200044a85620002e8565b830182620003e5565b50505b505050565b5f82821c905092915050565b5f620004785f19846008026200045b565b1980831691505092915050565b5f62000492838362000467565b9150826002028217905092915050565b620004ad826200023e565b67ffffffffffffffff811115620004c957620004c862000248565b5b620004d58254620002a2565b620004e28282856200040b565b5f60209050601f83116001811462000518575f841562000503578287015190505b6200050f858262000485565b8655506200057e565b601f1984166200052886620002d6565b5f5b8281101562000551578489015182556001820191506020850194506020810190506200052a565b868310156200057157848901516200056d601f89168262000467565b8355505b6001600288020188555050505b505050505050565b61104d80620005945f395ff3fe608060405234801561000f575f80fd5b506004361061005f575f3560e01c80628356af146100635780633bbc61d51461009357806360ed63ed146100b157806386b97733146100e1578063ec9d6ac814610111578063f001a5511461012d575b5f80fd5b61007d60048036038101906100789190610812565b61015d565b60405161008a9190610871565b60405180910390f35b61009b61018a565b6040516100a89190610904565b60405180910390f35b6100cb60048036038101906100c6919061097e565b610255565b6040516100d89190610904565b60405180910390f35b6100fb60048036038101906100f691906109d3565b6102f0565b6040516101089190610904565b60405180910390f35b61012b60048036038101906101269190610a5b565b610395565b005b61014760048036038101906101429190610a5b565b6105fb565b6040516101549190610871565b60405180910390f35b6002818051602081018201805184825260208301602085012081835280955050505050505f915090505481565b606060015f3373ffffffffffffffffffffffffffffffffffffffff1673ffffffffffffffffffffffffffffffffffffffff1681526020019081526020015f2080546101d490610ad3565b80601f016020809104026020016040519081016040528092919081815260200182805461020090610ad3565b801561024b5780601f106102225761010080835404028352916020019161024b565b820191905f5260205f20905b81548152906001019060200180831161022e57829003601f168201915b5050505050905090565b6001602052805f5260405f205f91509050805461027190610ad3565b80601f016020809104026020016040519081016040528092919081815260200182805461029d90610ad3565b80156102e85780601f106102bf576101008083540402835291602001916102e8565b820191905f5260205f20905b8154815290600101906020018083116102cb57829003601f168201915b505050505081565b5f81815481106102fe575f80fd5b905f5260205f20015f91509050805461031690610ad3565b80601f016020809104026020016040519081016040528092919081815260200182805461034290610ad3565b801561038d5780601f106103645761010080835404028352916020019161038d565b820191905f5260205f20905b81548152906001019060200180831161037057829003601f168201915b505050505081565b6103e182828080601f0160208091040260200160405190810160405280939291908181526020018383808284375f81840152601f19601f82011690508083019250505050505050610625565b610420576040517f08c379a000000000000000000000000000000000000000000000000000000000815260040161041790610b4d565b60405180910390fd5b5f60015f3373ffffffffffffffffffffffffffffffffffffffff1673ffffffffffffffffffffffffffffffffffffffff1681526020019081526020015f20805461046990610ad3565b80601f016020809104026020016040519081016040528092919081815260200182805461049590610ad3565b80156104e05780601f106104b7576101008083540402835291602001916104e0565b820191905f5260205f20905b8154815290600101906020018083116104c357829003601f168201915b505050505090505f81511115610524576002816040516105009190610ba5565b90815260200160405180910390205f81548092919061051e90610be8565b91905055505b828260015f3373ffffffffffffffffffffffffffffffffffffffff1673ffffffffffffffffffffffffffffffffffffffff1681526020019081526020015f209182610570929190610db6565b5060028383604051610583929190610ea7565b90815260200160405180910390205f8154809291906105a190610ebf565b91905055503373ffffffffffffffffffffffffffffffffffffffff167f134ce9015b00cc5d26fc7a1e64c1a9001ae6bdb82d9dccadd5d4625e2d736ca184846040516105ee929190610f32565b60405180910390a2505050565b5f6002838360405161060e929190610ea7565b908152602001604051809103902054905092915050565b5f805f90505b5f805490508110156106bb575f818154811061064a57610649610f54565b5b905f5260205f20016040516020016106629190611001565b60405160208183030381529060405280519060200120836040516020016106899190610ba5565b60405160208183030381529060405280519060200120036106ae5760019150506106c0565b808060010191505061062b565b505f90505b919050565b5f604051905090565b5f80fd5b5f80fd5b5f80fd5b5f80fd5b5f601f19601f8301169050919050565b7f4e487b71000000000000000000000000000000000000000000000000000000005f52604160045260245ffd5b610724826106de565b810181811067ffffffffffffffff82111715610743576107426106ee565b5b80604052505050565b5f6107556106c5565b9050610761828261071b565b919050565b5f67ffffffffffffffff8211156107805761077f6106ee565b5b610789826106de565b9050602081019050919050565b828183375f83830152505050565b5f6107b66107b184610766565b61074c565b9050828152602081018484840111156107d2576107d16106da565b5b6107dd848285610796565b509392505050565b5f82601f8301126107f9576107f86106d6565b5b81356108098482602086016107a4565b91505092915050565b5f60208284031215610827576108266106ce565b5b5f82013567ffffffffffffffff811115610844576108436106d2565b5b610850848285016107e5565b91505092915050565b5f819050919050565b61086b81610859565b82525050565b5f6020820190506108845f830184610862565b92915050565b5f81519050919050565b5f82825260208201905092915050565b5f5b838110156108c15780820151818401526020810190506108a6565b5f8484015250505050565b5f6108d68261088a565b6108e08185610894565b93506108f08185602086016108a4565b6108f9816106de565b840191505092915050565b5f6020820190508181035f83015261091c81846108cc565b905092915050565b5f73ffffffffffffffffffffffffffffffffffffffff82169050919050565b5f61094d82610924565b9050919050565b61095d81610943565b8114610967575f80fd5b50565b5f8135905061097881610954565b92915050565b5f60208284031215610993576109926106ce565b5b5f6109a08482850161096a565b91505092915050565b6109b281610859565b81146109bc575f80fd5b50565b5f813590506109cd816109a9565b92915050565b5f602082840312156109e8576109e76106ce565b5b5f6109f5848285016109bf565b91505092915050565b5f80fd5b5f80fd5b5f8083601f840112610a1b57610a1a6106d6565b5b8235905067ffffffffffffffff811115610a3857610a376109fe565b5b602083019150836001820283011115610a5457610a53610a02565b5b9250929050565b5f8060208385031215610a7157610a706106ce565b5b5f83013567ffffffffffffffff811115610a8e57610a8d6106d2565b5b610a9a85828601610a06565b92509250509250929050565b7f4e487b71000000000000000000000000000000000000000000000000000000005f52602260045260245ffd5b5f6002820490506001821680610aea57607f821691505b602082108103610afd57610afc610aa6565b5b50919050565b7f496e76616c696420656d6f6a69000000000000000000000000000000000000005f82015250565b5f610b37600d83610894565b9150610b4282610b03565b602082019050919050565b5f6020820190508181035f830152610b6481610b2b565b9050919050565b5f81905092915050565b5f610b7f8261088a565b610b898185610b6b565b9350610b998185602086016108a4565b80840191505092915050565b5f610bb08284610b75565b915081905092915050565b7f4e487b71000000000000000000000000000000000000000000000000000000005f52601160045260245ffd5b5f610bf282610859565b91505f8203610c0457610c03610bbb565b5b600182039050919050565b5f82905092915050565b5f819050815f5260205f209050919050565b5f6020601f8301049050919050565b5f82821b905092915050565b5f60088302610c757fffffffffffffffffffffffffffffffffffffffffffffffffffffffffffffffff82610c3a565b610c7f8683610c3a565b95508019841693508086168417925050509392505050565b5f819050919050565b5f610cba610cb5610cb084610859565b610c97565b610859565b9050919050565b5f819050919050565b610cd383610ca0565b610ce7610cdf82610cc1565b848454610c46565b825550505050565b5f90565b610cfb610cef565b610d06818484610cca565b505050565b5b81811015610d2957610d1e5f82610cf3565b600181019050610d0c565b5050565b601f821115610d6e57610d3f81610c19565b610d4884610c2b565b81016020851015610d57578190505b610d6b610d6385610c2b565b830182610d0b565b50505b505050565b5f82821c905092915050565b5f610d8e5f1984600802610d73565b1980831691505092915050565b5f610da68383610d7f565b9150826002028217905092915050565b610dc08383610c0f565b67ffffffffffffffff811115610dd957610dd86106ee565b5b610de38254610ad3565b610dee828285610d2d565b5f601f831160018114610e1b575f8415610e09578287013590505b610e138582610d9b565b865550610e7a565b601f198416610e2986610c19565b5f5b82811015610e5057848901358255600182019150602085019450602081019050610e2b565b86831015610e6d5784890135610e69601f891682610d7f565b8355505b6001600288020188555050505b50505050505050565b5f610e8e8385610b6b565b9350610e9b838584610796565b82840190509392505050565b5f610eb3828486610e83565b91508190509392505050565b5f610ec982610859565b91507fffffffffffffffffffffffffffffffffffffffffffffffffffffffffffffffff8203610efb57610efa610bbb565b5b600182019050919050565b5f610f118385610894565b9350610f1e838584610796565b610f27836106de565b840190509392505050565b5f6020820190508181035f830152610f4b818486610f06565b90509392505050565b7f4e487b71000000000000000000000000000000000000000000000000000000005f52603260045260245ffd5b5f8154610f8d81610ad3565b610f978186610b6b565b9450600182165f8114610fb15760018114610fc657610ff8565b60ff1983168652811515820286019350610ff8565b610fcf85610c19565b5f5b83811015610ff057815481890152600182019150602081019050610fd1565b838801955050505b50505092915050565b5f61100c8284610f81565b91508190509291505056fea26469706673582212201b52111debd6a4f62e638172d6e89318ecb9b30bca7bee1849123cfa9f26ad6d64736f6c63430008170033",
			"opcodes": "PUSH1 0x80 PUSH1 0x40 MSTORE PUSH1 0x40 MLOAD DUP1 PUSH1 0xA0 ADD PUSH1 0x40 MSTORE DUP1 PUSH1 0x40 MLOAD DUP1 PUSH1 0x40 ADD PUSH1 0x40 MSTORE DUP1 PUSH1 0x6 DUP2 MSTORE PUSH1 0x20 ADD PUSH32 0xE29DA4EFB88F0000000000000000000000000000000000000000000000000000 DUP2 MSTORE POP DUP2 MSTORE PUSH1 0x20 ADD PUSH1 0x40 MLOAD DUP1 PUSH1 0x40 ADD PUSH1 0x40 MSTORE DUP1 PUSH1 0x4 DUP2 MSTORE PUSH1 0x20 ADD PUSH32 0xF09F988200000000000000000000000000000000000000000000000000000000 DUP2 MSTORE POP DUP2 MSTORE PUSH1 0x20 ADD PUSH1 0x40 MLOAD DUP1 PUSH1 0x40 ADD PUSH1 0x40 MSTORE DUP1 PUSH1 0x4 DUP2 MSTORE PUSH1 0x20 ADD PUSH32 0xF09F98AE00000000000000000000000000000000000000000000000000000000 DUP2 MSTORE POP DUP2 MSTORE PUSH1 0x20 ADD PUSH1 0x40 MLOAD DUP1 PUSH1 0x40 ADD PUSH1 0x40 MSTORE DUP1 PUSH1 0x4 DUP2 MSTORE PUSH1 0x20 ADD PUSH32 0xF09F98A200000000000000000000000000000000000000000000000000000000 DUP2 MSTORE POP DUP2 MSTORE PUSH1 0x20 ADD PUSH1 0x40 MLOAD DUP1 PUSH1 0x40 ADD PUSH1 0x40 MSTORE DUP1 PUSH1 0x4 DUP2 MSTORE PUSH1 0x20 ADD PUSH32 0xF09F918E00000000000000000000000000000000000000000000000000000000 DUP2 MSTORE POP DUP2 MSTORE POP PUSH0 SWAP1 PUSH1 0x5 PUSH3 0x145 SWAP3 SWAP2 SWAP1 PUSH3 0x159 JUMP JUMPDEST POP CALLVALUE DUP1 ISZERO PUSH3 0x152 JUMPI PUSH0 DUP1 REVERT JUMPDEST POP PUSH3 0x586 JUMP JUMPDEST DUP3 DUP1 SLOAD DUP3 DUP3 SSTORE SWAP1 PUSH0 MSTORE PUSH1 0x20 PUSH0 KECCAK256 SWAP1 DUP2 ADD SWAP3 DUP3 ISZERO PUSH3 0x1A4 JUMPI SWAP2 PUSH1 0x20 MUL DUP3 ADD JUMPDEST DUP3 DUP2 GT ISZERO PUSH3 0x1A3 JUMPI DUP3 MLOAD DUP3 SWAP1 DUP2 PUSH3 0x192 SWAP2 SWAP1 PUSH3 0x4A2 JUMP JUMPDEST POP SWAP2 PUSH1 0x20 ADD SWAP2 SWAP1 PUSH1 0x1 ADD SWAP1 PUSH3 0x178 JUMP JUMPDEST JUMPDEST POP SWAP1 POP PUSH3 0x1B3 SWAP2 SWAP1 PUSH3 0x1B7 JUMP JUMPDEST POP SWAP1 JUMP JUMPDEST JUMPDEST DUP1 DUP3 GT ISZERO PUSH3 0x1DA JUMPI PUSH0 DUP2 DUP2 PUSH3 0x1D0 SWAP2 SWAP1 PUSH3 0x1DE JUMP JUMPDEST POP PUSH1 0x1 ADD PUSH3 0x1B8 JUMP JUMPDEST POP SWAP1 JUMP JUMPDEST POP DUP1 SLOAD PUSH3 0x1EC SWAP1 PUSH3 0x2A2 JUMP JUMPDEST PUSH0 DUP3 SSTORE DUP1 PUSH1 0x1F LT PUSH3 0x1FF JUMPI POP PUSH3 0x21E JUMP JUMPDEST PUSH1 0x1F ADD PUSH1 0x20 SWAP1 DIV SWAP1 PUSH0 MSTORE PUSH1 0x20 PUSH0 KECCAK256 SWAP1 DUP2 ADD SWAP1 PUSH3 0x21D SWAP2 SWAP1 PUSH3 0x221 JUMP JUMPDEST JUMPDEST POP JUMP JUMPDEST JUMPDEST DUP1 DUP3 GT ISZERO PUSH3 0x23A JUMPI PUSH0 DUP2 PUSH0 SWAP1 SSTORE POP PUSH1 0x1 ADD PUSH3 0x222 JUMP JUMPDEST POP SWAP1 JUMP JUMPDEST PUSH0 DUP2 MLOAD SWAP1 POP SWAP2 SWAP1 POP JUMP JUMPDEST PUSH32 0x4E487B7100000000000000000000000000000000000000000000000000000000 PUSH0 MSTORE PUSH1 0x41 PUSH1 0x4 MSTORE PUSH1 0x24 PUSH0 REVERT JUMPDEST PUSH32 0x4E487B7100000000000000000000000000000000000000000000000000000000 PUSH0 MSTORE PUSH1 0x22 PUSH1 0x4 MSTORE PUSH1 0x24 PUSH0 REVERT JUMPDEST PUSH0 PUSH1 0x2 DUP3 DIV SWAP1 POP PUSH1 0x1 DUP3 AND DUP1 PUSH3 0x2BA JUMPI PUSH1 0x7F DUP3 AND SWAP2 POP JUMPDEST PUSH1 0x20 DUP3 LT DUP2 SUB PUSH3 0x2D0 JUMPI PUSH3 0x2CF PUSH3 0x275 JUMP JUMPDEST JUMPDEST POP SWAP2 SWAP1 POP JUMP JUMPDEST PUSH0 DUP2 SWAP1 POP DUP2 PUSH0 MSTORE PUSH1 0x20 PUSH0 KECCAK256 SWAP1 POP SWAP2 SWAP1 POP JUMP JUMPDEST PUSH0 PUSH1 0x20 PUSH1 0x1F DUP4 ADD DIV SWAP1 POP SWAP2 SWAP1 POP JUMP JUMPDEST PUSH0 DUP3 DUP3 SHL SWAP1 POP SWAP3 SWAP2 POP POP JUMP JUMPDEST PUSH0 PUSH1 0x8 DUP4 MUL PUSH3 0x334 PUSH32 0xFFFFFFFFFFFFFFFFFFFFFFFFFFFFFFFFFFFFFFFFFFFFFFFFFFFFFFFFFFFFFFFF DUP3 PUSH3 0x2F7 JUMP JUMPDEST PUSH3 0x340 DUP7 DUP4 PUSH3 0x2F7 JUMP JUMPDEST SWAP6 POP DUP1 NOT DUP5 AND SWAP4 POP DUP1 DUP7 AND DUP5 OR SWAP3 POP POP POP SWAP4 SWAP3 POP POP POP JUMP JUMPDEST PUSH0 DUP2 SWAP1 POP SWAP2 SWAP1 POP JUMP JUMPDEST PUSH0 DUP2 SWAP1 POP SWAP2 SWAP1 POP JUMP JUMPDEST PUSH0 PUSH3 0x38A PUSH3 0x384 PUSH3 0x37E DUP5 PUSH3 0x358 JUMP JUMPDEST PUSH3 0x361 JUMP JUMPDEST PUSH3 0x358 JUMP JUMPDEST SWAP1 POP SWAP2 SWAP1 POP JUMP JUMPDEST PUSH0 DUP2 SWAP1 POP SWAP2 SWAP1 POP JUMP JUMPDEST PUSH3 0x3A5 DUP4 PUSH3 0x36A JUMP JUMPDEST PUSH3 0x3BD PUSH3 0x3B4 DUP3 PUSH3 0x391 JUMP JUMPDEST DUP5 DUP5 SLOAD PUSH3 0x303 JUMP JUMPDEST DUP3 SSTORE POP POP POP POP JUMP JUMPDEST PUSH0 SWAP1 JUMP JUMPDEST PUSH3 0x3D3 PUSH3 0x3C5 JUMP JUMPDEST PUSH3 0x3E0 DUP2 DUP5 DUP5 PUSH3 0x39A JUMP JUMPDEST POP POP POP JUMP JUMPDEST JUMPDEST DUP2 DUP2 LT ISZERO PUSH3 0x407 JUMPI PUSH3 0x3FB PUSH0 DUP3 PUSH3 0x3C9 JUMP JUMPDEST PUSH1 0x1 DUP2 ADD SWAP1 POP PUSH3 0x3E6 JUMP JUMPDEST POP POP JUMP JUMPDEST PUSH1 0x1F DUP3 GT ISZERO PUSH3 0x456 JUMPI PUSH3 0x420 DUP2 PUSH3 0x2D6 JUMP JUMPDEST PUSH3 0x42B DUP5 PUSH3 0x2E8 JUMP JUMPDEST DUP2 ADD PUSH1 0x20 DUP6 LT ISZERO PUSH3 0x43B JUMPI DUP2 SWAP1 POP JUMPDEST PUSH3 0x453 PUSH3 0x44A DUP6 PUSH3 0x2E8 JUMP JUMPDEST DUP4 ADD DUP3 PUSH3 0x3E5 JUMP JUMPDEST POP POP JUMPDEST POP POP POP JUMP JUMPDEST PUSH0 DUP3 DUP3 SHR SWAP1 POP SWAP3 SWAP2 POP POP JUMP JUMPDEST PUSH0 PUSH3 0x478 PUSH0 NOT DUP5 PUSH1 0x8 MUL PUSH3 0x45B JUMP JUMPDEST NOT DUP1 DUP4 AND SWAP2 POP POP SWAP3 SWAP2 POP POP JUMP JUMPDEST PUSH0 PUSH3 0x492 DUP4 DUP4 PUSH3 0x467 JUMP JUMPDEST SWAP2 POP DUP3 PUSH1 0x2 MUL DUP3 OR SWAP1 POP SWAP3 SWAP2 POP POP JUMP JUMPDEST PUSH3 0x4AD DUP3 PUSH3 0x23E JUMP JUMPDEST PUSH8 0xFFFFFFFFFFFFFFFF DUP2 GT ISZERO PUSH3 0x4C9 JUMPI PUSH3 0x4C8 PUSH3 0x248 JUMP JUMPDEST JUMPDEST PUSH3 0x4D5 DUP3 SLOAD PUSH3 0x2A2 JUMP JUMPDEST PUSH3 0x4E2 DUP3 DUP3 DUP6 PUSH3 0x40B JUMP JUMPDEST PUSH0 PUSH1 0x20 SWAP1 POP PUSH1 0x1F DUP4 GT PUSH1 0x1 DUP2 EQ PUSH3 0x518 JUMPI PUSH0 DUP5 ISZERO PUSH3 0x503 JUMPI DUP3 DUP8 ADD MLOAD SWAP1 POP JUMPDEST PUSH3 0x50F DUP6 DUP3 PUSH3 0x485 JUMP JUMPDEST DUP7 SSTORE POP PUSH3 0x57E JUMP JUMPDEST PUSH1 0x1F NOT DUP5 AND PUSH3 0x528 DUP7 PUSH3 0x2D6 JUMP JUMPDEST PUSH0 JUMPDEST DUP3 DUP2 LT ISZERO PUSH3 0x551 JUMPI DUP5 DUP10 ADD MLOAD DUP3 SSTORE PUSH1 0x1 DUP3 ADD SWAP2 POP PUSH1 0x20 DUP6 ADD SWAP5 POP PUSH1 0x20 DUP2 ADD SWAP1 POP PUSH3 0x52A JUMP JUMPDEST DUP7 DUP4 LT ISZERO PUSH3 0x571 JUMPI DUP5 DUP10 ADD MLOAD PUSH3 0x56D PUSH1 0x1F DUP10 AND DUP3 PUSH3 0x467 JUMP JUMPDEST DUP4 SSTORE POP JUMPDEST PUSH1 0x1 PUSH1 0x2 DUP9 MUL ADD DUP9 SSTORE POP POP POP JUMPDEST POP POP POP POP POP POP JUMP JUMPDEST PUSH2 0x104D DUP1 PUSH3 0x594 PUSH0 CODECOPY PUSH0 RETURN INVALID PUSH1 0x80 PUSH1 0x40 MSTORE CALLVALUE DUP1 ISZERO PUSH2 0xF JUMPI PUSH0 DUP1 REVERT JUMPDEST POP PUSH1 0x4 CALLDATASIZE LT PUSH2 0x5F JUMPI PUSH0 CALLDATALOAD PUSH1 0xE0 SHR DUP1 PUSH3 0x8356AF EQ PUSH2 0x63 JUMPI DUP1 PUSH4 0x3BBC61D5 EQ PUSH2 0x93 JUMPI DUP1 PUSH4 0x60ED63ED EQ PUSH2 0xB1 JUMPI DUP1 PUSH4 0x86B97733 EQ PUSH2 0xE1 JUMPI DUP1 PUSH4 0xEC9D6AC8 EQ PUSH2 0x111 JUMPI DUP1 PUSH4 0xF001A551 EQ PUSH2 0x12D JUMPI JUMPDEST PUSH0 DUP1 REVERT JUMPDEST PUSH2 0x7D PUSH1 0x4 DUP1 CALLDATASIZE SUB DUP2 ADD SWAP1 PUSH2 0x78 SWAP2 SWAP1 PUSH2 0x812 JUMP JUMPDEST PUSH2 0x15D JUMP JUMPDEST PUSH1 0x40 MLOAD PUSH2 0x8A SWAP2 SWAP1 PUSH2 0x871 JUMP JUMPDEST PUSH1 0x40 MLOAD DUP1 SWAP2 SUB SWAP1 RETURN JUMPDEST PUSH2 0x9B PUSH2 0x18A JUMP JUMPDEST PUSH1 0x40 MLOAD PUSH2 0xA8 SWAP2 SWAP1 PUSH2 0x904 JUMP JUMPDEST PUSH1 0x40 MLOAD DUP1 SWAP2 SUB SWAP1 RETURN JUMPDEST PUSH2 0xCB PUSH1 0x4 DUP1 CALLDATASIZE SUB DUP2 ADD SWAP1 PUSH2 0xC6 SWAP2 SWAP1 PUSH2 0x97E JUMP JUMPDEST PUSH2 0x255 JUMP JUMPDEST PUSH1 0x40 MLOAD PUSH2 0xD8 SWAP2 SWAP1 PUSH2 0x904 JUMP JUMPDEST PUSH1 0x40 MLOAD DUP1 SWAP2 SUB SWAP1 RETURN JUMPDEST PUSH2 0xFB PUSH1 0x4 DUP1 CALLDATASIZE SUB DUP2 ADD SWAP1 PUSH2 0xF6 SWAP2 SWAP1 PUSH2 0x9D3 JUMP JUMPDEST PUSH2 0x2F0 JUMP JUMPDEST PUSH1 0x40 MLOAD PUSH2 0x108 SWAP2 SWAP1 PUSH2 0x904 JUMP JUMPDEST PUSH1 0x40 MLOAD DUP1 SWAP2 SUB SWAP1 RETURN JUMPDEST PUSH2 0x12B PUSH1 0x4 DUP1 CALLDATASIZE SUB DUP2 ADD SWAP1 PUSH2 0x126 SWAP2 SWAP1 PUSH2 0xA5B JUMP JUMPDEST PUSH2 0x395 JUMP JUMPDEST STOP JUMPDEST PUSH2 0x147 PUSH1 0x4 DUP1 CALLDATASIZE SUB DUP2 ADD SWAP1 PUSH2 0x142 SWAP2 SWAP1 PUSH2 0xA5B JUMP JUMPDEST PUSH2 0x5FB JUMP JUMPDEST PUSH1 0x40 MLOAD PUSH2 0x154 SWAP2 SWAP1 PUSH2 0x871 JUMP JUMPDEST PUSH1 0x40 MLOAD DUP1 SWAP2 SUB SWAP1 RETURN JUMPDEST PUSH1 0x2 DUP2 DUP1 MLOAD PUSH1 0x20 DUP2 ADD DUP3 ADD DUP1 MLOAD DUP5 DUP3 MSTORE PUSH1 0x20 DUP4 ADD PUSH1 0x20 DUP6 ADD KECCAK256 DUP2 DUP4 MSTORE DUP1 SWAP6 POP POP POP POP POP POP PUSH0 SWAP2 POP SWAP1 POP SLOAD DUP2 JUMP JUMPDEST PUSH1 0x60 PUSH1 0x1 PUSH0 CALLER PUSH20 0xFFFFFFFFFFFFFFFFFFFFFFFFFFFFFFFFFFFFFFFF AND PUSH20 0xFFFFFFFFFFFFFFFFFFFFFFFFFFFFFFFFFFFFFFFF AND DUP2 MSTORE PUSH1 0x20 ADD SWAP1 DUP2 MSTORE PUSH1 0x20 ADD PUSH0 KECCAK256 DUP1 SLOAD PUSH2 0x1D4 SWAP1 PUSH2 0xAD3 JUMP JUMPDEST DUP1 PUSH1 0x1F ADD PUSH1 0x20 DUP1 SWAP2 DIV MUL PUSH1 0x20 ADD PUSH1 0x40 MLOAD SWAP1 DUP2 ADD PUSH1 0x40 MSTORE DUP1 SWAP3 SWAP2 SWAP1 DUP2 DUP2 MSTORE PUSH1 0x20 ADD DUP3 DUP1 SLOAD PUSH2 0x200 SWAP1 PUSH2 0xAD3 JUMP JUMPDEST DUP1 ISZERO PUSH2 0x24B JUMPI DUP1 PUSH1 0x1F LT PUSH2 0x222 JUMPI PUSH2 0x100 DUP1 DUP4 SLOAD DIV MUL DUP4 MSTORE SWAP2 PUSH1 0x20 ADD SWAP2 PUSH2 0x24B JUMP JUMPDEST DUP3 ADD SWAP2 SWAP1 PUSH0 MSTORE PUSH1 0x20 PUSH0 KECCAK256 SWAP1 JUMPDEST DUP2 SLOAD DUP2 MSTORE SWAP1 PUSH1 0x1 ADD SWAP1 PUSH1 0x20 ADD DUP1 DUP4 GT PUSH2 0x22E JUMPI DUP3 SWAP1 SUB PUSH1 0x1F AND DUP3 ADD SWAP2 JUMPDEST POP POP POP POP POP SWAP1 POP SWAP1 JUMP JUMPDEST PUSH1 0x1 PUSH1 0x20 MSTORE DUP1 PUSH0 MSTORE PUSH1 0x40 PUSH0 KECCAK256 PUSH0 SWAP2 POP SWAP1 POP DUP1 SLOAD PUSH2 0x271 SWAP1 PUSH2 0xAD3 JUMP JUMPDEST DUP1 PUSH1 0x1F ADD PUSH1 0x20 DUP1 SWAP2 DIV MUL PUSH1 0x20 ADD PUSH1 0x40 MLOAD SWAP1 DUP2 ADD PUSH1 0x40 MSTORE DUP1 SWAP3 SWAP2 SWAP1 DUP2 DUP2 MSTORE PUSH1 0x20 ADD DUP3 DUP1 SLOAD PUSH2 0x29D SWAP1 PUSH2 0xAD3 JUMP JUMPDEST DUP1 ISZERO PUSH2 0x2E8 JUMPI DUP1 PUSH1 0x1F LT PUSH2 0x2BF JUMPI PUSH2 0x100 DUP1 DUP4 SLOAD DIV MUL DUP4 MSTORE SWAP2 PUSH1 0x20 ADD SWAP2 PUSH2 0x2E8 JUMP JUMPDEST DUP3 ADD SWAP2 SWAP1 PUSH0 MSTORE PUSH1 0x20 PUSH0 KECCAK256 SWAP1 JUMPDEST DUP2 SLOAD DUP2 MSTORE SWAP1 PUSH1 0x1 ADD SWAP1 PUSH1 0x20 ADD DUP1 DUP4 GT PUSH2 0x2CB JUMPI DUP3 SWAP1 SUB PUSH1 0x1F AND DUP3 ADD SWAP2 JUMPDEST POP POP POP POP POP DUP2 JUMP JUMPDEST PUSH0 DUP2 DUP2 SLOAD DUP2 LT PUSH2 0x2FE JUMPI PUSH0 DUP1 REVERT JUMPDEST SWAP1 PUSH0 MSTORE PUSH1 0x20 PUSH0 KECCAK256 ADD PUSH0 SWAP2 POP SWAP1 POP DUP1 SLOAD PUSH2 0x316 SWAP1 PUSH2 0xAD3 JUMP JUMPDEST DUP1 PUSH1 0x1F ADD PUSH1 0x20 DUP1 SWAP2 DIV MUL PUSH1 0x20 ADD PUSH1 0x40 MLOAD SWAP1 DUP2 ADD PUSH1 0x40 MSTORE DUP1 SWAP3 SWAP2 SWAP1 DUP2 DUP2 MSTORE PUSH1 0x20 ADD DUP3 DUP1 SLOAD PUSH2 0x342 SWAP1 PUSH2 0xAD3 JUMP JUMPDEST DUP1 ISZERO PUSH2 0x38D JUMPI DUP1 PUSH1 0x1F LT PUSH2 0x364 JUMPI PUSH2 0x100 DUP1 DUP4 SLOAD DIV MUL DUP4 MSTORE SWAP2 PUSH1 0x20 ADD SWAP2 PUSH2 0x38D JUMP JUMPDEST DUP3 ADD SWAP2 SWAP1 PUSH0 MSTORE PUSH1 0x20 PUSH0 KECCAK256 SWAP1 JUMPDEST DUP2 SLOAD DUP2 MSTORE SWAP1 PUSH1 0x1 ADD SWAP1 PUSH1 0x20 ADD DUP1 DUP4 GT PUSH2 0x370 JUMPI DUP3 SWAP1 SUB PUSH1 0x1F AND DUP3 ADD SWAP2 JUMPDEST POP POP POP POP POP DUP2 JUMP JUMPDEST PUSH2 0x3E1 DUP3 DUP3 DUP1 DUP1 PUSH1 0x1F ADD PUSH1 0x20 DUP1 SWAP2 DIV MUL PUSH1 0x20 ADD PUSH1 0x40 MLOAD SWAP1 DUP2 ADD PUSH1 0x40 MSTORE DUP1 SWAP4 SWAP3 SWAP2 SWAP1 DUP2 DUP2 MSTORE PUSH1 0x20 ADD DUP4 DUP4 DUP1 DUP3 DUP5 CALLDATACOPY PUSH0 DUP2 DUP5 ADD MSTORE PUSH1 0x1F NOT PUSH1 0x1F DUP3 ADD AND SWAP1 POP DUP1 DUP4 ADD SWAP3 POP POP POP POP POP POP POP PUSH2 0x625 JUMP JUMPDEST PUSH2 0x420 JUMPI PUSH1 0x40 MLOAD PUSH32 0x8C379A000000000000000000000000000000000000000000000000000000000 DUP2 MSTORE PUSH1 0x4 ADD PUSH2 0x417 SWAP1 PUSH2 0xB4D JUMP JUMPDEST PUSH1 0x40 MLOAD DUP1 SWAP2 SUB SWAP1 REVERT JUMPDEST PUSH0 PUSH1 0x1 PUSH0 CALLER PUSH20 0xFFFFFFFFFFFFFFFFFFFFFFFFFFFFFFFFFFFFFFFF AND PUSH20 0xFFFFFFFFFFFFFFFFFFFFFFFFFFFFFFFFFFFFFFFF AND DUP2 MSTORE PUSH1 0x20 ADD SWAP1 DUP2 MSTORE PUSH1 0x20 ADD PUSH0 KECCAK256 DUP1 SLOAD PUSH2 0x469 SWAP1 PUSH2 0xAD3 JUMP JUMPDEST DUP1 PUSH1 0x1F ADD PUSH1 0x20 DUP1 SWAP2 DIV MUL PUSH1 0x20 ADD PUSH1 0x40 MLOAD SWAP1 DUP2 ADD PUSH1 0x40 MSTORE DUP1 SWAP3 SWAP2 SWAP1 DUP2 DUP2 MSTORE PUSH1 0x20 ADD DUP3 DUP1 SLOAD PUSH2 0x495 SWAP1 PUSH2 0xAD3 JUMP JUMPDEST DUP1 ISZERO PUSH2 0x4E0 JUMPI DUP1 PUSH1 0x1F LT PUSH2 0x4B7 JUMPI PUSH2 0x100 DUP1 DUP4 SLOAD DIV MUL DUP4 MSTORE SWAP2 PUSH1 0x20 ADD SWAP2 PUSH2 0x4E0 JUMP JUMPDEST DUP3 ADD SWAP2 SWAP1 PUSH0 MSTORE PUSH1 0x20 PUSH0 KECCAK256 SWAP1 JUMPDEST DUP2 SLOAD DUP2 MSTORE SWAP1 PUSH1 0x1 ADD SWAP1 PUSH1 0x20 ADD DUP1 DUP4 GT PUSH2 0x4C3 JUMPI DUP3 SWAP1 SUB PUSH1 0x1F AND DUP3 ADD SWAP2 JUMPDEST POP POP POP POP POP SWAP1 POP PUSH0 DUP2 MLOAD GT ISZERO PUSH2 0x524 JUMPI PUSH1 0x2 DUP2 PUSH1 0x40 MLOAD PUSH2 0x500 SWAP2 SWAP1 PUSH2 0xBA5 JUMP JUMPDEST SWAP1 DUP2 MSTORE PUSH1 0x20 ADD PUSH1 0x40 MLOAD DUP1 SWAP2 SUB SWAP1 KECCAK256 PUSH0 DUP2 SLOAD DUP1 SWAP3 SWAP2 SWAP1 PUSH2 0x51E SWAP1 PUSH2 0xBE8 JUMP JUMPDEST SWAP2 SWAP1 POP SSTORE POP JUMPDEST DUP3 DUP3 PUSH1 0x1 PUSH0 CALLER PUSH20 0xFFFFFFFFFFFFFFFFFFFFFFFFFFFFFFFFFFFFFFFF AND PUSH20 0xFFFFFFFFFFFFFFFFFFFFFFFFFFFFFFFFFFFFFFFF AND DUP2 MSTORE PUSH1 0x20 ADD SWAP1 DUP2 MSTORE PUSH1 0x20 ADD PUSH0 KECCAK256 SWAP2 DUP3 PUSH2 0x570 SWAP3 SWAP2 SWAP1 PUSH2 0xDB6 JUMP JUMPDEST POP PUSH1 0x2 DUP4 DUP4 PUSH1 0x40 MLOAD PUSH2 0x583 SWAP3 SWAP2 SWAP1 PUSH2 0xEA7 JUMP JUMPDEST SWAP1 DUP2 MSTORE PUSH1 0x20 ADD PUSH1 0x40 MLOAD DUP1 SWAP2 SUB SWAP1 KECCAK256 PUSH0 DUP2 SLOAD DUP1 SWAP3 SWAP2 SWAP1 PUSH2 0x5A1 SWAP1 PUSH2 0xEBF JUMP JUMPDEST SWAP2 SWAP1 POP SSTORE POP CALLER PUSH20 0xFFFFFFFFFFFFFFFFFFFFFFFFFFFFFFFFFFFFFFFF AND PUSH32 0x134CE9015B00CC5D26FC7A1E64C1A9001AE6BDB82D9DCCADD5D4625E2D736CA1 DUP5 DUP5 PUSH1 0x40 MLOAD PUSH2 0x5EE SWAP3 SWAP2 SWAP1 PUSH2 0xF32 JUMP JUMPDEST PUSH1 0x40 MLOAD DUP1 SWAP2 SUB SWAP1 LOG2 POP POP POP JUMP JUMPDEST PUSH0 PUSH1 0x2 DUP4 DUP4 PUSH1 0x40 MLOAD PUSH2 0x60E SWAP3 SWAP2 SWAP1 PUSH2 0xEA7 JUMP JUMPDEST SWAP1 DUP2 MSTORE PUSH1 0x20 ADD PUSH1 0x40 MLOAD DUP1 SWAP2 SUB SWAP1 KECCAK256 SLOAD SWAP1 POP SWAP3 SWAP2 POP POP JUMP JUMPDEST PUSH0 DUP1 PUSH0 SWAP1 POP JUMPDEST PUSH0 DUP1 SLOAD SWAP1 POP DUP2 LT ISZERO PUSH2 0x6BB JUMPI PUSH0 DUP2 DUP2 SLOAD DUP2 LT PUSH2 0x64A JUMPI PUSH2 0x649 PUSH2 0xF54 JUMP JUMPDEST JUMPDEST SWAP1 PUSH0 MSTORE PUSH1 0x20 PUSH0 KECCAK256 ADD PUSH1 0x40 MLOAD PUSH1 0x20 ADD PUSH2 0x662 SWAP2 SWAP1 PUSH2 0x1001 JUMP JUMPDEST PUSH1 0x40 MLOAD PUSH1 0x20 DUP2 DUP4 SUB SUB DUP2 MSTORE SWAP1 PUSH1 0x40 MSTORE DUP1 MLOAD SWAP1 PUSH1 0x20 ADD KECCAK256 DUP4 PUSH1 0x40 MLOAD PUSH1 0x20 ADD PUSH2 0x689 SWAP2 SWAP1 PUSH2 0xBA5 JUMP JUMPDEST PUSH1 0x40 MLOAD PUSH1 0x20 DUP2 DUP4 SUB SUB DUP2 MSTORE SWAP1 PUSH1 0x40 MSTORE DUP1 MLOAD SWAP1 PUSH1 0x20 ADD KECCAK256 SUB PUSH2 0x6AE JUMPI PUSH1 0x1 SWAP2 POP POP PUSH2 0x6C0 JUMP JUMPDEST DUP1 DUP1 PUSH1 0x1 ADD SWAP2 POP POP PUSH2 0x62B JUMP JUMPDEST POP PUSH0 SWAP1 POP JUMPDEST SWAP2 SWAP1 POP JUMP JUMPDEST PUSH0 PUSH1 0x40 MLOAD SWAP1 POP SWAP1 JUMP JUMPDEST PUSH0 DUP1 REVERT JUMPDEST PUSH0 DUP1 REVERT JUMPDEST PUSH0 DUP1 REVERT JUMPDEST PUSH0 DUP1 REVERT JUMPDEST PUSH0 PUSH1 0x1F NOT PUSH1 0x1F DUP4 ADD AND SWAP1 POP SWAP2 SWAP1 POP JUMP JUMPDEST PUSH32 0x4E487B7100000000000000000000000000000000000000000000000000000000 PUSH0 MSTORE PUSH1 0x41 PUSH1 0x4 MSTORE PUSH1 0x24 PUSH0 REVERT JUMPDEST PUSH2 0x724 DUP3 PUSH2 0x6DE JUMP JUMPDEST DUP2 ADD DUP2 DUP2 LT PUSH8 0xFFFFFFFFFFFFFFFF DUP3 GT OR ISZERO PUSH2 0x743 JUMPI PUSH2 0x742 PUSH2 0x6EE JUMP JUMPDEST JUMPDEST DUP1 PUSH1 0x40 MSTORE POP POP POP JUMP JUMPDEST PUSH0 PUSH2 0x755 PUSH2 0x6C5 JUMP JUMPDEST SWAP1 POP PUSH2 0x761 DUP3 DUP3 PUSH2 0x71B JUMP JUMPDEST SWAP2 SWAP1 POP JUMP JUMPDEST PUSH0 PUSH8 0xFFFFFFFFFFFFFFFF DUP3 GT ISZERO PUSH2 0x780 JUMPI PUSH2 0x77F PUSH2 0x6EE JUMP JUMPDEST JUMPDEST PUSH2 0x789 DUP3 PUSH2 0x6DE JUMP JUMPDEST SWAP1 POP PUSH1 0x20 DUP2 ADD SWAP1 POP SWAP2 SWAP1 POP JUMP JUMPDEST DUP3 DUP2 DUP4 CALLDATACOPY PUSH0 DUP4 DUP4 ADD MSTORE POP POP POP JUMP JUMPDEST PUSH0 PUSH2 0x7B6 PUSH2 0x7B1 DUP5 PUSH2 0x766 JUMP JUMPDEST PUSH2 0x74C JUMP JUMPDEST SWAP1 POP DUP3 DUP2 MSTORE PUSH1 0x20 DUP2 ADD DUP5 DUP5 DUP5 ADD GT ISZERO PUSH2 0x7D2 JUMPI PUSH2 0x7D1 PUSH2 0x6DA JUMP JUMPDEST JUMPDEST PUSH2 0x7DD DUP5 DUP3 DUP6 PUSH2 0x796 JUMP JUMPDEST POP SWAP4 SWAP3 POP POP POP JUMP JUMPDEST PUSH0 DUP3 PUSH1 0x1F DUP4 ADD SLT PUSH2 0x7F9 JUMPI PUSH2 0x7F8 PUSH2 0x6D6 JUMP JUMPDEST JUMPDEST DUP2 CALLDATALOAD PUSH2 0x809 DUP5 DUP3 PUSH1 0x20 DUP7 ADD PUSH2 0x7A4 JUMP JUMPDEST SWAP2 POP POP SWAP3 SWAP2 POP POP JUMP JUMPDEST PUSH0 PUSH1 0x20 DUP3 DUP5 SUB SLT ISZERO PUSH2 0x827 JUMPI PUSH2 0x826 PUSH2 0x6CE JUMP JUMPDEST JUMPDEST PUSH0 DUP3 ADD CALLDATALOAD PUSH8 0xFFFFFFFFFFFFFFFF DUP2 GT ISZERO PUSH2 0x844 JUMPI PUSH2 0x843 PUSH2 0x6D2 JUMP JUMPDEST JUMPDEST PUSH2 0x850 DUP5 DUP3 DUP6 ADD PUSH2 0x7E5 JUMP JUMPDEST SWAP2 POP POP SWAP3 SWAP2 POP POP JUMP JUMPDEST PUSH0 DUP2 SWAP1 POP SWAP2 SWAP1 POP JUMP JUMPDEST PUSH2 0x86B DUP2 PUSH2 0x859 JUMP JUMPDEST DUP3 MSTORE POP POP JUMP JUMPDEST PUSH0 PUSH1 0x20 DUP3 ADD SWAP1 POP PUSH2 0x884 PUSH0 DUP4 ADD DUP5 PUSH2 0x862 JUMP JUMPDEST SWAP3 SWAP2 POP POP JUMP JUMPDEST PUSH0 DUP2 MLOAD SWAP1 POP SWAP2 SWAP1 POP JUMP JUMPDEST PUSH0 DUP3 DUP3 MSTORE PUSH1 0x20 DUP3 ADD SWAP1 POP SWAP3 SWAP2 POP POP JUMP JUMPDEST PUSH0 JUMPDEST DUP4 DUP2 LT ISZERO PUSH2 0x8C1 JUMPI DUP1 DUP3 ADD MLOAD DUP2 DUP5 ADD MSTORE PUSH1 0x20 DUP2 ADD SWAP1 POP PUSH2 0x8A6 JUMP JUMPDEST PUSH0 DUP5 DUP5 ADD MSTORE POP POP POP POP JUMP JUMPDEST PUSH0 PUSH2 0x8D6 DUP3 PUSH2 0x88A JUMP JUMPDEST PUSH2 0x8E0 DUP2 DUP6 PUSH2 0x894 JUMP JUMPDEST SWAP4 POP PUSH2 0x8F0 DUP2 DUP6 PUSH1 0x20 DUP7 ADD PUSH2 0x8A4 JUMP JUMPDEST PUSH2 0x8F9 DUP2 PUSH2 0x6DE JUMP JUMPDEST DUP5 ADD SWAP2 POP POP SWAP3 SWAP2 POP POP JUMP JUMPDEST PUSH0 PUSH1 0x20 DUP3 ADD SWAP1 POP DUP2 DUP2 SUB PUSH0 DUP4 ADD MSTORE PUSH2 0x91C DUP2 DUP5 PUSH2 0x8CC JUMP JUMPDEST SWAP1 POP SWAP3 SWAP2 POP POP JUMP JUMPDEST PUSH0 PUSH20 0xFFFFFFFFFFFFFFFFFFFFFFFFFFFFFFFFFFFFFFFF DUP3 AND SWAP1 POP SWAP2 SWAP1 POP JUMP JUMPDEST PUSH0 PUSH2 0x94D DUP3 PUSH2 0x924 JUMP JUMPDEST SWAP1 POP SWAP2 SWAP1 POP JUMP JUMPDEST PUSH2 0x95D DUP2 PUSH2 0x943 JUMP JUMPDEST DUP2 EQ PUSH2 0x967 JUMPI PUSH0 DUP1 REVERT JUMPDEST POP JUMP JUMPDEST PUSH0 DUP2 CALLDATALOAD SWAP1 POP PUSH2 0x978 DUP2 PUSH2 0x954 JUMP JUMPDEST SWAP3 SWAP2 POP POP JUMP JUMPDEST PUSH0 PUSH1 0x20 DUP3 DUP5 SUB SLT ISZERO PUSH2 0x993 JUMPI PUSH2 0x992 PUSH2 0x6CE JUMP JUMPDEST JUMPDEST PUSH0 PUSH2 0x9A0 DUP5 DUP3 DUP6 ADD PUSH2 0x96A JUMP JUMPDEST SWAP2 POP POP SWAP3 SWAP2 POP POP JUMP JUMPDEST PUSH2 0x9B2 DUP2 PUSH2 0x859 JUMP JUMPDEST DUP2 EQ PUSH2 0x9BC JUMPI PUSH0 DUP1 REVERT JUMPDEST POP JUMP JUMPDEST PUSH0 DUP2 CALLDATALOAD SWAP1 POP PUSH2 0x9CD DUP2 PUSH2 0x9A9 JUMP JUMPDEST SWAP3 SWAP2 POP POP JUMP JUMPDEST PUSH0 PUSH1 0x20 DUP3 DUP5 SUB SLT ISZERO PUSH2 0x9E8 JUMPI PUSH2 0x9E7 PUSH2 0x6CE JUMP JUMPDEST JUMPDEST PUSH0 PUSH2 0x9F5 DUP5 DUP3 DUP6 ADD PUSH2 0x9BF JUMP JUMPDEST SWAP2 POP POP SWAP3 SWAP2 POP POP JUMP JUMPDEST PUSH0 DUP1 REVERT JUMPDEST PUSH0 DUP1 REVERT JUMPDEST PUSH0 DUP1 DUP4 PUSH1 0x1F DUP5 ADD SLT PUSH2 0xA1B JUMPI PUSH2 0xA1A PUSH2 0x6D6 JUMP JUMPDEST JUMPDEST DUP3 CALLDATALOAD SWAP1 POP PUSH8 0xFFFFFFFFFFFFFFFF DUP2 GT ISZERO PUSH2 0xA38 JUMPI PUSH2 0xA37 PUSH2 0x9FE JUMP JUMPDEST JUMPDEST PUSH1 0x20 DUP4 ADD SWAP2 POP DUP4 PUSH1 0x1 DUP3 MUL DUP4 ADD GT ISZERO PUSH2 0xA54 JUMPI PUSH2 0xA53 PUSH2 0xA02 JUMP JUMPDEST JUMPDEST SWAP3 POP SWAP3 SWAP1 POP JUMP JUMPDEST PUSH0 DUP1 PUSH1 0x20 DUP4 DUP6 SUB SLT ISZERO PUSH2 0xA71 JUMPI PUSH2 0xA70 PUSH2 0x6CE JUMP JUMPDEST JUMPDEST PUSH0 DUP4 ADD CALLDATALOAD PUSH8 0xFFFFFFFFFFFFFFFF DUP2 GT ISZERO PUSH2 0xA8E JUMPI PUSH2 0xA8D PUSH2 0x6D2 JUMP JUMPDEST JUMPDEST PUSH2 0xA9A DUP6 DUP3 DUP7 ADD PUSH2 0xA06 JUMP JUMPDEST SWAP3 POP SWAP3 POP POP SWAP3 POP SWAP3 SWAP1 POP JUMP JUMPDEST PUSH32 0x4E487B7100000000000000000000000000000000000000000000000000000000 PUSH0 MSTORE PUSH1 0x22 PUSH1 0x4 MSTORE PUSH1 0x24 PUSH0 REVERT JUMPDEST PUSH0 PUSH1 0x2 DUP3 DIV SWAP1 POP PUSH1 0x1 DUP3 AND DUP1 PUSH2 0xAEA JUMPI PUSH1 0x7F DUP3 AND SWAP2 POP JUMPDEST PUSH1 0x20 DUP3 LT DUP2 SUB PUSH2 0xAFD JUMPI PUSH2 0xAFC PUSH2 0xAA6 JUMP JUMPDEST JUMPDEST POP SWAP2 SWAP1 POP JUMP JUMPDEST PUSH32 0x496E76616C696420656D6F6A6900000000000000000000000000000000000000 PUSH0 DUP3 ADD MSTORE POP JUMP JUMPDEST PUSH0 PUSH2 0xB37 PUSH1 0xD DUP4 PUSH2 0x894 JUMP JUMPDEST SWAP2 POP PUSH2 0xB42 DUP3 PUSH2 0xB03 JUMP JUMPDEST PUSH1 0x20 DUP3 ADD SWAP1 POP SWAP2 SWAP1 POP JUMP JUMPDEST PUSH0 PUSH1 0x20 DUP3 ADD SWAP1 POP DUP2 DUP2 SUB PUSH0 DUP4 ADD MSTORE PUSH2 0xB64 DUP2 PUSH2 0xB2B JUMP JUMPDEST SWAP1 POP SWAP2 SWAP1 POP JUMP JUMPDEST PUSH0 DUP2 SWAP1 POP SWAP3 SWAP2 POP POP JUMP JUMPDEST PUSH0 PUSH2 0xB7F DUP3 PUSH2 0x88A JUMP JUMPDEST PUSH2 0xB89 DUP2 DUP6 PUSH2 0xB6B JUMP JUMPDEST SWAP4 POP PUSH2 0xB99 DUP2 DUP6 PUSH1 0x20 DUP7 ADD PUSH2 0x8A4 JUMP JUMPDEST DUP1 DUP5 ADD SWAP2 POP POP SWAP3 SWAP2 POP POP JUMP JUMPDEST PUSH0 PUSH2 0xBB0 DUP3 DUP5 PUSH2 0xB75 JUMP JUMPDEST SWAP2 POP DUP2 SWAP1 POP SWAP3 SWAP2 POP POP JUMP JUMPDEST PUSH32 0x4E487B7100000000000000000000000000000000000000000000000000000000 PUSH0 MSTORE PUSH1 0x11 PUSH1 0x4 MSTORE PUSH1 0x24 PUSH0 REVERT JUMPDEST PUSH0 PUSH2 0xBF2 DUP3 PUSH2 0x859 JUMP JUMPDEST SWAP2 POP PUSH0 DUP3 SUB PUSH2 0xC04 JUMPI PUSH2 0xC03 PUSH2 0xBBB JUMP JUMPDEST JUMPDEST PUSH1 0x1 DUP3 SUB SWAP1 POP SWAP2 SWAP1 POP JUMP JUMPDEST PUSH0 DUP3 SWAP1 POP SWAP3 SWAP2 POP POP JUMP JUMPDEST PUSH0 DUP2 SWAP1 POP DUP2 PUSH0 MSTORE PUSH1 0x20 PUSH0 KECCAK256 SWAP1 POP SWAP2 SWAP1 POP JUMP JUMPDEST PUSH0 PUSH1 0x20 PUSH1 0x1F DUP4 ADD DIV SWAP1 POP SWAP2 SWAP1 POP JUMP JUMPDEST PUSH0 DUP3 DUP3 SHL SWAP1 POP SWAP3 SWAP2 POP POP JUMP JUMPDEST PUSH0 PUSH1 0x8 DUP4 MUL PUSH2 0xC75 PUSH32 0xFFFFFFFFFFFFFFFFFFFFFFFFFFFFFFFFFFFFFFFFFFFFFFFFFFFFFFFFFFFFFFFF DUP3 PUSH2 0xC3A JUMP JUMPDEST PUSH2 0xC7F DUP7 DUP4 PUSH2 0xC3A JUMP JUMPDEST SWAP6 POP DUP1 NOT DUP5 AND SWAP4 POP DUP1 DUP7 AND DUP5 OR SWAP3 POP POP POP SWAP4 SWAP3 POP POP POP JUMP JUMPDEST PUSH0 DUP2 SWAP1 POP SWAP2 SWAP1 POP JUMP JUMPDEST PUSH0 PUSH2 0xCBA PUSH2 0xCB5 PUSH2 0xCB0 DUP5 PUSH2 0x859 JUMP JUMPDEST PUSH2 0xC97 JUMP JUMPDEST PUSH2 0x859 JUMP JUMPDEST SWAP1 POP SWAP2 SWAP1 POP JUMP JUMPDEST PUSH0 DUP2 SWAP1 POP SWAP2 SWAP1 POP JUMP JUMPDEST PUSH2 0xCD3 DUP4 PUSH2 0xCA0 JUMP JUMPDEST PUSH2 0xCE7 PUSH2 0xCDF DUP3 PUSH2 0xCC1 JUMP JUMPDEST DUP5 DUP5 SLOAD PUSH2 0xC46 JUMP JUMPDEST DUP3 SSTORE POP POP POP POP JUMP JUMPDEST PUSH0 SWAP1 JUMP JUMPDEST PUSH2 0xCFB PUSH2 0xCEF JUMP JUMPDEST PUSH2 0xD06 DUP2 DUP5 DUP5 PUSH2 0xCCA JUMP JUMPDEST POP POP POP JUMP JUMPDEST JUMPDEST DUP2 DUP2 LT ISZERO PUSH2 0xD29 JUMPI PUSH2 0xD1E PUSH0 DUP3 PUSH2 0xCF3 JUMP JUMPDEST PUSH1 0x1 DUP2 ADD SWAP1 POP PUSH2 0xD0C JUMP JUMPDEST POP POP JUMP JUMPDEST PUSH1 0x1F DUP3 GT ISZERO PUSH2 0xD6E JUMPI PUSH2 0xD3F DUP2 PUSH2 0xC19 JUMP JUMPDEST PUSH2 0xD48 DUP5 PUSH2 0xC2B JUMP JUMPDEST DUP2 ADD PUSH1 0x20 DUP6 LT ISZERO PUSH2 0xD57 JUMPI DUP2 SWAP1 POP JUMPDEST PUSH2 0xD6B PUSH2 0xD63 DUP6 PUSH2 0xC2B JUMP JUMPDEST DUP4 ADD DUP3 PUSH2 0xD0B JUMP JUMPDEST POP POP JUMPDEST POP POP POP JUMP JUMPDEST PUSH0 DUP3 DUP3 SHR SWAP1 POP SWAP3 SWAP2 POP POP JUMP JUMPDEST PUSH0 PUSH2 0xD8E PUSH0 NOT DUP5 PUSH1 0x8 MUL PUSH2 0xD73 JUMP JUMPDEST NOT DUP1 DUP4 AND SWAP2 POP POP SWAP3 SWAP2 POP POP JUMP JUMPDEST PUSH0 PUSH2 0xDA6 DUP4 DUP4 PUSH2 0xD7F JUMP JUMPDEST SWAP2 POP DUP3 PUSH1 0x2 MUL DUP3 OR SWAP1 POP SWAP3 SWAP2 POP POP JUMP JUMPDEST PUSH2 0xDC0 DUP4 DUP4 PUSH2 0xC0F JUMP JUMPDEST PUSH8 0xFFFFFFFFFFFFFFFF DUP2 GT ISZERO PUSH2 0xDD9 JUMPI PUSH2 0xDD8 PUSH2 0x6EE JUMP JUMPDEST JUMPDEST PUSH2 0xDE3 DUP3 SLOAD PUSH2 0xAD3 JUMP JUMPDEST PUSH2 0xDEE DUP3 DUP3 DUP6 PUSH2 0xD2D JUMP JUMPDEST PUSH0 PUSH1 0x1F DUP4 GT PUSH1 0x1 DUP2 EQ PUSH2 0xE1B JUMPI PUSH0 DUP5 ISZERO PUSH2 0xE09 JUMPI DUP3 DUP8 ADD CALLDATALOAD SWAP1 POP JUMPDEST PUSH2 0xE13 DUP6 DUP3 PUSH2 0xD9B JUMP JUMPDEST DUP7 SSTORE POP PUSH2 0xE7A JUMP JUMPDEST PUSH1 0x1F NOT DUP5 AND PUSH2 0xE29 DUP7 PUSH2 0xC19 JUMP JUMPDEST PUSH0 JUMPDEST DUP3 DUP2 LT ISZERO PUSH2 0xE50 JUMPI DUP5 DUP10 ADD CALLDATALOAD DUP3 SSTORE PUSH1 0x1 DUP3 ADD SWAP2 POP PUSH1 0x20 DUP6 ADD SWAP5 POP PUSH1 0x20 DUP2 ADD SWAP1 POP PUSH2 0xE2B JUMP JUMPDEST DUP7 DUP4 LT ISZERO PUSH2 0xE6D JUMPI DUP5 DUP10 ADD CALLDATALOAD PUSH2 0xE69 PUSH1 0x1F DUP10 AND DUP3 PUSH2 0xD7F JUMP JUMPDEST DUP4 SSTORE POP JUMPDEST PUSH1 0x1 PUSH1 0x2 DUP9 MUL ADD DUP9 SSTORE POP POP POP JUMPDEST POP POP POP POP POP POP POP JUMP JUMPDEST PUSH0 PUSH2 0xE8E DUP4 DUP6 PUSH2 0xB6B JUMP JUMPDEST SWAP4 POP PUSH2 0xE9B DUP4 DUP6 DUP5 PUSH2 0x796 JUMP JUMPDEST DUP3 DUP5 ADD SWAP1 POP SWAP4 SWAP3 POP POP POP JUMP JUMPDEST PUSH0 PUSH2 0xEB3 DUP3 DUP5 DUP7 PUSH2 0xE83 JUMP JUMPDEST SWAP2 POP DUP2 SWAP1 POP SWAP4 SWAP3 POP POP POP JUMP JUMPDEST PUSH0 PUSH2 0xEC9 DUP3 PUSH2 0x859 JUMP JUMPDEST SWAP2 POP PUSH32 0xFFFFFFFFFFFFFFFFFFFFFFFFFFFFFFFFFFFFFFFFFFFFFFFFFFFFFFFFFFFFFFFF DUP3 SUB PUSH2 0xEFB JUMPI PUSH2 0xEFA PUSH2 0xBBB JUMP JUMPDEST JUMPDEST PUSH1 0x1 DUP3 ADD SWAP1 POP SWAP2 SWAP1 POP JUMP JUMPDEST PUSH0 PUSH2 0xF11 DUP4 DUP6 PUSH2 0x894 JUMP JUMPDEST SWAP4 POP PUSH2 0xF1E DUP4 DUP6 DUP5 PUSH2 0x796 JUMP JUMPDEST PUSH2 0xF27 DUP4 PUSH2 0x6DE JUMP JUMPDEST DUP5 ADD SWAP1 POP SWAP4 SWAP3 POP POP POP JUMP JUMPDEST PUSH0 PUSH1 0x20 DUP3 ADD SWAP1 POP DUP2 DUP2 SUB PUSH0 DUP4 ADD MSTORE PUSH2 0xF4B DUP2 DUP5 DUP7 PUSH2 0xF06 JUMP JUMPDEST SWAP1 POP SWAP4 SWAP3 POP POP POP JUMP JUMPDEST PUSH32 0x4E487B7100000000000000000000000000000000000000000000000000000000 PUSH0 MSTORE PUSH1 0x32 PUSH1 0x4 MSTORE PUSH1 0x24 PUSH0 REVERT JUMPDEST PUSH0 DUP2 SLOAD PUSH2 0xF8D DUP2 PUSH2 0xAD3 JUMP JUMPDEST PUSH2 0xF97 DUP2 DUP7 PUSH2 0xB6B JUMP JUMPDEST SWAP5 POP PUSH1 0x1 DUP3 AND PUSH0 DUP2 EQ PUSH2 0xFB1 JUMPI PUSH1 0x1 DUP2 EQ PUSH2 0xFC6 JUMPI PUSH2 0xFF8 JUMP JUMPDEST PUSH1 0xFF NOT DUP4 AND DUP7 MSTORE DUP2 ISZERO ISZERO DUP3 MUL DUP7 ADD SWAP4 POP PUSH2 0xFF8 JUMP JUMPDEST PUSH2 0xFCF DUP6 PUSH2 0xC19 JUMP JUMPDEST PUSH0 JUMPDEST DUP4 DUP2 LT ISZERO PUSH2 0xFF0 JUMPI DUP2 SLOAD DUP2 DUP10 ADD MSTORE PUSH1 0x1 DUP3 ADD SWAP2 POP PUSH1 0x20 DUP2 ADD SWAP1 POP PUSH2 0xFD1 JUMP JUMPDEST DUP4 DUP9 ADD SWAP6 POP POP POP JUMPDEST POP POP POP SWAP3 SWAP2 POP POP JUMP JUMPDEST PUSH0 PUSH2 0x100C DUP3 DUP5 PUSH2 0xF81 JUMP JUMPDEST SWAP2 POP DUP2 SWAP1 POP SWAP3 SWAP2 POP POP JUMP INVALID LOG2 PUSH5 0x6970667358 0x22 SLT KECCAK256 SHL MSTORE GT SAR 0xEB 0xD6 LOG4 0xF6 0x2E PUSH4 0x8172D6E8 SWAP4 XOR 0xEC 0xB9 0xB3 SIGNEXTEND 0xCA PUSH28 0xEE1849123CFA9F26AD6D64736F6C6343000817003300000000000000 "
		},
		"gasEstimates": {
			"creation": {
				"codeDepositCost": "834600",
				"executionCost": "infinite",
				"totalCost": "infinite"
			},
			"external": {
				"emojiCount(string)": "infinite",
				"emojiOptions(uint256)": "infinite",
				"getCount(string)": "infinite",
				"myReaction()": "infinite",
				"react(string)": "infinite",
				"reactions(address)": "infinite"
			},
			"internal": {
				"validEmoji(string memory)": "infinite"
			}
		},
		"methodIdentifiers": {
			"emojiCount(string)": "008356af",
			"emojiOptions(uint256)": "86b97733",
			"getCount(string)": "f001a551",
			"myReaction()": "3bbc61d5",
			"react(string)": "ec9d6ac8",
			"reactions(address)": "60ed63ed"
		}
	},
	"abi": [
		{
			"anonymous": false,
			"inputs": [
				{
					"indexed": true,
					"internalType": "address",
					"name": "user",
					"type": "address"
				},
				{
					"indexed": false,
					"internalType": "string",
					"name": "emoji",
					"type": "string"
				}
			],
			"name": "Reacted",
			"type": "event"
		},
		{
			"inputs": [
				{
					"internalType": "string",
					"name": "",
					"type": "string"
				}
			],
			"name": "emojiCount",
			"outputs": [
				{
					"internalType": "uint256",
					"name": "",
					"type": "uint256"
				}
			],
			"stateMutability": "view",
			"type": "function"
		},
		{
			"inputs": [
				{
					"internalType": "uint256",
					"name": "",
					"type": "uint256"
				}
			],
			"name": "emojiOptions",
			"outputs": [
				{
					"internalType": "string",
					"name": "",
					"type": "string"
				}
			],
			"stateMutability": "view",
			"type": "function"
		},
		{
			"inputs": [
				{
					"internalType": "string",
					"name": "emoji",
					"type": "string"
				}
			],
			"name": "getCount",
			"outputs": [
				{
					"internalType": "uint256",
					"name": "",
					"type": "uint256"
				}
			],
			"stateMutability": "view",
			"type": "function"
		},
		{
			"inputs": [],
			"name": "myReaction",
			"outputs": [
				{
					"internalType": "string",
					"name": "",
					"type": "string"
				}
			],
			"stateMutability": "view",
			"type": "function"
		},
		{
			"inputs": [
				{
					"internalType": "string",
					"name": "emoji",
					"type": "string"
				}
			],
			"name": "react",
			"outputs": [],
			"stateMutability": "nonpayable",
			"type": "function"
		},
		{
			"inputs": [
				{
					"internalType": "address",
					"name": "",
					"type": "address"
				}
			],
			"name": "reactions",
			"outputs": [
				{
					"internalType": "string",
					"name": "",
					"type": "string"
				}
			],
			"stateMutability": "view",
			"type": "function"
		}
	]
}