{
	"data": {
		"bytecode": {
			"linkReferences": {},
			"object": "608060405234801561000f575f80fd5b506106578061001d5f395ff3fe608060405234801561000f575f80fd5b5060043610610034575f3560e01c80630d80fefd14610038578063ebaac77114610068575b5f80fd5b610052600480360381019061004d91906101a2565b610084565b60405161005f9190610257565b60405180910390f35b610082600480360381019061007d91906102d8565b610129565b005b5f8181548110610092575f80fd5b905f5260205f20015f9150905080546100aa90610350565b80601f01602080910402602001604051908101604052809291908181526020018280546100d690610350565b80156101215780601f106100f857610100808354040283529160200191610121565b820191905f5260205f20905b81548152906001019060200180831161010457829003601f168201915b505050505081565b5f828290918060018154018082558091505060019003905f5260205f20015f909192909192909192909192509182610162929190610554565b505050565b5f80fd5b5f80fd5b5f819050919050565b6101818161016f565b811461018b575f80fd5b50565b5f8135905061019c81610178565b92915050565b5f602082840312156101b7576101b6610167565b5b5f6101c48482850161018e565b91505092915050565b5f81519050919050565b5f82825260208201905092915050565b5f5b838110156102045780820151818401526020810190506101e9565b5f8484015250505050565b5f601f19601f8301169050919050565b5f610229826101cd565b61023381856101d7565b93506102438185602086016101e7565b61024c8161020f565b840191505092915050565b5f6020820190508181035f83015261026f818461021f565b905092915050565b5f80fd5b5f80fd5b5f80fd5b5f8083601f84011261029857610297610277565b5b8235905067ffffffffffffffff8111156102b5576102b461027b565b5b6020830191508360018202830111156102d1576102d061027f565b5b9250929050565b5f80602083850312156102ee576102ed610167565b5b5f83013567ffffffffffffffff81111561030b5761030a61016b565b5b61031785828601610283565b92509250509250929050565b7f4e487b71000000000000000000000000000000000000000000000000000000005f52602260045260245ffd5b5f600282049050600182168061036757607f821691505b60208210810361037a57610379610323565b5b50919050565b5f82905092915050565b7f4e487b71000000000000000000000000000000000000000000000000000000005f52604160045260245ffd5b5f819050815f5260205f209050919050565b5f6020601f8301049050919050565b5f82821b905092915050565b5f600883026104137fffffffffffffffffffffffffffffffffffffffffffffffffffffffffffffffff826103d8565b61041d86836103d8565b95508019841693508086168417925050509392505050565b5f819050919050565b5f61045861045361044e8461016f565b610435565b61016f565b9050919050565b5f819050919050565b6104718361043e565b61048561047d8261045f565b8484546103e4565b825550505050565b5f90565b61049961048d565b6104a4818484610468565b505050565b5b818110156104c7576104bc5f82610491565b6001810190506104aa565b5050565b601f82111561050c576104dd816103b7565b6104e6846103c9565b810160208510156104f5578190505b610509610501856103c9565b8301826104a9565b50505b505050565b5f82821c905092915050565b5f61052c5f1984600802610511565b1980831691505092915050565b5f610544838361051d565b9150826002028217905092915050565b61055e8383610380565b67ffffffffffffffff8111156105775761057661038a565b5b6105818254610350565b61058c8282856104cb565b5f601f8311600181146105b9575f84156105a7578287013590505b6105b18582610539565b865550610618565b601f1984166105c7866103b7565b5f5b828110156105ee578489013582556001820191506020850194506020810190506105c9565b8683101561060b5784890135610607601f89168261051d565b8355505b6001600288020188555050505b5050505050505056fea2646970667358221220c625ae7c2e8ad2bca4ebafd95ec4063bd1ea61654b32647ed1b37441151275a564736f6c63430008170033",
			"opcodes": "PUSH1 0x80 PUSH1 0x40 MSTORE CALLVALUE DUP1 ISZERO PUSH2 0xF JUMPI PUSH0 DUP1 REVERT JUMPDEST POP PUSH2 0x657 DUP1 PUSH2 0x1D PUSH0 CODECOPY PUSH0 RETURN INVALID PUSH1 0x80 PUSH1 0x40 MSTORE CALLVALUE DUP1 ISZERO PUSH2 0xF JUMPI PUSH0 DUP1 REVERT JUMPDEST POP PUSH1 0x4 CALLDATASIZE LT PUSH2 0x34 JUMPI PUSH0 CALLDATALOAD PUSH1 0xE0 SHR DUP1 PUSH4 0xD80FEFD EQ PUSH2 0x38 JUMPI DUP1 PUSH4 0xEBAAC771 EQ PUSH2 0x68 JUMPI JUMPDEST PUSH0 DUP1 REVERT JUMPDEST PUSH2 0x52 PUSH1 0x4 DUP1 CALLDATASIZE SUB DUP2 ADD SWAP1 PUSH2 0x4D SWAP2 SWAP1 PUSH2 0x1A2 JUMP JUMPDEST PUSH2 0x84 JUMP JUMPDEST PUSH1 0x40 MLOAD PUSH2 0x5F SWAP2 SWAP1 PUSH2 0x257 JUMP JUMPDEST PUSH1 0x40 MLOAD DUP1 SWAP2 SUB SWAP1 RETURN JUMPDEST PUSH2 0x82 PUSH1 0x4 DUP1 CALLDATASIZE SUB DUP2 ADD SWAP1 PUSH2 0x7D SWAP2 SWAP1 PUSH2 0x2D8 JUMP JUMPDEST PUSH2 0x129 JUMP JUMPDEST STOP JUMPDEST PUSH0 DUP2 DUP2 SLOAD DUP2 LT PUSH2 0x92 JUMPI PUSH0 DUP1 REVERT JUMPDEST SWAP1 PUSH0 MSTORE PUSH1 0x20 PUSH0 KECCAK256 ADD PUSH0 SWAP2 POP SWAP1 POP DUP1 SLOAD PUSH2 0xAA SWAP1 PUSH2 0x350 JUMP JUMPDEST DUP1 PUSH1 0x1F ADD PUSH1 0x20 DUP1 SWAP2 DIV MUL PUSH1 0x20 ADD PUSH1 0x40 MLOAD SWAP1 DUP2 ADD PUSH1 0x40 MSTORE DUP1 SWAP3 SWAP2 SWAP1 DUP2 DUP2 MSTORE PUSH1 0x20 ADD DUP3 DUP1 SLOAD PUSH2 0xD6 SWAP1 PUSH2 0x350 JUMP JUMPDEST DUP1 ISZERO PUSH2 0x121 JUMPI DUP1 PUSH1 0x1F LT PUSH2 0xF8 JUMPI PUSH2 0x100 DUP1 DUP4 SLOAD DIV MUL DUP4 MSTORE SWAP2 PUSH1 0x20 ADD SWAP2 PUSH2 0x121 JUMP JUMPDEST DUP3 ADD SWAP2 SWAP1 PUSH0 MSTORE PUSH1 0x20 PUSH0 KECCAK256 SWAP1 JUMPDEST DUP2 SLOAD DUP2 MSTORE SWAP1 PUSH1 0x1 ADD SWAP1 PUSH1 0x20 ADD DUP1 DUP4 GT PUSH2 0x104 JUMPI DUP3 SWAP1 SUB PUSH1 0x1F AND DUP3 ADD SWAP2 JUMPDEST POP POP POP POP POP DUP2 JUMP JUMPDEST PUSH0 DUP3 DUP3 SWAP1 SWAP2 DUP1 PUSH1 0x1 DUP2 SLOAD ADD DUP1 DUP3 SSTORE DUP1 SWAP2 POP POP PUSH1 0x1 SWAP1 SUB SWAP1 PUSH0 MSTORE PUSH1 0x20 PUSH0 KECCAK256 ADD PUSH0 SWAP1 SWAP2 SWAP3 SWAP1 SWAP2 SWAP3 SWAP1 SWAP2 SWAP3 SWAP1 SWAP2 SWAP3 POP SWAP2 DUP3 PUSH2 0x162 SWAP3 SWAP2 SWAP1 PUSH2 0x554 JUMP JUMPDEST POP POP POP JUMP JUMPDEST PUSH0 DUP1 REVERT JUMPDEST PUSH0 DUP1 REVERT JUMPDEST PUSH0 DUP2 SWAP1 POP SWAP2 SWAP1 POP JUMP JUMPDEST PUSH2 0x181 DUP2 PUSH2 0x16F JUMP JUMPDEST DUP2 EQ PUSH2 0x18B JUMPI PUSH0 DUP1 REVERT JUMPDEST POP JUMP JUMPDEST PUSH0 DUP2 CALLDATALOAD SWAP1 POP PUSH2 0x19C DUP2 PUSH2 0x178 JUMP JUMPDEST SWAP3 SWAP2 POP POP JUMP JUMPDEST PUSH0 PUSH1 0x20 DUP3 DUP5 SUB SLT ISZERO PUSH2 0x1B7 JUMPI PUSH2 0x1B6 PUSH2 0x167 JUMP JUMPDEST JUMPDEST PUSH0 PUSH2 0x1C4 DUP5 DUP3 DUP6 ADD PUSH2 0x18E JUMP JUMPDEST SWAP2 POP POP SWAP3 SWAP2 POP POP JUMP JUMPDEST PUSH0 DUP2 MLOAD SWAP1 POP SWAP2 SWAP1 POP JUMP JUMPDEST PUSH0 DUP3 DUP3 MSTORE PUSH1 0x20 DUP3 ADD SWAP1 POP SWAP3 SWAP2 POP POP JUMP JUMPDEST PUSH0 JUMPDEST DUP4 DUP2 LT ISZERO PUSH2 0x204 JUMPI DUP1 DUP3 ADD MLOAD DUP2 DUP5 ADD MSTORE PUSH1 0x20 DUP2 ADD SWAP1 POP PUSH2 0x1E9 JUMP JUMPDEST PUSH0 DUP5 DUP5 ADD MSTORE POP POP POP POP JUMP JUMPDEST PUSH0 PUSH1 0x1F NOT PUSH1 0x1F DUP4 ADD AND SWAP1 POP SWAP2 SWAP1 POP JUMP JUMPDEST PUSH0 PUSH2 0x229 DUP3 PUSH2 0x1CD JUMP JUMPDEST PUSH2 0x233 DUP2 DUP6 PUSH2 0x1D7 JUMP JUMPDEST SWAP4 POP PUSH2 0x243 DUP2 DUP6 PUSH1 0x20 DUP7 ADD PUSH2 0x1E7 JUMP JUMPDEST PUSH2 0x24C DUP2 PUSH2 0x20F JUMP JUMPDEST DUP5 ADD SWAP2 POP POP SWAP3 SWAP2 POP POP JUMP JUMPDEST PUSH0 PUSH1 0x20 DUP3 ADD SWAP1 POP DUP2 DUP2 SUB PUSH0 DUP4 ADD MSTORE PUSH2 0x26F DUP2 DUP5 PUSH2 0x21F JUMP JUMPDEST SWAP1 POP SWAP3 SWAP2 POP POP JUMP JUMPDEST PUSH0 DUP1 REVERT JUMPDEST PUSH0 DUP1 REVERT JUMPDEST PUSH0 DUP1 REVERT JUMPDEST PUSH0 DUP1 DUP4 PUSH1 0x1F DUP5 ADD SLT PUSH2 0x298 JUMPI PUSH2 0x297 PUSH2 0x277 JUMP JUMPDEST JUMPDEST DUP3 CALLDATALOAD SWAP1 POP PUSH8 0xFFFFFFFFFFFFFFFF DUP2 GT ISZERO PUSH2 0x2B5 JUMPI PUSH2 0x2B4 PUSH2 0x27B JUMP JUMPDEST JUMPDEST PUSH1 0x20 DUP4 ADD SWAP2 POP DUP4 PUSH1 0x1 DUP3 MUL DUP4 ADD GT ISZERO PUSH2 0x2D1 JUMPI PUSH2 0x2D0 PUSH2 0x27F JUMP JUMPDEST JUMPDEST SWAP3 POP SWAP3 SWAP1 POP JUMP JUMPDEST PUSH0 DUP1 PUSH1 0x20 DUP4 DUP6 SUB SLT ISZERO PUSH2 0x2EE JUMPI PUSH2 0x2ED PUSH2 0x167 JUMP JUMPDEST JUMPDEST PUSH0 DUP4 ADD CALLDATALOAD PUSH8 0xFFFFFFFFFFFFFFFF DUP2 GT ISZERO PUSH2 0x30B JUMPI PUSH2 0x30A PUSH2 0x16B JUMP JUMPDEST JUMPDEST PUSH2 0x317 DUP6 DUP3 DUP7 ADD PUSH2 0x283 JUMP JUMPDEST SWAP3 POP SWAP3 POP POP SWAP3 POP SWAP3 SWAP1 POP JUMP JUMPDEST PUSH32 0x4E487B7100000000000000000000000000000000000000000000000000000000 PUSH0 MSTORE PUSH1 0x22 PUSH1 0x4 MSTORE PUSH1 0x24 PUSH0 REVERT JUMPDEST PUSH0 PUSH1 0x2 DUP3 DIV SWAP1 POP PUSH1 0x1 DUP3 AND DUP1 PUSH2 0x367 JUMPI PUSH1 0x7F DUP3 AND SWAP2 POP JUMPDEST PUSH1 0x20 DUP3 LT DUP2 SUB PUSH2 0x37A JUMPI PUSH2 0x379 PUSH2 0x323 JUMP JUMPDEST JUMPDEST POP SWAP2 SWAP1 POP JUMP JUMPDEST PUSH0 DUP3 SWAP1 POP SWAP3 SWAP2 POP POP JUMP JUMPDEST PUSH32 0x4E487B7100000000000000000000000000000000000000000000000000000000 PUSH0 MSTORE PUSH1 0x41 PUSH1 0x4 MSTORE PUSH1 0x24 PUSH0 REVERT JUMPDEST PUSH0 DUP2 SWAP1 POP DUP2 PUSH0 MSTORE PUSH1 0x20 PUSH0 KECCAK256 SWAP1 POP SWAP2 SWAP1 POP JUMP JUMPDEST PUSH0 PUSH1 0x20 PUSH1 0x1F DUP4 ADD DIV SWAP1 POP SWAP2 SWAP1 POP JUMP JUMPDEST PUSH0 DUP3 DUP3 SHL SWAP1 POP SWAP3 SWAP2 POP POP JUMP JUMPDEST PUSH0 PUSH1 0x8 DUP4 MUL PUSH2 0x413 PUSH32 0xFFFFFFFFFFFFFFFFFFFFFFFFFFFFFFFFFFFFFFFFFFFFFFFFFFFFFFFFFFFFFFFF DUP3 PUSH2 0x3D8 JUMP JUMPDEST PUSH2 0x41D DUP7 DUP4 PUSH2 0x3D8 JUMP JUMPDEST SWAP6 POP DUP1 NOT DUP5 AND SWAP4 POP DUP1 DUP7 AND DUP5 OR SWAP3 POP POP POP SWAP4 SWAP3 POP POP POP JUMP JUMPDEST PUSH0 DUP2 SWAP1 POP SWAP2 SWAP1 POP JUMP JUMPDEST PUSH0 PUSH2 0x458 PUSH2 0x453 PUSH2 0x44E DUP5 PUSH2 0x16F JUMP JUMPDEST PUSH2 0x435 JUMP JUMPDEST PUSH2 0x16F JUMP JUMPDEST SWAP1 POP SWAP2 SWAP1 POP JUMP JUMPDEST PUSH0 DUP2 SWAP1 POP SWAP2 SWAP1 POP JUMP JUMPDEST PUSH2 0x471 DUP4 PUSH2 0x43E JUMP JUMPDEST PUSH2 0x485 PUSH2 0x47D DUP3 PUSH2 0x45F JUMP JUMPDEST DUP5 DUP5 SLOAD PUSH2 0x3E4 JUMP JUMPDEST DUP3 SSTORE POP POP POP POP JUMP JUMPDEST PUSH0 SWAP1 JUMP JUMPDEST PUSH2 0x499 PUSH2 0x48D JUMP JUMPDEST PUSH2 0x4A4 DUP2 DUP5 DUP5 PUSH2 0x468 JUMP JUMPDEST POP POP POP JUMP JUMPDEST JUMPDEST DUP2 DUP2 LT ISZERO PUSH2 0x4C7 JUMPI PUSH2 0x4BC PUSH0 DUP3 PUSH2 0x491 JUMP JUMPDEST PUSH1 0x1 DUP2 ADD SWAP1 POP PUSH2 0x4AA JUMP JUMPDEST POP POP JUMP JUMPDEST PUSH1 0x1F DUP3 GT ISZERO PUSH2 0x50C JUMPI PUSH2 0x4DD DUP2 PUSH2 0x3B7 JUMP JUMPDEST PUSH2 0x4E6 DUP5 PUSH2 0x3C9 JUMP JUMPDEST DUP2 ADD PUSH1 0x20 DUP6 LT ISZERO PUSH2 0x4F5 JUMPI DUP2 SWAP1 POP JUMPDEST PUSH2 0x509 PUSH2 0x501 DUP6 PUSH2 0x3C9 JUMP JUMPDEST DUP4 ADD DUP3 PUSH2 0x4A9 JUMP JUMPDEST POP POP JUMPDEST POP POP POP JUMP JUMPDEST PUSH0 DUP3 DUP3 SHR SWAP1 POP SWAP3 SWAP2 POP POP JUMP JUMPDEST PUSH0 PUSH2 0x52C PUSH0 NOT DUP5 PUSH1 0x8 MUL PUSH2 0x511 JUMP JUMPDEST NOT DUP1 DUP4 AND SWAP2 POP POP SWAP3 SWAP2 POP POP JUMP JUMPDEST PUSH0 PUSH2 0x544 DUP4 DUP4 PUSH2 0x51D JUMP JUMPDEST SWAP2 POP DUP3 PUSH1 0x2 MUL DUP3 OR SWAP1 POP SWAP3 SWAP2 POP POP JUMP JUMPDEST PUSH2 0x55E DUP4 DUP4 PUSH2 0x380 JUMP JUMPDEST PUSH8 0xFFFFFFFFFFFFFFFF DUP2 GT ISZERO PUSH2 0x577 JUMPI PUSH2 0x576 PUSH2 0x38A JUMP JUMPDEST JUMPDEST PUSH2 0x581 DUP3 SLOAD PUSH2 0x350 JUMP JUMPDEST PUSH2 0x58C DUP3 DUP3 DUP6 PUSH2 0x4CB JUMP JUMPDEST PUSH0 PUSH1 0x1F DUP4 GT PUSH1 0x1 DUP2 EQ PUSH2 0x5B9 JUMPI PUSH0 DUP5 ISZERO PUSH2 0x5A7 JUMPI DUP3 DUP8 ADD CALLDATALOAD SWAP1 POP JUMPDEST PUSH2 0x5B1 DUP6 DUP3 PUSH2 0x539 JUMP JUMPDEST DUP7 SSTORE POP PUSH2 0x618 JUMP JUMPDEST PUSH1 0x1F NOT DUP5 AND PUSH2 0x5C7 DUP7 PUSH2 0x3B7 JUMP JUMPDEST PUSH0 JUMPDEST DUP3 DUP2 LT ISZERO PUSH2 0x5EE JUMPI DUP5 DUP10 ADD CALLDATALOAD DUP3 SSTORE PUSH1 0x1 DUP3 ADD SWAP2 POP PUSH1 0x20 DUP6 ADD SWAP5 POP PUSH1 0x20 DUP2 ADD SWAP1 POP PUSH2 0x5C9 JUMP JUMPDEST DUP7 DUP4 LT ISZERO PUSH2 0x60B JUMPI DUP5 DUP10 ADD CALLDATALOAD PUSH2 0x607 PUSH1 0x1F DUP10 AND DUP3 PUSH2 0x51D JUMP JUMPDEST DUP4 SSTORE POP JUMPDEST PUSH1 0x1 PUSH1 0x2 DUP9 MUL ADD DUP9 SSTORE POP POP POP JUMPDEST POP POP POP POP POP POP POP JUMP INVALID LOG2 PUSH5 0x6970667358 0x22 SLT KECCAK256 0xC6 0x25 0xAE PUSH29 0x2E8AD2BCA4EBAFD95EC4063BD1EA61654B32647ED1B37441151275A564 PUSH20 0x6F6C634300081700330000000000000000000000 "
		},
		"gasEstimates": {
			"creation": {
				"codeDepositCost": "324600",
				"executionCost": "360",
				"totalCost": "324960"
			},
			"external": {
				"messages(uint256)": "infinite",
				"write(string)": "infinite"
			}
		},
		"methodIdentifiers": {
			"messages(uint256)": "0d80fefd",
			"write(string)": "ebaac771"
		}
	},
	"abi": [
		{
			"inputs": [
				{
					"internalType": "uint256",
					"name": "",
					"type": "uint256"
				}
			],
			"name": "messages",
			"outputs": [
				{
					"internalType": "string",
					"name": "",
					"type": "string"
				}
			],
			"stateMutability": "view",
			"type": "function"
		},
		{
			"inputs": [
				{
					"internalType": "string",
					"name": "msgText",
					"type": "string"
				}
			],
			"name": "write",
			"outputs": [],
			"stateMutability": "nonpayable",
			"type": "function"
		}
	]
}