{
	"data": {
		"bytecode": {
			"linkReferences": {},
			"object": "608060405234801561000f575f80fd5b5061021f8061001d5f395ff3fe608060405234801561000f575f80fd5b5060043610610029575f3560e01c8063aacc5a171461002d575b5f80fd5b61003561004b565b60405161004291906100a2565b60405180910390f35b5f606442433360405160200161006393929190610150565b604051602081830303815290604052805190602001205f1c61008591906101b9565b905090565b5f819050919050565b61009c8161008a565b82525050565b5f6020820190506100b55f830184610093565b92915050565b5f819050919050565b6100d56100d08261008a565b6100bb565b82525050565b5f73ffffffffffffffffffffffffffffffffffffffff82169050919050565b5f610104826100db565b9050919050565b5f8160601b9050919050565b5f6101218261010b565b9050919050565b5f61013282610117565b9050919050565b61014a610145826100fa565b610128565b82525050565b5f61015b82866100c4565b60208201915061016b82856100c4565b60208201915061017b8284610139565b601482019150819050949350505050565b7f4e487b71000000000000000000000000000000000000000000000000000000005f52601260045260245ffd5b5f6101c38261008a565b91506101ce8361008a565b9250826101de576101dd61018c565b5b82820690509291505056fea26469706673582212209824e4ce92f81845c0128c3a809dc915b0fd7b6e329cb3fb42293e059c6cd3d464736f6c63430008170033",
			"opcodes": "PUSH1 0x80 PUSH1 0x40 MSTORE CALLVALUE DUP1 ISZERO PUSH2 0xF JUMPI PUSH0 DUP1 REVERT JUMPDEST POP PUSH2 0x21F DUP1 PUSH2 0x1D PUSH0 CODECOPY PUSH0 RETURN INVALID PUSH1 0x80 PUSH1 0x40 MSTORE CALLVALUE DUP1 ISZERO PUSH2 0xF JUMPI PUSH0 DUP1 REVERT JUMPDEST POP PUSH1 0x4 CALLDATASIZE LT PUSH2 0x29 JUMPI PUSH0 CALLDATALOAD PUSH1 0xE0 SHR DUP1 PUSH4 0xAACC5A17 EQ PUSH2 0x2D JUMPI JUMPDEST PUSH0 DUP1 REVERT JUMPDEST PUSH2 0x35 PUSH2 0x4B JUMP JUMPDEST PUSH1 0x40 MLOAD PUSH2 0x42 SWAP2 SWAP1 PUSH2 0xA2 JUMP JUMPDEST PUSH1 0x40 MLOAD DUP1 SWAP2 SUB SWAP1 RETURN JUMPDEST PUSH0 PUSH1 0x64 TIMESTAMP NUMBER CALLER PUSH1 0x40 MLOAD PUSH1 0x20 ADD PUSH2 0x63 SWAP4 SWAP3 SWAP2 SWAP1 PUSH2 0x150 JUMP JUMPDEST PUSH1 0x40 MLOAD PUSH1 0x20 DUP2 DUP4 SUB SUB DUP2 MSTORE SWAP1 PUSH1 0x40 MSTORE DUP1 MLOAD SWAP1 PUSH1 0x20 ADD KECCAK256 PUSH0 SHR PUSH2 0x85 SWAP2 SWAP1 PUSH2 0x1B9 JUMP JUMPDEST SWAP1 POP SWAP1 JUMP JUMPDEST PUSH0 DUP2 SWAP1 POP SWAP2 SWAP1 POP JUMP JUMPDEST PUSH2 0x9C DUP2 PUSH2 0x8A JUMP JUMPDEST DUP3 MSTORE POP POP JUMP JUMPDEST PUSH0 PUSH1 0x20 DUP3 ADD SWAP1 POP PUSH2 0xB5 PUSH0 DUP4 ADD DUP5 PUSH2 0x93 JUMP JUMPDEST SWAP3 SWAP2 POP POP JUMP JUMPDEST PUSH0 DUP2 SWAP1 POP SWAP2 SWAP1 POP JUMP JUMPDEST PUSH2 0xD5 PUSH2 0xD0 DUP3 PUSH2 0x8A JUMP JUMPDEST PUSH2 0xBB JUMP JUMPDEST DUP3 MSTORE POP POP JUMP JUMPDEST PUSH0 PUSH20 0xFFFFFFFFFFFFFFFFFFFFFFFFFFFFFFFFFFFFFFFF DUP3 AND SWAP1 POP SWAP2 SWAP1 POP JUMP JUMPDEST PUSH0 PUSH2 0x104 DUP3 PUSH2 0xDB JUMP JUMPDEST SWAP1 POP SWAP2 SWAP1 POP JUMP JUMPDEST PUSH0 DUP2 PUSH1 0x60 SHL SWAP1 POP SWAP2 SWAP1 POP JUMP JUMPDEST PUSH0 PUSH2 0x121 DUP3 PUSH2 0x10B JUMP JUMPDEST SWAP1 POP SWAP2 SWAP1 POP JUMP JUMPDEST PUSH0 PUSH2 0x132 DUP3 PUSH2 0x117 JUMP JUMPDEST SWAP1 POP SWAP2 SWAP1 POP JUMP JUMPDEST PUSH2 0x14A PUSH2 0x145 DUP3 PUSH2 0xFA JUMP JUMPDEST PUSH2 0x128 JUMP JUMPDEST DUP3 MSTORE POP POP JUMP JUMPDEST PUSH0 PUSH2 0x15B DUP3 DUP7 PUSH2 0xC4 JUMP JUMPDEST PUSH1 0x20 DUP3 ADD SWAP2 POP PUSH2 0x16B DUP3 DUP6 PUSH2 0xC4 JUMP JUMPDEST PUSH1 0x20 DUP3 ADD SWAP2 POP PUSH2 0x17B DUP3 DUP5 PUSH2 0x139 JUMP JUMPDEST PUSH1 0x14 DUP3 ADD SWAP2 POP DUP2 SWAP1 POP SWAP5 SWAP4 POP POP POP POP JUMP JUMPDEST PUSH32 0x4E487B7100000000000000000000000000000000000000000000000000000000 PUSH0 MSTORE PUSH1 0x12 PUSH1 0x4 MSTORE PUSH1 0x24 PUSH0 REVERT JUMPDEST PUSH0 PUSH2 0x1C3 DUP3 PUSH2 0x8A JUMP JUMPDEST SWAP2 POP PUSH2 0x1CE DUP4 PUSH2 0x8A JUMP JUMPDEST SWAP3 POP DUP3 PUSH2 0x1DE JUMPI PUSH2 0x1DD PUSH2 0x18C JUMP JUMPDEST JUMPDEST DUP3 DUP3 MOD SWAP1 POP SWAP3 SWAP2 POP POP JUMP INVALID LOG2 PUSH5 0x6970667358 0x22 SLT KECCAK256 SWAP9 0x24 0xE4 0xCE SWAP3 0xF8 XOR GASLIMIT 0xC0 SLT DUP13 GASPRICE DUP1 SWAP14 0xC9 ISZERO 0xB0 REVERT PUSH28 0x6E329CB3FB42293E059C6CD3D464736F6C6343000817003300000000 "
		},
		"gasEstimates": {
			"creation": {
				"codeDepositCost": "108600",
				"executionCost": "151",
				"totalCost": "108751"
			},
			"external": {
				"getRandom()": "infinite"
			}
		},
		"methodIdentifiers": {
			"getRandom()": "aacc5a17"
		}
	},
	"abi": [
		{
			"inputs": [],
			"name": "getRandom",
			"outputs": [
				{
					"internalType": "uint256",
					"name": "",
					"type": "uint256"
				}
			],
			"stateMutability": "view",
			"type": "function"
		}
	]
}