{
	"data": {
		"bytecode": {
			"linkReferences": {},
			"object": "608060405234801561000f575f80fd5b506108898061001d5f395ff3fe608060405234801561000f575f80fd5b506004361061004a575f3560e01c8063111002aa1461004e5780638d9776721461006a578063c17a340e1461009b578063d81ef739146100b9575b5f80fd5b610068600480360381019061006391906103ce565b6100d5565b005b610084600480360381019061007f9190610448565b61014b565b604051610092929190610507565b60405180910390f35b6100a361020b565b6040516100b09190610544565b60405180910390f35b6100d360048036038101906100ce9190610448565b610216565b005b5f60405180604001604052808381526020015f1515815250908060018154018082558091505060019003905f5260205f2090600202015f909190919091505f820151815f0190816101269190610757565b506020820151816001015f6101000a81548160ff021916908315150217905550505050565b5f8181548110610159575f80fd5b905f5260205f2090600202015f91509050805f0180546101789061058a565b80601f01602080910402602001604051908101604052809291908181526020018280546101a49061058a565b80156101ef5780601f106101c6576101008083540402835291602001916101ef565b820191905f5260205f20905b8154815290600101906020018083116101d257829003601f168201915b505050505090806001015f9054906101000a900460ff16905082565b5f8080549050905090565b5f818154811061022957610228610826565b5b905f5260205f2090600202016001015f9054906101000a900460ff16155f828154811061025957610258610826565b5b905f5260205f2090600202016001015f6101000a81548160ff02191690831515021790555050565b5f604051905090565b5f80fd5b5f80fd5b5f80fd5b5f80fd5b5f601f19601f8301169050919050565b7f4e487b71000000000000000000000000000000000000000000000000000000005f52604160045260245ffd5b6102e08261029a565b810181811067ffffffffffffffff821117156102ff576102fe6102aa565b5b80604052505050565b5f610311610281565b905061031d82826102d7565b919050565b5f67ffffffffffffffff82111561033c5761033b6102aa565b5b6103458261029a565b9050602081019050919050565b828183375f83830152505050565b5f61037261036d84610322565b610308565b90508281526020810184848401111561038e5761038d610296565b5b610399848285610352565b509392505050565b5f82601f8301126103b5576103b4610292565b5b81356103c5848260208601610360565b91505092915050565b5f602082840312156103e3576103e261028a565b5b5f82013567ffffffffffffffff811115610400576103ff61028e565b5b61040c848285016103a1565b91505092915050565b5f819050919050565b61042781610415565b8114610431575f80fd5b50565b5f813590506104428161041e565b92915050565b5f6020828403121561045d5761045c61028a565b5b5f61046a84828501610434565b91505092915050565b5f81519050919050565b5f82825260208201905092915050565b5f5b838110156104aa57808201518184015260208101905061048f565b5f8484015250505050565b5f6104bf82610473565b6104c9818561047d565b93506104d981856020860161048d565b6104e28161029a565b840191505092915050565b5f8115159050919050565b610501816104ed565b82525050565b5f6040820190508181035f83015261051f81856104b5565b905061052e60208301846104f8565b9392505050565b61053e81610415565b82525050565b5f6020820190506105575f830184610535565b92915050565b7f4e487b71000000000000000000000000000000000000000000000000000000005f52602260045260245ffd5b5f60028204905060018216806105a157607f821691505b6020821081036105b4576105b361055d565b5b50919050565b5f819050815f5260205f209050919050565b5f6020601f8301049050919050565b5f82821b905092915050565b5f600883026106167fffffffffffffffffffffffffffffffffffffffffffffffffffffffffffffffff826105db565b61062086836105db565b95508019841693508086168417925050509392505050565b5f819050919050565b5f61065b61065661065184610415565b610638565b610415565b9050919050565b5f819050919050565b61067483610641565b61068861068082610662565b8484546105e7565b825550505050565b5f90565b61069c610690565b6106a781848461066b565b505050565b5b818110156106ca576106bf5f82610694565b6001810190506106ad565b5050565b601f82111561070f576106e0816105ba565b6106e9846105cc565b810160208510156106f8578190505b61070c610704856105cc565b8301826106ac565b50505b505050565b5f82821c905092915050565b5f61072f5f1984600802610714565b1980831691505092915050565b5f6107478383610720565b9150826002028217905092915050565b61076082610473565b67ffffffffffffffff811115610779576107786102aa565b5b610783825461058a565b61078e8282856106ce565b5f60209050601f8311600181146107bf575f84156107ad578287015190505b6107b7858261073c565b86555061081e565b601f1984166107cd866105ba565b5f5b828110156107f4578489015182556001820191506020850194506020810190506107cf565b86831015610811578489015161080d601f891682610720565b8355505b6001600288020188555050505b505050505050565b7f4e487b71000000000000000000000000000000000000000000000000000000005f52603260045260245ffdfea264697066735822122052d7af53ae3f49751daa137fdf081416d0a942ccfa20870084c4cd705c0a73b964736f6c63430008170033",
			"opcodes": "PUSH1 0x80 PUSH1 0x40 MSTORE CALLVALUE DUP1 ISZERO PUSH2 0xF JUMPI PUSH0 DUP1 REVERT JUMPDEST POP PUSH2 0x889 DUP1 PUSH2 0x1D PUSH0 CODECOPY PUSH0 RETURN INVALID PUSH1 0x80 PUSH1 0x40 MSTORE CALLVALUE DUP1 ISZERO PUSH2 0xF JUMPI PUSH0 DUP1 REVERT JUMPDEST POP PUSH1 0x4 CALLDATASIZE LT PUSH2 0x4A JUMPI PUSH0 CALLDATALOAD PUSH1 0xE0 SHR DUP1 PUSH4 0x111002AA EQ PUSH2 0x4E JUMPI DUP1 PUSH4 0x8D977672 EQ PUSH2 0x6A JUMPI DUP1 PUSH4 0xC17A340E EQ PUSH2 0x9B JUMPI DUP1 PUSH4 0xD81EF739 EQ PUSH2 0xB9 JUMPI JUMPDEST PUSH0 DUP1 REVERT JUMPDEST PUSH2 0x68 PUSH1 0x4 DUP1 CALLDATASIZE SUB DUP2 ADD SWAP1 PUSH2 0x63 SWAP2 SWAP1 PUSH2 0x3CE JUMP JUMPDEST PUSH2 0xD5 JUMP JUMPDEST STOP JUMPDEST PUSH2 0x84 PUSH1 0x4 DUP1 CALLDATASIZE SUB DUP2 ADD SWAP1 PUSH2 0x7F SWAP2 SWAP1 PUSH2 0x448 JUMP JUMPDEST PUSH2 0x14B JUMP JUMPDEST PUSH1 0x40 MLOAD PUSH2 0x92 SWAP3 SWAP2 SWAP1 PUSH2 0x507 JUMP JUMPDEST PUSH1 0x40 MLOAD DUP1 SWAP2 SUB SWAP1 RETURN JUMPDEST PUSH2 0xA3 PUSH2 0x20B JUMP JUMPDEST PUSH1 0x40 MLOAD PUSH2 0xB0 SWAP2 SWAP1 PUSH2 0x544 JUMP JUMPDEST PUSH1 0x40 MLOAD DUP1 SWAP2 SUB SWAP1 RETURN JUMPDEST PUSH2 0xD3 PUSH1 0x4 DUP1 CALLDATASIZE SUB DUP2 ADD SWAP1 PUSH2 0xCE SWAP2 SWAP1 PUSH2 0x448 JUMP JUMPDEST PUSH2 0x216 JUMP JUMPDEST STOP JUMPDEST PUSH0 PUSH1 0x40 MLOAD DUP1 PUSH1 0x40 ADD PUSH1 0x40 MSTORE DUP1 DUP4 DUP2 MSTORE PUSH1 0x20 ADD PUSH0 ISZERO ISZERO DUP2 MSTORE POP SWAP1 DUP1 PUSH1 0x1 DUP2 SLOAD ADD DUP1 DUP3 SSTORE DUP1 SWAP2 POP POP PUSH1 0x1 SWAP1 SUB SWAP1 PUSH0 MSTORE PUSH1 0x20 PUSH0 KECCAK256 SWAP1 PUSH1 0x2 MUL ADD PUSH0 SWAP1 SWAP2 SWAP1 SWAP2 SWAP1 SWAP2 POP PUSH0 DUP3 ADD MLOAD DUP2 PUSH0 ADD SWAP1 DUP2 PUSH2 0x126 SWAP2 SWAP1 PUSH2 0x757 JUMP JUMPDEST POP PUSH1 0x20 DUP3 ADD MLOAD DUP2 PUSH1 0x1 ADD PUSH0 PUSH2 0x100 EXP DUP2 SLOAD DUP2 PUSH1 0xFF MUL NOT AND SWAP1 DUP4 ISZERO ISZERO MUL OR SWAP1 SSTORE POP POP POP POP JUMP JUMPDEST PUSH0 DUP2 DUP2 SLOAD DUP2 LT PUSH2 0x159 JUMPI PUSH0 DUP1 REVERT JUMPDEST SWAP1 PUSH0 MSTORE PUSH1 0x20 PUSH0 KECCAK256 SWAP1 PUSH1 0x2 MUL ADD PUSH0 SWAP2 POP SWAP1 POP DUP1 PUSH0 ADD DUP1 SLOAD PUSH2 0x178 SWAP1 PUSH2 0x58A JUMP JUMPDEST DUP1 PUSH1 0x1F ADD PUSH1 0x20 DUP1 SWAP2 DIV MUL PUSH1 0x20 ADD PUSH1 0x40 MLOAD SWAP1 DUP2 ADD PUSH1 0x40 MSTORE DUP1 SWAP3 SWAP2 SWAP1 DUP2 DUP2 MSTORE PUSH1 0x20 ADD DUP3 DUP1 SLOAD PUSH2 0x1A4 SWAP1 PUSH2 0x58A JUMP JUMPDEST DUP1 ISZERO PUSH2 0x1EF JUMPI DUP1 PUSH1 0x1F LT PUSH2 0x1C6 JUMPI PUSH2 0x100 DUP1 DUP4 SLOAD DIV MUL DUP4 MSTORE SWAP2 PUSH1 0x20 ADD SWAP2 PUSH2 0x1EF JUMP JUMPDEST DUP3 ADD SWAP2 SWAP1 PUSH0 MSTORE PUSH1 0x20 PUSH0 KECCAK256 SWAP1 JUMPDEST DUP2 SLOAD DUP2 MSTORE SWAP1 PUSH1 0x1 ADD SWAP1 PUSH1 0x20 ADD DUP1 DUP4 GT PUSH2 0x1D2 JUMPI DUP3 SWAP1 SUB PUSH1 0x1F AND DUP3 ADD SWAP2 JUMPDEST POP POP POP POP POP SWAP1 DUP1 PUSH1 0x1 ADD PUSH0 SWAP1 SLOAD SWAP1 PUSH2 0x100 EXP SWAP1 DIV PUSH1 0xFF AND SWAP1 POP DUP3 JUMP JUMPDEST PUSH0 DUP1 DUP1 SLOAD SWAP1 POP SWAP1 POP SWAP1 JUMP JUMPDEST PUSH0 DUP2 DUP2 SLOAD DUP2 LT PUSH2 0x229 JUMPI PUSH2 0x228 PUSH2 0x826 JUMP JUMPDEST JUMPDEST SWAP1 PUSH0 MSTORE PUSH1 0x20 PUSH0 KECCAK256 SWAP1 PUSH1 0x2 MUL ADD PUSH1 0x1 ADD PUSH0 SWAP1 SLOAD SWAP1 PUSH2 0x100 EXP SWAP1 DIV PUSH1 0xFF AND ISZERO PUSH0 DUP3 DUP2 SLOAD DUP2 LT PUSH2 0x259 JUMPI PUSH2 0x258 PUSH2 0x826 JUMP JUMPDEST JUMPDEST SWAP1 PUSH0 MSTORE PUSH1 0x20 PUSH0 KECCAK256 SWAP1 PUSH1 0x2 MUL ADD PUSH1 0x1 ADD PUSH0 PUSH2 0x100 EXP DUP2 SLOAD DUP2 PUSH1 0xFF MUL NOT AND SWAP1 DUP4 ISZERO ISZERO MUL OR SWAP1 SSTORE POP POP JUMP JUMPDEST PUSH0 PUSH1 0x40 MLOAD SWAP1 POP SWAP1 JUMP JUMPDEST PUSH0 DUP1 REVERT JUMPDEST PUSH0 DUP1 REVERT JUMPDEST PUSH0 DUP1 REVERT JUMPDEST PUSH0 DUP1 REVERT JUMPDEST PUSH0 PUSH1 0x1F NOT PUSH1 0x1F DUP4 ADD AND SWAP1 POP SWAP2 SWAP1 POP JUMP JUMPDEST PUSH32 0x4E487B7100000000000000000000000000000000000000000000000000000000 PUSH0 MSTORE PUSH1 0x41 PUSH1 0x4 MSTORE PUSH1 0x24 PUSH0 REVERT JUMPDEST PUSH2 0x2E0 DUP3 PUSH2 0x29A JUMP JUMPDEST DUP2 ADD DUP2 DUP2 LT PUSH8 0xFFFFFFFFFFFFFFFF DUP3 GT OR ISZERO PUSH2 0x2FF JUMPI PUSH2 0x2FE PUSH2 0x2AA JUMP JUMPDEST JUMPDEST DUP1 PUSH1 0x40 MSTORE POP POP POP JUMP JUMPDEST PUSH0 PUSH2 0x311 PUSH2 0x281 JUMP JUMPDEST SWAP1 POP PUSH2 0x31D DUP3 DUP3 PUSH2 0x2D7 JUMP JUMPDEST SWAP2 SWAP1 POP JUMP JUMPDEST PUSH0 PUSH8 0xFFFFFFFFFFFFFFFF DUP3 GT ISZERO PUSH2 0x33C JUMPI PUSH2 0x33B PUSH2 0x2AA JUMP JUMPDEST JUMPDEST PUSH2 0x345 DUP3 PUSH2 0x29A JUMP JUMPDEST SWAP1 POP PUSH1 0x20 DUP2 ADD SWAP1 POP SWAP2 SWAP1 POP JUMP JUMPDEST DUP3 DUP2 DUP4 CALLDATACOPY PUSH0 DUP4 DUP4 ADD MSTORE POP POP POP JUMP JUMPDEST PUSH0 PUSH2 0x372 PUSH2 0x36D DUP5 PUSH2 0x322 JUMP JUMPDEST PUSH2 0x308 JUMP JUMPDEST SWAP1 POP DUP3 DUP2 MSTORE PUSH1 0x20 DUP2 ADD DUP5 DUP5 DUP5 ADD GT ISZERO PUSH2 0x38E JUMPI PUSH2 0x38D PUSH2 0x296 JUMP JUMPDEST JUMPDEST PUSH2 0x399 DUP5 DUP3 DUP6 PUSH2 0x352 JUMP JUMPDEST POP SWAP4 SWAP3 POP POP POP JUMP JUMPDEST PUSH0 DUP3 PUSH1 0x1F DUP4 ADD SLT PUSH2 0x3B5 JUMPI PUSH2 0x3B4 PUSH2 0x292 JUMP JUMPDEST JUMPDEST DUP2 CALLDATALOAD PUSH2 0x3C5 DUP5 DUP3 PUSH1 0x20 DUP7 ADD PUSH2 0x360 JUMP JUMPDEST SWAP2 POP POP SWAP3 SWAP2 POP POP JUMP JUMPDEST PUSH0 PUSH1 0x20 DUP3 DUP5 SUB SLT ISZERO PUSH2 0x3E3 JUMPI PUSH2 0x3E2 PUSH2 0x28A JUMP JUMPDEST JUMPDEST PUSH0 DUP3 ADD CALLDATALOAD PUSH8 0xFFFFFFFFFFFFFFFF DUP2 GT ISZERO PUSH2 0x400 JUMPI PUSH2 0x3FF PUSH2 0x28E JUMP JUMPDEST JUMPDEST PUSH2 0x40C DUP5 DUP3 DUP6 ADD PUSH2 0x3A1 JUMP JUMPDEST SWAP2 POP POP SWAP3 SWAP2 POP POP JUMP JUMPDEST PUSH0 DUP2 SWAP1 POP SWAP2 SWAP1 POP JUMP JUMPDEST PUSH2 0x427 DUP2 PUSH2 0x415 JUMP JUMPDEST DUP2 EQ PUSH2 0x431 JUMPI PUSH0 DUP1 REVERT JUMPDEST POP JUMP JUMPDEST PUSH0 DUP2 CALLDATALOAD SWAP1 POP PUSH2 0x442 DUP2 PUSH2 0x41E JUMP JUMPDEST SWAP3 SWAP2 POP POP JUMP JUMPDEST PUSH0 PUSH1 0x20 DUP3 DUP5 SUB SLT ISZERO PUSH2 0x45D JUMPI PUSH2 0x45C PUSH2 0x28A JUMP JUMPDEST JUMPDEST PUSH0 PUSH2 0x46A DUP5 DUP3 DUP6 ADD PUSH2 0x434 JUMP JUMPDEST SWAP2 POP POP SWAP3 SWAP2 POP POP JUMP JUMPDEST PUSH0 DUP2 MLOAD SWAP1 POP SWAP2 SWAP1 POP JUMP JUMPDEST PUSH0 DUP3 DUP3 MSTORE PUSH1 0x20 DUP3 ADD SWAP1 POP SWAP3 SWAP2 POP POP JUMP JUMPDEST PUSH0 JUMPDEST DUP4 DUP2 LT ISZERO PUSH2 0x4AA JUMPI DUP1 DUP3 ADD MLOAD DUP2 DUP5 ADD MSTORE PUSH1 0x20 DUP2 ADD SWAP1 POP PUSH2 0x48F JUMP JUMPDEST PUSH0 DUP5 DUP5 ADD MSTORE POP POP POP POP JUMP JUMPDEST PUSH0 PUSH2 0x4BF DUP3 PUSH2 0x473 JUMP JUMPDEST PUSH2 0x4C9 DUP2 DUP6 PUSH2 0x47D JUMP JUMPDEST SWAP4 POP PUSH2 0x4D9 DUP2 DUP6 PUSH1 0x20 DUP7 ADD PUSH2 0x48D JUMP JUMPDEST PUSH2 0x4E2 DUP2 PUSH2 0x29A JUMP JUMPDEST DUP5 ADD SWAP2 POP POP SWAP3 SWAP2 POP POP JUMP JUMPDEST PUSH0 DUP2 ISZERO ISZERO SWAP1 POP SWAP2 SWAP1 POP JUMP JUMPDEST PUSH2 0x501 DUP2 PUSH2 0x4ED JUMP JUMPDEST DUP3 MSTORE POP POP JUMP JUMPDEST PUSH0 PUSH1 0x40 DUP3 ADD SWAP1 POP DUP2 DUP2 SUB PUSH0 DUP4 ADD MSTORE PUSH2 0x51F DUP2 DUP6 PUSH2 0x4B5 JUMP JUMPDEST SWAP1 POP PUSH2 0x52E PUSH1 0x20 DUP4 ADD DUP5 PUSH2 0x4F8 JUMP JUMPDEST SWAP4 SWAP3 POP POP POP JUMP JUMPDEST PUSH2 0x53E DUP2 PUSH2 0x415 JUMP JUMPDEST DUP3 MSTORE POP POP JUMP JUMPDEST PUSH0 PUSH1 0x20 DUP3 ADD SWAP1 POP PUSH2 0x557 PUSH0 DUP4 ADD DUP5 PUSH2 0x535 JUMP JUMPDEST SWAP3 SWAP2 POP POP JUMP JUMPDEST PUSH32 0x4E487B7100000000000000000000000000000000000000000000000000000000 PUSH0 MSTORE PUSH1 0x22 PUSH1 0x4 MSTORE PUSH1 0x24 PUSH0 REVERT JUMPDEST PUSH0 PUSH1 0x2 DUP3 DIV SWAP1 POP PUSH1 0x1 DUP3 AND DUP1 PUSH2 0x5A1 JUMPI PUSH1 0x7F DUP3 AND SWAP2 POP JUMPDEST PUSH1 0x20 DUP3 LT DUP2 SUB PUSH2 0x5B4 JUMPI PUSH2 0x5B3 PUSH2 0x55D JUMP JUMPDEST JUMPDEST POP SWAP2 SWAP1 POP JUMP JUMPDEST PUSH0 DUP2 SWAP1 POP DUP2 PUSH0 MSTORE PUSH1 0x20 PUSH0 KECCAK256 SWAP1 POP SWAP2 SWAP1 POP JUMP JUMPDEST PUSH0 PUSH1 0x20 PUSH1 0x1F DUP4 ADD DIV SWAP1 POP SWAP2 SWAP1 POP JUMP JUMPDEST PUSH0 DUP3 DUP3 SHL SWAP1 POP SWAP3 SWAP2 POP POP JUMP JUMPDEST PUSH0 PUSH1 0x8 DUP4 MUL PUSH2 0x616 PUSH32 0xFFFFFFFFFFFFFFFFFFFFFFFFFFFFFFFFFFFFFFFFFFFFFFFFFFFFFFFFFFFFFFFF DUP3 PUSH2 0x5DB JUMP JUMPDEST PUSH2 0x620 DUP7 DUP4 PUSH2 0x5DB JUMP JUMPDEST SWAP6 POP DUP1 NOT DUP5 AND SWAP4 POP DUP1 DUP7 AND DUP5 OR SWAP3 POP POP POP SWAP4 SWAP3 POP POP POP JUMP JUMPDEST PUSH0 DUP2 SWAP1 POP SWAP2 SWAP1 POP JUMP JUMPDEST PUSH0 PUSH2 0x65B PUSH2 0x656 PUSH2 0x651 DUP5 PUSH2 0x415 JUMP JUMPDEST PUSH2 0x638 JUMP JUMPDEST PUSH2 0x415 JUMP JUMPDEST SWAP1 POP SWAP2 SWAP1 POP JUMP JUMPDEST PUSH0 DUP2 SWAP1 POP SWAP2 SWAP1 POP JUMP JUMPDEST PUSH2 0x674 DUP4 PUSH2 0x641 JUMP JUMPDEST PUSH2 0x688 PUSH2 0x680 DUP3 PUSH2 0x662 JUMP JUMPDEST DUP5 DUP5 SLOAD PUSH2 0x5E7 JUMP JUMPDEST DUP3 SSTORE POP POP POP POP JUMP JUMPDEST PUSH0 SWAP1 JUMP JUMPDEST PUSH2 0x69C PUSH2 0x690 JUMP JUMPDEST PUSH2 0x6A7 DUP2 DUP5 DUP5 PUSH2 0x66B JUMP JUMPDEST POP POP POP JUMP JUMPDEST JUMPDEST DUP2 DUP2 LT ISZERO PUSH2 0x6CA JUMPI PUSH2 0x6BF PUSH0 DUP3 PUSH2 0x694 JUMP JUMPDEST PUSH1 0x1 DUP2 ADD SWAP1 POP PUSH2 0x6AD JUMP JUMPDEST POP POP JUMP JUMPDEST PUSH1 0x1F DUP3 GT ISZERO PUSH2 0x70F JUMPI PUSH2 0x6E0 DUP2 PUSH2 0x5BA JUMP JUMPDEST PUSH2 0x6E9 DUP5 PUSH2 0x5CC JUMP JUMPDEST DUP2 ADD PUSH1 0x20 DUP6 LT ISZERO PUSH2 0x6F8 JUMPI DUP2 SWAP1 POP JUMPDEST PUSH2 0x70C PUSH2 0x704 DUP6 PUSH2 0x5CC JUMP JUMPDEST DUP4 ADD DUP3 PUSH2 0x6AC JUMP JUMPDEST POP POP JUMPDEST POP POP POP JUMP JUMPDEST PUSH0 DUP3 DUP3 SHR SWAP1 POP SWAP3 SWAP2 POP POP JUMP JUMPDEST PUSH0 PUSH2 0x72F PUSH0 NOT DUP5 PUSH1 0x8 MUL PUSH2 0x714 JUMP JUMPDEST NOT DUP1 DUP4 AND SWAP2 POP POP SWAP3 SWAP2 POP POP JUMP JUMPDEST PUSH0 PUSH2 0x747 DUP4 DUP4 PUSH2 0x720 JUMP JUMPDEST SWAP2 POP DUP3 PUSH1 0x2 MUL DUP3 OR SWAP1 POP SWAP3 SWAP2 POP POP JUMP JUMPDEST PUSH2 0x760 DUP3 PUSH2 0x473 JUMP JUMPDEST PUSH8 0xFFFFFFFFFFFFFFFF DUP2 GT ISZERO PUSH2 0x779 JUMPI PUSH2 0x778 PUSH2 0x2AA JUMP JUMPDEST JUMPDEST PUSH2 0x783 DUP3 SLOAD PUSH2 0x58A JUMP JUMPDEST PUSH2 0x78E DUP3 DUP3 DUP6 PUSH2 0x6CE JUMP JUMPDEST PUSH0 PUSH1 0x20 SWAP1 POP PUSH1 0x1F DUP4 GT PUSH1 0x1 DUP2 EQ PUSH2 0x7BF JUMPI PUSH0 DUP5 ISZERO PUSH2 0x7AD JUMPI DUP3 DUP8 ADD MLOAD SWAP1 POP JUMPDEST PUSH2 0x7B7 DUP6 DUP3 PUSH2 0x73C JUMP JUMPDEST DUP7 SSTORE POP PUSH2 0x81E JUMP JUMPDEST PUSH1 0x1F NOT DUP5 AND PUSH2 0x7CD DUP7 PUSH2 0x5BA JUMP JUMPDEST PUSH0 JUMPDEST DUP3 DUP2 LT ISZERO PUSH2 0x7F4 JUMPI DUP5 DUP10 ADD MLOAD DUP3 SSTORE PUSH1 0x1 DUP3 ADD SWAP2 POP PUSH1 0x20 DUP6 ADD SWAP5 POP PUSH1 0x20 DUP2 ADD SWAP1 POP PUSH2 0x7CF JUMP JUMPDEST DUP7 DUP4 LT ISZERO PUSH2 0x811 JUMPI DUP5 DUP10 ADD MLOAD PUSH2 0x80D PUSH1 0x1F DUP10 AND DUP3 PUSH2 0x720 JUMP JUMPDEST DUP4 SSTORE POP JUMPDEST PUSH1 0x1 PUSH1 0x2 DUP9 MUL ADD DUP9 SSTORE POP POP POP JUMPDEST POP POP POP POP POP POP JUMP JUMPDEST PUSH32 0x4E487B7100000000000000000000000000000000000000000000000000000000 PUSH0 MSTORE PUSH1 0x32 PUSH1 0x4 MSTORE PUSH1 0x24 PUSH0 REVERT INVALID LOG2 PUSH5 0x6970667358 0x22 SLT KECCAK256 MSTORE 0xD7 0xAF MSTORE8 0xAE EXTCODEHASH 0x49 PUSH22 0x1DAA137FDF081416D0A942CCFA20870084C4CD705C0A PUSH20 0xB964736F6C634300081700330000000000000000 "
		},
		"gasEstimates": {
			"creation": {
				"codeDepositCost": "437000",
				"executionCost": "472",
				"totalCost": "437472"
			},
			"external": {
				"createTask(string)": "infinite",
				"getTaskCount()": "2462",
				"tasks(uint256)": "infinite",
				"toggleDone(uint256)": "31237"
			}
		},
		"methodIdentifiers": {
			"createTask(string)": "111002aa",
			"getTaskCount()": "c17a340e",
			"tasks(uint256)": "8d977672",
			"toggleDone(uint256)": "d81ef739"
		}
	},
	"abi": [
		{
			"inputs": [
				{
					"internalType": "string",
					"name": "_text",
					"type": "string"
				}
			],
			"name": "createTask",
			"outputs": [],
			"stateMutability": "nonpayable",
			"type": "function"
		},
		{
			"inputs": [],
			"name": "getTaskCount",
			"outputs": [
				{
					"internalType": "uint256",
					"name": "",
					"type": "uint256"
				}
			],
			"stateMutability": "view",
			"type": "function"
		},
		{
			"inputs": [
				{
					"internalType": "uint256",
					"name": "",
					"type": "uint256"
				}
			],
			"name": "tasks",
			"outputs": [
				{
					"internalType": "string",
					"name": "text",
					"type": "string"
				},
				{
					"internalType": "bool",
					"name": "done",
					"type": "bool"
				}
			],
			"stateMutability": "view",
			"type": "function"
		},
		{
			"inputs": [
				{
					"internalType": "uint256",
					"name": "_index",
					"type": "uint256"
				}
			],
			"name": "toggleDone",
			"outputs": [],
			"stateMutability": "nonpayable",
			"type": "function"
		}
	]
}